:10000000F8FF02209901000011380300CD370300EA
:10001000CD370300CD370300CD370300CD370300C4
:10002000CD370300CD370300CD370300113803006F
:1000300011380300CD370300755A0300795A0300C5
:100040001138030011380300113803001138030080
:100050001138030011380300113803001138030070
:100060001138030011380300113803001138030060
:100070001138030011380300113803001138030050
:100080001138030011380300113803001138030040
:100090001138030011380300113803001138030030
:1000A0008DCE020099CE02001138030011380300F2
:1000B0001138030011380300113803001138030010
:1000C0001138030011380300113803001138030000
:1000D00011380300113803001138030049400000B3
:1000E0001138030011380300113803006146020083
:1000F00011380300113803001138030011380300D0
:10010000DD5C0300F55C03000D5D0300255D03006D
:1001100011380300314D030011380300113803007A
:10012000113803001138030011380300113803009F
:10013000113803001138030011380300113803008F
:100140001138030011380300394A03001138030045
:10015000113803001138030011380300113803006F
:100160001138030011380300A5CE02001138030036
:10017000113803001138030011380300113803004F
:10018000113803001138030011380300113803003F
:1001900011380300113803005A4B4CF2205210B5AD
:1001A000DA814DF62812DA8100BF00BF33F034FB4C
:1001B000554B4FF030621A63544A9A63544ADA63DB
:1001C0004FF0E0234FF47002C3F8882D514A1369B1
:1001D00013F4807303D153614FF4A85313614E4B52
:1001E0009A78110703D59A7842F008029A704B4B1F
:1001F0004B482A221A704B4BDA1C121AC11E22F0ED
:100200000302994288BF0022474932F0A3FF474BBF
:100210004748DA1C121AC11E22F00302994288BF15
:100220000022002139F04AFF424943484FF4CC7282
:1002300032F090FF414B424A802103F8011B934268
:10024000FBD14FF0E0233C4AC3F8082D3D4B8A22F6
:100250001A70A3F5805324225A70A0221A709A793A
:100260009207FCD59A79D406FCD4374B9A7902F0E0
:100270000C02082AFAD103221A7146225A719A797D
:100280009006FCD5304A93795906FCD51E4B4FF0A9
:10029000827159640921996420211170917901F0CA
:1002A0000C010C29FAD1294A5A604FF0E023284A60
:1002B0005A6100229A6107221A61264AC3F8202D4A
:1002C00062B633F0C5FD134B5B69DA0705D52248EA
:1002D00033F0B2FD214B224ADA61224B1B785B06D8
:1002E00009D51E4C1E4BE2699A4204D11A4833F0DC
:1002F000A3FD0023E36133F095FA3AF081F836F07C
:1003000071FBFEE70020054000800440823F0400AE
:100310000100002B00D0034000D0074000E0074060
:10032000F806FF1F0018FF1FC422050060260220E8
:100330000018FF1F000000000002FF1F00E400E0A3
:1003400056E400E00050064000400640C0100500A2
:10035000BFD40100000020206EB01A6500E0034009
:10036000A5C3945A00F00740FFFFFFFFFFFFFFFF08
:10037000FFFFFFFFFFFFFFFFFFFFFFFFFFFFFFFF8D
:10038000FFFFFFFFFFFFFFFFFFFFFFFFFFFFFFFF7D
:10039000FFFFFFFFFFFFFFFFFFFFFFFFFFFFFFFF6D
:1003A000FFFFFFFFFFFFFFFFFFFFFFFFFFFFFFFF5D
:1003B000FFFFFFFFFFFFFFFFFFFFFFFFFFFFFFFF4D
:1003C000FFFFFFFFFFFFFFFFFFFFFFFFFFFFFFFF3D
:1003D000FFFFFFFFFFFFFFFFFFFFFFFFFFFFFFFF2D
:1003E000FFFFFFFFFFFFFFFFFFFFFFFFFFFFFFFF1D
:1003F000FFFFFFFFFFFFFFFFFFFFFFFFFFFFFFFF0D
:10040000FFFFFFFFFFFFFFFFFFFFFFFFDEF9FFFF23
:100410000548064B1B1AD90F01EBA301491002D066
:10042000034B03B1184770470018FF1F0018FF1F48
:100430000000000008B5054B1BB105490548AFF3A6
:100440000080BDE80840FFF7E3BF00BF00000000E8
:100450000018FF1FBC22050000207047704700BF36
:10046000036D0BB101207047406D003818BF0120AB
:10047000704700BF0349044B4FF48040012288605D
:100480001A60704700F00F4058D70020014B01223E
:100490001A60704758640120034A04491368012018
:1004A0000344136008607047446401205CD7002057
:1004B00010B50446806D18B138F0EEFD0023A36539
:1004C000236D2BB104F11800BDE8104028F012BFD5
:1004D000636D002BF6D110BD38B5054C054D204697
:1004E00036F0ACF8AC42A4F11004F8D138BD00BF2E
:1004F000485301201834012008B533F097FC00213F
:1005000008BD00BFF8B50D46074632F0FDFB0446B6
:1005100032F0E2FB064632F0C7FBA4F2BC739BB29A
:100520007F2B02D8F2B20C2A21D900233B8032F073
:1005300073FB044632F088FB064632F09DFBE2B2C4
:10054000172A02D8F2B23B2A02D900232B80F8BD29
:10055000C2B23B2AF9D8E302700103F4FF2300F48E
:10056000FF50034343EA52039BB22B80F8BDC0B255
:100570001F28DAD8760106F4FF56064346EA4323DD
:100580009BB2D3E72DE9F04F0022DFF860A0DFF83F
:100590006090154FDFF85CB083B01FFA80F8114609
:1005A000154640F2291600E01D465AF82540D9F8B4
:1005B000003004EBC4046401B4FBF3F4301B00B25C
:1005C000B21ACDE900082BB209B212B258463C600B
:1005D00031F06EF96B1CB3F5D27F3A682946E3D14E
:1005E00003B0BDE8F08F00BF64100220C82B0120CB
:1005F00030660120741002202DE9F04F0022DFF850
:1006000060A0DFF86090154FDFF85CB083B01FFA90
:1006100080F81146154640F2291600E01D465AF8AA
:100620002540D9F8003004EBC4046401B4FBF3F4B2
:10063000301B00B2B21ACDE900082BB209B212B2D7
:1006400058463C6031F034F96B1CB3F5D27F3A6800
:100650002946E3D103B0BDE8F08F00BF641002204B
:1006600050080220286601207410022007EE900A2C
:10067000AE4BB8EEE76AD3ED007AB4EEE76AF1EE7E
:1006800010FA1ED4B4EE676AF1EE10FA32D1A84A1D
:10069000A84BD2ED007AD3ED006AA74B00FB00F027
:1006A00007EE100A66EE277AB8EEC77AE7EE267AEA
:1006B00093ED007A77EE877AFDEEE77A17EE900AEF
:1006C00070479E4A9E4BD2ED006A93ED007AF4EE9D
:1006D000C76AF1EE10FA0CD59A4A9B4B92ED007A5C
:1006E000D3ED007AE6EE077AFDEEE77A17EE900A90
:1006F0007047CCDCB4EEE76AF1EE10FA5ADC934BAB
:10070000D3ED006AB4EEE66AF1EE10FA0BDD8B4A27
:100710008B4B92ED007AD3ED005AB4EEE57AF1EE10
:1007200010FA00F3F0808A4B93ED007AB4EEE76A9A
:10073000F1EE10FA72DCB4EE476AF1EE10FAA6D0D0
:10074000B4EEC76AF1EE10FA00F38380B4EEE66A05
:10075000F1EE10FA0BDD794A7E4BD2ED007AD3ED43
:10076000005AF4EEE57AF1EE10FA00F3D0807A4BFD
:10077000D3ED007AB4EEC76AF1EE10FA00F3A78069
:10078000B4EE676AF1EE10FA81D0B4EEE76AF1EEEA
:1007900010FA0CDD694A714B92ED007AD3ED007AC4
:1007A000B4EEE77AF1EE10FA96DC3FF570AF07EEA3
:1007B000900A83E7614A624B92ED007AD3ED005ACA
:1007C000B4EEE57AF1EE10FA1DDD624BD3ED005A7E
:1007D0005E4BB4EEE57AD3ED006AF1EE10FAB4EEBA
:1007E000E66A65D4F1EE10FA15DDB4EEE57AF1EEC5
:1007F00010FA98D5564B93ED007AB4EEC76AF1EE35
:1008000010FA93D549E0514BD3ED006AB4EEE66A95
:10081000F1EE10FA81DC4E4B93ED007AB4EEC76A2C
:10082000F1EE10FA87D5454A454BD2ED007AD3ED6B
:10083000005AF4EEE57AF1EE10FA3FF528AF454B99
:10084000D3ED005AF4EEE57AF1EE10FA7FF778AFC7
:100850001DE73A4A3F4BD2ED007AD3ED005AF4EE51
:10086000E57AF1EE10FA29DD3C4BD3ED005AF4EEB7
:10087000E57AF1EE10FAB4EEE66A52D5F1EE10FA2E
:100880007FF62AAF7FF773AF334BD3ED007AB4EE28
:10089000E76AF1EE10FA7FF56DAF314A314B92ED18
:1008A000007AD3ED007AE6EE077AFDEEE77A05E707
:1008B000F1EE10FA7FF610AF9CDCACE7B4EEE66A1E
:1008C000F1EE10FA3FF74DAF234BD3ED007AB4EEC3
:1008D000E76AF1EE10FA7FF553AF184A1D4B92ED1F
:1008E000007AD3ED006AB4EEE67AF1EE10FA3FF545
:1008F000CEAE1A4BD3ED006AB4EEE67AF1EE10FA02
:100900007FF743AFC3E6134BD3ED005A6DE7134BAC
:10091000D3ED005AF4EEE57AF1EE10FA7FF527AF49
:10092000B2E7F1EE10FAF5DC21E700BF1809FF1F6E
:10093000EC08FF1F705500202CD800206409FF1F11
:100940005809FF1FD808FF1F50D700202409FF1F98
:100950001C09FF1F5C09FF1F2009FF1F6009FF1F03
:10096000DC08FF1F54D700202DE9F04F3A4BDFF889
:10097000F8803A4FDFF8F49083B08346186837F078
:10098000EDFD41EC100B36F02BF9354B51EC100B13
:10099000002237F05DFE38F033F9324B0025186045
:1009A0002E462C461FFA8BFB3AE058F8240037F00D
:1009B000D5FD41EC100B36F013F92A4B51EC100B1E
:1009C000D3F800A0264B002237F042FE38F018F989
:1009D0004FF48F7202FB00F0B0FBFAF09042C0F5CA
:1009E000947303F1010388BFC9F80020C5F5947220
:1009F00094BF1BB20B2302F1010298BFC9F800009B
:100A0000CDE9003B31B223B212B2384630F050FF8C
:100A1000631CB3F5D27FD9F80050264619D01C4686
:100A200058F8243040F2291CACEB0502012B31B2FE
:100A300023B212B23846B8D8CDF804B0CDF800C011
:100A400030F036FF631CB3F5D27F4FF00005264629
:100A5000E5D103B0BDE8F08F2866012074100220B4
:100A6000000024402C66012050080220641002205F
:100A7000F8B50D460F1D0C46461A301932F0E2FD4E
:100A800004F8010BBC42F8D12846F8BD10B5044665
:100A9000806D00B110BD4FF4807038F0F5FAA0659C
:100AA000B0B1236D002202703BB101464FF4807259
:100AB000184628F095F8A06D10BD636D002BE9D0A5
:100AC00001464FF48072184625F0D4FDA06D10BD8C
:100AD0000148A06510BD00BF1818FF1F38B5056D8F
:100AE0006DB10BB1002038BD1146284626F0D0FD6F
:100AF0000028F7D02846BDE8384026F061BF446D95
:100B0000002CEFD0204624F073FA0028EAD02046CB
:100B1000BDE8384025F08EB88A79A2F150031B0653
:100B200020D4F0B54B79046D0D798E784F78097823
:100B3000013385B002F26C72DBB244B103918DE8EF
:100B4000E0000421204626F0CFFE05B0F0BD406D48
:100B50000028FAD003918DE8E000042124F0BAFFC8
:100B600005B0F0BD0020704710B5036D82B00C4693
:100B70002BB30DF1060201A9184626F09FF938B3F0
:100B8000BDF80430BDF8062053EA020120D0C2F3BC
:100B9000451C02F01F00D20AC3F343114000A270AB
:100BA0005A0A0139207003F01F0302F5EA6201209E
:100BB00084F801C023716171A27102B010BD406D53
:100BC00030B10DF1060201A924F0ACF80028D7D10C
:100BD000002002B010BD00BF10B5036D82B00C46FE
:100BE0002BB30DF1060201A9184626F057F938B3C8
:100BF000BDF80430BDF8062053EA020120D0C2F34C
:100C0000451C02F01F00D20AC3F343114000A2703A
:100C10005A0A0139207003F01F0302F5EA6201202D
:100C200084F801C023716171A27102B010BD406DE2
:100C300030B10DF1060201A924F062F80028D7D1E5
:100C4000002002B010BD00BF10B5D0F880448EB0B7
:100C50000A464CB10020009001232146684626F048
:100C6000B1FA80B90EB010BDD0F884140029F9D0C3
:100C7000012368460C9424F05DFC0028F2D06846FD
:100C800024F0BCFCEEE7684627F056FB0EB010BD22
:100C900038B5056828460C4632F0D4FCA04200D195
:100CA00038BD21462846BDE8384032F0E5BC00BFDB
:100CB00010B543EC102B04469DF8081035F064F98C
:100CC0002046BDE8104035F0C1B800BF10B504465D
:100CD00035F0B4F82046BDE8104035F0B7B800BF95
:100CE00069B170B5054608460C4639F0E9FD2B6838
:100CF0000246214628465B68BDE8704018477047A9
:100D0000006990B10368154A1B69934225D1036DB0
:100D100063B1187810F0080007D0D8695B69C01A71
:100D200048BF6FF00040704718467047436D002B76
:100D3000FAD093F8310010F00800F6D0186919685D
:100D40005A695B68401A62EB0303B0F1004F73F11C
:100D50000003EAD36FF0004070471847F510000019
:100D6000036973B11A68084952698A4207D1186D3C
:100D700008B126F051BB586D18B124F021B91846BE
:100D800010474FF0FF307047590F0000036963B1FF
:100D90001A68074992698A4208D1186D08B126F08D
:100DA0009DBD586D08B124F04DBD704718461047E1
:100DB00031100000036923B310B51968124A8C681A
:100DC000944282B014D1186D48B101220DF107018F
:100DD00026F04CFA90B19DF8070002B010BD586D96
:100DE0000028F8D001220DF1070124F015F8F1E7F1
:100DF00001220DF107011846A047EBE74FF0FF3045
:100E0000EBE74FF0FF307047E10F000000B50069DD
:100E100083B08DF8071060B10368104ADB68934215
:100E200015D1036D43B101220DF10701184626F0DB
:100E300001FE03B05DF804FB406D0028F9D00122EB
:100E40000DF1070124F068FF03B05DF804FB0122F7
:100E50000DF10701984703B05DF804FB4111000054
:100E6000036D13B1586900217047436D13B1D3E985
:100E70000001704718461946704700BF036D13B153
:100E8000D86900217047436D13B1D3E9040170475D
:100E900018461946704700BFF0B595B00022234FA1
:100EA00001924FF47A741831054604A8CDE9122254
:100EB00002948DF80C20009728F088FA129B002BE2
:100EC00029D05C2035F096FD019BC360029B036135
:100ED0009DF80C300375164B03600026154B83609C
:100EE0000446466004A9183028F0D6F94FF47A7306
:100EF000AB606368104AA7600133A6656E602A6024
:100F00002E732C6163600D4B009304A828F0F2F956
:100F1000284615B0F0BD139B002BD2D1064A6B605A
:100F2000AC602B732A602B61EDE700BF54270400EF
:100F3000A42704000C2704007827040030270400AD
:100F4000836C13B1184626F067BAC06C08B124F060
:100F500037B84FF0FF307047036D13B1184626F0D5
:100F60005BBA406D08B124F02BB84FF0FF307047EA
:100F7000036D33B11B7813F0700F14BF01200020F4
:100F80007047406D30B190F8313013F0500F14BFFE
:100F900001200020704700BF10B50446006D80B1ED
:100FA000037813F0700F00D110BD002126F070FB04
:100FB000606D0028F8D0BDE810400022002324F026
:100FC00017B8606D0028EFD090F8313013F0500F53
:100FD000EAD0BDE810400022002324F009B800BF89
:100FE000036D13B1184626F041B9406D08B123F0E6
:100FF00013BF4FF0FF30704700B5836C83B063B10F
:1010000001220DF10701184626F030F901280CD114
:101010009DF8070003B05DF804FBC06C28B1012205
:101020000DF1070123F0F8FEF0E74FF0FF30F1E794
:10103000036D13B1184626F051BC406D08B124F081
:1010400001BC7047836C13B1184626F047BCC06CD6
:1010500008B124F0F7BB70478A79A2F150031B0650
:1010600020D4F0B54B79046D0D798E784F780978DE
:10107000013385B002F26C72DBB244B103918DE8AA
:10108000E0000221204626F02FFC05B0F0BD406DA7
:101090000028FAD003918DE8E000022124F01AFD27
:1010A00005B0F0BD00207047836C53B1187810F084
:1010B00008000DD0D8695B69C01A48BF6FF00040C6
:1010C0007047C36CA3B193F8310010F0080000D151
:1010D0007047186919685A695B68401A62EB030324
:1010E000B0F1004F73F10003F2D36FF0004070478E
:1010F0001846EDE7036D53B1187810F008000DD0D5
:10110000D8695B69C01A48BF6FF000407047436DF3
:10111000A3B193F8310010F0080000D170471869AE
:1011200019685A695B68401A62EB0303B0F1004F1B
:1011300073F10003F2D36FF0004070471846EDE7FB
:10114000036D13B1184626F075BC406D08B124F04C
:10115000E3BD7047836C13B1184626F06BBCC06CBE
:1011600008B124F0D9BD704700B5836C83B08DF809
:10117000071043B101220DF10701184626F05AFC71
:1011800003B05DF804FBC06C0028F9D001220DF11A
:10119000070124F0C1FD03B05DF804FB0369D3B17E
:1011A00010B41C680D48E46884420FD1186D18B162
:1011B0005DF8044B26F03EBC586D18B15DF8044B49
:1011C00024F0AABD00205DF8044B70471846234662
:1011D0005DF8044B18470020704700BF4111000024
:1011E00038B50446806D0C4B236018B137F054FFBE
:1011F0000023A365236D04F118054BB1284628F0A0
:1012000079F8064BA360284628F074F8204638BDCC
:10121000636D002BF2D1F4E7A4270400302704000B
:1012200038B50446806D0E4B236018B137F034FF9B
:101230000023A365236D04F118056BB1284628F03F
:1012400059F8084BA360284628F054F820465C2142
:1012500035F0D2FB204638BD636D002BEED1F0E7B0
:10126000A42704003027040030B4029C11469C4699
:1012700034B1012C1CD0022C0ED0002030BC7047A1
:10128000056DF5B14FF0FF33934274EB0C04F4D3CA
:10129000284630BC26F0FCB9026D0AB3D369591850
:1012A0004CF10003002BE8D130BC104626F0F0B919
:1012B000026D62B1536959184CF10003002BDCD167
:1012C000F2E7406D0028D8D030BC23F091BE406DCD
:1012D0000028D2D0D0E900238A184CEB0303F3E7AF
:1012E000406D0028C9D0D0E904238A1830BC4CEBEB
:1012F000030323F07DBE00BF38B5044649B108465C
:101300000D4639F0DDFA236802465B68294620461F
:1013100098472046BDE8384034F098BD1E4BD3F8BE
:10132000CC20D2E9001309781878537A92F808C0D3
:10133000184201EA0C0127D0937A03F00303B9B9EC
:1013400043F008039908013B91720D2B1BD8DFE88D
:1013500003F00B0716071A120B0B121A0716070BCE
:10136000D368013BD3607047D3680133D3607047C3
:1013700043F00403E4E7D368023BD3607047D368CB
:101380000233D36070477047937A03F00303002958
:10139000D8D043F00403D5E75C2002201E4BDA6866
:1013A000D2E9001309781878537A92F808C01842E5
:1013B00001EA0C0127D0937A03F00303B9B943F093
:1013C00008039908013B91720D2B1BD8DFE803F04D
:1013D0000B0716071A120B0B121A0716070BD36806
:1013E000013BD3607047D3680133D360704743F04B
:1013F0000403E4E7D368023BD3607047D368023349
:10140000D36070477047937A03F003030029D8D064
:1014100043F00403D5E700BF5C2002201E4B1A698D
:10142000D2E9001309781878537A92F808C0184264
:1014300001EA0C0127D0937A03F00303B9B943F012
:1014400008039908013B91720D2B1BD8DFE803F0CC
:101450000B0716071A120B0B121A0716070BD36885
:10146000013BD3607047D3680133D360704743F0CA
:101470000403E4E7D368023BD3607047D3680233C8
:10148000D36070477047937A03F003030029D8D0E4
:1014900043F00403D5E700BF5C2002201E4B5A69CD
:1014A000D2E9001309781878537A92F808C01842E4
:1014B00001EA0C0127D0937A03F00303B9B943F092
:1014C00008039908013B91720D2B1BD8DFE803F04C
:1014D0000B0716071A120B0B121A0716070BD36805
:1014E000013BD3607047D3680133D360704743F04A
:1014F0000403E4E7D368023BD3607047D368023348
:10150000D36070477047937A03F003030029D8D063
:1015100043F00403D5E700BF5C2002201E4B9A690C
:10152000D2E9001309781878537A92F808C0184263
:1015300001EA0C0127D0937A03F00303B9B943F011
:1015400008039908013B91720D2B1BD8DFE803F0CB
:101550000B0716071A120B0B121A0716070BD36884
:10156000013BD3607047D3680133D360704743F0C9
:101570000403E4E7D368023BD3607047D3680233C7
:10158000D36070477047937A03F003030029D8D0E3
:1015900043F00403D5E700BF5C2002201E4BDA694C
:1015A000D2E9001309781878537A92F808C01842E3
:1015B00001EA0C0127D0937A03F00303B9B943F091
:1015C00008039908013B91720D2B1BD8DFE803F04B
:1015D0000B0716071A120B0B121A0716070BD36804
:1015E000013BD3607047D3680133D360704743F049
:1015F0000403E4E7D368023BD3607047D368023347
:10160000D36070477047937A03F003030029D8D062
:1016100043F00403D5E700BF5C2002201E4B1A6A8A
:10162000D2E9001309781878537A92F808C0184262
:1016300001EA0C0127D0937A03F00303B9B943F010
:1016400008039908013B91720D2B1BD8DFE803F0CA
:101650000B0716071A120B0B121A0716070BD36883
:10166000013BD3607047D3680133D360704743F0C8
:101670000403E4E7D368023BD3607047D3680233C6
:10168000D36070477047937A03F003030029D8D0E2
:1016900043F00403D5E700BF5C2002201E4B5A6ACA
:1016A000D2E9001309781878537A92F808C01842E2
:1016B00001EA0C0127D0937A03F00303B9B943F090
:1016C00008039908013B91720D2B1BD8DFE803F04A
:1016D0000B0716071A120B0B121A0716070BD36803
:1016E000013BD3607047D3680133D360704743F048
:1016F0000403E4E7D368023BD3607047D368023346
:10170000D36070477047937A03F003030029D8D061
:1017100043F00403D5E700BF5C2002201E4B9A6A09
:10172000D2E9001309781878537A92F808C0184261
:1017300001EA0C0127D0937A03F00303B9B943F00F
:1017400008039908013B91720D2B1BD8DFE803F0C9
:101750000B0716071A120B0B121A0716070BD36882
:10176000013BD3607047D3680133D360704743F0C7
:101770000403E4E7D368023BD3607047D3680233C5
:10178000D36070477047937A03F003030029D8D0E1
:1017900043F00403D5E700BF5C2002201E4BDA6A49
:1017A000D2E9001309781878537A92F808C01842E1
:1017B00001EA0C0127D0937A03F00303B9B943F08F
:1017C00008039908013B91720D2B1BD8DFE803F049
:1017D0000B0716071A120B0B121A0716070BD36802
:1017E000013BD3607047D3680133D360704743F047
:1017F0000403E4E7D368023BD3607047D368023345
:10180000D36070477047937A03F003030029D8D060
:1018100043F00403D5E700BF5C2002201E4B1A6B87
:10182000D2E9001309781878537A92F808C0184260
:1018300001EA0C0127D0937A03F00303B9B943F00E
:1018400008039908013B91720D2B1BD8DFE803F0C8
:101850000B0716071A120B0B121A0716070BD36881
:10186000013BD3607047D3680133D360704743F0C6
:101870000403E4E7D368023BD3607047D3680233C4
:10188000D36070477047937A03F003030029D8D0E0
:1018900043F00403D5E700BF5C2002201E4B5A6BC7
:1018A000D2E9001309781878537A92F808C01842E0
:1018B00001EA0C0127D0937A03F00303B9B943F08E
:1018C00008039908013B91720D2B1BD8DFE803F048
:1018D0000B0716071A120B0B121A0716070BD36801
:1018E000013BD3607047D3680133D360704743F046
:1018F0000403E4E7D368023BD3607047D368023344
:10190000D36070477047937A03F003030029D8D05F
:1019100043F00403D5E700BF5C2002201E4B9A6B06
:10192000D2E9001309781878537A92F808C018425F
:1019300001EA0C0127D0937A03F00303B9B943F00D
:1019400008039908013B91720D2B1BD8DFE803F0C7
:101950000B0716071A120B0B121A0716070BD36880
:10196000013BD3607047D3680133D360704743F0C5
:101970000403E4E7D368023BD3607047D3680233C3
:10198000D36070477047937A03F003030029D8D0DF
:1019900043F00403D5E700BF5C2002201E4BDA6B46
:1019A000D2E9001309781878537A92F808C01842DF
:1019B00001EA0C0127D0937A03F00303B9B943F08D
:1019C00008039908013B91720D2B1BD8DFE803F047
:1019D0000B0716071A120B0B121A0716070BD36800
:1019E000013BD3607047D3680133D360704743F045
:1019F0000403E4E7D368023BD3607047D368023343
:101A0000D36070477047937A03F003030029D8D05E
:101A100043F00403D5E700BF5C2002201E4B1A6C84
:101A2000D2E9001309781878537A92F808C018425E
:101A300001EA0C0127D0937A03F00303B9B943F00C
:101A400008039908013B91720D2B1BD8DFE803F0C6
:101A50000B0716071A120B0B121A0716070BD3687F
:101A6000013BD3607047D3680133D360704743F0C4
:101A70000403E4E7D368023BD3607047D3680233C2
:101A8000D36070477047937A03F003030029D8D0DE
:101A900043F00403D5E700BF5C2002201E4B5A6CC4
:101AA000D2E9001309781878537A92F808C01842DE
:101AB00001EA0C0127D0937A03F00303B9B943F08C
:101AC00008039908013B91720D2B1BD8DFE803F046
:101AD0000B0716071A120B0B121A0716070BD368FF
:101AE000013BD3607047D3680133D360704743F044
:101AF0000403E4E7D368023BD3607047D368023342
:101B0000D36070477047937A03F003030029D8D05D
:101B100043F00403D5E700BF5C2002201E4B9A6C03
:101B2000D2E9001309781878537A92F808C018425D
:101B300001EA0C0127D0937A03F00303B9B943F00B
:101B400008039908013B91720D2B1BD8DFE803F0C5
:101B50000B0716071A120B0B121A0716070BD3687E
:101B6000013BD3607047D3680133D360704743F0C3
:101B70000403E4E7D368023BD3607047D3680233C1
:101B8000D36070477047937A03F003030029D8D0DD
:101B900043F00403D5E700BF5C2002201E4BDA6C43
:101BA000D2E9001309781878537A92F808C01842DD
:101BB00001EA0C0127D0937A03F00303B9B943F08B
:101BC00008039908013B91720D2B1BD8DFE803F045
:101BD0000B0716071A120B0B121A0716070BD368FE
:101BE000013BD3607047D3680133D360704743F043
:101BF0000403E4E7D368023BD3607047D368023341
:101C0000D36070477047937A03F003030029D8D05C
:101C100043F00403D5E700BF5C2002201E4B1A6D81
:101C2000D2E9001309781878537A92F808C018425C
:101C300001EA0C0127D0937A03F00303B9B943F00A
:101C400008039908013B91720D2B1BD8DFE803F0C4
:101C50000B0716071A120B0B121A0716070BD3687D
:101C6000013BD3607047D3680133D360704743F0C2
:101C70000403E4E7D368023BD3607047D3680233C0
:101C8000D36070477047937A03F003030029D8D0DC
:101C900043F00403D5E700BF5C2002201E4B5A6DC1
:101CA000D2E9001309781878537A92F808C01842DC
:101CB00001EA0C0127D0937A03F00303B9B943F08A
:101CC00008039908013B91720D2B1BD8DFE803F044
:101CD0000B0716071A120B0B121A0716070BD368FD
:101CE000013BD3607047D3680133D360704743F042
:101CF0000403E4E7D368023BD3607047D368023340
:101D0000D36070477047937A03F003030029D8D05B
:101D100043F00403D5E700BF5C2002201E4B9A6D00
:101D2000D2E9001309781878537A92F808C018425B
:101D300001EA0C0127D0937A03F00303B9B943F009
:101D400008039908013B91720D2B1BD8DFE803F0C3
:101D50000B0716071A120B0B121A0716070BD3687C
:101D6000013BD3607047D3680133D360704743F0C1
:101D70000403E4E7D368023BD3607047D3680233BF
:101D8000D36070477047937A03F003030029D8D0DB
:101D900043F00403D5E700BF5C2002201E4BDA6D40
:101DA000D2E9001309781878537A92F808C01842DB
:101DB00001EA0C0127D0937A03F00303B9B943F089
:101DC00008039908013B91720D2B1BD8DFE803F043
:101DD0000B0716071A120B0B121A0716070BD368FC
:101DE000013BD3607047D3680133D360704743F041
:101DF0000403E4E7D368023BD3607047D36802333F
:101E0000D36070477047937A03F003030029D8D05A
:101E100043F00403D5E700BF5C2002201E4B1A6E7E
:101E2000D2E9001309781878537A92F808C018425A
:101E300001EA0C0127D0937A03F00303B9B943F008
:101E400008039908013B91720D2B1BD8DFE803F0C2
:101E50000B0716071A120B0B121A0716070BD3687B
:101E6000013BD3607047D3680133D360704743F0C0
:101E70000403E4E7D368023BD3607047D3680233BE
:101E8000D36070477047937A03F003030029D8D0DA
:101E900043F00403D5E700BF5C2002201E4B5A6EBE
:101EA000D2E9001309781878537A92F808C01842DA
:101EB00001EA0C0127D0937A03F00303B9B943F088
:101EC00008039908013B91720D2B1BD8DFE803F042
:101ED0000B0716071A120B0B121A0716070BD368FB
:101EE000013BD3607047D3680133D360704743F040
:101EF0000403E4E7D368023BD3607047D36802333E
:101F0000D36070477047937A03F003030029D8D059
:101F100043F00403D5E700BF5C2002201E4B9A6EFD
:101F2000D2E9001309781878537A92F808C0184259
:101F300001EA0C0127D0937A03F00303B9B943F007
:101F400008039908013B91720D2B1BD8DFE803F0C1
:101F50000B0716071A120B0B121A0716070BD3687A
:101F6000013BD3607047D3680133D360704743F0BF
:101F70000403E4E7D368023BD3607047D3680233BD
:101F8000D36070477047937A03F003030029D8D0D9
:101F900043F00403D5E700BF5C2002201E4BDA6E3D
:101FA000D2E9001309781878537A92F808C01842D9
:101FB00001EA0C0127D0937A03F00303B9B943F087
:101FC00008039908013B91720D2B1BD8DFE803F041
:101FD0000B0716071A120B0B121A0716070BD368FA
:101FE000013BD3607047D3680133D360704743F03F
:101FF0000403E4E7D368023BD3607047D36802333D
:10200000D36070477047937A03F003030029D8D058
:1020100043F00403D5E700BF5C2002201E4B1A6F7B
:10202000D2E9001309781878537A92F808C0184258
:1020300001EA0C0127D0937A03F00303B9B943F006
:1020400008039908013B91720D2B1BD8DFE803F0C0
:102050000B0716071A120B0B121A0716070BD36879
:10206000013BD3607047D3680133D360704743F0BE
:102070000403E4E7D368023BD3607047D3680233BC
:10208000D36070477047937A03F003030029D8D0D8
:1020900043F00403D5E700BF5C2002201E4B5A6FBB
:1020A000D2E9001309781878537A92F808C01842D8
:1020B00001EA0C0127D0937A03F00303B9B943F086
:1020C00008039908013B91720D2B1BD8DFE803F040
:1020D0000B0716071A120B0B121A0716070BD368F9
:1020E000013BD3607047D3680133D360704743F03E
:1020F0000403E4E7D368023BD3607047D36802333C
:10210000D36070477047937A03F003030029D8D057
:1021100043F00403D5E700BF5C2002201E4B9A6FFA
:10212000D2E9001309781878537A92F808C0184257
:1021300001EA0C0127D0937A03F00303B9B943F005
:1021400008039908013B91720D2B1BD8DFE803F0BF
:102150000B0716071A120B0B121A0716070BD36878
:10216000013BD3607047D3680133D360704743F0BD
:102170000403E4E7D368023BD3607047D3680233BB
:10218000D36070477047937A03F003030029D8D0D7
:1021900043F00403D5E700BF5C2002201E4BDA6F3A
:1021A000D2E9001309781878537A92F808C01842D7
:1021B00001EA0C0127D0937A03F00303B9B943F085
:1021C00008039908013B91720D2B1BD8DFE803F03F
:1021D0000B0716071A120B0B121A0716070BD368F8
:1021E000013BD3607047D3680133D360704743F03D
:1021F0000403E4E7D368023BD3607047D36802333B
:10220000D36070477047937A03F003030029D8D056
:1022100043F00403D5E700BF5C2002201E4BD3F837
:102220008020D2E9001309781878537A92F808C010
:10223000184201EA0C0127D0937A03F00303B9B9DD
:1022400043F008039908013B91720D2B1BD8DFE87E
:1022500003F00B0716071A120B0B121A0716070BBF
:10226000D368013BD3607047D3680133D3607047B4
:1022700043F00403E4E7D368023BD3607047D368BC
:102280000233D36070477047937A03F00303002949
:10229000D8D043F00403D5E75C2002201E4BD3F8CE
:1022A0008420D2E9001309781878537A92F808C08C
:1022B000184201EA0C0127D0937A03F00303B9B95D
:1022C00043F008039908013B91720D2B1BD8DFE8FE
:1022D00003F00B0716071A120B0B121A0716070B3F
:1022E000D368013BD3607047D3680133D360704734
:1022F00043F00403E4E7D368023BD3607047D3683C
:102300000233D36070477047937A03F003030029C8
:10231000D8D043F00403D5E75C2002201E4BD3F84D
:102320008820D2E9001309781878537A92F808C007
:10233000184201EA0C0127D0937A03F00303B9B9DC
:1023400043F008039908013B91720D2B1BD8DFE87D
:1023500003F00B0716071A120B0B121A0716070BBE
:10236000D368013BD3607047D3680133D3607047B3
:1023700043F00403E4E7D368023BD3607047D368BB
:102380000233D36070477047937A03F00303002948
:10239000D8D043F00403D5E75C2002201E4B1A6816
:1023A000D2E9001309781878537A92F808C01842D5
:1023B00001EA0C0127D0937A03F00303B9B943F083
:1023C00008039908013B91720D2B1BD8DFE803F03D
:1023D0000B0716071A120B0B121A0716070BD368F6
:1023E000013BD3607047D3680133D360704743F03B
:1023F0000403E4E7D368023BD3607047D368023339
:10240000D36070477047937A03F003030029D8D054
:1024100043F00403D5E700BF5C2002201E4B5A683E
:10242000D2E9001309781878537A92F808C0184254
:1024300001EA0C0127D0937A03F00303B9B943F002
:1024400008039908013B91720D2B1BD8DFE803F0BC
:102450000B0716071A120B0B121A0716070BD36875
:10246000013BD3607047D3680133D360704743F0BA
:102470000403E4E7D368023BD3607047D3680233B8
:10248000D36070477047937A03F003030029D8D0D4
:1024900043F00403D5E700BF5C2002201E4B9A687E
:1024A000D2E9001309781878537A92F808C01842D4
:1024B00001EA0C0127D0937A03F00303B9B943F082
:1024C00008039908013B91720D2B1BD8DFE803F03C
:1024D0000B0716071A120B0B121A0716070BD368F5
:1024E000013BD3607047D3680133D360704743F03A
:1024F0000403E4E7D368023BD3607047D368023338
:10250000D36070477047937A03F003030029D8D053
:1025100043F00403D5E700BF5C2002201E4BD3F834
:10252000EC20D2E9001309781878537A92F808C0A1
:10253000184201EA0C0127D0937A03F00303B9B9DA
:1025400043F008039908013B91720D2B1BD8DFE87B
:1025500003F00B0716071A120B0B121A0716070BBC
:10256000D368013BD3607047D3680133D3607047B1
:1025700043F00403E4E7D368023BD3607047D368B9
:102580000233D36070477047937A03F00303002946
:10259000D8D043F00403D5E75C2002201E4BD3F8CB
:1025A0008C20D2E9001309781878537A92F808C081
:1025B000184201EA0C0127D0937A03F00303B9B95A
:1025C00043F008039908013B91720D2B1BD8DFE8FB
:1025D00003F00B0716071A120B0B121A0716070B3C
:1025E000D368013BD3607047D3680133D360704731
:1025F00043F00403E4E7D368023BD3607047D36839
:102600000233D36070477047937A03F003030029C5
:10261000D8D043F00403D5E75C2002201E4BD3F84A
:102620009020D2E9001309781878537A92F808C0FC
:10263000184201EA0C0127D0937A03F00303B9B9D9
:1026400043F008039908013B91720D2B1BD8DFE87A
:1026500003F00B0716071A120B0B121A0716070BBB
:10266000D368013BD3607047D3680133D3607047B0
:1026700043F00403E4E7D368023BD3607047D368B8
:102680000233D36070477047937A03F00303002945
:10269000D8D043F00403D5E75C2002201E4BD3F8CA
:1026A0009420D2E9001309781878537A92F808C078
:1026B000184201EA0C0127D0937A03F00303B9B959
:1026C00043F008039908013B91720D2B1BD8DFE8FA
:1026D00003F00B0716071A120B0B121A0716070B3B
:1026E000D368013BD3607047D3680133D360704730
:1026F00043F00403E4E7D368023BD3607047D36838
:102700000233D36070477047937A03F003030029C4
:10271000D8D043F00403D5E75C2002201E4BD3F849
:102720009820D2E9001309781878537A92F808C0F3
:10273000184201EA0C0127D0937A03F00303B9B9D8
:1027400043F008039908013B91720D2B1BD8DFE879
:1027500003F00B0716071A120B0B121A0716070BBA
:10276000D368013BD3607047D3680133D3607047AF
:1027700043F00403E4E7D368023BD3607047D368B7
:102780000233D36070477047937A03F00303002944
:10279000D8D043F00403D5E75C2002201E4BD3F8C9
:1027A0009C20D2E9001309781878537A92F808C06F
:1027B000184201EA0C0127D0937A03F00303B9B958
:1027C00043F008039908013B91720D2B1BD8DFE8F9
:1027D00003F00B0716071A120B0B121A0716070B3A
:1027E000D368013BD3607047D3680133D36070472F
:1027F00043F00403E4E7D368023BD3607047D36837
:102800000233D36070477047937A03F003030029C3
:10281000D8D043F00403D5E75C2002201E4BD3F848
:10282000A020D2E9001309781878537A92F808C0EA
:10283000184201EA0C0127D0937A03F00303B9B9D7
:1028400043F008039908013B91720D2B1BD8DFE878
:1028500003F00B0716071A120B0B121A0716070BB9
:10286000D368013BD3607047D3680133D3607047AE
:1028700043F00403E4E7D368023BD3607047D368B6
:102880000233D36070477047937A03F00303002943
:10289000D8D043F00403D5E75C2002201E4BD3F8C8
:1028A000A420D2E9001309781878537A92F808C066
:1028B000184201EA0C0127D0937A03F00303B9B957
:1028C00043F008039908013B91720D2B1BD8DFE8F8
:1028D00003F00B0716071A120B0B121A0716070B39
:1028E000D368013BD3607047D3680133D36070472E
:1028F00043F00403E4E7D368023BD3607047D36836
:102900000233D36070477047937A03F003030029C2
:10291000D8D043F00403D5E75C2002201E4BD3F847
:10292000A820D2E9001309781878537A92F808C0E1
:10293000184201EA0C0127D0937A03F00303B9B9D6
:1029400043F008039908013B91720D2B1BD8DFE877
:1029500003F00B0716071A120B0B121A0716070BB8
:10296000D368013BD3607047D3680133D3607047AD
:1029700043F00403E4E7D368023BD3607047D368B5
:102980000233D36070477047937A03F00303002942
:10299000D8D043F00403D5E75C2002201E4BD3F8C7
:1029A000AC20D2E9001309781878537A92F808C05D
:1029B000184201EA0C0127D0937A03F00303B9B956
:1029C00043F008039908013B91720D2B1BD8DFE8F7
:1029D00003F00B0716071A120B0B121A0716070B38
:1029E000D368013BD3607047D3680133D36070472D
:1029F00043F00403E4E7D368023BD3607047D36835
:102A00000233D36070477047937A03F003030029C1
:102A1000D8D043F00403D5E75C2002201E4BD3F846
:102A2000B020D2E9001309781878537A92F808C0D8
:102A3000184201EA0C0127D0937A03F00303B9B9D5
:102A400043F008039908013B91720D2B1BD8DFE876
:102A500003F00B0716071A120B0B121A0716070BB7
:102A6000D368013BD3607047D3680133D3607047AC
:102A700043F00403E4E7D368023BD3607047D368B4
:102A80000233D36070477047937A03F00303002941
:102A9000D8D043F00403D5E75C2002201E4BD3F8C6
:102AA000B420D2E9001309781878537A92F808C054
:102AB000184201EA0C0127D0937A03F00303B9B955
:102AC00043F008039908013B91720D2B1BD8DFE8F6
:102AD00003F00B0716071A120B0B121A0716070B37
:102AE000D368013BD3607047D3680133D36070472C
:102AF00043F00403E4E7D368023BD3607047D36834
:102B00000233D36070477047937A03F003030029C0
:102B1000D8D043F00403D5E75C2002201E4BD3F845
:102B2000B820D2E9001309781878537A92F808C0CF
:102B3000184201EA0C0127D0937A03F00303B9B9D4
:102B400043F008039908013B91720D2B1BD8DFE875
:102B500003F00B0716071A120B0B121A0716070BB6
:102B6000D368013BD3607047D3680133D3607047AB
:102B700043F00403E4E7D368023BD3607047D368B3
:102B80000233D36070477047937A03F00303002940
:102B9000D8D043F00403D5E75C2002201E4BD3F8C5
:102BA000BC20D2E9001309781878537A92F808C04B
:102BB000184201EA0C0127D0937A03F00303B9B954
:102BC00043F008039908013B91720D2B1BD8DFE8F5
:102BD00003F00B0716071A120B0B121A0716070B36
:102BE000D368013BD3607047D3680133D36070472B
:102BF00043F00403E4E7D368023BD3607047D36833
:102C00000233D36070477047937A03F003030029BF
:102C1000D8D043F00403D5E75C2002201E4BD3F844
:102C2000C020D2E9001309781878537A92F808C0C6
:102C3000184201EA0C0127D0937A03F00303B9B9D3
:102C400043F008039908013B91720D2B1BD8DFE874
:102C500003F00B0716071A120B0B121A0716070BB5
:102C6000D368013BD3607047D3680133D3607047AA
:102C700043F00403E4E7D368023BD3607047D368B2
:102C80000233D36070477047937A03F0030300293F
:102C9000D8D043F00403D5E75C2002201E4BD3F8C4
:102CA000C420D2E9001309781878537A92F808C042
:102CB000184201EA0C0127D0937A03F00303B9B953
:102CC00043F008039908013B91720D2B1BD8DFE8F4
:102CD00003F00B0716071A120B0B121A0716070B35
:102CE000D368013BD3607047D3680133D36070472A
:102CF00043F00403E4E7D368023BD3607047D36832
:102D00000233D36070477047937A03F003030029BE
:102D1000D8D043F00403D5E75C2002201E4BD3F843
:102D2000C820D2E9001309781878537A92F808C0BD
:102D3000184201EA0C0127D0937A03F00303B9B9D2
:102D400043F008039908013B91720D2B1BD8DFE873
:102D500003F00B0716071A120B0B121A0716070BB4
:102D6000D368013BD3607047D3680133D3607047A9
:102D700043F00403E4E7D368023BD3607047D368B1
:102D80000233D36070477047937A03F0030300293E
:102D9000D8D043F00403D5E75C2002201E4BD3F8C3
:102DA000DC20D2E9001309781878537A92F808C029
:102DB000184201EA0C0127D0937A03F00303B9B952
:102DC00043F008039908013B91720D2B1BD8DFE8F3
:102DD00003F00B0716071A120B0B121A0716070B34
:102DE000D368013BD3607047D3680133D360704729
:102DF00043F00403E4E7D368023BD3607047D36831
:102E00000233D36070477047937A03F003030029BD
:102E1000D8D043F00403D5E75C2002201E4BD3F842
:102E2000E020D2E9001309781878537A92F808C0A4
:102E3000184201EA0C0127D0937A03F00303B9B9D1
:102E400043F008039908013B91720D2B1BD8DFE872
:102E500003F00B0716071A120B0B121A0716070BB3
:102E6000D368013BD3607047D3680133D3607047A8
:102E700043F00403E4E7D368023BD3607047D368B0
:102E80000233D36070477047937A03F0030300293D
:102E9000D8D043F00403D5E75C2002201E4BD3F8C2
:102EA000E420D2E9001309781878537A92F808C020
:102EB000184201EA0C0127D0937A03F00303B9B951
:102EC00043F008039908013B91720D2B1BD8DFE8F2
:102ED00003F00B0716071A120B0B121A0716070B33
:102EE000D368013BD3607047D3680133D360704728
:102EF00043F00403E4E7D368023BD3607047D36830
:102F00000233D36070477047937A03F003030029BC
:102F1000D8D043F00403D5E75C2002201E4BD3F841
:102F2000E820D2E9001309781878537A92F808C09B
:102F3000184201EA0C0127D0937A03F00303B9B9D0
:102F400043F008039908013B91720D2B1BD8DFE871
:102F500003F00B0716071A120B0B121A0716070BB2
:102F6000D368013BD3607047D3680133D3607047A7
:102F700043F00403E4E7D368023BD3607047D368AF
:102F80000233D36070477047937A03F0030300293C
:102F9000D8D043F00403D5E75C2002201E4BD3F8C1
:102FA000D420D2E9001309781878537A92F808C02F
:102FB000184201EA0C0127D0937A03F00303B9B950
:102FC00043F008039908013B91720D2B1BD8DFE8F1
:102FD00003F00B0716071A120B0B121A0716070B32
:102FE000D368013BD3607047D3680133D360704727
:102FF00043F00403E4E7D368023BD3607047D3682F
:103000000233D36070477047937A03F003030029BB
:10301000D8D043F00403D5E75C2002201E4BD3F840
:10302000D820D2E9001309781878537A92F808C0AA
:10303000184201EA0C0127D0937A03F00303B9B9CF
:1030400043F008039908013B91720D2B1BD8DFE870
:1030500003F00B0716071A120B0B121A0716070BB1
:10306000D368013BD3607047D3680133D3607047A6
:1030700043F00403E4E7D368023BD3607047D368AE
:103080000233D36070477047937A03F0030300293B
:10309000D8D043F00403D5E75C2002201E4BD3F8C0
:1030A000D020D2E9001309781878537A92F808C032
:1030B000184201EA0C0127D0937A03F00303B9B94F
:1030C00043F008039908013B91720D2B1BD8DFE8F0
:1030D00003F00B0716071A120B0B121A0716070B31
:1030E000D368013BD3607047D3680133D360704726
:1030F00043F00403E4E7D368023BD3607047D3682E
:103100000233D36070477047937A03F003030029BA
:10311000D8D043F00403D5E75C20022070B50569E0
:10312000234B03600446002D32D06E68013E6E6072
:1031300076BB2B681F4ADB6A93422FD1A86D10B172
:1031400035F0AAFFAE652B6D23B305F1180026F00C
:10315000D1F82569E5B12B68174A5B68934224D101
:10316000A86D164B2B6018B135F096FF0023AB65A8
:103170002B6D05F11806A3B1304626F0BBF8104BB5
:10318000AB60304626F0B6F85C21284633F034FCBC
:10319000204670BD6B6D002BD7D1DAE728469847E3
:1031A000D7E76B6D002BE7D1E9E728469847EFE7B3
:1031B00078270400B104000021120000A4270400B5
:1031C0003027040070B50569254B03600446002DC7
:1031D00032D06E68013E6E6076BB2B68214ADB6A96
:1031E000934233D1A86D10B135F056FFAE652B6D0B
:1031F00043B305F1180026F07DF82569E5B12B6889
:10320000194A5B68934228D1A86D184B2B6018B1FE
:1032100035F042FF0023AB652B6D05F11806C3B1F5
:10322000304626F067F8124BAB60304626F062F865
:103230005C21284633F0E0FB2046142133F0DCFB10
:10324000204670BD6B6D002BD3D1D6E7284698473A
:10325000D3E76B6D002BE3D1E5E728469847EBE712
:1032600078270400B104000021120000A427040004
:10327000302704002DE9F0412DED028BBC4DBD48F7
:10328000D5F884249CB000234FF47A710390049302
:1032900005918DF818300793002A00F0EF8108ACF3
:1032A00011462046B44A089323F08CFF002840F0D2
:1032B000F48144F20223B04AB049204626F032F9A4
:1032C0001A9B002B00F0FB815C2033F093FB9DF8F0
:1032D0002C300375AA4B09990A9A03600026A94B62
:1032E000C16005460261466083600CA9183025F074
:1032F000D3FFA54BAB606B68AE650133A34F6B602A
:103300000CA8089725F0F6FF079E002E00F0AA8172
:103310007368013B73600193002B34D132689C4980
:10332000D26A8A4240F00982B06D18B135F0B4FE1D
:10333000019BB365336D002B00F0F08106F118009E
:1033400025F0D8FF079EF6B13368924A5B68934236
:1033500040F0FE81B06D8A4B336018B135F09CFEB1
:103360000023B365336D06F11808002B00F0EB81E4
:10337000404625F0BFFFB760404625F0BBFF5C210B
:10338000304633F039FB0795002D00F066812B683D
:10339000814A1B6B934240F06C812B6D002B00F037
:1033A000A0817E4B7E4D19789FED7E8A204633F0BA
:1033B00095F921467C4833F015FA204633F03EF962
:1033C000794903A832F014FD03A832F03FFD774B92
:1033D000002193ED000A204633F0E0F921467248BF
:1033E00033F000FA204633F029F96F4903A832F090
:1033F000FFFC03A832F02AFD6D4B002193ED000A7B
:10340000204633F0CBF92146674833F0EBF92046EC
:1034100033F014F9644903A832F0EAFC03A832F04F
:1034200015FD644B002193ED000A204633F0B6F9F8
:1034300021465D4833F0D6F9204633F0FFF85A496B
:1034400003A832F0D5FC03A832F000FD95ED000A88
:10345000002120EE080A204633F0A0F92146524808
:1034600033F0C0F9204633F0E9F84F4903A832F0B1
:10347000BFFC03A832F0EAFC95ED010A00212046CA
:1034800033F08CF92146484833F0ACF9204633F04C
:10349000D5F8454903A832F0ABFC03A832F0D6FCBE
:1034A00095ED020A002120EE080A204633F076F955
:1034B00021463D4833F096F9204633F0BFF83A49AB
:1034C00003A832F095FC03A832F0C0FC95ED030A86
:1034D0000021204633F062F92146334833F082F967
:1034E000204633F0ABF8304903A832F081FC03A842
:1034F00032F0ACFC95ED040A002120EE080A2046CB
:1035000033F04CF92146284833F06CF9204633F06B
:1035100095F8254903A832F06BFC03A832F096FC1D
:1035200095ED050A0021204633F038F921461E4862
:1035300033F058F9204633F081F81B4903A832F0E4
:1035400057FC03A832F082FC1B4B0A221968204664
:1035500033F0DCF82146144833F044F9204633F0C8
:103560006DF8114903A832F043FC03A826E000BF20
:10357000401A022078270400ACFE0300441A0220FF
:10358000A42704000C27040054270400302704005B
:10359000B1040000211200006104000028D80020BE
:1035A0006C0AFF1F0000C842C83301201809FF1F22
:1035B0001C09FF1F2009FF1F6C10022032F046FC7F
:1035C000079C002C49D02368634EDB6AB34240F06D
:1035D000AA80A06D18B135F05FFD0023A365236DAF
:1035E000002B7AD004F1180025F084FE079D6C684A
:1035F000013C6C60002C30D12B68DB6AB34240F098
:103600009580A86D10B135F047FDAC652B6D002B92
:103610007FD005F1180025F06DFE079CECB1236802
:103620004E4A5B68934240F08B80A06D4C4B236008
:1036300018B135F031FD0023A365236D04F11805A1
:10364000002B76D0284625F055FEA760284625F0A9
:1036500051FE5C21204633F0CFF91CB0BDEC028B4B
:10366000BDE8F0812B683F4A1B6B079593423FF4FE
:1036700094AE284698470028A2D092E6D5F8881440
:1036800008AC00293FF415AE134614922046364A82
:1036900021F050FF00283FF40CAED5F8840430B37D
:1036A00000250146304A08950123204623F08AFD73
:1036B00000283FF4FEAD204624F03EFEF9E51B9DB8
:1036C000002D7FF401AE294F08970CA825F012FEBB
:1036D000079E002E7FF41CAEBFE7636D002B81D1E7
:1036E00084E76B6D002B7FF45CAE079C6BE7D5F82D
:1036F000881400293FF4DDAD14901B4A01232046B5
:1037000021F018FF00283FF4D4AD204621F076FFC9
:10371000CFE56B6D002B7FF47CAF7EE7736D002BE4
:103720007FF40CAE0EE6204698475FE728469847A0
:1037300073E7636D002B85D187E73046904701E63C
:103740002046984789E7736D002B7FF411AE12E68F
:103750003046984717E600BFB10400002112000070
:10376000A427040061040000ACFE0300302704001D
:1037700010B5D0F880448EB00A463CB100232146F3
:103780006846009323F01EFD0EB010BDD0F88414DF
:1037900031B1234668460C9421F0CCFE0EB010BD2A
:1037A00008460EB010BD00BFF8B50569002D47D022
:1037B0002B682E4FDB6ABB4204464AD1A86D18B174
:1037C00035F06AFC0023AB652B6D002B39D005F179
:1037D000180025F08FFD26697568013D75606DBB89
:1037E0003368DB6ABB4237D1B06D10B135F054FCA1
:1037F000B565336D4BB306F1180025F07BFD2569E7
:10380000E5B12B681A4A5B6893422CD1A86D194B1D
:103810002B6018B135F040FC0023AB652B6D05F132
:103820001806E3B1304625F065FD134BAB6030461A
:1038300025F060FD5C21284633F0DEF8002323618B
:10384000F8BD6B6D002BC2D1C5E7736D002BD2D1D3
:10385000D5E728469847BEE730469847CFE76B6DD7
:10386000002BDFD1E1E728469847E7E7B1040000E5
:1038700021120000A42704003027040070B5066957
:103880007568013D0446756075BB33681F4ADB6A85
:1038900093422CD1B06D10B135F0FEFBB565336DA0
:1038A00063B306F1180025F025FD2569E5B12B6805
:1038B000174A5B68934225D1A86D164B2B6018B14F
:1038C00035F0EAFB0023AB652B6D05F118068BB1D3
:1038D000304625F00FFD104BAB60304625F00AFD59
:1038E0005C21284633F088F80023236170BD304600
:1038F0009847DAE76B6D002BEAD1ECE7736D002B8C
:10390000CFD1D2E728469847EEE700BFB1040000C8
:1039100021120000A427040030270400F0B5012B79
:1039200095B0054638D0022B40F202200CBF03466A
:1039300000230431684625F0F5FD129B002B34D09E
:103940005C2033F057F81F4B0026C0E90036019B7E
:10395000C3601D4B8360029B036104AF9DF80C3074
:10396000037504463946183025F096FC174BA360C2
:103970004FF47A73AB606368154AA66501336E60D5
:103980002A602E732C616360124B0093384625F039
:10399000B1FC284615B0F0BD44F20223043168465C
:1039A00025F0C0FD129B002BCAD1139B002BC7D161
:1039B000074A6B604FF47A71A9602B732A602B6100
:1039C00004AFE1E7A42704000C27040054270400F7
:1039D0007827040030270400D0E9002312781978F2
:1039E000437A90F808C0194202EA0C0227D0837A81
:1039F00003F00303BAB943F008039A08013B82724B
:103A00000D2B1BD8DFE803F00B0716071A120B0B60
:103A1000121A0716070BC368013BC3607047C368DF
:103A20000133C360704743F00403E4E7C368023B1B
:103A3000C3607047C3680233C36070477047837ABE
:103A400003F00303002AD8D043F00403D5E700BFF6
:103A500010B50B463B2800F2CE82DFE810F0C3021F
:103A6000B902B002A7029E0295028C0283027A027A
:103A7000710268025F0256024D0244023B023202AA
:103A80002902C901C001B701AE01A5019C01930142
:103A90008A01810178016F0166015D0154014A01CB
:103AA000400136012C01220118010E010401FA0027
:103AB000F000E600DC00D200C800BE00B400AA009E
:103AC000A00096008C00820078006E0064005A000E
:103AD000500046003C00CB4CCB49C4F8EC300422EB
:103AE0003B2030F0E9F8012010BDC64CC749C4F8AE
:103AF000E83004223A2030F0DFF8012010BDC14C3C
:103B0000C349C4F8E4300422392030F0D5F801204C
:103B100010BDBC4CBF49C4F8E0300422382030F05E
:103B2000CBF8012010BDB74CBB49C4F8DC300422EF
:103B3000372030F0C1F8012010BDB24CB749C4F8AD
:103B4000D8300422362030F0B7F8012010BDAD4C3B
:103B5000B349C4F8D4300422352030F0ADF8012048
:103B600010BDA84CAF49C4F8D0300422342030F046
:103B7000A3F8012010BDA34CAB49C4F8CC300422FB
:103B8000332030F099F8012010BD9E4CA749C4F8AD
:103B9000C8300422322030F08FF8012010BD994C3B
:103BA000A349C4F8C4300422312030F085F8012044
:103BB00010BD944C9F49C4F8C0300422302030F02E
:103BC0007BF8012010BD8F4C9B49C4F8BC30042207
:103BD0002F2030F071F8012010BD8A4C9749C4F8AD
:103BE000B83004222E2030F067F8012010BD854C3B
:103BF0009349C4F8B43004222D2030F05DF8012040
:103C000010BD804C8F49C4F8B03004222C2030F015
:103C100053F8012010BD7B4C8B49C4F8AC30042212
:103C20002B2030F049F8012010BD764C8749C4F8AC
:103C3000A83004222A2030F03FF8012010BD714C3A
:103C40008349C4F8A4300422292030F035F801203B
:103C500010BD6C4C7F49C4F8A0300422282030F0FD
:103C60002BF8012010BD674C7B49C4F89C3004221E
:103C7000272030F021F8012010BD624C7749C4F8AC
:103C800098300422262030F017F8012010BD5D4C3A
:103C90007349C4F894300422252030F00DF8012037
:103CA00010BD584C6F49C4F890300422242030F0E5
:103CB00003F8012010BD534C6B49C4F88C3004222A
:103CC00023202FF0F9FF012010BD4E4C6749C4F8A6
:103CD0008830042222202FF0EFFF012010BD494C34
:103CE0006349C4F88430042221202FF0E5FF01202D
:103CF00010BD444C5F49C4F88030042220202FF0CE
:103D0000DBFF012010BD3F4C5B49E36704221F200D
:103D10002FF0D2FF012010BD3A4C5849A36704226E
:103D20001E202FF0C9FF012010BD364C5449636797
:103D300004221D202FF0C0FF012010BD314C51493D
:103D4000236704221C202FF0B7FF012010BD2D4C4B
:103D50004D49E36604221B202FF0AEFF012010BD69
:103D6000284C4A49A36604221A202FF0A5FF0120FF
:103D700010BD244C46496366042219202FF09CFF95
:103D8000012010BD1F4C43492366042218202FF048
:103D900093FF012010BD1B4C3F49E365042217200F
:103DA0002FF08AFF012010BD164C3C49A365042268
:103DB00016202FF081FF012010BD124C3849636599
:103DC000042215202FF078FF012010BD0D4C35493D
:103DD0002365042214202FF06FFF012010BD094C31
:103DE0003149E364042213202FF066FF012010BD47
:103DF000044C2E49A364042212202FF05DFF012001
:103E000010BD00BF5C2002201D2500001D2F0000FA
:103E10009D2E00001D2E00009D2D00001D30000075
:103E20009D2F00009D3000001D1300001D2D00007F
:103E30009D2C00001D2C00009D2B00001D2B000060
:103E40009D2A00001D2A00009D2900001D29000058
:103E50009D2800001D2800009D2700001D27000050
:103E60009D2600001D2600009D2500001D2300004A
:103E70009D2200001D2200009D2100001D21000048
:103E80009D2000001D2000009D1F00001D1F000040
:103E90009D1E00001D1E00009D1D00001D1D000038
:103EA0009D1C00001D1C00009D1B00001D1B000030
:103EB000524C53496364042211202FF0FDFE01206F
:103EC00010BD4E4C4F492364042210202FF0F4FE05
:103ED000012010BD494C4C49E36304220F202FF010
:103EE000EBFE012010BD454C4849A36304220E207F
:103EF0002FF0E2FE012010BD404C454963630422CF
:103F00000D202FF0D9FE012010BD3C4C4149236308
:103F100004220C202FF0D0FE012010BD374C3E496A
:103F2000E36204220B202FF0C7FE012010BD334CAA
:103F30003A49A36204220A202FF0BEFE012010BDE0
:103F40002E4C37496362042209202FF0B5FE012070
:103F500010BD2A4C33492362042208202FF0ACFE06
:103F6000012010BD254C3049E361042207202FF0C9
:103F7000A3FE012010BD214C2C49A3610422062080
:103F80002FF09AFE012010BD1C4C294963610422C8
:103F900005202FF091FE012010BD184C254923610A
:103FA000042210462FF088FE012010BD134C224938
:103FB000E360042203202FF07FFE012010BD0F4C90
:103FC0001E49A360042202202FF076FE012010BDBE
:103FD00004460A481A494360042201202FF06CFE6F
:103FE000204610BD054C17492360042200202FF005
:103FF00063FE012010BD002010BD00BF5C20022028
:104000009D1A00001D1A00009D1900001D190000D6
:104010009D1800001D1800009D1700001D170000CE
:104020009D1600001D1600009D1500001D150000C6
:104030009D1400001D1400009D1300009D2400002D
:104040001D2400009D230000704700BF024A034862
:10405000002136F033B800BF1C3D01005418FF1F8B
:10406000F0B51B4B1E68864285B015468CB218D041
:10407000C4F59073002201B20092164803911BB25E
:104080000A2229F09FFB144A039910880090631BB1
:10409000C4F595720F481BB212B229F093FB05B01C
:1040A000F0BDC4F5957331B24FF478471EB2334674
:1040B000084800970A22641B039129F083FB0548F6
:1040C0000399009723B2324629F07CFB05B0F0BD7E
:1040D0006C08FF1F741002209009FF1F2DE9F04F9C
:1040E000DFF824B1DFF82481DBF800003F4DDFF872
:1040F0002091DFF820A13E4F85B034F02FFA41EC3B
:10410000100B32F06DFD3A4B51EC100B002234F0E5
:104110009FFA34F075FD0024C8F80000002637E04F
:1041200055F8240034F01AFA41EC100B32F058FD27
:104130003B4651EC100B324634F08AFA34F060FD05
:1041400000EBC000D8F800304001B0FBF3F0294B81
:10415000B0F5907F8ABF4FF4907118601960264BBC
:104160001B7898BF0146002B35D0244A244B52F8C7
:1041700024201B6802EBC2025201B2FBF3F2214B76
:1041800020461A60FFF76CFF0134B4F5D27F1FD0D0
:1041900055F82430012BC3D8002321B200930A2202
:1041A0004FF490734846039129F00CFBDAF8003085
:1041B0000399A342E8D14FF4784300930A224FF4C5
:1041C00090734846013429F0FDFAB4F5D27FDFD16F
:1041D00005B0BDE8F08F55F82420DBF8003002EB85
:1041E000C2025201B2FBF3F2C9E700BF500802203D
:1041F00000005940641002207A09FF1FC82B0120DB
:104200003066012068100220286601202C660120FB
:10421000741002206C08FF1F10B5104B1C688442FC
:1042200082B00ED00E4B84461B880093C1F5957268
:104230000BB20C4812B20FFA8CF129F0C3FA02B09B
:1042400010BDC1F595724FF47843009305480BB249
:1042500012B221B229F0B6FA02B010BD6C08FF1FED
:104260008C09FF1F741002202DE9F843144D154CE2
:10427000DFF86080144F154E4FF0000910E056F83B
:104280002910136801EBC1014901B1FBF3F1484664
:1042900009F101092160FFF7BFFFB9F5D27F0CD00A
:1042A0002B780B4A002BEAD158F829103B6801EB18
:1042B000C1014901B1FBF3F1E9E7BDE8F88300BFB3
:1042C0007A09FF1F6410022028660120C82B0120F4
:1042D000306601205008022000B50748B0F92010D0
:1042E000B0F91E3083B00022CDE90012114629F04A
:1042F00063FC03B05DF804FB74100220F0B40023EB
:10430000164D1A4645F823200133B3F5007FF9D145
:1043100001F1FF3C124F8444002600291CDDB0F55A
:10432000805F19DA0346002202E0B3F5805F06D011
:1043300057F823406345224403F10103F5D10844B3
:10434000B0F5805F45F8262004DA0136B6F5007F27
:104350008C44E2D1F0BC70470022F0E75008022004
:1043600050C80120F0B40023164D1A4645F823200A
:104370000133B3F5007FF9D101F1FF3C124F8444C2
:10438000002600291CDDB0F5805F19DA0346002203
:1043900002E0B3F5805F06D057F82340634522441E
:1043A00003F10103F5D10844B0F5805F45F82620FC
:1043B00004DA0136B6F5007F8C44E2D1F0BC7047D8
:1043C0000022F0E7C82B0120C8EB002030B4002306
:1043D0006F491A4641F823200133B3F5805FF9D1C4
:1043E0006C4C6D4922700A706C486D4B6D4C6E4977
:1043F00002601A6022600A606C486D4B6D4C6E4919
:1044000002601A6022600A606C486D4B6D4C6E4908
:1044100002601A6022600A606C486D4B6D4C6E49F8
:1044200002601A6022600A606C486D4B6D4C6E49E8
:1044300002601A6022600A606C486D4B6D4C6E49D8
:1044400002601A6022600A606C486D4B6D4C6E49C8
:1044500002601A606D486E4B22600A606D4C6E49B6
:1044600002601A6022600A606C496D4B0A606D49F7
:104470001A606D4B0A606D491A606D4B0A606D4899
:104480006D4C6E491A606E4B026022600A606D4886
:104490006D4C6E491A606E4B026022600A606D4876
:1044A0006D4C6E491A603C23026022600B606C48C0
:1044B0006C4C6D49026022600B606C486C4C6D491D
:1044C000026022600B606C486C4C6D490360236095
:1044D0000B606C486C4C6D49036023600B606C484A
:1044E0006C4C6D49036023600B606C496C480B6039
:1044F0006C4903600B606C496C4C0B606C486D49F7
:10450000236003600B606C4C6C486D496D4D2360FB
:1045100003600B606C4C6D496D482270B4232B60B6
:104520006C4B0A706C4C6D4902701A706C486D4B84
:1045300022700A706C4C6D4902701A706C486D4B99
:1045400022700A706C4C6D4902701A706C486D4B89
:1045500022700A706C4C6D4902701A706C486D4B79
:1045600022700A706C4C6D4902701A706C486D4B69
:1045700022700A706C496D4C02701A706C486D4B59
:104580000A7000212270027030BC1960704700BFB1
:1045900050C801206C640120656401205010022085
:1045A0005410022094550020E88601201487012031
:1045B0003C87012044870120488701204C87012047
:1045C000508701205487012058870120EC86012064
:1045D000F0860120F4860120F8860120FC86012067
:1045E0000087012004870120088701200C87012013
:1045F0001087012018870120248701201C870120B3
:1046000020870120288701202C8701203087012066
:10461000348701203887012040870120B4640120BD
:104620009464012074640120BC640120846401202E
:104630007C64012070640120AC6401209C64012032
:104640008C640120B8640120C0640120B0640120A2
:10465000A46401207864012080640120080AFF1FFF
:104660008864012090640120000AFF1FA0640120DB
:10467000A8640120F809FF1F100AFF1F040AFF1F8A
:10468000EC09FF1FFC09FF1FF409FF1FE409FF1FCE
:10469000E809FF1FE009FF1FDC09FF1FD409FF1F06
:1046A000D809FF1F200AFF1F180AFF1FD009FF1F8C
:1046B0001C0AFF1F0C0AFF1F140AFF1FF009FF1F2F
:1046C000CC09FF1FC809FF1F728701203CD70020BB
:1046D0005D870120C4EB002010340120201302204C
:1046E000309700203197002021660120F41302202A
:1046F000EC1302205C8701205064012030D8002098
:10470000D85600206010022020660120708701200A
:104710002113022071870120381A0220391A022041
:104720003C1A02203B1A02205E6401203A1A022041
:104730006B6401206487012068496948694A002345
:1047400030B40B606849036013600B60674C6848C5
:10475000684A69492360036013600B60674C6848CE
:10476000684A69492360036013600B60674C6848BE
:10477000684A69492360036013600B60674C6848AE
:10478000684A69492360036013600B60674C68489E
:10479000684A69492360036013600B60674C68488E
:1047A000684A694923600360684D694C6948136031
:1047B0000B60694A69492B602360036013600B60DA
:1047C0006749684A0B6068491360684A0B6068492A
:1047D0001360684A0B60684C68491360684A23603C
:1047E0000B606848684C694913603C2203600A60AA
:1047F00023606748674C684903600A602360674824
:10480000674C684903600A6023606748674C6849E1
:1048100003600A6023606748674C68490260226051
:104820000A606748674C6849026022600A6067480E
:10483000674C6849026022600A606748674C6849B3
:10484000026022600A60674967480A60674902603F
:104850000A60674C67486849684D226002600A60D8
:10486000674C684968482370B4222A60674A0B7015
:10487000674C6849037013706748684A23700B706F
:10488000674C6849037013706748684A23700B705F
:10489000674C6849037013706748684A23700B704F
:1048A000674C6849037013706748684A23700B703F
:1048B000674C6849037013706748684A23700B702F
:1048C000674C6849037013706748684A23700B701F
:1048D000002130BC03701160704700BF14870120B5
:1048E0003C870120448701204C8701204887012014
:1048F0005087012054870120EC8601205887012031
:10490000F0860120F4860120FC860120F886012033
:1049100000870120048701200C87012008870120DF
:1049200010870120188701201C870120248701207F
:104930002087012028870120308701202C87012033
:10494000348701203887012070640120E886012027
:104950004087012094640120AC640120B8640120E8
:1049600078640120C06401208864012080640120F3
:104970009C64012090640120B4640120B064012093
:10498000A4640120BC64012074640120080AFF1F94
:104990007C64012084640120000AFF1F8C640120D4
:1049A00098640120F809FF1FA0640120A864012079
:1049B000EC09FF1F100AFF1F040AFF1FE409FF1F75
:1049C000FC09FF1FF409FF1FDC09FF1FE809FF1F97
:1049D000E009FF1FD409FF1FD809FF1FD009FF1FDF
:1049E000200AFF1F180AFF1F1C0AFF1F0C0AFF1FC7
:1049F000140AFF1FF009FF1FCC09FF1FC809FF1F82
:104A0000728701203CD700205D870120C4EB002085
:104A1000103401202013022030970020319700200D
:104A200021660120F4130220EC1302205C87012090
:104A30005064012030D80020D85600206010022099
:104A40002066012070870120211302207187012038
:104A5000381A0220391A02203C1A02203B1A02207E
:104A60003A1A02205E6401206B64012064870120F1
:104A70004C4B4D4AD3ED006AD2ED007A4B4B27EEFA
:104A8000A76A66EEA63AD3ED005A76EE632A77EE71
:104A9000E64A25EEA53A22EEE57A23EEE74AA3EEB2
:104AA000247AA6EE864A34EE077AB5EE407AF1EE25
:104AB00010FA5ED03E4B3F493F4AD1ED001A92EDCD
:104AC000001A93ED002A9FED3D0A31EEC15A64EEC3
:104AD000824A66EEA16AE5EEC54A67EE817AF1EE9A
:104AE000655A76EEE70A70EEA40AC0EE874AF0EE49
:104AF000E40AF4EE400AF1EE10FA4ADDDFED304A46
:104B000026EE016A23EE055AA3EEE16AA2EEC25A2E
:104B1000DFED2A2A36EE055AC5EE073AB0EEE35A23
:104B2000B4EE625AF1EE10FA39DCF4EE633AB7EE05
:104B3000005AF1EE10FA68BFF0EE453A77EEE67AE9
:104B40009FED1E5A67EE837AE5EE867AE4EE027AEE
:104B5000C7EE876AF0EEE67AF4EE457AF1EE10FAE7
:104B600004DCF4EE666AF1EE10FA08D7DFED146AA1
:104B700005E0DFED134AF7EE003AF0EE646A114902
:104B8000114A124BC1ED004AC2ED003AC3ED006A72
:104B90007047F4EE644AF1EE10FAB1D7AEE7F7EEE3
:104BA000003ACBE72009FF1F1C09FF1F1809FF1F50
:104BB0005809FF1F5C09FF1F6009FF1FFFFF7F7F70
:104BC0000000000070550020EC08FF1F2CD80020CA
:104BD000654A664B92ED007AD3ED007AB4EEE77A3F
:104BE000F1EE10FA1CD5624A624BD2ED006A93EDE9
:104BF000006A614A614B37EEC75A76EEC65A76EEC6
:104C0000866A85EE256A77EE277AB6EE007AE6EEBA
:104C1000667A82ED006A67EE877AC3ED007A7047A4
:104C2000574BD3ED006AB4EEE67AF1EE10FA1CDDD4
:104C3000504A544BD2ED007A93ED006A4E4A4F4BE6
:104C400037EE665A77EEC65A77EE867A85EE256A93
:104C500077EE266AB6EE007AE6EE676A82ED006AC3
:104C600066EE876AC3ED006A7047474BB4EEE77A99
:104C7000F1EE10FA93ED006A38DDB4EEC67AF1EE8B
:104C800010FA33D53B493A4A404BD1ED006AD2ED98
:104C9000005A93ED004A3848384A3D493D4B36EEBC
:104CA000E55A77EE672A36EE473A74EE663AC2EE78
:104CB000854A83EE235A76EEA55A77EE277A37EEA9
:104CC000066A76EE846AE4EEE57AA5EE666AB6EEEA
:104CD000007A67EE877A26EE077AC0ED004A81ED0A
:104CE000005AC2ED007A83ED007A7047B4EEC67ABE
:104CF000F1EE10FA37DDB4EEE67AF1EE10FA32D5C5
:104D00001C49224A1F4BD1ED007AD2ED005A93ED97
:104D1000005A1948194A1E491E4B77EEE54A77EEAC
:104D2000462A36EEC73A75EE673A82EEA44AC3EEDB
:104D3000234A77EEA55A37EE066A77EE857A37EE84
:104D4000267AA4EE656AA4EEE77AB6EE005A66EE1D
:104D5000056A67EE057A80ED004AC1ED004AC2EDB2
:104D6000006AC3ED007A70476409FF1F5809FF1FEE
:104D70001809FF1F2409FF1FD808FF1F50D7002064
:104D80006009FF1F2009FF1F5C09FF1F1C09FF1F8F
:104D9000DC08FF1F54D7002030B583B001AD0424D8
:104DA00020462EF04FFC0134082C05F8010BF7D1FA
:104DB000124A134BDDED016AD3ED007A92ED007AD1
:104DC000104B26EE877A66EEA77AE6EE877AD3ED69
:104DD000006A0D4B77EEA67AD3ED006A77EEE67A9D
:104DE000B7EE007AF0EEE77AF4EEC77AF1EE10FA59
:104DF00094BF01204FF0FF3003B030BD705500204C
:104E0000EC08FF1F2CD800205C09FF1F10B4414A9A
:104E1000137C012B30D972B6D36862B63E4C3F4941
:104E200020680B60984224D0002B3D4815DB0068B9
:104E3000B3EB800F05DD00230B6072B6D36062B662
:104E40000B68384A2360032BCCBF991000215DF812
:104E5000044B116032202FF0F3BA03689B000B6003
:104E600072B6D36062B60B680068B3EB800FE8DD02
:104E7000E1E75DF8044B704772B650681368117A29
:104E80001B780478507A044201EA030108D0937A2F
:104E900003F0030309B143F0040343F0080305E002
:104EA000937A03F0030309B143F004039908013B2B
:104EB00091720D2BB0D801A151F823F0FD4E0000E6
:104EC000F54E00000D4F0000F54E0000194E000099
:104ED000054F0000FD4E0000FD4E0000054F000094
:104EE000194E0000F54E00000D4F0000F54E000079
:104EF000FD4E0000D368013BD3608EE7D3680133D9
:104F0000D3608AE7D368023BD36086E7D368023375
:104F1000D36082E7D0660120A809FF1FE466012064
:104F2000B0660120B46601202DE9F0418DB286B053
:104F300005F1210384B21BB20293009304F1140320
:104F40001BB206B20AB201934FF47841A4F11403E4
:104F50000391214831461BB22AF0FCF94FF6FF7746
:104F6000A11E05F109020E2309B200931A48019708
:104F700012B20523059128F01FFE052305F11A0240
:104F8000059900931448019712B228F015FEA4F178
:104F900015086A1E22352DB20FFA88F8153412B2A0
:104FA0004346314624B20C480197009505922CF0F7
:104FB0007FFC059A084831462346CDE900572CF07E
:104FC00077FCCDE90057044843462A4621462CF099
:104FD0006FFC06B0BDE8F081741002202DE9F043AB
:104FE0008CB287B0254EA71C4CF218683FB205233F
:104FF00085B28946009301B23A463046CDF8048026
:10500000042328F0D9FD0FFA89F304F10802009374
:1050100012B2AB1D1BB20292A91CE21C01933046D6
:10502000CDF80C8012B209B22AF094F94FF0000CBE
:1050300005F10801621C0723CDE9003C09B23046A6
:1050400012B20D230634049124B228F0B5FD05F107
:10505000120304991BB23A463046CDE90048059345
:105060002CF026FCCDE90078059B049922463046B9
:105070002CF01EFC07B0BDE8F08300BF74100220C6
:105080002DE9F0478CB286B0314E04F1020A4CF2A1
:1050900018690FFA8AFA052385B2009352460F4623
:1050A000CDF8049001B20423304628F085FD04F1C8
:1050B0000802AB1D12B21BB202923FB2E21CA91C45
:1050C000009701933046CDF80C9012B209B22AF045
:1050D00041F900270723CDE9003705F10801621CDB
:1050E00005F10D0704F104083FB20FFA88F809B280
:1050F000304612B20D230634059124B228F05CFD2F
:105100000599CDF804903B4652463046CDF80080D4
:105110002CF0CEFB05993B4622463046CDE900896E
:105120002CF0C6FB05F112031BB25246394630463D
:10513000CDE9008905932CF0BBFBCDE90089059BE7
:105140002246394630462CF0B3FB06B0BDE8F08766
:10515000741002202DE9F0478CB286B0324E04F173
:1051600002090FFA89F94CF21868052385B2CDF8C7
:10517000048000934A460F46042301B2304628F0CB
:105180001BFD04F10802AB1D12B21BB202923FB22A
:10519000E21CA91CCDF80C8000970193304612B296
:1051A00009B22AF0D7F800270723CDE9003705F127
:1051B0000801621C05F10D0704F104083FB20FFA63
:1051C00088F840F2FF7A09B2304612B20D23063455
:1051D000059124B228F0F0FC0599CDF800803B46FB
:1051E0004A463046CDF804A02CF062FB05993B46B8
:1051F00022463046CDE9008A2CF05AFB05F1120315
:105200001BB24A4639463046CDE9008A05932CF058
:105210004FFBCDE9008A059B2246394630462CF0EB
:1052200047FB06B0BDE8F087741002202DE9F0437B
:10523000694B1C7885B00B46002C48D1002A00F041
:105240008980002A02DC05B0BDE8F0839CB285B2FB
:1052500004F10A0996B201B20FFA89F96F1D04F13F
:1052600003083FB21AB20FFA88F80B465B48019662
:10527000CDF80090073424B2039202912CF018FB71
:10528000039A0299554801963B46CDF800802CF0D0
:105290000FFB029951484A463B46CDE900462CF0A7
:1052A00007FB6B1F1BB2224639464C480196CDF8CE
:1052B000008002932CF0FCFA4848029B019600946F
:1052C000424639462CF0F4FA05B0BDE8F083002AD6
:1052D000B7D18CB285B204F10A0940F2FF7801B26D
:1052E0000FFA89F96E1DE71C36B21AB23FB20B46AF
:1052F0003A48CDF80480CDF80090073424B20392E8
:1053000002912CF0D5FA039A02993448CDF8048022
:10531000334600972CF0CCFA053D02992F484A46B7
:105320003346CDE900482CF0C3FA2BB22246314671
:10533000CDE90078294802932CF0BAFA2748029B5D
:10534000CDF8048000943A4631462CF0B1FA05B00D
:10535000BDE8F0838CB285B204F10A0847F6EF3756
:1053600001B20FFA88F86E1D04F1030936B21AB2C1
:105370000FFA89F90B4619480197CDF800800734D8
:1053800024B2039202912CF093FA039A02991348E3
:1053900001973346CDF800902CF08AFA053D02992A
:1053A0000E4842463346CDE900472CF081FA2BB235
:1053B0002246314609480197CDF8009002932CF01F
:1053C00077FA0648029B019700944A4631462CF032
:1053D0006FFA05B0BDE8F083556401207410022017
:1053E0002DE9F04F744B2DED028B1B7885B085B203
:1053F000002B6CD005F10A0840F2FF760FFA88F80E
:105400000FFA81F904B28BB21F464A464346214641
:105410006A480196CDF800902CF04AFA03970A37B3
:105420003FB243463A4621466448019600972CF025
:105430003FFA039B6148019605F1030B05330FFA10
:105440008BF205F1010A0FFA83FB043508EE102AEE
:10545000134621464A460FFA8AFA2DB2CDF800B01B
:105460002CF026FA2B464A46514654480196CDF870
:1054700000B02CF01DFA18EE101A23465A464F4879
:10548000019600972CF014FA53465A4629464B4889
:10549000019600972CF00CFA039C48480196A31C37
:1054A0001BB24A460093414643462CF001FA04F1F0
:1054B000080109B2CDE90016404843463A46414644
:1054C0002CF0F6F905B0BDEC028BBDE8F08F3C4E38
:1054D0000FFA81F98BB2CDF8009005F10A080FFAA6
:1054E00088F804B21F46338801934A464346214652
:1054F00032482CF0DDF903970A373FB20097338822
:1055000001933A46434621462C482CF0D1F9039B9F
:105510002A4805F1030B05330FFA8BF20FFA83FBD0
:10552000CDF800B03388019308EE102A13462146C7
:105530004A462CF0BDF905F1010ACDF800B004355A
:10554000338801930FFA8AFA2DB22B464A46514608
:105550001A482CF0ADF900973288019218EE101A13
:1055600023465A4615482CF0A3F90097308801903D
:1055700053465A46294611482CF09AF9039C0F4885
:10558000A31C1BB20093338801934A46434641460D
:105590002CF08EF904F10803328801921BB20093BB
:1055A000064843463A4641462CF082F905B0BDEC28
:1055B000028BBDE8F08F00BF6A64012074100220E6
:1055C0002008FF1F2DE9F04787B28CB282B0A61CDD
:1055D0007D1D0A3424B240F2FF7A2DB236B207F1B3
:1055E000080380468946324629460F480094CDF884
:1055F00004A01BB22CF05CF907F10A03B91D0FFAE5
:1056000089F2CDE9004A08481BB209B22CF050F9E2
:10561000CDE9004A04480FFA88F3324629462CF0B7
:1056200047F902B0BDE8F087741002202DE9F0417F
:105630008DB284B0344F2B1D05F1110196B209B221
:105640001AB203B284B2009138461946019602920A
:105650002CF02EF9631C05F110011BB209B2029A5D
:1056600000913846194601962CF022F905F10E08F2
:1056700004F108030FFA88F81BB2029A0196194642
:105680003846CDF800802CF013F904F109031BB261
:10569000029A019619463846CDF800802CF008F998
:1056A00005F10D0212B2A11C231D09B200921BB21A
:1056B00038460196039302912CF0FAF8039B029965
:1056C000019642463846CDF800802CF0F1F805F1FD
:1056D0000C0212B2611DE31D09B21BB200923846E2
:1056E0000196039302912CF0E3F805F10B0C0FFAED
:1056F0008CF2CDE90026039B029938462CF0D8F8AD
:1057000004B0BDE8F08100BF7410022010B52DF088
:10571000CBFA092821DC384C3030C0B2302323705A
:1057200060702DF0D9FA09282CDC3030C0B230235B
:10573000A370E0702DF070FA092837DC3030C0B269
:105740003023237160712DF07FFA092842DC30305C
:10575000C0B23023A371E07110BD284A264C82FBF1
:105760000012C317C3EBA20303EB8302A0EB4200BA
:1057700030333030DBB2C0B2237060702DF0ACFA41
:105780000928D2DD1D4AC31782FB0012C3EBA20316
:1057900003EB8302A0EB420030333030DBB2C0B207
:1057A000A370E0702DF038FA0928C7DD134AC3173B
:1057B00082FB0012C3EBA20303EB8302A0EB4200C7
:1057C00030333030DBB2C0B2237160712DF03CFA5F
:1057D0000928BCDD094AC31782FB0012C3EBA203F0
:1057E00003EB8302A0EB420030333030DBB2C0B2B7
:1057F000A371E07110BD00BF440AFF1F67666666B3
:105800002DE9F043A3B0FFF781FFA74826F0F4F895
:1058100044F20223A54AA6490EA823F083FE209B4A
:10582000002B00F012815C2031F0E4F8A14BA24F74
:105830000025C0E900350F9BC360A04B8360109B1F
:10584000036112AE9DF844300375044631461830AA
:1058500023F022FD9A4BA3604FF47A730B93636895
:10586000A56501330A9563600D948DF83050099752
:10587000DFF87492CDF83890304623F03BFD0D9C54
:10588000002C00F0DF8023688E4A1B6B934240F0AF
:10589000EB80236D002B00F09B808B49DFF84C825E
:1058A0008A4F8B4E0EA830F005FF8A4A8A498B4BEF
:1058B00012681B68096805A801FB02310A2230F052
:1058C0003DFF05A90EA831F005F80146804830F0EB
:1058D00081FF05A830F0B2FE0EA830F0AFFE7C4983
:1058E00009A830F085FA09A830F0B0FA01240A229C
:1058F000214601A830F00AFF01A905A830F080FE7A
:10590000394605A830F0EEFF0A2258F82410054663
:105910000EA830F02BFF0EA9284630F0DBFF014621
:10592000304630F057FF0EA830F088FE05A830F062
:1059300085FE01A830F082FE314609A830F058FA01
:10594000013409A830F082FAB4F5805FCFD1C822C3
:1059500040F22751112030F0ABFDC9202EF070FD30
:10596000DC2240F21741112030F0A2FDDD202EF0A4
:1059700067FD0D9C002C65D02368594EDB6AB3424D
:1059800040F08E80A06D18B133F086FB0023A36534
:10599000236D002B7AD004F1180023F0ABFC0D9D91
:1059A0006C68013C6C60002C4CD12B68DB6AB34204
:1059B00040F0A380A86D10B133F06EFBAC652B6D89
:1059C000002B00F0958005F1180023F093FC1AE0FD
:1059D000636D002B7FF461AF09976568013D6560D9
:1059E000002D2FD123683E4ADB6A934255D1A06D2A
:1059F00010B133F051FBA565236D002B42D004F1AB
:105A0000180023F077FC0D9CE4B12368354A5B68ED
:105A100093423FD1A06D274B236018B133F03CFB7C
:105A20000023A365236D04F118053BB3284623F03A
:105A300061FCC4F80890284623F05CFC5C212046F9
:105A400030F0DAFF23B0BDE8F083219B002B7FF418
:105A5000EAAE194F0A934FF47A720B928DF83030F8
:105A600009970D9312AE03E72046984700287FF46C
:105A700014AF0D9C0997002CAFD1E3E7636D002BA9
:105A8000D4D1D6E7636D002BB9D1BCE7636D002B91
:105A900081D184E720469847D4E720469847B2E76B
:105AA000204698477BE700BF05050000440AFF1F1A
:105AB000441A0220A4270400782704000C270400BD
:105AC000542704006104000054FF030058FF030042
:105AD000C833012054100220540AFF1F5010022026
