:10000000F8FF02209901000029470100E1460100A4
:10001000E1460100E1460100E1460100E146010040
:10002000E1460100E1460100E146010029470100E7
:1000300029470100E1460100D16B0100D56B0100A9
:1000400029470100294701002947010029470100EC
:1000500029470100294701002947010029470100DC
:1000600029470100294701002947010029470100CC
:1000700029470100294701002947010029470100BC
:1000800029470100294701002947010029470100AC
:10009000294701002947010029470100294701009C
:1000A000ED3F0100F93F0100294701002947010008
:1000B000294701002947010029470100294701007C
:1000C000294701002947010029470100294701006C
:1000D000294701002947010029470100BD200000F0
:1000E00029470100294701002947010019A4000000
:1000F000294701002947010029470100294701003C
:10010000216E0100356E0100496E01005D6E010037
:1001100029470100195B0100294701002947010017
:10012000294701002947010029470100294701000B
:1001300029470100294701002947010029470100FB
:1001400029470100294701008D5801002947010076
:1001500029470100294701002947010029470100DB
:1001600029470100294701000540010029470100F6
:1001700029470100294701002947010029470100BB
:1001800029470100294701002947010029470100AB
:100190002947010029470100584B4CF2205210B565
:1001A0001A804DF628121A8000BF00BF14F0C0FA62
:1001B000534B4FF030621A60524A9A60524ADA60EA
:1001C000524B4FF470021A60514A136813F4807353
:1001D00004D150490B604FF4A85313604E4B1A786A
:1001E000110703D51A7842F008021A704B4B4C499C
:1001F0002A221A704B4A4C4B8B4204D252F8040FFD
:1002000043F8040BF8E7494B494900228B4202D2DC
:1002100043F8042BFAE74749474A002352F82300E2
:1002200041F823000133662BF8D1444B444A802126
:1002300003F8011B9342FBD1424B3E4A1A60424BEA
:100240008A221A70A3F5805324225A70A0221A70B1
:100250009A799207FCD59A79D406FCD43B4A9379D3
:1002600003F00C03082B394BF9D103221A714622F3
:100270005A719A799006FCD5344A9179334B4906E4
:10028000FBD5334A4FF08271116009215160202261
:100290001A709A7902F00C020C2AFAD12D4B2E4AD0
:1002A0001A602E4B2E4A1A6000225A60072243F829
:1002B000042C2C4AC3F80C2D62B615F00FF8154B20
:1002C0001B68DA0705D5284814F068FD274B284A33
:1002D0001A60284B1B785B0609D5244C244B2268F6
:1002E0009A4204D1204814F059FD002323601AF0EB
:1002F0007FF814F023FA17F017FAFEE70E200540F6
:1003000030800440823F04000100002B88ED00E0B3
:1003100010D0034014D0034002D0074000E0074053
:10032000D016FF1F00A10400F806FF1FD016FF1F04
:10033000CC0F00200002FF1F0000000000E400E0DE
:1003400056E400E008ED00E00050064000400640A2
:100350004480044004800440C010050014E000E024
:10036000BFD4010000002020A1B5ED601CE00340D7
:10037000A5C3945A00F00740FFFFFFFFFFFFFFFFF8
:10038000FFFFFFFFFFFFFFFFFFFFFFFFFFFFFFFF7D
:10039000FFFFFFFFFFFFFFFFFFFFFFFFFFFFFFFF6D
:1003A000FFFFFFFFFFFFFFFFFFFFFFFFFFFFFFFF5D
:1003B000FFFFFFFFFFFFFFFFFFFFFFFFFFFFFFFF4D
:1003C000FFFFFFFFFFFFFFFFFFFFFFFFFFFFFFFF3D
:1003D000FFFFFFFFFFFFFFFFFFFFFFFFFFFFFFFF2D
:1003E000FFFFFFFFFFFFFFFFFFFFFFFFFFFFFFFF1D
:1003F000FFFFFFFFFFFFFFFFFFFFFFFFFFFFFFFF0D
:10040000FFFFFFFFFFFFFFFFFFFFFFFFDEF9FFFF23
:1004100010B5054C237833B9044B13B10448AFF33E
:1004200000800123237010BDD016FF1F00000000C4
:10043000FCA00400084B10B51BB108490848AFF3F5
:1004400000800848036803B910BD074B002BFBD0A0
:10045000BDE81040184700BF00000000D416FF1F81
:10046000FCA00400D016FF1F000000000020704711
:10047000704700BF0349044B4FF4804001220860DD
:100480001A60704708F00F40EC66FF1F014B012215
:100490001A607047A45CFF1F024A1368013313609F
:1004A000704700BF3017FF1F14F072BCF8B50E463E
:1004B000074613F009FB054613F0F6FA044613F05D
:1004C000E3FA6401C0B204F4FF54ADB2A5F2BC7506
:1004D000044344EA45243C8013F0A6FA054613F091
:1004E000B3FA044613F0C0FAED02640105F4FF25E7
:1004F00004F4FF542C43C0F3460004433480F8BD99
:1005000030B59FED3E7A3E4C83B0002234F8123075
:100510009BB207EE903A0132F8EEE77A3C2A37EECA
:10052000277AF3D1DFED376A374DC7EE267A2921D6
:1005300028460422C5ED007A14F05AF80A2014F077
:100540007FFE95ED006ADFED2D6A002134F8112061
:1005500034F8113092B207EE902A9BB2B8EEE77AE7
:1005600007EE903AF8EEE77A36EE477A76EE677A5B
:1005700001313C29E7EE276AE8D1DFED247A244BEC
:1005800086EEA77A00221A60012417EE100A19F0ED
:1005900041FB41EC100B17F083FB51EC100B19F0F1
:1005A00085FED5ED007A1B4B1B4D07EE100AF0EED1
:1005B000006AB0EE086AF0EE675AE7EE265A17486E
:1005C000E7EE067A0422242180ED007AC3ED007A5A
:1005D000C5ED005A14F00CF80A2014F031FE02A800
:1005E000042240F8044D282114F002F80A2014F0E7
:1005F00027FE0B4B1C7003B030BD00BF0000000095
:10060000945DFF1F000070421408FF1F00006C4241
:10061000EC090020285CFF1FE866FF1F7C08FF1F15
:100620006C5EFF1F214B10B4D3F8EC2013685068A8
:1006300019780478507A137A044201EA03011BD036
:10064000937A03F0030309B143F0040343F0080372
:100650009910013B91720D2B0BD8DFE803F02107B5
:100660001B070A152121150A071B0721D368013B27
:10067000D3605DF8044B7047937A03F003030029BD
:10068000E6D043F00403E3E7D3685DF8044B023B94
:10069000D3607047D3685DF8044B0233D360704772
:1006A000D3685DF8044B0133D3607047B00C002071
:1006B000214B10B4DA6D1368506819780478507AB9
:1006C000137A044201EA03011BD0937A03F0030377
:1006D00009B143F0040343F008039910013B917200
:1006E0000D2B0BD8DFE803F021071B070A1521218A
:1006F000150A071B0721D368013BD3605DF8044B43
:100700007047937A03F003030029E6D043F0040313
:10071000E3E7D3685DF8044B023BD3607047D368CE
:100720005DF8044B0233D3607047D3685DF8044B27
:100730000133D360704700BFB00C0020214B10B4D0
:100740001A6E1368506819780478507A137A044244
:1007500001EA03011BD0937A03F0030309B143F0CC
:10076000040343F008039910013B91720D2B0BD841
:10077000DFE803F021071B070A152121150A071BD3
:100780000721D368013BD3605DF8044B7047937A2F
:1007900003F003030029E6D043F00403E3E7D36842
:1007A0005DF8044B023BD3607047D3685DF8044B9F
:1007B0000233D3607047D3685DF8044B0133D360D4
:1007C000704700BFB00C0020214B10B45A6E136864
:1007D000506819780478507A137A044201EA0301C8
:1007E0001BD0937A03F0030309B143F0040343F0F1
:1007F00008039910013B91720D2B0BD8DFE803F031
:1008000021071B070A152121150A071B0721D36899
:10081000013BD3605DF8044B7047937A03F0030308
:100820000029E6D043F00403E3E7D3685DF8044B06
:10083000023BD3607047D3685DF8044B0233D3604A
:100840007047D3685DF8044B0133D360704700BF35
:10085000B00C0020214B10B49A6E136850681978C0
:100860000478507A137A044201EA03011BD0937A88
:1008700003F0030309B143F0040343F008039910A4
:10088000013B91720D2B0BD8DFE803F021071B070A
:100890000A152121150A071B0721D368013BD360E4
:1008A0005DF8044B7047937A03F003030029E6D008
:1008B00043F00403E3E7D3685DF8044B023BD360E5
:1008C0007047D3685DF8044B0233D3607047D36838
:1008D0005DF8044B0133D360704700BFB00C0020BB
:1008E000214B10B4DA6E1368506819780478507A86
:1008F000137A044201EA03011BD0937A03F0030345
:1009000009B143F0040343F008039910013B9172CD
:100910000D2B0BD8DFE803F021071B070A15212157
:10092000150A071B0721D368013BD3605DF8044B10
:100930007047937A03F003030029E6D043F00403E1
:10094000E3E7D3685DF8044B023BD3607047D3689C
:100950005DF8044B0233D3607047D3685DF8044BF5
:100960000133D360704700BFB00C0020214B10B49E
:100970001A6F1368506819780478507A137A044211
:1009800001EA03011BD0937A03F0030309B143F09A
:10099000040343F008039910013B91720D2B0BD80F
:1009A000DFE803F021071B070A152121150A071BA1
:1009B0000721D368013BD3605DF8044B7047937AFD
:1009C00003F003030029E6D043F00403E3E7D36810
:1009D0005DF8044B023BD3607047D3685DF8044B6D
:1009E0000233D3607047D3685DF8044B0133D360A2
:1009F000704700BFB00C0020214B10B45A6F136831
:100A0000506819780478507A137A044201EA030195
:100A10001BD0937A03F0030309B143F0040343F0BE
:100A200008039910013B91720D2B0BD8DFE803F0FE
:100A300021071B070A152121150A071B0721D36867
:100A4000013BD3605DF8044B7047937A03F00303D6
:100A50000029E6D043F00403E3E7D3685DF8044BD4
:100A6000023BD3607047D3685DF8044B0233D36018
:100A70007047D3685DF8044B0133D360704700BF03
:100A8000B00C0020214B10B49A6F1368506819788D
:100A90000478507A137A044201EA03011BD0937A56
:100AA00003F0030309B143F0040343F00803991072
:100AB000013B91720D2B0BD8DFE803F021071B07D8
:100AC0000A152121150A071B0721D368013BD360B2
:100AD0005DF8044B7047937A03F003030029E6D0D6
:100AE00043F00403E3E7D3685DF8044B023BD360B3
:100AF0007047D3685DF8044B0233D3607047D36806
:100B00005DF8044B0133D360704700BFB00C002088
:100B1000214B10B4DA6F1368506819780478507A52
:100B2000137A044201EA03011BD0937A03F0030312
:100B300009B143F0040343F008039910013B91729B
:100B40000D2B0BD8DFE803F021071B070A15212125
:100B5000150A071B0721D368013BD3605DF8044BDE
:100B60007047937A03F003030029E6D043F00403AF
:100B7000E3E7D3685DF8044B023BD3607047D3686A
:100B80005DF8044B0233D3607047D3685DF8044BC3
:100B90000133D360704700BFB00C0020214B10B46C
:100BA000D3F880201368506819780478507A137A43
:100BB000044201EA03011BD0937A03F0030309B155
:100BC00043F0040343F008039910013B91720D2B8D
:100BD0000BD8DFE803F021071B070A152121150AAE
:100BE000071B0721D368013BD3605DF8044B7047B6
:100BF000937A03F003030029E6D043F00403E3E70C
:100C0000D3685DF8044B023BD3607047D3685DF84E
:100C1000044B0233D3607047D3685DF8044B013353
:100C2000D3607047B00C0020214B10B4D3F884205F
:100C30001368506819780478507A137A044201EAEC
:100C400003011BD0937A03F0030309B143F00403BB
:100C500043F008039910013B91720D2B0BD8DFE88C
:100C600003F021071B070A152121150A071B07217D
:100C7000D368013BD3605DF8044B7047937A03F06F
:100C800003030029E6D043F00403E3E7D3685DF8EB
:100C9000044B023BD3607047D3685DF8044B0233CA
:100CA000D3607047D3685DF8044B0133D36070475D
:100CB000B00C0020214B10B4D3F888201368506882
:100CC00019780478507A137A044201EA03011BD0A0
:100CD000937A03F0030309B143F0040343F00803DC
:100CE0009910013B91720D2B0BD8DFE803F021071F
:100CF0001B070A152121150A071B0721D368013B91
:100D0000D3605DF8044B7047937A03F00303002926
:100D1000E6D043F00403E3E7D3685DF8044B023BFD
:100D2000D3607047D3685DF8044B0233D3607047DB
:100D3000D3685DF8044B0133D3607047B00C0020DA
:100D4000214B10B4D3F88C201368506819780478BC
:100D5000507A137A044201EA03011BD0937A03F01C
:100D6000030309B143F0040343F008039910013B66
:100D700091720D2B0BD8DFE803F021071B070A1532
:100D80002121150A071B0721D368013BD3605DF8B9
:100D9000044B7047937A03F003030029E6D043F035
:100DA0000403E3E7D3685DF8044B023BD36070476C
:100DB000D3685DF8044B0233D3607047D3685DF8A5
:100DC000044B0133D3607047B00C0020214B10B4AA
:100DD000D3F890201368506819780478507A137A01
:100DE000044201EA03011BD0937A03F0030309B123
:100DF00043F0040343F008039910013B91720D2B5B
:100E00000BD8DFE803F021071B070A152121150A7B
:100E1000071B0721D368013BD3605DF8044B704783
:100E2000937A03F003030029E6D043F00403E3E7D9
:100E3000D3685DF8044B023BD3607047D3685DF81C
:100E4000044B0233D3607047D3685DF8044B013321
:100E5000D3607047B00C0020214B10B4D3F894201D
:100E60001368506819780478507A137A044201EABA
:100E700003011BD0937A03F0030309B143F0040389
:100E800043F008039910013B91720D2B0BD8DFE85A
:100E900003F021071B070A152121150A071B07214B
:100EA000D368013BD3605DF8044B7047937A03F03D
:100EB00003030029E6D043F00403E3E7D3685DF8B9
:100EC000044B023BD3607047D3685DF8044B023398
:100ED000D3607047D3685DF8044B0133D36070472B
:100EE000B00C0020214B10B4D3F898201368506840
:100EF00019780478507A137A044201EA03011BD06E
:100F0000937A03F0030309B143F0040343F00803A9
:100F10009910013B91720D2B0BD8DFE803F02107EC
:100F20001B070A152121150A071B0721D368013B5E
:100F3000D3605DF8044B7047937A03F003030029F4
:100F4000E6D043F00403E3E7D3685DF8044B023BCB
:100F5000D3607047D3685DF8044B0233D3607047A9
:100F6000D3685DF8044B0133D3607047B00C0020A8
:100F7000214B10B4D3F89C2013685068197804787A
:100F8000507A137A044201EA03011BD0937A03F0EA
:100F9000030309B143F0040343F008039910013B34
:100FA00091720D2B0BD8DFE803F021071B070A1500
:100FB0002121150A071B0721D368013BD3605DF887
:100FC000044B7047937A03F003030029E6D043F003
:100FD0000403E3E7D3685DF8044B023BD36070473A
:100FE000D3685DF8044B0233D3607047D3685DF873
:100FF000044B0133D3607047B00C0020214B10B478
:10100000D3F8A0201368506819780478507A137ABE
:10101000044201EA03011BD0937A03F0030309B1F0
:1010200043F0040343F008039910013B91720D2B28
:101030000BD8DFE803F021071B070A152121150A49
:10104000071B0721D368013BD3605DF8044B704751
:10105000937A03F003030029E6D043F00403E3E7A7
:10106000D3685DF8044B023BD3607047D3685DF8EA
:10107000044B0233D3607047D3685DF8044B0133EF
:10108000D3607047B00C0020214B10B4D3F8A420DB
:101090001368506819780478507A137A044201EA88
:1010A00003011BD0937A03F0030309B143F0040357
:1010B00043F008039910013B91720D2B0BD8DFE828
:1010C00003F021071B070A152121150A071B072119
:1010D000D368013BD3605DF8044B7047937A03F00B
:1010E00003030029E6D043F00403E3E7D3685DF887
:1010F000044B023BD3607047D3685DF8044B023366
:10110000D3607047D3685DF8044B0133D3607047F8
:10111000B00C0020214B10B4D3F8A82013685068FD
:1011200019780478507A137A044201EA03011BD03B
:10113000937A03F0030309B143F0040343F0080377
:101140009910013B91720D2B0BD8DFE803F02107BA
:101150001B070A152121150A071B0721D368013B2C
:10116000D3605DF8044B7047937A03F003030029C2
:10117000E6D043F00403E3E7D3685DF8044B023B99
:10118000D3607047D3685DF8044B0233D360704777
:10119000D3685DF8044B0133D3607047B00C002076
:1011A000214B10B4D3F8AC20136850681978047838
:1011B000507A137A044201EA03011BD0937A03F0B8
:1011C000030309B143F0040343F008039910013B02
:1011D00091720D2B0BD8DFE803F021071B070A15CE
:1011E0002121150A071B0721D368013BD3605DF855
:1011F000044B7047937A03F003030029E6D043F0D1
:101200000403E3E7D3685DF8044B023BD360704707
:10121000D3685DF8044B0233D3607047D3685DF840
:10122000044B0133D3607047B00C0020214B10B445
:10123000D3F8B0201368506819780478507A137A7C
:10124000044201EA03011BD0937A03F0030309B1BE
:1012500043F0040343F008039910013B91720D2BF6
:101260000BD8DFE803F021071B070A152121150A17
:10127000071B0721D368013BD3605DF8044B70471F
:10128000937A03F003030029E6D043F00403E3E775
:10129000D3685DF8044B023BD3607047D3685DF8B8
:1012A000044B0233D3607047D3685DF8044B0133BD
:1012B000D3607047B00C0020214B10B4D3F8B42099
:1012C0001368506819780478507A137A044201EA56
:1012D00003011BD0937A03F0030309B143F0040325
:1012E00043F008039910013B91720D2B0BD8DFE8F6
:1012F00003F021071B070A152121150A071B0721E7
:10130000D368013BD3605DF8044B7047937A03F0D8
:1013100003030029E6D043F00403E3E7D3685DF854
:10132000044B023BD3607047D3685DF8044B023333
:10133000D3607047D3685DF8044B0133D3607047C6
:10134000B00C0020214B10B4D3F8B82013685068BB
:1013500019780478507A137A044201EA03011BD009
:10136000937A03F0030309B143F0040343F0080345
:101370009910013B91720D2B0BD8DFE803F0210788
:101380001B070A152121150A071B0721D368013BFA
:10139000D3605DF8044B7047937A03F00303002990
:1013A000E6D043F00403E3E7D3685DF8044B023B67
:1013B000D3607047D3685DF8044B0233D360704745
:1013C000D3685DF8044B0133D3607047B00C002044
:1013D000214B10B4D3F8BC201368506819780478F6
:1013E000507A137A044201EA03011BD0937A03F086
:1013F000030309B143F0040343F008039910013BD0
:1014000091720D2B0BD8DFE803F021071B070A159B
:101410002121150A071B0721D368013BD3605DF822
:10142000044B7047937A03F003030029E6D043F09E
:101430000403E3E7D3685DF8044B023BD3607047D5
:10144000D3685DF8044B0233D3607047D3685DF80E
:10145000044B0133D3607047B00C0020214B10B413
:10146000D3F8C0201368506819780478507A137A3A
:10147000044201EA03011BD0937A03F0030309B18C
:1014800043F0040343F008039910013B91720D2BC4
:101490000BD8DFE803F021071B070A152121150AE5
:1014A000071B0721D368013BD3605DF8044B7047ED
:1014B000937A03F003030029E6D043F00403E3E743
:1014C000D3685DF8044B023BD3607047D3685DF886
:1014D000044B0233D3607047D3685DF8044B01338B
:1014E000D3607047B00C0020214B10B4D3F8C42057
:1014F0001368506819780478507A137A044201EA24
:1015000003011BD0937A03F0030309B143F00403F2
:1015100043F008039910013B91720D2B0BD8DFE8C3
:1015200003F021071B070A152121150A071B0721B4
:10153000D368013BD3605DF8044B7047937A03F0A6
:1015400003030029E6D043F00403E3E7D3685DF822
:10155000044B023BD3607047D3685DF8044B023301
:10156000D3607047D3685DF8044B0133D360704794
:10157000B00C0020214B10B4D3F8C8201368506879
:1015800019780478507A137A044201EA03011BD0D7
:10159000937A03F0030309B143F0040343F0080313
:1015A0009910013B91720D2B0BD8DFE803F0210756
:1015B0001B070A152121150A071B0721D368013BC8
:1015C000D3605DF8044B7047937A03F0030300295E
:1015D000E6D043F00403E3E7D3685DF8044B023B35
:1015E000D3607047D3685DF8044B0233D360704713
:1015F000D3685DF8044B0133D3607047B00C002012
:10160000214B10B4D3F8CC201368506819780478B3
:10161000507A137A044201EA03011BD0937A03F053
:10162000030309B143F0040343F008039910013B9D
:1016300091720D2B0BD8DFE803F021071B070A1569
:101640002121150A071B0721D368013BD3605DF8F0
:10165000044B7047937A03F003030029E6D043F06C
:101660000403E3E7D3685DF8044B023BD3607047A3
:10167000D3685DF8044B0233D3607047D3685DF8DC
:10168000044B0133D3607047B00C0020214B10B4E1
:10169000D3F8D0201368506819780478507A137AF8
:1016A000044201EA03011BD0937A03F0030309B15A
:1016B00043F0040343F008039910013B91720D2B92
:1016C0000BD8DFE803F021071B070A152121150AB3
:1016D000071B0721D368013BD3605DF8044B7047BB
:1016E000937A03F003030029E6D043F00403E3E711
:1016F000D3685DF8044B023BD3607047D3685DF854
:10170000044B0233D3607047D3685DF8044B013358
:10171000D3607047B00C0020214B10B4D3F8D42014
:101720001368506819780478507A137A044201EAF1
:1017300003011BD0937A03F0030309B143F00403C0
:1017400043F008039910013B91720D2B0BD8DFE891
:1017500003F021071B070A152121150A071B072182
:10176000D368013BD3605DF8044B7047937A03F074
:1017700003030029E6D043F00403E3E7D3685DF8F0
:10178000044B023BD3607047D3685DF8044B0233CF
:10179000D3607047D3685DF8044B0133D360704762
:1017A000B00C0020214B10B4D3F8D8201368506837
:1017B00019780478507A137A044201EA03011BD0A5
:1017C000937A03F0030309B143F0040343F00803E1
:1017D0009910013B91720D2B0BD8DFE803F0210724
:1017E0001B070A152121150A071B0721D368013B96
:1017F000D3605DF8044B7047937A03F0030300292C
:10180000E6D043F00403E3E7D3685DF8044B023B02
:10181000D3607047D3685DF8044B0233D3607047E0
:10182000D3685DF8044B0133D3607047B00C0020DF
:1018300070B5044608460D4619F0C2FC23680246FE
:10184000294620465B68BDE87040184738B5044615
:1018500008460D4619F0B4FC2368024629465B6829
:10186000204698470546204615F03EFB284438BDE3
:1018700038B5054615F09EFB0446284615F034FBA6
:10188000204438BD10B4036841681A780C78417A56
:10189000037A0C4202EA03021BD0837A03F00303AB
:1018A0000AB143F0040343F008039A10013B82722B
:1018B0000D2B0BD8DFE803F021071B070A152121A8
:1018C000150A071B0721C368013BC3605DF8044B81
:1018D0007047837A03F00303002AE6D043F0040341
:1018E000E3E7C3685DF8044B023BC3607047C3681D
:1018F0005DF8044B0233C3607047C3685DF8044B66
:101900000133C360704700BF08B5034BD3F8E8004C
:10191000FFF7B8FF08BD00BFB00C002008B5034BAF
:10192000D3F8E400FFF7AEFF08BD00BFB00C002005
:1019300008B5034BD3F8E000FFF7A4FF08BD00BFD4
:10194000B00C002008B5034BD3F8DC00FFF79AFF7A
:1019500008BD00BFB00C002008B5024B986DFFF722
:1019600091FF08BDB00C002008B5024B586DFFF781
:1019700089FF08BDB00C002008B5024B186DFFF7B9
:1019800081FF08BDB00C002008B5024BD86CFFF7F2
:1019900079FF08BDB00C002008B5024B986CFFF72A
:1019A00071FF08BDB00C002008B5024B586CFFF762
:1019B00069FF08BDB00C002008B5024B186CFFF79A
:1019C00061FF08BDB00C002008B5024BD86BFFF7D3
:1019D00059FF08BDB00C002008B5024B986BFFF70B
:1019E00051FF08BDB00C002008B5024B586BFFF743
:1019F00049FF08BDB00C002008B5024B186BFFF77B
:101A000041FF08BDB00C002008B5024BD86AFFF7B3
:101A100039FF08BDB00C002008B5024B986AFFF7EB
:101A200031FF08BDB00C002008B5024B586AFFF723
:101A300029FF08BDB00C002008B5024B186AFFF75B
:101A400021FF08BDB00C002008B5024BD869FFF794
:101A500019FF08BDB00C002008B5024B9869FFF7CC
:101A600011FF08BDB00C002008B5024B5869FFF704
:101A700009FF08BDB00C002008B5024B1869FFF73C
:101A800001FF08BDB00C002008B5024BD868FFF775
:101A9000F9FE08BDB00C002008B5024B9868FFF7AE
:101AA000F1FE08BDB00C002008B5024B5868FFF7E6
:101AB000E9FE08BDB00C002008B5024B1868FFF71E
:101AC000E1FE08BDB00C002008B50B463B2800F233
:101AD000C682DFE810F0BB02B202A902A0029702A0
:101AE0008E0285027C0273026A02610258024F0272
:101AF00046023D0234022B022202190210020702A2
:101B0000AE01A5019C0193018A01810178016F0159
:101B100066015D0154014A01400136012C01220198
:101B200018010E010401FA00F000E600DC00D2000A
:101B3000C800BE00B400AA00A00096008C0082007D
:101B400078006E0064005A00500046003C00BD4A18
:101B5000BD49C2F8EC303B20042213F059F80120B3
:101B600008BDB84AB949C2F8E8303A20042213F057
:101B70004FF8012008BDB34AB549C2F8E430392016
:101B8000042213F045F8012008BDAE4AB149C2F85D
:101B9000E0303820042213F03BF8012008BDA94AA8
:101BA000AD49C2F8DC303720042213F031F80120AF
:101BB00008BDA44AA949C2F8D8303620042213F03F
:101BC00027F8012008BD9F4AA549C2F8D430352026
:101BD000042213F01DF8012008BD9A4AA149C2F859
:101BE000D0303420042213F013F8012008BD954AA8
:101BF0009D49C2F8CC303320042213F009F80120AB
:101C000008BD904A9949C2F8C8303220042212F027
:101C1000FFFF012008BD8B4A9549C2F8C43031202E
:101C2000042212F0F5FF012008BD864A9149C2F84E
:101C3000C0303020042212F0EBFF012008BD814AA1
:101C40008D49C2F8BC302F20042212F0E1FF0120A0
:101C500008BD7C4A8949C2F8B8302E20042212F00F
:101C6000D7FF012008BD774A8549C2F8B4302D203E
:101C7000042212F0CDFF012008BD724A8149C2F84A
:101C8000B0302C20042212F0C3FF012008BD6D4AA1
:101C90007D49C2F8AC302B20042212F0B9FF01209C
:101CA00008BD684A7949C2F8A8302A20042212F0F7
:101CB000AFFF012008BD634A7549C2F8A43029204E
:101CC000042212F0A5FF012008BD5E4A7149C2F846
:101CD000A0302820042212F09BFF012008BD594AA1
:101CE0006D49C2F89C302720042212F091FF012098
:101CF00008BD544A6949C2F898302620042212F0DF
:101D000087FF012008BD4F4A6549C2F8943025205D
:101D1000042212F07DFF012008BD4A4A6149C2F841
:101D200090302420042212F073FF012008BD454AA0
:101D30005D49C2F88C302320042212F069FF012093
:101D400008BD404A5949C2F888302220042212F0C6
:101D50005FFF012008BD3B4A5549C2F8843021206D
:101D6000042212F055FF012008BD364A5149C2F83D
:101D700080302020042212F04BFF012008BD314AA0
:101D80004D49D3671F20042212F042FF012008BDF5
:101D90002C4A4A4993671E20042212F039FF012081
:101DA00008BD284A464953671D20042212F030FF1F
:101DB000012008BD234A434913671C20042212F066
:101DC00027FF012008BD1F4A3F49D3661B2004227C
:101DD00012F01EFF012008BD1A4A3C4993661A20E2
:101DE000042212F015FF012008BD164A3849536637
:101DF0001920042212F00CFF012008BD114A3549B8
:101E000013661820042212F003FF012008BD0D4ABA
:101E10003149D3651720042212F0FAFE012008BDD3
:101E2000084A2E4993651620042212F0F1FE012083
:101E300008BD044A2A4953651520042212F0E8FE21
:101E4000012008BDB00C0020250600000919000083
:101E50001D1900003119000045190000A5170000E8
:101E6000191700008D1600000116000075150000FE
:101E7000E91400005D140000D113000045130000B8
:101E8000B91200002D120000A11100001511000070
:101E900089100000FD0F0000710F0000E50E00002A
:101EA000590E0000CD0D0000410D0000B50C0000E2
:101EB000290C00009D0B0000110B0000850A00009A
:101EC000F90900006D090000E10800005508000054
:101ED000C90700003D070000B106000059190000C5
:101EE000691900005F4A604913651420042212F04A
:101EF0008FFE012008BD5B4A5C49D3641320042295
:101F000012F086FE012008BD564A594993641220FA
:101F1000042212F07DFE012008BD524A5549536447
:101F20001120042212F074FE012008BD4D4A5249CE
:101F300013641020042212F06BFE012008BD494AF0
:101F40004E49D3630F20042212F062FE012008BD27
:101F5000444A4B4993630E20042212F059FE01209B
:101F600008BD404A474953630D20042212F050FE39
:101F7000012008BD3B4A444913630C20042212F09F
:101F800047FE012008BD374A4049D3620B20042296
:101F900012F03EFE012008BD324A3D4993620A20FC
:101FA000042212F035FE012008BD2E4A3949536241
:101FB0000920042212F02CFE012008BD294A3649CE
:101FC00013620820042212F023FE012008BD254AD6
:101FD0003249D3610720042212F01AFE012008BD05
:101FE000204A2F4993610620042212F011FE01209D
:101FF00008BD1C4A2B4953610520042212F008FE3B
:10200000012008BD174A284913610422104612F026
:10201000FFFD012008BD134A2449D3600320042298
:1020200012F0F6FD012008BD0E4A214993600220FE
:10203000042212F0EDFD012008BD0A4A1D4953603B
:102040000120042212F0E4FD012008BD054A1A49CE
:1020500013600020042212F0DBFD012008BD0020E7
:1020600008BD00BFB00C00207919000089190000DC
:1020700099190000A9190000B9190000C919000038
:10208000D9190000E9190000F9190000091A000027
:10209000191A0000291A0000391A0000491A000014
:1020A000591A0000691A0000791A0000891A000004
:1020B000991A0000A91A0000B91A0000024B1B6807
:1020C000DB6F1B6B1B697047E80900202DE9F041AD
:1020D0001D4B1D68854282B016468CB219D005B2E0
:1020E000C4F590730022294600921BB20A221748B9
:1020F0000BF0B8FE164B15481B880093C4F595727B
:10210000A31B1BB212B229460BF0ACFE02B0BDE815
:10211000F081C4F595772DB23FB24FF478483B4635
:102120002946CDF800800A2208480BF09BFEA31B2D
:102130003A461BB2CDF80080294604480BF092FEC7
:1021400002B0BDE8F08100BF2808FF1F30C7FF1FA5
:102150003808FF1F2DE9F043364F374E3868374DAA
:1021600083B017F035FD41EC100B15F011FD002286
:10217000334B51EC100B17F0A1FD18F077F8A8467F
:102180003060002431E058F8240017F021FD41ECC4
:10219000100B15F0FDFC0022294B51EC100B17F031
:1021A0008DFD18F063F800EBC000264A3168DFF8B7
:1021B000A0E04001B0FBF1F1B1F5907F8ABF4FF490
:1021C00090711160116055F824203B6802EBC20247
:1021D00052012046B2FBF3F31A46CEF80030FFF767
:1021E00075FF0134B4F5D27F20D055F82430012B8F
:1021F000C9D800230FFA84F9009349464FF490732D
:102200000A2211480BF02EFE104B1B68A342E8D1A6
:102210004FF47843009349464FF490730A220A48DA
:1022200001340BF01FFEB4F5D27FDED103B0BDE860
:10223000F08300BF405CFF1F6C5CFF1F8C5EFF1FC4
:10224000000059403417FF1F30C7FF1F2808FF1F29
:10225000685EFF1F10B50F4B1C68844282B00B46AE
:10226000C1F595720AD045F21F0401B212B21BB239
:10227000009409480BF0F6FD02B010BD4FF4784011
:10228000009021B212B21BB203480BF0EBFD02B07A
:1022900010BD00BF2808FF1F30C7FF1FF8B50B4F48
:1022A0000B4E0C4D002457F82420336802EBC20279
:1022B00052012046B2FBF3F3013419462B60FFF7BD
:1022C000C9FFB4F5D27FEED1F8BD00BF8C5EFF1F11
:1022D000405CFF1F3417FF1F00B5074883B0B0F9FB
:1022E0002020B0F91E3000920022019211460CF01D
:1022F0005DF803B05DF804FB30C7FF1FDFF878C05E
:1023000000232DE9F0411A4FCCF800301A4647F867
:1023100023200133B3F5007FF9D1164E4FF0000EA4
:1023200001F1FF38002921DDB0F5805F1EDA034698
:1023300008EB0005002202E0B3F5805F06D056F8F6
:102340002340AB42224403F10103F5D10844B0F528
:10235000805F47F82E2004DA0EF1010EBEF5007FF3
:10236000E0D10023CCF80030BDE8F0810022EDE799
:102370008C5EFF1F1C87FF1F3417FF1F0023304890
:10238000194640F823100133B3F5805F4FF0000287
:10239000F7D12C4B2C482D49F0B52D4D2D4C1A6002
:1023A0002D4B2A70226002600A602C4F2C4E2D4D5E
:1023B0002D4C2E482E491A602E4B3A6032602A600E
:1023C000226002600A602C4F2C4E2D4D2D4C2E4861
:1023D0002E491A602E4B3A6032602A6022600260F9
:1023E0000A602C4F2C4E2D4D2D4C2E482E491A6034
:1023F0003C23236003603A6032602A600B602B4FFD
:102400002B4E2C4D2C4C2D482D493B6033602B60BE
:1024100023600360DFF8C8E00B602A4F2A4E2B4D83
:102420002B4C2C482C492D4B3A704FF0B40CCEF865
:1024300000C032702A70227002700A701A70F0BDEB
:102440001C87FF1F645CFF1F041CFF1F081CFF1F6D
:102450002517FF1F3C5EFF1F145CFF1FF066FF1F68
:102460000C5CFF1F105CFF1F185CFF1F1C5CFF1F34
:10247000205CFF1F1087FF1F985CFF1F9C5CFF1FE5
:102480002817FF1F1487FF1F1887FF1F1CC7FF1F78
:10249000F016FF1F20C7FF1F24C7FF1FEC16FF1FEA
:1024A000DC07FF1F5C08FF1FFC07FF1FF807FF1F6B
:1024B000F407FF1FF007FF1FEC07FF1FE807FF1FD0
:1024C000E407FF1F245CFF1F2CC7FF1FB65CFF1F24
:1024D000B55CFF1F9466FF1F2417FF1FC15CFF1F21
:1024E0004408FF1FF0B52949294F2A4A2A4E2B4D8F
:1024F0002B4C2C48DFF820C1DFF820E100230B60D3
:102500003B602949294F1360294A33602B602360BF
:1025100003600B603B60274E274D284C2848294913
:10252000294F1360294A33602B60236003600B60DE
:102530003B60274E274D284C28482949294F1370C6
:102540003C2202600A603A6033602B602370264EA2
:10255000264D274C27482849284F32602A602260A0
:1025600002600A603A60264E264D274C27482849CB
:10257000284ACCF80030B427CEF8003037602B70F2
:10258000237003700B701370F0BD00BFF066FF1F67
:102590000C5CFF1F1C5CFF1F105CFF1F145CFF1F07
:1025A000185CFF1F205CFF1F985CFF1F9C5CFF1FD7
:1025B0001887FF1F2817FF1F1087FF1F1487FF1F93
:1025C0001CC7FF1F20C7FF1F24C7FF1F2CC7FF1FEB
:1025D000EC16FF1FF016FF1F245CFF1FDC07FF1F18
:1025E0005C08FF1FFC07FF1FF807FF1FF407FF1F12
:1025F000F007FF1FEC07FF1FE807FF1FE407FF1F9F
:102600004408FF1FB65CFF1FB55CFF1F9466FF1FE9
:102610002417FF1FC15CFF1F041CFF1F081CFF1FA6
:102620002B4B2C4AD3ED004A2B4BD2ED002A2B4AE0
:1026300093ED006A92ED007A294B2A49D3ED006AA6
:10264000294B2A4A93ED002A294B64EEA47A26EE00
:10265000064A22EEE73A66EE075AA4EE073AB0EED3
:10266000651AA4EEE21A66EEA61A63EE663A32EE38
:10267000C75A34EE677A67EEC67AE1EE813AE4EE45
:10268000847A36EE646A22EE474A27EE667A65EE71
:10269000666AD4EEA25AA1EE867AE6EE026AA1EE4E
:1026A000854AF0EE634AE7EE824A34EE036A77EE3B
:1026B000277A75EEA66A86EE277AC4EEA75A86EECA
:1026C000A76AC1ED005A82ED006A83ED007A704777
:1026D000245EFF1F305CFF1F205EFF1F345CFF1F66
:1026E0001C5EFF1FE0C9FF1F2C5CFF1FA05CFF1FCB
:1026F0004808FF1F38B51B4C237C012B2CD972B620
:10270000184DE36862B61849184A08681360984281
:1027100021D0002B164816DB0068B3EB800F05DDD7
:102720000023136072B6E36062B61368114C0B604D
:10273000002B1A46B8BFDA1C921022603220BDE886
:10274000384012F07DBD03689B00136072B6EB60E9
:1027500062B61368E0E738BD72B62046FFF792F81C
:10276000CEE700BFE81BFF1F8408FF1F705EFF1F3E
:10277000BC5CFF1F28C7FF1F2DE9F04785B28CB254
:1027800084B02E4E04F1210305F114024FF4784E6B
:1027900007B212B218B2A5F11403CDF80CE0019201
:1027A00002900AB20090394630461BB2A5F10209E8
:1027B0000DF026FB4FF6FF780FFA89F904F10902B4
:1027C0000E23494630468DE8080112B205230BF06E
:1027D000EDFD04F1FF3A0523494604F11A02A5F183
:1027E0001509223424B2304600930FFA8AFA0FFA00
:1027F00089F9CDF8048012B215350BF0D7FD2DB252
:1028000052464B46394630468DE810010FF0AEFE79
:10281000524639462B4630460094CDF804800FF0DE
:10282000A5FE00944B4622462946CDF8048030464A
:102830000FF09CFE04B0BDE8F08700BF30C7FF1F5B
:102840002DE9F0478DB284B0264FAE1C36B24CF263
:1028500018694FF0050A84B28846324601B2CDF8B5
:1028600004903846CDF800A004230BF09FFDA31D73
:1028700005F1080205F1030E0FFA88F01BB212B23F
:10288000A11C00900193029238460FFA8EF2CDF807
:102890000C9009B204F108080DF0B2FA0FFA88F8AA
:1028A000002312340635324641463846019324B29D
:1028B0002DB2CDF800A00C230BF078FD2346324654
:1028C000414638468DE820020FF050FE0096234620
:1028D0002A464146CDF8049038460FF047FE04B032
:1028E000BDE8F08730C7FF1F2DE9F04F8DB285B0EE
:1028F000344E05F1020A4CF218670FFA8AFA4FF0CB
:10290000050884B28946524601B2CDF800803046AF
:10291000019704230BF04AFDA31D05F1080205F100
:10292000030E0FFA89F01BB212B2A11C00900193A2
:10293000029230460FFA8EF2039709B204F1080BA7
:102940000DF05EFA0FFA8BFBCDF80080002304F146
:102950000D0805F104090FFA88F80FFA89F95246B3
:1029600059463046019306350C230BF01FFD2DB25E
:1029700052465946434630460197CDF800901234EE
:102980000FF0F4FD24B2594643462A463046CDF8AE
:10299000009001970FF0EAFD52462346414630462B
:1029A000CDF8009001970FF0E1FDCDF8009023469F
:1029B0002A464146019730460FF0D8FD05B0BDE8E4
:1029C000F08F00BF30C7FF1F2DE9F04F8DB2364E9C
:1029D00005F1020985B00FFA89F94CF2186805274C
:1029E00084B28DE880018A464A4601B2042330460B
:1029F0000BF0DCFCA31D05F1080205F1030E0FFA34
:102A00008AF01BB212B2A11C0090CDF80C80019389
:102A1000029230460FFA8EF209B204F1080B0DF063
:102A2000EFF90FFA8BFB0097002304F10D0705F176
:102A300004083FB20FFA88F840F2FF7A4A46594636
:102A40003046019306350C230BF0B0FC2DB24A46FC
:102A500059463B463046CDF80080CDF804A01234EC
:102A60000FF084FD24B259463B462A463046CDF845
:102A70000080CDF804A00FF079FD4A462346394680
:102A80003046CDF80080CDF804A00FF06FFDCDF8F2
:102A9000008023462A463946CDF804A030460FF080
:102AA00065FD05B0BDE8F08F30C7FF1F2DE9F04F81
:102AB000504B1B7883B0002B48D1002A00F08F8048
:102AC000002A40DD8FB285B207F10A0B96B20FFAE9
:102AD00080FA0CB20FFA8BFB07F1030905F1050828
:102AE0000FFA88F822460FFA89F9534651464248B0
:102AF0000196CDF800B007370FF038FD3FB22246FF
:102B0000434651463C480196CDF800906C1F0FF0AB
:102B10002DFD24B25A465146434637480097019648
:102B20000FF024FD23463A4641463348CDF8009045
:102B300001960FF01BFD009723464A464146019639
:102B40002D480FF013FD03B0BDE8F08F002AB7D178
:102B50008EB206F10A0A0CB20FFA8AFA0FFA80F95D
:102B600040F2FF7885B26F1D06F1030B3FB20FFAFA
:102B70008BFB22464B464946CDF800A0CDF8048099
:102B80001D4807360FF0F2FC36B222463B46494656
:102B9000CDF80480CDF800B01748053D0FF0E6FCF5
:102BA0002DB2524649463B468DE8400112480FF08F
:102BB000DDFC2B4632463946CDF800B0CDF8048016
:102BC0000D480FF0D3FC00962B465A463946CDF8F7
:102BD000048009480FF0CAFC03B0BDE8F08F8EB244
:102BE00006F10A0A0CB20FFA8AFA0FFA80F947F6D0
:102BF000EF38B7E72C17FF1F30C7FF1F2DE9F04F45
:102C00003A4B85B21B7805F10A0785B00A4604B233
:102C10003FB20FFA81FA002B64D14FF4404692B2D2
:102C20003B4621460292CDF800A05246019630481C
:102C30000FF09CFC029B019603F10A080FFA88F83A
:102C40003B4642462146CDF8008029480FF08EFCD5
:102C50000299019601F105090FFA89F9EB1C05F1BA
:102C6000010B04351BB2524621460FFA8BFB2DB2E5
:102C7000CDF800901E4803930FF078FC2B46594680
:102C80005246CDF80090019619480FF06FFC039959
:102C9000CDF8008023464A46019615480FF066FCA1
:102CA0005B464A462946CDF80080019610480FF051
:102CB0005DFC029C0196A01C00B252463B46394680
:102CC00000900B480FF052FC04F108031BB28DE892
:102CD000480042463B46394605480FF047FC05B0E0
:102CE000BDE8F08F40F2FF7699E700BF6C5EFF1FF2
:102CF00030C7FF1F2DE9F0478DB282B0374E05F186
:102D0000040905F1110197B20FFA89F903B209B26A
:102D100084B24A4600913046194601970FF026FCCE
:102D2000631C05F110001BB200B219464A46009020
:102D3000019730460FF01AFC05F10E0804F1080364
:102D40000FFA88F81BB219464A46CDF80080304683
:102D500001970FF00BFC04F109031BB2CDF80080C2
:102D60004A461946304601970FF000FC04F102096B
:102D700004F1040A05F10D020FFA89F90FFA8AFA33
:102D800012B2494653460092304601970FF0EEFBCF
:102D900053464946CDF800804246304601970FF031
:102DA000E5FB04F1050805F10C0207340FFA88F879
:102DB00024B212B2234641460092304601970FF0EA
:102DC000D5FB05F10B0212B2234641468DE8840083
:102DD00030460FF0CBFB02B0BDE8F08730C7FF1FD5
:102DE00010B510F051FE092827DC324C303030236A
:102DF0006070237010F058FE092831DC3030302329
:102E0000E070A37010F010FE09283BDC3030302356
:102E10006071237110F018FE092845DD264BC2179A
:102E200083FB0013C2EBA30303EB8302A0EB42007E
:102E300030303033E071A37110BD1F4B1D4C83FB4C
:102E40000032C317C3EBA20303EB8302A0EB4200E3
:102E5000303030336070237010F026FE0928CDDD4D
:102E6000154BC21783FB0013C2EBA30303EB8302D2
:102E7000A0EB420030303033E070A37010F0D4FD8E
:102E80000928C3DD0C4BC21783FB0013C2EBA3035D
:102E900003EB8302A0EB42003030303360712371CA
:102EA00010F0D2FD0928B9DC30303023E071A37175
:102EB00010BD00BF0008FF1F676666662DE9F0437E
:102EC0002F4E002389B00746336008E03368684618
:102ED0000133336007F05AFB684607F04BFB684646
:102EE0000122394607F04EFD684607F05DFB0028D9
:102EF000ECD1384607F0A0FD684607F03BFB35688B
:102F0000B5F1FE6F39D94FF0FF3014F017FC1023E4
:102F100080E8280000F108096C1E4DB14D46284696
:102F2000013C002114F0CEFA631C05F11005F6D126
:102F30003368DFF85080002BC8F800901ADD0024B9
:102F400001223946684607F01DFDD8F80030684672
:102F500003EB041507F010FB0146284614F028FB8C
:102F6000684607F013FB684607F004FB336801343A
:102F7000A342E5DC09B0BDE8F08328010830C4E7CE
:102F80009066FF1F2017FF1F08B5C8224FF4DC71A1
:102F9000112014F0B3F9DC2012F052F9C8224FF4DA
:102FA000DC71112014F0AAF9DC2012F049F911208B
:102FB000C8224FF4DC7114F0A1F9DC20BDE8084010
:102FC00012F03EB970B594B00CA801234F4A504995
:102FD00007F048FC0CA807F0E7FA20B90CA807F0A6
:102FE000C9FA14B070BD68464A494B4E14F06AFAEB
:102FF0000CA807F02BFA90B10CA807F045FAC3B261
:10300000392B1946684606D80A2B13D014F012FB48
:10301000029B202BECD9FFF7B7FFFFF7AFF90CA805
:1030200007F0B4FA684614F00DFA0CA807F0A2FAFB
:1030300014B070BD2C21684614F03CFB05466C1C96
:1030400003464FF00002694604A8334CE3D014F065
:1030500041FB6A1C029B694608A814F03BFB04A8CC
:1030600014F05CFB054608A814F058FB294946F803
:103070002500684614F09CFA08A814F0E3F904A8A7
:1030800014F0E0F940F6FF739D42B1D1234B206864
:10309000186000221346226054F823100133B3F560
:1030A000805F0A44F8D140BB1D4B18601D4B1E4A7F
:1030B000186811681D4CFFF721F91D480023236093
:1030C0002646054650F823102268914284BF55F8E1
:1030D000232032600133B3F5007FF3D12368012B45
:1030E00001D9FFF737F8236863B94FF47A7012F00B
:1030F000A7F80CA807F04AFA91E7094BB2FBF0F2E7
:103100001A60D3E7FFF7CAF8EFE700BF0008FF1F18
:10311000F4090020AC9204001C87FF1F645CFF1FB1
:10312000F416FF1F385CFF1F2008FF1F405CFF1FC5
:103130008C5EFF1F30B595B00CA80123324A33498D
:1031400007F090FB0CA807F02FFA20B90CA807F0A5
:1031500011FA15B030BD68462D492E4D14F0B2F964
:103160000CA807F073F980B10CA807F08DF9C3B271
:10317000392B1946684606D80A2B11D014F05AFA92
:10318000029B202BECD9FFF7FFFE0CA807F0FEF9FD
:10319000684614F057F90CA807F0ECF915B030BDEB
:1031A0002C21684614F086FA0446B4F1FF3F03462A
:1031B0004FF00002694604A8E5D014F08BFA621CB7
:1031C000029B694608A814F085FA04A814F0A6FA30
:1031D000044608A814F0A2FA0D4945F824006846F0
:1031E00014F0E6F908A814F02DF904A814F02AF94F
:1031F00040F6FF739C42B3D14FF47A7012F020F87E
:103200000CA807F0C3F9C0E70C220400F409002061
:10321000AC920400E4C9FF1F08B564224FF45C714E
:10322000112014F06BF8652012F00AF8642240F2C5
:103230001741112014F062F8652012F001F81120F6
:10324000642240F2275114F059F86520BDE8084087
:1032500011F0F6BF08B5C82240F22751112014F032
:103260004DF8C92011F0ECFF1120DC2240F217418B
:1032700014F044F8DD20BDE8084011F0E1BF00BFC4
:1032800070B594B0FFF7ACFD394B3A4818603A4A34
:103290003A490CA8132307F0E5FA0CA807F084F9C3
:1032A00020B90CA807F066F914B070BD3449354E4A
:1032B00008A814F007F9344A3449354B12681B68E2
:1032C000096804A801FB02310A2214F041F904A99B
:1032D00008A814F0BFF901462E4814F061F904A8BB
:1032E00014F0B0F808A814F0ADF82A490CA813F0AF
:1032F000D5FD0CA813F0F8FD01240A2221466846EA
:1033000014F012F9694604A814F0F0F8224904A850
:1033100014F0A8F90A2256F82410054608A814F05B
:103320002BF908A9284614F095F90146194814F01C
:1033300037F908A814F086F804A814F083F8684652
:1033400014F080F813490CA813F0A8FD01340CA860
:1033500013F0CAFDB4F5805FCFD1FFF77BFF0CA857
:1033600007F014F90CA807F005F914B070BD00BF00
:10337000600A0020AD0400000008FF1FF4090020CF
:103380001C2204001C87FF1F3C5EFF1F8008FF1FDC
:10339000645CFF1F4C5CFF1F20220400F8B512483C
:1033A000124F00253D602C4629462B46064650F814
:1033B00023208A4203D956F82340012521460133B0
:1033C000B3F5805FF3D165B9094B994208D9094C2F
:1033D00001232370FFF754FFFEF7D0FF0023237073
:1033E000F8BD3C60F0E700BF1C87FF1F5C5CFF1F5F
:1033F000809698002517FF1F70B52B492B4894B075
:1034000007F0A4FA002849D1294B2A481860264A17
:1034100026490CA8132307F025FA0CA807F0C4F8D6
:10342000002836D0244E00240A222146684614F093
:103430007BF8694604A814F059F8204904A814F050
:1034400011F90A2256F82410054608A814F094F839
:1034500008A9284614F0FEF80146194814F0A0F80F
:1034600008A813F0EFFF04A813F0ECFF684613F070
:10347000E9FF13490CA813F011FD01340CA813F057
:1034800033FDB4F5805FCFD1FFF7E4FE0CA807F061
:103490007DF80CA807F06EF814B070BD024903481F
:1034A00007F062FAB0E700BF0C220400F409002024
:1034B000600A0020AD0400001C87FF1F20220400CA
:1034C0004C5CFF1F38B5352444F6B025012111208E
:1034D00011F09CFE2B46013BFDD10021112011F083
:1034E00095FE2B46013BFDD1013CEFD1412443F633
:1034F00038350121112011F089FE2B46013BFDD109
:103500000021112011F082FE2B46013BFDD1013C30
:10351000EFD1352444F6B0250121112011F076FEBB
:103520002B46013BFDD10021112011F06FFE2B46EF
:10353000013BFDD1013CEFD138BD00BF2DE9F04F7B
:103540002DED028B0A2083B0D84F11F079FE0024B4
:103550003D46204611F00AF80134042C05F8010B11
:10356000F7D1D34D204611F001F80134082C05F8AD
:10357000010BF7D1DFF894934D46204610F0F6FF8B
:1035800001340C2C05F8010BF7D1CA4D2E4620460C
:1035900010F0ECFF0134102C06F8010BF7D1C64EE9
:1035A000B246204610F0E2FF0134142C0AF8010B59
:1035B000F7D1DFF85CA3D346204610F0D7FF0134E3
:1035C000182C0BF8010BF7D1DFF848B32424D846A8
:1035D000204610F0CBFF0134282C08F8010BF7D15E
:1035E0009BED008ADFEDB57AB4EEE78AF1EE10FAD2
:1035F00000F33581DFEDB27AB4EEE78AF1EE10FA2E
:1036000000F12D81DFF810B32924D846204610F0B0
:10361000ADFF01342D2C08F8010BF7D1DBED007A5A
:103620009FEDA87AF4EEC77AF1EE10FA00F310815C
:103630009FEDA37AF4EEC77AF1EE10FA00F108815B
:10364000B0EE007AF0EE086AB0EE676AA8EE076A9C
:103650009D4B9E4AE8EE267A282082ED006AC3ED53
:10366000007A10F083FF9A4B002840F0FF8018701A
:10367000192010F07BFF0828964C00F30081206091
:10368000002800F009811F2010F070FF642300FB68
:103690000330914A44F620639842106000F2A481FE
:1036A000DFF878B21A24204610F060FF01341E2C97
:1036B0000BF8010BF7D1DFF868B22024204610F098
:1036C00055FF0134242C0BF8010BF7D1182010F012
:1036D0004DFF022800F27C81804B1870D5ED007AF6
:1036E000002840F023819FED7E7A77EEC77AFDEEC9
:1036F000E77A17EE903A63B9D6ED007A9FED797AC2
:1037000077EEC77AFDEEE77A17EE903A002B00F0DD
:10371000768102AC4FF0844344F8043D04220C212E
:10372000204610F065FF0A2011F08AFD6E4B0193D0
:1037300004221021204610F05BFF0A2011F080FDCA
:103740006A4B019320460422142110F051FF0A20F5
:1037500011F076FDFFF718FC4FF08443624A2B60AE
:10376000624B3260CAF80030D7ED007AF5EEC07ACD
:10377000F1EE10FA06D99FED5E7AF4EEC77AF1EE1B
:1037800010FA0BDD02A85B4B40F8043D0422002137
:103790003B6010F02DFF0A2011F052FD444BD3ED99
:1037A000007AF5EEC07AF1EE10FA06D99FED507A64
:1037B000F4EEC77AF1EE10FA0CDD02A84E4B3C4C49
:1037C00040F8043D04221146236010F011FF0A2046
:1037D00011F036FDD9ED007AF5EEC07AF1EE10FA6F
:1037E00006D99FED437AF4EEC77AF1EE10FA0CDDBC
:1037F00002A8424B40F8043D04220821C9F80030D9
:1038000010F0F6FE0A2011F01BFD2D2010F0AEFE88
:1038100005462E2010F0AAFE394E00EB05252F207C
:10382000356010F0A3FE0446302010F09FFE354BAB
:1038300000EB04208542186040F3BA800A2140F66C
:10384000F67231601A6003B0BDEC028BBDE8F08FF8
:103850009FED2D7AF0EE477A8BED007AF0E6F2EEEE
:10386000047AB0EE678ACBED007ACBE6012219200C
:103870001A7010F07BFE0828164C7FF700AF082363
:1038800019461920236010F08BFE0A2011F0D8FC95
:10389000206800287FF4F7AE012319461920236021
:1038A00010F07EFE0A2011F0CBFCECE61C5EFF1F40
:1038B000205EFF1F2C5CFF1F305CFF1F0000C84212
:1038C000CDCCCC3D00009643285CFF1FE866FF1F6F
:1038D0006C5EFF1F2008FF1F8008FF1F8C66FF1F04
:1038E0000000004200802544008025440080B6444A
:1038F00000F07F450000D04200007A440080064579
:103900001008FF1F6408FF1F00001643245EFF1FFE
:10391000345CFF1F7C08FF1F1408FF1F5008FF1FA7
:103920005808FF1F00003A4300401844012874D093
:103930001FED047A77EEC77AFDEEE77A17EE903A3C
:1039400063B9D6ED007A1FED087A77EEC77AFDEEFF
:10395000E77A17EE903A002B00F0A88002AC5A4BA1
:1039600044F8043D04220C21204610F041FE0A20B8
:1039700011F066FC554B019304221021204610F0F3
:1039800037FE0A2011F05CFC514B019320460422C3
:10399000142110F02DFE0A2011F052FCFFF7F4FA6A
:1039A000494B4A4A2B604A4B3260CAF80030DBE68A
:1039B000092DDCBF0A223260B0F5805FFFF643AF0D
:1039C00040F6F6721A6003B0BDEC028BBDE8F08FD2
:1039D0000023404C19461820237010F0E1FD0A2006
:1039E00011F02EFC207879E64FF4616324211F202A
:1039F000136010F0D5FD0A2011F022FC50E6DAED3C
:103A0000007A9FED357A77EEC77AFDEEE77A17EE0A
:103A1000903A002B3FF4A0AE7BE69FED307A77EE34
:103A2000C77AFDEEE77A17EE903AABB9D6ED007A99
:103A30009FED2B7A77EEC77AFDEEE77A17EE903A94
:103A400053B9DAED007A9FED277A77EEC77AFDEE6B
:103A5000E77A17EE903A0BB302AC234B44F8043DDF
:103A600004220C21204610F0C3FD0A2011F0E8FBCF
:103A70001E4B019304221021204610F0B9FD0A20AC
:103A800011F0DEFB1A4B019320460422142110F0A2
:103A9000AFFD0A2011F0D4FBFFF776FA124B134A60
:103AA0002B60134B3260CAF800305DE6DAED007A25
:103AB0009FED107A77EEC77AFDEEE77A17EE903A2F
:103AC000002B3FF46DAF49E700003A430040184433
:103AD0000000DC448C66FF1F0080B6440000F44206
:103AE0000000AC430000B0440000F4420000AC43CE
:103AF0000000B0440000DC44174A184B92ED007AF5
:103B0000D3ED007A16491748B8EE477AF8EE677A8F
:103B10000022C7EE276AF1EE666A51F8223007EEFE
:103B2000903A50F8223007EE103AF8EE677AB8EE85
:103B3000477AE6EE877AF5EEC07AF1EE10FA56BFD4
:103B4000FCEEE77A002317EE903A41F8223001327A
:103B5000B2F5805FE1D17047645CFF1F8008FF1FF2
:103B60001C87FF1FE4C9FF1F40F63C739842F0B565
:103B700040DC63285FDC3249324A002351F82300DD
:103B800042F823000133C92BF8D12F4E00214C1CE1
:103B900052F8210052F824C02A4D8B1C01F1030E6B
:103BA0000F1D52F82EE052F8233052F8277000EB28
:103BB000800000EB8C00384400EB4E0003EB430325
:103BC0000344A6FB0303DB08C52C42F82130214641
:103BD000DDD1D5F81033C5F81433D5F81033C5F856
:103BE0001833D5F81033C5F81C33D5F81033C5F8A1
:103BF0002033F0BD184640F63D7440F6D8661049B3
:103C0000104A00239D190E4F51F8255042F82350B9
:103C10000133642B0B4DF5D157F82030C5F89031A6
:103C2000652351F8240042F823000133C92B04F125
:103C30000104F6D1A9E7A0F16406441CDFE700BF48
:103C40001C87FF1F4817FF1F898888886328F0B5E5
:103C50002FDC00F10A01A0F10A032D4C54F8235087
:103C600054F8212000262A448B424FEA520E314656
:103C70000CDC00F10B05274654F823208A4284BF50
:103C800057F823101E460133AB42F5D186423BD193
:103C9000BEFBF1F207EE902A9FED1E7AF8EEE77A6E
:103CA000F4EEC77AF1EE10FA2ED51B4B01201E6000
:103CB000F0BDA0F16403164C643054F8231054F89E
:103CC000202000230A44560820461D46194654F871
:103CD00023208A4284BF50F823101D460133C92B8C
:103CE000F5D1642D10D1B6FBF1F207EE902A9FEDCD
:103CF000097AF8EEE77AF4EEC77AF1EE10FA03D516
:103D0000054B01201D60F0BD4FF0FF30F0BD00BF3E
:103D10004817FF1F6666663F3008FF1F2DE9F04F0A
:103D20002DED028B83B015F063FF41EC100B13F007
:103D3000B7FF51EC100B16F071FA734B734D1E6800
:103D40003128A8BF31200023642E19BF06F1FF3BA4
:103D5000741C65244FF0630B1A4655F82310013389
:103D6000C82B0A44F9D1B2F5FA7FC0F0AB804FEA14
:103D7000400ACAEB0B0B5E4540F3AE8000FB0AF035
:103D800007EE900AB8EEE78A0027C6EB0B0307EEB2
:103D9000903AF8EEE77A67EEA77A87EE887AF1EE46
:103DA000477A17EE900A15F035FF41EC100B13F02F
:103DB0006BFE53EC102B55F82B00CDE9002315F0CA
:103DC00007FFDDE9002315F079FF80463846894674
:103DD00015F020FF02460B464046494615F0BCFD53
:103DE00016F064FA0BF1010B5E450746CDD104EBEA
:103DF0000A0B5C457CDA4FF0000AA31B07EE903AF1
:103E0000F8EEE77A67EEA77A87EE887AF1EE477ADE
:103E100017EE900A15F0FEFE41EC100B13F034FE85
:103E200053EC102B55F82400CDE9002315F0D0FEFB
:103E3000DDE9002315F042FF80465046894615F023
:103E4000E9FE02460B464046494615F085FD16F050
:103E50002DFA01345C458246CFDB07EE10AA07EE4F
:103E6000907A77EEC77AF5EEC07AF1EE10FAD8BF05
:103E7000F1EE677A17EE900A15F0CCFE044638464C
:103E80000D4615F0C7FE02460B462046294616F0A1
:103E90003FF800221E4B16F083F998B1504615F0FA
:103EA000B9FE02460B462046294616F031F800229C
:103EB000174B16F075F928B1012003B0BDEC028B49
:103EC000BDE8F08F134B00224FF0FF301A6003B0B3
:103ED000BDEC028BBDE8F08F04EB0A0B5C450ADAFF
:103EE00000FB0AF007EE900A0027B8EEE78A82E7A7
:103EF0004FF0000AB1E70022002300244FF00045F4
:103F00004FF0000AC1E700BF3008FF1F4817FF1F2E
:103F10000000D03F485CFF1F002A2DE9F043C0EBB2
:103F2000010898FBF2F854DDDFF8B8E09FED2B7A3A
:103F30002B4F4FF0000C08F1FF39B8F1000F4ADDAC
:103F4000814248DB034609EB0006002401E0994268
:103F500006DB57F823509E422C4403F10103F6D1AF
:103F600007EE904AF8EE677A77EE877A40440EEBD8
:103F70008C038142C3ED007A07DB0CF1010C624532
:103F8000DBD19FED167A002302E09FED147A002327
:103F90000EEB8301D1ED007AF4EEC77AF1EE10FA60
:103FA00003F10103C8BF91ED007A9A42F0D107EE08
:103FB000902AB8EEE76A00230EEB8301D1ED007A78
:103FC00066EE277A0133C7EE876A9A42C1ED006A2E
:103FD000F2DCBDE8F083DFED017AC7E70000000006
:103FE0001C87FF1FC45CFF1FF0B502282DED028B5C
:103FF00000F0FA80032800F08D80012807D0BDEC86
:10400000028BD34B00224FF0FF301A70F0BD002915
:1040100040F38481DFEDCF4ADFF888C3DFF888E31F
:10402000CD4FCE4ECE4DCF4CDFEDCF8A9FEDCF8A18
:10403000CF48B0EE640AF0EE640AB0EE641AF0EE17
:10404000642AF0EE641AB0EE642AB0EE643AF0EE40
:10405000643AB0EE644A00220BE0BCEC011AFEECBC
:10406000010AB7EC010AF6EC014AB5EC018AF4EC5E
:10407000018A00EB820393ED005AD3ED005A93EDD1
:10408000006AD3ED006A93ED007AD3ED007A35EE45
:10409000415A75EEE05A36EE406A76EEE46A37EE43
:1040A000487A77EEE87A01329142A5EE054AE5EECC
:1040B000A53AA6EE063AA6EEA62AE7EE071AE7EE1E
:1040C000A72ACAD1AB4BD3ED007AF4EEC47AF1EE55
:1040D00010FA19DAF4EEE37AF1EE10FA14DAF4EEEB
:1040E000C37AF1EE10FA0FDAF4EEC27AF1EE10FABA
:1040F0000ADAF4EEE17AF1EE10FA05DAF4EEE27A99
:10410000F1EE10FAFFF67BAFBDEC028B904B012075
:104110001870F0BD002940F30E81DFED8E4ADFF804
:104120008CC2DFF88CE2944F944E954D954CDFEDA8
:10413000968A8F48B0EE648AB0EE640AF0EE640AA4
:10414000B0EE641AF0EE643AB0EE642AF0EE641A4F
:10415000F0EE642AB0EE643AB0EE644A00220BE05E
:10416000BCEC011AFEEC010AB7EC010AB6EC018ABC
:10417000F5EC014AF4EC018A00EB820393ED005A5E
:10418000D3ED005A93ED006AD3ED006A93ED007A07
:10419000D3ED007A35EE415A75EEE05A36EE406ABC
:1041A00076EEC86A37EE647A77EEE87A01329142A9
:1041B000A5EE054AA5EEA53AE6EE062AE6EEA61A13
:1041C000A7EE072AE7EEA73ACAD1704BD3ED007AE3
:1041D000F4EEC47AF1EE10FA77DBBDEC028B5C4BA7
:1041E000012203201A70F0BD002940F38C809FED5E
:1041F000595ADFF8C0E1664F664E674D674C5C4820
:10420000F0EE450AB0EE451AF0EE451AB0EE452A3A
:10421000F0EE453AF0EE452AB0EE453AB0EE454AAA
:10422000F0EE454A002209E0BEEC012AF7EC011A43
:10423000B6EC011AF5EC010AB4EC015A00EB82036A
:10424000D3ED005A93ED006AD3ED006A93ED007A46
:10425000D3ED007A75EEC25A36EE616A76EEC16A27
:1042600037EE607A77EEC57A01329142E5EEA54AE3
:10427000A6EE064AA6EEA63AE7EE072AE7EEA73A2A
:10428000D2D1474BD3ED007AF4EEE47AF1EE10FA96
:1042900006DBBDEC028B2E4B012202201A70F0BD12
:1042A000F4EEC47AF1EE10FAF3DAF4EEC37AF1EE3A
:1042B00010FAEEDAF4EEE27AF1EE10FAE9DAF4EE60
:1042C000E37AF1EE10FAE4DA99E6F4EEC37AF1EE6D
:1042D00010FA82DAF4EEE27AF1EE10FABFF67DAF70
:1042E000F4EEE17AF1EE10FABFF677AFF4EEC27AAF
:1042F000F1EE10FABFF671AFF4EEE37AF1EE10FAD8
:10430000BFF66BAF7BE6DFED133AF0EE632AB0EE5B
:10431000633AB0EE634AF0EE634AB2E7DFED0D2A8E
:10432000F0EE621AB0EE622AB0EE623AF0EE623A55
:10433000B0EE624AC6E6DFED073AB0EE632AF0EE71
:10434000631AF0EE632AB0EE633AB0EE634A3CE7DC
:10435000F886FF1F00000000DC2704007402020042
:1043600080EF0100B8EE01008FE3A93CAD42B63CFE
:10437000C45CFF1F6008FF1FA428040098EB010025
:1043800060EC0100AC0102005AA8A13B7808FF1FB5
:104390001C000200A42004005478040028ED010051
:1043A0002C08FF1FE47904008C770400E40002006D
:1043B000F0ED01001C79040030B54C4B83B0196856
:1043C00032220020FFF7A8FD32210120FFF70CFE6A
:1043D000012813D032210320FFF706FE032835D031
:1043E000434B322219680020FFF796FD322102204C
:1043F000FFF7FAFD022851D003B030BD2D243D4B0C
:104400000193009423460F224FF4B9713A480AF001
:1044100025FD00250A2223468DE824004FF4B971BA
:104420003C22354809F0C2FF2B463D2240F277116D
:1044300031480DF0E7FB4FF6FF712F480DF04EFCB1
:104440002E492D48FDF7F4F903B030BD2D24294B3A
:104450000193009423460F224FF4B97126480AF0C5
:10446000FDFC00250A2223468DE824004FF4B97193
:104470003C22214809F09AFF2B463D2240F2771159
:104480001D480DF0BFFB4FF6FF711B480DF026FCD9
:104490001B491948FDF7CCF903B030BD2D24154B4D
:1044A0000193009423460F224FF4B97112480AF089
:1044B000D5FC00250A2223468DE824004FF4B9716B
:1044C0003C220D4809F072FF2B463D2240F2771145
:1044D00009480DF097FB4FF6FF7107480DF0FEFB02
:1044E00008490548FDF7A4F903B030BD505EFF1F31
:1044F000545EFF1F44F0010030C7FF1F2422040058
:104500002C2204003422040070B586B001A90122D7
:1045100038480FF0F9FB002848D09DF80430222BD2
:1045200005D0282B03D0102B5FD006B070BD00261D
:1045300030480FF027FB01A92E480FF0C5FB0122E0
:1045400044212C480FF090FB4FF47A7010F078FE65
:1045500028480FF017FB01A926480FF0B5FB0022F1
:10456000BE2124480FF080FB0DF10B0405AD21485E
:104570000FF09AFB04F8010FAC42F8D19DF80D2022
:104580009DF80C3043EA02231BB2BEB19DF8132004
:10459000102A4FEAC30320D01BB207EE903A164A06
:1045A000FAEECE7AC2ED007A06B070BD11480FF077
:1045B0009DFBFA2010F044FE06B070BD9DF810205F
:1045C00012F0600206D0202A11D0402A08BF23F042
:1045D0000103E2E723F00703DFE79DF8122023F051
:1045E0000F03C2F10C021344D6E70126A0E723F023
:1045F0000303D2E7FC86FF1FD41BFF1F10B50D4C31
:10460000217861B9242010F001FE012010F018FE7D
:104610000121242010F0FAFD0123237010BD002198
:10462000242010F0F3FD0A2010F00AFE002323706E
:1046300010BD00BF2C17FF1F012814DD38B505463B
:1046400001240121152010F0E1FD642010F0F8FD97
:104650000021152010F0DAFD0134642010F0F0FD87
:10466000A542EED138BD704710B50121152010F0DC
:10467000CDFD0F4C0F4B0A2219682046002312F083
:1046800059FC05210C4811F05FF80C4B186815F027
:10469000C1FA41EC100B2046022112F095FC0848AB
:1046A000052111F051F82046BDE8104012F01CBC65
:1046B000440CFF1FF416FF1F3C220400DCC9FF1F3F
:1046C00044220400184A1949194B92ED006AD1EDB1
:1046D000005AD3ED006A192040F6E77202E001307B
:1046E00090421ED007EE900A00FB00F3F8EEE77A46
:1046F00007EE103A67EE867AB8EEC77AE7EE257ACB
:1047000077EEA67A70EE677AF5EEC07AF1EE10FADF
:10471000D8BFF1EE677AF4EEE07AF1EE10FADED867
:1047200070474FF0FF3070474808FF1FA05CFF1F25
:10473000E0C9FF1F394B93ED004A2DE9F041B0EE7F
:10474000440AF0EE000AFFF7BDFF354B354ED3EDBE
:10475000004A3060B0EE640AF0EE000A0446FFF74B
:10476000B1FF314B314D93ED005A2860F0EE000A55
:10477000B0EE450A0746FFF7A5FFDFF8C480013415
:10478000C8F800001AD0013718D0013016D0F1EE69
:10479000040A9FED270A274DFFF794FFF1EE040A64
:1047A0009FED250A28600446FFF78CFF234B013458
:1047B000186029D0013027D0BDE8F081B0EE440A5E
:1047C000F1EE040AFFF77EFFF1EE040AB0EE640A90
:1047D00004463060FFF776FFF1EE040AB0EE450ABA
:1047E00007462860FFF76EFF0134C8F8000003D0C9
:1047F000013701D00130CAD17A2240F234533260FD
:104800002B60FEF7C1FBC2E740F2A4614FF4AF7228
:104810002960BDE8F0411A60FEF7B6BB1808FF1F1B
:104820001C08FF1FB85CFF1F6C08FF1FFC1BFF1F4D
:1048300000003E44505EFF1F00001043545EFF1F07
:10484000001CFF1F484A494B11681A689FED487ABF
:1048500010B4484C914284ED007A12DA4648B1EE29
:10486000046A30F811309BB207EE903AF8EEE77A1E
:104870000131C7EE866A914237EE267AF1D184ED96
:10488000007A3E4B1B68934227DDD4ED006A3A481C
:10489000DFED3B4A9FED3B5AB7EE006A07EE902AE8
:1048A000F8EEE77AB0EE457AA7EEA47A30F8121067
:1048B00089B207EE901AB4EE467AF1EE10FAF8EEED
:1048C000E77A48BFB0EE467AC7EE875A01329A427D
:1048D00076EEA56AE2D1C4ED006A2B4A11689942CE
:1048E00029DDD4ED006A24489FED285ADFED285ACF
:1048F0009FED286AF7EE004A07EE903AF8EEE77A65
:10490000B0EE654AA7EE854A30F81320B0EE007A83
:10491000B4EEC64AF1EE10FA88BF84EE847A92B201
:1049200001338B4207EE902AF8EEE77AE7EE876ACA
:10493000E2D1C4ED006A184B1A68914211DA94ED85
:10494000007A0D4830F811309BB25B0007EE903AC8
:104950000131F8EEE77A914237EE277AF2D184ED11
:10496000007A5DF8044B70471008FF1FB85CFF1F0A
:1049700000000000945CFF1FF466FF1FFC1BFF1F7C
:10498000B37BF2BBCDCCBC40001CFF1FA69B44BA3E
:10499000508DBF3F1100003F6408FF1F2DE9F04F0D
:1049A0002DED0A8B01288BB0894640F35F81B44B13
:1049B0009842824640F35F81DFEDB29A9A46B24C4C
:1049C000D4ED007AF4EE697AF1EE10FA00F0498144
:1049D000AAF51C53113BAAF5C3320893A2F1A10317
:1049E0000993AAF10B030593AAF1650306936FF4EB
:1049F0007A735344A54EA64D9FEDA69A9FEDA68AC5
:104A0000DFEDA68A079313E194ED007AF7EE007AC2
:104A100037EE677AF3EE097A27EE277AF2EE026A2A
:104A2000C7EE267A77EEC97A059B592B0DD894EDFF
:104A3000007AF2EE067A37EE677AF3EE087A27EE1E
:104A4000277AC7EE087A77EEE87A069BB3F5617F9E
:104A500011D29FED937AD4ED006A9FED926ADFED5B
:104A6000927A76EEC76AB3EE087A66EE876A86EEC9
:104A7000867A77EE677A079A42F227339A420FD8FE
:104A8000DFED8A7A94ED007ADFED896A37EE677A96
:104A9000F3EE087A27EE277AC7EE267A77EEC87A01
:104AA000844B089A9A4211D89FED837AD4ED006A1C
:104AB0009FED826ADFED827A76EEC76AB3EE087AFE
:104AC00066EE876A86EE867A77EE677A099A4CF206
:104AD0004F339A4211D89FED7B7AD4ED006A9FED57
:104AE0007A6ADFED7A7A76EEC76AB3EE087A66EE16
:104AF000876A86EE867A77EE677A9FED757A9FED04
:104B000075AA67EE877A002717EE900A15F082F8EB
:104B100041EC100B41EC1C0B12F0F6FEB0EE40BA6B
:104B2000F0EE60BAB0EE4C0AF0EE6C0A12F04CFFF8
:104B3000B5F90020B6F900300092ED214FF48272F1
:104B4000654801978DED020B0DF010FDB5F90020C1
:104B5000B6F9003060488DE88400F3214FF482728A
:104B60000DF004FD51EC1B0B15F0A0FBDFED5B7AA3
:104B700007EE100AE7EE0A7A40F2FF789DED020B8D
:104B8000FCEEE77A51EC100BCDED027ABDF808B0DF
:104B9000A6F800B015F08AFBDFED517ACDF804805D
:104BA00007EE100AE7EE0A7A0FFA8BF34FF48272DF
:104BB000ED21FCEEE77A4848CDED027ABDF808E039
:104BC000A5F800E00FFA8EFCCDF800C00DF0CEFC89
:104BD000B5F90020B6F900303F488DE80401F32113
:104BE0004FF482720DF0C2FC05234FF48272F02163
:104BF0003948CDF800800AF0EDFD40F2EF33009324
:104C00004FF482720423F02133480BF013F83B4633
:104C10004FF48272F021304809F000F8484610F055
:104C20000FFBD4ED007AF4EE697AF1EE10FA18D0A9
:104C3000F4EEE97AF1EE10FAB7EE007A4CBF77EEB7
:104C4000877A77EEC77AC4ED007AB9F1000F01D107
:104C5000C4ED009ABAF10A0F7FF7D6AEDFED217AE4
:104C6000E2E60BB0BDEC0A8BBDE8F08FF0EE009AE7
:104C70004FF0020AA3E607EE900AF8EEE79A9EE6E6
:104C8000F0490200007C12483C08FF1F5608FF1F35
:104C90005408FF1F000025430000B24200000B43F0
:104CA0000000CA4200C060440000E44200407A4470
:104CB000009C0C468F5F010000441C4680C7AF4734
:104CC000000080428050C347004F434700001C4211
:104CD00035FA8E3C00000C4330C7FF1F00007043C4
:104CE000000082430000000070B501210E2010F08A
:104CF0008DFA0C4E0C4A0D4C0D4900200025106019
:104D0000034630600246256021F813200133B42B9E
:104D1000FAD10322074910200FF07AFF064B012237
:104D20001A7070BDFC16FF1F3017FF1FE40900202A
:104D30006C1AFF1F99040000F986FF1F08B51020A8
:104D40000FF0E2FF0A4A0B48002313701A4620F8BE
:104D500013200133B42B4FF00001F8D10648074B64
:104D6000016000221A600E20BDE8084010F04EBA23
:104D7000F986FF1F6C1AFF1F3017FF1FE409002080
:104D8000154B164816499FED177A10B41C68026837
:104D900092B221F814201A6801321A601A68B32AF4
:104DA00084BF00221A60002231F812309BB207EE55
:104DB000903A0132F8EEE77AB42A37EE277AF3D147
:104DC000DFED096A094A5DF8044BC7EE267A002335
:104DD000C2ED007A03607047FC16FF1F3017FF1FFB
:104DE0006C1AFF1F0000000000003443E40900209B
:104DF00038B511F0DDFC002804DD11F09DFCC0B2D7
:104E0000472800D038BD0F4D00242C6021460E48A5
:104E100012F0D0F801210D4811F0F4FC55F82410DF
:104E2000094800230A2212F085F8074812F05CF8BE
:104E30004FF4C873013BFDD10134B4F5805FE5D177
:104E400038BD00BF1C87FF1F6C0CFF1F2022040011
:104E5000F0B585B00FF042FB0221012010F0EAF915
:104E60000221002010F0E6F9524B534C99681A6861
:104E7000524B012001F5007702F5007600252760EE
:104E80006660E56020726072013BFDD191F80032EE
:104E900092F800224849D20703EA000344BF43F0D6
:104EA0000203DBB20120A372FCF70EFE424920741C
:104EB0000020FCF709FE237C0521034440482374AD
:104EC0000EF044FE12200B210D220C238DE80F0062
:104ED000172313223B493C4808F05CFC3B493C4803
:104EE00012F0F0FA3B4A3C49394814F029FD3B499D
:104EF0003B4812F0E7FA374A3749394814F020FDA9
:104F00003849394812F0DEFA324A3349364814F04B
:104F100017FD3649364812F0D5FA2E4A2E49344844
:104F200014F00EFD3349344812F0CCFA294A2A49CC
:104F3000314814F005FD3149314812F0C3FA254AD1
:104F400025492F4814F0FCFC2E492F4812F0BAFADC
:104F5000204A21492C4814F0F3FC2C492C4812F02B
:104F6000B1FA1C4A1C492A4814F0EAFC29492A488B
:104F700012F0A8FA174A1849274814F0E1FC00215A
:104F8000264812F09FFA134A1349244814F0D8FC1B
:104F9000234805F0E1FA0F4A2249214814F0D0FCD9
:104FA0008C2012F0C9FB044607F022FC1E4B1C604B
:104FB00005B0F0BD28990400E81BFF1F80380100F0
:104FC000FC86FF1F9008FF1F30C7FF1F342204001C
:104FD0003817FF1FD407FF1F457401002422040067
:104FE0000C5EFF1F4C2204002C5EFF1F54220400A5
:104FF000405EFF1F5C220400D81BFF1F2C22040010
:10500000585EFF1F64220400745EFF1F6C220400C0
:10501000745CFF1F74220400845CFF1F4C5CFF1F44
:105020000017FF1F75A50000E80900202DE9F041D9
:10503000C54CC64EE38BB4F9202086B005270092FC
:105040004CF218680022743B11461BB22046CDF882
:10505000088001970AF010FEE18BB4F9203000932C
:105060007339712309B220460022CDF808800197D8
:105070000AF002FE0222114620460CF021FEE38BCC
:1050800001974FF6FF721E210292783B02221BB25B
:105090000091204611460AF0EFFD3368002B40F0E6
:1050A000CE83E38BAA4DCDF808801C2103227A3BE6
:1050B00000912046114601971BB20AF05FFE298835
:1050C00020460CF00BFEA04F0A2211460023384662
:1050D0000CF098FD9F493846FCF7AAFBE38B4FF68E
:1050E000FF711E22783B4FF005081BB202918DE83C
:1050F00004013846222202210AF0BEFD3368012B4A
:1051000000F0EF84944AFB8B1268CDF80480D24300
:1051100092B21C217A3B02920091384603211BB2C5
:1051200023220AF02BFE2968C943384689B20CF0C5
:10513000D5FD854F00232A2238460A210CF062FD56
:1051400086493846FCF774FBE38B4FF6FF711E224D
:10515000783B4FF005081BB202918DE804013846F8
:10516000422202210AF088FD3368022B00F0A48459
:10517000794AFB8B1268CDF80480D24392B21C218D
:105180007A3B02920091384603211BB243220AF077
:10519000F5FD2968C943384689B20CF09FFD6A4F76
:1051A00000234A2238460A210CF02CFD6C4938466F
:1051B000FCF73EFBE38B4FF6FF711E22783B4FF06E
:1051C000050802918DE8040102211BB238466222D3
:1051D0000AF052FD3168032900F05A845E4AFB8BC5
:1051E0001268CDF80480D24392B21C217A3B02921D
:1051F0000091384603211BB263220AF0BFFD2968E3
:10520000C943384689B20CF069FD4F4F00236A222A
:1052100038460A210CF0F6FC52493846FCF708FBE8
:10522000E38B4FF6FF711E22783B4FF005081BB24F
:1052300002918DE804013846822202210AF01CFD09
:105240003368042B00F00F84434AFB8B1268CDF8BF
:105250000480D24392B21C217A3B029200913846DC
:1052600003211BB283220AF089FD2968C94338460D
:1052700089B20CF033FD344F00238A2238460A21CC
:105280000CF0C0FC38493846FCF7D2FAE38B4FF6F5
:10529000FF714FF005081E22783B02918DE8040152
:1052A0001BB2A222384602210AF0E6FC32684245CF
:1052B00000F0C683284AFB8B1268CDF80480D243E5
:1052C00092B21C217A3B02920091384603211BB214
:1052D000A3220AF053FD2968C943384689B20CF06D
:1052E000FDFC194F0023AA2238460A210CF08AFC43
:1052F0001E493846FCF79CFAE38B4FF6FF711E22DD
:10530000783B4FF005081BB202918DE80401384646
:10531000C22202210AF0B0FC3368062B00F07C8325
:105320000D4AFB8B1268CDF80480D24392B21C2147
:105330007A3B02920091384603211BB2C3220AF045
:105340001DFD2968C94313E030C7FF1F845EFF1F9E
:10535000605CFF1F7C2204007408FF1F842204008D
:105360008C2204009C220400AC220400B822040019
:10537000384689B20CF0B2FCC84F0023CA22384626
:105380000A210CF03FFCC6493846FCF751FAE38B82
:105390004FF6FF711E22783B4FF005081BB20291B9
:1053A0008DE804013846E22202210AF065FC3368E8
:1053B000072B00F00A83BB4AFB8B1268CDF80480F0
:1053C000D24392B21C217A3B0292009138460321CB
:1053D0001BB2E3220AF0D2FC2968C943384689B2DD
:1053E0000CF07CFCAD4F0023EA2238460A210CF079
:1053F00009FCAD493846FCF71BFAE38B4FF6FF7109
:105400001E22783B4FF005081BB202918DE8040183
:1054100038464FF4817202210AF02EFC3368082BC3
:1054200000F0BE829F4AFB8B1268CDF80480D24305
:1054300092B21C217A3B02920091384603211BB2A2
:1054400040F203120AF09AFC2968C943384689B22F
:105450000CF044FC914F00234FF4857238460A212A
:105460000CF0D0FB91493846FCF7E2F9E38B4FF69C
:10547000FF711C22783B05241BB202918DE81400B9
:1054800038464FF4917202210AF0F6FB3368092B7B
:1054900000F07282834AFB8B12680194D24392B26D
:1054A0001A217A3B02920091384603211BB240F246
:1054B00023120AF063FC2968C943384689B20CF00C
:1054C0000DFC00234FF495720A2174480CF09AFBEE
:1054D000052416274CF2186875497048FCF7A8F99E
:1054E0005E23062240F277116C48CDF808800194C3
:1054F00000970AF043FC4FF6FF7168480CF0EEFB92
:105500006C4B04AA93ED000A012120460FF072F9BA
:1055100000230A2240F2791160480CF073FB04A9C1
:105520005E48FCF785F964495C48FCF781F93B4625
:10553000222240F277115948CDF808800194009753
:105540000AF01CFC40F2FF7227214FF4C070FDF7F7
:10555000ADFA33680A2B00F0088229684F48C94326
:1055600089B20CF0BBFB0022182301940292009335
:1055700022222E234FF4CA7148480AF07DFB4F4B7C
:105580001C78002C00F0AC811621052240F22E235D
:105590008DE80E0041482C23232240F295110AF099
:1055A000EDFB4FF4D0713D48002327220CF02AFB7D
:1055B00043493A48FCF73CF916234CF2186205249B
:1055C0008DE81800029240F277113E2233480AF02B
:1055D000D5FB432140F27D10FDF710FB33680B2B08
:1055E00000F0BC8129682D48C94389B20CF076FBD4
:1055F000002218230194029200933E222E234FF49E
:10560000CA7126480AF038FB2E4B1C78002C40F05B
:105610004E811621052240F22E238DE80E001F48F0
:105620002C233F2240F295110AF0A8FB4FF4D071D1
:105630001A48234643220CF0E5FA21491748FCF7A3
:10564000F7F8214B01936423009373224FF4BA714E
:1056500012481E4C09F002FC012211460F480CF0C2
:105660002FFB4FF6FF710D480CF038FB0023D522BD
:105670004FF4BD7109480CF0C5FA15490748FCF70D
:10568000D7F80023E1224FF4BD7104480CF0BAFAB8
:1056900010490248FCF7CCF81EE000BF30C7FF1FDE
:1056A000C42204007408FF1FD0220400E422040076
:1056B000F4220400D41BFF1FF42104002C17FF1F49
:1056C000E02204006C5EFF1F682904006808FF1FC9
:1056D00004230400142304002178C64807F0A2FF25
:1056E0006178C44807F09EFF02221146C1480CF0C1
:1056F000E7FA33680C2B00F02A812968BD48C943BA
:1057000089B20CF0EBFA002105221823BA4C029161
:105710000192009340F205122E234FF4BB71B5485D
:105720000AF0AAFA2778002F40F0B180162105224E
:1057300040F22E238DE80E00AE482C234FF48372E6
:1057400040F277110AF01AFB3B464FF485724FF492
:10575000BE71A8480CF056FAA849A648FCF768F8AC
:1057600033680D2B00F0EC802968A248C94389B248
:105770000CF0B4FA00210522182302910192009343
:1057800040F205122E234FF4D4719A480AF074FAAD
:105790002478002C6BD1162105224CF218638DE879
:1057A0000E0094482C234FF4837240F2A9110AF0A2
:1057B000E5FA23464FF485724FF4D7718D480CF00B
:1057C00021FA8F498B48FCF733F833680E2B00F031
:1057D000B08029688748C94389B20CF07FFA00215C
:1057E0000522182302910192009340F221126023B6
:1057F0004FF4BB717F480AF03FFA824B1C78002CB3
:1058000000F087801621052240F22E238DE80E003D
:1058100078485E234FF4917240F277110AF0AEFAA5
:1058200000234FF4937240F27D1172480CF0EAF9B4
:1058300075497048FBF7FCFF06B0BDE8F081734A7C
:10584000E38B1168724D0197C943032289B21C2072
:105850007A3B02910090114620461BB20AF08EFA64
:105860002968C94389B220460CF038FA2BE4162186
:10587000052240F22E238DE80E005E482C234FF4C3
:10588000837240F2A9110AF079FA002392E71621F7
:1058900005224CF218638DE80E0056482C234FF475
:1058A000837240F277110AF069FA00234DE716215E
:1058B00005224CF218638DE80E004E482C233F223F
:1058C00040F295110AF05AFA002343224FF4CD71A9
:1058D00048480CF097F94F494648FBF7A9FFB0E656
:1058E000162105224CF218638DE80E0041482C2346
:1058F000232240F295110AF041FA234627224FF461
:10590000CD713C480CF07EF942493A48FBF790FFD4
:1059100052E6162105224CF218638DE80E00354838
:105920005E234FF4917240F277110AF027FA234672
:1059300077E729882F480CF0D1F94FF6FF714FE730
:1059400029882C480CF0CAF94FF6FF7113E7298813
:1059500028480CF0C3F94FF6FF71D5E62988254891
:105960000CF0BCF94FF6FF7243E6298821480CF091
:10597000B5F94FF6FF72F7E5FB8B01944CF2186115
:105980001A227A3B0291009238461BB240F223124F
:1059900003210AF0F3F9384629880CF09FF990E5C5
:1059A000FB8BCDF804804CF218611C227A3B0291EB
:1059B000009238461BB240F2031203210AF0DEF9CE
:1059C000384629880CF08AF944E5FB8BCDF8048031
:1059D0004CF218611C227A3B0291009238461BB2AD
:1059E000E32203210AF0CAF9384629880CF076F937
:1059F000F8E400BF30C7FF1FC05CFF1F2023040076
:105A000024230400F986FF1F282304007408FF1FC5
:105A1000605CFF1F00230400FB8BCDF804804CF278
:105A200018611C227A3B0291009238461BB2C322B5
:105A300003210AF0A3F9384629880CF04FF99BE4BA
:105A4000FB8B01924CF218611C227A3B029100926E
:105A500038461BB2A32203210AF090F93846298860
:105A60000CF03CF93DE4FB8BCDF804804CF218615E
:105A70001C227A3B0291009238461BB283220321FA
:105A80000AF07CF9384629880CF028F9FFF7F3BBB7
:105A9000FB8BCDF804804CF218601C227A3B0290FC
:105AA000009238461BB263220AF068F9384629880A
:105AB0000CF014F9FFF7A9BBFB8BCDF804804CF276
:105AC00018611C227A3B0291009238461BB2432295
:105AD00003210AF053F9384629880CF0FFF8FFF744
