:10000000F8FF022099010000F9590100B1590100DF
:10001000B1590100B1590100B1590100B1590100B4
:10002000B1590100B1590100B1590100F95901005C
:10003000F9590100B1590100A17E0100A57E01001E
:10004000F9590100F9590100F9590100F959010064
:10005000F9590100F9590100F9590100F959010054
:10006000F9590100F9590100F9590100F959010044
:10007000F9590100F9590100F9590100F959010034
:10008000F9590100F9590100F9590100F959010024
:10009000F9590100F9590100F9590100F959010014
:1000A0005552010061520100F9590100F95901004E
:1000B000F9590100F9590100F9590100F9590100F4
:1000C000F9590100F9590100F9590100F9590100E4
:1000D000F9590100F9590100F959010005230000FF
:1000E000F9590100F9590100F9590100DDB7000083
:1000F000F9590100F9590100F9590100F9590100B4
:10010000F180010005810100198101002D810100AC
:10011000F9590100E96D0100F9590100F95901008F
:10012000F9590100F9590100F9590100F959010083
:10013000F9590100F9590100F9590100F959010073
:10014000F9590100F95901005D6B0100F9590100ED
:10015000F9590100F9590100F9590100F959010053
:10016000F9590100F95901006D520100F9590100D6
:10017000F9590100F9590100F9590100F959010033
:10018000F9590100F9590100F9590100F959010023
:10019000F9590100F9590100584B4CF2205210B5A1
:1001A0001A804DF628121A8000BF00BF15F028FCF7
:1001B000534B4FF030621A60524A9A60524ADA60EA
:1001C000524B4FF470021A60514A136813F4807353
:1001D00004D150490B604FF4A85313604E4B1A786A
:1001E000110703D51A7842F008021A704B4B4C499C
:1001F0002A221A704B4A4C4B8B4204D252F8040FFD
:1002000043F8040BF8E7494B494900228B4202D2DC
:1002100043F8042BFAE74749474A002352F82300E2
:1002200041F823000133662BF8D1444B444A802126
:1002300003F8011B9342FBD1424B3E4A1A60424BEA
:100240008A221A70A3F5805324225A70A0221A70B1
:100250009A799207FCD59A79D406FCD43B4A9379D3
:1002600003F00C03082B394BF9D103221A714622F3
:100270005A719A799006FCD5344A9179334B4906E4
:10028000FBD5334A4FF08271116009215160202261
:100290001A709A7902F00C020C2AFAD12D4B2E4AD0
:1002A0001A602E4B2E4A1A6000225A60072243F829
:1002B000042C2C4AC3F80C2D62B616F077F9154BB6
:1002C0001B68DA0705D5284815F0D0FE274B284AC9
:1002D0001A60284B1B785B0609D5244C244B2268F6
:1002E0009A4204D1204815F0C1FE002323601BF080
:1002F00023FA15F08BFB18F0BDFBFEE70E2005403E
:1003000030800440823F04000100002B88ED00E0B3
:1003100010D0034014D0034002D0074000E0074053
:100320001817FF1F48B70400F806FF1F1817FF1F14
:10033000EC1300200002FF1F0000000000E400E0BA
:1003400056E400E008ED00E00050064000400640A2
:100350004480044004800440C010050014E000E024
:10036000BFD4010000002020455001611CE0034083
:10037000A5C3945A00F00740FFFFFFFFFFFFFFFFF8
:10038000FFFFFFFFFFFFFFFFFFFFFFFFFFFFFFFF7D
:10039000FFFFFFFFFFFFFFFFFFFFFFFFFFFFFFFF6D
:1003A000FFFFFFFFFFFFFFFFFFFFFFFFFFFFFFFF5D
:1003B000FFFFFFFFFFFFFFFFFFFFFFFFFFFFFFFF4D
:1003C000FFFFFFFFFFFFFFFFFFFFFFFFFFFFFFFF3D
:1003D000FFFFFFFFFFFFFFFFFFFFFFFFFFFFFFFF2D
:1003E000FFFFFFFFFFFFFFFFFFFFFFFFFFFFFFFF1D
:1003F000FFFFFFFFFFFFFFFFFFFFFFFFFFFFFFFF0D
:10040000FFFFFFFFFFFFFFFFFFFFFFFFDEF9FFFF23
:1004100010B5054C237833B9044B13B10448AFF33E
:1004200000800123237010BD1817FF1F000000007B
:1004300044B70400084B10B51BB108490848AFF396
:1004400000800848036803B910BD074B002BFBD0A0
:10045000BDE81040184700BF000000001C17FF1F38
:1004600044B704001817FF1F000000000020704769
:10047000704700BF0349044B4FF4804001220860DD
:100480001A60704708F00F40C4A7FF1F014B0122FC
:100490001A6070473C17FF1F034A04491368012084
:1004A000034413600860704760A4FF1F64A4FF1F2B
:1004B00015F0D6BDF8B50E46074614F039FC0546D2
:1004C00014F026FC044614F013FC6401C0B204F4DA
:1004D000FF54ADB2A5F2BC75044344EA45243C8008
:1004E00014F0D6FB054614F0E3FB044614F0F0FBD1
:1004F000ED02640105F4FF2504F4FF542C43C0F31E
:10050000460004433480F8BD9FED3D7A38B53D4C3C
:10051000F0EE476A002234F812309BB207EE903AB0
:10052000F8EEE77A013277EEA67A3C2A37EE277AA0
:10053000F1D1DFED356A354DC7EE267A29212846FF
:100540000422C5ED007A15F0BBF90A2015F0E0FF92
:1005500095ED006ADFED2A6A002134F8112034F8A5
:10056000113092B207EE902A9BB2B8EEE77A07EE0E
:10057000903AF8EEE77A36EE477A76EE677A01310E
:100580003C29E7EE276AE8D1DFED217A214B224CA6
:1005900086EEA77A00221A6017EE100A1AF0DEFC27
:1005A00041EC100B18F020FD51EC100B1BF022F861
:1005B000D5ED007A194B07EE100AF0EE006AB0EEA6
:1005C000086AF0EE675AE7EE265A1548E7EE067A13
:1005D0000422242180ED007AC3ED007AC4ED005A94
:1005E00015F06EF90A2015F093FF0121282015F06F
:1005F0003FF90A2015F08CFF0A4B01221A7038BD12
:100600000000000078EDFF1F00007042D807FF1FB8
:1006100000006C42D4A7FF1F3C64FF1FB8A7FF1F58
:100620002808FF1FC0A7FF1F214B10B41A691368C9
:10063000506819780478507A137A044201EA030169
:100640001BD0937A03F0030309B143F0040343F092
:1006500008039910013B91720D2B0BD8DFE803F0D2
:1006600021071B070A152121150A071B0721D3683B
:10067000013BD3605DF8044B7047937A03F00303AA
:100680000029E6D043F00403E3E7D3685DF8044BA8
:10069000023BD3607047D3685DF8044B0233D360EC
:1006A0007047D3685DF8044B0133D360704700BFD7
:1006B000D0100020214B10B45A6913685068197883
:1006C0000478507A137A044201EA03011BD0937A2A
:1006D00003F0030309B143F0040343F00803991046
:1006E000013B91720D2B0BD8DFE803F021071B07AC
:1006F0000A152121150A071B0721D368013BD36086
:100700005DF8044B7047937A03F003030029E6D0A9
:1007100043F00403E3E7D3685DF8044B023BD36086
:100720007047D3685DF8044B0233D3607047D368D9
:100730005DF8044B0133D360704700BFD010002038
:10074000214B10B49A691368506819780478507A6C
:10075000137A044201EA03011BD0937A03F00303E6
:1007600009B143F0040343F008039910013B91726F
:100770000D2B0BD8DFE803F021071B070A152121F9
:10078000150A071B0721D368013BD3605DF8044BB2
:100790007047937A03F003030029E6D043F0040383
:1007A000E3E7D3685DF8044B023BD3607047D3683E
:1007B0005DF8044B0233D3607047D3685DF8044B97
:1007C0000133D360704700BFD0100020214B10B41C
:1007D000DA691368506819780478507A137A0442F9
:1007E00001EA03011BD0937A03F0030309B143F03C
:1007F000040343F008039910013B91720D2B0BD8B1
:10080000DFE803F021071B070A152121150A071B42
:100810000721D368013BD3605DF8044B7047937A9E
:1008200003F003030029E6D043F00403E3E7D368B1
:100830005DF8044B023BD3607047D3685DF8044B0E
:100840000233D3607047D3685DF8044B0133D36043
:10085000704700BFD0100020214B10B41A6A1368F3
:10086000506819780478507A137A044201EA030137
:100870001BD0937A03F0030309B143F0040343F060
:1008800008039910013B91720D2B0BD8DFE803F0A0
:1008900021071B070A152121150A071B0721D36809
:1008A000013BD3605DF8044B7047937A03F0030378
:1008B0000029E6D043F00403E3E7D3685DF8044B76
:1008C000023BD3607047D3685DF8044B0233D360BA
:1008D0007047D3685DF8044B0133D360704700BFA5
:1008E000D0100020214B10B45A6A13685068197850
:1008F0000478507A137A044201EA03011BD0937AF8
:1009000003F0030309B143F0040343F00803991013
:10091000013B91720D2B0BD8DFE803F021071B0779
:100920000A152121150A071B0721D368013BD36053
:100930005DF8044B7047937A03F003030029E6D077
:1009400043F00403E3E7D3685DF8044B023BD36054
:100950007047D3685DF8044B0233D3607047D368A7
:100960005DF8044B0133D360704700BFD010002006
:10097000214B10B49A6A1368506819780478507A39
:10098000137A044201EA03011BD0937A03F00303B4
:1009900009B143F0040343F008039910013B91723D
:1009A0000D2B0BD8DFE803F021071B070A152121C7
:1009B000150A071B0721D368013BD3605DF8044B80
:1009C0007047937A03F003030029E6D043F0040351
:1009D000E3E7D3685DF8044B023BD3607047D3680C
:1009E0005DF8044B0233D3607047D3685DF8044B65
:1009F0000133D360704700BFD0100020214B10B4EA
:100A0000DA6A1368506819780478507A137A0442C5
:100A100001EA03011BD0937A03F0030309B143F009
:100A2000040343F008039910013B91720D2B0BD87E
:100A3000DFE803F021071B070A152121150A071B10
:100A40000721D368013BD3605DF8044B7047937A6C
:100A500003F003030029E6D043F00403E3E7D3687F
:100A60005DF8044B023BD3607047D3685DF8044BDC
:100A70000233D3607047D3685DF8044B0133D36011
:100A8000704700BFD0100020214B10B41A6B1368C0
:100A9000506819780478507A137A044201EA030105
:100AA0001BD0937A03F0030309B143F0040343F02E
:100AB00008039910013B91720D2B0BD8DFE803F06E
:100AC00021071B070A152121150A071B0721D368D7
:100AD000013BD3605DF8044B7047937A03F0030346
:100AE0000029E6D043F00403E3E7D3685DF8044B44
:100AF000023BD3607047D3685DF8044B0233D36088
:100B00007047D3685DF8044B0133D360704700BF72
:100B1000D0100020214B10B45A6B1368506819781C
:100B20000478507A137A044201EA03011BD0937AC5
:100B300003F0030309B143F0040343F008039910E1
:100B4000013B91720D2B0BD8DFE803F021071B0747
:100B50000A152121150A071B0721D368013BD36021
:100B60005DF8044B7047937A03F003030029E6D045
:100B700043F00403E3E7D3685DF8044B023BD36022
:100B80007047D3685DF8044B0233D3607047D36875
:100B90005DF8044B0133D360704700BFD0100020D4
:100BA000214B10B49A6B1368506819780478507A06
:100BB000137A044201EA03011BD0937A03F0030382
:100BC00009B143F0040343F008039910013B91720B
:100BD0000D2B0BD8DFE803F021071B070A15212195
:100BE000150A071B0721D368013BD3605DF8044B4E
:100BF0007047937A03F003030029E6D043F004031F
:100C0000E3E7D3685DF8044B023BD3607047D368D9
:100C10005DF8044B0233D3607047D3685DF8044B32
:100C20000133D360704700BFD0100020214B10B4B7
:100C3000DA6B1368506819780478507A137A044292
:100C400001EA03011BD0937A03F0030309B143F0D7
:100C5000040343F008039910013B91720D2B0BD84C
:100C6000DFE803F021071B070A152121150A071BDE
:100C70000721D368013BD3605DF8044B7047937A3A
:100C800003F003030029E6D043F00403E3E7D3684D
:100C90005DF8044B023BD3607047D3685DF8044BAA
:100CA0000233D3607047D3685DF8044B0133D360DF
:100CB000704700BFD0100020214B10B41A6C13688D
:100CC000506819780478507A137A044201EA0301D3
:100CD0001BD0937A03F0030309B143F0040343F0FC
:100CE00008039910013B91720D2B0BD8DFE803F03C
:100CF00021071B070A152121150A071B0721D368A5
:100D0000013BD3605DF8044B7047937A03F0030313
:100D10000029E6D043F00403E3E7D3685DF8044B11
:100D2000023BD3607047D3685DF8044B0233D36055
:100D30007047D3685DF8044B0133D360704700BF40
:100D4000D0100020214B10B45A6C136850681978E9
:100D50000478507A137A044201EA03011BD0937A93
:100D600003F0030309B143F0040343F008039910AF
:100D7000013B91720D2B0BD8DFE803F021071B0715
:100D80000A152121150A071B0721D368013BD360EF
:100D90005DF8044B7047937A03F003030029E6D013
:100DA00043F00403E3E7D3685DF8044B023BD360F0
:100DB0007047D3685DF8044B0233D3607047D36843
:100DC0005DF8044B0133D360704700BFD0100020A2
:100DD000214B10B49A6C1368506819780478507AD3
:100DE000137A044201EA03011BD0937A03F0030350
:100DF00009B143F0040343F008039910013B9172D9
:100E00000D2B0BD8DFE803F021071B070A15212162
:100E1000150A071B0721D368013BD3605DF8044B1B
:100E20007047937A03F003030029E6D043F00403EC
:100E3000E3E7D3685DF8044B023BD3607047D368A7
:100E40005DF8044B0233D3607047D3685DF8044B00
:100E50000133D360704700BFD0100020214B10B485
:100E6000DA6C1368506819780478507A137A04425F
:100E700001EA03011BD0937A03F0030309B143F0A5
:100E8000040343F008039910013B91720D2B0BD81A
:100E9000DFE803F021071B070A152121150A071BAC
:100EA0000721D368013BD3605DF8044B7047937A08
:100EB00003F003030029E6D043F00403E3E7D3681B
:100EC0005DF8044B023BD3607047D3685DF8044B78
:100ED0000233D3607047D3685DF8044B0133D360AD
:100EE000704700BFD0100020214B10B41A6D13685A
:100EF000506819780478507A137A044201EA0301A1
:100F00001BD0937A03F0030309B143F0040343F0C9
:100F100008039910013B91720D2B0BD8DFE803F009
:100F200021071B070A152121150A071B0721D36872
:100F3000013BD3605DF8044B7047937A03F00303E1
:100F40000029E6D043F00403E3E7D3685DF8044BDF
:100F5000023BD3607047D3685DF8044B0233D36023
:100F60007047D3685DF8044B0133D360704700BF0E
:100F7000D0100020214B10B45A6D136850681978B6
:100F80000478507A137A044201EA03011BD0937A61
:100F900003F0030309B143F0040343F0080399107D
:100FA000013B91720D2B0BD8DFE803F021071B07E3
:100FB0000A152121150A071B0721D368013BD360BD
:100FC0005DF8044B7047937A03F003030029E6D0E1
:100FD00043F00403E3E7D3685DF8044B023BD360BE
:100FE0007047D3685DF8044B0233D3607047D36811
:100FF0005DF8044B0133D360704700BFD010002070
:10100000214B10B49A6D1368506819780478507A9F
:10101000137A044201EA03011BD0937A03F003031D
:1010200009B143F0040343F008039910013B9172A6
:101030000D2B0BD8DFE803F021071B070A15212130
:10104000150A071B0721D368013BD3605DF8044BE9
:101050007047937A03F003030029E6D043F00403BA
:10106000E3E7D3685DF8044B023BD3607047D36875
:101070005DF8044B0233D3607047D3685DF8044BCE
:101080000133D360704700BFD0100020214B10B453
:10109000DA6D1368506819780478507A137A04422C
:1010A00001EA03011BD0937A03F0030309B143F073
:1010B000040343F008039910013B91720D2B0BD8E8
:1010C000DFE803F021071B070A152121150A071B7A
:1010D0000721D368013BD3605DF8044B7047937AD6
:1010E00003F003030029E6D043F00403E3E7D368E9
:1010F0005DF8044B023BD3607047D3685DF8044B46
:101100000233D3607047D3685DF8044B0133D3607A
:10111000704700BFD0100020214B10B41A6E136826
:10112000506819780478507A137A044201EA03016E
:101130001BD0937A03F0030309B143F0040343F097
:1011400008039910013B91720D2B0BD8DFE803F0D7
:1011500021071B070A152121150A071B0721D36840
:10116000013BD3605DF8044B7047937A03F00303AF
:101170000029E6D043F00403E3E7D3685DF8044BAD
:10118000023BD3607047D3685DF8044B0233D360F1
:101190007047D3685DF8044B0133D360704700BFDC
:1011A000D0100020214B10B45A6E13685068197883
:1011B0000478507A137A044201EA03011BD0937A2F
:1011C00003F0030309B143F0040343F0080399104B
:1011D000013B91720D2B0BD8DFE803F021071B07B1
:1011E0000A152121150A071B0721D368013BD3608B
:1011F0005DF8044B7047937A03F003030029E6D0AF
:1012000043F00403E3E7D3685DF8044B023BD3608B
:101210007047D3685DF8044B0233D3607047D368DE
:101220005DF8044B0133D360704700BFD01000203D
:10123000214B10B49A6E1368506819780478507A6C
:10124000137A044201EA03011BD0937A03F00303EB
:1012500009B143F0040343F008039910013B917274
:101260000D2B0BD8DFE803F021071B070A152121FE
:10127000150A071B0721D368013BD3605DF8044BB7
:101280007047937A03F003030029E6D043F0040388
:10129000E3E7D3685DF8044B023BD3607047D36843
:1012A0005DF8044B0233D3607047D3685DF8044B9C
:1012B0000133D360704700BFD0100020214B10B421
:1012C000DA6E1368506819780478507A137A0442F9
:1012D00001EA03011BD0937A03F0030309B143F041
:1012E000040343F008039910013B91720D2B0BD8B6
:1012F000DFE803F021071B070A152121150A071B48
:101300000721D368013BD3605DF8044B7047937AA3
:1013100003F003030029E6D043F00403E3E7D368B6
:101320005DF8044B023BD3607047D3685DF8044B13
:101330000233D3607047D3685DF8044B0133D36048
:10134000704700BFD0100020214B10B41A6F1368F3
:10135000506819780478507A137A044201EA03013C
:101360001BD0937A03F0030309B143F0040343F065
:1013700008039910013B91720D2B0BD8DFE803F0A5
:1013800021071B070A152121150A071B0721D3680E
:10139000013BD3605DF8044B7047937A03F003037D
:1013A0000029E6D043F00403E3E7D3685DF8044B7B
:1013B000023BD3607047D3685DF8044B0233D360BF
:1013C0007047D3685DF8044B0133D360704700BFAA
:1013D000D0100020214B10B45A6F13685068197850
:1013E0000478507A137A044201EA03011BD0937AFD
:1013F00003F0030309B143F0040343F00803991019
:10140000013B91720D2B0BD8DFE803F021071B077E
:101410000A152121150A071B0721D368013BD36058
:101420005DF8044B7047937A03F003030029E6D07C
:1014300043F00403E3E7D3685DF8044B023BD36059
:101440007047D3685DF8044B0233D3607047D368AC
:101450005DF8044B0133D360704700BFD01000200B
:10146000214B10B49A6F1368506819780478507A39
:10147000137A044201EA03011BD0937A03F00303B9
:1014800009B143F0040343F008039910013B917242
:101490000D2B0BD8DFE803F021071B070A152121CC
:1014A000150A071B0721D368013BD3605DF8044B85
:1014B0007047937A03F003030029E6D043F0040356
:1014C000E3E7D3685DF8044B023BD3607047D36811
:1014D0005DF8044B0233D3607047D3685DF8044B6A
:1014E0000133D360704700BFD0100020214B10B4EF
:1014F000DA6F1368506819780478507A137A0442C6
:1015000001EA03011BD0937A03F0030309B143F00E
:10151000040343F008039910013B91720D2B0BD883
:10152000DFE803F021071B070A152121150A071B15
:101530000721D368013BD3605DF8044B7047937A71
:1015400003F003030029E6D043F00403E3E7D36884
:101550005DF8044B023BD3607047D3685DF8044BE1
:101560000233D3607047D3685DF8044B0133D36016
:10157000704700BFD0100020214B10B4D3F880205A
:101580001368506819780478507A137A044201EA93
:1015900003011BD0937A03F0030309B143F0040362
:1015A00043F008039910013B91720D2B0BD8DFE833
:1015B00003F021071B070A152121150A071B072124
:1015C000D368013BD3605DF8044B7047937A03F016
:1015D00003030029E6D043F00403E3E7D3685DF892
:1015E000044B023BD3607047D3685DF8044B023371
:1015F000D3607047D3685DF8044B0133D360704704
:10160000D0100020214B10B4D3F884201368506808
:1016100019780478507A137A044201EA03011BD046
:10162000937A03F0030309B143F0040343F0080382
:101630009910013B91720D2B0BD8DFE803F02107C5
:101640001B070A152121150A071B0721D368013B37
:10165000D3605DF8044B7047937A03F003030029CD
:10166000E6D043F00403E3E7D3685DF8044B023BA4
:10167000D3607047D3685DF8044B0233D360704782
:10168000D3685DF8044B0133D3607047D01000205D
:10169000214B10B4D3F88820136850681978047867
:1016A000507A137A044201EA03011BD0937A03F0C3
:1016B000030309B143F0040343F008039910013B0D
:1016C00091720D2B0BD8DFE803F021071B070A15D9
:1016D0002121150A071B0721D368013BD3605DF860
:1016E000044B7047937A03F003030029E6D043F0DC
:1016F0000403E3E7D3685DF8044B023BD360704713
:10170000D3685DF8044B0233D3607047D3685DF84B
:10171000044B0133D3607047D0100020214B10B42C
:10172000D3F88C201368506819780478507A137AAB
:10173000044201EA03011BD0937A03F0030309B1C9
:1017400043F0040343F008039910013B91720D2B01
:101750000BD8DFE803F021071B070A152121150A22
:10176000071B0721D368013BD3605DF8044B70472A
:10177000937A03F003030029E6D043F00403E3E780
:10178000D3685DF8044B023BD3607047D3685DF8C3
:10179000044B0233D3607047D3685DF8044B0133C8
:1017A000D3607047D0100020214B10B4D3F89020A4
:1017B0001368506819780478507A137A044201EA61
:1017C00003011BD0937A03F0030309B143F0040330
:1017D00043F008039910013B91720D2B0BD8DFE801
:1017E00003F021071B070A152121150A071B0721F2
:1017F000D368013BD3605DF8044B7047937A03F0E4
:1018000003030029E6D043F00403E3E7D3685DF85F
:10181000044B023BD3607047D3685DF8044B02333E
:10182000D3607047D3685DF8044B0133D3607047D1
:10183000D0100020214B10B4D3F8942013685068C6
:1018400019780478507A137A044201EA03011BD014
:10185000937A03F0030309B143F0040343F0080350
:101860009910013B91720D2B0BD8DFE803F0210793
:101870001B070A152121150A071B0721D368013B05
:10188000D3605DF8044B7047937A03F0030300299B
:10189000E6D043F00403E3E7D3685DF8044B023B72
:1018A000D3607047D3685DF8044B0233D360704750
:1018B000D3685DF8044B0133D3607047D01000202B
:1018C000214B10B4D3F89820136850681978047825
:1018D000507A137A044201EA03011BD0937A03F091
:1018E000030309B143F0040343F008039910013BDB
:1018F00091720D2B0BD8DFE803F021071B070A15A7
:101900002121150A071B0721D368013BD3605DF82D
:10191000044B7047937A03F003030029E6D043F0A9
:101920000403E3E7D3685DF8044B023BD3607047E0
:10193000D3685DF8044B0233D3607047D3685DF819
:10194000044B0133D3607047D0100020214B10B4FA
:10195000D3F89C201368506819780478507A137A69
:10196000044201EA03011BD0937A03F0030309B197
:1019700043F0040343F008039910013B91720D2BCF
:101980000BD8DFE803F021071B070A152121150AF0
:10199000071B0721D368013BD3605DF8044B7047F8
:1019A000937A03F003030029E6D043F00403E3E74E
:1019B000D3685DF8044B023BD3607047D3685DF891
:1019C000044B0233D3607047D3685DF8044B013396
:1019D000D3607047D0100020214B10B4D3F8A02062
:1019E0001368506819780478507A137A044201EA2F
:1019F00003011BD0937A03F0030309B143F00403FE
:101A000043F008039910013B91720D2B0BD8DFE8CE
:101A100003F021071B070A152121150A071B0721BF
:101A2000D368013BD3605DF8044B7047937A03F0B1
:101A300003030029E6D043F00403E3E7D3685DF82D
:101A4000044B023BD3607047D3685DF8044B02330C
:101A5000D3607047D3685DF8044B0133D36070479F
:101A6000D010002070B5044608460D461AF048FD17
:101A700023680246294620465B68BDE87040184747
:101A800038B5044608460D461AF03AFD236802466A
:101A900029465B68204698470546204616F08CFB91
:101AA000284438BD38B5054616F0ECFB04462846F8
:101AB00016F082FB204438BD38B5C9B2054616F091
:101AC000EBFB0446284616F077FB204438BD00BFE8
:101AD00010B4036841681A780C78417A037A0C4292
:101AE00002EA03021BD0837A03F003030AB143F036
:101AF000040343F008039A10013B82720D2B0BD8AC
:101B0000DFE803F021071B070A152121150A071B2F
:101B10000721C368013BC3605DF8044B7047837ABB
:101B200003F00303002AE6D043F00403E3E7C368AD
:101B30005DF8044B023BC3607047C3685DF8044B1B
:101B40000233C3607047C3685DF8044B0133C36060
:101B5000704700BF08B5034BD3F8EC00FFF7B8FFA0
:101B600008BD00BFD010002008B5034BD3F8E80033
:101B7000FFF7AEFF08BD00BFD010002008B5034B33
:101B8000D3F8E400FFF7A4FF08BD00BFD010002089
:101B900008B5034BD3F8E000FFF79AFF08BD00BF7C
:101BA000D010002008B5034BD3F8DC00FFF790FFFE
:101BB00008BD00BFD010002008B5034BD3F8D800F3
:101BC000FFF786FF08BD00BFD010002008B5034B0B
:101BD000D3F8D400FFF77CFF08BD00BFD010002071
:101BE00008B5034BD3F8D000FFF772FF08BD00BF64
:101BF000D010002008B5034BD3F8CC00FFF768FFE6
:101C000008BD00BFD010002008B5034BD3F8C800B2
:101C1000FFF75EFF08BD00BFD010002008B5034BE2
:101C2000D3F8C400FFF754FF08BD00BFD010002058
:101C300008B5034BD3F8C000FFF74AFF08BD00BF4B
:101C4000D010002008B5034BD3F8BC00FFF740FFCD
:101C500008BD00BFD010002008B5034BD3F8B80072
:101C6000FFF736FF08BD00BFD010002008B5034BBA
:101C7000D3F8B400FFF72CFF08BD00BFD010002040
:101C800008B5034BD3F8B000FFF722FF08BD00BF33
:101C9000D010002008B5034BD3F8AC00FFF718FFB5
:101CA00008BD00BFD010002008B5034BD3F8A80032
:101CB000FFF70EFF08BD00BFD010002008B5034B92
:101CC000D3F8A400FFF704FF08BD00BFD010002028
:101CD00008B5024BD868FFF7FBFE08BDD010002006
:101CE00008B5024B9868FFF7F3FE08BDD01000203E
:101CF00008B5024B5868FFF7EBFE08BDD010002076
:101D000008B5024B1868FFF7E3FE08BDD0100020AD
:101D100008B50B463B2800F2C682DFE810F0BB0294
:101D2000B202A902A00297028E0285027C0273020F
:101D30006A02610258024F0246023D0234022B023F
:101D40002202190210020702AE01A5019C019301B3
:101D50008A01810178016F0166015D0154014A0128
:101D6000400136012C01220118010E010401FA0084
:101D7000F000E600DC00D200C800BE00B400AA00FB
:101D8000A00096008C00820078006E0064005A006B
:101D9000500046003C00BD4ABD49C2F8EC303B2033
:101DA000042214F09DF8012008BDB84AB949C2F8D0
:101DB000E8303A20042214F093F8012008BDB34A19
:101DC000B549C2F8E4303920042214F089F8012022
:101DD00008BDAE4AB149C2F8E0303820042214F000
:101DE0007FF8012008BDA94AAD49C2F8DC30372090
:101DF000042214F075F8012008BDA44AA949C2F8CC
:101E0000D8303620042214F06BF8012008BD9F4A18
:101E1000A549C2F8D4303520042214F061F801201D
:101E200008BD9A4AA149C2F8D0303420042214F0E7
:101E300057F8012008BD954A9D49C2F8CC3033209F
:101E4000042214F04DF8012008BD904A9949C2F8C7
:101E5000C8303220042214F043F8012008BD8B4A18
:101E60009549C2F8C4303120042214F039F8012019
:101E700008BD864A9149C2F8C0303020042214F0CF
:101E80002FF8012008BD814A8D49C2F8BC302F20AF
:101E9000042214F025F8012008BD7C4A8949C2F8C3
:101EA000B8302E20042214F01BF8012008BD774A18
:101EB0008549C2F8B4302D20042214F011F8012015
:101EC00008BD724A8149C2F8B0302C20042214F0B7
:101ED00007F8012008BD6D4A7D49C2F8AC302B20BF
:101EE000042213F0FDFF012008BD684A7949C2F8B9
:101EF000A8302A20042213F0F3FF012008BD634A12
:101F00007549C2F8A4302920042213F0E9FF01200A
:101F100008BD5E4A7149C2F8A0302820042213F09F
:101F2000DFFF012008BD594A6D49C2F89C302720C7
:101F3000042213F0D5FF012008BD544A6949C2F8B4
:101F400098302620042213F0CBFF012008BD4F4A11
:101F50006549C2F894302520042213F0C1FF012006
:101F600008BD4A4A6149C2F890302420042213F087
:101F7000B7FF012008BD454A5D49C2F88C302320D7
:101F8000042213F0ADFF012008BD404A5949C2F8B0
:101F900088302220042213F0A3FF012008BD3B4A11
:101FA0005549C2F884302120042213F099FF012002
:101FB00008BD364A5149C2F880302020042213F06F
:101FC0008FFF012008BD314A4D49D3671F200422ED
:101FD00013F086FF012008BD2C4A4A4993671E2052
:101FE000042213F07DFF012008BD284A46495367AB
:101FF0001D20042213F074FF012008BD234A434929
:1020000013671C20042213F06BFF012008BD1F4A38
:102010003F49D3661B20042213F062FF012008BD54
:102020001A4A3C4993661A20042213F059FF0120F2
:1020300008BD164A384953661920042213F050FF90
:10204000012008BD114A354913661820042213F0F7
:1020500047FF012008BD0D4A3149D36517200422EE
:1020600013F03EFF012008BD084A2E499365162053
:10207000042213F035FF012008BD044A2A495365A4
:102080001520042213F02CFF012008BDD0100020E1
:10209000551B0000691B00007D1B0000911B000008
:1020A000A51B0000B91B0000CD1B0000E11B0000B8
:1020B000F51B0000091C00001D1C0000311C000065
:1020C000451C0000591C00006D1C0000811C000014
:1020D000951C0000A91C0000BD1C0000D9190000BF
:1020E0004D190000C118000035180000A9170000A4
:1020F0001D1700009116000005160000791500005C
:10210000ED14000061140000D51300004913000015
:10211000BD12000031120000A511000019110000CD
:102120008D10000001100000750F00005F4A60492B
:1021300013651420042213F0D3FE012008BD5B4A6E
:102140005C49D3641320042213F0CAFE012008BDA9
:10215000564A594993641220042213F0C1FE01200B
:1021600008BD524A554953641120042213F0B8FEA9
:10217000012008BD4D4A524913641020042213F077
:10218000AFFE012008BD494A4E49D3630F20042207
:1021900013F0A6FE012008BD444A4B4993630E206C
:1021A000042213F09DFE012008BD404A47495363B5
:1021B0000D20042213F094FE012008BD3B4A44493F
:1021C00013630C20042213F08BFE012008BD374A54
:1021D0004049D3620B20042213F082FE012008BD87
:1021E000324A3D4993620A20042213F079FE01200D
:1021F00008BD2E4A394953620920042213F070FEAB
:10220000012008BD294A364913620820042213F030
:1022100067FE012008BD254A3249D3610720042208
:1022200013F05EFE012008BD204A2F49936106206D
:10223000042213F055FE012008BD1C4A2B495361AE
:102240000520042213F04CFE012008BD174A28493E
:1022500013610422104613F043FE012008BD134A07
:102260002449D3600320042213F03AFE012008BD64
:102270000E4A214993600220042213F031FE01200E
:1022800008BD0A4A1D4953600120042213F028FEAC
:10229000012008BD054A1A4913600020042213F0EA
:1022A0001FFE012008BD002008BD00BFD010002087
:1022B000E90E00005D0E0000D10D0000450D00008C
:1022C000B90C00002D0C0000A10B0000150B000044
:1022D000890A0000FD09000071090000E5080000FE
:1022E00059080000CD07000041070000B5060000B6
:1022F00029060000D11C0000E11C0000F11C0000B8
:10230000011D0000024B1B68DB6F1B6B1B697047D4
:10231000C8A7FF1F2DE9F0411D4B1D68854282B003
:1023200016468CB219D005B2C4F590730022294626
:1023300000921BB20A2217480CF0C8FE164B154833
:102340001B880093C4F59572A31B1BB212B22946D9
:102350000CF0BCFE02B0BDE8F081C4F595772DB25B
:102360003FB24FF478483B462946CDF800800A2218
:1023700008480CF0ABFEA31B3A461BB2CDF8008018
:10238000294604480CF0A2FE02B0BDE8F08100BF6F
:10239000F007FF1F94E9FF1F2C08FF1F2DE9F043F2
:1023A000364F374E3868374D83B018F0B5FD41ECE5
:1023B000100B16F091FD0022334B51EC100B18F06E
:1023C00021FE19F0F7F8A8463060002431E058F8F3
:1023D000240018F0A1FD41EC100B16F07DFD002249
:1023E000294B51EC100B18F00DFE19F0E3F800EB3F
:1023F000C000264A3168DFF8A0E04001B0FBF1F1EF
:10240000B1F5907F8ABF4FF490711160116055F85B
:1024100024203B6802EBC20252012046B2FBF3F3D8
:102420001A46CEF80030FFF775FF0134B4F5D27FBD
:1024300020D055F82430012BC9D800230FFA84F995
:10244000009349464FF490730A2211480CF03EFE67
:10245000104B1B68A342E8D14FF4784300934946E0
:102460004FF490730A220A4801340CF02FFEB4F5A1
:10247000D27FDED103B0BDE8F08300BFCCA7FF1F41
:1024800010EDFF1FB01AFF1F000059401864FF1F16
:1024900094E9FF1FF007FF1F54EDFF1F10B50F4B0E
:1024A0001C68844282B00B46C1F595720AD045F291
:1024B0001F0401B212B21BB2009409480CF006FED0
:1024C00002B010BD4FF47840009021B212B21BB29E
:1024D00003480CF0FBFD02B010BD00BFF007FF1F6A
:1024E00094E9FF1FF8B50B4F0B4E0C4D002457F825
:1024F0002420336802EBC20252012046B2FBF3F300
:10250000013419462B60FFF7C9FFB4F5D27FEED135
:10251000F8BD00BFB01AFF1FCCA7FF1F1864FF1F34
:1025200000B5074883B0B0F92020B0F91E30009202
:102530000022019211460DF06DF803B05DF804FB26
:1025400094E9FF1FDFF878C000232DE9F0411A4F0E
:10255000CCF800301A4647F823200133B3F5007F4A
:10256000F9D1164E4FF0000E01F1FF38002921DDA0
:10257000B0F5805F1EDA034608EB0005002202E09A
:10258000B3F5805F06D056F82340AB42224403F1F6
:102590000103F5D10844B0F5805F47F82E2004DA36
:1025A0000EF1010EBEF5007FE0D10023CCF8003023
:1025B000BDE8F0810022EDE7B01AFF1F6064FF1F45
:1025C0001864FF1F00233048194640F823100133D8
:1025D000B3F5805F4FF00002F7D12C4B2C482D490A
:1025E000F0B52D4D2D4C1A602D4B2A7022600260E3
:1025F0000A602C4F2C4E2D4D2D4C2E482E491A6022
:102600002E4B3A6032602A60226002600A602C4FD2
:102610002C4E2D4D2D4C2E482E491A602E4B3A60D3
:1026200032602A60226002600A602C4F2C4E2D4DD1
:102630002D4C2E482E491A603C23236003603A60DB
:1026400032602A600B602B4F2B4E2C4D2C4C2D48AA
:102650002D493B6033602B6023600360DFF8C8E0E6
:102660000B602A4F2A4E2B4D2B4C2C482C492D4BBE
:102670003A704FF0B40CCEF800C032702A7022705D
:1026800002700A701A70F0BD6064FF1F58EDFF1FE2
:102690002CEDFF1F30EDFF1F9CA7FF1F90E9FF1FD0
:1026A00040EDFF1F34EDFF1F38EDFF1F3CEDFF1F16
:1026B00044EDFF1F48EDFF1F4CEDFF1F8463FF1F1C
:1026C000C863FF1FCC63FF1F8063FF1F8863FF1F6A
:1026D0008C63FF1F9063FF1FA463FF1F9463FF1FA2
:1026E0009863FF1FA063FF1F6808FF1F6408FF1F98
:1026F0007808FF1FA808FF1FA408FF1FA008FF1FDE
:102700009C08FF1F9808FF1F9408FF1FD8A7FF1FF2
:102710009C63FF1FCC17FF1F7C63FF1FA863FF1F75
:102720003417FF1F84E9FF1FB808FF1FF0B52949C0
:10273000294F2A4A2A4E2B4D2B4C2C48DFF820C11A
:10274000DFF820E100230B603B602949294F13602B
:10275000294A33602B60236003600B603B60274E87
:10276000274D284C28482949294F1360294A3360AE
:102770002B60236003600B603B60274E274D284C85
:1027800028482949294F13703C2202600A603A60A8
:1027900033602B602370264E264D274C274828494E
:1027A000284F32602A60226002600A603A60264E3A
:1027B000264D274C27482849284ACCF80030B42712
:1027C000CEF8003037602B70237003700B701370DD
:1027D000F0BD00BF34EDFF1F38EDFF1F48EDFF1FB8
:1027E0003CEDFF1F40EDFF1F44EDFF1F4CEDFF1FB1
:1027F000C863FF1FCC63FF1F8C63FF1F8063FF1F35
:102800008463FF1F8863FF1F9063FF1F9463FF1F94
:102810009863FF1F9C63FF1FA063FF1FA463FF1F3C
:10282000D8A7FF1F6808FF1F6408FF1F7808FF1F55
:10283000A808FF1FA408FF1FA008FF1F9C08FF1F78
:102840009808FF1F9408FF1FB808FF1FCC17FF1F31
:102850007C63FF1FA863FF1F3417FF1F84E9FF1F5E
:102860002CEDFF1F30EDFF1F2B4B2C4AD3ED004A00
:102870002B4BD2ED002A2B4A93ED006A92ED007AA1
:10288000294B2A49D3ED006A294B2A4A93ED002AA5
:10289000294B64EEA47A26EE064A22EEE73A66EE6B
:1028A000075AA4EE073AB0EE651AA4EEE21A66EEF5
:1028B000A61A63EE663A32EEC75A34EE677A67EECE
:1028C000C67AE1EE813AE4EE847A36EE646A22EE6C
:1028D000474A27EE667A65EE666AD4EEA25AA1EE02
:1028E000867AE6EE026AA1EE854AF0EE634AE7EEEA
:1028F000824A34EE036A77EE277A75EEA66A86EE90
:10290000277AC4EEA75A86EEA76AC1ED005A82ED77
:10291000006A83ED007A704764EDFF1F3464FF1F87
:1029200060EDFF1F3864FF1F5CEDFF1FC817FF1F1E
:102930003064FF1F50EDFF1F2408FF1F38B51B4CEC
:10294000237C012B2CD972B6184DE36862B6184966
:10295000184A08681360984221D0002B164816DBED
:102960000068B3EB800F05DD0023136072B6E360EF
:1029700062B61368114C0B60002B1A46B8BFDA1C04
:10298000921022603220BDE8384013F0C1BD0368C8
:102990009B00136072B6EB6062B61368E0E738BD67
:1029A00072B62046FFF794F8CEE700BFB417FF1FBA
:1029B000CC08FF1F80E9FF1FB063FF1F70EDFF1FF2
:1029C0002DE9F04785B28CB284B02E4E04F121037C
:1029D00005F114024FF4784E07B212B218B2A5F105
:1029E0001403CDF80CE0019202900AB2009039462F
:1029F00030461BB2A5F102090EF036FB4FF6FF7808
:102A00000FFA89F904F109020E23494630468DE890
:102A1000080112B205230CF0FDFD04F1FF3A052375
:102A2000494604F11A02A5F11509223424B23046B0
:102A300000930FFA8AFA0FFA89F9CDF8048012B2DE
:102A400015350CF0E7FD2DB252464B46394630465F
:102A50008DE8100110F0BEFE524639462B46304636
:102A60000094CDF8048010F0B5FE00944B46224649
:102A70002946CDF80480304610F0ACFE04B0BDE825
:102A8000F08700BF94E9FF1F2DE9F0438DB2264E79
:102A900005F1020885B04CF218690FFA88F8052391
:102AA00084B242468DE808020F46042301B2304644
:102AB0000CF0B0FDA31D05F108001BB23FB200B23F
:102AC000EA1CA11C009701930290CDF80C903046AF
:102AD00012B209B204F108070EF0C6FA3FB24FF085
:102AE000000E6A1C0723123406358DE8084039466B
:102AF000304624B22DB212B20D230CF08BFD2346CA
:102B00004246394630468DE8200210F063FECDF88B
:102B1000008023462A463946CDF80490304610F00E
:102B200059FE05B0BDE8F08394E9FF1F2DE9F04F91
:102B30008DB2354E05F1020A85B04CF218670FFAD6
:102B40008AFA052384B28846524601B28DE888008D
:102B5000304604230CF05EFDA31D05F1080205F1CB
:102B6000030E0FFA88F01BB212B2A11C0090019361
:102B7000029230460FFA8EF2039709B204F1080B65
:102B80000EF072FA0FFA8BFB4FF0000E6A1C07234F
:102B900004F10D0805F104098DE808400FFA88F8E2
:102BA0000FFA89F95946304612B20D2306350CF05A
:102BB00031FD2DB252465946434630460197CDF875
:102BC0000090123410F006FE24B2594643462A46BD
:102BD0003046CDF80090019710F0FCFD5246234698
:102BE00041463046CDF80090019710F0F3FDCDF846
:102BF000009023462A4641460197304610F0EAFDF0
:102C000005B0BDE8F08F00BF94E9FF1F2DE9F04F3C
:102C10008DB2364E05F1020985B00FFA89F94CF2F2
:102C20001868052384B28DE808014A460F4604233C
:102C300001B230460CF0EEFCA31D05F108001BB2FA
:102C40003FB200B2EA1CA11C0097CDF80C800193A2
:102C5000029012B2304609B20EF006FA04F1080BE7
:102C6000002707230FFA8BFB8DE888006A1C04F10C
:102C70000D0705F104083FB20FFA88F840F2FF7A19
:102C80005946304612B20D2306350CF0C3FC2DB266
:102C90004A4659463B463046CDF80080CDF804A060
:102CA000123410F097FD24B259463B462A4630466E
:102CB000CDF80080CDF804A010F08CFD4A462346E4
:102CC00039463046CDF80080CDF804A010F082FDE2
:102CD000CDF8008023462A463946CDF804A0304678
:102CE00010F078FD05B0BDE8F08F00BF94E9FF1F3C
:102CF0002DE9F04F504B1B7883B0002B48D1002AB0
:102D000000F08F80002A40DD8FB285B207F10A0BF8
:102D100096B20FFA80FA0CB20FFA8BFB07F1030997
:102D200005F105080FFA88F822460FFA89F953468B
:102D3000514642480196CDF800B0073710F04AFDE1
:102D40003FB22246434651463C480196CDF800909A
:102D50006C1F10F03FFD24B25A4651464346374897
:102D60000097019610F036FD23463A464146334817
:102D7000CDF80090019610F02DFD009723464A46AD
:102D8000414601962D4810F025FD03B0BDE8F08FB7
:102D9000002AB7D18EB206F10A0A0CB20FFA8AFAEB
:102DA0000FFA80F940F2FF7885B26F1D06F1030B30
:102DB0003FB20FFA8BFB22464B464946CDF800A0A6
:102DC000CDF804801D48073610F004FD36B22246C7
:102DD0003B464946CDF80480CDF800B01748053D84
:102DE00010F0F8FC2DB2524649463B468DE84001B2
:102DF000124810F0EFFC2B4632463946CDF800B0B1
:102E0000CDF804800D4810F0E5FC00962B465A469C
:102E10003946CDF80480094810F0DCFC03B0BDE869
:102E2000F08F8EB206F10A0A0CB20FFA8AFA0FFA84
:102E300080F947F6EF38B7E7AC1AFF1F94E9FF1F98
:102E40002DE9F04F3A4B85B21B7805F10A0785B0A2
:102E50000A4604B23FB20FFA81FA002B64D14FF454
:102E6000404692B23B4621460292CDF800A052461F
:102E70000196304810F0AEFC029B019603F10A085F
:102E80000FFA88F83B4642462146CDF80080294893
:102E900010F0A0FC0299019601F105090FFA89F9D9
:102EA000EB1C05F1010B04351BB2524621460FFA0B
:102EB0008BFB2DB2CDF800901E48039310F08AFCD6
:102EC0002B4659465246CDF800900196194810F00D
:102ED00081FC0399CDF8008023464A4601961548A7
:102EE00010F078FC5B464A462946CDF800800196F2
:102EF000104810F06FFC029C0196A01C00B25246D4
:102F00003B46394600900B4810F064FC04F108037E
:102F10001BB28DE8480042463B463946054810F052
:102F200059FC05B0BDE8F08F40F2FF7699E700BF8D
:102F3000C0A7FF1F94E9FF1F2DE9F0478DB282B0B3
:102F4000374E05F1040905F1110197B20FFA89F91D
:102F500003B209B284B24A4600913046194601973D
:102F600010F038FC631C05F110001BB200B21946CA
:102F70004A4600900197304610F02CFC05F10E08EF
:102F800004F108030FFA88F81BB219464A46CDF837
:102F900000803046019710F01DFC04F109031BB2BC
:102FA000CDF800804A4619463046019710F012FCD1
:102FB00004F1020904F1040A05F10D020FFA89F97E
:102FC0000FFA8AFA12B249465346009230460197E8
:102FD00010F000FC53464946CDF80080424630468A
:102FE000019710F0F7FB04F1050805F10C02073416
:102FF0000FFA88F824B212B22346414600923046B6
:10300000019710F0E7FB05F10B0212B2234641468F
:103010008DE88400304610F0DDFB02B0BDE8F0879B
:1030200094E9FF1F10B511F063FE092827DC324C2C
:10303000303030236070237011F06AFE092831DCD3
:1030400030303023E070A37011F022FE09283BDC01
:10305000303030236071237111F02AFE092845DDDC
:10306000264BC21783FB0013C2EBA30303EB8302BF
:10307000A0EB420030303033E071A37110BD1F4B24
:103080001D4C83FB0032C317C3EBA20303EB830287
:10309000A0EB4200303030336070237011F038FE06
:1030A0000928CDDD154BC21783FB0013C2EBA30328
:1030B00003EB8302A0EB420030303033E070A370AA
:1030C00011F0E6FD0928C3DD0C4BC21783FB00138A
:1030D000C2EBA30303EB8302A0EB4200303030339A
:1030E0006071237111F0E4FD0928B9DC3030302320
:1030F000E071A37110BD00BFE007FF1F6766666641
:103100002DE9F0432F4E002389B00746336008E0D5
:10311000336868460133336008F01AFC684608F0EB
:103120000BFC68460122394608F00EFE684608F09E
:103130001DFC0028ECD1384608F060FE684608F017
:10314000FBFB3568B5F1FE6F39D94FF0FF3015F054
:103150009BFC102380E8280000F108096C1E4DB18B
:103160004D462846013C002115F014FB631C05F177
:103170001005F6D13368DFF85080002BC8F80090B6
:103180001ADD002401223946684608F0DDFDD8F832
:103190000030684603EB041508F0D0FB01462846D2
:1031A00015F0ACFB684608F0D3FB684608F0C4FB9A
:1031B00033680134A342E5DC09B0BDE8F08328019F
:1031C0000830C4E714EDFF1FF0EDFF1F08B5C8225B
:1031D0004FF4DC71112015F0F9F9DC2013F098F9A7
:1031E000C8224FF4DC71112015F0F0F9DC2013F047
:1031F0008FF91120C8224FF4DC7115F0E7F9DC20BB
:10320000BDE8084013F084B970B594B00CA8012350
:103210004F4A504908F008FD0CA808F0A7FB20B958
:103220000CA808F089FB14B070BD68464A494B4EA3
:1032300015F0B0FA0CA808F0EBFA90B10CA808F061
:1032400005FBC3B2392B1946684606D80A2B13D0A2
:1032500015F096FB029B202BECD9FFF7B7FFFFF789
:10326000B1F90CA808F074FB684615F053FA0CA8E5
:1032700008F062FB14B070BD2C21684615F0C0FB4D
:1032800005466C1C03464FF00002694604A8334C07
:10329000E3D015F0C5FB6A1C029B694608A815F02F
:1032A000BFFB04A815F0E0FB054608A815F0DCFB01
:1032B000294946F82500684615F020FB08A815F0B6
:1032C00029FA04A815F026FA40F6FF739D42B1D101
:1032D000234B2068186000221346226054F8231004
:1032E0000133B3F5805F0A44F8D140BB1D4B186031
:1032F0001D4B1E4A186811681D4CFFF723F91D4825
:10330000002323602646054650F823102268914288
:1033100084BF55F8232032600133B3F5007FF3D129
:103320002368012B01D9FFF739F8236863B94FF4FB
:103330007A7013F0EDF80CA808F00AFB91E7094B3E
:10334000B2FBF0F21A60D3E7FFF7CCF8EFE700BF6B
:10335000E007FF1F140E0020F4A804006064FF1FA4
:1033600058EDFF1FA01AFF1F1064FF1F5808FF1F12
:10337000CCA7FF1FB01AFF1F30B595B00CA80123D2
:10338000324A334908F050FC0CA808F0EFFA20B993
:103390000CA808F0D1FA15B030BD68462D492E4D65
:1033A00015F0F8F90CA808F033FA80B10CA808F071
:1033B0004DFAC3B2392B1946684606D80A2B11D0EC
:1033C00015F0DEFA029B202BECD9FFF7FFFE0CA8CC
:1033D00008F0BEFA684615F09DF90CA808F0ACFAA2
:1033E00015B030BD2C21684615F00AFB0446B4F137
:1033F000FF3F03464FF00002694604A8E5D015F0F0
:103400000FFB621C029B694608A815F009FB04A883
:1034100015F02AFB044608A815F026FB0D4945F8CF
:103420002400684615F06AFA08A815F073F904A894
:1034300015F070F940F6FF739C42B3D14FF47A70E7
:1034400013F066F80CA808F083FAC0E7381F0400F0
:10345000140E0020F4A80400A4A8FF1F2DE9F041D9
:103460002DED028B98B008A808F058FAAB49AC488B
:1034700008F04EFC002840F01E81AA49A84808F038
:1034800047FC002840F09380A749A54808F040FC7D
:1034900050B908A808F05CFA08A808F04DFA18B06E
:1034A000BDEC028BBDE8F08110AD01239E4A9C4922
:1034B000284608F0B9FB9DF84410129A9DF84C304C
:1034C0008DF824100A928DF82C3013A90DF12D03DC
:1034D0000DF13A0211F8010F03F8010B9342F9D1F3
:1034E000179B0F93284608F027FA08A808F03EFA21
:1034F0000028CED068468D49DFED8D8ADFF8348212
:103500006C4615F047F9002608E015F039FA029BE1
:10351000202B00F28081322E00F05F8108A808F095
:1035200077F9002800F05C8108A808F08FF9C3B291
:10353000392B1946204600F26E810A2BE5D12E2147
:10354000204615F05DFA0746B7F1FF3F03462146D6
:1035500004A84FF0000200F05E8115F061FA7A1CB9
:10356000029B2146284615F05BFA04A815F07CFA68
:1035700008EE100A284615F077FA07EE900AB8EE22
:10358000E77AB8EEC88AC7EE287A08EB860367495F
:103590002046013677EE887AC3ED007A15F0AEF951
:1035A000284615F0B7F804A815F0B4F8B3E710AD45
:1035B00001235C4A5A49284608F036FB9DF844101E
:1035C000129A9DF84C308DF824100A928DF82C3008
:1035D00013A90DF12D030DF13A0211F8010F03F8B3
:1035E000010B9342F9D1179B0F93284608F0A4F9D9
:1035F00008A808F0BBF900283FF446AF68464B49DD
:10360000DFED4B8ADFF830816C4615F0C3F80026F9
:1036100008E015F0B5F9029B202B00F20281322E52
:1036200000F0E58008A808F0F3F8002800F0E28038
:1036300008A808F00BF9C3B2392B1946204600F24E
:10364000F0800A2BE5D12E21204615F0D9F9074646
:10365000B7F1FF3F0346214604A84FF0000200F0F7
:10366000E08015F0DDF97A1C029B2146284615F012
:10367000D7F904A815F0F8F908EE100A284615F055
:10368000F3F907EE900AB8EEE77AB8EEC88AC7EE0B
:10369000287A08EB860325492046013677EE887A9A
:1036A000C3ED007A15F02AF9284615F033F804A87E
:1036B00015F030F8B3E710AD0123184A1849284631
:1036C00008F0B2FA9DF84410129A9DF84C308DF82B
:1036D00024100A928DF82C3013A90DF12D030DF151
:1036E0003A0211F8010F03F8010B9342F9D1179B2D
:1036F0000F93284608F020F908A808F037F90028A9
:103700003FF4BBAE68460949DFED098ADFF82C803B
:103710006C4615F03FF8002619E000BF0008FF1FB7
:10372000140E00203008FF1F4408FF1FF4A80400F7
:10373000286B6E4EDCA7FF1FB022FF1F48ECFF1F57
:1037400015F01EF9029B202B68D8322E59D008A8FC
:1037500008F05EF8002857D008A808F077F8C3B240
:10376000392B1946204659D80A2BE9D12E2120465B
:1037700015F046F90746B7F1FF3F0346214604A876
:103780004FF000024AD015F04BF97A1C029B2146FB
:10379000284615F045F904A815F066F908EE100A58
:1037A000284615F061F907EE900AB8EEE77AB8EE10
:1037B000C88AC7EE287A08EB86031B4920460136E3
:1037C00077EE887AC3ED007A15F098F8284614F061
:1037D000A1FF04A814F09EFFB7E708A808F0B8F806
:1037E00008A808F0B5F8204614F094FF51E608A8A0
:1037F00008F0AEF808A808F0ABF8204614F08AFFED
:1038000042E608A808F0A4F808A808F0A1F82046A5
:1038100014F080FF31E6FFF7D9FCE1E7FFF7D6FCB3
:10382000F2E7FFF7D3FCE5E7F4A8040008B564224B
:103830004FF45C71112014F0C9FE652012F068FE8F
:10384000642240F21741112014F0C0FE652012F0EE
:103850005FFE1120642240F2275114F0B7FE65206C
:10386000BDE8084012F054BE08B5C82240F2275106
:10387000112014F0ABFEC92012F04AFE1120DC2208
:1038800040F2174114F0A2FEDD20BDE8084012F01E
:103890003FBE00BF70B594B0FFF7C4FB394B3A4848
:1038A00018603A4A3A490CA8132308F0BDF90CA84D
:1038B00008F05CF820B90CA808F03EF814B070BD10
:1038C0003449354E08A814F065FF344A3449354B65
:1038D00012681B68096804A801FB02310A2214F06F
:1038E0009FFF04A908A815F05BF801462E4814F0C4
:1038F000F5FF04A814F00EFF08A814F00BFF2A49E6
:103900000CA814F033FC0CA814F056FC01240A2275
:103910002146684614F070FF694604A814F04EFF73
:10392000224904A815F044F80A2256F82410054646
:1039300008A814F089FF08A9284615F031F80146B7
:10394000194814F0CBFF08A814F0E4FE04A814F002
:10395000E1FE684614F0DEFE13490CA814F006FCE4
:1039600001340CA814F028FCB4F5805FCFD1FFF728
:103970007BFF0CA807F0ECFF0CA807F0DDFF14B0EC
:1039800070BD00BF800E0020B5040000E007FF1FDF
:10399000140E0020481F04006064FF1F90E9FF1F01
:1039A000C008FF1F58EDFF1F4864FF1F4C1F040095
:1039B000F8B51248124F00253D602C4629462B468B
:1039C000064650F823208A4203D956F823400125A1
:1039D00021460133B3F5805FF3D165B9094B9942B4
:1039E00008D9094C01232370FFF754FFFEF7EAFDC5
:1039F00000232370F8BD3C60F0E700BF6064FF1F48
:103A00001464FF1F809698009CA7FF1F70B52B4978
:103A10002B4894B008F07CF9002849D1294B2A485A
:103A20001860264A26490CA8132308F0FDF80CA8B4
:103A300007F09CFF002836D0244E00240A2221469D
:103A4000684614F0D9FE694604A814F0B7FE204970
:103A500004A814F0ADFF0A2256F82410054608A861
:103A600014F0F2FE08A9284614F09AFF01461948FE
:103A700014F034FF08A814F04DFE04A814F04AFE18
:103A8000684614F047FE13490CA814F06FFB01348C
:103A90000CA814F091FBB4F5805FCFD1FFF7E4FEE2
:103AA0000CA807F055FF0CA807F046FF14B070BD36
:103AB0000249034808F03AF9B0E700BF381F040094
:103AC000140E0020800E0020B50400006064FF1F6B
:103AD0004C1F04004864FF1F38B5352444F6B02558
:103AE0000121112012F0FAFC2B46013BFDD10021EF
:103AF000112012F0F3FC2B46013BFDD1013CEFD12C
:103B0000412443F638350121112012F0E7FC2B4601
:103B1000013BFDD10021112012F0E0FC2B46013BBE
:103B2000FDD1013CEFD1352444F6B025012111200F
:103B300012F0D4FC2B46013BFDD10021112012F0E4
:103B4000CDFC2B46013BFDD1013CEFD138BD00BF80
:103B50002DE9F04F2DED028B0A2083B0D24F12F0E9
:103B6000D7FC00243D46204611F068FE0134042CA9
:103B700005F8010BF7D1CD4D204611F05FFE013461
:103B8000082C05F8010BF7D1DFF88C934D46204641
:103B900011F054FE01340C2C05F8010BF7D1C44D83
:103BA0002E46204611F04AFE0134102C06F8010B77
:103BB000F7D1C04EB246204611F040FE0134142C1D
:103BC0000AF8010BF7D1DFF854A3D346204611F0D1
:103BD00035FE0134182C0BF8010BF7D1DFF840B398
:103BE0002424D846204611F029FE0134282C08F858
:103BF000010BF7D19BED008ADFEDAF7AB4EEE78AD7
:103C0000F1EE10FA00F34981DFEDAC7AB4EEE78A09
:103C1000F1EE10FA00F14181DFF808B32924D8460B
:103C2000204611F00BFE01342D2C08F8010BF7D1C2
:103C3000DBED007A9FEDA27AF4EEC77AF1EE10FA8E
:103C400000F324819FED9D7AF4EEC77AF1EE10FA2D
:103C500000F11C81B0EE007AF0EE086AB0EE676AFF
:103C6000A8EE076A974B984AE8EE267A282082ED5C
:103C7000006AC3ED007A11F0E1FD944B002840F09A
:103C800057811870192011F0D9FD0828904C00F3C5
:103C900058812060002800F061811F2011F0CEFDC6
:103CA000642300FB03308B4A44F620639842106083
:103CB00000F2CF81DFF870B21A24204611F0BEFD69
:103CC00001341E2C0BF8010BF7D1DFF860B2202471
:103CD000204611F0B3FD0134242C0BF8010BF7D171
:103CE000182011F0ABFD022800F2A7817A4B187062
:103CF000D5ED007A002840F03B819FED787A77EE91
:103D0000C77AFDEEE77A17EE903A63B9D6ED007AFE
:103D10009FED737A77EEC77AFDEEE77A17EE903A69
:103D2000002B00F0A18102AC4FF0844344F8043D25
:103D300004220C21204611F0C3FD0A2012F0E8FBFA
:103D4000684B019304221021204611F0B9FD0A208E
:103D500012F0DEFB644B019320460422142111F083
:103D6000AFFD0A2012F0D4FBFFF730FA4FF0844386
:103D70005C4A2B605C4B3260CAF80030D7ED007AA9
:103D8000F5EEC07AF1EE10FA06D99FED587AF4EE0E
:103D9000C77AF1EE10FA0BDD02A8554B40F8043D4E
:103DA000042200213B6011F08BFD0A2012F0B0FBD1
:103DB0003E4BD3ED007AF5EEC07AF1EE10FA06D95B
:103DC0009FED4A7AF4EEC77AF1EE10FA0CDD02A804
:103DD000484B364C40F8043D04221146236011F054
:103DE0006FFD0A2012F094FBD9ED007AF5EEC07A4F
:103DF000F1EE10FA06D99FED3D7AF4EEC77AF1EEB6
:103E000010FA0CDD02A83C4B40F8043D04220821C6
:103E1000C9F8003011F054FD0A2012F079FB2D2072
:103E200011F00CFD05462E2011F008FD334E00EB7D
:103E300005252F20356011F001FD0446302011F0DA
:103E4000FDFC2F4B00EB04208542186040F3D3802B
:103E50000A2140F6F672322031601A6011F0EEFC51
:103E6000012840F2DA800021322011F001FD254BBB
:103E700000221A702449254B254808604FF07C52D7
:103E80001A6003B0BDEC028BBDE8F08F9FED217A84
:103E9000F0EE477A8BED007ADCE6F2EE047AB0EED3
:103EA000678ACBED007AB7E65CEDFF1F60EDFF1F80
:103EB0003064FF1F3464FF1F0000C842CDCCCC3DEE
:103EC00000009643B8A7FF1F3C64FF1FC0A7FF1F59
:103ED0005808FF1FC008FF1F74EDFF1F00000042BD
:103EE00000802544008025440080B64400F07F45D2
:103EF0000000D04200007A44008006459008FF1F71
:103F00002008FF1F4064FF1F1408FF1F1808FF1F31
:103F10000000A0400000164364EDFF1F3864FF1F3F
:103F20002808FF1FD807FF1F7408FF1F5C08FF1F2A
:103F3000012219201A7011F081FC08287D4C7FF7AE
:103F4000A8AE082319461920236011F091FC0A201D
:103F500012F0DEFA206800287FF49FAE0123194694
:103F60001920236011F084FC0A2012F0D1FA94E6A3
:103F7000012800F087809FED707A77EEC77AFDEE1A
:103F8000E77A17EE903A63B9D6ED007A9FED6B7A37
:103F900077EEC77AFDEEE77A17EE903A002B00F045
:103FA000BA8002AC664B44F8043D04220C21204642
:103FB00011F086FC0A2012F0ABFA624B0193042246
:103FC0001021204611F07CFC0A2012F0A1FA5E4B71
:103FD000019320460422142111F072FC0A2012F0F1
:103FE00097FAFFF7F3F8564B564A2B60564B326060
:103FF000CAF80030C2E6092DDCBF0A223260B0F5F3
:10400000805FA8BF40F6F6724FF03200A8BF1A607A
:1040100011F014FC01283FF626AF4C4B1870002815
:104020003FF428AF4A494B4B4B4A4C4808601A6052
:1040300003B0BDEC028BBDE8F08F0023484C19465D
:104040001820237011F014FC0A2012F061FA207875
:104050004EE64FF4616324211F20136011F008FC29
:104060000A2012F055FA25E6DAED007A9FED3D7A46
:1040700077EEC77AFDEEE77A17EE903A002B3FF421
:1040800075AE50E69FED387A77EEC77AFDEEE77AA7
:1040900017EE903AABB9D6ED007A9FED347A77EE11
:1040A000C77AFDEEE77A17EE903A53B9DAED007A67
:1040B0009FED2F7A77EEC77AFDEEE77A17EE903A0A
:1040C0000BB302AC2B4B44F8043D04220C212046D8
:1040D00011F0F6FB0A2012F01BFA274B0193042281
:1040E0001021204611F0ECFB0A2012F011FA234BAC
:1040F000019320460422142111F0E2FB0A2012F061
:1041000007FAFFF763F81B4B1B4A2B601B4B32600F
:10411000CAF8003032E6DAED007A9FED197A77EED0
:10412000C77AFDEEE77A17EE903A002B3FF45BAFCB
:1041300037E700BF5808FF1F00003A43004018440B
:1041400000003A43004018440000DC444064FF1F74
:104150001408FF1F1808FF1FCDCCCC3E0000E04024
:1041600074EDFF1F0080B6440000F4420000AC4331
:104170000000B0440000F4420000AC430000B04432
:104180000000DC44174A184B92ED007AD3ED007A18
:1041900016491748B8EE477AF8EE677A0022C7EE5C
:1041A000276AF1EE666A51F8223007EE903A50F82D
:1041B000223007EE103AF8EE677AB8EE477AE6EE6C
:1041C000877AF5EEC07AF1EE10FA56BFFCEEE77A88
:1041D000002317EE903A41F822300132B2F5805FA9
:1041E000E1D1704758EDFF1FC008FF1F6064FF1F3B
:1041F000A4A8FF1F40F63C739842F0B540DC63284A
:104200005FDC3249324A002351F8230042F8230090
:104210000133C92BF8D12F4E00214C1C52F821003C
:1042200052F824C02A4D8B1C01F1030E0F1D52F8C9
:104230002EE052F8233052F8277000EB800000EB9C
:104240008C00384400EB4E0003EB43030344A6FB11
:104250000303DB08C52C42F821302146DDD1D5F817
:104260001033C5F81433D5F81033C5F81833D5F822
:104270001033C5F81C33D5F81033C5F82033F0BD22
:10428000184640F63D7440F6D8661049104A00239F
:104290009D190E4F51F8255042F823500133642BDD
:1042A0000B4DF5D157F82030C5F89031652351F802
:1042B000240042F823000133C92B04F10104F6D194
:1042C000A9E7A0F16406441CDFE700BF6064FF1F9C
:1042D00078A4FF1F898888886328F0B52FDC00F157
:1042E0000A01A0F10A032D4C54F8235054F8212060
:1042F00000262A448B424FEA520E31460CDC00F174
:104300000B05274654F823208A4284BF57F8231010
:104310001E460133AB42F5D186423BD1BEFBF1F2E2
:1043200007EE902A9FED1E7AF8EEE77AF4EEC77A50
:10433000F1EE10FA2ED51B4B01201E60F0BDA0F14E
:104340006403164C643054F8231054F820200023E2
:104350000A44560820461D46194654F823208A422E
:1043600084BF50F823101D460133C92BF5D1642DAD
:1043700010D1B6FBF1F207EE902A9FED097AF8EE24
:10438000E77AF4EEC77AF1EE10FA03D5054B012077
:104390001D60F0BD4FF0FF30F0BD00BF78A4FF1FDF
:1043A0006666663F8C08FF1F2DE9F04F2DED028BEE
:1043B00083B016F0C1FD41EC100B14F015FE51EC6A
:1043C000100B17F0CFF8734B734D1E683128A8BF40
:1043D00031200023642E19BF06F1FF3B741C6524B5
:1043E0004FF0630B1A4655F823100133C82B0A44CB
:1043F000F9D1B2F5FA7FC0F0AB804FEA400ACAEBC0
:104400000B0B5E4540F3AE8000FB0AF007EE900A0E
:10441000B8EEE78A0027C6EB0B0307EE903AF8EEFA
:10442000E77A67EEA77A87EE887AF1EE477A17EE99
:10443000900A16F093FD41EC100B14F0C9FC53ECFC
:10444000102B55F82B00CDE9002316F065FDDDE9B2
:10445000002316F0D7FD80463846894616F07EFDCB
:1044600002460B464046494616F01AFC17F0C2F8C1
:104470000BF1010B5E450746CDD104EB0A0B5C4501
:104480007CDA4FF0000AA31B07EE903AF8EEE77AC9
:1044900067EEA77A87EE887AF1EE477A17EE900AF0
:1044A00016F05CFD41EC100B14F092FC53EC102B59
:1044B00055F82400CDE9002316F02EFDDDE9002398
:1044C00016F0A0FD80465046894616F047FD02468C
:1044D0000B464046494616F0E3FB17F08BF80134D3
:1044E0005C458246CFDB07EE10AA07EE907A77EEA6
:1044F000C77AF5EEC07AF1EE10FAD8BFF1EE677A1E
:1045000017EE900A16F02AFD044638460D4616F0BE
:1045100025FD02460B462046294616F09DFE002248
:104520001E4B16F0E1FF98B1504616F017FD0246FB
:104530000B462046294616F08FFE0022174B16F038
:10454000D3FF28B1012003B0BDEC028BBDE8F08F92
:10455000134B00224FF0FF301A6003B0BDEC028B0A
:10456000BDE8F08F04EB0A0B5C450ADA00FB0AF0A9
:1045700007EE900A0027B8EEE78A82E74FF0000ABC
:10458000B1E70022002300244FF000454FF0000A5D
:10459000C1E700BF8C08FF1F78A4FF1F0000D03FB9
:1045A000ACA7FF1F002A2DE9F043C0EB010898FBE0
:1045B000F2F850DDDFF8B0E09FED297A294F4FF097
:1045C000000C08F1FF39B8F1000F46DD814244DBF1
:1045D000034609EB0006002401E0994206DB57F888
:1045E00023509E422C4403F10103F6D107EE904A7A
:1045F000F8EE677A77EE877A40440EEB8C038142BF
:10460000C3ED007A03DB0CF1010C6245DBD1002322
:10461000B7EE007A0EEB8301D1ED007AF4EEC77AA3
:10462000F1EE10FA03F10103C8BF91ED007A9A424E
:10463000F0D107EE902AB8EEE76A00230EEB830173
:10464000D1ED007A66EE277A0133C7EE876A9A4287
:10465000C1ED006AF2DCBDE8F083DFED017ACBE763
:10466000000000006064FF1FA4E8FF1F70B590B059
:104670000446684607F052F9022C00F08980032CAA
:1046800058D0012C27D0684607F070F9D8B15E4E9B
:10469000002408AD06EB840393ED000A09212846A7
:1046A00014F0E6F82946594814F020F9284614F089
:1046B00031F85649684613F059FD0134684613F045
:1046C0007BFD322CE6D1684607F042F9684607F0D8
:1046D00033F910B070BD4E494E4807F019FB002861
:1046E00040F08D804C4B32221968002008ADFFF756
:1046F00059FF1323464A4749284607F095FA9DF883
:1047000024100A9A9DF82C308DF8041002928DF82E
:104710000C300BA90DF10D020DF11A0311F8010F68
:1047200002F8010B9A42F9D10F9B0793284607F034
:1047300003F9A8E73949374807F0EAFA002859D1C0
:10474000354B32221968002008ADFFF72BFF1323E9
:10475000324A3049284607F067FA9DF824100A9A31
:104760009DF82C308DF8041002928DF80C300BA9B6
:104770000DF10D020DF11A0311F8010F02F8010BF2
:104780009A42F9D10F9B0793284607F0D5F87AE7AC
:104790002349204807F0BCFA38BB224B3222196863
:1047A000002008ADFFF7FEFE13231D4A19492846D5
:1047B00007F03AFA9DF824100A9A9DF82C308DF8EB
:1047C000041002928DF80C300BA90DF10D020DF1C1
:1047D0001A0311F8010F02F8010B9A42F9D10F9B4D
:1047E0000793284607F0A8F84DE70D49094807F058
:1047F0009DFAD2E70949074807F098FAA0E704496B
:10480000044807F093FA6DE7A4E8FF1F4864FF1F10
:104810003008FF1F140E00200864FF1F4408FF1F0C
:104820000008FF1F0C64FF1F2DE9F04302282DED47
:10483000068B00F01F81032800F0A280012808D019
:10484000BDEC068BE74B00224FF0FF301A70BDE83D
:10485000F083002940F302829FEDE34ADFF8CC8326
:10486000DFF8CCC3DFF8CCE3E04FE14EE14DDFED04
:10487000E29A9FEDE29AE24CDFF8BC93F0EE448AB4
:10488000B0EE448AB0EE440AF0EE442AF0EE440A58
:10489000B0EE441AF0EE441AB0EE442AB0EE443AB8
:1048A000F0EE443A00200BE0B8EC010ABCEC018ABF
:1048B000FEEC018AB7EC014AB6EC019AF5EC019ADC
:1048C0008200A3184A44D3ED004A93ED005AD3ED79
:1048D000005A93ED006AD3ED006A93ED007AD3EDB0
:1048E000007A92ED00AA74EEC04A35EE485A75EE91
:1048F000E85A36EE446A76EEC96A37EE697A77EEA0
:10490000CA7A01308142E4EEA43AA5EE053AA5EE5A
:10491000A52AE6EE061AA6EEA61AE7EE070AE7EEC5
:10492000A72AC1D1B74BD3ED007AF4EEE37AF1EECA
:1049300010FA1EDAF4EEC37AF1EE10FA19DAF4EE98
:10494000C27AF1EE10FA14DAF4EEE17AF1EE10FA2E
:104950000FDAF4EEC17AF1EE10FA0ADAF4EEE07A48
:10496000F1EE10FA05DAF4EEE27AF1EE10FAFFF663
:1049700067AFBDEC068B9B4B01201870BDE8F08340
:10498000002940F37A819FED984ADFF8B082DFF882
:10499000B0C2DFF8B0E29C4F9C4E9D4DDFED9D9A7A
:1049A000974CDFF8A492B0EE449AF0EE448AB0EE51
:1049B000448AB0EE440AB0EE443AF0EE441AB0EE47
:1049C000441AF0EE440AB0EE442AF0EE442AF0EE27
:1049D000443A00200BE0B8EC010ABCEC018AFEEC82
:1049E000018AB7EC019AB6EC014AF5EC019A820013
:1049F000A3184A44D3ED004A93ED005AD3ED005A70
:104A000093ED006AD3ED006A93ED007AD3ED007A5E
:104A100092ED00AA74EEC04A35EE485A75EEE85A97
:104A200036EE496A76EEC46A37EE697A77EECA7A6C
:104A300001308142E4EEA43AE5EE052AA5EEA52A6E
:104A4000E6EE060AA6EEA61AE7EE071AA7EEA73AC2
:104A5000C1D1714BD3ED007AF4EEE37AF1EE10FAA6
:104A6000C0F28D80BDEC068B5E4B012203201A70D4
:104A7000BDE8F083002940F3A780DFED5B4ADFF853
:104A8000CCC1DFF8CCE1654F654E664D5C4CDFF87C
:104A9000C481B0EE648AB0EE640AF0EE640AB0EE4F
:104AA000641AF0EE643AB0EE642AF0EE641AF0EEA6
:104AB000642AB0EE643AB0EE644A002009E0BCEC2F
:104AC000011AFEEC010AB7EC010AB6EC018AF5EC1A
:104AD000014A8200A318424493ED005AD3ED005AD4
:104AE00093ED006AD3ED006A93ED007AD3ED007A7E
:104AF000D2ED008A35EE415A75EEE05A36EE406A44
:104B000076EEC86A37EE647A77EEE87A0130814251
:104B1000A5EE054AA5EEA53AE6EE062AE6EEA61AA9
:104B2000A7EE072AE7EEA73AC9D13F4BD3ED007AAB
:104B3000F4EEC47AF1EE10FA07DBBDEC068B294BDC
:104B4000012202201A70BDE8F083F4EEC37AF1EE80
:104B500010FAF2DAF4EEE27AF1EE10FAEDDAF4EEAF
:104B6000E17AF1EE10FAE8DAF4EEC27AF1EE10FA38
:104B7000E3DAF4EEE37AF1EE10FADEDA60E6F4EE70
:104B8000E27AF1EE10FABFF66DAFF4EEC27AF1EE12
:104B900010FABFF667AFF4EEE07AF1EE10FABFF666
:104BA00061AFF4EEC17AF1EE10FABFF65BAFF4EE4E
:104BB000E17AF1EE10FABFF655AFF4EEC37AF1EEFA
:104BC00010FABFF64FAF3BE6DFED073AB0EE632ACF
:104BD000F0EE631AF0EE632AB0EE633AB0EE634A89
:104BE000A3E700BF4017FF1F00000000502E040085
:104BF0002C900400F82B04008FE3A93CAD42B63C96
:104C0000A4E8FF1F1008FF1F648F0400A0FF01002D
:104C1000D82804005AA8A13BC408FF1FA0290400FB
:104C2000302B0400882D04004008FF1FD8FE01002F
:104C3000C02C040010280400B022FF1F682A0400C2
:104C4000182F0400D48D0400DCA7FF1F68000200A9
:104C50009C8E040048ECFF1F000000005FED022A5C
:104C6000F0EE620AB0EE621AF0EE621AB0EE622A5C
:104C7000B0EE623AF0EE623A54E61FED093AF0EE19
:104C8000431AB0EE431AF0EE430AB0EE432AF0EEB8
:104C9000432AF0EE433ADCE630B55A4B83B019684C
:104CA00032220020FFF77EFC32210120FFF7BCFDFD
:104CB000012813D032210320FFF7B6FD032845D089
:104CC000514B322219680020FFF76CFC3221022080
:104CD000FFF7AAFD022871D003B030BD2D254B4B44
:104CE00001930F222B464FF4B971494800950BF000
:104CF000E9F9002414222B468DE814004FF4B97111
:104D00003C2243480AF086FC23463D2240F27711BC
:104D10003F480EF0ABF84FF6FF713D480EF012F928
:104D20003C493B48FCF79EFE2346472240F27F1158
:104D300037480EF09BF84FF6FF7135480EF002F938
:104D400035493348FCF78EFE03B030BD2D252F4B7F
:104D5000019300952B460F224FF4B9712C480BF0AC
:104D6000B1F9002414222B468DE814004FF4B971D8
:104D70003C2227480AF04EFC23463D2240F27711A0
:104D800023480EF073F84FF6FF7121480EF0DAF861
:104D900022491F48FCF766FE234647224FF4BA71AA
:104DA0001B480EF063F84FF6FF7119480EF0CAF871
:104DB0001B491748FCF756FE03B030BD2D25134B99
:104DC00001930F222B464FF4B971114800950BF057
:104DD00079F900240A222B468DE814004FF4B971AA
:104DE0003C220B480AF016FC23463D2240F2771184
:104DF00007480EF03BF84FF6FF7105480EF0A2F899
:104E000008498EE70864FF1F0C64FF1FDC2F0400B5
:104E100094E9FF1F501F0400581F04005C1F04008A
:104E2000641F0400701F040070B586B001A9012240
:104E3000384810F09DF8002848D09DF80430222B07
:104E400005D0282B03D0102B5FD006B070BD0026F4
:104E500030480FF0CBFF01A92E4810F069F801226D
:104E600044212C4810F034F84FF47A7011F050FBC4
:104E700028480FF0BBFF01A9264810F059F800227E
:104E8000BE21244810F024F80DF10B0405AD214893
:104E900010F03EF804F8010FAC42F8D19DF80D2057
:104EA0009DF80C3043EA02231BB2BEB19DF81320DB
:104EB000102A4FEAC30320D01BB207EE903A164ADD
:104EC000FAEECE7AC2ED007A06B070BD114810F04D
:104ED00041F8FA2011F01CFB06B070BD9DF81020BF
:104EE00012F0600206D0202A11D0402A08BF23F019
:104EF0000103E2E723F00703DFE79DF8122023F028
:104F00000F03C2F10C021344D6E70126A0E723F0F9
:104F10000303D2E71C64FF1FA81AFF1F10B50D4C36
:104F2000217861B9242011F0D9FA012011F0F0FAAA
:104F30000121242011F0D2FA0123237010BD002199
:104F4000242011F0CBFA0A2011F0E2FA002323709A
:104F500010BD00BFAC1AFF1F012814DD38B505468F
:104F600001240121152011F0B9FA642011F0D0FAC2
:104F70000021152011F0B2FA0134642011F0C8FAB2
:104F8000A542EED138BD704710B50121152011F0B2
:104F9000A5FA0F4C0F4B0A2219682046002313F084
:104FA00031F905210C4811F037FD0C4B186815F04C
:104FB000D5FF41EC100B2046022113F06DF9084893
:104FC000052111F029FD2046BDE8104013F0F4B88A
:104FD0008C0CFF1FA01AFF1F781F040068EDFF1F35
:104FE000801F0400184A1949194B92ED006AD1ED4F
:104FF000005AD3ED006A192040F6E77202E0013052
:1050000090421ED007EE900A00FB00F3F8EEE77A1C
:1050100007EE103A67EE867AB8EEC77AE7EE257AA1
:1050200077EEA67A70EE677AF5EEC07AF1EE10FAB6
:10503000D8BFF1EE677AF4EEE07AF1EE10FADED83E
:1050400070474FF0FF3070472408FF1F50EDFF1FDF
:10505000C817FF1F4F4BDFED504A93ED005A2DE963
:10506000F0474E4EDFF84CA1DFF84C91DFF84C8151
:105070004B4F4FF0FF333360CAF80030C9F80030AF
:10508000C8F800303B60012407EE904AF8EEE70ACA
:10509000B0EE450A70EEA40A0134FFF7A3FF0B2C13
:1050A00066D17A23336001253E4BDFED3B4A93ED19
:1050B000005A012407EE904AF8EEE70AB0EE450ADE
:1050C00070EEA40A0134FFF78DFF0B2C4BD140F298
:1050D0006E23CAF800300125334BDFED2F4A93EDE4
:1050E000005A012440F2345A07EE904AF8EEE70ADB
:1050F000B0EE450A70EEA40AFFF774FF01340A2CE3
:10510000C9F8000002DDC6F800A001250130EBD08F
:105110009FED215A012407EE904AF8EEE70A9FED31
:10512000230A70EE850A0134FFF75CFF0B2C2BD1AC
:105130004FF43E73C8F8003001259FED175A012443
:1051400007EE904AF8EEE70A9FED190A70EE850A1D
:105150000134FFF747FF0B2C0FD190233B60BDE8D4
:10516000F047FEF733B8CAF800000130A2D0B3E729
:105170003060013088D0002596E738600130DFD0FC
:10518000002DECD1BDE8F087C8F800000130C2D096
:10519000D3E700BFF407FF1F0000000044ECFF1F2F
:1051A0000C64FF1FF807FF1FFC07FF1F00003E44B1
:1051B00000001043A4A7FF1FA8A7FF1F0864FF1F3C
:1051C0001C4B1D491B681D4A096812681C48C91AF6
:1051D00070B407EE101A1B4C90ED006AD4ED005A23
:1051E000194E1A4D1A4C1B489A1AF8EEC76A07EE68
:1051F000102AF7EE007A37EEC66A75EEE75AB8EE77
:10520000C77A85EEA65AC6EE076A07EE103AB8EEE0
:10521000C77AB0EE676AA5EE476AE7EE667A86ED72
:10522000005A85ED006AC4ED007AC0ED006A70BCDA
:10523000704700BFA4A7FF1F44ECFF1FA8A7FF1FD4
:105240001808FF1F1408FF1F8808FF1F5408FF1FBE
:10525000DC07FF1F7008FF1F514A524B11681A6884
:105260009FED517A30B4514C914284ED007A13DABB
:105270004F4B504893ED006A30F811309BB207EE67
:10528000903AF8EEE77A0131C7EE866A914237EE3E
:10529000267AF1D184ED007A474B1B68934229DDD1
:1052A00046484749D0ED004A91ED005AD4ED006AD6
:1052B0004048B7EE006A07EE902AF8EEE77AB0EEC3
:1052C000457AA4EEA77A30F8121089B207EE901A48
:1052D000B4EE467AF1EE10FAF8EEE77A48BFB0EE97
:1052E000467AC7EE875A01329A4276EEA56AE2D133
:1052F000C4ED006A334A1168994235DD3248334DB6
:10530000334AD0ED004A95ED004AD2ED005AD4ED73
:10531000006A2848B7EE006A07EE903AF8EEE77A9E
:10532000B0EE647AA7EE847A30F8132092B2F0EEF1
:10533000477AF4EE657AF1EE10FA48BFF0EE657A3E
:1053400007EE102AF4EE467AF1EE10FAB8EEC77ABC
:10535000C8BFF0EE467A87EE275A01338B4276EECD
:10536000856AD9D1C4ED006A1A4B1A68914215DAE0
:10537000174B94ED007A93ED006A0E4830F8113027
:105380009BB207EE903AF8EEE77A0131C7EE866AF3
:10539000914237EE267AF1D184ED007A30BC704725
:1053A0009008FF1F44ECFF1F00000000A0A7FF1F94
:1053B0001408FF1FF4EDFF1FA4A7FF1F8808FF1F9D
:1053C0005408FF1FA8A7FF1FDC07FF1F7008FF1F5F
:1053D0001808FF1F2008FF1F2DE9F04F2DED0A8B45
:1053E00001288BB0894640F35F81B44B98428246D6
:1053F00040F35F81DFEDB29A9A46B24CD4ED007A69
:10540000F4EE697AF1EE10FA00F04981AAF51C5326
:10541000113BAAF5C3320893A2F1A1030993AAF1A3
:105420000B030593AAF1650306936FF47A73534453
:10543000A54EA64D9FEDA69A9FEDA68ADFEDA68A02
:10544000079313E194ED007AF7EE007A37EE677A6E
:10545000F3EE097A27EE277AF2EE026AC7EE267A91
:1054600077EEC97A059B592B0DD894ED007AF2EEB0
:10547000067A37EE677AF3EE087A27EE277AC7EED8
:10548000087A77EEE87A069BB3F5617F11D29FED3B
:10549000937AD4ED006A9FED926ADFED927A76EE10
:1054A000C76AB3EE087A66EE876A86EE867A77EE8A
:1054B000677A079A42F227339A420FD8DFED8A7A49
:1054C00094ED007ADFED896A37EE677AF3EE087AB9
:1054D00027EE277AC7EE267A77EEC87A844B089AA9
:1054E0009A4211D89FED837AD4ED006A9FED826ACB
:1054F000DFED827A76EEC76AB3EE087A66EE876AE7
:1055000086EE867A77EE677A099A4CF24F339A42A2
:1055100011D89FED7B7AD4ED006A9FED7A6ADFEDBA
:105520007A7A76EEC76AB3EE087A66EE876A86EE16
:10553000867A77EE677A9FED757A9FED75AA67EEAA
:10554000877A002717EE900A15F008FD41EC100B42
:1055500041EC1C0B13F07CFBB0EE40BAF0EE60BAED
:10556000B0EE4C0AF0EE6C0A13F0D2FBB5F9002055
:10557000B6F900300092ED214FF482726548019730
:105580008DED020B0EF026F9B5F90020B6F90030CA
:1055900060488DE88400F3214FF482720EF01AF90E
:1055A00051EC1B0B16F026F8DFED5B7A07EE100AC4
:1055B000E7EE0A7A40F2FF789DED020BFCEEE77A07
:1055C00051EC100BCDED027ABDF808B0A6F800B092
:1055D00016F010F8DFED517ACDF8048007EE100ACE
:1055E000E7EE0A7A0FFA8BF34FF48272ED21FCEEAC
:1055F000E77A4848CDED027ABDF808E0A5F800E06A
:105600000FFA8EFCCDF800C00EF0E4F8B5F90020DA
:10561000B6F900303F488DE80401F3214FF482725F
:105620000EF0D8F805234FF48272F0213948CDF8F6
:1056300000800BF003FA40F2EF3300934FF48272D4
:105640000423F02133480BF029FC3B464FF48272CF
:10565000F021304809F016FC484610F059FFD4ED0F
:10566000007AF4EE697AF1EE10FA18D0F4EEE97AE5
:10567000F1EE10FAB7EE007A4CBF77EE877A77EE4C
:10568000C77AC4ED007AB9F1000F01D1C4ED009AD8
:10569000BAF10A0F7FF7D6AEDFED217AE2E60BB062
:1056A000BDEC0A8BBDE8F08FF0EE009A4FF0020AD5
:1056B000A3E607EE900AF8EEE79A9EE6F0490200AC
:1056C000007C12486C08FF1FB208FF1FB408FF1FC0
:1056D000000025430000B24200000B430000CA4214
:1056E00000C060440000E44200407A44009C0C4644
:1056F0008F5F010000441C4680C7AF470000804216
:105700008050C347004F434700001C4235FA8E3C8F
:1057100000000C4394E9FF1F000070430000824327
:105720000000000070B501210E2010F0D7FE0D4ED4
:105730000D4B0E4D0E48002200241A6021463260A7
:1057400013462C6000EB83020133B42B1160F9D1B6
:1057500003220849102010F0C3FB074B01221A70E6
:1057600070BD00BFD0A7FF1F60A4FF1FAC63FF1F69
:10577000D017FF1F990400000064FF1F38B51020E8
:1057800010F02AFC0B4A0C4800230021137000EB98
:1057900083020133B42B11604FF00002F7D1074DA3
:1057A000074C00232B60194622600E20BDE83840CC
:1057B00010F094BE0064FF1FD017FF1F60A4FF1FEE
:1057C000AC63FF1F10B4294A1323591E02EB81005A
:1057D00002EB830300681860244C0B460029F4D1C7
:1057E0002348DFED246A90ED007AB8EE477AF0EEB8
:1057F000667A37EE267A84ED007A02EB830191ED2A
:10580000007A0133142B77EE877AF6D19FED197A5F
:10581000002302EB8301D1ED006A0133052B37EE43
:10582000267AF6D177EE676AB3EE096A66EEA66A63
:10583000F4EEC66AF1EE10FA0BDCF3EE046A87EEC2
:10584000A67A0D4B5DF8044B83ED007A00230360CC
:105850007047F1EE046AC7EE267A074B5DF8044BF9
:10586000C3ED007A00230360704700BFD017FF1F0D
:1058700060A4FF1F00000000AC63FF1F38B512F0EA
:10588000FFF8002804DD12F0BFF8C0B2472800D0AE
:1058900038BD0F4D00242C6021460E4812F0F2FC5A
:1058A00001210D4812F016F955F82410094800237B
:1058B0000A2212F0A7FC074812F07EFC4FF4C873CE
:1058C000013BFDD10134B4F5805FE5D138BD00BFA7
:1058D0006064FF1FB40CFF1F4C1F0400F0B585B0BF
:1058E0000FF064FF0221012010F00CFE02210020C5
:1058F00010F008FE524B534C99681A68524B012025
:1059000001F5007702F50076002527606660E56006
:1059100020726072013BFDD191F8003292F80022B2
:105920004849D20703EA000344BF43F00203DBB255
:105930000120A372FCF7ECF9424920740020FCF727
:10594000E7F9237C05210344404823740FF032FA21
:1059500012200B210D220C238DE80F001723132298
:105960003B493C4809F04AF83B493C4812F012FFD9
:105970003B4A3C49394815F087F93B493B4812F00E
:1059800009FF374A3749394815F07EF9384939480F
:1059900012F000FF324A3349364815F075F936499E
:1059A000364812F0F7FE2E4A2E49344815F06CF9AD
:1059B0003349344812F0EEFE294A2A49314815F09D
:1059C00063F93149314812F0E5FE254A25492F484F
:1059D00015F05AF92E492F4812F0DCFE204A2149D1
:1059E0002C4815F051F92C492C4812F0D3FE1C4AD2
:1059F0001C492A4815F048F929492A4812F0CAFEDC
:105A0000174A1849274815F03FF90021264812F097
:105A1000C1FE134A1349244815F036F9234805F00E
:105A20007DFF0F4A2249214815F02EF98C2013F0F2
:105A300029F8044608F0BEF81E4B1C6005B0F0BD06
:105A400070AF0400B417FF1F803801001C64FF1FF3
:105A5000D808FF1F94E9FF1F701F0400B863FF1FE1
:105A6000D407FF1F15870100501F040070E9FF1FB6
:105A7000881F040068A4FF1F901F0400D063FF1F4D
:105A8000981F0400E063FF1F5C1F04001CEDFF1F54
:105A9000A01F0400F063FF1FA81F04009417FF1F3E
:105AA000B01F0400A417FF1F4864FF1FF40D00205F
:105AB00039B90000C8A7FF1F2DE9F041C54CC64EFB
:105AC000E38BB4F9202086B0052700924CF21868C9
:105AD0000022743B11461BB22046CDF80880019786
