:10000000F8FF022099010000E9970200A197020081
:10001000A1970200A1970200A1970200A1970200F8
:10002000A1970200A1970200A1970200E9970200A0
:10003000E9970200A1970200DDBB0200E1BB0200CC
:10004000E9970200E9970200E9970200E9970200A8
:10005000E9970200E9970200E9970200E997020098
:10006000E9970200E9970200E9970200E997020088
:10007000E9970200E9970200E9970200E997020078
:10008000E9970200E9970200E9970200E997020068
:10009000E9970200E9970200E9970200E997020058
:1000A000012602000D260200E9970200E9970200EE
:1000B000E9970200E9970200E9970200E997020038
:1000C000E9970200E9970200E9970200E997020028
:1000D000E9970200E9970200E9970200D939000088
:1000E000E9970200E9970200E9970200D5A601000E
:1000F000E9970200E9970200E9970200E9970200F8
:100100003DBE020051BE020065BE020079BE020083
:10011000E997020075AD0200E9970200E997020035
:10012000E9970200E9970200E9970200E9970200C7
:10013000E9970200E9970200E9970200E9970200B7
:10014000E9970200E997020085AA0200E9970200F8
:10015000E9970200E9970200E9970200E997020097
:10016000E9970200E997020019260200E9970200C8
:10017000E9970200E9970200E9970200E997020077
:10018000E9970200E9970200E9970200E997020067
:10019000E9970200E9970200584B4CF2205210B543
:1001A0001A804DF628121A8000BF00BF29F020FBEC
:1001B000534B4FF030621A60524A9A60524ADA60EA
:1001C000524B4FF470021A60514A136813F4807353
:1001D00004D150490B604FF4A85313604E4B1A786A
:1001E000110703D51A7842F008021A704B4B4C499C
:1001F0002A221A704B4A4C4B8B4204D252F8040FFD
:1002000043F8040BF8E7494B494900228B4202D2DC
:1002100043F8042BFAE74749474A002352F82300E2
:1002200041F823000133662BF8D1444B444A802126
:1002300003F8011B9342FBD1424B3E4A1A60424BEA
:100240008A221A70A3F5805324225A70A0221A70B1
:100250009A799207FCD59A79D406FCD43B4A9379D3
:1002600003F00C03082B394BF9D103221A714622F3
:100270005A719A799006FCD5344A9179334B4906E4
:10028000FBD5334A4FF08271116009215160202261
:100290001A709A7902F00C020C2AFAD12D4B2E4AD0
:1002A0001A602E4B2E4A1A6000225A60072243F829
:1002B000042C2C4AC3F80C2D62B629F0EDFD154B29
:1002C0001B68DA0705D5284829F0D2FD274B284AB4
:1002D0001A60284B1B785B0609D5244C244B2268F6
:1002E0009A4204D1204829F0C3FD0023236029F05D
:1002F00085FA2FF049FB2CF043FBFEE70E2005406A
:1003000030800440823F04000100002B88ED00E0B3
:1003100010D0034014D0034002D0074000E0074053
:10032000281BFF1FD0250400F806FF1F281BFF1FF6
:10033000D83002200002FF1F0000000000E400E0AF
:1003400056E400E008ED00E00050064000400640A2
:100350004480044004800440C010050014E000E024
:10036000BFD4010000002020DAB6DE631CE00340A9
:10037000A5C3945A00F00740FFFFFFFFFFFFFFFFF8
:10038000FFFFFFFFFFFFFFFFFFFFFFFFFFFFFFFF7D
:10039000FFFFFFFFFFFFFFFFFFFFFFFFFFFFFFFF6D
:1003A000FFFFFFFFFFFFFFFFFFFFFFFFFFFFFFFF5D
:1003B000FFFFFFFFFFFFFFFFFFFFFFFFFFFFFFFF4D
:1003C000FFFFFFFFFFFFFFFFFFFFFFFFFFFFFFFF3D
:1003D000FFFFFFFFFFFFFFFFFFFFFFFFFFFFFFFF2D
:1003E000FFFFFFFFFFFFFFFFFFFFFFFFFFFFFFFF1D
:1003F000FFFFFFFFFFFFFFFFFFFFFFFFFFFFFFFF0D
:10040000FFFFFFFFFFFFFFFFFFFFFFFFDEF9FFFF23
:1004100010B5054C237833B9044B13B10448AFF33E
:1004200000800123237010BD281BFF1F0000000067
:10043000CC250400084B10B51BB108490848AFF3A0
:1004400000800848036803B910BD074B002BFBD0A0
:10045000BDE81040184700BF000000002C1BFF1F24
:10046000CC250400281BFF1F00000000002070475F
:10047000704700BF036D0BB101207047406D003025
:1004800018BF0120704700BF0349044B4FF4804060
:10049000012208601A60704708F00F406C1CFF1FB3
:1004A000014B01221A6070475C1CFF1F034A04497C
:1004B00013680120034413600860704794C401204E
:1004C000446F012010B50446806D18B12FF0AAFAD0
:1004D0000023A365236D2BB104F11800BDE8104083
:1004E0001EF04EBE636D002BF6D110BDF0B500239B
:1004F00095B01A460546183104A84FF47A74224F75
:100500008DF804308DF80C301293139302940097F9
:100510001EF08AFE129B002B2BD05C202CF038FAA8
:1005200004461A4B9DF80400029A194923600026DC
:100530009DF80C302073A160226104A9237504F199
:10054000180066601EF0EEFD6368124AA760013372
:100550004FF47A71A6652E712E732C616360A960C9
:100560002A600D4B009304A81EF00AFE284615B021
:10057000F0BD139B002BD0D1064A2B71AC602B73BE
:100580002B612A60EDE700BF0442030054420300E0
:10059000BC41030028420300E041030029F062BC93
:1005A000F8B50D46064628F07BFB044628F068FBAC
:1005B000074628F055FBA4F2BC739BB27F2B02D8F0
:1005C000FAB20C2A22D90023338028F019FB064600
:1005D00028F026FB044628F033FBF3B2172B12D881
:1005E000E3B23B2B0FD8C3B23B2B0CD8F302640110
:1005F00003F4FF2304F4FF542343C0F346000343F2
:100600009BB22B80F8BD00232B80F8BDC0B21F2801
:10061000D9D87F0107F4FF57384340EA43239BB200
:10062000D2E700BF836C13B118461CF02BBFC06C1F
:1006300008B11AF085BD4FF0FF30704700B5836CEC
:1006400083B063B1184601220DF107011CF04AFE88
:1006500001280CD19DF8070003B05DF804FBC06CC5
:1006600028B101220DF107011AF096FCF0E74FF0D6
:10067000FF30F1E72DE9F043002283B01FFA80F943
:1006800011461546DFF85880124F134E00E01D4604
:1006900058F825303C681148CDF8049003EBC303AB
:1006A0005B01B3FBF4F4C4F59473C2F594720133A7
:1006B0001BB2013212B209B200932BB2346027F0A0
:1006C00045F86B1CB3F5D27F29463268DFD103B001
:1006D000BDE8F08398B00120C4C70120A0B001207C
:1006E000DC0702202DE9F043002283B01FFA80F9D5
:1006F00011461546DFF85880124F134E00E01D4694
:1007000058F825303C681148CDF8049003EBC3033A
:100710005B01B3FBF4F4C4F59473C2F59472013336
:100720001BB2013212B209B200932BB2346027F02F
:100730000DF86B1CB3F5D27F29463268DFD103B0C8
:10074000BDE8F083506F0120C4C70120A0B0012094
:10075000342002202DE9F04F394BDFF8F4A01B685C
:10076000DFF8F09083B0804618462EF071FB41EC24
:10077000100B2CF04DFB0022324B51EC100B2EF0E5
:10078000DDFB2EF0B3FE00241FFA88F8CAF8000043
:10079000CB462746254613E030601BB2C4F5947261
:1007A00001328DE8080139B22BB2274812B226F087
:1007B000CDFF6B1CB3F5D27F34682F463CD01D466D
:1007C00059F82530012B22D95BF825001F4E2EF059
:1007D0003FFB41EC100B2CF01BFB0022194B51ECA2
:1007E000100B2EF0ABFB2EF081FE4FF48F72DAF877
:1007F000003002FB00F0B0FBF3F0C0F594739042C0
:1008000003F10103C8D9114E0B233260C6E7C4F5CA
:10081000947240F22913013239B2009312B22BB212
:10082000CDF80480084826F091FF6B1CB3F5D27F09
:100830004FF000042F46C2D103B0BDE8F08F00BFD7
:10084000506F012000002440A0B00120C4C7012047
:10085000B4C5002034200220DFED137AB4EEE70A9D
:10086000F1EE10FA1DDCF1EE047AB4EE670AF1EE57
:1008700010FA48BFB0EE670A0C4A0D4BD2ED007A71
:1008800093ED007A0B4A0C4BD2ED006A60EE277AAA
:1008900020EE077AE0EE077A77EEA67AC3ED007ACB
:1008A0007047B0EE670AE7E700000C42A809FF1F97
:1008B0006C700120F4C500200808FF1F9FED3D7AF1
:1008C00038B53D4CF0EE476A002234F812309BB246
:1008D00007EE903AF8EEE77A013277EEA67A3C2AF4
:1008E00037EE277AF1D1DFED356A354DC7EE267A3E
:1008F000292128460422C5ED007A28F0CDFE0A20E1
:1009000029F0CAFD95ED006ADFED2A6A002134F86E
:10091000112034F8113092B207EE902A9BB2B8EE53
:10092000E77A07EE903AF8EEE77A36EE477A76EE17
:10093000677A01313C29E7EE276AE8D1DFED217AB9
:10094000214B224C86EEA77A00221A6017EE100A7D
:100950002EF0A0FA41EC100B2CF0E2FA51EC100B47
:100960002EF0E4FDD5ED007A194B07EE100AF0EEFB
:10097000006AB0EE086AF0EE675AE7EE265A1548AC
:10098000E7EE067A0422242180ED007AC3ED007A96
:10099000C4ED005A28F080FE0A2029F07DFD0121D7
:1009A000282028F051FE0A2029F076FD0A4B01226A
:1009B0001A7038BD00000000702A0120000070424B
:1009C000D408FF1F00006C42601CFF1FE86B012071
:1009D00084C50020A408FF1F1CB4012010B50446E4
:1009E0008EB0A0B100240A460123014668468DF866
:1009F00000408DF801408DF802401CF049FC08B918
:100A00000EB010BD68461DF0B1FC0EB010BD0C4B11
:100A1000D3F888040028F3D00A460123014668462B
:100A20008DF831408DF832408DF833401AF062FE77
:100A30000028E5D068461AF0C5FE0EB010BD00BF14
:100A40003C280220F0B5036D83B00C462BB318464A
:100A50000DF1060201A91CF0A9FAD8B1BDF80430C5
:100A6000BDF8062003B9AAB102F01F06C3F343156F
:100A70005912C2F345177600013D01F5EA6103F012
:100A80001F03D21226706571A17123716770A27065
:100A900003B0F0BD002003B0F0BD406D0028F9D0D8
:100AA0000DF1060201A91AF007FAD6E730B504469F
:100AB0008FB070B100250A462B46014668468DF876
:100AC00000508DF801508DF802501CF0E1FB0FB082
:100AD00030BD094BD3F888040028F8D00A462346D5
:100AE000014668468DF831408DF832408DF833402C
:100AF0001AF000FE0FB030BD3C28022038B5846DDE
:100B00000CB1204638BD05464FF480702EF082FFB0
:100B10000146A86580B1286D0C7028B14FF4807231
:100B20001EF054F8AC6DECE7686D40B14FF4807284
:100B30001BF076FEAC6DE4E7024CAC65E1E70C46D9
:100B4000DFE700BF441BFF1F8A79A2F150031B0699
:100B500020D4F0B54B79046D0D798E784F780978F3
:100B6000013385B002F26C72DBB244B103918DE8BF
:100B7000E000204604211CF0BFFE05B0F0BD406D32
:100B80000028FAD003918DE8E00004211BF092F8D0
:100B900005B0F0BD00207047D0B5046D8CB1012BBD
:100BA00008BF002A01D30020D0BD114620461CF00A
:100BB0008BFD0028F7D020461CF006FF0028F2D05D
:100BC000D0BD446D002CEED020461AF0D1FA00289A
:100BD000E9D02046BDE8D0401BF01AB9F0B5036D4E
:100BE00083B00C462BB318460DF1060201A91CF088
:100BF000EDF9D8B1BDF80430BDF8062003B9AAB1AB
:100C000002F01F06C3F343155912C2F345177600CD
:100C1000013D01F5EA6103F01F03D21226706571F0
:100C2000A17123716770A27003B0F0BD002003B002
:100C3000F0BD406D0028F9D00DF1060201A91AF0AF
:100C40004BF9D6E7036D13B1586900217047436D26
:100C500013B193E80300704718461946704700BF68
:100C6000036D13B1D86900217047436D13B1186942
:100C70005969704718461946704700BF036D13B194
:100C800018461CF02FBB406D08B11AF085B94FF023
:100C9000FF307047036D13B118461CF0F3BB406D75
:100CA00008B11AF04DBA4FF0FF307047036D33B101
:100CB0001B7813F0700F14BF012000207047406DA7
:100CC00030B190F8313013F0500F14BF01200020E4
:100CD000704700BF036D9BB11A7812F0700F00D1FE
:100CE000704710B50446002118461CF0EDFC606DFD
:100CF00028B100220023BDE810401AF039BA10BD17
:100D0000406D0028ECD090F8313013F0500FE7D050
:100D1000002200231AF02CBA8A79A2F150031B0694
:100D200020D4F0B54B79046D0D798E784F78097821
:100D3000013385B002F26C72DBB244B103918DE8ED
:100D4000E000204602211CF0D7FD05B0F0BD406D4B
:100D50000028FAD003918DE8E00002211AF0AAFFE2
:100D600005B0F0BD00207047036963B11A680749F8
:100D700092698A4208D1186D08B11CF0B7BD586D50
:100D800008B11AF043BE704718461047910D000095
:100D9000036D13B118461CF0A9BD406D08B11AF0DF
:100DA00035BE7047836C13B118461CF09FBDC06CF4
:100DB00008B11AF02BBE704703698BB110B41C68E0
:100DC0000D48E468844211D1186D18B15DF8044BE8
:100DD0001CF036BE586D28B15DF8044B1BF088B886
:100DE0000020704700205DF8044B704718462346EA
:100DF0005DF8044B184700BF290E0000036973B16A
:100E00001A68084952698A4207D1186D08B11CF066
:100E100039BB586D18B11AF093B9184610474FF006
:100E2000FF307047950C0000036D13B118461CF09D
:100E300007BE406D08B11BF05BB87047836C13B1FF
:100E400018461CF0FDBDC06C08B11BF051B87047CE
:100E500000B5836C83B08DF8071043B118460122AA
:100E60000DF107011CF0ECFD03B05DF804FBC06C54
:100E70000028F9D001220DF107011BF039F803B069
:100E80005DF804FB10B5036982B08DF80710BBB1A3
:100E90001968104ACC68944215D1186D30B10122FE
:100EA0000DF107011CF0CCFD02B010BD586D0028FB
:100EB000FAD001220DF107011BF01AF802B010BDA3
:100EC000184602B010BD184601220DF10701A047D7
:100ED00002B010BD290E0000026D62B1137803F05C
:100EE000080303F0FF0003B3D3695069181A48BF21
:100EF0006FF000407047416DC1B191F8313003F09F
:100F0000080303F0FF0083B1D1E90423D1E9000114
:100F1000101A30B463EB010100256FF000448D42DC
:100F200008BF844200D2204630BC70470846704754
:100F3000826C62B1137803F0080303F0FF0003B37F
:100F4000D3695069181A48BF6FF000407047C16CF0
:100F5000C1B191F8313003F0080303F0FF0083B111
:100F6000D1E90423D1E90001101A30B463EB010187
:100F700000256FF000448D4208BF844200D2204615
:100F800030BC704708467047036923B310B5196831
:100F9000124A8C68944282B014D1186D48B1012273
:100FA0000DF107011CF09EF990B19DF8070002B009
:100FB00010BD586D0028F8D001220DF1070119F07D
:100FC000EBFFF1E7184601220DF10701A047EBE71F
:100FD0004FF0FF30EBE74FF0FF3070477D0C000023
:100FE000006970B30368184A1B6993420ED1026D01
:100FF0006AB1137803F0080303F0FF000BB3D36961
:101000005069181A48BF6FF0004070471847416D8B
:10101000C1B191F8313003F0080303F0FF0083B150
:10102000D1E90423D1E90001101A30B463EB0101C6
:1010300000256FF000448D4208BF844200D2204654
:1010400030BC704708467047D90E0000D0B4039CEE
:1010500016461F4634B1012C1ED0022C0DD00020A4
:10106000D0BC7047046DDCB1012B08BF002AF6D25A
:1010700020461146D0BC1CF027BB036DB3B1DA6922
:10108000B61847F10007012F08BF002EE7D23146FE
:101090001846D0BC1CF018BB036D8BB15A69EFE742
:1010A000406D0028DBD0D0BC1AF062B8406D00283B
:1010B000D5D0D0E9042392197B41D0BC1AF058B89E
:1010C000406D0028CBD0D0E9002392197B41EAE79C
:1010D00038B50446806D0C4B236018B12EF0A2FC8D
:1010E0000023A365236D04F118054BB128461EF0BB
:1010F00047F8064BA36028461EF042F8204638BD4C
:10110000636D002BF2D1F4E754420300E041030089
:1011100038B50446806D0E4B236018B12EF082FC6A
:101120000023A365236D04F118056BB128461EF05A
:1011300027F8084BA36028461EF022F820465C21C1
:101140002BF02AFC204638BD636D002BEED1F0E772
:1011500054420300E041030070B505686C68013C2F
:1011600006466C6014B10023336070BD2B68204AC2
:10117000DB6A93422DD1A86D10B12EF053FCAC6503
:101180002B6D63B305F118001DF0FAFF3468002CD5
:10119000E9D02368174A5B6893421DD1A06D164BB6
:1011A000236018B12EF03EFC0023A365236D04F1EB
:1011B0001805C3B128461DF0E3FF104BA360284675
:1011C0001DF0DEFF20465C212BF0E6FB00233360A0
:1011D00070BD28469847D9E720469847C3E76B6D0E
:1011E000002BCFD1D2E7636D002BE3D1E5E700BF41
:1011F000C50400001111000054420300E041030047
:101200000369054A10B50446026013B11030FFF7B8
:10121000A3FF204610BD00BF284203000369074A10
:1012200010B50446026013B11030FFF795FF204659
:1012300014212BF0B1FB204610BD00BF2842030053
:10124000214B10B41A681368506819780478507AE2
:10125000137A044201EA03011BD0937A03F00303DB
:1012600009B143F0040343F008039910013B917264
:101270000D2B0BD8DFE803F021071B070A152121EE
:10128000150A071B0721D368013BD3605DF8044BA7
:101290007047937A03F003030029E6D043F0040378
:1012A000E3E7D3685DF8044B023BD3607047D36833
:1012B0005DF8044B0233D3607047D3685DF8044B8C
:1012C0000133D360704700BFB42D0220214B10B40E
:1012D0005A681368506819780478507A137A04426F
:1012E00001EA03011BD0937A03F0030309B143F031
:1012F000040343F008039910013B91720D2B0BD8A6
:10130000DFE803F021071B070A152121150A071B37
:101310000721D368013BD3605DF8044B7047937A93
:1013200003F003030029E6D043F00403E3E7D368A6
:101330005DF8044B023BD3607047D3685DF8044B03
:101340000233D3607047D3685DF8044B0133D36038
:10135000704700BFB42D0220214B10B49A68136867
:10136000506819780478507A137A044201EA03012C
:101370001BD0937A03F0030309B143F0040343F055
:1013800008039910013B91720D2B0BD8DFE803F095
:1013900021071B070A152121150A071B0721D368FE
:1013A000013BD3605DF8044B7047937A03F003036D
:1013B0000029E6D043F00403E3E7D3685DF8044B6B
:1013C000023BD3607047D3685DF8044B0233D360AF
:1013D0007047D3685DF8044B0133D360704700BF9A
:1013E000B42D0220214B10B4DA68136850681978C4
:1013F0000478507A137A044201EA03011BD0937AED
:1014000003F0030309B143F0040343F00803991008
:10141000013B91720D2B0BD8DFE803F021071B076E
:101420000A152121150A071B0721D368013BD36048
:101430005DF8044B7047937A03F003030029E6D06C
:1014400043F00403E3E7D3685DF8044B023BD36049
:101450007047D3685DF8044B0233D3607047D3689C
:101460005DF8044B0133D360704700BFB42D0220F8
:10147000214B10B41A691368506819780478507AAF
:10148000137A044201EA03011BD0937A03F00303A9
:1014900009B143F0040343F008039910013B917232
:1014A0000D2B0BD8DFE803F021071B070A152121BC
:1014B000150A071B0721D368013BD3605DF8044B75
:1014C0007047937A03F003030029E6D043F0040346
:1014D000E3E7D3685DF8044B023BD3607047D36801
:1014E0005DF8044B0233D3607047D3685DF8044B5A
:1014F0000133D360704700BFB42D0220214B10B4DC
:101500005A691368506819780478507A137A04423B
:1015100001EA03011BD0937A03F0030309B143F0FE
:10152000040343F008039910013B91720D2B0BD873
:10153000DFE803F021071B070A152121150A071B05
:101540000721D368013BD3605DF8044B7047937A61
:1015500003F003030029E6D043F00403E3E7D36874
:101560005DF8044B023BD3607047D3685DF8044BD1
:101570000233D3607047D3685DF8044B0133D36006
:10158000704700BFB42D0220214B10B49A69136834
:10159000506819780478507A137A044201EA0301FA
:1015A0001BD0937A03F0030309B143F0040343F023
:1015B00008039910013B91720D2B0BD8DFE803F063
:1015C00021071B070A152121150A071B0721D368CC
:1015D000013BD3605DF8044B7047937A03F003033B
:1015E0000029E6D043F00403E3E7D3685DF8044B39
:1015F000023BD3607047D3685DF8044B0233D3607D
:101600007047D3685DF8044B0133D360704700BF67
:10161000B42D0220214B10B4DA6913685068197890
:101620000478507A137A044201EA03011BD0937ABA
:1016300003F0030309B143F0040343F008039910D6
:10164000013B91720D2B0BD8DFE803F021071B073C
:101650000A152121150A071B0721D368013BD36016
:101660005DF8044B7047937A03F003030029E6D03A
:1016700043F00403E3E7D3685DF8044B023BD36017
:101680007047D3685DF8044B0233D3607047D3686A
:101690005DF8044B0133D360704700BFB42D0220C6
:1016A000214B10B41A6A1368506819780478507A7C
:1016B000137A044201EA03011BD0937A03F0030377
:1016C00009B143F0040343F008039910013B917200
:1016D0000D2B0BD8DFE803F021071B070A1521218A
:1016E000150A071B0721D368013BD3605DF8044B43
:1016F0007047937A03F003030029E6D043F0040314
:10170000E3E7D3685DF8044B023BD3607047D368CE
:101710005DF8044B0233D3607047D3685DF8044B27
:101720000133D360704700BFB42D0220214B10B4A9
:101730005A6A1368506819780478507A137A044208
:1017400001EA03011BD0937A03F0030309B143F0CC
:10175000040343F008039910013B91720D2B0BD841
:10176000DFE803F021071B070A152121150A071BD3
:101770000721D368013BD3605DF8044B7047937A2F
:1017800003F003030029E6D043F00403E3E7D36842
:101790005DF8044B023BD3607047D3685DF8044B9F
:1017A0000233D3607047D3685DF8044B0133D360D4
:1017B000704700BFB42D0220214B10B49A6A136801
:1017C000506819780478507A137A044201EA0301C8
:1017D0001BD0937A03F0030309B143F0040343F0F1
:1017E00008039910013B91720D2B0BD8DFE803F031
:1017F00021071B070A152121150A071B0721D3689A
:10180000013BD3605DF8044B7047937A03F0030308
:101810000029E6D043F00403E3E7D3685DF8044B06
:10182000023BD3607047D3685DF8044B0233D3604A
:101830007047D3685DF8044B0133D360704700BF35
:10184000B42D0220214B10B4DA6A1368506819785D
:101850000478507A137A044201EA03011BD0937A88
:1018600003F0030309B143F0040343F008039910A4
:10187000013B91720D2B0BD8DFE803F021071B070A
:101880000A152121150A071B0721D368013BD360E4
:101890005DF8044B7047937A03F003030029E6D008
:1018A00043F00403E3E7D3685DF8044B023BD360E5
:1018B0007047D3685DF8044B0233D3607047D36838
:1018C0005DF8044B0133D360704700BFB42D022094
:1018D000214B10B41A6B1368506819780478507A49
:1018E000137A044201EA03011BD0937A03F0030345
:1018F00009B143F0040343F008039910013B9172CE
:101900000D2B0BD8DFE803F021071B070A15212157
:10191000150A071B0721D368013BD3605DF8044B10
:101920007047937A03F003030029E6D043F00403E1
:10193000E3E7D3685DF8044B023BD3607047D3689C
:101940005DF8044B0233D3607047D3685DF8044BF5
:101950000133D360704700BFB42D0220214B10B477
:101960005A6B1368506819780478507A137A0442D5
:1019700001EA03011BD0937A03F0030309B143F09A
:10198000040343F008039910013B91720D2B0BD80F
:10199000DFE803F021071B070A152121150A071BA1
:1019A0000721D368013BD3605DF8044B7047937AFD
:1019B00003F003030029E6D043F00403E3E7D36810
:1019C0005DF8044B023BD3607047D3685DF8044B6D
:1019D0000233D3607047D3685DF8044B0133D360A2
:1019E000704700BFB42D0220214B10B49A6B1368CE
:1019F000506819780478507A137A044201EA030196
:101A00001BD0937A03F0030309B143F0040343F0BE
:101A100008039910013B91720D2B0BD8DFE803F0FE
:101A200021071B070A152121150A071B0721D36867
:101A3000013BD3605DF8044B7047937A03F00303D6
:101A40000029E6D043F00403E3E7D3685DF8044BD4
:101A5000023BD3607047D3685DF8044B0233D36018
:101A60007047D3685DF8044B0133D360704700BF03
:101A7000B42D0220214B10B4DA6B1368506819782A
:101A80000478507A137A044201EA03011BD0937A56
:101A900003F0030309B143F0040343F00803991072
:101AA000013B91720D2B0BD8DFE803F021071B07D8
:101AB0000A152121150A071B0721D368013BD360B2
:101AC0005DF8044B7047937A03F003030029E6D0D6
:101AD00043F00403E3E7D3685DF8044B023BD360B3
:101AE0007047D3685DF8044B0233D3607047D36806
:101AF0005DF8044B0133D360704700BFB42D022062
:101B0000214B10B41A6C1368506819780478507A15
:101B1000137A044201EA03011BD0937A03F0030312
:101B200009B143F0040343F008039910013B91729B
:101B30000D2B0BD8DFE803F021071B070A15212125
:101B4000150A071B0721D368013BD3605DF8044BDE
:101B50007047937A03F003030029E6D043F00403AF
:101B6000E3E7D3685DF8044B023BD3607047D3686A
:101B70005DF8044B0233D3607047D3685DF8044BC3
:101B80000133D360704700BFB42D0220214B10B445
:101B90005A6C1368506819780478507A137A0442A2
:101BA00001EA03011BD0937A03F0030309B143F068
:101BB000040343F008039910013B91720D2B0BD8DD
:101BC000DFE803F021071B070A152121150A071B6F
:101BD0000721D368013BD3605DF8044B7047937ACB
:101BE00003F003030029E6D043F00403E3E7D368DE
:101BF0005DF8044B023BD3607047D3685DF8044B3B
:101C00000233D3607047D3685DF8044B0133D3606F
:101C1000704700BFB42D0220214B10B49A6C13689A
:101C2000506819780478507A137A044201EA030163
:101C30001BD0937A03F0030309B143F0040343F08C
:101C400008039910013B91720D2B0BD8DFE803F0CC
:101C500021071B070A152121150A071B0721D36835
:101C6000013BD3605DF8044B7047937A03F00303A4
:101C70000029E6D043F00403E3E7D3685DF8044BA2
:101C8000023BD3607047D3685DF8044B0233D360E6
:101C90007047D3685DF8044B0133D360704700BFD1
:101CA000B42D0220214B10B4DA6C136850681978F7
:101CB0000478507A137A044201EA03011BD0937A24
:101CC00003F0030309B143F0040343F00803991040
:101CD000013B91720D2B0BD8DFE803F021071B07A6
:101CE0000A152121150A071B0721D368013BD36080
:101CF0005DF8044B7047937A03F003030029E6D0A4
:101D000043F00403E3E7D3685DF8044B023BD36080
:101D10007047D3685DF8044B0233D3607047D368D3
:101D20005DF8044B0133D360704700BFB42D02202F
:101D3000214B10B41A6D1368506819780478507AE2
:101D4000137A044201EA03011BD0937A03F00303E0
:101D500009B143F0040343F008039910013B917269
:101D60000D2B0BD8DFE803F021071B070A152121F3
:101D7000150A071B0721D368013BD3605DF8044BAC
:101D80007047937A03F003030029E6D043F004037D
:101D9000E3E7D3685DF8044B023BD3607047D36838
:101DA0005DF8044B0233D3607047D3685DF8044B91
:101DB0000133D360704700BFB42D0220214B10B413
:101DC0005A6D1368506819780478507A137A04426F
:101DD00001EA03011BD0937A03F0030309B143F036
:101DE000040343F008039910013B91720D2B0BD8AB
:101DF000DFE803F021071B070A152121150A071B3D
:101E00000721D368013BD3605DF8044B7047937A98
:101E100003F003030029E6D043F00403E3E7D368AB
:101E20005DF8044B023BD3607047D3685DF8044B08
:101E30000233D3607047D3685DF8044B0133D3603D
:101E4000704700BFB42D0220214B10B49A6D136867
:101E5000506819780478507A137A044201EA030131
:101E60001BD0937A03F0030309B143F0040343F05A
:101E700008039910013B91720D2B0BD8DFE803F09A
:101E800021071B070A152121150A071B0721D36803
:101E9000013BD3605DF8044B7047937A03F0030372
:101EA0000029E6D043F00403E3E7D3685DF8044B70
:101EB000023BD3607047D3685DF8044B0233D360B4
:101EC0007047D3685DF8044B0133D360704700BF9F
:101ED000B42D0220214B10B4DA6D136850681978C4
:101EE0000478507A137A044201EA03011BD0937AF2
:101EF00003F0030309B143F0040343F0080399100E
:101F0000013B91720D2B0BD8DFE803F021071B0773
:101F10000A152121150A071B0721D368013BD3604D
:101F20005DF8044B7047937A03F003030029E6D071
:101F300043F00403E3E7D3685DF8044B023BD3604E
:101F40007047D3685DF8044B0233D3607047D368A1
:101F50005DF8044B0133D360704700BFB42D0220FD
:101F6000214B10B41A6E1368506819780478507AAF
:101F7000137A044201EA03011BD0937A03F00303AE
:101F800009B143F0040343F008039910013B917237
:101F90000D2B0BD8DFE803F021071B070A152121C1
:101FA000150A071B0721D368013BD3605DF8044B7A
:101FB0007047937A03F003030029E6D043F004034B
:101FC000E3E7D3685DF8044B023BD3607047D36806
:101FD0005DF8044B0233D3607047D3685DF8044B5F
:101FE0000133D360704700BFB42D0220214B10B4E1
:101FF0005A6E1368506819780478507A137A04423C
:1020000001EA03011BD0937A03F0030309B143F003
:10201000040343F008039910013B91720D2B0BD878
:10202000DFE803F021071B070A152121150A071B0A
:102030000721D368013BD3605DF8044B7047937A66
:1020400003F003030029E6D043F00403E3E7D36879
:102050005DF8044B023BD3607047D3685DF8044BD6
:102060000233D3607047D3685DF8044B0133D3600B
:10207000704700BFB42D0220214B10B49A6E136834
:10208000506819780478507A137A044201EA0301FF
:102090001BD0937A03F0030309B143F0040343F028
:1020A00008039910013B91720D2B0BD8DFE803F068
:1020B00021071B070A152121150A071B0721D368D1
:1020C000013BD3605DF8044B7047937A03F0030340
:1020D0000029E6D043F00403E3E7D3685DF8044B3E
:1020E000023BD3607047D3685DF8044B0233D36082
:1020F0007047D3685DF8044B0133D360704700BF6D
:10210000B42D0220214B10B4DA6E13685068197890
:102110000478507A137A044201EA03011BD0937ABF
:1021200003F0030309B143F0040343F008039910DB
:10213000013B91720D2B0BD8DFE803F021071B0741
:102140000A152121150A071B0721D368013BD3601B
:102150005DF8044B7047937A03F003030029E6D03F
:1021600043F00403E3E7D3685DF8044B023BD3601C
:102170007047D3685DF8044B0233D3607047D3686F
:102180005DF8044B0133D360704700BFB42D0220CB
:10219000214B10B41A6F1368506819780478507A7C
:1021A000137A044201EA03011BD0937A03F003037C
:1021B00009B143F0040343F008039910013B917205
:1021C0000D2B0BD8DFE803F021071B070A1521218F
:1021D000150A071B0721D368013BD3605DF8044B48
:1021E0007047937A03F003030029E6D043F0040319
:1021F000E3E7D3685DF8044B023BD3607047D368D4
:102200005DF8044B0233D3607047D3685DF8044B2C
:102210000133D360704700BFB42D0220214B10B4AE
:102220005A6F1368506819780478507A137A044208
:1022300001EA03011BD0937A03F0030309B143F0D1
:10224000040343F008039910013B91720D2B0BD846
:10225000DFE803F021071B070A152121150A071BD8
:102260000721D368013BD3605DF8044B7047937A34
:1022700003F003030029E6D043F00403E3E7D36847
:102280005DF8044B023BD3607047D3685DF8044BA4
:102290000233D3607047D3685DF8044B0133D360D9
:1022A000704700BFB42D0220214B10B49A6F136801
:1022B000506819780478507A137A044201EA0301CD
:1022C0001BD0937A03F0030309B143F0040343F0F6
:1022D00008039910013B91720D2B0BD8DFE803F036
:1022E00021071B070A152121150A071B0721D3689F
:1022F000013BD3605DF8044B7047937A03F003030E
:102300000029E6D043F00403E3E7D3685DF8044B0B
:10231000023BD3607047D3685DF8044B0233D3604F
:102320007047D3685DF8044B0133D360704700BF3A
:10233000B42D0220214B10B4DA6F1368506819785D
:102340000478507A137A044201EA03011BD0937A8D
:1023500003F0030309B143F0040343F008039910A9
:10236000013B91720D2B0BD8DFE803F021071B070F
:102370000A152121150A071B0721D368013BD360E9
:102380005DF8044B7047937A03F003030029E6D00D
:1023900043F00403E3E7D3685DF8044B023BD360EA
:1023A0007047D3685DF8044B0233D3607047D3683D
:1023B0005DF8044B0133D360704700BFB42D022099
:1023C000214B10B4D3F88020136850681978047832
:1023D000507A137A044201EA03011BD0937A03F086
:1023E000030309B143F0040343F008039910013BD0
:1023F00091720D2B0BD8DFE803F021071B070A159C
:102400002121150A071B0721D368013BD3605DF822
:10241000044B7047937A03F003030029E6D043F09E
:102420000403E3E7D3685DF8044B023BD3607047D5
:10243000D3685DF8044B0233D3607047D3685DF80E
:10244000044B0133D3607047B42D0220214B10B4EC
:10245000D3F884201368506819780478507A137A76
:10246000044201EA03011BD0937A03F0030309B18C
:1024700043F0040343F008039910013B91720D2BC4
:102480000BD8DFE803F021071B070A152121150AE5
:10249000071B0721D368013BD3605DF8044B7047ED
:1024A000937A03F003030029E6D043F00403E3E743
:1024B000D3685DF8044B023BD3607047D3685DF886
:1024C000044B0233D3607047D3685DF8044B01338B
:1024D000D3607047B42D0220214B10B4D3F888206C
:1024E0001368506819780478507A137A044201EA24
:1024F00003011BD0937A03F0030309B143F00403F3
:1025000043F008039910013B91720D2B0BD8DFE8C3
:1025100003F021071B070A152121150A071B0721B4
:10252000D368013BD3605DF8044B7047937A03F0A6
:1025300003030029E6D043F00403E3E7D3685DF822
:10254000044B023BD3607047D3685DF8044B023301
:10255000D3607047D3685DF8044B0133D360704794
:10256000B42D0220214B10B4D3F88C20136850688E
:1025700019780478507A137A044201EA03011BD0D7
:10258000937A03F0030309B143F0040343F0080313
:102590009910013B91720D2B0BD8DFE803F0210756
:1025A0001B070A152121150A071B0721D368013BC8
:1025B000D3605DF8044B7047937A03F0030300295E
:1025C000E6D043F00403E3E7D3685DF8044B023B35
:1025D000D3607047D3685DF8044B0233D360704713
:1025E000D3685DF8044B0133D3607047B42D0220EB
:1025F000214B10B4D3F890201368506819780478F0
:10260000507A137A044201EA03011BD0937A03F053
:10261000030309B143F0040343F008039910013B9D
:1026200091720D2B0BD8DFE803F021071B070A1569
:102630002121150A071B0721D368013BD3605DF8F0
:10264000044B7047937A03F003030029E6D043F06C
:102650000403E3E7D3685DF8044B023BD3607047A3
:10266000D3685DF8044B0233D3607047D3685DF8DC
:10267000044B0133D3607047B42D0220214B10B4BA
:10268000D3F894201368506819780478507A137A34
:10269000044201EA03011BD0937A03F0030309B15A
:1026A00043F0040343F008039910013B91720D2B92
:1026B0000BD8DFE803F021071B070A152121150AB3
:1026C000071B0721D368013BD3605DF8044B7047BB
:1026D000937A03F003030029E6D043F00403E3E711
:1026E000D3685DF8044B023BD3607047D3685DF854
:1026F000044B0233D3607047D3685DF8044B013359
:10270000D3607047B42D0220214B10B4D3F8E820D9
:102710001368506819780478507A137A044201EAF1
:1027200003011BD0937A03F0030309B143F00403C0
:1027300043F008039910013B91720D2B0BD8DFE891
:1027400003F021071B070A152121150A071B072182
:10275000D368013BD3605DF8044B7047937A03F074
:1027600003030029E6D043F00403E3E7D3685DF8F0
:10277000044B023BD3607047D3685DF8044B0233CF
:10278000D3607047D3685DF8044B0133D360704762
:10279000B42D0220214B10B4D3F8EC2013685068FC
:1027A00019780478507A137A044201EA03011BD0A5
:1027B000937A03F0030309B143F0040343F00803E1
:1027C0009910013B91720D2B0BD8DFE803F0210724
:1027D0001B070A152121150A071B0721D368013B96
:1027E000D3605DF8044B7047937A03F0030300292C
:1027F000E6D043F00403E3E7D3685DF8044B023B03
:10280000D3607047D3685DF8044B0233D3607047E0
:10281000D3685DF8044B0133D3607047B42D0220B8
:10282000214B10B4D3F8D820136850681978047875
:10283000507A137A044201EA03011BD0937A03F021
:10284000030309B143F0040343F008039910013B6B
:1028500091720D2B0BD8DFE803F021071B070A1537
:102860002121150A071B0721D368013BD3605DF8BE
:10287000044B7047937A03F003030029E6D043F03A
:102880000403E3E7D3685DF8044B023BD360704771
:10289000D3685DF8044B0233D3607047D3685DF8AA
:1028A000044B0133D3607047B42D0220214B10B488
:1028B000D3F8DC201368506819780478507A137ABA
:1028C000044201EA03011BD0937A03F0030309B128
:1028D00043F0040343F008039910013B91720D2B60
:1028E0000BD8DFE803F021071B070A152121150A81
:1028F000071B0721D368013BD3605DF8044B704789
:10290000937A03F003030029E6D043F00403E3E7DE
:10291000D3685DF8044B023BD3607047D3685DF821
:10292000044B0233D3607047D3685DF8044B013326
:10293000D3607047B42D0220214B10B4D3F8E020AF
:102940001368506819780478507A137A044201EABF
:1029500003011BD0937A03F0030309B143F004038E
:1029600043F008039910013B91720D2B0BD8DFE85F
:1029700003F021071B070A152121150A071B072150
:10298000D368013BD3605DF8044B7047937A03F042
:1029900003030029E6D043F00403E3E7D3685DF8BE
:1029A000044B023BD3607047D3685DF8044B02339D
:1029B000D3607047D3685DF8044B0133D360704730
:1029C000B42D0220214B10B4D3F8E42013685068D2
:1029D00019780478507A137A044201EA03011BD073
:1029E000937A03F0030309B143F0040343F00803AF
:1029F0009910013B91720D2B0BD8DFE803F02107F2
:102A00001B070A152121150A071B0721D368013B63
:102A1000D3605DF8044B7047937A03F003030029F9
:102A2000E6D043F00403E3E7D3685DF8044B023BD0
:102A3000D3607047D3685DF8044B0233D3607047AE
:102A4000D3685DF8044B0133D3607047B42D022086
:102A5000214B10B4D3F89820136850681978047883
:102A6000507A137A044201EA03011BD0937A03F0EF
:102A7000030309B143F0040343F008039910013B39
:102A800091720D2B0BD8DFE803F021071B070A1505
:102A90002121150A071B0721D368013BD3605DF88C
:102AA000044B7047937A03F003030029E6D043F008
:102AB0000403E3E7D3685DF8044B023BD36070473F
:102AC000D3685DF8044B0233D3607047D3685DF878
:102AD000044B0133D3607047B42D0220214B10B456
:102AE000D3F89C201368506819780478507A137AC8
:102AF000044201EA03011BD0937A03F0030309B1F6
:102B000043F0040343F008039910013B91720D2B2D
:102B10000BD8DFE803F021071B070A152121150A4E
:102B2000071B0721D368013BD3605DF8044B704756
:102B3000937A03F003030029E6D043F00403E3E7AC
:102B4000D3685DF8044B023BD3607047D3685DF8EF
:102B5000044B0233D3607047D3685DF8044B0133F4
:102B6000D3607047B42D0220214B10B4D3F8A020BD
:102B70001368506819780478507A137A044201EA8D
:102B800003011BD0937A03F0030309B143F004035C
:102B900043F008039910013B91720D2B0BD8DFE82D
:102BA00003F021071B070A152121150A071B07211E
:102BB000D368013BD3605DF8044B7047937A03F010
:102BC00003030029E6D043F00403E3E7D3685DF88C
:102BD000044B023BD3607047D3685DF8044B02336B
:102BE000D3607047D3685DF8044B0133D3607047FE
:102BF000B42D0220214B10B4D3F8A42013685068E0
:102C000019780478507A137A044201EA03011BD040
:102C1000937A03F0030309B143F0040343F008037C
:102C20009910013B91720D2B0BD8DFE803F02107BF
:102C30001B070A152121150A071B0721D368013B31
:102C4000D3605DF8044B7047937A03F003030029C7
:102C5000E6D043F00403E3E7D3685DF8044B023B9E
:102C6000D3607047D3685DF8044B0233D36070477C
:102C7000D3685DF8044B0133D3607047B42D022054
:102C8000214B10B4D3F8A820136850681978047841
:102C9000507A137A044201EA03011BD0937A03F0BD
:102CA000030309B143F0040343F008039910013B07
:102CB00091720D2B0BD8DFE803F021071B070A15D3
:102CC0002121150A071B0721D368013BD3605DF85A
:102CD000044B7047937A03F003030029E6D043F0D6
:102CE0000403E3E7D3685DF8044B023BD36070470D
:102CF000D3685DF8044B0233D3607047D3685DF846
:102D0000044B0133D3607047B42D0220214B10B423
:102D1000D3F8AC201368506819780478507A137A85
:102D2000044201EA03011BD0937A03F0030309B1C3
:102D300043F0040343F008039910013B91720D2BFB
:102D40000BD8DFE803F021071B070A152121150A1C
:102D5000071B0721D368013BD3605DF8044B704724
:102D6000937A03F003030029E6D043F00403E3E77A
:102D7000D3685DF8044B023BD3607047D3685DF8BD
:102D8000044B0233D3607047D3685DF8044B0133C2
:102D9000D3607047B42D0220214B10B4D3F8B0207B
:102DA0001368506819780478507A137A044201EA5B
:102DB00003011BD0937A03F0030309B143F004032A
:102DC00043F008039910013B91720D2B0BD8DFE8FB
:102DD00003F021071B070A152121150A071B0721EC
:102DE000D368013BD3605DF8044B7047937A03F0DE
:102DF00003030029E6D043F00403E3E7D3685DF85A
:102E0000044B023BD3607047D3685DF8044B023338
:102E1000D3607047D3685DF8044B0133D3607047CB
:102E2000B42D0220214B10B4D3F8B420136850689D
:102E300019780478507A137A044201EA03011BD00E
:102E4000937A03F0030309B143F0040343F008034A
:102E50009910013B91720D2B0BD8DFE803F021078D
:102E60001B070A152121150A071B0721D368013BFF
:102E7000D3605DF8044B7047937A03F00303002995
:102E8000E6D043F00403E3E7D3685DF8044B023B6C
:102E9000D3607047D3685DF8044B0233D36070474A
:102EA000D3685DF8044B0133D3607047B42D022022
:102EB000214B10B4D3F8B8201368506819780478FF
:102EC000507A137A044201EA03011BD0937A03F08B
:102ED000030309B143F0040343F008039910013BD5
:102EE00091720D2B0BD8DFE803F021071B070A15A1
:102EF0002121150A071B0721D368013BD3605DF828
:102F0000044B7047937A03F003030029E6D043F0A3
:102F10000403E3E7D3685DF8044B023BD3607047DA
:102F2000D3685DF8044B0233D3607047D3685DF813
:102F3000044B0133D3607047B42D0220214B10B4F1
:102F4000D3F8BC201368506819780478507A137A43
:102F5000044201EA03011BD0937A03F0030309B191
:102F600043F0040343F008039910013B91720D2BC9
:102F70000BD8DFE803F021071B070A152121150AEA
:102F8000071B0721D368013BD3605DF8044B7047F2
:102F9000937A03F003030029E6D043F00403E3E748
:102FA000D3685DF8044B023BD3607047D3685DF88B
:102FB000044B0233D3607047D3685DF8044B013390
:102FC000D3607047B42D0220214B10B4D3F8C02039
:102FD0001368506819780478507A137A044201EA29
:102FE00003011BD0937A03F0030309B143F00403F8
:102FF00043F008039910013B91720D2B0BD8DFE8C9
:1030000003F021071B070A152121150A071B0721B9
:10301000D368013BD3605DF8044B7047937A03F0AB
:1030200003030029E6D043F00403E3E7D3685DF827
:10303000044B023BD3607047D3685DF8044B023306
:10304000D3607047D3685DF8044B0133D360704799
:10305000B42D0220214B10B4D3F8C420136850685B
:1030600019780478507A137A044201EA03011BD0DC
:10307000937A03F0030309B143F0040343F0080318
:103080009910013B91720D2B0BD8DFE803F021075B
:103090001B070A152121150A071B0721D368013BCD
:1030A000D3605DF8044B7047937A03F00303002963
:1030B000E6D043F00403E3E7D3685DF8044B023B3A
:1030C000D3607047D3685DF8044B0233D360704718
:1030D000D3685DF8044B0133D3607047B42D0220F0
:1030E000214B10B4D3F8C8201368506819780478BD
:1030F000507A137A044201EA03011BD0937A03F059
:10310000030309B143F0040343F008039910013BA2
:1031100091720D2B0BD8DFE803F021071B070A156E
:103120002121150A071B0721D368013BD3605DF8F5
:10313000044B7047937A03F003030029E6D043F071
:103140000403E3E7D3685DF8044B023BD3607047A8
:10315000D3685DF8044B0233D3607047D3685DF8E1
:10316000044B0133D3607047B42D022070B5044680
:1031700008460D462DF0C4FC236802462946204629
:103180005B68BDE87040184738B503681B680446A3
:1031900098470546204628F0B5FE284438BD00BFB4
:1031A00038B5044608460D462DF0AAFC23680246B1
:1031B00029465B68204698470546204628F0A2FE2F
:1031C000284438BD38B5054628F006FF0446284691
:1031D00028F098FE204438BD38B5C9B2054628F01D
:1031E00003FF0446284628F08DFE204438BD00BF6A
:1031F00070B50568044628460E4626F00BFA86424E
:1032000003D03146284626F01FFA204670BD00BF85
:1032100038B50469BCB12368114ADB6A934205469C
:1032200012D1A06D18B12CF0FDFB0023A365236D16
:1032300093B104F118001BF0A3FF05F11000BDE8E5
:103240003840FDF789BF38BD2046984705F110008A
:10325000BDE83840FDF780BF636D002BE9D1ECE796
:10326000C5040000F0B5012B95B005463AD0022BFD
:1032700001F1040140F20223684618BF00231CF04C
:1032800079F8129B002B36D05C2029F081FB044694
:103290009DF804601E481F49029A9DF80C3020607A
:1032A00004AF2673A1600026394604F1180022619C
:1032B000237566601BF036FF63681748174AA665DA
:1032C00001334FF47A712E712E732C61A06063600C
:1032D000A9602A60124B009338461BF051FF284624
:1032E00015B0F0BD44F20223043168461CF042F8E8
:1032F000129B002BC8D1139B002BC5D14FF47A71C0
:10330000064A2B712B732B61A9602A6004AFE1E799
:1033100054420300BC41030004420300284203005E
:10332000E041030010B4036841681A780C78417AD0
:10333000037A0C4202EA03021BD0837A03F00303F0
:103340000AB143F0040343F008039A10013B827270
:103350000D2B0BD8DFE803F021071B070A152121ED
:10336000150A071B0721C368013BC3605DF8044BC6
:103370007047837A03F00303002AE6D043F0040386
:10338000E3E7C3685DF8044B023BC3607047C36862
:103390005DF8044B0233C3607047C3685DF8044BAB
:1033A0000133C360704700BF08B5034BD3F8D400A6
:1033B000FFF7B8FF08BD00BFB42D022008B5034BCE
:1033C000D3F8D000FFF7AEFF08BD00BFB42D022038
:1033D00008B5034BD3F8CC00FFF7A4FF08BD00BF2E
:1033E000B42D022008B50B463B2800F2C682DFE868
:1033F00010F0BB02B202A902A00297028E0285025F
:103400007C0273026A02610258024F0246023D02C8
:1034100034022B022202190210020702AE01A5019A
:103420009C0193018A01810178016F0166015D01B0
:1034300054014A01400136012C01220118010E01FC
:103440000401FA00F000E600DC00D200C800BE0073
:10345000B400AA00A00096008C00820078006E00E4
:1034600064005A00500046003C00BD4ABD49C2F805
:10347000EC303B20042226F035FC012008BDB84A80
:10348000B949C2F8E8303A20042226F02BFC01208A
:1034900008BDB34AB549C2F8E4303920042226F009
:1034A00021FC012008BDAE4AB149C2F8E030382005
:1034B000042226F017FC012008BDA94AAD49C2F834
:1034C000DC303720042226F00DFC012008BDA44A80
:1034D000A949C2F8D8303620042226F003FC012086
:1034E00008BD9F4AA549C2F8D4303520042226F0F1
:1034F000F9FB012008BD9A4AA149C2F8D030342016
:10350000042226F0EFFB012008BD954A9D49C2F830
:10351000CC303320042226F0E5FB012008BD904A80
:103520009949C2F8C8303220042226F0DBFB012082
:1035300008BD8B4A9549C2F8C4303120042226F0D8
:10354000D1FB012008BD864A9149C2F8C030302025
:10355000042226F0C7FB012008BD814A8D49C2F82C
:10356000BC302F20042226F0BDFB012008BD7C4A80
:103570008949C2F8B8302E20042226F0B3FB01207E
:1035800008BD774A8549C2F8B4302D20042226F0C0
:10359000A9FB012008BD724A8149C2F8B0302C2035
:1035A000042226F09FFB012008BD6D4A7D49C2F828
:1035B000AC302B20042226F095FB012008BD684A80
:1035C0007949C2F8A8302A20042226F08BFB01207A
:1035D00008BD634A7549C2F8A4302920042226F0A8
:1035E00081FB012008BD5E4A7149C2F8A030282045
:1035F000042226F077FB012008BD594A6D49C2F824
:103600009C302720042226F06DFB012008BD544A7F
:103610006949C2F898302620042226F063FB012075
:1036200008BD4F4A6549C2F894302520042226F08F
:1036300059FB012008BD4A4A6149C2F89030242054
:10364000042226F04FFB012008BD454A5D49C2F81F
:103650008C302320042226F045FB012008BD404A7F
:103660005949C2F888302220042226F03BFB012071
:1036700008BD3B4A5549C2F884302120042226F077
:1036800031FB012008BD364A5149C2F88030202064
:10369000042226F027FB012008BD314A4D49D3679B
:1036A0001F20042226F01EFB012008BD2C4A4A4997
:1036B00093671E20042226F015FB012008BD284A2E
:1036C000464953671D20042226F00CFB012008BD4B
:1036D000234A434913671C20042226F003FB0120E0
:1036E00008BD1F4A3F49D3661B20042226F0FAFA80
:1036F000012008BD1A4A3C4993661A20042226F08C
:10370000F1FA012008BD164A3849536619200422EF
:1037100026F0E8FA012008BD114A35491366182041
:10372000042226F0DFFA012008BD0D4A3149D36595
:103730001720042226F0D6FA012008BD084A2E4997
:1037400093651620042226F0CDFA012008BD044A14
:103750002A4953651520042226F0C4FA012008BD29
:10376000B42D02209527000009270000C52900007C
:1037700039290000AD28000021280000A9330000ED
:10378000BD330000D1330000E130000055300000AF
:10379000C92F00003D2F0000B12E0000252E000093
:1037A000992D00000D2D0000812C0000F52B00004C
:1037B000692B0000DD2A0000512A00007D26000050
:1037C000F125000065250000D92400004D240000EB
:1037D000C123000035230000A92200001D220000A3
:1037E000912100000521000079200000ED1F00005C
:1037F000611F0000D51E0000491E0000BD1D000015
:103800005F4A604913651420042226F06BFA0120F8
:1038100008BD5B4A5C49D3641320042226F062FA97
:10382000012008BD564A594993641220042226F00B
:1038300059FA012008BD524A554953641120042207
:1038400026F050FA012008BD4D4A52491364102059
:10385000042226F047FA012008BD494A4E49D363A5
:103860000F20042226F03EFA012008BD444A4B49AD
:1038700093630E20042226F035FA012008BD404A49
:10388000474953630D20042226F02CFA012008BD7D
:103890003B4A444913630C20042226F023FA0120FA
:1038A00008BD374A4049D3620B20042226F01AFA99
:1038B000012008BD324A3D4993620A20042226F0C5
:1038C00011FA012008BD2E4A394953620920042209
:1038D00026F008FA012008BD294A3649136208205B
:1038E000042226F0FFF9012008BD254A3249D361A0
:1038F0000720042226F0F6F9012008BD204A2F49AE
:1039000093610620042226F0EDF9012008BD1C4A2F
:103910002B4953610520042226F0E4F9012008BD5B
:10392000174A284913610422104626F0DBF90120CA
:1039300008BD134A2449D3600320042226F0D2F99B
:10394000012008BD0E4A214993600220042226F07E
:10395000C9F9012008BD0A4A1D495360012004220B
:1039600026F0C0F9012008BD054A1A49136000205D
:10397000042226F0B7F9012008BD002008BD00BFD1
:10398000B42D0220311D0000A51C0000191C0000F0
:103990008D1B0000011B0000751A0000E9190000D2
:1039A0005D190000D118000045180000B91700008B
:1039B0002D170000A1160000151600008915000043
:1039C000FD14000071140000E513000059130000FD
:1039D000CD12000041120000024B1B68DB6F1B6B15
:1039E0001B697047501CFF1F2DE9F0411D4B1D68DE
:1039F000854282B016468CB219D005B2C4F59073D8
:103A00000022294600921BB20A2217481FF0DEFA54
:103A1000164B15481B880093C4F59572A31B1BB267
:103A200012B229461FF0D2FA02B0BDE8F081C4F507
:103A300095772DB23FB24FF478483B462946CDF8F2
:103A400000800A2208481FF0C1FAA31B3A461BB2A5
:103A5000CDF80080294604481FF0B8FA02B0BDE84E
:103A6000F08100BFD409FF1FA0B001206809FF1F2B
:103A70002DE9F043DFF824813E4ED8F800003E4D9A
:103A800083B02BF0E5F941EC100B29F0C1F90022CD
:103A90003A4B51EC100B2BF051FA2BF027FD2F462F
:103AA0003060002412E0364B364A53F82430364852
:103AB000126803EBC3035B01B3FBF2F20260204622
:103AC000FFF792FF0134B4F5D27F50D055F824307F
:103AD000012B2FD957F824002BF0BAF941EC100B29
:103AE00029F096F9254B002251EC100B2BF026FA09
:103AF0002BF0FCFC00EBC00033684001B0FBF3F09E
:103B0000224BB0F5907F8ABF4FF490711860196016
:103B10001F4B1B7898BF0146002BC4D155F82430A9
:103B20001948D8F8002003EBC3035B01B3FBF2F2A2
:103B30000260C4E700230FFA84F9009349464FF46A
:103B400090730A2213481FF041FA134B1B68A342DB
:103B5000B8D14FF47843009349464FF490730A224A
:103B60000C4801341FF032FAB4F5D27FAED103B065
:103B7000BDE8F083B4C50020342002200000594085
:103B8000DC07022098B00120682A0120C4C7012068
:103B90006409FF1FA0B00120D409FF1F506F01204E
:103BA00030B5104B1D68854283B00B460DD00E4AD0
:103BB000128800920446C1F595720C4821B212B2E7
:103BC0001BB21FF003FA03B030BDC1F595724FF47C
:103BD0007840009029B212B21BB204481FF0F6F9E7
:103BE00003B030BDD409FF1F4C09FF1FA0B0012056
:103BF0002DE9F843184D194CDFF87080184F194E15
:103C00004FF0000910E056F82930116803EBC303A8
:103C10005B014846B3FBF1F109F101092160FFF7AF
:103C2000BFFFB9F5D27F14D02B780F4A002BEAD111
:103C300058F82930396803EBC3035B014846B3FBEE
:103C4000F1F109F101092160FFF7AAFFB9F5D27F6F
:103C5000EAD1BDE8F88300BF6409FF1FC4C7012093
:103C6000506F0120DC07022098B001203420022090
:103C700000B5074883B0B0F92020B0F91E3000929B
:103C80000022019211461FF045FC03B05DF804FBD1
:103C9000A0B00120F0B50023174F1A4647F82320A3
:103CA0000133B3F5007FF9D1144E4FF0000E01F14E
:103CB000FF3C00291DDDB0F5805F1ADA03460CEBEE
:103CC0000005002202E0B3F5805F06D056F82340DD
:103CD000AB42224403F10103F5D10844B0F5805F03
:103CE00047F82E2004DA0EF1010EBEF5007FE0D178
:103CF000F0BD0022F1E700BF34200220C8C7012038
:103D0000F0B50023174F1A4647F823200133B3F5C7
:103D1000007FF9D1144E4FF0000E01F1FF3C002955
:103D20001DDDB0F5805F1ADA03460CEB00050022BA
:103D300002E0B3F5805F06D056F82340AB42224440
:103D400003F10103F5D10844B0F5805F47F82E2058
:103D500004DA0EF1010EBEF5007FE0D1F0BD0022C5
:103D6000F1E700BFDC070220D0E600200023604816
:103D7000194640F823100133B3F5805F4FF000027D
:103D8000F7D1F0B55B495C4E5C4B5D4C5D4D5E48D8
:103D90000A7032701A605D4F5D495E4E5E4B226064
:103DA0002A6002605D4C5E4D5E483A600A60326097
:103DB0001A605D4F5D495E4E5E4B22602A60026074
:103DC0005D4C5E4D5E483A600A6032601A605D4F3D
:103DD0005D495E4E5E4B22602A6002605D4C5E4D26
:103DE0005E483A600A6032601A605D4F5D495E4E1F
:103DF0005E4B22602A605E4C5E4D02605E483A6017
:103E00000A605E4F5E4932601A605E4E5E4B226011
:103E10002A6002605D4C5E4D5E483A600A60326026
:103E20001A605D4F5D495E4E5E4B2A602260026003
:103E30005D4C5E4D5E483A600A6032605D4F5E499F
:103E40005E4E1A603C232B60236003605C4C5D4D2A
:103E50005D483B600B6033605C4F5D495D4E2B609D
:103E6000236003605C4C5D4D5D483B600B603360DC
:103E70005C4F5D495D4E2B60236003605C4C5D4D83
:103E80005D483B600B6033605C495D4F5D4E2A705E
:103E9000B42323605C4D02705C4C5D485D4B0A703E
:103EA0005D493A7032702A70227002701A705B4F4E
:103EB0005B4E5C4D5C4C5D485D4B0A705D493A70F1
:103EC00032702A70227002701A70DFF884E15A4F43
:103ED0005A4E5B4D5B4C5C485C4B0A7000218EF87F
:103EE00000203A7032702A70227002701960F0BDA2
:103EF000C8C70120795DFF1F8CB00120A85CFF1F9F
:103F0000146F0120DC0F0220C4C50020C8C50020AA
:103F1000CCC50020D0C50020D4C50020D8C50020C5
:103F2000DCC50020E0C50020E4C50020586F01205A
:103F30005C6F0120A05CFF1F606F0120646F012097
:103F4000686F01206C6F0120706F0120746F012079
:103F5000786F012074B0012080B0012078B001207A
:103F60007CB0012084B001203428022038280220AF
:103F7000481BFF1F4C1BFF1F501BFF1F541BFF1F25
:103F8000581BFF1F985CFF1F4470012048700120E0
:103F90004C70012050700120547001205870012095
:103FA0005C70012090B00120A808FF1FA008FF1F2F
:103FB0009C08FF1F8409FF1F5C08FF1F5808FF1F94
:103FC0005408FF1F5008FF1F7C09FF1F4C08FF1FEC
:103FD0004808FF1FF808FF1FE408FF1F0409FF1F20
:103FE000E008FF1FDC08FF1FFC08FF1FD808FF1FA9
:103FF0002C0AFF1F24200220546F0120C1C301207E
:10400000F0C50020C2C301209DB001209EB0012058
:10401000E81BFF1FB9C5002098C40120945CFF1F56
:104020003020022098C500209CB00120E10F022022
:1040300031270120B81F022030270120B0C5002001
:10404000A0C50020C8C6002094B001204CB30120B8
:10405000186F01205A495B4A5B48DFF8A8C2002369
:10406000F0B50B60594F5A4E5A4D5B4C5B4913608B
:104070005B4A3B6033602B60236003600B60594FE9
:10408000594E5A4D5A4C5B485B4913605B4A3B6042
:1040900033602B60236003600B60594F594E5A4DBB
:1040A0005A4C5B485B4913605B4A3B6033602B6052
:1040B000236003600B60594F594E5A4D5A4C5B4870
:1040C0005B49DFF844E213605A4A3B6033605A4F61
:1040D0005A4E2B6023605A4D5A4C03600B605A486D
:1040E0005A49CCF80030CEF800301360584A3B6093
:1040F00033602B60236003600B60564F564E574D64
:10410000574C584858491360584A3B6033602B70ED
:10411000237003700B70564F564E574D574C5848EE
:10412000584913703C223A6032602A602260026073
:104130000A60554F554E564D564C574857493A60B0
:1041400032602A60226002600A60554F554E564D1B
:10415000564C574857493A6032602A6022600260E4
:104160000A60554E554D564C5648574ADFF89CE16B
:104170005649574F4FF0B40CCEF800C033702B7037
:10418000237003701370534E534D544C5448554A8A
:104190000B7055493B7033702B7023700370137094
:1041A000524F534E534D544C5448554A0B700021B6
:1041B0003B7033702B70237003701160F0BD00BF33
:1041C000CCC50020D0C50020E4C50020D4C5002007
:1041D000D8C50020DCC50020E0C50020586F0120B4
:1041E0005C6F0120A05CFF1F606F0120646F0120E5
:1041F000686F01206C6F0120706F0120746F0120C7
:10420000786F012074B0012080B0012078B00120C7
:104210007CB0012084B001203428022038280220FC
:10422000481BFF1F4C1BFF1F501BFF1F541BFF1F72
:10423000581BFF1F985CFF1F44700120487001202D
:104240004C700120507001205470012058700120E2
:104250005C700120ACC5002090B001202420022019
:10426000546F0120186F0120C1C30120F0C5002048
:10427000A808FF1FA008FF1F9C08FF1F8409FF1F3D
:104280005C08FF1F5808FF1F5408FF1F5008FF1F3E
:104290007C09FF1F4C08FF1F4808FF1FF808FF1F7D
:1042A000E408FF1F0409FF1FE008FF1FDC08FF1FD1
:1042B000FC08FF1FD808FF1FC2C301209DB00120CA
:1042C0009EB00120E81BFF1FB9C5002098C4012043
:1042D000945CFF1F3020022098C500209CB0012074
:1042E000E10F022031270120B81F022030270120D2
:1042F000B0C50020A0C50020C8C6002094B0012091
:104300004CB30120C4C50020C8C500202C0AFF1FE3
:10431000544A554BD2ED007AD3ED006A534B27EE49
:10432000A76A66EEA63AD3ED004A76EE632A64EEFB
:10433000A40A77EEE65A22EEE47A23EEE74AA0EEEC
:10434000A57A0022A6EE864A37EE047AB5EE407AC8
:10435000F1EE10FA79D04649464A474BD2ED001AA1
:1043600093ED001A91ED002A9FED440A25EE825A42
:1043700071EEC15AF1EE644A66EEA16A67EE817A87
:10438000A4EEA55A36EEE73A33EE055A85EE073A23
:10439000B0EEC35AB4EE405AF1EE10FA48DCB4EE77
:1043A000433AF1EE10FA47D6354B83ED003A26EE4C
:1043B000016A60EEA55AA3EEE16AE2EEC25ADFEDB1
:1043C0002F3A75EE865A85EE875AF0EEC55AF4EE0E
:1043D000635AF1EE10FA03DD15EE103A002B2FDAD6
:1043E000B4EE455AF1EE10FA2AD6264B83ED005A68
:1043F00077EEE67ADFED215A67EEA07AE4EE867A70
:10440000E4EE027AC7EE876AF0EEE67AF4EE657AB9
:10441000F1EE10FA03DD16EE903A002B1EDAF4EE00
:10442000666AF1EE10FA19D6174BC3ED006A7047B1
:1044300013EE103A002BB2DB114B00221A60B6E7E4
:10444000104B4FF07E521A60D2E70D480D490E4BCB
:1044500002604FF07E5008601A6070470A4B0022DD
:104460001A607047C809FF1FCC09FF1FC409FF1F4E
:10447000D809FF1F1408FF1F1808FF1FFFFF7F7FC9
:10448000607001201C0AFF1FBCC7012030B583B03B
:1044900001AD0424204625F0BDF80134082C05F8B0
:1044A000010BF7D1124A134B92ED007A9DED016A90
:1044B000D3ED006A104A114B92ED005AD3ED005A29
:1044C00066EE077A26EE267AF7EE006AE6EE077ABF
:1044D00077EE857A77EEE57AF0EEE77AF4EEE67A33
:1044E000F1EE10FA94BF01204FF0FF3003B030BD61
:1044F0001C0AFF1F60700120BCC701201408FF1FA9
:1045000070B5012882B00E46154600F0C68002281C
:10451000044671D008B102B070BD4FF48C738DE8C1
:1045200018001C224FF4AF730A2183481EF0F2FFDB
:104530000A2211462346804822F054FC0A22102306
:1045400011468DE818007C484FF4AF731EF0E2FF6F
:104550000A2211462346784822F044FC77497648DF
:10456000FEF704FE2946744822F0A8FC3146724842
:1045700027F0A2FC4FF6FF716F4822F09FFC234604
:104580002A220A216C4822F02DFC6D496A48FEF768
:10459000EDFD3C2223460A21674822F023FC6949AD
:1045A0006548FEF7E3FD2946634822F087FC664B29
:1045B00018682AF06FFC41EC100B02215E4827F0CE
:1045C00013FD4FF6FF715C4822F078FC23465C2215
:1045D0000A21594822F006FC5C495748FEF7C6FDFF
:1045E00023466E220A21544822F0FCFB58495248C7
:1045F000FEF7BCFD02B070BD00244FF48C738DE853
:1046000018001C224FF4AF730A214B481EF082FFA2
:104610000A2211462346484822F0E4FB0A221023CE
:1046200011468DE8180044484FF4AF731EF072FF36
:104630000A2211462346404822F0D4FB3F493E4817
:10464000FEF794FD29463C4822F038FC31463A48B2
:1046500027F032FC4FF6FF71374822F02FFC23463B
:104660002A220A21344822F0BDFB2946324822F092
:1046700025FC38493048FEF779FD4FF6FF712E488A
:1046800022F01CFC0A2123463C222B4822F0AAFBE4
:1046900031492948FEF76AFD98E700244FF48C73EE
:1046A0008DE818001C224FF4AF730A2122481EF037
:1046B00031FF0A22114623461F4822F093FB0A22AB
:1046C000102311468DE818001B484FF4AF731EF0FD
:1046D00021FF0A2211462346174822F083FB17497F
:1046E0001548FEF743FD2946134822F0E7FB314603
:1046F000114827F0E1FB4FF6FF710F4822F0DEFB77
:1047000023462A220A210C4822F06CFB29460A483B
:1047100022F0D4FB11490848FEF728FD4FF6FF713F
:10472000054822F0CBFB0A2123463C22024822F016
:1047300059FB0B49ADE700BFA0B0012088E00300A2
:1047400098E00300B0E003003809FF1FC0E0030059
:10475000DCE0030014E1030030E10300F0E00300BB
:1047600008E1030038B51B4C237C012B2CD972B611
:10477000184DE36862B61849184A086813609842F1
:1047800021D0002B164816DB0068B3EB800F05DD47
:104790000023136072B6E36062B61368114C0B60BD
:1047A000002B1A46B8BFDA1C921022603220BDE8F6
:1047B000384025F071BE03689B00136072B6EB6051
:1047C00062B61368E0E738BD72B62046FEF7AAFD70
:1047D000CEE700BF1C6F0120D008FF1F9C1F0220E6
:1047E000A4C50020102002202DE9F04785B28CB22C
:1047F00084B02E4E04F1210305F114024FF4784EDB
:1048000007B212B218B2A5F11403CDF80CE0019270
:1048100002900AB20090394630461BB2A5F1020957
:1048200020F0D6FB4FF6FF780FFA89F904F1090260
:104830000E23494630468DE8080112B205231EF0CA
:1048400069FE04F1FF3A0523494604F11A02A5F175
:104850001509223424B2304600930FFA8AFA0FFA6F
:1048600089F9CDF8048012B215351EF053FE2DB231
:1048700052464B46394630468DE8100122F066FF1D
:10488000524639462B4630460094CDF8048022F03B
:104890005DFF00944B4622462946CDF80480304601
:1048A00022F054FF04B0BDE8F08700BFA0B00120A3
:1048B0002DE9F0438DB2264E05F1020885B04CF289
:1048C00018690FFA88F8052384B242468DE8080279
:1048D0000F46042301B230461EF01CFEA31D05F155
:1048E00008001BB23FB200B2EA1CA11C0097019362
:1048F0000290CDF80C90304612B209B204F10807CC
:1049000020F066FB3FB24FF0000E6A1C0723123402
:1049100006358DE808403946304624B22DB212B231
:104920000D231EF0F7FD23464246394630468DE8FA
:10493000200222F00BFFCDF8008023462A4639469C
:10494000CDF80490304622F001FF05B0BDE8F083B9
:10495000A0B001202DE9F04F8DB2354E05F1020ACD
:1049600085B04CF218670FFA8AFA052384B288469C
:10497000524601B28DE88800304604231EF0CAFD7D
:10498000A31D05F1080205F1030E0FFA88F01BB212
:1049900012B2A11C00900193029230460FFA8EF2DF
:1049A000039709B204F1080B20F012FB0FFA8BFBFE
:1049B0004FF0000E6A1C072304F10D0805F10409ED
:1049C0008DE808400FFA88F80FFA89F95946304601
:1049D00012B20D2306351EF09DFD2DB252465946EA
:1049E000434630460197CDF80090123422F0AEFED7
:1049F00024B2594643462A463046CDF800900197E6
:104A000022F0A4FE5246234641463046CDF800909F
:104A1000019722F09BFECDF8009023462A4641469E
:104A20000197304622F092FE05B0BDE8F08F00BF3E
:104A3000A0B001202DE9F04F8DB2364E05F10209EC
:104A400085B00FFA89F94CF21868052384B28DE815
:104A500008014A460F46042301B230461EF05AFDB3
:104A6000A31D05F108001BB23FB200B2EA1CA11C55
:104A70000097CDF80C800193029012B2304609B233
:104A800020F0A6FA04F1080B002707230FFA8BFB8E
:104A90008DE888006A1C04F10D0705F104083FB297
:104AA0000FFA88F840F2FF7A5946304612B20D23C9
:104AB00006351EF02FFD2DB24A4659463B4630467C
:104AC000CDF80080CDF804A0123422F03FFE24B2CD
:104AD00059463B462A463046CDF80080CDF804A022
:104AE00022F034FE4A46234639463046CDF800804F
:104AF000CDF804A022F02AFECDF8008023462A46F5
:104B00003946CDF804A0304622F020FE05B0BDE8BD
:104B1000F08F00BFA0B001202DE9F04F504B1B7863
:104B200083B0002B48D1002A00F08F80002A40DD9E
:104B30008FB285B207F10A0B96B20FFA80FA0CB267
:104B40000FFA8BFB07F1030905F105080FFA88F846
:104B500022460FFA89F95346514642480196CDF84C
:104B600000B0073722F0F2FD3FB2224643465146DD
:104B70003C480196CDF800906C1F22F0E7FD24B26E
:104B80005A465146434637480097019622F0DEFDCB
:104B900023463A4641463348CDF80090019622F02C
:104BA000D5FD009723464A46414601962D4822F0FE
:104BB000CDFD03B0BDE8F08F002AB7D18EB206F16B
:104BC0000A0A0CB20FFA8AFA0FFA80F940F2FF785B
:104BD00085B26F1D06F1030B3FB20FFA8BFB224625
:104BE0004B464946CDF800A0CDF804801D48073655
:104BF00022F0ACFD36B222463B464946CDF8048051
:104C0000CDF800B01748053D22F0A0FD2DB2524668
:104C100049463B468DE84001124822F097FD2B465D
:104C200032463946CDF800B0CDF804800D4822F068
:104C30008DFD00962B465A463946CDF8048009482A
:104C400022F084FD03B0BDE8F08F8EB206F10A0AAF
:104C50000CB20FFA8AFA0FFA80F947F6EF38B7E785
:104C6000116F0120A0B001202DE9F04F3A4B85B221
:104C70001B7805F10A0785B00A4604B23FB20FFA65
:104C800081FA002B64D14FF4404692B23B46214654
:104C90000292CDF800A052460196304822F056FD0F
:104CA000029B019603F10A080FFA88F83B46424638
:104CB0002146CDF80080294822F048FD029901964E
:104CC00001F105090FFA89F9EB1C05F1010B043517
:104CD0001BB2524621460FFA8BFB2DB2CDF8009045
:104CE0001E48039322F032FD2B4659465246CDF81A
:104CF00000900196194822F029FD0399CDF8008013
:104D000023464A460196154822F020FD5B464A4656
:104D10002946CDF800800196104822F017FD029C2C
:104D20000196A01C00B252463B46394600900B4803
:104D300022F00CFD04F108031BB28DE84800424646
:104D40003B463946054822F001FD05B0BDE8F08F2D
:104D500040F2FF7699E700BF1CB40120A0B001200B
:104D60002DE9F04F85B28CB283B0DFF860806E1D04
:104D7000A71C0A3424B240F2FF7936B23FB205F1E3
:104D8000080382468B463A463146404600941BB2A1
:104D9000CDF8049022F0DAFC05F10A03A91D0FFA00
:104DA0008BF240468DE810021BB209B222F0CEFC15
:104DB00000943A463146CDF804900FFA8AF3404603
:104DC00022F0C4FC03B0BDE8F08F00BFA0B001200A
:104DD0002DE9F0478DB282B0374E05F1040905F197
:104DE000110197B20FFA89F903B209B284B24A46A7
:104DF000009130461946019722F0A8FC631C05F18A
:104E000010001BB200B219464A4600900197304686
:104E100022F09CFC05F10E0804F108030FFA88F853
:104E20001BB219464A46CDF800803046019722F061
:104E30008DFC04F109031BB2CDF800804A461946E7
:104E40003046019722F082FC04F1020904F1040AC1
:104E500005F10D020FFA89F90FFA8AFA12B24946E2
:104E6000534600923046019722F070FC5346494663
:104E7000CDF8008042463046019722F067FC04F1ED
:104E8000050805F10C0207340FFA88F824B212B2B3
:104E90002346414600923046019722F057FC05F127
:104EA0000B0212B2234641468DE88400304622F0C0
:104EB0004DFC02B0BDE8F087A0B0012010B523F092
:104EC000CFFE092827DC324C30303023607023704D
:104ED00023F0D6FE092831DC30303023E070A37097
:104EE00023F08EFE09283BDC3030302360712371C3
:104EF00023F096FE092845DD264BC21783FB0013DD
:104F0000C2EBA30303EB8302A0EB4200303030334B
:104F1000E071A37110BD1F4B1D4C83FB0032C31702
:104F2000C3EBA20303EB8302A0EB4200303030332B
:104F30006070237023F0A4FE0928CDDD154BC21745
:104F400083FB0013C2EBA30303EB8302A0EB42003D
:104F500030303033E070A37023F052FE0928C3DDF7
:104F60000C4BC21783FB0013C2EBA30303EB8302BA
:104F7000A0EB4200303030336071237123F050FEDB
:104F80000928B9DC30303023E071A37110BD00BFB7
:104F9000B008FF1F676666662DE9F04F834D844EAB
:104FA000DFF828A2DFF8288200239DB007462B6097
:104FB0003969002900F0B2800B68DB6B534540F083
:104FC000D28100230DF1300B1A46183158464FF4A8
:104FD0007A748DF824308DF82C301A931B93CDF809
:104FE00020800A941AF020F91A9B002B00F01F82EF
:104FF0005C2027F0CDFC04464FF000090A9B9DF889
:1050000024206C499DF82CE06B482060A16023614E
:10501000594604F11800227384F814E0C4F804908F
:105020001AF080F86368C4F8088001334FF47A718D
:10503000C4F858908DF810908DF818900794039646
:10504000636005915D4B089358461AF099F8079CE8
:10505000002C6CD023685A4A1B6B934240F0688145
:10506000236D002B00F07A812B68DFF868B10133E3
:105070002B602368DB6A5B4540F06D81A06D18B141
:105080002AF0D0FC0023A365236D002B00F0CA8119
:1050900004F118001AF074F8079B5C68013C5C602E
:1050A000002C85D11A68D26A5A4540F0DC81986D8F
:1050B00020B100932AF0B6FC009B9C651A6D002A73
:1050C00000F0F88103F118001AF05AF8079C002C40
:1050D0003FF46EAF23683B4A5B68934240F0E78140
:1050E000A06D354B236018B12AF09CFC0023A3650A
:1050F000236D04F1180B002B00F0FC8158461AF0C8
:105100003FF82E4BA36058461AF03AF85C2120462F
:1051100027F042FC396900297FF44EAF4FF47A73CF
:105120008DF810108DF818100396079105933C69BF
:1051300074B12368244A1B6C934240F0FC81206DBB
:10514000002800F0EE81037813F0700F40F0DD814D
:10515000079B039613B107A8FBF7FEFFD5F8008065
:10516000B8F1FE6F40F299814FF0FF3027F012FC4A
:10517000102380E8080100F1080908F1FF34B8F1B4
:10518000000F09D0C8464046013C002127F07AFABA
:10519000631C08F11008F6D12B68DFF83C80002B67
:1051A000C8F8009040F329810024AEE0905CFF1F16
:1051B00028420300BC41030054420300E0410300C5
:1051C0007504000011110000D50C0000ED04000072
:1051D00004420300C5040000601BFF1F0B68BB4AAC
:1051E000DB6B934240F0138100230DF1300B1A4624
:1051F000183158464FF47A79DFF8F0A28DF8243050
:105200008DF82C301A931B93CDF82890CDF820A060
:105210001AF00AF81A9A002A00F015815C2027F08B
:10522000B7FB8146AA4A9DF824000A99A94B9DF82C
:105230002CE0C9F80820002289F80C00C9F81010E9
:10524000C9F804205946C9F8003009F1180089F856
:1052500014E0009219F066FFD9F80410009AC9F81A
:1052600008A001314FF47A70C9F858208DF8102049
:105270008DF81820CDF81C900396C9F804100590FD
:10528000954B0893584619F07BFF079BD8F80020F0
:1052900002EB041A002B00F05D811A688F49526BF3
:1052A0008A4240F0B080996D002900F0DF805046BE
:1052B00027F094FADDF81CA0BAF1000F21D0DAF83B
:1052C0000030DFF82CB2DB6A5B4540F09980DAF8F9
:1052D000580020B12AF0A6FB0023CAF85830DAF8AB
:1052E0005030002B00F098800AF1180019F048FFA8
:1052F000DDF81CA0DAF80430013BCAF80430002BBA
:1053000036D02B680134A34277DD396900297FF458
:1053100065AFD8F800208DF810104FF47A738DF82F
:1053200018100791039602EB041A05936C49BEE727
:105330002046984700283FF4FAAE2B68079C0133BB
:105340002B60002C3FF434AE2368DFF8A4B1DB6A95
:105350005B453FF493AE204698479DE6636D002B76
:105360007FF482AEE3E6002203A89847079C6FE62D
:10537000DAF800200093D26A5A4571D1DAF8580061
:1053800020B12AF04FFB009BCAF85830DAF85030B1
:10539000002B00F094800AF1180019F0F1FEDDF8FE
:1053A0001CA0BAF1000FACD0DAF800304D4A5B68AF
:1053B000934279D1DAF85800464BCAF8003020B150
:1053C0002AF030FB0023CAF85830DAF850300AF1DE
:1053D000180B002B00F09380584619F0D1FE3E4B7D
:1053E000CAF80830584619F0CBFE50465C2127F029
:1053F000D3FA2B680134A34287DC1DB0BDE8F08FDF
:105400005046984774E71846904701464FE70022F8
:1054100003A89847079B39E7DAF85430002B7FF44C
:1054200063AF65E7636D002B7FF432AE34E61B9B00
:10543000002B7FF4DDAD8DF8103005948DF8183019
:1054400003960793FEE51B9A002A7FF4E7AE8DF8DA
:105450001020CDF814908DF81820039607920FE7CE
:10546000504690479BE7184690472FE64FF48070D0
:10547000009301912AF0CEFA009B986588B10199BA
:1054800001701A6D002A59D0014610464FF48072FF
:1054900019F09CFB009B996D09E74FEA0810083052
:1054A00064E61149996502E75046984729E7204686
:1054B00098477DE55A6D002A7FF404AE06E6DAF8D7
:1054C0005430002B7FF467AF69E700BFED040000A4
:1054D000BC41030054420300E0410300FD0A000008
:1054E000B4FC030011110000441BFF1F0442030021
:1054F000C5040000636D002B7FF400AE01E6DAF80E
:105500005430002B7FF468AF69E7002118F0DCF815
:10551000606D00283FF41CAE0022002315F028FE29
:1055200016E6606D00283FF413AE90F8313013F0AA
:10553000500FF1D10CE62046984709E65A6D3AB172
:10554000014610464FF48072009317F069F9009BF2
:10555000996DACE60049AAE6B4FC030008B5C82280
:105560004FF4DC71112026F0A9FFDC2024F094FF19
:10557000C8224FF4DC71112026F0A0FFDC2024F0BB
:105580008BFF1120C8224FF4DC7126F097FFDC203E
:10559000BDE8084024F080BFF0B593B00DA800230B
:1055A000714A7249FDF75EFE119800282AD00368FF
:1055B0006F4A1B6B934240F0CD80036D002B00F0CF
:1055C000C28001A86B496C4C6C4D27F05BF8119BB5
:1055D0005BB11A681169A14240F08980186D0028FA
:1055E00000F0978001780E070ED40DA8FDF710FE8D
:1055F00001A827F007F8119A614B0D9312B111A879
:10560000FBF7AAFD13B0F0BDC1694669891B21D41F
:1056100008460028E9D096685A4A964274D1186D17
:10562000E0B9586D48B1012209A915F0B5FC20B9BF
:10563000FFF794FFFEF79AFBD7E79DF8241039296E
:10564000F6D80A290FD001A827F00AF9039B202BCE
:10565000BDD9EDE796684B4A964255D1012209A97A
:1056600017F040FEE3E72C2101A827F04FF9431C77
:105670000646DDD0334605A8002201A927F056F9D9
:10568000721C039B3D4E01A909A827F04FF905A8FC
:1056900027F070F9074609A827F06CF9354945F855
:1056A000270001A827F09AF809A826F0ABFF05A863
:1056B00026F0A8FF40F6FF739F4288D1324B306836
:1056C000186000221346326056F823100133B3F5F8
:1056D000805F0A44F8D1002841D12C4B18604FF468
:1056E0007A7024F0D9FE0DA8FDF792FD7DE71846EB
:1056F000884700283FF479AF119B002B98D01A6897
:105700009668204A96428AD01846012209A9B047D5
:105710008DE75E6D002E3FF468AF96F831100907F3
:105720007FF563AFD6E90401D6E90067801B61EB22
:10573000070100276FF000468F4208BF8642BFF482
:1057400068AF304665E7436D002B7FF43AAF0C4BF2
:105750000D9354E7984700283FF44DAF31E70B4BCA
:10576000B2FBF0F21A60BAE7B008FF1F3C28022033
:1057700075040000B4FC0300D90E0000C8C7012066
:10578000284203007D0C0000A85CFF1F6870012008
:105790002DE9704F92B00DA800236A4A6A49FDF7BF
:1057A00061FD1198002832D00368684A1B6B934250
:1057B00040F0C280036D002B00F0B78001A864495F
:1057C000DFF8A081634C644D26F05CFF119951B164
:1057D00008680369A3427CD10E6D002E00F0898019
:1057E00033781B0716D40DA8FDF712FD5B4BD8F8D4
:1057F00000201A6001A80023C8F8003026F002FF3C
:10580000119A574B0D9312B111A8FBF7A5FC12B0DA
:10581000BDE8708FF36972699A1A1DD4002AE2D02C
:105820008368AB4260D1086DD0B9486D38B10122B0
:1058300009A915F0B1FB10B9FFF790FED3E79DF869
:1058400024103929F8D80A290FD001A827F008F820
:10585000039B202BBAD9EFE78368AB4244D1304693
:10586000012209A917F03EFDE5E72C2101A827F048
:105870004DF8B0F1FF3F8146DED04B4605A800222F
:1058800001A927F053F809F10102039B01A909A816
:1058900027F04CF805A827F06DF8814609A827F0F5
:1058A00069F82B4948F8290001A826F097FF09A8B4
:1058B00026F0A8FE05A826F0A5FE40F6FF73994540
:1058C00084D14FF47A7024F0E7FD0DA8FDF7A0FC19
:1058D00089E708469847002885D011990029ABD060
:1058E00008688368AB429ED00846012209A9984700
:1058F000A1E74B6D002B3FF476AF93F831201207F0
:105900007FF571AFD3E904ABD3E90023BAEB020210
:105910006BEB03034FF0000A6FF000499A4508BF94
:105920009145BFF47BAF4A4678E7436D002B7FF487
:1059300045AF0B4B0D9367E7984700283FF460AFE6
:105940003CE700BF40E103003C2802207504000052
:10595000B4FC0300D90E00007D0C0000FC07FF1F03
:1059600028420300901CFF1F2DE9F04F2DED028B04
:105970009E4E9F4FD6F884049E4993B000244FF466
:105980007A7308978DF824408DF82C400C940A9374
:10599000FBF78CF830BB0DF120089749D6F884044A
:1059A000FBF784F8002840F037819449D6F8840446
:1059B000FBF77CF8002840F0CB80D6F884049049AF
:1059C000FBF774F8002876D14046FDF721FC0C9BCC
:1059D000089713B10CA8FBF7BFFB13B0BDEC028B0B
:1059E000BDE8F08F0DAD23462846824A3146FDF7CB
:1059F00039FC119B002B00F000845A680C9901328D
:105A00005A60002900F020840CA8FBF7A5FB119B2D
:105A10000D970C93002BBED011A8FBF79DFB0C98A3
:105A20000028B8D00368774A1B6B934240F0C783C5
:105A3000036D002B00F0EC8368467349DFF8D491C6
:105A4000DFED728A26F01EFE6C464FF00008AA4673
:105A50000C9939B30D682B694B4540F0F782086DFE
:105A6000002800F06B8303781B071BD5C3694269CC
:105A70009A1A00F11E81AAB1AB68654A934240F0C0
:105A8000F482086D002840F01981486D002800F06C
:105A90001C810122514615F07FFA002840F0158143
:105AA000FFF75CFD0DF120084046FDF7B1FB2046F5
:105AB00026F0A8FD71E70DAD00232846504A4B495A
:105AC000FDF7D0FB119B002B00F088835A680C99DE
:105AD00001325A60002900F0BE830CA8FBF73CFBA2
