:10000000F8FF022099010000A9000200610002002F
:100010006100020061000200610002006100020054
:10002000610002006100020061000200A9000200FC
:10003000A9000200610002005125020055250200BE
:10004000A9000200A9000200A9000200A900020004
:10005000A9000200A9000200A9000200A9000200F4
:10006000A9000200A9000200A9000200A9000200E4
:10007000A9000200A9000200A9000200A9000200D4
:10008000A9000200A9000200A9000200A9000200C4
:10009000A9000200A9000200A9000200A9000200B4
:1000A00005F9010011F90100A9000200A9000200F0
:1000B000A9000200A9000200A9000200A900020094
:1000C000A9000200A9000200A9000200A900020084
:1000D000A9000200A9000200A9000200E12F00000F
:1000E000A9000200A9000200A90002008D5E010023
:1000F000A9000200A9000200A9000200A900020054
:10010000A1270200B5270200C9270200DD2702004F
:10011000A900020099140200A9000200A90002002F
:10012000A9000200A9000200A9000200A900020023
:10013000A9000200A9000200A9000200A900020013
:10014000A9000200A90002000D120200A90002008D
:10015000A9000200A9000200A9000200A9000200F3
:10016000A9000200A90002001DF90100A900020077
:10017000A9000200A9000200A9000200A9000200D3
:10018000A9000200A9000200A9000200A9000200C3
:10019000A9000200A9000200584B4CF2205210B5F1
:1001A0001A804DF628121A8000BF00BF1FF080FF92
:1001B000534B4FF030621A60524A9A60524ADA60EA
:1001C000524B4FF470021A60514A136813F4807353
:1001D00004D150490B604FF4A85313604E4B1A786A
:1001E000110703D51A7842F008021A704B4B4C499C
:1001F0002A221A704B4A4C4B8B4204D252F8040FFD
:1002000043F8040BF8E7494B494900228B4202D2DC
:1002100043F8042BFAE74749474A002352F82300E2
:1002200041F823000133662BF8D1444B444A802126
:1002300003F8011B9342FBD1424B3E4A1A60424BEA
:100240008A221A70A3F5805324225A70A0221A70B1
:100250009A799207FCD59A79D406FCD43B4A9379D3
:1002600003F00C03082B394BF9D103221A714622F3
:100270005A719A799006FCD5344A9179334B4906E4
:10028000FBD5334A4FF08271116009215160202261
:100290001A709A7902F00C020C2AFAD12D4B2E4AD0
:1002A0001A602E4B2E4A1A6000225A60072243F829
:1002B000042C2C4AC3F80C2D62B620F0CFFC154B51
:1002C0001B68DA0705D5284820F028FA274B284A6A
:1002D0001A60284B1B785B0609D5244C244B2268F6
:1002E0009A4204D1204820F019FA0023236026F016
:1002F00033FD1FF0E3FE22F015FFFEE70E20054060
:1003000030800440823F04000100002B88ED00E0B3
:1003100010D0034014D0034002D0074000E0074053
:100320005018FF1FB0A90500F806FF1F5018FF1F47
:10033000B4C400200002FF1F0000000000E400E041
:1003400056E400E008ED00E00050064000400640A2
:100350004480044004800440C010050014E000E024
:10036000BFD401000000202054274C621CE0034051
:10037000A5C3945A00F00740FFFFFFFFFFFFFFFFF8
:10038000FFFFFFFFFFFFFFFFFFFFFFFFFFFFFFFF7D
:10039000FFFFFFFFFFFFFFFFFFFFFFFFFFFFFFFF6D
:1003A000FFFFFFFFFFFFFFFFFFFFFFFFFFFFFFFF5D
:1003B000FFFFFFFFFFFFFFFFFFFFFFFFFFFFFFFF4D
:1003C000FFFFFFFFFFFFFFFFFFFFFFFFFFFFFFFF3D
:1003D000FFFFFFFFFFFFFFFFFFFFFFFFFFFFFFFF2D
:1003E000FFFFFFFFFFFFFFFFFFFFFFFFFFFFFFFF1D
:1003F000FFFFFFFFFFFFFFFFFFFFFFFFFFFFFFFF0D
:10040000FFFFFFFFFFFFFFFFFFFFFFFFDEF9FFFF23
:1004100010B5054C237833B9044B13B10448AFF33E
:1004200000800123237010BD5018FF1F0000000042
:10043000ACA90500084B10B51BB108490848AFF33B
:1004400000800848036803B910BD074B002BFBD0A0
:10045000BDE81040184700BF000000005418FF1FFF
:10046000ACA905005018FF1F0000000000207047D5
:10047000704700BF0349044B4FF4804001220860DD
:100480001A60704708F00F409419FF1F014B0122BA
:100490001A6070478C19FF1F034A04491368012032
:1004A0000344136008607047CC600020800B00207C
:1004B00020F02EB9F8B50E4607461EF091FF05460E
:1004C0001EF07EFF04461EF06BFF6401C0B204F410
:1004D000FF54ADB2A5F2BC75044344EA45243C8008
:1004E0001EF02EFF05461EF03BFF04461EF048FF9F
:1004F000ED02640105F4FF2504F4FF542C43C0F31E
:10050000460004433480F8BD2DE9F043002283B057
:100510001FFA80F911461546DFF85880124F134E26
:1005200000E01D4658F825303C681148CDF804908D
:1005300003EBC3035B01B3FBF4F4C4F59473C2F59E
:10054000947201331BB2013212B209B200932BB282
:1005500034601DF097FC6B1CB3F5D27F29463268DE
:10056000DFD103B0BDE8F083CC4C0020F463002061
:10057000D44C002050BCFF1F2DE9F043002283B073
:100580001FFA80F911461546DFF85880124F134EB6
:1005900000E01D4658F825303C681148CDF804901D
:1005A00003EBC3035B01B3FBF4F4C4F59473C2F52E
:1005B000947201331BB2013212B209B200932BB212
:1005C00034601DF05FFC6B1CB3F5D27F29463268A6
:1005D000DFD103B0BDE8F083880B0020F463002076
:1005E000D44C0020D4B600202DE9F04F394BDFF871
:1005F000F4A01B68DFF8F09083B08046184625F021
:100600009BFF41EC100B22F0BFFF0022324B51EC5C
:10061000100B26F007F826F0DDFA00241FFA88F800
:10062000CAF80000CB462746254613E030601BB2CF
:10063000C4F5947201328DE8080139B22BB2274813
:1006400012B21DF01FFC6B1CB3F5D27F34682F462D
:100650003CD01D4659F82530012B22D95BF82500E6
:100660001F4E25F069FF41EC100B22F08DFF002298
:10067000194B51EC100B25F0D5FF26F0ABFA4FF4D7
:100680008F72DAF8003002FB00F0B0FBF3F0C0F537
:100690009473904203F10103C8D9114E0B233260C9
:1006A000C6E7C4F5947240F22913013239B20093BF
:1006B00012B22BB2CDF8048008481DF0E3FB6B1C8E
:1006C000B3F5D27F4FF000042F46C2D103B0BDE88E
:1006D000F08F00BF880B002000002440D44C002085
:1006E000F4630020D05AFF1FD4B600209FED3D7A5E
:1006F00038B53D4CF0EE476A002234F812309BB218
:1007000007EE903AF8EEE77A013277EEA67A3C2AC5
:1007100037EE277AF1D1DFED356A354DC7EE267A0F
:10072000292128460422C5ED007A1FF021FC0A2069
:1007300020F046FA95ED006ADFED2A6A002134F8D0
:10074000112034F8113092B207EE902A9BB2B8EE25
:10075000E77A07EE903AF8EEE77A36EE477A76EEE9
:10076000677A01313C29E7EE276AE8D1DFED217A8B
:10077000214B224C86EEA77A00221A6017EE100A4F
:1007800025F0FCFE41EC100B23F022F951EC100B8C
:1007900026F040FAD5ED007A194B07EE100AF0EE7C
:1007A000006AB0EE086AF0EE675AE7EE265A15487E
:1007B000E7EE067A0422242180ED007AC3ED007A68
:1007C000C4ED005A1FF0D4FB0A2020F0F9F90121F2
:1007D00028201FF0A5FB0A2020F0F2F90A4B012285
:1007E0001A7038BD000000007CC7FF1F0000704277
:1007F000C408FF1F00006C429019FF1F0008002072
:10080000A05AFF1F7C08FF1F50500020214B10B43E
:100810001A681368506819780478507A137A044279
:1008200001EA03011BD0937A03F0030309B143F0FB
:10083000040343F008039910013B91720D2B0BD870
:10084000DFE803F021071B070A152121150A071B02
:100850000721D368013BD3605DF8044B7047937A5E
:1008600003F003030029E6D043F00403E3E7D36871
:100870005DF8044B023BD3607047D3685DF8044BCE
:100880000233D3607047D3685DF8044B0133D36003
:10089000704700BF98C10020214B10B45A681368FC
:1008A000506819780478507A137A044201EA0301F7
:1008B0001BD0937A03F0030309B143F0040343F020
:1008C00008039910013B91720D2B0BD8DFE803F060
:1008D00021071B070A152121150A071B0721D368C9
:1008E000013BD3605DF8044B7047937A03F0030338
:1008F0000029E6D043F00403E3E7D3685DF8044B36
:10090000023BD3607047D3685DF8044B0233D36079
:100910007047D3685DF8044B0133D360704700BF64
:1009200098C10020214B10B49A6813685068197858
:100930000478507A137A044201EA03011BD0937AB7
:1009400003F0030309B143F0040343F008039910D3
:10095000013B91720D2B0BD8DFE803F021071B0739
:100960000A152121150A071B0721D368013BD36013
:100970005DF8044B7047937A03F003030029E6D037
:1009800043F00403E3E7D3685DF8044B023BD36014
:100990007047D3685DF8044B0233D3607047D36867
:1009A0005DF8044B0133D360704700BF98C100204D
:1009B000214B10B4DA681368506819780478507ABB
:1009C000137A044201EA03011BD0937A03F0030374
:1009D00009B143F0040343F008039910013B9172FD
:1009E0000D2B0BD8DFE803F021071B070A15212187
:1009F000150A071B0721D368013BD3605DF8044B40
:100A00007047937A03F003030029E6D043F0040310
:100A1000E3E7D3685DF8044B023BD3607047D368CB
:100A20005DF8044B0233D3607047D3685DF8044B24
:100A30000133D360704700BF98C10020214B10B430
:100A40001A691368506819780478507A137A044246
:100A500001EA03011BD0937A03F0030309B143F0C9
:100A6000040343F008039910013B91720D2B0BD83E
:100A7000DFE803F021071B070A152121150A071BD0
:100A80000721D368013BD3605DF8044B7047937A2C
:100A900003F003030029E6D043F00403E3E7D3683F
:100AA0005DF8044B023BD3607047D3685DF8044B9C
:100AB0000233D3607047D3685DF8044B0133D360D1
:100AC000704700BF98C10020214B10B45A691368C9
:100AD000506819780478507A137A044201EA0301C5
:100AE0001BD0937A03F0030309B143F0040343F0EE
:100AF00008039910013B91720D2B0BD8DFE803F02E
:100B000021071B070A152121150A071B0721D36896
:100B1000013BD3605DF8044B7047937A03F0030305
:100B20000029E6D043F00403E3E7D3685DF8044B03
:100B3000023BD3607047D3685DF8044B0233D36047
:100B40007047D3685DF8044B0133D360704700BF32
:100B500098C10020214B10B49A6913685068197825
:100B60000478507A137A044201EA03011BD0937A85
:100B700003F0030309B143F0040343F008039910A1
:100B8000013B91720D2B0BD8DFE803F021071B0707
:100B90000A152121150A071B0721D368013BD360E1
:100BA0005DF8044B7047937A03F003030029E6D005
:100BB00043F00403E3E7D3685DF8044B023BD360E2
:100BC0007047D3685DF8044B0233D3607047D36835
:100BD0005DF8044B0133D360704700BF98C100201B
:100BE000214B10B4DA691368506819780478507A88
:100BF000137A044201EA03011BD0937A03F0030342
:100C000009B143F0040343F008039910013B9172CA
:100C10000D2B0BD8DFE803F021071B070A15212154
:100C2000150A071B0721D368013BD3605DF8044B0D
:100C30007047937A03F003030029E6D043F00403DE
:100C4000E3E7D3685DF8044B023BD3607047D36899
:100C50005DF8044B0233D3607047D3685DF8044BF2
:100C60000133D360704700BF98C10020214B10B4FE
:100C70001A6A1368506819780478507A137A044213
:100C800001EA03011BD0937A03F0030309B143F097
:100C9000040343F008039910013B91720D2B0BD80C
:100CA000DFE803F021071B070A152121150A071B9E
:100CB0000721D368013BD3605DF8044B7047937AFA
:100CC00003F003030029E6D043F00403E3E7D3680D
:100CD0005DF8044B023BD3607047D3685DF8044B6A
:100CE0000233D3607047D3685DF8044B0133D3609F
:100CF000704700BF98C10020214B10B45A6A136896
:100D0000506819780478507A137A044201EA030192
:100D10001BD0937A03F0030309B143F0040343F0BB
:100D200008039910013B91720D2B0BD8DFE803F0FB
:100D300021071B070A152121150A071B0721D36864
:100D4000013BD3605DF8044B7047937A03F00303D3
:100D50000029E6D043F00403E3E7D3685DF8044BD1
:100D6000023BD3607047D3685DF8044B0233D36015
:100D70007047D3685DF8044B0133D360704700BF00
:100D800098C10020214B10B49A6A136850681978F2
:100D90000478507A137A044201EA03011BD0937A53
:100DA00003F0030309B143F0040343F0080399106F
:100DB000013B91720D2B0BD8DFE803F021071B07D5
:100DC0000A152121150A071B0721D368013BD360AF
:100DD0005DF8044B7047937A03F003030029E6D0D3
:100DE00043F00403E3E7D3685DF8044B023BD360B0
:100DF0007047D3685DF8044B0233D3607047D36803
:100E00005DF8044B0133D360704700BF98C10020E8
:100E1000214B10B4DA6A1368506819780478507A54
:100E2000137A044201EA03011BD0937A03F003030F
:100E300009B143F0040343F008039910013B917298
:100E40000D2B0BD8DFE803F021071B070A15212122
:100E5000150A071B0721D368013BD3605DF8044BDB
:100E60007047937A03F003030029E6D043F00403AC
:100E7000E3E7D3685DF8044B023BD3607047D36867
:100E80005DF8044B0233D3607047D3685DF8044BC0
:100E90000133D360704700BF98C10020214B10B4CC
:100EA0001A6B1368506819780478507A137A0442E0
:100EB00001EA03011BD0937A03F0030309B143F065
:100EC000040343F008039910013B91720D2B0BD8DA
:100ED000DFE803F021071B070A152121150A071B6C
:100EE0000721D368013BD3605DF8044B7047937AC8
:100EF00003F003030029E6D043F00403E3E7D368DB
:100F00005DF8044B023BD3607047D3685DF8044B37
:100F10000233D3607047D3685DF8044B0133D3606C
:100F2000704700BF98C10020214B10B45A6B136862
:100F3000506819780478507A137A044201EA030160
:100F40001BD0937A03F0030309B143F0040343F089
:100F500008039910013B91720D2B0BD8DFE803F0C9
:100F600021071B070A152121150A071B0721D36832
:100F7000013BD3605DF8044B7047937A03F00303A1
:100F80000029E6D043F00403E3E7D3685DF8044B9F
:100F9000023BD3607047D3685DF8044B0233D360E3
:100FA0007047D3685DF8044B0133D360704700BFCE
:100FB00098C10020214B10B49A6B136850681978BF
:100FC0000478507A137A044201EA03011BD0937A21
:100FD00003F0030309B143F0040343F0080399103D
:100FE000013B91720D2B0BD8DFE803F021071B07A3
:100FF0000A152121150A071B0721D368013BD3607D
:101000005DF8044B7047937A03F003030029E6D0A0
:1010100043F00403E3E7D3685DF8044B023BD3607D
:101020007047D3685DF8044B0233D3607047D368D0
:101030005DF8044B0133D360704700BF98C10020B6
:10104000214B10B4DA6B1368506819780478507A21
:10105000137A044201EA03011BD0937A03F00303DD
:1010600009B143F0040343F008039910013B917266
:101070000D2B0BD8DFE803F021071B070A152121F0
:10108000150A071B0721D368013BD3605DF8044BA9
:101090007047937A03F003030029E6D043F004037A
:1010A000E3E7D3685DF8044B023BD3607047D36835
:1010B0005DF8044B0233D3607047D3685DF8044B8E
:1010C0000133D360704700BF98C10020214B10B49A
:1010D0001A6C1368506819780478507A137A0442AD
:1010E00001EA03011BD0937A03F0030309B143F033
:1010F000040343F008039910013B91720D2B0BD8A8
:10110000DFE803F021071B070A152121150A071B39
:101110000721D368013BD3605DF8044B7047937A95
:1011200003F003030029E6D043F00403E3E7D368A8
:101130005DF8044B023BD3607047D3685DF8044B05
:101140000233D3607047D3685DF8044B0133D3603A
:10115000704700BF98C10020214B10B45A6C13682F
:10116000506819780478507A137A044201EA03012E
:101170001BD0937A03F0030309B143F0040343F057
:1011800008039910013B91720D2B0BD8DFE803F097
:1011900021071B070A152121150A071B0721D36800
:1011A000013BD3605DF8044B7047937A03F003036F
:1011B0000029E6D043F00403E3E7D3685DF8044B6D
:1011C000023BD3607047D3685DF8044B0233D360B1
:1011D0007047D3685DF8044B0133D360704700BF9C
:1011E00098C10020214B10B49A6C1368506819788C
:1011F0000478507A137A044201EA03011BD0937AEF
:1012000003F0030309B143F0040343F0080399100A
:10121000013B91720D2B0BD8DFE803F021071B0770
:101220000A152121150A071B0721D368013BD3604A
:101230005DF8044B7047937A03F003030029E6D06E
:1012400043F00403E3E7D3685DF8044B023BD3604B
:101250007047D3685DF8044B0233D3607047D3689E
:101260005DF8044B0133D360704700BF98C1002084
:10127000214B10B4DA6C1368506819780478507AEE
:10128000137A044201EA03011BD0937A03F00303AB
:1012900009B143F0040343F008039910013B917234
:1012A0000D2B0BD8DFE803F021071B070A152121BE
:1012B000150A071B0721D368013BD3605DF8044B77
:1012C0007047937A03F003030029E6D043F0040348
:1012D000E3E7D3685DF8044B023BD3607047D36803
:1012E0005DF8044B0233D3607047D3685DF8044B5C
:1012F0000133D360704700BF98C10020214B10B468
:101300001A6D1368506819780478507A137A044279
:1013100001EA03011BD0937A03F0030309B143F000
:10132000040343F008039910013B91720D2B0BD875
:10133000DFE803F021071B070A152121150A071B07
:101340000721D368013BD3605DF8044B7047937A63
:1013500003F003030029E6D043F00403E3E7D36876
:101360005DF8044B023BD3607047D3685DF8044BD3
:101370000233D3607047D3685DF8044B0133D36008
:10138000704700BF98C10020214B10B45A6D1368FC
:10139000506819780478507A137A044201EA0301FC
:1013A0001BD0937A03F0030309B143F0040343F025
:1013B00008039910013B91720D2B0BD8DFE803F065
:1013C00021071B070A152121150A071B0721D368CE
:1013D000013BD3605DF8044B7047937A03F003033D
:1013E0000029E6D043F00403E3E7D3685DF8044B3B
:1013F000023BD3607047D3685DF8044B0233D3607F
:101400007047D3685DF8044B0133D360704700BF69
:1014100098C10020214B10B49A6D13685068197858
:101420000478507A137A044201EA03011BD0937ABC
:1014300003F0030309B143F0040343F008039910D8
:10144000013B91720D2B0BD8DFE803F021071B073E
:101450000A152121150A071B0721D368013BD36018
:101460005DF8044B7047937A03F003030029E6D03C
:1014700043F00403E3E7D3685DF8044B023BD36019
:101480007047D3685DF8044B0233D3607047D3686C
:101490005DF8044B0133D360704700BF98C1002052
:1014A000214B10B4DA6D1368506819780478507ABB
:1014B000137A044201EA03011BD0937A03F0030379
:1014C00009B143F0040343F008039910013B917202
:1014D0000D2B0BD8DFE803F021071B070A1521218C
:1014E000150A071B0721D368013BD3605DF8044B45
:1014F0007047937A03F003030029E6D043F0040316
:10150000E3E7D3685DF8044B023BD3607047D368D0
:101510005DF8044B0233D3607047D3685DF8044B29
:101520000133D360704700BF98C10020214B10B435
:101530001A6E1368506819780478507A137A044246
:1015400001EA03011BD0937A03F0030309B143F0CE
:10155000040343F008039910013B91720D2B0BD843
:10156000DFE803F021071B070A152121150A071BD5
:101570000721D368013BD3605DF8044B7047937A31
:1015800003F003030029E6D043F00403E3E7D36844
:101590005DF8044B023BD3607047D3685DF8044BA1
:1015A0000233D3607047D3685DF8044B0133D360D6
:1015B000704700BF98C10020214B10B45A6E1368C9
:1015C000506819780478507A137A044201EA0301CA
:1015D0001BD0937A03F0030309B143F0040343F0F3
:1015E00008039910013B91720D2B0BD8DFE803F033
:1015F00021071B070A152121150A071B0721D3689C
:10160000013BD3605DF8044B7047937A03F003030A
:101610000029E6D043F00403E3E7D3685DF8044B08
:10162000023BD3607047D3685DF8044B0233D3604C
:101630007047D3685DF8044B0133D360704700BF37
:1016400098C10020214B10B49A6E13685068197825
:101650000478507A137A044201EA03011BD0937A8A
:1016600003F0030309B143F0040343F008039910A6
:10167000013B91720D2B0BD8DFE803F021071B070C
:101680000A152121150A071B0721D368013BD360E6
:101690005DF8044B7047937A03F003030029E6D00A
:1016A00043F00403E3E7D3685DF8044B023BD360E7
:1016B0007047D3685DF8044B0233D3607047D3683A
:1016C0005DF8044B0133D360704700BF98C1002020
:1016D000214B10B4DA6E1368506819780478507A88
:1016E000137A044201EA03011BD0937A03F0030347
:1016F00009B143F0040343F008039910013B9172D0
:101700000D2B0BD8DFE803F021071B070A15212159
:10171000150A071B0721D368013BD3605DF8044B12
:101720007047937A03F003030029E6D043F00403E3
:10173000E3E7D3685DF8044B023BD3607047D3689E
:101740005DF8044B0233D3607047D3685DF8044BF7
:101750000133D360704700BF98C10020214B10B403
:101760001A6F1368506819780478507A137A044213
:1017700001EA03011BD0937A03F0030309B143F09C
:10178000040343F008039910013B91720D2B0BD811
:10179000DFE803F021071B070A152121150A071BA3
:1017A0000721D368013BD3605DF8044B7047937AFF
:1017B00003F003030029E6D043F00403E3E7D36812
:1017C0005DF8044B023BD3607047D3685DF8044B6F
:1017D0000233D3607047D3685DF8044B0133D360A4
:1017E000704700BF98C10020214B10B45A6F136896
:1017F000506819780478507A137A044201EA030198
:101800001BD0937A03F0030309B143F0040343F0C0
:1018100008039910013B91720D2B0BD8DFE803F000
:1018200021071B070A152121150A071B0721D36869
:10183000013BD3605DF8044B7047937A03F00303D8
:101840000029E6D043F00403E3E7D3685DF8044BD6
:10185000023BD3607047D3685DF8044B0233D3601A
:101860007047D3685DF8044B0133D360704700BF05
:1018700098C10020214B10B49A6F136850681978F2
:101880000478507A137A044201EA03011BD0937A58
:1018900003F0030309B143F0040343F00803991074
:1018A000013B91720D2B0BD8DFE803F021071B07DA
:1018B0000A152121150A071B0721D368013BD360B4
:1018C0005DF8044B7047937A03F003030029E6D0D8
:1018D00043F00403E3E7D3685DF8044B023BD360B5
:1018E0007047D3685DF8044B0233D3607047D36808
:1018F0005DF8044B0133D360704700BF98C10020EE
:10190000214B10B4DA6F1368506819780478507A54
:10191000137A044201EA03011BD0937A03F0030314
:1019200009B143F0040343F008039910013B91729D
:101930000D2B0BD8DFE803F021071B070A15212127
:10194000150A071B0721D368013BD3605DF8044BE0
:101950007047937A03F003030029E6D043F00403B1
:10196000E3E7D3685DF8044B023BD3607047D3686C
:101970005DF8044B0233D3607047D3685DF8044BC5
:101980000133D360704700BF98C10020214B10B4D1
:10199000D3F880201368506819780478507A137A45
:1019A000044201EA03011BD0937A03F0030309B157
:1019B00043F0040343F008039910013B91720D2B8F
:1019C0000BD8DFE803F021071B070A152121150AB0
:1019D000071B0721D368013BD3605DF8044B7047B8
:1019E000937A03F003030029E6D043F00403E3E70E
:1019F000D3685DF8044B023BD3607047D3685DF851
:101A0000044B0233D3607047D3685DF8044B013355
:101A1000D360704798C10020214B10B4D3F88420C4
:101A20001368506819780478507A137A044201EAEE
:101A300003011BD0937A03F0030309B143F00403BD
:101A400043F008039910013B91720D2B0BD8DFE88E
:101A500003F021071B070A152121150A071B07217F
:101A6000D368013BD3605DF8044B7047937A03F071
:101A700003030029E6D043F00403E3E7D3685DF8ED
:101A8000044B023BD3607047D3685DF8044B0233CC
:101A9000D3607047D3685DF8044B0133D36070475F
:101AA00098C10020214B10B4D3F8882013685068E7
:101AB00019780478507A137A044201EA03011BD0A2
:101AC000937A03F0030309B143F0040343F00803DE
:101AD0009910013B91720D2B0BD8DFE803F0210721
:101AE0001B070A152121150A071B0721D368013B93
:101AF000D3605DF8044B7047937A03F00303002929
:101B0000E6D043F00403E3E7D3685DF8044B023BFF
:101B1000D3607047D3685DF8044B0233D3607047DD
:101B2000D3685DF8044B0133D360704798C100203F
:101B3000214B10B4D3F88C201368506819780478BE
:101B4000507A137A044201EA03011BD0937A03F01E
:101B5000030309B143F0040343F008039910013B68
:101B600091720D2B0BD8DFE803F021071B070A1534
:101B70002121150A071B0721D368013BD3605DF8BB
:101B8000044B7047937A03F003030029E6D043F037
:101B90000403E3E7D3685DF8044B023BD36070476E
:101BA000D3685DF8044B0233D3607047D3685DF8A7
:101BB000044B0133D360704798C10020214B10B40F
:101BC000D3F890201368506819780478507A137A03
:101BD000044201EA03011BD0937A03F0030309B125
:101BE00043F0040343F008039910013B91720D2B5D
:101BF0000BD8DFE803F021071B070A152121150A7E
:101C0000071B0721D368013BD3605DF8044B704785
:101C1000937A03F003030029E6D043F00403E3E7DB
:101C2000D3685DF8044B023BD3607047D3685DF81E
:101C3000044B0233D3607047D3685DF8044B013323
:101C4000D360704798C10020214B10B4D3F8942082
:101C50001368506819780478507A137A044201EABC
:101C600003011BD0937A03F0030309B143F004038B
:101C700043F008039910013B91720D2B0BD8DFE85C
:101C800003F021071B070A152121150A071B07214D
:101C9000D368013BD3605DF8044B7047937A03F03F
:101CA00003030029E6D043F00403E3E7D3685DF8BB
:101CB000044B023BD3607047D3685DF8044B02339A
:101CC000D3607047D3685DF8044B0133D36070472D
:101CD00098C10020214B10B4D3F8982013685068A5
:101CE00019780478507A137A044201EA03011BD070
:101CF000937A03F0030309B143F0040343F00803AC
:101D00009910013B91720D2B0BD8DFE803F02107EE
:101D10001B070A152121150A071B0721D368013B60
:101D2000D3605DF8044B7047937A03F003030029F6
:101D3000E6D043F00403E3E7D3685DF8044B023BCD
:101D4000D3607047D3685DF8044B0233D3607047AB
:101D5000D3685DF8044B0133D360704798C100200D
:101D6000214B10B4D3F89C2013685068197804787C
:101D7000507A137A044201EA03011BD0937A03F0EC
:101D8000030309B143F0040343F008039910013B36
:101D900091720D2B0BD8DFE803F021071B070A1502
:101DA0002121150A071B0721D368013BD3605DF889
:101DB000044B7047937A03F003030029E6D043F005
:101DC0000403E3E7D3685DF8044B023BD36070473C
:101DD000D3685DF8044B0233D3607047D3685DF875
:101DE000044B0133D360704798C10020214B10B4DD
:101DF000D3F8A0201368506819780478507A137AC1
:101E0000044201EA03011BD0937A03F0030309B1F2
:101E100043F0040343F008039910013B91720D2B2A
:101E20000BD8DFE803F021071B070A152121150A4B
:101E3000071B0721D368013BD3605DF8044B704753
:101E4000937A03F003030029E6D043F00403E3E7A9
:101E5000D3685DF8044B023BD3607047D3685DF8EC
:101E6000044B0233D3607047D3685DF8044B0133F1
:101E7000D360704798C10020214B10B4D3F8A42040
:101E80001368506819780478507A137A044201EA8A
:101E900003011BD0937A03F0030309B143F0040359
:101EA00043F008039910013B91720D2B0BD8DFE82A
:101EB00003F021071B070A152121150A071B07211B
:101EC000D368013BD3605DF8044B7047937A03F00D
:101ED00003030029E6D043F00403E3E7D3685DF889
:101EE000044B023BD3607047D3685DF8044B023368
:101EF000D3607047D3685DF8044B0133D3607047FB
:101F000098C10020214B10B4D3F8A8201368506862
:101F100019780478507A137A044201EA03011BD03D
:101F2000937A03F0030309B143F0040343F0080379
:101F30009910013B91720D2B0BD8DFE803F02107BC
:101F40001B070A152121150A071B0721D368013B2E
:101F5000D3605DF8044B7047937A03F003030029C4
:101F6000E6D043F00403E3E7D3685DF8044B023B9B
:101F7000D3607047D3685DF8044B0233D360704779
:101F8000D3685DF8044B0133D360704798C10020DB
:101F9000214B10B4D3F8AC2013685068197804783A
:101FA000507A137A044201EA03011BD0937A03F0BA
:101FB000030309B143F0040343F008039910013B04
:101FC00091720D2B0BD8DFE803F021071B070A15D0
:101FD0002121150A071B0721D368013BD3605DF857
:101FE000044B7047937A03F003030029E6D043F0D3
:101FF0000403E3E7D3685DF8044B023BD36070470A
:10200000D3685DF8044B0233D3607047D3685DF842
:10201000044B0133D360704798C10020214B10B4AA
:10202000D3F8B0201368506819780478507A137A7E
:10203000044201EA03011BD0937A03F0030309B1C0
:1020400043F0040343F008039910013B91720D2BF8
:102050000BD8DFE803F021071B070A152121150A19
:10206000071B0721D368013BD3605DF8044B704721
:10207000937A03F003030029E6D043F00403E3E777
:10208000D3685DF8044B023BD3607047D3685DF8BA
:10209000044B0233D3607047D3685DF8044B0133BF
:1020A000D360704798C10020214B10B4D3F8B420FE
:1020B0001368506819780478507A137A044201EA58
:1020C00003011BD0937A03F0030309B143F0040327
:1020D00043F008039910013B91720D2B0BD8DFE8F8
:1020E00003F021071B070A152121150A071B0721E9
:1020F000D368013BD3605DF8044B7047937A03F0DB
:1021000003030029E6D043F00403E3E7D3685DF856
:10211000044B023BD3607047D3685DF8044B023335
:10212000D3607047D3685DF8044B0133D3607047C8
:1021300098C10020214B10B4D3F8B8201368506820
:1021400019780478507A137A044201EA03011BD00B
:10215000937A03F0030309B143F0040343F0080347
:102160009910013B91720D2B0BD8DFE803F021078A
:102170001B070A152121150A071B0721D368013BFC
:10218000D3605DF8044B7047937A03F00303002992
:10219000E6D043F00403E3E7D3685DF8044B023B69
:1021A000D3607047D3685DF8044B0233D360704747
:1021B000D3685DF8044B0133D360704798C10020A9
:1021C000214B10B4D3F8BC201368506819780478F8
:1021D000507A137A044201EA03011BD0937A03F088
:1021E000030309B143F0040343F008039910013BD2
:1021F00091720D2B0BD8DFE803F021071B070A159E
:102200002121150A071B0721D368013BD3605DF824
:10221000044B7047937A03F003030029E6D043F0A0
:102220000403E3E7D3685DF8044B023BD3607047D7
:10223000D3685DF8044B0233D3607047D3685DF810
:10224000044B0133D360704798C10020214B10B478
:10225000D3F8C0201368506819780478507A137A3C
:10226000044201EA03011BD0937A03F0030309B18E
:1022700043F0040343F008039910013B91720D2BC6
:102280000BD8DFE803F021071B070A152121150AE7
:10229000071B0721D368013BD3605DF8044B7047EF
:1022A000937A03F003030029E6D043F00403E3E745
:1022B000D3685DF8044B023BD3607047D3685DF888
:1022C000044B0233D3607047D3685DF8044B01338D
:1022D000D360704798C10020214B10B4D3F8C420BC
:1022E0001368506819780478507A137A044201EA26
:1022F00003011BD0937A03F0030309B143F00403F5
:1023000043F008039910013B91720D2B0BD8DFE8C5
:1023100003F021071B070A152121150A071B0721B6
:10232000D368013BD3605DF8044B7047937A03F0A8
:1023300003030029E6D043F00403E3E7D3685DF824
:10234000044B023BD3607047D3685DF8044B023303
:10235000D3607047D3685DF8044B0133D360704796
:1023600098C10020214B10B4D3F8C82013685068DE
:1023700019780478507A137A044201EA03011BD0D9
:10238000937A03F0030309B143F0040343F0080315
:102390009910013B91720D2B0BD8DFE803F0210758
:1023A0001B070A152121150A071B0721D368013BCA
:1023B000D3605DF8044B7047937A03F00303002960
:1023C000E6D043F00403E3E7D3685DF8044B023B37
:1023D000D3607047D3685DF8044B0233D360704715
:1023E000D3685DF8044B0133D360704798C1002077
:1023F000214B10B4D3F8CC201368506819780478B6
:10240000507A137A044201EA03011BD0937A03F055
:10241000030309B143F0040343F008039910013B9F
:1024200091720D2B0BD8DFE803F021071B070A156B
:102430002121150A071B0721D368013BD3605DF8F2
:10244000044B7047937A03F003030029E6D043F06E
:102450000403E3E7D3685DF8044B023BD3607047A5
:10246000D3685DF8044B0233D3607047D3685DF8DE
:10247000044B0133D360704798C10020214B10B446
:10248000D3F8D0201368506819780478507A137AFA
:10249000044201EA03011BD0937A03F0030309B15C
:1024A00043F0040343F008039910013B91720D2B94
:1024B0000BD8DFE803F021071B070A152121150AB5
:1024C000071B0721D368013BD3605DF8044B7047BD
:1024D000937A03F003030029E6D043F00403E3E713
:1024E000D3685DF8044B023BD3607047D3685DF856
:1024F000044B0233D3607047D3685DF8044B01335B
:10250000D360704798C10020214B10B4D3F8D42079
:102510001368506819780478507A137A044201EAF3
:1025200003011BD0937A03F0030309B143F00403C2
:1025300043F008039910013B91720D2B0BD8DFE893
:1025400003F021071B070A152121150A071B072184
:10255000D368013BD3605DF8044B7047937A03F076
:1025600003030029E6D043F00403E3E7D3685DF8F2
:10257000044B023BD3607047D3685DF8044B0233D1
:10258000D3607047D3685DF8044B0133D360704764
:1025900098C10020214B10B4D3F8D820136850689C
:1025A00019780478507A137A044201EA03011BD0A7
:1025B000937A03F0030309B143F0040343F00803E3
:1025C0009910013B91720D2B0BD8DFE803F0210726
:1025D0001B070A152121150A071B0721D368013B98
:1025E000D3605DF8044B7047937A03F0030300292E
:1025F000E6D043F00403E3E7D3685DF8044B023B05
:10260000D3607047D3685DF8044B0233D3607047E2
:10261000D3685DF8044B0133D360704798C1002044
:10262000214B10B4D3F8DC20136850681978047873
:10263000507A137A044201EA03011BD0937A03F023
:10264000030309B143F0040343F008039910013B6D
:1026500091720D2B0BD8DFE803F021071B070A1539
:102660002121150A071B0721D368013BD3605DF8C0
:10267000044B7047937A03F003030029E6D043F03C
:102680000403E3E7D3685DF8044B023BD360704773
:10269000D3685DF8044B0233D3607047D3685DF8AC
:1026A000044B0133D360704798C10020214B10B414
:1026B000D3F8E0201368506819780478507A137AB8
:1026C000044201EA03011BD0937A03F0030309B12A
:1026D00043F0040343F008039910013B91720D2B62
:1026E0000BD8DFE803F021071B070A152121150A83
:1026F000071B0721D368013BD3605DF8044B70478B
:10270000937A03F003030029E6D043F00403E3E7E0
:10271000D3685DF8044B023BD3607047D3685DF823
:10272000044B0233D3607047D3685DF8044B013328
:10273000D360704798C10020214B10B4D3F8E42037
:102740001368506819780478507A137A044201EAC1
:1027500003011BD0937A03F0030309B143F0040390
:1027600043F008039910013B91720D2B0BD8DFE861
:1027700003F021071B070A152121150A071B072152
:10278000D368013BD3605DF8044B7047937A03F044
:1027900003030029E6D043F00403E3E7D3685DF8C0
:1027A000044B023BD3607047D3685DF8044B02339F
:1027B000D3607047D3685DF8044B0133D360704732
:1027C00098C10020214B10B4D3F8E820136850685A
:1027D00019780478507A137A044201EA03011BD075
:1027E000937A03F0030309B143F0040343F00803B1
:1027F0009910013B91720D2B0BD8DFE803F02107F4
:102800001B070A152121150A071B0721D368013B65
:10281000D3605DF8044B7047937A03F003030029FB
:10282000E6D043F00403E3E7D3685DF8044B023BD2
:10283000D3607047D3685DF8044B0233D3607047B0
:10284000D3685DF8044B0133D360704798C1002012
:10285000214B10B4D3F8EC20136850681978047831
:10286000507A137A044201EA03011BD0937A03F0F1
:10287000030309B143F0040343F008039910013B3B
:1028800091720D2B0BD8DFE803F021071B070A1507
:102890002121150A071B0721D368013BD3605DF88E
:1028A000044B7047937A03F003030029E6D043F00A
:1028B0000403E3E7D3685DF8044B023BD360704741
:1028C000D3685DF8044B0233D3607047D3685DF87A
:1028D000044B0133D360704798C1002070B50446A3
:1028E00008460D4625F02CF9236802462946204665
:1028F0005B68BDE87040184738B5044608460D4689
:1029000025F01EF92368024629465B682046984751
:10291000054620461FF0A8FF284438BD38B50546B7
:1029200020F008F8044628461FF09EFF204438BDDA
:1029300038B5C9B2054620F007F8044628461FF00E
:1029400093FF204438BD00BF70B505680446284693
:102950000E461DF0CBFA864203D0314628461DF0C4
:10296000DFFA204670BD00BF10B4036841681A78D2
:102970000C78417A037A0C4202EA03021BD0837A74
:1029800003F003030AB143F0040343F008039A1071
:10299000013B82720D2B0BD8DFE803F021071B07E8
:1029A0000A152121150A071B0721C368013BC360D3
:1029B0005DF8044B7047837A03F00303002AE6D0E6
:1029C00043F00403E3E7C3685DF8044B023BC360D4
:1029D0007047C3685DF8044B0233C3607047C36837
:1029E0005DF8044B0133C360704700BF08B50B4668
:1029F0003B2800F2C682DFE810F0BB02B202A90257
:102A0000A00297028E0285027C0273026A026102B2
:102A100058024F0246023D0234022B0222021902E2
:102A200010020702AE01A5019C0193018A018101F8
:102A300078016F0166015D0154014A0140013601D0
:102A40002C01220118010E010401FA00F000E60039
:102A5000DC00D200C800BE00B400AA00A0009600AE
:102A60008C00820078006E0064005A00500046001E
:102A70003C00BD4ABD49C2F8EC303B2004221DF0A9
:102A800087FD012008BDB84AB949C2F8E8303A20AC
:102A900004221DF07DFD012008BDB34AB549C2F8EE
:102AA000E430392004221DF073FD012008BDAE4A38
:102AB000B149C2F8E030382004221DF069FD012040
:102AC00008BDA94AAD49C2F8DC30372004221DF008
:102AD0005FFD012008BDA44AA949C2F8D8303620BC
:102AE00004221DF055FD012008BD9F4AA549C2F8EA
:102AF000D430352004221DF04BFD012008BD9A4A38
:102B0000A149C2F8D030342004221DF041FD01203B
:102B100008BD954A9D49C2F8CC30332004221DF0EF
:102B200037FD012008BD904A9949C2F8C8303220CB
:102B300004221DF02DFD012008BD8B4A9549C2F8E5
:102B4000C430312004221DF023FD012008BD864A37
:102B50009149C2F8C030302004221DF019FD012037
:102B600008BD814A8D49C2F8BC302F2004221DF0D7
:102B70000FFD012008BD7C4A8949C2F8B8302E20DB
:102B800004221DF005FD012008BD774A8549C2F8E1
:102B9000B4302D2004221DF0FBFC012008BD724A38
:102BA0008149C2F8B0302C2004221DF0F1FC012034
:102BB00008BD6D4A7D49C2F8AC302B2004221DF0BF
:102BC000E7FC012008BD684A7949C2F8A8302A20EC
:102BD00004221DF0DDFC012008BD634A7549C2F8DE
:102BE000A430292004221DF0D3FC012008BD5E4A38
:102BF0007149C2F8A030282004221DF0C9FC012030
:102C000008BD594A6D49C2F89C30272004221DF0A6
:102C1000BFFC012008BD544A6949C2F898302620FB
:102C200004221DF0B5FC012008BD4F4A6549C2F8D9
:102C30009430252004221DF0ABFC012008BD4A4A37
:102C40006149C2F89030242004221DF0A1FC01202B
:102C500008BD454A5D49C2F88C30232004221DF08E
:102C600097FC012008BD404A5949C2F8883022200B
:102C700004221DF08DFC012008BD3B4A5549C2F8D5
:102C80008430212004221DF083FC012008BD364A37
:102C90005149C2F88030202004221DF079FC012027
:102CA00008BD314A4D49D3671F2004221DF070FC36
:102CB000012008BD2C4A4A4993671E2004221DF0BA
:102CC00067FC012008BD284A464953671D2004229D
:102CD0001DF05EFC012008BD234A434913671C20F8
:102CE00004221DF055FC012008BD1F4A3F49D36650
:102CF0001B2004221DF04CFC012008BD1A4A3C494F
:102D000093661A2004221DF043FC012008BD164AD8
:102D100038495366192004221DF03AFC012008BDF1
:102D2000114A35491366182004221DF031FC012098
:102D300008BD0D4A3149D365172004221DF028FC37
:102D4000012008BD084A2E499365162004221DF073
:102D50001FFC012008BD044A2A495365152004229E
:102D60001DF016FC012008BD98C10020512800006C
:102D7000C527000039270000AD26000021260000ED
:102D800095250000092500007D240000F1230000A6
:102D900065230000D92200004D220000C12100005F
:102DA00035210000A92000001D200000911F000017
:102DB000051F0000791E0000ED1D0000611D0000D0
:102DC000D51C0000491C0000BD1B0000311B000089
:102DD000A51A0000191A00008D1900000119000041
:102DE00075180000E91700005D170000D1160000FB
:102DF00045160000B91500002D150000A1140000B3
:102E000015140000891300005F4A604913651420FF
:102E100004221DF0BDFB012008BD5B4A5C49D36460
:102E2000132004221DF0B4FB012008BD564A594965
:102E30009364122004221DF0ABFB012008BD524A0E
:102E400055495364112004221DF0A2FB012008BD46
:102E50004D4A52491364102004221DF099FB0120B1
:102E600008BD494A4E49D3630F2004221DF090FB50
:102E7000012008BD444A4B4993630E2004221DF0F3
:102E800087FB012008BD404A474953630D200422B7
:102E90001DF07EFB012008BD3B4A444913630C2012
:102EA00004221DF075FB012008BD374A4049D3625A
:102EB0000B2004221DF06CFB012008BD324A3D4965
:102EC00093620A2004221DF063FB012008BD2E4AF4
:102ED00039495362092004221DF05AFB012008BD24
:102EE000294A36491362082004221DF051FB0120B3
:102EF00008BD254A3249D361072004221DF048FB52
:102F0000012008BD204A2F499361062004221DF0AC
:102F10003FFB012008BD1C4A2B49536105200422B8
:102F20001DF036FB012008BD174A28491361042211
:102F300010461DF02DFB012008BD134A2449D36023
:102F4000032004221DF024FB012008BD0E4A214964
:102F50009360022004221DF01BFB012008BD0A4AD9
:102F60001D495360012004221DF012FB012008BD01
:102F7000054A1A491360002004221DF009FB0120B4
:102F800008BD002008BD00BF98C10020FD12000050
:102F900071120000E511000059110000CD10000071
:102FA00041100000B50F0000290F00009D0E000029
:102FB000110E0000850D0000F90C00006D0C0000E2
:102FC000E10B0000550B0000C90A00003D0A00009B
:102FD000B109000025090000990800000D08000053
:102FE000024B1B68DB6F1B6B1B6970477C19FF1F53
:102FF0002DE9F0411D4B1D68854282B016468CB20A
:1030000019D005B2C4F590730022294600921BB274
:103010000A22174816F0B2FB164B15481B8800937E
:10302000C4F59572A31B1BB212B2294616F0A6FB7B
:1030300002B0BDE8F081C4F595772DB23FB24FF4F0
:1030400078483B462946CDF800800A22084816F009
:1030500095FBA31B3A461BB2CDF8008029460448D5
:1030600016F08CFB02B0BDE8F08100BFA809FF1F7D
:10307000D44C00204409FF1F2DE9F043DFF82481E0
:103080003E4ED8F800003E4D83B023F055FA41EC97
:10309000100B20F079FA00223A4B51EC100B23F080
:1030A000C1FA23F097FD2F463060002412E0364B22
:1030B000364A53F824303648126803EBC3035B01E9
:1030C000B3FBF2F202602046FFF792FF0134B4F541
:1030D000D27F50D055F82430012B2FD957F8240037
:1030E00023F02AFA41EC100B20F04EFA254B002277
:1030F00051EC100B23F096FA23F06CFD00EBC000AE
:1031000033684001B0FBF3F0224BB0F5907F8ABFEB
:103110004FF49071186019601F4B1B7898BF0146DF
:10312000002BC4D155F824301948D8F8002003EBFF
:10313000C3035B01B3FBF2F20260C4E700230FFAA2
:1031400084F9009349464FF490730A22134816F00D
:1031500015FB134B1B68A342B8D14FF4784300937F
:1031600049464FF490730A220C48013416F006FBCE
:10317000B4F5D27FAED103B0BDE8F083D05AFF1FC3
:10318000D4B600200000594050BCFF1FCC4C00209A
:1031900074C7FF1FF46300200408FF1FD44C0020F5
:1031A000A809FF1F880B002030B5104B1D68854211
:1031B00083B00B460DD00E4A128800920446C1F52A
:1031C00095720C4821B212B21BB216F0D7FA03B0B6
:1031D00030BDC1F595724FF47840009029B212B21B
:1031E0001BB2044816F0CAFA03B030BDA809FF1F8D
:1031F0003409FF1FD44C00202DE9F843184D194C19
:10320000DFF87080184F194E4FF0000910E056F8A3
:103210002930116803EBC3035B014846B3FBF1F1AE
:1032200009F101092160FFF7BFFFB9F5D27F14D082
:103230002B780F4A002BEAD158F82930396803EB74
:10324000C3035B014846B3FBF1F109F101092160B9
:10325000FFF7AAFFB9F5D27FEAD1BDE8F88300BF36
:103260000408FF1FF4630020880B002050BCFF1FE0
:10327000CC4C0020D4B6002000B5074883B0B0F98C
:103280002020B0F91E30009200220192114616F063
:1032900019FD03B05DF804FBD44C0020F0B5002309
:1032A000174F1A4647F823200133B3F5007FF9D1B1
:1032B000144E4FF0000E01F1FF3C00291DDDB0F56A
:1032C000805F1ADA03460CEB0005002202E0B3F53A
:1032D000805F06D056F82340AB42224403F101033D
:1032E000F5D10844B0F5805F47F82E2004DA0EF1DE
:1032F000010EBEF5007FE0D1F0BD0022F1E700BF76
:10330000D4B60020F8630020F0B50023174F1A460A
:1033100047F823200133B3F5007FF9D1144E4FF065
:10332000000E01F1FF3C00291DDDB0F5805F1ADAC7
:1033300003460CEB0005002202E0B3F5805F06D0E7
:1033400056F82340AB42224403F10103F5D108446F
:10335000B0F5805F47F82E2004DA0EF1010EBEF5BD
:10336000007FE0D1F0BD0022F1E700BF50BCFF1F9D
:10337000EC7BFF1F00235D48194640F82310013302
:10338000B3F5805F4FF00002F7D1594B59485A49C5
:10339000F0B55A4C1A705A4F5A4E5B4D5B4B027047
:1033A00022605B485B4C3A600A6032602A601A60B7
:1033B000594F5A495A4E5B4D5B4B026022605B4845
:1033C0005B4C3A600A6032602A601A60594F5A4971
:1033D0005A4E5B4D5B4B026022605B485B4C3A602F
:1033E0000A6032602A601A60594F5A495A4E5B4D42
:1033F0005B4B026022605B485B4C3A600A605B4F4B
:103400005B4932602A605B4E5B4D1A605B4B026029
:1034100022605B485B4C3A600A6032602A601A6046
:10342000594F5A495A4E5B4D5B4B026022605B48D4
:103430005B4C3A600A6032602A605A4F5A495B4ED0
:103440005B4D1A603C23236002605A4C5A483B6033
:103450000B6033602B60594F59495A4E5A4D0360E7
:1034600023605A485A4C3B600B6033602B60594FC5
:1034700059495A4E5A4D036023605A485A4C3B6092
:103480000B6033602B605949DFF8B4E1584F594E57
:10349000594D2270B4230360584C5948594B8EF84B
:1034A00000200A7058493A7032702A7022700270F7
:1034B0001A70564F564E574D574C5848584B0A7035
:1034C00058493A7032702A70227002701A70564F42
:1034D000564E574D574C5848584B0A7000213A7079
:1034E00032702A70227002701960F0BDF8630020FB
:1034F000BC4C00209C5AFF1F0CA40020CC59FF1F7D
:10350000300B0020E45AFF1FE85AFF1FF05AFF1F3C
:10351000EC5AFF1FF45AFF1FF85AFF1FB85AFF1F3B
:10352000005BFF1F045BFF1F940B0020900B00202B
:10353000C44C0020980B00209C0B0020A00B002006
:10354000A40B0020AC0B0020A80B0020B00B002027
:10355000A84C0020B44C0020AC4C0020B04C002003
:10356000D8BE0020D4BE00206C18FF1FDC5AFF1FFD
:103570007018FF1F7418FF1F7818FF1F7C0C0020A5
:10358000C059FF1F800C0020840C0020880C0020F4
:103590008C0C0020900C0020C04C0020940C0020CB
:1035A000A009FF1F7808FF1F5C08FF1F5808FF1FB6
:1035B0005408FF1F4C08FF1F5008FF1F5009FF1F32
:1035C0004808FF1F4408FF1FE408FF1FD008FF1F23
:1035D000F008FF1FCC08FF1FC808FF1FE808FF1FE7
:1035E000D808FF1FE009FF1FE55BFF1F340B002019
:1035F000F55F0020105BFF1FF65F0020D04C00201D
:10360000D14C00200419FF1FD55AFF1FD8B300204A
:10361000BC59FF1FD0B60020AC5AFF1F11A40020D8
:103620004DBCFF1FE1B300204CBCFF1FCC5AFF1F55
:10363000BC5AFF1FE45BFF1FC84C0020804F0020D6
:103640008C0B0020F0B5574A574C584F5848594EEC
:1036500059495A4DDFF880C2DFF880E20023236029
:103660003B601360564C574F574A036057483360CE
:103670000B602B6023603B601360554E5549564DDF
:10368000564C574F574A0360574833600B602B60C6
:1036900023603B601360554E5549564D564C574F6D
:1036A000574A0360574833600B602B602360564EC7
:1036B0005649574D574C3B601360574F574A03606C
:1036C0005748CCF80030CEF8003033600B60554ED0
:1036D00055492B602360554D3B60554C1360554A4E
:1036E0000360554833600B602B6023601360534FB9
:1036F000534E5449544D554C554A037055483B6000
:1037000033700B702B702370534F544E5449554DEA
:10371000554C13703C220260544832600A602A60A3
:1037200022603B70524E534F5349544D544C0260EB
:1037300054483A6032600A602A602260524F534E09
:103740005349544D544C0260DFF894C153483A60D9
:1037500032600A602A6022605149524F524E534DE6
:10376000534CDFF880E1B422CCF800200370514ABA
:1037700051480B7051493B7033702B7023700370AC
:1037800013704F4F4F4E504D504C5148514A0B7093
:1037900000218EF800303B7033702B702370037063
:1037A0001160F0BDF45AFF1FEC5AFF1FF05AFF1FC3
:1037B000F85AFF1FB85AFF1F005BFF1F045BFF1F73
:1037C000900B0020940B0020C44C0020980B00208C
:1037D0009C0B0020A00B0020A40B0020A80B0020B5
:1037E000AC0B0020B00B0020A84C0020B44C0020F3
:1037F000AC4C0020B04C0020D4BE0020D8BE00202D
:103800006C18FF1FDC5AFF1F7018FF1F7418FF1F72
:103810007818FF1FC059FF1F7C0C0020800C00206F
:10382000840C0020880C00208C0C0020900C0020C0
:10383000940C0020C04C0020E55BFF1FC85AFF1FFE
:103840008C0B0020340B0020F55F0020105BFF1F65
:10385000D04C0020A009FF1FF65F00207808FF1F52
:103860005C08FF1F5808FF1F5408FF1F4C08FF1F6C
:103870005009FF1F5008FF1F4808FF1F4408FF1F83
:10388000E408FF1FF008FF1FD008FF1FCC08FF1F30
:10389000C808FF1FE808FF1FD808FF1FD14C0020F1
:1038A000D55AFF1FD8B30020BC59FF1FD0B6002047
:1038B000AC5AFF1F4DBCFF1F11A40020E1B3002034
:1038C0004CBCFF1FCC5AFF1FBC5AFF1FE45BFF1FFD
:1038D000C84C0020804F0020E45AFF1FE85AFF1F09
:1038E000E009FF1F0419FF1F544A554BD2ED007A1F
:1038F000D3ED006A534B27EEA76A66EEA63AD3EDE6
:10390000004A76EE632A64EEA40A77EEE65A22EEC7
:10391000E47A23EEE74AA0EEA57A0022A6EE864AD4
:1039200037EE047AB5EE407AF1EE10FA79D04649D6
:10393000464A474BD2ED001A93ED001A91ED002A4A
:103940009FED440A25EE825A71EEC15AF1EE644AA7
:1039500066EEA16A67EE817AA4EEA55A36EEE73AE2
:1039600033EE055A85EE073AB0EEC35AB4EE405A2C
:10397000F1EE10FA48DCB4EE433AF1EE10FA47D615
:10398000354B83ED003A26EE016A60EEA55AA3EEB0
:10399000E16AE2EEC25ADFED2F3A75EE865A85EE05
:1039A000875AF0EEC55AF4EE635AF1EE10FA03DDD1
:1039B00015EE103A002B2FDAB4EE455AF1EE10FA5C
:1039C0002AD6264B83ED005A77EEE67ADFED215AB0
:1039D00067EEA07AE4EE867AE4EE027AC7EE876AB2
:1039E000F0EEE67AF4EE657AF1EE10FA03DD16EE0B
:1039F000903A002B1EDAF4EE666AF1EE10FA19D650
:103A0000174BC3ED006A704713EE103A002BB2DB80
:103A1000114B00221A60B6E7104B4FF07E521A602D
:103A2000D2E70D480D490E4B02604FF07E50086002
:103A30001A6070470A4B00221A6070479809FF1FEE
:103A40009C09FF1F9409FF1FAC09FF1F1408FF1FEB
:103A50001808FF1FFFFF7F7F980C0020D409FF1F6D
:103A6000F063002030B583B001AD042420461CF083
:103A70003DFA0134082C05F8010BF7D1124A134B1B
:103A800092ED007A9DED016AD3ED006A104A114B68
:103A900092ED005AD3ED005A66EE077A26EE267AAA
:103AA000F7EE006AE6EE077A77EE857A77EEE57A4A
:103AB000F0EEE77AF4EEE67AF1EE10FA94BF012028
:103AC0004FF0FF3003B030BDD409FF1F980C002029
:103AD000F06300201408FF1F70B5012882B00E4665
:103AE000154600F0C6800228044671D008B102B025
:103AF00070BD4FF48C738DE818001C224FF4AF7327
:103B00000A21834816F0DEF80A221146234680482F
:103B100019F004FD0A22102311468DE818007C4894
:103B20004FF4AF7316F0CEF80A22114623467848B8
:103B300019F0F4FC77497648FEF7D0FE2946744820
:103B400019F058FD314672481EF068FE4FF6FF71BD
:103B50006F4819F04FFD23462A220A216C4819F0BC
:103B6000DDFC6D496A48FEF7B9FE3C2223460A2176
:103B7000674819F0D3FC69496548FEF7AFFE29464E
:103B8000634819F037FD664B186822F0F7FC41ECEA
:103B9000100B02215E481EF0D7FE4FF6FF715C4805
:103BA00019F028FD23465C220A21594819F0B6FC79
:103BB0005C495748FEF792FE23466E220A2154487C
:103BC00019F0ACFC58495248FEF788FE02B070BDAF
:103BD00000244FF48C738DE818001C224FF4AF734F
:103BE0000A214B4816F06EF80A221146234648482F
:103BF00019F094FC0A22102311468DE8180044485D
:103C00004FF4AF7316F05EF80A221146234640487F
:103C100019F084FC3F493E48FEF760FE29463C48C7
:103C200019F0E8FC31463A481EF0F8FD4FF6FF71F6
:103C3000374819F0DFFC23462A220A21344819F0BC
:103C40006DFC2946324819F0D5FC38493048FEF75A
:103C500045FE4FF6FF712E4819F0CCFC0A21234691
:103C60003C222B4819F05AFC31492948FEF736FE10
:103C700098E700244FF48C738DE818001C224FF451
:103C8000AF730A21224816F01DF80A221146234676
:103C90001F4819F043FC0A22102311468DE8180032
:103CA0001B484FF4AF7316F00DF80A221146234655
:103CB000174819F033FC17491548FEF70FFE29463F
:103CC000134819F097FC314611481EF0A7FD4FF636
:103CD000FF710F4819F08EFC23462A220A210C4856
:103CE00019F01CFC29460A4819F084FC11490848BF
:103CF000FEF7F4FD4FF6FF71054819F07BFC0A2131
:103D000023463C22024819F009FC0B49ADE700BFED
:103D1000D44C0020CC6E0500DC6E0500F46E05006E
:103D20002409FF1F046F0500206F0500586F050070
:103D3000746F0500346F05004C6F050038B51B4CDF
:103D4000237C012B2CD972B6184DE36862B6184952
:103D5000184A08681360984221D0002B164816DBD9
:103D60000068B3EB800F05DD0023136072B6E360DB
:103D700062B61368114C0B60002B1A46B8BFDA1CF0
:103D8000921022603220BDE838401CF019BF036851
:103D90009B00136072B6EB6062B61368E0E738BD53
:103DA00072B62046FEF7E0FDCEE700BF380B0020DC
:103DB000C008FF1FD4B30020C05AFF1FB4B60020B4
:103DC0002DE9F04785B28CB284B02E4E04F1210368
:103DD00005F114024FF4784E07B212B218B2A5F1F1
:103DE0001403CDF80CE0019202900AB2009039461B
:103DF00030461BB2A5F1020917F08EFC4FF6FF7892
:103E00000FFA89F904F109020E23494630468DE87C
:103E1000080112B2052315F055FF04F1FF3A0523FE
:103E2000494604F11A02A5F11509223424B230469C
:103E300000930FFA8AFA0FFA89F9CDF8048012B2CA
:103E4000153515F03FFF2DB252464B4639463046E8
:103E50008DE810011AF016F8524639462B463046C6
:103E60000094CDF804801AF00DF800944B462246D9
:103E70002946CDF8048030461AF004F804B0BDE8B5
:103E8000F08700BFD44C00202DE9F0438DB2264EC0
:103E900005F1020885B04CF218690FFA88F805237D
:103EA00084B242468DE808020F46042301B2304630
:103EB00015F008FFA31D05F108001BB23FB200B2C8
:103EC000EA1CA11C009701930290CDF80C9030469B
:103ED00012B209B204F1080717F01EFC3FB24FF00E
:103EE000000E6A1C0723123406358DE80840394657
:103EF000304624B22DB212B20D2315F0E3FE234654
:103F00004246394630468DE8200219F0BBFFCDF815
:103F1000008023462A463946CDF80490304619F0F1
:103F2000B1FF05B0BDE8F083D44C00202DE9F04F7F
:103F30008DB2354E05F1020A85B04CF218670FFAC2
:103F40008AFA052384B28846524601B28DE8880079
:103F50003046042315F0B6FEA31D05F1080205F155
:103F6000030E0FFA88F01BB212B2A11C009001934D
:103F7000029230460FFA8EF2039709B204F1080B51
:103F800017F0CAFB0FFA8BFB4FF0000E6A1C0723D9
:103F900004F10D0805F104098DE808400FFA88F8CE
:103FA0000FFA89F95946304612B20D23063515F03D
:103FB00089FE2DB252465946434630460197CDF808
:103FC0000090123419F05EFF24B2594643462A4647
:103FD0003046CDF80090019719F054FF5246234621
:103FE00041463046CDF80090019719F04BFFCDF8CF
:103FF000009023462A4641460197304619F042FF79
:1040000005B0BDE8F08F00BFD44C00202DE9F04F83
:104010008DB2364E05F1020985B00FFA89F94CF2DE
:104020001868052384B28DE808014A460F46042328
:1040300001B2304615F046FEA31D05F108001BB283
:104040003FB200B2EA1CA11C0097CDF80C8001938E
:10405000029012B2304609B217F05EFB04F1080B71
:10406000002707230FFA8BFB8DE888006A1C04F1F8
:104070000D0705F104083FB20FFA88F840F2FF7A05
:104080005946304612B20D23063515F01BFE2DB2EF
:104090004A4659463B463046CDF80080CDF804A04C
:1040A000123419F0EFFE24B259463B462A463046F8
:1040B000CDF80080CDF804A019F0E4FE4A4623466E
:1040C00039463046CDF80080CDF804A019F0DAFE6C
:1040D000CDF8008023462A463946CDF804A0304664
:1040E00019F0D0FE05B0BDE8F08F00BFD44C002021
:1040F0002DE9F04F504B1B7883B0002B48D1002A9C
:1041000000F08F80002A40DD8FB285B207F10A0BE4
:1041100096B20FFA80FA0CB20FFA8BFB07F1030983
:1041200005F105080FFA88F822460FFA89F9534677
:10413000514642480196CDF800B0073719F0A2FE6B
:104140003FB22246434651463C480196CDF8009086
:104150006C1F19F097FE24B25A4651464346374821
:104160000097019619F08EFE23463A4641463348A1
:10417000CDF80090019619F085FE009723464A4637
:10418000414601962D4819F07DFE03B0BDE8F08F41
:10419000002AB7D18EB206F10A0A0CB20FFA8AFAD7
:1041A0000FFA80F940F2FF7885B26F1D06F1030B1C
:1041B0003FB20FFA8BFB22464B464946CDF800A092
:1041C000CDF804801D48073619F05CFE36B2224651
:1041D0003B464946CDF80480CDF800B01748053D70
:1041E00019F050FE2DB2524649463B468DE840013B
:1041F000124819F047FE2B4632463946CDF800B03A
:10420000CDF804800D4819F03DFE00962B465A4625
:104210003946CDF80480094819F034FE03B0BDE8F2
:10422000F08F8EB206F10A0A0CB20FFA8AFA0FFA70
:1042300080F947F6EF38B7E72D0B0020D44C00206B
:104240002DE9F04F3A4B85B21B7805F10A0785B08E
:104250000A4604B23FB20FFA81FA002B64D14FF440
:10426000404692B23B4621460292CDF800A052460B
:104270000196304819F006FE029B019603F10A08E8
:104280000FFA88F83B4642462146CDF8008029487F
:1042900019F0F8FD0299019601F105090FFA89F963
:1042A000EB1C05F1010B04351BB2524621460FFAF7
:1042B0008BFB2DB2CDF800901E48039319F0E2FD60
:1042C0002B4659465246CDF800900196194819F0F0
:1042D000D9FD0399CDF8008023464A46019615483A
:1042E00019F0D0FD5B464A462946CDF8008001967C
:1042F000104819F0C7FD029C0196A01C00B252465E
:104300003B46394600900B4819F0BCFD04F1080308
:104310001BB28DE8480042463B463946054819F035
:10432000B1FD05B0BDE8F08F40F2FF7699E700BF20
:1043300050500020D44C00202DE9F04F85B28CB2B3
:1043400083B0DFF860806E1DA71C0A3424B240F2EF
:10435000FF7936B23FB205F1080382468B463A46F2
:104360003146404600941BB2CDF8049019F08AFD06
:1043700005F10A03A91D0FFA8BF240468DE81002E1
:104380001BB209B219F07EFD00943A463146CDF8D1
:1043900004900FFA8AF3404619F074FD03B0BDE8AB
:1043A000F08F00BFD44C00202DE9F0478DB282B0D1
:1043B000374E05F1040905F1110197B20FFA89F999
:1043C00003B209B284B24A460091304619460197B9
:1043D00019F058FD631C05F110001BB200B219461C
:1043E0004A4600900197304619F04CFD05F10E0841
:1043F00004F108030FFA88F81BB219464A46CDF8B3
:1044000000803046019719F03DFD04F109031BB20D
:10441000CDF800804A4619463046019719F032FD22
:1044200004F1020904F1040A05F10D020FFA89F9F9
:104430000FFA8AFA12B24946534600923046019763
:1044400019F020FD53464946CDF8008042463046DB
:10445000019719F017FD04F1050805F10C02073466
:104460000FFA88F824B212B2234641460092304631
:10447000019719F007FD05F10B0212B223464146E0
:104480008DE88400304619F0FDFC02B0BDE8F087ED
:10449000D44C002010B51AF083FF092827DC324CD9
:1044A00030303023607023701AF08AFF092831DC25
:1044B00030303023E070A3701AF042FF09283BDC53
:1044C00030303023607123711AF04AFF092845DD2E
:1044D000264BC21783FB0013C2EBA30303EB83023B
:1044E000A0EB420030303033E071A37110BD1F4BA0
:1044F0001D4C83FB0032C317C3EBA20303EB830203
:10450000A0EB420030303033607023701AF058FF57
:104510000928CDDD154BC21783FB0013C2EBA303A3
:1045200003EB8302A0EB420030303033E070A37025
:104530001AF006FF0928C3DD0C4BC21783FB0013DA
:10454000C2EBA30303EB8302A0EB42003030303315
:10455000607123711AF004FF0928B9DC3030302370
:10456000E071A37110BD00BF8408FF1F6766666617
:104570002DE9F0432F4E002389B00746336008E051
:10458000336868460133336011F03AFD684611F034
:104590002BFD68460122394611F02EFF684611F0C6
:1045A0003DFD0028ECD1384611F080FF684611F03F
:1045B0001BFD3568B5F1FE6F39D94FF0FF301EF0A5
:1045C000BBFD102380E8280000F108096C1E4DB1E6
:1045D0004D462846013C00211EF034FC631C05F1C9
:1045E0001005F6D13368DFF85080002BC8F8009032
:1045F0001ADD002401223946684611F0FDFED8F884
:104600000030684603EB041511F0F0FC0146284623
:104610001EF0CCFC684611F0F3FC684611F0E4FC97
:1046200033680134A342E5DC09B0BDE8F08328011A
:104630000830C4E7B859FF1F7C18FF1F08B5C8220F
:104640004FF4DC7111201EF019FBDC201CF0B8FACD
:10465000C8224FF4DC7111201EF010FBDC201CF08E
:10466000AFFA1120C8224FF4DC711EF007FBDC20EA
:10467000BDE808401CF0A4BA70B594B00CA80123A2
:104680003E4A3F4911F028FE0CA811F0C7FC20B9A2
:104690000CA811F0A9FC14B070BD684639493A4E17
:1046A0001EF0D0FB0CA811F00BFC90B10CA811F07F
:1046B00025FCC3B2392B1946684606D80A2B13D0FD
:1046C0001EF0B6FC029B202BECD9FFF7B7FFFEF7DC
:1046D00051FE0CA811F094FC68461EF073FB0CA868
:1046E00011F082FC14B070BD2C2168461EF0E0FC75
:1046F00005466C1C03464FF00002694604A8224C94
:10470000E3D01EF0E5FC6A1C029B694608A81EF077
:10471000DFFC04A81EF000FD054608A81EF0FCFC06
:10472000184946F8250068461EF040FC08A81EF00F
:1047300049FB04A81EF046FB40F6FF739D42B1D131
:10474000124B2068186000221346226054F8231090
:104750000133B3F5805F0A44F8D148B90C4B1860B7
:104760004FF47A701CF02CFA0CA811F049FCB0E759
:10477000074BB2FBF0F21A60F2E700BF8408FF1F9C
:10478000DCBE0020449B0500F8630020CC59FF1FCD
:10479000A00C002030B595B00CA80123354A36494D
:1047A00011F09AFD0CA811F039FC20B90CA811F0F9
:1047B0001BFC15B030BD68463049314D1EF042FB40
:1047C0000CA811F07DFB80B10CA811F097FBC3B2CF
:1047D000392B1946684606D80A2B16D01EF028FC3D
:1047E000029B202BECD9FFF729FF0CA811F008FC45
:1047F000244B2A681A60684600232B601EF0E2FAF8
:104800000CA811F0F1FB15B030BD2C2168461EF04C
:104810004FFC0446B4F1FF3F03464FF000026946E7
:1048200004A8E0D01EF054FC621C029B694608A854
:104830001EF04EFC04A81EF06FFC044608A81EF0F3
:104840006BFC0E4945F8240068461EF0AFFB08A833
:104850001EF0B8FA04A81EF0B5FA40F6FF739C42A9
:10486000AED14FF47A701CF0ABF90CA811F0C8FB74
:10487000BBE700BF846F0500DCBE0020449B050041
:10488000B819FF1F0008FF1F2DE9F0412DED028B25
:1048900098B008A811F09AFBAE49AF4811F090FD0E
:1048A000002840F0BD81AD49AB4811F089FD0028DA
:1048B00040F01E81AA49A84811F082FD002840F06E
:1048C0009380A849A44811F07BFD50B908A811F0C5
:1048D00097FB08A811F088FB18B0BDEC028BBDE86F
:1048E000F08110AD01239F4A9B49284611F0F4FC4A
:1048F0009DF84410129A9DF84C308DF824100A92BD
:104900008DF82C3013A90DF12D020DF13A0311F899
:10491000010F02F8010B9A42F9D1179B0F93284619
:1049200011F062FB08A811F079FB0028CED0684690
:104930008D49DFED8E8ADFF838826C461EF082FAF0
:10494000002608E01EF074FB029B202B00F20F8271
:10495000322E00F0E48108A811F0B2FA002800F02D
:10496000E18108A811F0CAFAC3B2392B19462046D2
:1049700000F2FD810A2BE5D12E2120461EF098FB86
:104980000746B7F1FF3F0346214604A84FF0000257
:1049900000F0ED811EF09CFB7A1C029B214628460C
:1049A0001EF096FB04A81EF0B7FB08EE100A28467E
:1049B0001EF0B2FB07EE900AB8EEE77AB8EEC88AAE
:1049C000C7EE287A08EB860367492046013677EE62
:1049D000887AC3ED007A1EF0E9FA28461EF0F2F953
:1049E00004A81EF0EFF9B3E710AD01235C4A5A4961
:1049F000284611F071FC9DF84410129A9DF84C3035
:104A00008DF824100A928DF82C3013A90DF12D0287
:104A10000DF13A0311F8010F02F8010B9A42F9D196
:104A2000179B0F93284611F0DFFA08A811F0F6FA49
:104A300000283FF446AF68464B49DFED4C8ADFF86B
:104A400034816C461EF0FEF9002608E01EF0F0FAF4
:104A5000029B202B00F29181322E00F06A8108A87F
:104A600011F02EFA002800F0678108A811F046FA2C
:104A7000C3B2392B1946204600F27F810A2BE5D1BB
:104A80002E2120461EF014FB0746B7F1FF3F0346D8
:104A9000214604A84FF0000200F06F811EF018FBC1
:104AA0007A1C029B214628461EF012FB04A81EF029
:104AB00033FB08EE100A28461EF02EFB07EE900A84
:104AC000B8EEE77AB8EEC88AC7EE287A08EB860314
:104AD00025492046013677EE887AC3ED007A1EF02C
:104AE00065FA28461EF06EF904A81EF06BF9B3E7CC
:104AF00010AD0123194A1849284611F0EDFB9DF825
:104B00004410129A9DF84C308DF824100A928DF8BA
:104B10002C3013A90DF12D020DF13A0311F8010FFC
:104B200002F8010B9A42F9D1179B0F93284611F016
:104B30005BFA08A811F072FA00283FF4BBAE684691
:104B40000949DFED0A8ADFF830806C461EF07AF9F9
:104B500000261CE0C409FF1FDCBE00201409FF1F53
:104B6000F808FF1F8409FF1F449B0500286B6E4E49
:104B7000B40B002000600020D059FF1F1EF058FA2F
:104B8000029B202B00F2FC80322E00F0DC8008A873
:104B900011F096F9002800F0D98008A811F0AEF9BC
:104BA000C3B2392B1946204600F2EA800A2BE5D120
:104BB0002E2120461EF07CFA0746B7F1FF3F034640
:104BC000214604A84FF0000200F0DA801EF080FABF
:104BD0007A1C029B214628461EF07AFA04A81EF091
:104BE0009BFA08EE100A28461EF096FA07EE900A85
:104BF000B8EEE77AB8EEC88AC7EE287A08EB8603E3
:104C000061492046013677EE887AC3ED007A1EF0BE
:104C1000CDF928461EF0D6F804A81EF0D3F8B3E765
:104C200010AD0123594A5A49284611F055FB9DF809
:104C30004410129A9DF84C308DF824100A928DF889
:104C40002C3013A90DF12D020DF13A0311F8010FCB
:104C500002F8010B9A42F9D1179B0F93284611F0E5
:104C6000C3F908A811F0DAF900283FF41CAE684631
:104C70004549DFED488ADFF820816C461EF0E2F8F6
:104C8000002606E01EF0D4F9029B202B72D8322EAB
:104C900063D008A811F014F9002861D008A811F019
:104CA0002DF9C3B2392B1946204663D80A2BE9D116
:104CB0002E2120461EF0FCF90746B7F1FF3F0346C0
:104CC000214604A84FF0000254D01EF001FA7A1CCD
:104CD000029B214628461EF0FBF904A81EF01CFA90
:104CE00008EE100A28461EF017FA07EE900AB8EEF2
:104CF000E77AB8EEC88AC7EE287A08EB860322491D
:104D00002046013677EE887AC3ED007A1EF04EF920
:104D100028461EF057F804A81EF054F8B7E708A874
:104D200011F06EF908A811F06BF920461EF04AF850
:104D3000CCE508A811F064F908A811F061F9204643
:104D40001EF040F8BDE508A811F05AF908A811F0C6
:104D500057F920461EF036F8ACE508A811F050F9D6
:104D600008A811F04DF920461EF02CF89BE5FFF73E
:104D700065FCD7E7FFF762FCF2E7FFF75FFCDBE7D4
:104D8000FFF75CFCE2E700BF449B0500C409FF1F7E
:104D9000DCBE0020286B6E4E844F0020D049D14AE3
:104DA000D14BD248D1ED007A92ED007AD3ED006A72
:104DB000CF499FEDD04AD0ED004A30B440F6E770BD
:104DC000012406EE104AB8EEC65A192335EE045AED
:104DD00003E00133834200F05D8306EE103A03FBEB
:104DE00003F2B8EEC66A05EE902A26EE076AF8EEE0
:104DF000E55AA5EEA66A36EE276A34EEC66AB0EE2C
:104E0000C66AB4EEC65AF1EE10FAE2DB01340B2C9E
:104E100036D17A230122B848B84CD0ED004A9FED34
:104E2000B54A2360012540F6E77406EE105AB8EE45
:104E3000C65A192335EE045A03E00133A34200F0A9
:104E40002F8306EE103A03FB03F0B8EEC66A05EEB8
:104E5000900A26EE076AF8EEE55AA5EEA66A36EE47
:104E6000276A34EEC66AB0EEC66AB4EEC65AF1EEF0
:104E700010FAE2DB01350B2D06D0581CD5D006E028
:104E80005D1C9ED00022C6E740F26E2301229C48A2
:104E90009C4CD0ED004A9FED974A2360012540F6D7
:104EA000E77406EE105AB8EEC65A192335EE045AC6
:104EB00003E00133A34200F0F08206EE103A03FB58
:104EC00003F0B8EEC66A05EE900A26EE076AF8EE21
:104ED000E55AA5EEA66A36EE276A34EEC66AB0EE4B
:104EE000C66AB4EEC65AF1EE10FAE2DB01350B2DBC
:104EF00002D0581CD5D002E040F23453012282483F
:104F0000824CD0ED004A9FED7B4A2360012540F69C
:104F1000E77406EE105AB8EEC65A192335EE045A55
:104F200003E00133A34200F0BE8206EE103A03FB19
:104F300003F0B8EEC66A05EE900A26EE076AF8EEB0
:104F4000E55AA5EEA66A36EE276A34EEC66AB0EEDA
:104F5000C66AB4EEC65AF1EE10FAE2DB01350B2D4B
:104F600002D0581CD5D002E040F249230122684803
:104F7000684CD0ED004A9FED5F4A2360012540F662
:104F8000E77406EE105AB8EEC65A192335EE045AE5
:104F900003E00133A34200F08C8206EE103A03FBDB
:104FA00003F0B8EEC66A05EE900A26EE076AF8EE40
:104FB000E55AA5EEA66A36EE276A34EEC66AB0EE6A
:104FC000C66AB4EEC65AF1EE10FAE2DB01350B2DDB
:104FD00002D0581CD5D002E04FF4397301224E485C
:104FE0004E4CD0ED004A9FED434A2360012540F628
:104FF000E77406EE105AB8EEC65A192335EE045A75
:1050000003E00133A34200F0518206EE103A03FBA5
:1050100003F0B8EEC66A05EE900A26EE076AF8EECF
:10502000E55AA5EEA66A36EE276A34EEC66AB0EEF9
:10503000C66AB4EEC65AF1EE10FAE2DB01350B2D6A
:1050400002D0581CD5D001E07A2301223448354CD7
:10505000D0ED004A9FED274A2360012540F6E77412
:1050600006EE105AB8EEC65A192335EE045A03E07C
:105070000133A34200F0208206EE103A03FB03F056
:10508000B8EEC66A05EE900A26EE076AF8EEE55A13
:10509000A5EEA66A36EE276A34EEC66AB0EEC66A98
:1050A000B4EEC65AF1EE10FAE2DB01350B2D02D058
:1050B000581CD5D002E04FF4F97301221A489FED35
:1050C0000D4ADFED1A4A0360012540F6E77406EE4B
:1050D000105AB8EEC65A192335EE045A2CE000BF18
:1050E000F0630020D409FF1F980C0020E007FF1F89
:1050F000B808FF1F00000000E407FF1F2CA40020D9
:10510000E807FF1FB05AFF1FEC07FF1FB45AFF1F2D
:10511000F007FF1F30A40020F407FF1F280B00201A
:10512000F807FF1FB809FF1FBC09FF1F00003E441E
:105130000133A34200F0C68106EE103A03FB03F0F0
:10514000B8EEC66A05EE900A26EE076AF8EEE55A52
:10515000A5EEA66A36EE276A34EEC66AB0EEC66AD7
:10516000B4EEC65AF1EE10FAE2DB01350B2D02D097
:10517000581CACD002E04FF43E730122D6489FED9C
:10518000D74ADFEDD74A0360012440F6E77006EE08
:10519000104AB8EEC65A192335EE045A03E001331B
:1051A000834200F08C8106EE103A03FB03F505EE16
:1051B000905AB8EEC66AF8EEE55A26EE076AA5EEF2
:1051C000A66A36EE276A34EEC66AB0EEC66AB4EE58
:1051D000C65AF1EE10FAE2DB01340B2C02D05D1C52
:1051E000D5D001E090230122BE489FEDBC4ADFEDFF
:1051F000BE4A0360012540F6E77406EE105AB8EE89
:10520000C65A192335EE045A03E00133A34200F0D5
:105210005C8106EE103A03FB03F0B8EEC66A05EEB9
:10522000900A26EE076AF8EEE55AA5EEA66A36EE73
:10523000276A34EEC66AB0EEC66AB4EEC65AF1EE1C
:1052400010FAE2DB01350B2D02D0581CD5D002E05C
:105250004FF47F730122A5489FEDA04ADFEDA44AD9
:105260000360012540F6E77406EE105AB8EEC65A00
:10527000192335EE045A03E00133A34200F04A81BA
:1052800006EE103A03FB03F0B8EEC66A05EE900A8C
:1052900026EE076AF8EEE55AA5EEA66A36EE276A0C
:1052A00034EEC66AB0EEC66AB4EEC65AF1EE10FA33
:1052B000E2DB01350B2D02D0581CD5D002E04FF4B3
:1052C000FE7301228B489FED854ADFED8B4A036018
:1052D000012540F6E77406EE105AB8EEC65A1923B7
:1052E00035EE045A03E00133A34200F0F18006EEEC
:1052F000103A03FB03F0B8EEC66A05EE900A26EEFC
:10530000076AF8EEE55AA5EEA66A36EE276A34EE8D
:10531000C66AB0EEC66AB4EEC65AF1EE10FAE2DB27
:1053200001350B2D02D0581CD5D002E04FF4C363D9
:10533000012272489FED694ADFED714A0360012541
:1053400040F6E77406EE105AB8EEC65A192335EE49
:10535000045A03E00133A34200F0968006EE103AAF
:1053600003FB03F0B8EEC66A05EE900A26EE076A64
:10537000F8EEE55AA5EEA66A36EE276A34EEC66A5E
:10538000B0EEC66AB4EEC65AF1EE10FAE2DB0135B1
:105390000B2D02D0581CD5D002E04FF443730122EC
:1053A00058489FED4E4ADFED584A0360012540F60C
:1053B000E77406EE105AB8EEC65A192335EE045AB1
:1053C00002E00133A34262D006EE103A03FB03F081
:1053D000B8EEC66A05EE900A26EE076AF8EEE55AC0
:1053E000A5EEA66A36EE276A34EEC66AB0EEC66A45
:1053F000B4EEC65AF1EE10FAE3DB01350B2D02D004
:10540000581CD6D002E040F2B45301223F489FED31
:10541000334ADFED3F4A0360012540F6E77406EEAC
:10542000105AB8EEC65A192335EE045A02E0013379
:10543000A34226D006EE103A03FB03F0B8EEC66A8C
:1054400005EE900A26EE076AF8EEE55AA5EEA66A82
:1054500036EE276A34EEC66AB0EEC66AB4EEC65AB5
:10546000F1EE10FAE3DB01350B2D05D0581CD6D038
:105470000B601AB930BC7047E6230B6030BCFFF7F5
:10548000DDB84FF0FF33EEE74FF0FF337FE74FF02B
:10549000FF33B2E74FF0FF33B8E44FF0FF3325E5B9
:1054A0004FF0FF33E6E44FF0FF3357E54FF0FF33A3
:1054B000C4E54FF0FF3389E54FF0FF33F5E54FF0DA
:1054C000FF3389E64FF0FF334FE64FF0FF33B9E685
:1054D0004FF0FF3324E700BF9C08FF1F00000000CF
:1054E00000001043A008FF1F00007F44A408FF1F16
:1054F0000000FE43A808FF1F0000C344AC08FF1FC4
:1055000000004344B008FF1F0080B644B408FF1FEA
:10551000000066434FF0FF33CBE600BF08B56422BE
:105520004FF45C7111201DF0A9FB65201BF048FBB6
:10553000642240F2174111201DF0A0FB65201BF0F2
:105540003FFB1120642240F227511DF097FB65209C
:10555000BDE808401BF034BB08B5C82240F2275113
:1055600011201DF08BFBC9201BF02AFB1120DC222F
:1055700040F217411DF082FBDD20BDE808401BF022
:105580001FBB00BF70B594B0FEF784FF394B3A489B
:1055900018603A4A3A490CA8132310F09DFE0CA853
:1055A00010F03CFD20B90CA810F01EFD14B070BD29
:1055B0003449354E08A81DF045FC344A3449354B72
:1055C00012681B68096804A801FB02310A221DF059
:1055D0007FFC04A908A81DF03BFD01462E481DF0E4
:1055E000D5FC04A81DF0EEFB08A81DF0EBFB2A4932
:1055F0000CA81DF013F90CA81DF036F901240A229D
:10560000214668461DF050FC694604A81DF02EFC9A
:10561000224904A81DF024FD0A2256F8241005464C
:1056200008A81DF069FC08A928461DF011FD0146D7
:1056300019481DF0ABFC08A81DF0C4FB04A81DF020
:10564000C1FB68461DF0BEFB13490CA81DF0E6F82F
:1056500001340CA81DF008F9B4F5805FCFD1FFF735
:105660007BFF0CA810F0CCFC0CA810F0BDFC14B013
:1056700070BD00BF48BF0020B50400008408FF1FB4
:10568000DCBE0020946F0500F8630020300B002082
:105690003009FF1FCC59FF1FFCA30020986F0500A5
:1056A000F8B51248124F00253D602C4629462B467E
:1056B000064650F823208A4203D956F82340012594
:1056C00021460133B3F5805FF3D165B9094B9942A7
:1056D00008D9094C01232370FFF754FFFDF74AFE58
:1056E00000232370F8BD3C60F0E700BFF8630020A2
:1056F0008019FF1F809698009C5AFF1F70B544497F
:10570000444894B010F05CFE00287CD1424B434CDE
:105710001B68434D23600CA8424E3D4A3D492E6014
:10572000132310F0D9FD0CA810F078FC20B90CA8B8
:1057300010F05AFC14B070BD0A22002168461DF01A
:10574000B3FB694604A81DF091FB3749374E04A806
:105750001DF086FC0A222168054608A81DF0B8FB4A
:1057600008A928461DF074FC014631481DF00EFCC6
:1057700008A81DF027FB04A81DF024FB68461DF0B7
:1057800021FB2B490CA81DF049F80CA81DF06CF862
:1057900001240A22214668461DF086FB694604A8BA
:1057A0001DF064FB204904A81DF05AFC0A2256F89B
:1057B0002410054608A81DF09FFB08A928461DF0E7
:1057C00047FC01461A481DF0E1FB08A81DF0FAFA53
:1057D00004A81DF0F7FA68461DF0F4FA14490CA865
:1057E0001DF01CF801340CA81DF03EF8B4F5805FE4
:1057F000CFD1FFF7B1FE0CA810F002FC0CA810F0FE
:10580000F3FB14B070BD0249024810F0E7FD7DE7DC
:10581000846F0500DCBE0020CC59FF1F0008FF1F6D
:1058200048BF0020B5040000986F0500F863002011
:10583000FCA3002038B5352444F6B0250121112001
:105840001BF0A4F92B46013BFDD1002111201BF0D8
:105850009DF92B46013BFDD1013CEFD1412443F69C
:105860003835012111201BF091F92B46013BFDD168
:10587000002111201BF08AF92B46013BFDD1013C90
:10588000EFD1352444F6B025012111201BF07EF91B
:105890002B46013BFDD1002111201BF077F92B464F
:1058A000013BFDD1013CEFD138BD00BF38B56424C8
:1058B00043F63835012111201BF068F92B46013BD6
:1058C000FDD1002111201BF061F92B46013BFDD1D8
:1058D000013CEFD1782444F6B025012111201BF0C2
:1058E00055F92B46013BFDD1002111201BF04EF94B
:1058F0002B46013BFDD1013CEFD138BDF0B56B4BE0
:105900001B78002B2AD16A4F6A4A6B4E3A606B486B
:105910006B4F37606B4C6C4F6C4B02606C496D4D3C
:105920006D4E6E486E4A23603B604FF07C543227C8
:105930000C602F60336003606A4C6B496B4F6C4D99
:105940006C4E6D4813606D4A23600B6005244FF068
:105950007E513B602E6004601160F0BD012B29D1A7
:105960005B4D674F5749594B2F60534A5048564F2C
:10597000584C504E0B604FF0824106601160564DFE
:105980004E48574A3B6019272760544E5549564C9C
:105990002B6003601360554F554D5748574A33608D
:1059A0000B60584E584923600A243B602E60046007
:1059B0001160F0BD022B2AD13D4C544B3E48444D62
:1059C000404A23604E4F4349514C2F6004604A4E79
:1059D0003D4F424D394C424813600F220A603E4908
:1059E00032602B60236003603B60DFF83CE1404E97
:1059F0003C4D3D4C3D48414B344A464FC1F800E0D8
:105A0000414937602A60226002601960F0BD032BB3
:105A100021D1274C284B2E4D2E48264A3E4F3F4E33
:105A2000226032242E60046024491F60264D254FD9
:105A3000294E2A48DFF8A8E0244B0A603B602B601F
:105A400033600360274C2849284F294D294E2A48A6
:105A5000CEF8003077E7042B27D11D4B144E154AA2
:105A600015482F4D1549174F32601A4C1D602D4EA9
:105A7000164B06600A60144D1848194A3B602327EC
:105A80002760154E1749184C2B6003601360174FA1
:105A9000174D1948194A33600B60164E1A49236096
:105AA00007243B602E6004601160F0BDF45F0020AD
:105AB000D408FF1F00803B45F809FF1F8009FF1F26
:105AC0000000A0402008FF1F1008FF1F0000FA443C
:105AD000FC09FF1F0808FF1F2809FF1FBC08FF1F44
