:10000000F8FF02209901000099ED010051ED010077
:1000100051ED010051ED010051ED010051ED0100E4
:1000200051ED010051ED010051ED010099ED01008C
:1000300099ED010051ED010041120200451202004C
:1000400099ED010099ED010099ED010099ED010094
:1000500099ED010099ED010099ED010099ED010084
:1000600099ED010099ED010099ED010099ED010074
:1000700099ED010099ED010099ED010099ED010064
:1000800099ED010099ED010099ED010099ED010054
:1000900099ED010099ED010099ED010099ED010044
:1000A000F5E5010001E6010099ED010099ED01007F
:1000B00099ED010099ED010099ED010099ED010024
:1000C00099ED010099ED010099ED010099ED010014
:1000D00099ED010099ED010099ED0100E12F00007B
:1000E00099ED010099ED010099ED01007D4B0100B2
:1000F00099ED010099ED010099ED010099ED0100E4
:1001000091140200A5140200B9140200CD140200DB
:1001100099ED01008901020099ED010099ED0100BE
:1001200099ED010099ED010099ED010099ED0100B3
:1001300099ED010099ED010099ED010099ED0100A3
:1001400099ED010099ED0100FDFE010099ED01001E
:1001500099ED010099ED010099ED010099ED010083
:1001600099ED010099ED01000DE6010099ED010006
:1001700099ED010099ED010099ED010099ED010063
:1001800099ED010099ED010099ED010099ED010053
:1001900099ED010099ED0100584B4CF2205210B539
:1001A0001A804DF628121A8000BF00BF1EF0F8FD1D
:1001B000534B4FF030621A60524A9A60524ADA60EA
:1001C000524B4FF470021A60514A136813F4807353
:1001D00004D150490B604FF4A85313604E4B1A786A
:1001E000110703D51A7842F008021A704B4B4C499C
:1001F0002A221A704B4A4C4B8B4204D252F8040FFD
:1002000043F8040BF8E7494B494900228B4202D2DC
:1002100043F8042BFAE74749474A002352F82300E2
:1002200041F823000133662BF8D1444B444A802126
:1002300003F8011B9342FBD1424B3E4A1A60424BEA
:100240008A221A70A3F5805324225A70A0221A70B1
:100250009A799207FCD59A79D406FCD43B4A9379D3
:1002600003F00C03082B394BF9D103221A714622F3
:100270005A719A799006FCD5344A9179334B4906E4
:10028000FBD5334A4FF08271116009215160202261
:100290001A709A7902F00C020C2AFAD12D4B2E4AD0
:1002A0001A602E4B2E4A1A6000225A60072243F829
:1002B000042C2C4AC3F80C2D62B61FF047FB154BDB
:1002C0001B68DA0705D528481FF0A0F8274B284AF5
:1002D0001A60284B1B785B0609D5244C244B2268F6
:1002E0009A4204D120481FF091F80023236025F0A2
:1002F000ABFB1EF05BFD21F08DFDFEE70E200540FF
:1003000030800440823F04000100002B88ED00E0B3
:1003100010D0034014D0034002D0074000E0074053
:100320002818FF1F20880500F806FF1F2818FF1F48
:1003300050C400200002FF1F0000000000E400E0A5
:1003400056E400E008ED00E00050064000400640A2
:100350004480044004800440C010050014E000E024
:10036000BFD4010000002020DFA6EA611CE00340AA
:10037000A5C3945A00F00740FFFFFFFFFFFFFFFFF8
:10038000FFFFFFFFFFFFFFFFFFFFFFFFFFFFFFFF7D
:10039000FFFFFFFFFFFFFFFFFFFFFFFFFFFFFFFF6D
:1003A000FFFFFFFFFFFFFFFFFFFFFFFFFFFFFFFF5D
:1003B000FFFFFFFFFFFFFFFFFFFFFFFFFFFFFFFF4D
:1003C000FFFFFFFFFFFFFFFFFFFFFFFFFFFFFFFF3D
:1003D000FFFFFFFFFFFFFFFFFFFFFFFFFFFFFFFF2D
:1003E000FFFFFFFFFFFFFFFFFFFFFFFFFFFFFFFF1D
:1003F000FFFFFFFFFFFFFFFFFFFFFFFFFFFFFFFF0D
:10040000FFFFFFFFFFFFFFFFFFFFFFFFDEF9FFFF23
:1004100010B5054C237833B9044B13B10448AFF33E
:1004200000800123237010BD2818FF1F000000006A
:100430001C880500084B10B51BB108490848AFF3EC
:1004400000800848036803B910BD074B002BFBD0A0
:10045000BDE81040184700BF000000002C18FF1F27
:100460001C8805002818FF1F0000000000207047AE
:10047000704700BF0349044B4FF4804001220860DD
:100480001A60704708F00F40B8080020014B0122A5
:100490001A60704774BD0020034A044913680120A4
:1004A000034413600860704750C8FF1F9408002081
:1004B0001EF0A6BFF8B50E4607461DF009FE05461C
:1004C0001DF0F6FD04461DF0E3FD6401C0B204F426
:1004D000FF54ADB2A5F2BC75044344EA45243C8008
:1004E0001DF0A6FD05461DF0B3FD04461DF0C0FD40
:1004F000ED02640105F4FF2504F4FF542C43C0F31E
:10050000460004433480F8BD2DE9F043002283B057
:100510001FFA80F911461546DFF85880124F134E26
:1005200000E01D4658F825303C681148CDF804908D
:1005300003EBC3035B01B3FBF4F4C4F59473C2F59E
:10054000947201331BB2013212B209B200932BB282
:1005500034601CF00FFB6B1CB3F5D27F2946326868
:10056000DFD103B0BDE8F083640A00200088FF1FDC
:10057000E0710020907400202DE9F043002283B048
:100580001FFA80F911461546DFF85880124F134EB6
:1005900000E01D4658F825303C681148CDF804901D
:1005A00003EBC3035B01B3FBF4F4C4F59473C2F52E
:1005B000947201331BB2013212B209B200932BB212
:1005C00034601CF0D7FA6B1CB3F5D27F2946326831
:1005D000DFD103B0BDE8F083880900200088FF1F49
:1005E000E0710020081CFF1F2DE9F04F394BDFF8A8
:1005F000F4A01B68DFF8F09083B08046184624F022
:1006000013FE41EC100B21F037FE0022324B51EC6F
:10061000100B24F07FFE25F055F900241FFA88F80E
:10062000CAF80000CB462746254613E030601BB2CF
:10063000C4F5947201328DE8080139B22BB2274813
:1006400012B21CF097FA6B1CB3F5D27F34682F46B8
:100650003CD01D4659F82530012B22D95BF82500E6
:100660001F4E24F0E1FD41EC100B21F005FE0022AD
:10067000194B51EC100B24F04DFE25F023F94FF4EB
:100680008F72DAF8003002FB00F0B0FBF3F0C0F537
:100690009473904203F10103C8D9114E0B233260C9
:1006A000C6E7C4F5947240F22913013239B20093BF
:1006B00012B22BB2CDF8048008481CF05BFA6B1C18
:1006C000B3F5D27F4FF000042F46C2D103B0BDE88E
:1006D000F08F00BF8809002000002440E071002056
:1006E0000088FF1F587D0020081CFF1F9FED3D7AEA
:1006F00038B53D4CF0EE476A002234F812309BB218
:1007000007EE903AF8EEE77A013277EEA67A3C2AC5
:1007100037EE277AF1D1DFED356A354DC7EE267A0F
:10072000292128460422C5ED007A1EF099FA0A20F4
:100730001FF0BEF895ED006ADFED2A6A002134F85B
:10074000112034F8113092B207EE902A9BB2B8EE25
:10075000E77A07EE903AF8EEE77A36EE477A76EEE9
:10076000677A01313C29E7EE276AE8D1DFED217A8B
:10077000214B224C86EEA77A00221A6017EE100A4F
:1007800024F074FD41EC100B21F09AFF51EC100B9A
:1007900025F0B8F8D5ED007A194B07EE100AF0EE07
:1007A000006AB0EE086AF0EE675AE7EE265A15487E
:1007B000E7EE067A0422242180ED007AC3ED007A68
:1007C000C4ED005A1EF04CFA0A201FF071F8012106
:1007D00028201EF01DFA0A201FF06AF80A4B012299
:1007E0001A7038BD00000000F8BD00200000704203
:1007F000DC07FF1F00006C42940900202088FF1FC7
:10080000A40800205408FF1FB0080020214B10B49A
:100810001A681368506819780478507A137A044279
:1008200001EA03011BD0937A03F0030309B143F0FB
:10083000040343F008039910013B91720D2B0BD870
:10084000DFE803F021071B070A152121150A071B02
:100850000721D368013BD3605DF8044B7047937A5E
:1008600003F003030029E6D043F00403E3E7D36871
:100870005DF8044B023BD3607047D3685DF8044BCE
:100880000233D3607047D3685DF8044B0133D36003
:10089000704700BF34C10020214B10B45A68136860
:1008A000506819780478507A137A044201EA0301F7
:1008B0001BD0937A03F0030309B143F0040343F020
:1008C00008039910013B91720D2B0BD8DFE803F060
:1008D00021071B070A152121150A071B0721D368C9
:1008E000013BD3605DF8044B7047937A03F0030338
:1008F0000029E6D043F00403E3E7D3685DF8044B36
:10090000023BD3607047D3685DF8044B0233D36079
:100910007047D3685DF8044B0133D360704700BF64
:1009200034C10020214B10B49A68136850681978BC
:100930000478507A137A044201EA03011BD0937AB7
:1009400003F0030309B143F0040343F008039910D3
:10095000013B91720D2B0BD8DFE803F021071B0739
:100960000A152121150A071B0721D368013BD36013
:100970005DF8044B7047937A03F003030029E6D037
:1009800043F00403E3E7D3685DF8044B023BD36014
:100990007047D3685DF8044B0233D3607047D36867
:1009A0005DF8044B0133D360704700BF34C10020B1
:1009B000214B10B4DA681368506819780478507ABB
:1009C000137A044201EA03011BD0937A03F0030374
:1009D00009B143F0040343F008039910013B9172FD
:1009E0000D2B0BD8DFE803F021071B070A15212187
:1009F000150A071B0721D368013BD3605DF8044B40
:100A00007047937A03F003030029E6D043F0040310
:100A1000E3E7D3685DF8044B023BD3607047D368CB
:100A20005DF8044B0233D3607047D3685DF8044B24
:100A30000133D360704700BF34C10020214B10B494
:100A40001A691368506819780478507A137A044246
:100A500001EA03011BD0937A03F0030309B143F0C9
:100A6000040343F008039910013B91720D2B0BD83E
:100A7000DFE803F021071B070A152121150A071BD0
:100A80000721D368013BD3605DF8044B7047937A2C
:100A900003F003030029E6D043F00403E3E7D3683F
:100AA0005DF8044B023BD3607047D3685DF8044B9C
:100AB0000233D3607047D3685DF8044B0133D360D1
:100AC000704700BF34C10020214B10B45A6913682D
:100AD000506819780478507A137A044201EA0301C5
:100AE0001BD0937A03F0030309B143F0040343F0EE
:100AF00008039910013B91720D2B0BD8DFE803F02E
:100B000021071B070A152121150A071B0721D36896
:100B1000013BD3605DF8044B7047937A03F0030305
:100B20000029E6D043F00403E3E7D3685DF8044B03
:100B3000023BD3607047D3685DF8044B0233D36047
:100B40007047D3685DF8044B0133D360704700BF32
:100B500034C10020214B10B49A6913685068197889
:100B60000478507A137A044201EA03011BD0937A85
:100B700003F0030309B143F0040343F008039910A1
:100B8000013B91720D2B0BD8DFE803F021071B0707
:100B90000A152121150A071B0721D368013BD360E1
:100BA0005DF8044B7047937A03F003030029E6D005
:100BB00043F00403E3E7D3685DF8044B023BD360E2
:100BC0007047D3685DF8044B0233D3607047D36835
:100BD0005DF8044B0133D360704700BF34C100207F
:100BE000214B10B4DA691368506819780478507A88
:100BF000137A044201EA03011BD0937A03F0030342
:100C000009B143F0040343F008039910013B9172CA
:100C10000D2B0BD8DFE803F021071B070A15212154
:100C2000150A071B0721D368013BD3605DF8044B0D
:100C30007047937A03F003030029E6D043F00403DE
:100C4000E3E7D3685DF8044B023BD3607047D36899
:100C50005DF8044B0233D3607047D3685DF8044BF2
:100C60000133D360704700BF34C10020214B10B462
:100C70001A6A1368506819780478507A137A044213
:100C800001EA03011BD0937A03F0030309B143F097
:100C9000040343F008039910013B91720D2B0BD80C
:100CA000DFE803F021071B070A152121150A071B9E
:100CB0000721D368013BD3605DF8044B7047937AFA
:100CC00003F003030029E6D043F00403E3E7D3680D
:100CD0005DF8044B023BD3607047D3685DF8044B6A
:100CE0000233D3607047D3685DF8044B0133D3609F
:100CF000704700BF34C10020214B10B45A6A1368FA
:100D0000506819780478507A137A044201EA030192
:100D10001BD0937A03F0030309B143F0040343F0BB
:100D200008039910013B91720D2B0BD8DFE803F0FB
:100D300021071B070A152121150A071B0721D36864
:100D4000013BD3605DF8044B7047937A03F00303D3
:100D50000029E6D043F00403E3E7D3685DF8044BD1
:100D6000023BD3607047D3685DF8044B0233D36015
:100D70007047D3685DF8044B0133D360704700BF00
:100D800034C10020214B10B49A6A13685068197856
:100D90000478507A137A044201EA03011BD0937A53
:100DA00003F0030309B143F0040343F0080399106F
:100DB000013B91720D2B0BD8DFE803F021071B07D5
:100DC0000A152121150A071B0721D368013BD360AF
:100DD0005DF8044B7047937A03F003030029E6D0D3
:100DE00043F00403E3E7D3685DF8044B023BD360B0
:100DF0007047D3685DF8044B0233D3607047D36803
:100E00005DF8044B0133D360704700BF34C100204C
:100E1000214B10B4DA6A1368506819780478507A54
:100E2000137A044201EA03011BD0937A03F003030F
:100E300009B143F0040343F008039910013B917298
:100E40000D2B0BD8DFE803F021071B070A15212122
:100E5000150A071B0721D368013BD3605DF8044BDB
:100E60007047937A03F003030029E6D043F00403AC
:100E7000E3E7D3685DF8044B023BD3607047D36867
:100E80005DF8044B0233D3607047D3685DF8044BC0
:100E90000133D360704700BF34C10020214B10B430
:100EA0001A6B1368506819780478507A137A0442E0
:100EB00001EA03011BD0937A03F0030309B143F065
:100EC000040343F008039910013B91720D2B0BD8DA
:100ED000DFE803F021071B070A152121150A071B6C
:100EE0000721D368013BD3605DF8044B7047937AC8
:100EF00003F003030029E6D043F00403E3E7D368DB
:100F00005DF8044B023BD3607047D3685DF8044B37
:100F10000233D3607047D3685DF8044B0133D3606C
:100F2000704700BF34C10020214B10B45A6B1368C6
:100F3000506819780478507A137A044201EA030160
:100F40001BD0937A03F0030309B143F0040343F089
:100F500008039910013B91720D2B0BD8DFE803F0C9
:100F600021071B070A152121150A071B0721D36832
:100F7000013BD3605DF8044B7047937A03F00303A1
:100F80000029E6D043F00403E3E7D3685DF8044B9F
:100F9000023BD3607047D3685DF8044B0233D360E3
:100FA0007047D3685DF8044B0133D360704700BFCE
:100FB00034C10020214B10B49A6B13685068197823
:100FC0000478507A137A044201EA03011BD0937A21
:100FD00003F0030309B143F0040343F0080399103D
:100FE000013B91720D2B0BD8DFE803F021071B07A3
:100FF0000A152121150A071B0721D368013BD3607D
:101000005DF8044B7047937A03F003030029E6D0A0
:1010100043F00403E3E7D3685DF8044B023BD3607D
:101020007047D3685DF8044B0233D3607047D368D0
:101030005DF8044B0133D360704700BF34C100201A
:10104000214B10B4DA6B1368506819780478507A21
:10105000137A044201EA03011BD0937A03F00303DD
:1010600009B143F0040343F008039910013B917266
:101070000D2B0BD8DFE803F021071B070A152121F0
:10108000150A071B0721D368013BD3605DF8044BA9
:101090007047937A03F003030029E6D043F004037A
:1010A000E3E7D3685DF8044B023BD3607047D36835
:1010B0005DF8044B0233D3607047D3685DF8044B8E
:1010C0000133D360704700BF34C10020214B10B4FE
:1010D0001A6C1368506819780478507A137A0442AD
:1010E00001EA03011BD0937A03F0030309B143F033
:1010F000040343F008039910013B91720D2B0BD8A8
:10110000DFE803F021071B070A152121150A071B39
:101110000721D368013BD3605DF8044B7047937A95
:1011200003F003030029E6D043F00403E3E7D368A8
:101130005DF8044B023BD3607047D3685DF8044B05
:101140000233D3607047D3685DF8044B0133D3603A
:10115000704700BF34C10020214B10B45A6C136893
:10116000506819780478507A137A044201EA03012E
:101170001BD0937A03F0030309B143F0040343F057
:1011800008039910013B91720D2B0BD8DFE803F097
:1011900021071B070A152121150A071B0721D36800
:1011A000013BD3605DF8044B7047937A03F003036F
:1011B0000029E6D043F00403E3E7D3685DF8044B6D
:1011C000023BD3607047D3685DF8044B0233D360B1
:1011D0007047D3685DF8044B0133D360704700BF9C
:1011E00034C10020214B10B49A6C136850681978F0
:1011F0000478507A137A044201EA03011BD0937AEF
:1012000003F0030309B143F0040343F0080399100A
:10121000013B91720D2B0BD8DFE803F021071B0770
:101220000A152121150A071B0721D368013BD3604A
:101230005DF8044B7047937A03F003030029E6D06E
:1012400043F00403E3E7D3685DF8044B023BD3604B
:101250007047D3685DF8044B0233D3607047D3689E
:101260005DF8044B0133D360704700BF34C10020E8
:10127000214B10B4DA6C1368506819780478507AEE
:10128000137A044201EA03011BD0937A03F00303AB
:1012900009B143F0040343F008039910013B917234
:1012A0000D2B0BD8DFE803F021071B070A152121BE
:1012B000150A071B0721D368013BD3605DF8044B77
:1012C0007047937A03F003030029E6D043F0040348
:1012D000E3E7D3685DF8044B023BD3607047D36803
:1012E0005DF8044B0233D3607047D3685DF8044B5C
:1012F0000133D360704700BF34C10020214B10B4CC
:101300001A6D1368506819780478507A137A044279
:1013100001EA03011BD0937A03F0030309B143F000
:10132000040343F008039910013B91720D2B0BD875
:10133000DFE803F021071B070A152121150A071B07
:101340000721D368013BD3605DF8044B7047937A63
:1013500003F003030029E6D043F00403E3E7D36876
:101360005DF8044B023BD3607047D3685DF8044BD3
:101370000233D3607047D3685DF8044B0133D36008
:10138000704700BF34C10020214B10B45A6D136860
:10139000506819780478507A137A044201EA0301FC
:1013A0001BD0937A03F0030309B143F0040343F025
:1013B00008039910013B91720D2B0BD8DFE803F065
:1013C00021071B070A152121150A071B0721D368CE
:1013D000013BD3605DF8044B7047937A03F003033D
:1013E0000029E6D043F00403E3E7D3685DF8044B3B
:1013F000023BD3607047D3685DF8044B0233D3607F
:101400007047D3685DF8044B0133D360704700BF69
:1014100034C10020214B10B49A6D136850681978BC
:101420000478507A137A044201EA03011BD0937ABC
:1014300003F0030309B143F0040343F008039910D8
:10144000013B91720D2B0BD8DFE803F021071B073E
:101450000A152121150A071B0721D368013BD36018
:101460005DF8044B7047937A03F003030029E6D03C
:1014700043F00403E3E7D3685DF8044B023BD36019
:101480007047D3685DF8044B0233D3607047D3686C
:101490005DF8044B0133D360704700BF34C10020B6
:1014A000214B10B4DA6D1368506819780478507ABB
:1014B000137A044201EA03011BD0937A03F0030379
:1014C00009B143F0040343F008039910013B917202
:1014D0000D2B0BD8DFE803F021071B070A1521218C
:1014E000150A071B0721D368013BD3605DF8044B45
:1014F0007047937A03F003030029E6D043F0040316
:10150000E3E7D3685DF8044B023BD3607047D368D0
:101510005DF8044B0233D3607047D3685DF8044B29
:101520000133D360704700BF34C10020214B10B499
:101530001A6E1368506819780478507A137A044246
:1015400001EA03011BD0937A03F0030309B143F0CE
:10155000040343F008039910013B91720D2B0BD843
:10156000DFE803F021071B070A152121150A071BD5
:101570000721D368013BD3605DF8044B7047937A31
:1015800003F003030029E6D043F00403E3E7D36844
:101590005DF8044B023BD3607047D3685DF8044BA1
:1015A0000233D3607047D3685DF8044B0133D360D6
:1015B000704700BF34C10020214B10B45A6E13682D
:1015C000506819780478507A137A044201EA0301CA
:1015D0001BD0937A03F0030309B143F0040343F0F3
:1015E00008039910013B91720D2B0BD8DFE803F033
:1015F00021071B070A152121150A071B0721D3689C
:10160000013BD3605DF8044B7047937A03F003030A
:101610000029E6D043F00403E3E7D3685DF8044B08
:10162000023BD3607047D3685DF8044B0233D3604C
:101630007047D3685DF8044B0133D360704700BF37
:1016400034C10020214B10B49A6E13685068197889
:101650000478507A137A044201EA03011BD0937A8A
:1016600003F0030309B143F0040343F008039910A6
:10167000013B91720D2B0BD8DFE803F021071B070C
:101680000A152121150A071B0721D368013BD360E6
:101690005DF8044B7047937A03F003030029E6D00A
:1016A00043F00403E3E7D3685DF8044B023BD360E7
:1016B0007047D3685DF8044B0233D3607047D3683A
:1016C0005DF8044B0133D360704700BF34C1002084
:1016D000214B10B4DA6E1368506819780478507A88
:1016E000137A044201EA03011BD0937A03F0030347
:1016F00009B143F0040343F008039910013B9172D0
:101700000D2B0BD8DFE803F021071B070A15212159
:10171000150A071B0721D368013BD3605DF8044B12
:101720007047937A03F003030029E6D043F00403E3
:10173000E3E7D3685DF8044B023BD3607047D3689E
:101740005DF8044B0233D3607047D3685DF8044BF7
:101750000133D360704700BF34C10020214B10B467
:101760001A6F1368506819780478507A137A044213
:1017700001EA03011BD0937A03F0030309B143F09C
:10178000040343F008039910013B91720D2B0BD811
:10179000DFE803F021071B070A152121150A071BA3
:1017A0000721D368013BD3605DF8044B7047937AFF
:1017B00003F003030029E6D043F00403E3E7D36812
:1017C0005DF8044B023BD3607047D3685DF8044B6F
:1017D0000233D3607047D3685DF8044B0133D360A4
:1017E000704700BF34C10020214B10B45A6F1368FA
:1017F000506819780478507A137A044201EA030198
:101800001BD0937A03F0030309B143F0040343F0C0
:1018100008039910013B91720D2B0BD8DFE803F000
:1018200021071B070A152121150A071B0721D36869
:10183000013BD3605DF8044B7047937A03F00303D8
:101840000029E6D043F00403E3E7D3685DF8044BD6
:10185000023BD3607047D3685DF8044B0233D3601A
:101860007047D3685DF8044B0133D360704700BF05
:1018700034C10020214B10B49A6F13685068197856
:101880000478507A137A044201EA03011BD0937A58
:1018900003F0030309B143F0040343F00803991074
:1018A000013B91720D2B0BD8DFE803F021071B07DA
:1018B0000A152121150A071B0721D368013BD360B4
:1018C0005DF8044B7047937A03F003030029E6D0D8
:1018D00043F00403E3E7D3685DF8044B023BD360B5
:1018E0007047D3685DF8044B0233D3607047D36808
:1018F0005DF8044B0133D360704700BF34C1002052
:10190000214B10B4DA6F1368506819780478507A54
:10191000137A044201EA03011BD0937A03F0030314
:1019200009B143F0040343F008039910013B91729D
:101930000D2B0BD8DFE803F021071B070A15212127
:10194000150A071B0721D368013BD3605DF8044BE0
:101950007047937A03F003030029E6D043F00403B1
:10196000E3E7D3685DF8044B023BD3607047D3686C
:101970005DF8044B0233D3607047D3685DF8044BC5
:101980000133D360704700BF34C10020214B10B435
:10199000D3F880201368506819780478507A137A45
:1019A000044201EA03011BD0937A03F0030309B157
:1019B00043F0040343F008039910013B91720D2B8F
:1019C0000BD8DFE803F021071B070A152121150AB0
:1019D000071B0721D368013BD3605DF8044B7047B8
:1019E000937A03F003030029E6D043F00403E3E70E
:1019F000D3685DF8044B023BD3607047D3685DF851
:101A0000044B0233D3607047D3685DF8044B013355
:101A1000D360704734C10020214B10B4D3F8842028
:101A20001368506819780478507A137A044201EAEE
:101A300003011BD0937A03F0030309B143F00403BD
:101A400043F008039910013B91720D2B0BD8DFE88E
:101A500003F021071B070A152121150A071B07217F
:101A6000D368013BD3605DF8044B7047937A03F071
:101A700003030029E6D043F00403E3E7D3685DF8ED
:101A8000044B023BD3607047D3685DF8044B0233CC
:101A9000D3607047D3685DF8044B0133D36070475F
:101AA00034C10020214B10B4D3F88820136850684B
:101AB00019780478507A137A044201EA03011BD0A2
:101AC000937A03F0030309B143F0040343F00803DE
:101AD0009910013B91720D2B0BD8DFE803F0210721
:101AE0001B070A152121150A071B0721D368013B93
:101AF000D3605DF8044B7047937A03F00303002929
:101B0000E6D043F00403E3E7D3685DF8044B023BFF
:101B1000D3607047D3685DF8044B0233D3607047DD
:101B2000D3685DF8044B0133D360704734C10020A3
:101B3000214B10B4D3F88C201368506819780478BE
:101B4000507A137A044201EA03011BD0937A03F01E
:101B5000030309B143F0040343F008039910013B68
:101B600091720D2B0BD8DFE803F021071B070A1534
:101B70002121150A071B0721D368013BD3605DF8BB
:101B8000044B7047937A03F003030029E6D043F037
:101B90000403E3E7D3685DF8044B023BD36070476E
:101BA000D3685DF8044B0233D3607047D3685DF8A7
:101BB000044B0133D360704734C10020214B10B473
:101BC000D3F890201368506819780478507A137A03
:101BD000044201EA03011BD0937A03F0030309B125
:101BE00043F0040343F008039910013B91720D2B5D
:101BF0000BD8DFE803F021071B070A152121150A7E
:101C0000071B0721D368013BD3605DF8044B704785
:101C1000937A03F003030029E6D043F00403E3E7DB
:101C2000D3685DF8044B023BD3607047D3685DF81E
:101C3000044B0233D3607047D3685DF8044B013323
:101C4000D360704734C10020214B10B4D3F89420E6
:101C50001368506819780478507A137A044201EABC
:101C600003011BD0937A03F0030309B143F004038B
:101C700043F008039910013B91720D2B0BD8DFE85C
:101C800003F021071B070A152121150A071B07214D
:101C9000D368013BD3605DF8044B7047937A03F03F
:101CA00003030029E6D043F00403E3E7D3685DF8BB
:101CB000044B023BD3607047D3685DF8044B02339A
:101CC000D3607047D3685DF8044B0133D36070472D
:101CD00034C10020214B10B4D3F898201368506809
:101CE00019780478507A137A044201EA03011BD070
:101CF000937A03F0030309B143F0040343F00803AC
:101D00009910013B91720D2B0BD8DFE803F02107EE
:101D10001B070A152121150A071B0721D368013B60
:101D2000D3605DF8044B7047937A03F003030029F6
:101D3000E6D043F00403E3E7D3685DF8044B023BCD
:101D4000D3607047D3685DF8044B0233D3607047AB
:101D5000D3685DF8044B0133D360704734C1002071
:101D6000214B10B4D3F89C2013685068197804787C
:101D7000507A137A044201EA03011BD0937A03F0EC
:101D8000030309B143F0040343F008039910013B36
:101D900091720D2B0BD8DFE803F021071B070A1502
:101DA0002121150A071B0721D368013BD3605DF889
:101DB000044B7047937A03F003030029E6D043F005
:101DC0000403E3E7D3685DF8044B023BD36070473C
:101DD000D3685DF8044B0233D3607047D3685DF875
:101DE000044B0133D360704734C10020214B10B441
:101DF000D3F8A0201368506819780478507A137AC1
:101E0000044201EA03011BD0937A03F0030309B1F2
:101E100043F0040343F008039910013B91720D2B2A
:101E20000BD8DFE803F021071B070A152121150A4B
:101E3000071B0721D368013BD3605DF8044B704753
:101E4000937A03F003030029E6D043F00403E3E7A9
:101E5000D3685DF8044B023BD3607047D3685DF8EC
:101E6000044B0233D3607047D3685DF8044B0133F1
:101E7000D360704734C10020214B10B4D3F8A420A4
:101E80001368506819780478507A137A044201EA8A
:101E900003011BD0937A03F0030309B143F0040359
:101EA00043F008039910013B91720D2B0BD8DFE82A
:101EB00003F021071B070A152121150A071B07211B
:101EC000D368013BD3605DF8044B7047937A03F00D
:101ED00003030029E6D043F00403E3E7D3685DF889
:101EE000044B023BD3607047D3685DF8044B023368
:101EF000D3607047D3685DF8044B0133D3607047FB
:101F000034C10020214B10B4D3F8A82013685068C6
:101F100019780478507A137A044201EA03011BD03D
:101F2000937A03F0030309B143F0040343F0080379
:101F30009910013B91720D2B0BD8DFE803F02107BC
:101F40001B070A152121150A071B0721D368013B2E
:101F5000D3605DF8044B7047937A03F003030029C4
:101F6000E6D043F00403E3E7D3685DF8044B023B9B
:101F7000D3607047D3685DF8044B0233D360704779
:101F8000D3685DF8044B0133D360704734C100203F
:101F9000214B10B4D3F8AC2013685068197804783A
:101FA000507A137A044201EA03011BD0937A03F0BA
:101FB000030309B143F0040343F008039910013B04
:101FC00091720D2B0BD8DFE803F021071B070A15D0
:101FD0002121150A071B0721D368013BD3605DF857
:101FE000044B7047937A03F003030029E6D043F0D3
:101FF0000403E3E7D3685DF8044B023BD36070470A
:10200000D3685DF8044B0233D3607047D3685DF842
:10201000044B0133D360704734C10020214B10B40E
:10202000D3F8B0201368506819780478507A137A7E
:10203000044201EA03011BD0937A03F0030309B1C0
:1020400043F0040343F008039910013B91720D2BF8
:102050000BD8DFE803F021071B070A152121150A19
:10206000071B0721D368013BD3605DF8044B704721
:10207000937A03F003030029E6D043F00403E3E777
:10208000D3685DF8044B023BD3607047D3685DF8BA
:10209000044B0233D3607047D3685DF8044B0133BF
:1020A000D360704734C10020214B10B4D3F8B42062
:1020B0001368506819780478507A137A044201EA58
:1020C00003011BD0937A03F0030309B143F0040327
:1020D00043F008039910013B91720D2B0BD8DFE8F8
:1020E00003F021071B070A152121150A071B0721E9
:1020F000D368013BD3605DF8044B7047937A03F0DB
:1021000003030029E6D043F00403E3E7D3685DF856
:10211000044B023BD3607047D3685DF8044B023335
:10212000D3607047D3685DF8044B0133D3607047C8
:1021300034C10020214B10B4D3F8B8201368506884
:1021400019780478507A137A044201EA03011BD00B
:10215000937A03F0030309B143F0040343F0080347
:102160009910013B91720D2B0BD8DFE803F021078A
:102170001B070A152121150A071B0721D368013BFC
:10218000D3605DF8044B7047937A03F00303002992
:10219000E6D043F00403E3E7D3685DF8044B023B69
:1021A000D3607047D3685DF8044B0233D360704747
:1021B000D3685DF8044B0133D360704734C100200D
:1021C000214B10B4D3F8BC201368506819780478F8
:1021D000507A137A044201EA03011BD0937A03F088
:1021E000030309B143F0040343F008039910013BD2
:1021F00091720D2B0BD8DFE803F021071B070A159E
:102200002121150A071B0721D368013BD3605DF824
:10221000044B7047937A03F003030029E6D043F0A0
:102220000403E3E7D3685DF8044B023BD3607047D7
:10223000D3685DF8044B0233D3607047D3685DF810
:10224000044B0133D360704734C10020214B10B4DC
:10225000D3F8C0201368506819780478507A137A3C
:10226000044201EA03011BD0937A03F0030309B18E
:1022700043F0040343F008039910013B91720D2BC6
:102280000BD8DFE803F021071B070A152121150AE7
:10229000071B0721D368013BD3605DF8044B7047EF
:1022A000937A03F003030029E6D043F00403E3E745
:1022B000D3685DF8044B023BD3607047D3685DF888
:1022C000044B0233D3607047D3685DF8044B01338D
:1022D000D360704734C10020214B10B4D3F8C42020
:1022E0001368506819780478507A137A044201EA26
:1022F00003011BD0937A03F0030309B143F00403F5
:1023000043F008039910013B91720D2B0BD8DFE8C5
:1023100003F021071B070A152121150A071B0721B6
:10232000D368013BD3605DF8044B7047937A03F0A8
:1023300003030029E6D043F00403E3E7D3685DF824
:10234000044B023BD3607047D3685DF8044B023303
:10235000D3607047D3685DF8044B0133D360704796
:1023600034C10020214B10B4D3F8C8201368506842
:1023700019780478507A137A044201EA03011BD0D9
:10238000937A03F0030309B143F0040343F0080315
:102390009910013B91720D2B0BD8DFE803F0210758
:1023A0001B070A152121150A071B0721D368013BCA
:1023B000D3605DF8044B7047937A03F00303002960
:1023C000E6D043F00403E3E7D3685DF8044B023B37
:1023D000D3607047D3685DF8044B0233D360704715
:1023E000D3685DF8044B0133D360704734C10020DB
:1023F000214B10B4D3F8CC201368506819780478B6
:10240000507A137A044201EA03011BD0937A03F055
:10241000030309B143F0040343F008039910013B9F
:1024200091720D2B0BD8DFE803F021071B070A156B
:102430002121150A071B0721D368013BD3605DF8F2
:10244000044B7047937A03F003030029E6D043F06E
:102450000403E3E7D3685DF8044B023BD3607047A5
:10246000D3685DF8044B0233D3607047D3685DF8DE
:10247000044B0133D360704734C10020214B10B4AA
:10248000D3F8D0201368506819780478507A137AFA
:10249000044201EA03011BD0937A03F0030309B15C
:1024A00043F0040343F008039910013B91720D2B94
:1024B0000BD8DFE803F021071B070A152121150AB5
:1024C000071B0721D368013BD3605DF8044B7047BD
:1024D000937A03F003030029E6D043F00403E3E713
:1024E000D3685DF8044B023BD3607047D3685DF856
:1024F000044B0233D3607047D3685DF8044B01335B
:10250000D360704734C10020214B10B4D3F8D420DD
:102510001368506819780478507A137A044201EAF3
:1025200003011BD0937A03F0030309B143F00403C2
:1025300043F008039910013B91720D2B0BD8DFE893
:1025400003F021071B070A152121150A071B072184
:10255000D368013BD3605DF8044B7047937A03F076
:1025600003030029E6D043F00403E3E7D3685DF8F2
:10257000044B023BD3607047D3685DF8044B0233D1
:10258000D3607047D3685DF8044B0133D360704764
:1025900034C10020214B10B4D3F8D8201368506800
:1025A00019780478507A137A044201EA03011BD0A7
:1025B000937A03F0030309B143F0040343F00803E3
:1025C0009910013B91720D2B0BD8DFE803F0210726
:1025D0001B070A152121150A071B0721D368013B98
:1025E000D3605DF8044B7047937A03F0030300292E
:1025F000E6D043F00403E3E7D3685DF8044B023B05
:10260000D3607047D3685DF8044B0233D3607047E2
:10261000D3685DF8044B0133D360704734C10020A8
:10262000214B10B4D3F8DC20136850681978047873
:10263000507A137A044201EA03011BD0937A03F023
:10264000030309B143F0040343F008039910013B6D
:1026500091720D2B0BD8DFE803F021071B070A1539
:102660002121150A071B0721D368013BD3605DF8C0
:10267000044B7047937A03F003030029E6D043F03C
:102680000403E3E7D3685DF8044B023BD360704773
:10269000D3685DF8044B0233D3607047D3685DF8AC
:1026A000044B0133D360704734C10020214B10B478
:1026B000D3F8E0201368506819780478507A137AB8
:1026C000044201EA03011BD0937A03F0030309B12A
:1026D00043F0040343F008039910013B91720D2B62
:1026E0000BD8DFE803F021071B070A152121150A83
:1026F000071B0721D368013BD3605DF8044B70478B
:10270000937A03F003030029E6D043F00403E3E7E0
:10271000D3685DF8044B023BD3607047D3685DF823
:10272000044B0233D3607047D3685DF8044B013328
:10273000D360704734C10020214B10B4D3F8E4209B
:102740001368506819780478507A137A044201EAC1
:1027500003011BD0937A03F0030309B143F0040390
:1027600043F008039910013B91720D2B0BD8DFE861
:1027700003F021071B070A152121150A071B072152
:10278000D368013BD3605DF8044B7047937A03F044
:1027900003030029E6D043F00403E3E7D3685DF8C0
:1027A000044B023BD3607047D3685DF8044B02339F
:1027B000D3607047D3685DF8044B0133D360704732
:1027C00034C10020214B10B4D3F8E82013685068BE
:1027D00019780478507A137A044201EA03011BD075
:1027E000937A03F0030309B143F0040343F00803B1
:1027F0009910013B91720D2B0BD8DFE803F02107F4
:102800001B070A152121150A071B0721D368013B65
:10281000D3605DF8044B7047937A03F003030029FB
:10282000E6D043F00403E3E7D3685DF8044B023BD2
:10283000D3607047D3685DF8044B0233D3607047B0
:10284000D3685DF8044B0133D360704734C1002076
:10285000214B10B4D3F8EC20136850681978047831
:10286000507A137A044201EA03011BD0937A03F0F1
:10287000030309B143F0040343F008039910013B3B
:1028800091720D2B0BD8DFE803F021071B070A1507
:102890002121150A071B0721D368013BD3605DF88E
:1028A000044B7047937A03F003030029E6D043F00A
:1028B0000403E3E7D3685DF8044B023BD360704741
:1028C000D3685DF8044B0233D3607047D3685DF87A
:1028D000044B0133D360704734C1002070B5044607
:1028E00008460D4623F08CFF236802462946204601
:1028F0005B68BDE87040184738B5044608460D4689
:1029000023F07EFF2368024629465B6820469847ED
:10291000054620461EF020FE284438BD38B5054641
:102920001EF080FE044628461EF016FE204438BDE8
:1029300038B5C9B205461EF07FFE044628461EF093
:102940000BFE204438BD00BF70B50568044628461C
:102950000E461CF043F9864203D0314628461CF04F
:1029600057F9204670BD00BF10B4036841681A785B
:102970000C78417A037A0C4202EA03021BD0837A74
:1029800003F003030AB143F0040343F008039A1071
:10299000013B82720D2B0BD8DFE803F021071B07E8
:1029A0000A152121150A071B0721C368013BC360D3
:1029B0005DF8044B7047837A03F00303002AE6D0E6
:1029C00043F00403E3E7C3685DF8044B023BC360D4
:1029D0007047C3685DF8044B0233C3607047C36837
:1029E0005DF8044B0133C360704700BF08B50B4668
:1029F0003B2800F2C682DFE810F0BB02B202A90257
:102A0000A00297028E0285027C0273026A026102B2
:102A100058024F0246023D0234022B0222021902E2
:102A200010020702AE01A5019C0193018A018101F8
:102A300078016F0166015D0154014A0140013601D0
:102A40002C01220118010E010401FA00F000E60039
:102A5000DC00D200C800BE00B400AA00A0009600AE
:102A60008C00820078006E0064005A00500046001E
:102A70003C00BD4ABD49C2F8EC303B2004221CF0AA
:102A8000FFFB012008BDB84AB949C2F8E8303A2036
:102A900004221CF0F5FB012008BDB34AB549C2F879
:102AA000E430392004221CF0EBFB012008BDAE4AC3
:102AB000B149C2F8E030382004221CF0E1FB0120CB
:102AC00008BDA94AAD49C2F8DC30372004221CF009
:102AD000D7FB012008BDA44AA949C2F8D830362046
:102AE00004221CF0CDFB012008BD9F4AA549C2F875
:102AF000D430352004221CF0C3FB012008BD9A4AC3
:102B0000A149C2F8D030342004221CF0B9FB0120C6
:102B100008BD954A9D49C2F8CC30332004221CF0F0
:102B2000AFFB012008BD904A9949C2F8C830322055
:102B300004221CF0A5FB012008BD8B4A9549C2F870
:102B4000C430312004221CF09BFB012008BD864AC2
:102B50009149C2F8C030302004221CF091FB0120C2
:102B600008BD814A8D49C2F8BC302F2004221CF0D8
:102B700087FB012008BD7C4A8949C2F8B8302E2065
:102B800004221CF07DFB012008BD774A8549C2F86C
:102B9000B4302D2004221CF073FB012008BD724AC2
:102BA0008149C2F8B0302C2004221CF069FB0120BE
:102BB00008BD6D4A7D49C2F8AC302B2004221CF0C0
:102BC0005FFB012008BD684A7949C2F8A8302A2075
:102BD00004221CF055FB012008BD634A7549C2F868
:102BE000A430292004221CF04BFB012008BD5E4AC2
:102BF0007149C2F8A030282004221CF041FB0120BA
:102C000008BD594A6D49C2F89C30272004221CF0A7
:102C100037FB012008BD544A6949C2F89830262084
:102C200004221CF02DFB012008BD4F4A6549C2F863
:102C30009430252004221CF023FB012008BD4A4AC1
:102C40006149C2F89030242004221CF019FB0120B5
:102C500008BD454A5D49C2F88C30232004221CF08F
:102C60000FFB012008BD404A5949C2F88830222094
:102C700004221CF005FB012008BD3B4A5549C2F85F
:102C80008430212004221CF0FBFA012008BD364AC2
:102C90005149C2F88030202004221CF0F1FA0120B2
:102CA00008BD314A4D49D3671F2004221CF0E8FAC1
:102CB000012008BD2C4A4A4993671E2004221CF0BB
:102CC000DFFA012008BD284A464953671D20042227
:102CD0001CF0D6FA012008BD234A434913671C2083
:102CE00004221CF0CDFA012008BD1F4A3F49D366DB
:102CF0001B2004221CF0C4FA012008BD1A4A3C49DA
:102D000093661A2004221CF0BBFA012008BD164A63
:102D100038495366192004221CF0B2FA012008BD7C
:102D2000114A35491366182004221CF0A9FA012023
:102D300008BD0D4A3149D365172004221CF0A0FAC2
:102D4000012008BD084A2E499365162004221CF074
:102D500097FA012008BD044A2A4953651520042228
:102D60001CF08EFA012008BD34C10020512800005B
:102D7000C527000039270000AD26000021260000ED
:102D800095250000092500007D240000F1230000A6
:102D900065230000D92200004D220000C12100005F
:102DA00035210000A92000001D200000911F000017
:102DB000051F0000791E0000ED1D0000611D0000D0
:102DC000D51C0000491C0000BD1B0000311B000089
:102DD000A51A0000191A00008D1900000119000041
:102DE00075180000E91700005D170000D1160000FB
:102DF00045160000B91500002D150000A1140000B3
:102E000015140000891300005F4A604913651420FF
:102E100004221CF035FA012008BD5B4A5C49D364EA
:102E2000132004221CF02CFA012008BD564A5949EF
:102E30009364122004221CF023FA012008BD524A98
:102E400055495364112004221CF01AFA012008BDD0
:102E50004D4A52491364102004221CF011FA01203B
:102E600008BD494A4E49D3630F2004221CF008FADA
:102E7000012008BD444A4B4993630E2004221CF0F4
:102E8000FFF9012008BD404A474953630D20042241
:102E90001CF0F6F9012008BD3B4A444913630C209D
:102EA00004221CF0EDF9012008BD374A4049D362E5
:102EB0000B2004221CF0E4F9012008BD324A3D49F0
:102EC00093620A2004221CF0DBF9012008BD2E4A7F
:102ED00039495362092004221CF0D2F9012008BDAF
:102EE000294A36491362082004221CF0C9F901203E
:102EF00008BD254A3249D361072004221CF0C0F9DD
:102F0000012008BD204A2F499361062004221CF0AD
:102F1000B7F9012008BD1C4A2B4953610520042242
:102F20001CF0AEF9012008BD174A2849136104229C
:102F300010461CF0A5F9012008BD134A2449D360AE
:102F4000032004221CF09CF9012008BD0E4A2149EF
:102F50009360022004221CF093F9012008BD0A4A64
:102F60001D495360012004221CF08AF9012008BD8C
:102F7000054A1A491360002004221CF081F901203F
:102F800008BD002008BD00BF34C10020FD120000B4
:102F900071120000E511000059110000CD10000071
:102FA00041100000B50F0000290F00009D0E000029
:102FB000110E0000850D0000F90C00006D0C0000E2
:102FC000E10B0000550B0000C90A00003D0A00009B
:102FD000B109000025090000990800000D08000053
:102FE000024B1B68DB6F1B6B1B6970478409002059
:102FF0002DE9F0411D4B1D68854282B016468CB20A
:1030000019D005B2C4F590730022294600921BB274
:103010000A22174815F02AFA164B15481B88009308
:10302000C4F59572A31B1BB212B2294615F01EFA05
:1030300002B0BDE8F081C4F595772DB23FB24FF4F0
:1030400078483B462946CDF800800A22084815F00A
:103050000DFAA31B3A461BB2CDF80080294604485E
:1030600015F004FA02B0BDE8F08100BF1008FF1FA0
:10307000E07100205C08FF1F2DE9F043DFF8248198
:103080003E4ED8F800003E4D83B022F0CDF841EC22
:10309000100B1FF0F1F800223A4B51EC100B22F00C
:1030A00039F922F00FFC2F463060002412E0364B35
:1030B000364A53F824303648126803EBC3035B01E9
:1030C000B3FBF2F202602046FFF792FF0134B4F541
:1030D000D27F50D055F82430012B2FD957F8240037
:1030E00022F0A2F841EC100B1FF0C6F8254B00228D
:1030F00051EC100B22F00EF922F0E4FB00EBC000C3
:1031000033684001B0FBF3F0224BB0F5907F8ABFEB
:103110004FF49071186019601F4B1B7898BF0146DF
:10312000002BC4D155F824301948D8F8002003EBFF
:10313000C3035B01B3FBF2F20260C4E700230FFAA2
:1031400084F9009349464FF490730A22134815F00E
:103150008DF9134B1B68A342B8D14FF47843009309
:1031600049464FF490730A220C48013415F07EF959
:10317000B4F5D27FAED103B0BDE8F083587D002016
:10318000081CFF1F0000594090740020640A0020B2
:10319000B4BD00200088FF1F4008FF1FE071002021
:1031A0001008FF1F8809002030B5104B1D688542AC
:1031B00083B00B460DD00E4A128800920446C1F52A
:1031C00095720C4821B212B21BB215F04FF903B040
:1031D00030BDC1F595724FF47840009029B212B21B
:1031E0001BB2044815F042F903B030BD1008FF1FB0
:1031F0008C08FF1FE07100202DE9F843184D194C91
:10320000DFF87080184F194E4FF0000910E056F8A3
:103210002930116803EBC3035B014846B3FBF1F1AE
:1032200009F101092160FFF7BFFFB9F5D27F14D082
:103230002B780F4A002BEAD158F82930396803EB74
:10324000C3035B014846B3FBF1F109F101092160B9
:10325000FFF7AAFFB9F5D27FEAD1BDE8F88300BF36
:103260004008FF1F0088FF1F88090020907400207D
:10327000640A0020081CFF1F00B5074883B0B0F99E
:103280002020B0F91E30009200220192114615F064
:1032900091FB03B05DF804FBE0710020F0B5002362
:1032A000174F1A4647F823200133B3F5007FF9D1B1
:1032B000144E4FF0000E01F1FF3C00291DDDB0F56A
:1032C000805F1ADA03460CEB0005002202E0B3F53A
:1032D000805F06D056F82340AB42224403F101033D
:1032E000F5D10844B0F5805F47F82E2004DA0EF1DE
:1032F000010EBEF5007FE0D1F0BD0022F1E700BF76
:10330000081CFF1F5088FF1FF0B50023174F1A46F7
:1033100047F823200133B3F5007FF9D1144E4FF065
:10332000000E01F1FF3C00291DDDB0F5805F1ADAC7
:1033300003460CEB0005002202E0B3F5805F06D0E7
:1033400056F82340AB42224403F10103F5D108446F
:10335000B0F5805F47F82E2004DA0EF1010EBEF5BD
:10336000007FE0D1F0BD0022F1E700BF90740020A3
:1033700054C8FF1F00235548194640F82310013355
:10338000B3F5805F4FF00002F7D1F0B45048514CD4
:103390005149524F524B227002700A603A60514EAE
:1033A000514D524C52485349534F1A60534B32605F
:1033B0002A60226002600A603A60514E514D524CC0
:1033C00052485349534F1A60534B32602A6022606F
:1033D00002600A603A60514E514D524C5248534976
:1033E000534F1A60534B32602A60226002600A60B9
:1033F000514E524D524C534853493A60534F1A6004
:10340000534B32602A60534E534D22600260534C3E
:1034100053480A603A60534F1A605349534B326025
:103420002A60226002603A60514E524D524C53481D
:10343000534F0A601A60534932603C232B6023606B
:1034400003603B60504E514D514C5248524F0B60FF
:10345000524933602B60236003603B60504E514DF6
:10346000514C5248524F0B60524933602B602360DD
:103470000360514E514D524C5248534B3A70B42751
:103480000F605249524F32702A70524E524D227084
:103490000270524C52481A70524B0A7052493A709C
:1034A000524F32702A70524E524D22700270524C5E
:1034B0001A705248524B0A7000213A7032702A70CA
:1034C000227002701960F0BC704700BF5088FF1F67
:1034D0006418FF1F74080020BCBD0020DC710020B0
:1034E0007CBD00204888FF1F80BD002084BD0020D7
:1034F00088BD0020AC0800208CBD002094BD0020B9
:1035000090BD002098BD0020D087FF1FD487FF1FEB
:10351000D887FF1FDC87FF1F5C18FF1FE087FF1F96
:103520006018FF1FE487FF1FE887FF1FEC87FF1F5E
:103530004488FF1FD864FF1F4C88FF1FDC64FF1FF7
:10354000E064FF1F1C65FF1FE864FF1FEC64FF1FA2
:10355000F864FF1FF064FF1FFC64FF1F0065FF1F7E
:103560000465FF1F1065FF1F0865FF1F1865FF1F1B
:103570001465FF1FF808FF1FF408FF1FF008FF1F66
:10358000E808FF1FEC08FF1FE408FF1FE008FF1F0B
:10359000DC08FF1F4C09FF1F4409FF1F4809FF1FDC
:1035A0004009FF1F3C09FF1F3809FF1F3409FF1F97
:1035B000990900207C09FF1FF464FF1F0C19FF1FED
:1035C000D464FF1F1C88FF1FE464FF1FA0080020B5
:1035D000A8080020001CFF1F8D740020F487FF1F27
:1035E000AA080020F4BD00202488FF1FECBD0020A5
:1035F000A9080020900800204418FF1F8C6E0020AE
:103600008C0800204E484F494F4ADFF848C200233B
:10361000F0B54E4F03604E4E4E4D4F4C4F483B6001
:103620000B6013604E4F4F494F4A33602B6023604D
:1036300003604E4E4E4D4F4C4F483B600B60136045
:103640004E4F4F494F4A33602B60236003604E4E0C
:103650004E4D4F4C4F483B600B6013604E4F4F49EF
:103660004F4A33602B60236003604E4E4E4D4F4CEB
:103670004F48DFF8E4E13B600B604E4F4E4913606A
:103680004E4A33602B604E4E4E4D236003604E4CCD
:103690004E48CCF80030CEF800303B600B60136031
:1036A0004B494C4A33602B60237003704A4F4B4E9A
:1036B0004B4D4C4C4C480B7013704C494C4A3B7072
:1036C00033702B70237003704A4F4B4E4B4D4C4C54
:1036D0004C480B7013704C493B703C222A602260AE
:1036E00002603370494F4A4E4A4D4B4C4B480A607A
:1036F0004B493A6032602A6022600260494F4A4E6C
:103700004A4D4B4C4B480A60DFF850E14A493A6059
:1037100032602A6022600260484F494E494D4A4C4F
:103720004A484B4A4FF0B40CCEF800C00B70002151
:103730003B7033702B70237003701160F0BD00BFBD
:1037400084BD0020AC08002090BD002088BD002072
:103750008CBD002094BD002098BD0020D087FF1FA5
:10376000D487FF1FD887FF1FE087FF1FDC87FF1F5D
:103770005C18FF1F6018FF1FE487FF1FE887FF1F0B
:10378000EC87FF1F4C88FF1F4488FF1FD864FF1F72
:10379000DC64FF1FE064FF1F1C65FF1FE864FF1F60
:1037A000F064FF1FEC64FF1FF864FF1FFC64FF1F41
:1037B0000065FF1F0465FF1F0865FF1F1465FF1FDD
:1037C0001065FF1F1865FF1F99090020F464FF1F93
:1037D000D464FF1FE464FF1F0C19FF1F1C88FF1F28
:1037E000A0080020A8080020001CFF1FF487FF1F6E
:1037F000F4BD00208D740020AA080020F808FF1FE7
:10380000F408FF1FF008FF1FE808FF1FEC08FF1F68
:10381000E408FF1FE008FF1FDC08FF1F4C09FF1F23
:103820004409FF1F4809FF1F4009FF1F3C09FF1FF4
:103830003809FF1F3409FF1F2488FF1FECBD00203B
:10384000A9080020900800204418FF1F8C6E00205B
:103850008C0800207CBD002080BD00207C09FF1F5B
:10386000544A554BD2ED007AD3ED006A534B27EE04
:10387000A76A66EEA63AD3ED004A76EE632A64EEB6
:10388000A40A77EEE65A22EEE47A23EEE74AA0EEA7
:10389000A57A0022A6EE864A37EE047AB5EE407A83
:1038A000F1EE10FA79D04649464A474BD2ED001A5C
:1038B00093ED001A91ED002A9FED440A25EE825AFD
:1038C00071EEC15AF1EE644A66EEA16A67EE817A42
:1038D000A4EEA55A36EEE73A33EE055A85EE073ADE
:1038E000B0EEC35AB4EE405AF1EE10FA48DCB4EE32
:1038F000433AF1EE10FA47D6354B83ED003A26EE07
:10390000016A60EEA55AA3EEE16AE2EEC25ADFED6B
:103910002F3A75EE865A85EE875AF0EEC55AF4EEC8
:10392000635AF1EE10FA03DD15EE103A002B2FDA90
:10393000B4EE455AF1EE10FA2AD6264B83ED005A22
:1039400077EEE67ADFED215A67EEA07AE4EE867A2A
:10395000E4EE027AC7EE876AF0EEE67AF4EE657A74
:10396000F1EE10FA03DD16EE903A002B1EDAF4EEBB
:10397000666AF1EE10FA19D6174BC3ED006A70476C
:1039800013EE103A002BB2DB114B00221A60B6E79F
:10399000104B4FF07E521A60D2E70D480D490E4B86
:1039A00002604FF07E5008601A6070470A4B002298
:1039B0001A607047DC09FF1FE009FF1FD809FF1FCD
:1039C0000C09FF1FCC08FF1FD008FF1FFFFF7F7FE0
:1039D0009C0800206C09FF1F0019FF1F30B583B041
:1039E00001AD042420461BF0F9F80134082C05F839
:1039F000010BF7D1124A134B92ED007A9DED016A4B
:103A0000D3ED006A104A114B92ED005AD3ED005AE3
:103A100066EE077A26EE267AF7EE006AE6EE077A79
:103A200077EE857A77EEE57AF0EEE77AF4EEE67AED
:103A3000F1EE10FA94BF01204FF0FF3003B030BD1B
:103A40006C09FF1F9C0800200019FF1FCC08FF1FF6
:103A500070B5012882B00E46154600F0C6800228D7
:103A6000044671D008B102B070BD4FF48C738DE87C
:103A700018001C224FF4AF730A21834814F09AFFF8
:103A80000A2211462346804818F0C0FB0A22102360
:103A900011468DE818007C484FF4AF7314F08AFF8C
:103AA0000A2211462346784818F0B0FB7749764839
:103AB000FEF714FF2946744818F014FC314672488A
:103AC0001DF024FD4FF6FF716F4818F00BFC2346E4
:103AD0002A220A216C4818F099FB6D496A48FEF7C2
:103AE000FDFE3C2223460A21674818F08FFB6949F6
:103AF0006548FEF7F3FE2946634818F0F3FB664B72
:103B0000186821F0B3FB41EC100B02215E481DF058
:103B100093FD4FF6FF715C4818F0E4FB23465C22EE
:103B20000A21594818F072FB5C495748FEF7D6FE47
:103B300023466E220A21544818F068FB584952481F
:103B4000FEF7CCFE02B070BD00244FF48C738DE8FC
:103B500018001C224FF4AF730A214B4814F02AFFBF
:103B60000A2211462346484818F050FB0A22102327
:103B700011468DE8180044484FF4AF7314F01AFF53
:103B80000A2211462346404818F040FB3F493E4870
:103B9000FEF7A4FE29463C4818F0A4FB31463A48FB
:103BA0001DF0B4FC4FF6FF71374818F09BFB23461D
:103BB0002A220A21344818F029FB2946324818F0F5
:103BC00091FB38493048FEF789FE4FF6FF712E48C9
:103BD00018F088FB0A2123463C222B4818F016FBDC
:103BE00031492948FEF77AFE98E700244FF48C7398
:103BF0008DE818001C224FF4AF730A21224814F0FC
:103C0000D9FE0A22114623461F4818F0FFFA0A225D
:103C1000102311468DE818001B484FF4AF7314F0C1
:103C2000C9FE0A2211462346174818F0EFFA174931
:103C30001548FEF753FE2946134818F053FB31464A
:103C400011481DF063FC4FF6FF710F4818F04AFB56
:103C500023462A220A210C4818F0D8FA29460A4895
:103C600018F040FB11490848FEF738FE4FF6FF7187
:103C7000054818F037FB0A2123463C22024818F079
:103C8000C5FA0B49ADE700BFE071002018B2020091
:103C900028B2020040B20200AC09FF1F50B202007D
:103CA0006CB20200A4B20200C0B2020080B20200F4
:103CB00098B2020038B51B4C237C012B2CD972B66C
:103CC000184DE36862B61849184A086813609842AC
:103CD00021D0002B164816DB0068B3EB800F05DD02
:103CE0000023136072B6E36062B61368114C0B6078
:103CF000002B1A46B8BFDA1C921022603220BDE8B1
:103D000038401BF0D5BD03689B00136072B6EB60B2
:103D100062B61368E0E738BD72B62046FEF724FEAF
:103D2000CEE700BFB818FF1FE407FF1F5818FF1F9A
:103D30000419FF1FF0BD00202DE9F04785B28CB2B9
:103D400084B02E4E04F1210305F114024FF4784E95
:103D500007B212B218B2A5F11403CDF80CE001922B
:103D600002900AB20090394630461BB2A5F1020912
:103D700016F04AFB4FF6FF780FFA89F904F10902B1
:103D80000E23494630468DE8080112B2052314F08F
:103D900011FE04F1FF3A0523494604F11A02A5F188
:103DA0001509223424B2304600930FFA8AFA0FFA2A
:103DB00089F9CDF8048012B2153514F0FBFD2DB24F
:103DC00052464B46394630468DE8100118F0D2FE77
:103DD000524639462B4630460094CDF8048018F000
:103DE000C9FE00944B4622462946CDF80480304651
:103DF00018F0C0FE04B0BDE8F08700BFE0710020FD
:103E00002DE9F0438DB2264E05F1020885B04CF243
:103E100018690FFA88F8052384B242468DE8080233
:103E20000F46042301B2304614F0C4FDA31D05F172
:103E300008001BB23FB200B2EA1CA11C009701931C
:103E40000290CDF80C90304612B209B204F1080786
:103E500016F0DAFA3FB24FF0000E6A1C0723123454
:103E600006358DE808403946304624B22DB212B2EC
:103E70000D2314F09FFD23464246394630468DE817
:103E8000200218F077FECDF8008023462A463946F6
:103E9000CDF80490304618F06DFE05B0BDE8F08313
:103EA000E07100202DE9F04F8DB2354E05F1020A88
:103EB00085B04CF218670FFA8AFA052384B2884657
:103EC000524601B28DE888003046042314F072FD9A
:103ED000A31D05F1080205F1030E0FFA88F01BB2CD
:103EE00012B2A11C00900193029230460FFA8EF29A
:103EF000039709B204F1080B16F086FA0FFA8BFB50
:103F00004FF0000E6A1C072304F10D0805F10409A7
:103F10008DE808400FFA88F80FFA89F959463046BB
:103F200012B20D23063514F045FD2DB25246594606
:103F3000434630460197CDF80090123418F01AFE2F
:103F400024B2594643462A463046CDF800900197A0
:103F500018F010FE5246234641463046CDF80090F8
:103F6000019718F007FECDF8009023462A464146F7
:103F70000197304618F0FEFD05B0BDE8F08F00BF98
:103F8000E07100202DE9F04F8DB2364E05F10209A7
:103F900085B00FFA89F94CF21868052384B28DE8D0
:103FA00008014A460F46042301B2304614F002FDD0
:103FB000A31D05F108001BB23FB200B2EA1CA11C10
:103FC0000097CDF80C800193029012B2304609B2EE
:103FD00016F01AFA04F1080B002707230FFA8BFBDF
:103FE0008DE888006A1C04F10D0705F104083FB252
:103FF0000FFA88F840F2FF7A5946304612B20D2384
:10400000063514F0D7FC2DB24A4659463B46304699
:10401000CDF80080CDF804A0123418F0ABFD24B226
:1040200059463B462A463046CDF80080CDF804A0DC
:1040300018F0A0FD4A46234639463046CDF80080A8
:10404000CDF804A018F096FDCDF8008023462A464E
:104050003946CDF804A0304618F08CFD05B0BDE817
:10406000F08F00BFE07100202DE9F04F504B1B781E
:1040700083B0002B48D1002A00F08F80002A40DD59
:104080008FB285B207F10A0B96B20FFA80FA0CB222
:104090000FFA8BFB07F1030905F105080FFA88F801
:1040A00022460FFA89F95346514642480196CDF807
:1040B00000B0073718F05EFD3FB222464346514636
:1040C0003C480196CDF800906C1F18F053FD24B2C7
:1040D0005A465146434637480097019618F04AFD24
:1040E00023463A4641463348CDF80090019618F0F1
:1040F00041FD009723464A46414601962D4818F057
:1041000039FD03B0BDE8F08F002AB7D18EB206F1B9
:104110000A0A0CB20FFA8AFA0FFA80F940F2FF7815
:1041200085B26F1D06F1030B3FB20FFA8BFB2246DF
:104130004B464946CDF800A0CDF804801D4807360F
:1041400018F018FD36B222463B464946CDF80480A9
:10415000CDF800B01748053D18F00CFD2DB25246C1
:1041600049463B468DE84001124818F003FD2B46B6
:1041700032463946CDF800B0CDF804800D4818F02D
:10418000F9FC00962B465A463946CDF8048009487A
:1041900018F0F0FC03B0BDE8F08F8EB206F10A0A09
:1041A0000CB20FFA8AFA0FFA80F947F6EF38B7E740
:1041B000E81BFF1FE07100202DE9F04F3A4B85B25C
:1041C0001B7805F10A0785B00A4604B23FB20FFA20
:1041D00081FA002B64D14FF4404692B23B4621460F
:1041E0000292CDF800A052460196304818F0C2FC69
:1041F000029B019603F10A080FFA88F83B464246F3
:104200002146CDF80080294818F0B4FC02990196A7
:1042100001F105090FFA89F9EB1C05F1010B0435D1
:104220001BB2524621460FFA8BFB2DB2CDF80090FF
:104230001E48039318F09EFC2B4659465246CDF873
:1042400000900196194818F095FC0399CDF800806C
:1042500023464A460196154818F08CFC5B464A46B0
:104260002946CDF800800196104818F083FC029C86
:104270000196A01C00B252463B46394600900B48BE
:1042800018F078FC04F108031BB28DE848004246A0
:104290003B463946054818F06DFC05B0BDE8F08F87
:1042A00040F2FF7699E700BFB0080020E0710020DF
:1042B0002DE9F04F85B28CB283B0DFF860806E1DBF
:1042C000A71C0A3424B240F2FF7936B23FB205F19E
:1042D000080382468B463A463146404600941BB25C
:1042E000CDF8049018F046FC05F10A03A91D0FFA59
:1042F0008BF240468DE810021BB209B218F03AFC6E
:1043000000943A463146CDF804900FFA8AF34046BD
:1043100018F030FC03B0BDE8F08F00BFE071002062
:104320002DE9F0478DB282B0374E05F1040905F151
:10433000110197B20FFA89F903B209B284B24A4661
:10434000009130461946019718F014FC631C05F1E2
:1043500010001BB200B219464A4600900197304641
:1043600018F008FC05F10E0804F108030FFA88F8AC
:104370001BB219464A46CDF800803046019718F026
:10438000F9FB04F109031BB2CDF800804A46194637
:104390003046019718F0EEFB04F1020904F1040A1B
:1043A00005F10D020FFA89F90FFA8AFA12B249469D
:1043B000534600923046019718F0DCFB53464946BD
:1043C000CDF8008042463046019718F0D3FB04F147
:1043D000050805F10C0207340FFA88F824B212B26E
:1043E0002346414600923046019718F0C3FB05F181
:1043F0000B0212B2234641468DE88400304618F085
:10440000B9FB02B0BDE8F087E071002010B519F0EB
:104410003FFE092827DC324C303030236070237097
:1044200019F046FE092831DC30303023E070A370EB
:1044300019F0FEFD09283BDC303030236071237118
:1044400019F006FE092845DD264BC21783FB001331
:10445000C2EBA30303EB8302A0EB42003030303306
:10446000E071A37110BD1F4B1D4C83FB0032C317BD
:10447000C3EBA20303EB8302A0EB420030303033E6
:104480006070237019F014FE0928CDDD154BC2179A
:1044900083FB0013C2EBA30303EB8302A0EB4200F8
:1044A00030303033E070A37019F0C2FD0928C3DD4D
:1044B0000C4BC21783FB0013C2EBA30303EB830275
:1044C000A0EB4200303030336071237119F0C0FD31
:1044D0000928B9DC30303023E071A37110BD00BF72
:1044E0000008FF1F676666662DE9F0432F4E002324
:1044F00089B00746336008E03368684601333360AB
:1045000010F0F6FB684610F0E7FB684601223946DA
:1045100010F0EAFD684610F0F9FB0028ECD13846AF
:1045200010F03CFE684610F0D7FB3568B5F1FE6F21
:1045300039D94FF0FF301DF077FC102380E82800B8
:1045400000F108096C1E4DB14D462846013C002182
:104550001DF0F0FA631C05F11005F6D13368DFF8A1
:104560005080002BC8F800901ADD00240122394643
:10457000684610F0B9FDD8F80030684603EB041522
:1045800010F0ACFB014628461DF088FB684610F091
:10459000AFFB684610F0A0FB33680134A342E5DCB2
:1045A00009B0BDE8F08328010830C4E75C7D002035
:1045B00070BE002008B5C8224FF4DC7111201DF038
:1045C000D5F9DC201BF074F9C8224FF4DC711120FE
:1045D0001DF0CCF9DC201BF06BF91120C8224FF440
:1045E000DC711DF0C3F9DC20BDE808401BF060B9A8
:1045F00070B594B00CA801233E4A3F4910F0E4FC8A
:104600000CA810F083FB20B90CA810F065FB14B0C7
:1046100070BD684639493A4E1DF08CFA0CA810F06E
:10462000C7FA90B10CA810F0E1FAC3B2392B1946C1
:10463000684606D80A2B13D01DF072FB029B202B74
:10464000ECD9FFF7B7FFFEF795FE0CA810F050FB72
:1046500068461DF02FFA0CA810F03EFB14B070BD98
:104660002C2168461DF09CFB05466C1C03464FF050
:104670000002694604A8224CE3D01DF0A1FB6A1C8D
:10468000029B694608A81DF09BFB04A81DF0BCFB1B
:10469000054608A81DF0B8FB184946F825006846ED
:1046A0001DF0FCFA08A81DF005FA04A81DF002FA96
:1046B00040F6FF739D42B1D1124B20681860002272
:1046C0001346226054F823100133B3F5805F0A4487
:1046D000F8D148B90C4B18604FF47A701BF0E8F829
:1046E0000CA810F005FBB0E7074BB2FBF0F21A6024
:1046F000F2E700BF0008FF1F78BE0020B479050074
:104700005088FF1FBCBD0020E01BFF1F30B595B0D7
:104710000CA80123354A364910F056FC0CA810F0BD
:10472000F5FA20B90CA810F0D7FA15B030BD6846DC
:104730003049314D1DF0FEF90CA810F039FA80B166
:104740000CA810F053FAC3B2392B1946684606D8A4
:104750000A2B16D01DF0E4FA029B202BECD9FFF7B0
:1047600029FF0CA810F0C4FA244B2A681A60684686
:1047700000232B601DF09EF90CA810F0ADFA15B0C7
:1047800030BD2C2168461DF00BFB0446B4F1FF3F01
:1047900003464FF00002694604A8E0D01DF010FB6C
:1047A000621C029B694608A81DF00AFB04A81DF0C4
:1047B0002BFB044608A81DF027FB0E4945F82400F2
:1047C00068461DF06BFA08A81DF074F904A81DF0E6
:1047D00071F940F6FF739C42AED14FF47A701BF032
:1047E00067F80CA810F084FABBE700BFD0B2020053
:1047F00078BE0020B47905008C2D00202009FF1F11
:104800002DE9F0412DED028B98B008A810F056FA72
:10481000AE49AF4810F04CFC002840F0BD81AD49D6
:10482000AB4810F045FC002840F01E81AA49A8487A
:1048300010F03EFC002840F09380A849A44810F0F6
:1048400037FC50B908A810F053FA08A810F044FA41
:1048500018B0BDEC028BBDE8F08110AD01239F4A7A
:104860009B49284610F0B0FB9DF84410129A9DF821
:104870004C308DF824100A928DF82C3013A90DF1CC
:104880002D020DF13A0311F8010F02F8010B9A42C3
:10489000F9D1179B0F93284610F01EFA08A810F0C4
:1048A00035FA0028CED068468D49DFED8E8ADFF8D4
:1048B00038826C461DF03EF9002608E01DF030FA03
:1048C000029B202B00F20F82322E00F0E48108A818
:1048D00010F06EF9002800F0E18108A810F086F9C8
:1048E000C3B2392B1946204600F2FD810A2BE5D1CF
:1048F0002E2120461DF054FA0746B7F1FF3F03462C
:10490000214604A84FF0000200F0ED811DF058FA96
:104910007A1C029B214628461DF052FA04A81DF07D
:1049200073FA08EE100A28461DF06EFA07EE900A98
:10493000B8EEE77AB8EEC88AC7EE287A08EB8603A5
:1049400067492046013677EE887AC3ED007A1DF07C
:10495000A5F928461DF0AEF804A81DF0ABF8B3E7A2
:1049600010AD01235C4A5A49284610F02DFB9DF8F2
:104970004410129A9DF84C308DF824100A928DF84C
:104980002C3013A90DF12D020DF13A0311F8010F8E
:1049900002F8010B9A42F9D1179B0F93284610F0A9
:1049A0009BF908A810F0B2F900283FF446AF68461A
:1049B0004B49DFED4C8ADFF834816C461DF0BAF8C4
:1049C000002608E01DF0ACF9029B202B00F291813B
:1049D000322E00F06A8108A810F0EAF8002800F0F2
:1049E000678108A810F002F9C3B2392B1946204696
:1049F00000F27F810A2BE5D12E2120461DF0D0F94F
:104A00000746B7F1FF3F0346214604A84FF00002D6
:104A100000F06F811DF0D4F97A1C029B21462846D4
:104A20001DF0CEF904A81DF0EFF908EE100A284693
:104A30001DF0EAF907EE900AB8EEE77AB8EEC88AF8
:104A4000C7EE287A08EB860325492046013677EE23
:104A5000887AC3ED007A1DF021F928461DF02AF866
:104A600004A81DF027F8B3E710AD0123194A18492F
:104A7000284610F0A9FA9DF84410129A9DF84C307F
:104A80008DF824100A928DF82C3013A90DF12D0207
:104A90000DF13A0311F8010F02F8010B9A42F9D116
:104AA000179B0F93284610F017F908A810F02EF95D
:104AB00000283FF4BBAE68460949DFED0A8ADFF8FB
:104AC00030806C461DF036F800261CE09409FF1F6C
:104AD00078BE00207C08FF1FA408FF1F6008FF1F8E
:104AE000B4790500286B6E4EBC0800209C0900209C
:104AF0000824FF1F1DF014F9029B202B00F2FC80FC
:104B0000322E00F0DC8008A810F052F8002800F0E7
:104B1000D98008A810F06AF8C3B2392B194620468C
:104B200000F2EA800A2BE5D12E2120461DF038F94B
:104B30000746B7F1FF3F0346214604A84FF00002A5
:104B400000F0DA801DF03CF97A1C029B21462846D1
:104B50001DF036F904A81DF057F908EE100A284692
:104B60001DF052F907EE900AB8EEE77AB8EEC88A5F
:104B7000C7EE287A08EB860361492046013677EEB6
:104B8000887AC3ED007A1DF089F828461CF092FF60
:104B900004A81CF08FFFB3E710AD0123594A5A490E
:104BA000284610F011FA9DF84410129A9DF84C30E6
:104BB0008DF824100A928DF82C3013A90DF12D02D6
:104BC0000DF13A0311F8010F02F8010B9A42F9D1E5
:104BD000179B0F93284610F07FF808A810F096F85E
:104BE00000283FF41CAE68464549DFED488ADFF8EF
:104BF00020816C461CF09EFF002606E01DF090F818
:104C0000029B202B72D8322E63D008A80FF0D0FF61
:104C1000002861D008A80FF0E9FFC3B2392B19466C
:104C2000204663D80A2BE9D12E2120461DF0B8F882
:104C30000746B7F1FF3F0346214604A84FF00002A4
:104C400054D01DF0BDF87A1C029B214628461DF069
:104C5000B7F804A81DF0D8F808EE100A28461DF091
:104C6000D3F807EE900AB8EEE77AB8EEC88AC7EE36
:104C7000287A08EB860322492046013677EE887AA7
:104C8000C3ED007A1DF00AF828461CF013FF04A8B3
:104C90001CF010FFB7E708A810F02AF808A810F0D9
:104CA00027F820461CF006FFCCE508A810F020F8F5
:104CB00008A810F01DF820461CF0FCFEBDE508A871
:104CC00010F016F808A810F013F820461CF0F2FEB9
:104CD000ACE508A810F00CF808A810F009F8204678
:104CE0001CF0E8FE9BE5FFF765FCD7E7FFF762FCE9
:104CF000F2E7FFF75FFCDBE7FFF75CFCE2E700BFF2
:104D0000B47905009409FF1F78BE0020286B6E4E11
:104D1000907C0020D049D14AD14BD24891ED007A05
:104D2000D2ED006A93ED006ACF499FEDD04AD0EDF5
:104D3000004A30B440F6E770012407EE904AB8EE1E
:104D4000E75A192335EE045A03E00133834200F099
:104D5000C28207EE903A03FB03F2F8EEE77A05EE23
:104D6000902A67EEA67AF8EEE55AE5EE867A77EEB7
:104D7000877A74EEE77AF0EEE77AB4EEE75AF1EE6E
:104D800010FAE2DB01340B2C36D17A230122B84829
:104D9000B84CD0ED004A9FEDB54A2360012540F69E
:104DA000E77407EE905AB8EEE75A192335EE045A25
:104DB00003E00133A34200F0948207EE903A03FB34
:104DC00003F0F8EEE77A05EE900A67EEA67AF8EEC1
:104DD000E55AE5EE867A77EE877A74EEE77AF0EEBA
:104DE000E77AB4EEE75AF1EE10FAE2DB01350B2D6B
:104DF00006D0581CD5D006E05D1C9ED00022C6E728
:104E000040F26E2301229C489C4CD0ED004A9FED5D
:104E1000974A2360012540F6E77407EE905AB8EEF2
:104E2000E75A192335EE045A03E00133A34200F098
:104E3000558207EE903A03FB03F0F8EEE77A05EEB1
:104E4000900A67EEA67AF8EEE55AE5EE867A77EEF6
:104E5000877A74EEE77AF0EEE77AB4EEE75AF1EE8D
:104E600010FAE2DB01350B2D02D0581CD5D002E040
:104E700040F2345301228248824CD0ED004A9FED2B
:104E80007B4A2360012540F6E77407EE905AB8EE9E
:104E9000E75A192335EE045A03E00133A34200F028
:104EA000238207EE903A03FB03F0F8EEE77A05EE73
:104EB000900A67EEA67AF8EEE55AE5EE867A77EE86
:104EC000877A74EEE77AF0EEE77AB4EEE75AF1EE1D
:104ED00010FAE2DB01350B2D02D0581CD5D002E0D0
:104EE00040F2492301226848684CD0ED004A9FED0A
:104EF0005F4A2360012540F6E77407EE905AB8EE4A
:104F0000E75A192335EE045A03E00133A34200F0B7
:104F1000F18107EE903A03FB03F0F8EEE77A05EE35
:104F2000900A67EEA67AF8EEE55AE5EE867A77EE15
:104F3000877A74EEE77AF0EEE77AB4EEE75AF1EEAC
:104F400010FAE2DB01350B2D02D0581CD5D002E05F
:104F50004FF4397301224E484E4CD0ED004A9FED7C
:104F6000434A2360012540F6E77407EE905AB8EEF5
:104F7000E75A192335EE045A03E00133A34200F047
:104F8000B68107EE903A03FB03F0F8EEE77A05EE00
:104F9000900A67EEA67AF8EEE55AE5EE867A77EEA5
:104FA000877A74EEE77AF0EEE77AB4EEE75AF1EE3C
:104FB00010FAE2DB01350B2D02D0581CD5D001E0F0
:104FC0007A2301223448354CD0ED004A9FED274A20
:104FD0002360012540F6E77407EE905AB8EEE75AD1
:104FE000192335EE045A03E00133A34200F06A812D
:104FF00007EE903A03FB03F0F8EEE77A05EE900A2D
:1050000067EEA67AF8EEE55AE5EE867A77EE877ACD
:1050100074EEE77AF0EEE77AB4EEE75AF1EE10FAC2
:10502000E2DB01350B2D02D0581CD5D002E04FF445
:10503000F97301221A489FED0D4ADFED1A4A036009
:10504000012540F6E77407EE905AB8EEE75A1923A7
:1050500035EE045A2CE000BF0019FF1F6C09FF1F3A
:105060009C0800201408FF1F1C09FF1F00000000FF
:105070001808FF1F780800201C08FF1F7C0800206C
:105080002008FF1F800800202408FF1F840800203C
:105090002808FF1F880800202C08FF1F3808FF1F62
:1050A000C809FF1F00003E440133A34200F01081F5
:1050B00007EE903A03FB03F0F8EEE77A05EE900A6C
:1050C00067EEA67AF8EEE55AE5EE867A77EE877A0D
:1050D00074EEE77AF0EEE77AB4EEE75AF1EE10FA02
:1050E000E2DB01350B2D02D0581CACD002E04FF4AE
:1050F0003E73012281489FED824ADFED824A0360C0
:10510000012540F6E77407EE905AB8EEE75A1923E6
:1051100035EE045A03E00133A34200F0D68007EED7
:10512000903A03FB03F0F8EEE77A05EE900A67EE9B
:10513000A67AF8EEE55AE5EE867A77EE877A74EE8F
:10514000E77AF0EEE77AB4EEE75AF1EE10FAE2DB36
:1051500001350B2D02D0581CD5D001E0902301223F
:1051600069489FED674ADFED694A0360012540F613
:10517000E77407EE905AB8EEE75A192335EE045A51
:1051800003E00133A34200F0978007EE903A03FB5F
:1051900003F0F8EEE77A05EE900A67EEA67AF8EEED
:1051A000E55AE5EE867A77EE877A74EEE77AF0EEE6
:1051B000E77AB4EEE75AF1EE10FAE2DB01350B2D97
:1051C00002D0581CD5D002E04FF47F730122504822
:1051D0009FED4B4ADFED4F4A0360012540F6E7742F
:1051E00007EE905AB8EEE75A192335EE045A02E05A
:1051F0000133A34263D007EE903A03FB03F0F8EECD
:10520000E77A05EE900A67EEA67AF8EEE55AE5EE43
:10521000867A77EE877A74EEE77AF0EEE77AB4EE84
:10522000E75AF1EE10FAE3DB01350B2D02D0581CE2
:10523000D6D002E04FF4FE73012237489FED304A8A
:10524000DFED364A0360012440F6E77007EE904A2E
:10525000B8EEE75A192335EE045A02E001338342CF
:1052600027D007EE903A03FB03F505EE905AF8EECF
:10527000E77AF8EEE55A67EEA67AE5EE867A77EEFB
:10528000877A74EEE77AF0EEE77AB4EEE75AF1EE59
:1052900010FAE3DB01340B2C05D05D1CD6D00B607B
:1052A00022B930BC70474FF4C3630B6030BCFFF7CA
:1052B00081B94FF0FF33EDE74FF0FF337EE74FF05A
:1052C000FF33B1E74FF0FF33ABE64FF0FF333FE77B
:1052D0004FF0FF3305E74FF0FF3353E54FF0FF3357
:1052E000C0E54FF0FF3381E54FF0FF33F2E54FF0BB
:1052F000FF335FE64FF0FF3324E600BFC008FF1F17
:1053000000000000000010431809FF1F00007F4448
:10531000C408FF1F0000FE43C808FF1F0000C3446D
:1053200008B564224FF45C7111201CF01FFB65204E
:105330001AF0BEFA642240F2174111201CF016FB4D
:1053400065201AF0B5FA1120642240F227511CF0B2
:105350000DFB6520BDE808401AF0AABA08B5C822BE
:1053600040F2275111201CF001FBC9201AF0A0FACD
:105370001120DC2240F217411CF0F8FADD20BDE8D4
:1053800008401AF095BA00BF70B594B0FFF73EF828
:10539000394B3A4818603A4A3A490CA813230FF09F
:1053A00013FE0CA80FF0B2FC20B90CA80FF094FC6F
:1053B00014B070BD3449354E08A81CF0BBFB344A0C
:1053C0003449354B12681B68096804A801FB023197
:1053D0000A221CF0F5FB04A908A81CF0B1FC014648
:1053E0002E481CF04BFC04A81CF064FB08A81CF021
:1053F00061FB2A490CA81CF089F80CA81CF0ACF839
:1054000001240A22214668461CF0C6FB694604A80E
:105410001CF0A4FB224904A81CF09AFC0A2256F8AE
:105420002410054608A81CF0DFFB08A928461CF03C
:1054300087FC014619481CF021FC08A81CF03AFB27
:1054400004A81CF037FB68461CF034FB13490CA879
:105450001CF05CF801340CA81CF07EF8B4F5805FF9
:10546000CFD1FFF77BFF0CA80FF042FC0CA80FF088
:1054700033FC14B070BD00BFE4BE0020B5040000D2
:105480000008FF1F78BE0020E0B202005088FF1F16
:10549000DC710020BC09FF1FBCBD00203088FF1F4D
:1054A000E4B20200F8B51248124F00253D602C46C8
:1054B00029462B46064650F823208A4203D956F83F
:1054C0002340012521460133B3F5805FF3D165B94F
:1054D000094B994208D9094C01232370FFF754FF67
:1054E000FDF748FF00232370F8BD3C60F0E700BFE4
:1054F0005088FF1FFC87FF1F8096980074080020CB
:1055000070B54449444894B00FF0D2FD00287CD1D6
:10551000424B434C1B68434D23600CA8424E3D4A0E
:105520003D492E6013230FF04FFD0CA80FF0EEFB4A
:1055300020B90CA80FF0D0FB14B070BD0A220021D6
:1055400068461CF029FB694604A81CF007FB374994
:10555000374E04A81CF0FCFB0A222168054608A867
:105560001CF02EFB08A928461CF0EAFB0146314836
:105570001CF084FB08A81CF09DFA04A81CF09AFA01
:1055800068461CF097FA2B490CA81BF0BFFF0CA82B
:105590001BF0E2FF01240A22214668461CF0FCFAB7
:1055A000694604A81CF0DAFA204904A81CF0D0FBD4
:1055B0000A2256F82410054608A81CF015FB08A975
:1055C00028461CF0BDFB01461A481CF057FB08A8F2
:1055D0001CF070FA04A81CF06DFA68461CF06AFA18
:1055E00014490CA81BF092FF01340CA81BF0B4FF67
:1055F000B4F5805FCFD1FFF7B1FE0CA80FF078FBB8
:105600000CA80FF069FB14B070BD024902480FF0FE
:105610005DFD7DE7D0B2020078BE0020BCBD002059
:105620002009FF1FE4BE0020B5040000E4B2020020
:105630005088FF1F3088FF1F38B5352444F6B02549
:10564000012111201AF01AF92B46013BFDD100214E
:1056500011201AF013F92B46013BFDD1013CEFD18B
:10566000412443F63835012111201AF007F92B4661
:10567000013BFDD1002111201AF000F92B46013B1E
:10568000FDD1013CEFD1352444F6B0250121112094
:105690001AF0F4F82B46013BFDD1002111201AF03D
:1056A000EDF82B46013BFDD1013CEFD138BD00BFE9
:1056B00038B5642443F63835012111201AF0DEF89C
:1056C0002B46013BFDD1002111201AF0D7F82B46C3
:1056D000013BFDD1013CEFD1782444F6B0250121F6
:1056E00011201AF0CBF82B46013BFDD100211120EF
:1056F0001AF0C4F82B46013BFDD1013CEFD138BD77
:10570000F0B55E4B1B78002B27D15D4E5D4A5E4D98
:105710005E4832605E4E2E605E4C5F4F5F4D604B68
:10572000026060493B604FF07C5222602B60322265
:10573000DFF894E15C485D4E5D4F5E4C5E4D0A6063
:105740005E495F4A0360CEF8003005204FF07E537B
:105750003760256008601360F0BD012B23D14D4AEE
:10576000584E166046494C4F4C4E4D4B464D4D4899
:10577000444C554A0C603B604C49444C33604FF0FC
:10578000824719262F6006601360474F494D4B48EA
:105790004B4A4E4E0B6023604D493B600A242E60FD
:1057A00004601160F0BD022B23D1354E494B3649C0
:1057B000384C394A434F3B4D40483360464E276092
:1057C0000E60364C314913600F222A600260DFF808
:1057D000DCE0354F3C4D3748394A404E23600B6082
:1057E0003F4C3B49CEF800303B602E6004601160B6
:1057F000F0BD032B1AD1244B26493A4D3A4F204E87
:105800000F6028481F4A214C1D602449224D244B1B
:1058100032603226066022602B60DFF8ACE022485E
:10582000224E234F234C244D0B6089E7042B24D1B7
:10583000184B134F134A144E2C4914483A60194C14
:1058400019602B4F1549164B0260134D37601748EE
:10585000DFF874E0144F0B6023222260144E154CC5
:105860001649174A2B60CEF80030134D3B60066096
:10587000174B2560072008601360F0BD2C88FF1FC0
:10588000E007FF1F00803B454408FF1FD409FF1FAE
:105890000000A0404808FF1FC009FF1F9408FF1F19
:1058A0000000FA44D808FF1F8409FF1F9808FF1F53
:1058B000008009457408FF1F0050C3473C08FF1FC4
:1058C0003009FF1F6666E63EA409FF1F007C924771
:1058D000A4707D3F0080BB440000104100007A446A
:1058E000005043479A999940CDCC0C3F8FC2F53E6A
:1058F0000000C040F0B43C483C4F3D4E3D4D3E4C56
:105900003E493F4A3F4BD7ED003A96ED004AD5ED70
:10591000004A94ED005AD0ED005A91ED006AD2EDA4
:10592000006A93ED007A384D384C394F394E3A4879
:105930003A493B4A3B4B94ED000AD7ED000A96EDFD
:10594000001A93ED003AD0ED001A91ED002AD2ED45
:10595000002ADFED357A2DED028BF8EEE33A95ED76
:10596000008AB8EEC44AF8EEE44AB8EEC55AF8EE3A
:10597000E55AB8EEC66AF8EEE66AB8EEC77A63EEA4
:10598000883A24EE004A64EEA04A25EE015A65EEFC
:10599000A15A26EE026A66EEA26A27EE037A83EE29
:1059A000A73ABDEC028BC4EE273A84EEA74AC5EEB7
:1059B000274A85EEA75AC6EE275A86EEA76AC7EE93
:1059C000276A85ED003AC4ED003A87ED004AC6ED3E
:1059D000004A80ED005AC1ED005A82ED006AC3ED25
:1059E000006AF0BC704700BF6009FF1F5409FF1F29
:1059F0005809FF1F5C09FF1F7409FF1F6409FF1F7F
:105A00006809FF1F9009FF1F9408FF1FE007FF1F91
:105A1000C009FF1F8409FF1F9808FF1FD409FF1F3B
:105A20007408FF1FA409FF1F0000C8422DE9F047BA
:105A30002DED028B642082B0D84F19F039FF00247D
:105A40003D46204619F0CAF80134042C05F8010B34
:105A5000F7D1DFF854834546204619F0BFF80134EA
:105A6000082C05F8010BF7D1CD4E3546204619F02C
:105A7000B5F801340C2C05F8010BF7D1D7ED007AFD
:105A8000C64BF4EE677AD8ED007AF1EE10FA64BFF7
:105A9000C44A1A60F4EE677A6CBF01250025F1EE66
:105AA00010FAC14B80F1F883D6ED007ABC4BF4EECE
:105AB000677AF1EE10FA80F1F383DFF8F0A2242484
:105AC000D146204619F08AF80134282C09F8010B38
:105AD000F7D19AED008AB54BB4EE488AF1EE10FA90
