:10000000F8FF02209901000035110300ED100300F4
:10001000ED100300ED100300ED100300ED100300E0
:10002000ED100300ED100300ED1003003511030087
:1000300035110300ED100300293503002D350300B1
:10004000351103003511030035110300351103008C
:10005000351103003511030035110300351103007C
:10006000351103003511030035110300351103006C
:10007000351103003511030035110300351103005C
:10008000351103003511030035110300351103004C
:10009000351103003511030035110300351103003C
:1000A000B59F0200C19F0200351103003511030006
:1000B000351103003511030035110300351103001C
:1000C000351103003511030035110300351103000C
:1000D000351103003511030035110300613B0000A9
:1000E0003511030035110300351103002D1F0200E7
:1000F00035110300351103003511030035110300DC
:10010000893703009D370300B1370300C53703006B
:1001100035110300C126030035110300351103001A
:1001200035110300351103003511030035110300AB
:10013000351103003511030035110300351103009B
:100140003511030035110300D123030035110300DD
:10015000351103003511030035110300351103007B
:100160003511030035110300CD9F02003511030046
:10017000351103003511030035110300351103005B
:10018000351103003511030035110300351103004B
:100190003511030035110300584B4CF2205210B5B5
:1001A0001A804DF628121A8000BF00BF30F0C6FF3B
:1001B000534B4FF030621A60524A9A60524ADA60EA
:1001C000524B4FF470021A60514A136813F4807353
:1001D00004D150490B604FF4A85313604E4B1A786A
:1001E000110703D51A7842F008021A704B4B4C499C
:1001F0002A221A704B4A4C4B8B4204D252F8040FFD
:1002000043F8040BF8E7494B494900228B4202D2DC
:1002100043F8042BFAE74749474A002352F82300E2
:1002200041F823000133662BF8D1444B444A802126
:1002300003F8011B9342FBD1424B3E4A1A60424BEA
:100240008A221A70A3F5805324225A70A0221A70B1
:100250009A799207FCD59A79D406FCD43B4A9379D3
:1002600003F00C03082B394BF9D103221A714622F3
:100270005A719A799006FCD5344A9179334B4906E4
:10028000FBD5334A4FF08271116009215160202261
:100290001A709A7902F00C020C2AFAD12D4B2E4AD0
:1002A0001A602E4B2E4A1A6000225A60072243F829
:1002B000042C2C4AC3F80C2D62B631F093FA154B7E
:1002C0001B68DA0705D5284831F078FA274B284A09
:1002D0001A60284B1B785B0609D5244C244B2268F6
:1002E0009A4204D1204831F069FA0023236030F0AB
:1002F0002BFF37F045F834F041F8FEE70E200540BB
:1003000030800440823F04000100002B88ED00E0B3
:1003100010D0034014D0034002D0074000E0074053
:10032000681BFF1F10C90400F806FF1F681BFF1F92
:10033000445102200002FF1F0000000000E400E022
:1003400056E400E008ED00E00050064000400640A2
:100350004480044004800440C010050014E000E024
:10036000BFD4010000002020CABA04641CE003408E
:10037000A5C3945A00F00740FFFFFFFFFFFFFFFFF8
:10038000FFFFFFFFFFFFFFFFFFFFFFFFFFFFFFFF7D
:10039000FFFFFFFFFFFFFFFFFFFFFFFFFFFFFFFF6D
:1003A000FFFFFFFFFFFFFFFFFFFFFFFFFFFFFFFF5D
:1003B000FFFFFFFFFFFFFFFFFFFFFFFFFFFFFFFF4D
:1003C000FFFFFFFFFFFFFFFFFFFFFFFFFFFFFFFF3D
:1003D000FFFFFFFFFFFFFFFFFFFFFFFFFFFFFFFF2D
:1003E000FFFFFFFFFFFFFFFFFFFFFFFFFFFFFFFF1D
:1003F000FFFFFFFFFFFFFFFFFFFFFFFFFFFFFFFF0D
:10040000FFFFFFFFFFFFFFFFFFFFFFFFDEF9FFFF23
:1004100010B5054C237833B9044B13B10448AFF33E
:1004200000800123237010BD681BFF1F0000000027
:100430000CC90400084B10B51BB108490848AFF3BC
:1004400000800848036803B910BD074B002BFBD0A0
:10045000BDE81040184700BF000000006C1BFF1FE4
:100460000CC90400681BFF1F00000000002070473B
:10047000704700BF036D0BB101207047406D003025
:1004800018BF0120704700BF0349044B4FF4804060
:10049000012208601A60704708F00F408C1CFF1F93
:1004A000014B01221A6070477C1CFF1F034A04495C
:1004B000136801200344136008607047C4E90120F9
:1004C0005494012010B50446806D18B136F0A6FF93
:1004D0000023A365236D2BB104F11800BDE8104083
:1004E00026F07ABA636D002BF6D110BDF0B500236B
:1004F00095B01A460546183104A84FF47A74224F75
:100500008DF804308DF80C301293139302940097F9
:1005100026F0B6FA129B002B2BD05C2033F036FF6E
:1005200004461A4B9DF80400029A194923600026DC
:100530009DF80C302073A160226104A9237504F199
:100540001800666026F01AFA6368124AA760013341
:100550004FF47A71A6652E712E732C616360A960C9
:100560002A600D4B009304A826F036FA284615B0F1
:10057000F0BD139B002BD0D1064A2B71AC602B73BE
:100580002B612A60EDE700BF04BC030054BC0300EC
:10059000BCBB030028BC0300E0BB030038B5054C1E
:1005A000A4F5FA552046103C33F016FDAC42F9D1C3
:1005B00038BD00BF0C94012031F0FAB8F8B50D46F3
:1005C000064630F047F8044630F034F8074630F07D
:1005D00021F8A4F2BC739BB27F2B02D8FAB20C2A8A
:1005E00022D9002333802FF0E5FF06462FF0F2FFDB
:1005F00004462FF0FFFFF3B2172B12D8E3B23B2BC8
:100600000FD8C3B23B2B0CD8F302640103F4FF23D1
:1006100004F4FF542343C0F3460003439BB22B80F2
:10062000F8BD00232B80F8BDC0B21F28D9D87F01A8
:1006300007F4FF57384340EA43239BB2D2E700BF99
:10064000036D13B1184624F049BB406D08B122F088
:10065000A3B94FF0FF30704700B5836C83B063B12E
:10066000184601220DF1070124F068FA01280CD187
:100670009DF8070003B05DF804FBC06C28B10122AF
:100680000DF1070122F0B4F8F0E74FF0FF30F1E789
:100690002DE9F043002283B01FFA80F91146154678
:1006A000DFF85880124F134E00E01D4658F82530F1
:1006B0003C681148CDF8049003EBC3035B01B3FB26
:1006C000F4F4C4F59473C2F5947201331BB2013291
:1006D00012B209B200932BB234602EF011FD6B1CE4
:1006E000B3F5D27F29463268DFD103B0BDE8F0838D
:1006F000C4D50120F0EC0120D0D501202028012014
:100700002DE9F043002283B01FFA80F91146154607
:10071000DFF85880124F134E00E01D4658F8253080
:100720003C681148CDF8049003EBC3035B01B3FBB5
:10073000F4F4C4F59473C2F5947201331BB2013220
:1007400012B209B200932BB234602EF0D9FC6B1CAC
:10075000B3F5D27F29463268DFD103B0BDE8F0831C
:1007600060940120F0EC0120D0D50120A0400220AF
:100770002DE9F04F394BDFF8F4A01B68DFF8F0905B
:1007800083B08046184636F05FF841EC100B34F029
:100790003BF80022324B51EC100B36F0CBF836F020
:1007A000A1FB00241FFA88F8CAF80000CB462746B0
:1007B000254613E030601BB2C4F5947201328DE817
:1007C000080139B22BB2274812B22EF099FC6B1CEB
:1007D000B3F5D27F34682F463CD01D4659F82530FA
:1007E000012B22D95BF825001F4E36F02DF841EC85
:1007F000100B34F009F80022194B51EC100B36F0B5
:1008000099F836F06FFB4FF48F72DAF8003002FB84
:1008100000F0B0FBF3F0C0F59473904203F10103D4
:10082000C8D9114E0B233260C6E7C4F5947240F26A
:100830002913013239B2009312B22BB2CDF80480E1
:1008400008482EF05DFC6B1CB3F5D27F4FF000041E
:100850002F46C2D103B0BDE8F08F00BF60940120E5
:1008600000002440D0D50120F0EC012024C6002057
:10087000A0400220DFED137AB4EEE70AF1EE10FAA1
:100880001DDCB5EE400ADFED107AF1EE10FA48BF3C
:10089000B0EE670A0D4A0E4BD2ED007A93ED007A66
:1008A0000C4A0D4BD2ED006A60EE277A20EE077AF3
:1008B000E0EE077A77EEA67AC3ED007A7047B0EEE5
:1008C000670AE7E70000484200000000C409FF1F74
:1008D000849501206CC600200808FF1F9FED3D7A1B
:1008E00038B53D4CF0EE476A002234F812309BB226
:1008F00007EE903AF8EEE77A013277EEA67A3C2AD4
:1009000037EE277AF1D1DFED356A354DC7EE267A1D
:10091000292128460422C5ED007A30F063FB0A2025
:1009200031F060FA95ED006ADFED2A6A002134F8B3
:10093000112034F8113092B207EE902A9BB2B8EE33
:10094000E77A07EE903AF8EEE77A36EE477A76EEF7
:10095000677A01313C29E7EE276AE8D1DFED217A99
:10096000214B224C86EEA77A00221A6017EE100A5D
:1009700035F08CFF41EC100B33F0CEFF51EC100B37
:1009800036F0D0FAD5ED007A194B07EE100AF0EEEA
:10099000006AB0EE086AF0EE675AE7EE265A15488C
:1009A000E7EE067A0422242180ED007AC3ED007A76
:1009B000C4ED005A30F016FB0A2031F013FA012181
:1009C000282030F0E7FA0A2031F00CFA0A4B012215
:1009D0001A7038BD00000000303001200000704265
:1009E000E808FF1F00006C42801CFF1FA871012057
:1009F000F0C50020B408FF1FA4270120F0B5036D47
:100A000083B00C462BB318460DF1060201A923F062
:100A1000F9FED8B1BDF80430BDF8062003B9AAB17B
:100A200002F01F06C3F343155912C2F345177600AF
:100A3000013D01F5EA6103F01F03D21226706571D2
:100A4000A17123716770A27003B0F0BD002003B0E4
:100A5000F0BD406D0028F9D00DF1060201A921F08A
:100A600057FED6E738B5846D0CB1204638BD054633
:100A70004FF4807036F0CAFC0146A86580B1286D3D
:100A80000C7028B14FF4807225F0CCFCAC6DECE713
:100A9000686D40B14FF4807223F0EEFAAC6DE4E77C
:100AA000024CAC65E1E70C46DFE700BF841BFF1F8B
:100AB0008A79A2F150031B0620D4F0B54B79046D5E
:100AC0000D798E784F780978013385B002F26C7217
:100AD000DBB244B103918DE8E0002046042124F00C
:100AE00037FB05B0F0BD406D0028FAD003918DE8CA
:100AF000E000042122F00AFD05B0F0BD002070479F
:100B0000D0B5046D8CB1012B08BF002A01D30020A1
:100B1000D0BD1146204624F003FA0028F7D0204625
:100B200024F07EFB0028F2D0D0BD446D002CEED026
:100B3000204621F049FF0028E9D02046BDE8D040FA
:100B400022F092BD10B504468EB0A0B100240A4632
:100B50000123014668468DF800408DF801408DF86C
:100B6000024023F0C1FF08B90EB010BD684625F061
:100B700029F80EB010BD0C4BD3F888040028F3D030
:100B80000A460123014668468DF831408DF832400F
:100B90008DF8334022F0DAF90028E5D0684622F0DB
:100BA0003DFA0EB010BD00BFA848022030B5044683
:100BB0008FB070B100250A462B46014668468DF875
:100BC00000508DF801508DF8025023F08DFF0FB0CA
:100BD00030BD094BD3F888040028F8D00A462346D4
:100BE000014668468DF831408DF832408DF833402B
:100BF00022F0ACF90FB030BDA8480220F0B5036D6B
:100C000083B00C462BB318460DF1060201A923F060
:100C100009FED8B1BDF80430BDF8062003B9AAB169
:100C200002F01F06C3F343155912C2F345177600AD
:100C3000013D01F5EA6103F01F03D21226706571D0
:100C4000A17123716770A27003B0F0BD002003B0E2
:100C5000F0BD406D0028F9D00DF1060201A921F088
:100C600067FDD6E7036D13B1586900217047436DE6
:100C700013B193E80300704718461946704700BF48
:100C8000036D13B1D86900217047436D13B1186922
:100C90005969704718461946704700BF036D13B174
:100CA000184623F04BBF406D08B121F0A1BD4FF0B5
:100CB000FF307047836C13B1184624F00FB8C06C36
:100CC00008B121F069BE4FF0FF307047036D33B1BA
:100CD0001B7813F0700F14BF012000207047406D87
:100CE00030B190F8313013F0500F14BF01200020C4
:100CF000704700BF036D9BB11A7812F0700F00D1DE
:100D0000704710B504460021184624F009F9606DBB
:100D100028B100220023BDE8104021F055BE10BDCF
:100D2000406D0028ECD090F8313013F0500FE7D030
:100D30000022002321F048BE8A79A2F150031B064D
:100D400020D4F0B54B79046D0D798E784F78097801
:100D5000013385B002F26C72DBB244B103918DE8CD
:100D6000E0002046022124F0F3F905B0F0BD406D0B
:100D70000028FAD003918DE8E000022122F0C6FBA2
:100D800005B0F0BD00207047036963B11A680749D8
:100D900092698A4208D1186D08B124F0D3B9586D10
:100DA00008B122F05FBA704718461047C50D000021
:100DB000836C13B1184624F0C5B9C06C08B122F099
:100DC00051BA7047036D13B1184624F0BBB9406D9A
:100DD00008B122F047BA704703698BB110B41C68A0
:100DE0000D48E468844211D1186D18B15DF8044BC8
:100DF00024F052BA586D28B15DF8044B22F0A4BC1F
:100E00000020704700205DF8044B704718462346C9
:100E10005DF8044B184700BF5D0E0000036973B115
:100E20001A68084952698A4207D1186D08B123F03F
:100E300055BF586D18B121F0AFBD184610474FF09F
:100E4000FF30704741060000836C13B1184624F050
:100E500023BAC06C08B122F077BC7047036D13B1A0
:100E6000184624F019BA406D08B122F06DBC7047E5
:100E700000B5836C83B08DF8071043B1184601228A
:100E80000DF1070124F008FA03B05DF804FBC06C13
:100E90000028F9D001220DF1070122F055FC03B022
:100EA0005DF804FB10B5036982B08DF80710BBB183
:100EB0001968104ACC68944215D1186D30B10122DE
:100EC0000DF1070124F0E8F902B010BD586D0028BB
:100ED000FAD001220DF1070122F036FC02B010BD5C
:100EE000184602B010BD184601220DF10701A047B7
:100EF00002B010BD5D0E0000026D62B1137803F008
:100F0000080303F0FF0003B3D3695069181A48BF00
:100F10006FF000407047416DC1B191F8313003F07E
:100F2000080303F0FF0083B1D1E90423D1E90001F4
:100F3000101A30B463EB010100256FF000448D42BC
:100F400008BF844200D2204630BC70470846704734
:100F5000826C62B1137803F0080303F0FF0003B35F
:100F6000D3695069181A48BF6FF000407047C16CD0
:100F7000C1B191F8313003F0080303F0FF0083B1F1
:100F8000D1E90423D1E90001101A30B463EB010167
:100F900000256FF000448D4208BF844200D22046F5
:100FA00030BC704708467047036923B310B5196811
:100FB000124A8C68944282B014D1186D48B1012253
:100FC0000DF1070123F0BAFD90B19DF8070002B0C2
:100FD00010BD586D0028F8D001220DF1070121F055
:100FE00007FCF1E7184601220DF10701A047EBE7E6
:100FF0004FF0FF30EBE74FF0FF3070479D0C0000E3
:10100000006970B30368184A1B6993420ED1026DE0
:101010006AB1137803F0080303F0FF000BB3D36940
:101020005069181A48BF6FF0004070471847416D6B
:10103000C1B191F8313003F0080303F0FF0083B130
:10104000D1E90423D1E90001101A30B463EB0101A6
:1010500000256FF000448D4208BF844200D2204634
:1010600030BC704708467047F90E0000D0B4039CAE
:1010700016461F4634B1012C1ED0022C0DD0002084
:10108000D0BC7047046DDCB1012B08BF002AF6D23A
:1010900020461146D0BC23F043BF036DB3B1DA69DB
:1010A000B61847F10007012F08BF002EE7D23146DE
:1010B0001846D0BC23F034BF036D8BB15A69EFE7FB
:1010C000406D0028DBD0D0BC21F07EBC406D0028F4
:1010D000D5D0D0E9042392197B41D0BC21F074BC57
:1010E000406D0028CBD0D0E9002392197B41EAE77C
:1010F00038B50446806D0C4B236018B136F08EF97C
:101100000023A365236D04F118054BB1284625F093
:1011100063FC064BA360284625F05EFC204638BDE4
:10112000636D002BF2D1F4E754BC0300E0BB030075
:1011300038B50446806D0E4B236018B136F06EF959
:101140000023A365236D04F118056BB1284625F033
:1011500043FC084BA360284625F03EFC20465C215A
:1011600033F016F9204638BD636D002BEED1F0E761
:1011700054BC0300E0BB030070B505686C68013C1B
:1011800006466C6014B10023336070BD2B68204AA2
:10119000DB6A93422DD1A86D10B136F03FF9AC65F2
:1011A0002B6D63B305F1180025F016FC3468002C94
:1011B000E9D02368174A5B6893421DD1A06D164B96
:1011C000236018B136F02AF90023A365236D04F1DA
:1011D0001805C3B1284625F0FFFB104BA360284635
:1011E00025F0FAFB20465C2133F0D2F8002333606F
:1011F00070BD28469847D9E720469847C3E76B6DEE
:10120000002BCFD1D2E7636D002BE3D1E5E700BF20
:10121000C50400003111000054BC0300E0BB030012
:101220000369054A10B50446026013B11030FFF798
:10123000A3FF204610BD00BF28BC03000369074A76
:1012400010B50446026013B11030FFF795FF204639
:10125000142133F09DF8204610BD00BF28BC0300C8
:10126000214B10B4D3F8DC20136850681978047847
:10127000507A137A044201EA03011BD0937A03F0F7
:10128000030309B143F0040343F008039910013B41
:1012900091720D2B0BD8DFE803F021071B070A150D
:1012A0002121150A071B0721D368013BD3605DF894
:1012B000044B7047937A03F003030029E6D043F010
:1012C0000403E3E7D3685DF8044B023BD360704747
:1012D000D3685DF8044B0233D3607047D3685DF880
:1012E000044B0133D3607047204E0220214B10B4D1
:1012F000D3F8E0201368506819780478507A137A8C
:10130000044201EA03011BD0937A03F0030309B1FD
:1013100043F0040343F008039910013B91720D2B35
:101320000BD8DFE803F021071B070A152121150A56
:10133000071B0721D368013BD3605DF8044B70475E
:10134000937A03F003030029E6D043F00403E3E7B4
:10135000D3685DF8044B023BD3607047D3685DF8F7
:10136000044B0233D3607047D3685DF8044B0133FC
:10137000D3607047204E0220214B10B4D3F8E420F4
:101380001368506819780478507A137A044201EA95
:1013900003011BD0937A03F0030309B143F0040364
:1013A00043F008039910013B91720D2B0BD8DFE835
:1013B00003F021071B070A152121150A071B072126
:1013C000D368013BD3605DF8044B7047937A03F018
:1013D00003030029E6D043F00403E3E7D3685DF894
:1013E000044B023BD3607047D3685DF8044B023373
:1013F000D3607047D3685DF8044B0133D360704706
:10140000204E0220214B10B4D3F8E8201368506816
:1014100019780478507A137A044201EA03011BD048
:10142000937A03F0030309B143F0040343F0080384
:101430009910013B91720D2B0BD8DFE803F02107C7
:101440001B070A152121150A071B0721D368013B39
:10145000D3605DF8044B7047937A03F003030029CF
:10146000E6D043F00403E3E7D3685DF8044B023BA6
:10147000D3607047D3685DF8044B0233D360704784
:10148000D3685DF8044B0133D3607047204E0220CF
:10149000214B10B4D3F8BC20136850681978047835
:1014A000507A137A044201EA03011BD0937A03F0C5
:1014B000030309B143F0040343F008039910013B0F
:1014C00091720D2B0BD8DFE803F021071B070A15DB
:1014D0002121150A071B0721D368013BD3605DF862
:1014E000044B7047937A03F003030029E6D043F0DE
:1014F0000403E3E7D3685DF8044B023BD360704715
:10150000D3685DF8044B0233D3607047D3685DF84D
:10151000044B0133D3607047204E0220214B10B49E
:10152000D3F8C0201368506819780478507A137A79
:10153000044201EA03011BD0937A03F0030309B1CB
:1015400043F0040343F008039910013B91720D2B03
:101550000BD8DFE803F021071B070A152121150A24
:10156000071B0721D368013BD3605DF8044B70472C
:10157000937A03F003030029E6D043F00403E3E782
:10158000D3685DF8044B023BD3607047D3685DF8C5
:10159000044B0233D3607047D3685DF8044B0133CA
:1015A000D3607047204E0220214B10B4D3F8C420E2
:1015B0001368506819780478507A137A044201EA63
:1015C00003011BD0937A03F0030309B143F0040332
:1015D00043F008039910013B91720D2B0BD8DFE803
:1015E00003F021071B070A152121150A071B0721F4
:1015F000D368013BD3605DF8044B7047937A03F0E6
:1016000003030029E6D043F00403E3E7D3685DF861
:10161000044B023BD3607047D3685DF8044B023340
:10162000D3607047D3685DF8044B0133D3607047D3
:10163000204E0220214B10B4D3F8C8201368506804
:1016400019780478507A137A044201EA03011BD016
:10165000937A03F0030309B143F0040343F0080352
:101660009910013B91720D2B0BD8DFE803F0210795
:101670001B070A152121150A071B0721D368013B07
:10168000D3605DF8044B7047937A03F0030300299D
:10169000E6D043F00403E3E7D3685DF8044B023B74
:1016A000D3607047D3685DF8044B0233D360704752
:1016B000D3685DF8044B0133D3607047204E02209D
:1016C000214B10B4D3F8CC201368506819780478F3
:1016D000507A137A044201EA03011BD0937A03F093
:1016E000030309B143F0040343F008039910013BDD
:1016F00091720D2B0BD8DFE803F021071B070A15A9
:101700002121150A071B0721D368013BD3605DF82F
:10171000044B7047937A03F003030029E6D043F0AB
:101720000403E3E7D3685DF8044B023BD3607047E2
:10173000D3685DF8044B0233D3607047D3685DF81B
:10174000044B0133D3607047204E0220214B10B46C
:10175000D3F8D0201368506819780478507A137A37
:10176000044201EA03011BD0937A03F0030309B199
:1017700043F0040343F008039910013B91720D2BD1
:101780000BD8DFE803F021071B070A152121150AF2
:10179000071B0721D368013BD3605DF8044B7047FA
:1017A000937A03F003030029E6D043F00403E3E750
:1017B000D3685DF8044B023BD3607047D3685DF893
:1017C000044B0233D3607047D3685DF8044B013398
:1017D000D3607047204E0220214B10B4D3F8D420A0
:1017E0001368506819780478507A137A044201EA31
:1017F00003011BD0937A03F0030309B143F0040300
:1018000043F008039910013B91720D2B0BD8DFE8D0
:1018100003F021071B070A152121150A071B0721C1
:10182000D368013BD3605DF8044B7047937A03F0B3
:1018300003030029E6D043F00403E3E7D3685DF82F
:10184000044B023BD3607047D3685DF8044B02330E
:10185000D3607047D3685DF8044B0133D3607047A1
:10186000204E0220214B10B4D3F8D82013685068C2
:1018700019780478507A137A044201EA03011BD0E4
:10188000937A03F0030309B143F0040343F0080320
:101890009910013B91720D2B0BD8DFE803F0210763
:1018A0001B070A152121150A071B0721D368013BD5
:1018B000D3605DF8044B7047937A03F0030300296B
:1018C000E6D043F00403E3E7D3685DF8044B023B42
:1018D000D3607047D3685DF8044B0233D360704720
:1018E000D3685DF8044B0133D3607047204E02206B
:1018F000214B10B4DA6F1368506819780478507A65
:10190000137A044201EA03011BD0937A03F0030324
:1019100009B143F0040343F008039910013B9172AD
:101920000D2B0BD8DFE803F021071B070A15212137
:10193000150A071B0721D368013BD3605DF8044BF0
:101940007047937A03F003030029E6D043F00403C1
:10195000E3E7D3685DF8044B023BD3607047D3687C
:101960005DF8044B0233D3607047D3685DF8044BD5
:101970000133D360704700BF204E0220214B10B4CA
:10198000D3F880201368506819780478507A137A55
:10199000044201EA03011BD0937A03F0030309B167
:1019A00043F0040343F008039910013B91720D2B9F
:1019B0000BD8DFE803F021071B070A152121150AC0
:1019C000071B0721D368013BD3605DF8044B7047C8
:1019D000937A03F003030029E6D043F00403E3E71E
:1019E000D3685DF8044B023BD3607047D3685DF861
:1019F000044B0233D3607047D3685DF8044B013366
:101A0000D3607047204E0220214B10B4D3F88420BD
:101A10001368506819780478507A137A044201EAFE
:101A200003011BD0937A03F0030309B143F00403CD
:101A300043F008039910013B91720D2B0BD8DFE89E
:101A400003F021071B070A152121150A071B07218F
:101A5000D368013BD3605DF8044B7047937A03F081
:101A600003030029E6D043F00403E3E7D3685DF8FD
:101A7000044B023BD3607047D3685DF8044B0233DC
:101A8000D3607047D3685DF8044B0133D36070476F
:101A9000204E0220214B10B4D3F8882013685068E0
:101AA00019780478507A137A044201EA03011BD0B2
:101AB000937A03F0030309B143F0040343F00803EE
:101AC0009910013B91720D2B0BD8DFE803F0210731
:101AD0001B070A152121150A071B0721D368013BA3
:101AE000D3605DF8044B7047937A03F00303002939
:101AF000E6D043F00403E3E7D3685DF8044B023B10
:101B0000D3607047D3685DF8044B0233D3607047ED
:101B1000D3685DF8044B0133D3607047204E022038
:101B2000214B10B4D3F88C201368506819780478CE
:101B3000507A137A044201EA03011BD0937A03F02E
:101B4000030309B143F0040343F008039910013B78
:101B500091720D2B0BD8DFE803F021071B070A1544
:101B60002121150A071B0721D368013BD3605DF8CB
:101B7000044B7047937A03F003030029E6D043F047
:101B80000403E3E7D3685DF8044B023BD36070477E
:101B9000D3685DF8044B0233D3607047D3685DF8B7
:101BA000044B0133D3607047204E0220214B10B408
:101BB000D3F890201368506819780478507A137A13
:101BC000044201EA03011BD0937A03F0030309B135
:101BD00043F0040343F008039910013B91720D2B6D
:101BE0000BD8DFE803F021071B070A152121150A8E
:101BF000071B0721D368013BD3605DF8044B704796
:101C0000937A03F003030029E6D043F00403E3E7EB
:101C1000D3685DF8044B023BD3607047D3685DF82E
:101C2000044B0233D3607047D3685DF8044B013333
:101C3000D3607047204E0220214B10B4D3F894207B
:101C40001368506819780478507A137A044201EACC
:101C500003011BD0937A03F0030309B143F004039B
:101C600043F008039910013B91720D2B0BD8DFE86C
:101C700003F021071B070A152121150A071B07215D
:101C8000D368013BD3605DF8044B7047937A03F04F
:101C900003030029E6D043F00403E3E7D3685DF8CB
:101CA000044B023BD3607047D3685DF8044B0233AA
:101CB000D3607047D3685DF8044B0133D36070473D
:101CC000204E0220214B10B4D3F89820136850689E
:101CD00019780478507A137A044201EA03011BD080
:101CE000937A03F0030309B143F0040343F00803BC
:101CF0009910013B91720D2B0BD8DFE803F02107FF
:101D00001B070A152121150A071B0721D368013B70
:101D1000D3605DF8044B7047937A03F00303002906
:101D2000E6D043F00403E3E7D3685DF8044B023BDD
:101D3000D3607047D3685DF8044B0233D3607047BB
:101D4000D3685DF8044B0133D3607047204E022006
:101D5000214B10B4D3F89C2013685068197804788C
:101D6000507A137A044201EA03011BD0937A03F0FC
:101D7000030309B143F0040343F008039910013B46
:101D800091720D2B0BD8DFE803F021071B070A1512
:101D90002121150A071B0721D368013BD3605DF899
:101DA000044B7047937A03F003030029E6D043F015
:101DB0000403E3E7D3685DF8044B023BD36070474C
:101DC000D3685DF8044B0233D3607047D3685DF885
:101DD000044B0133D3607047204E0220214B10B4D6
:101DE000D3F8A0201368506819780478507A137AD1
:101DF000044201EA03011BD0937A03F0030309B103
:101E000043F0040343F008039910013B91720D2B3A
:101E10000BD8DFE803F021071B070A152121150A5B
:101E2000071B0721D368013BD3605DF8044B704763
:101E3000937A03F003030029E6D043F00403E3E7B9
:101E4000D3685DF8044B023BD3607047D3685DF8FC
:101E5000044B0233D3607047D3685DF8044B013301
:101E6000D3607047204E0220214B10B4D3F8A42039
:101E70001368506819780478507A137A044201EA9A
:101E800003011BD0937A03F0030309B143F0040369
:101E900043F008039910013B91720D2B0BD8DFE83A
:101EA00003F021071B070A152121150A071B07212B
:101EB000D368013BD3605DF8044B7047937A03F01D
:101EC00003030029E6D043F00403E3E7D3685DF899
:101ED000044B023BD3607047D3685DF8044B023378
:101EE000D3607047D3685DF8044B0133D36070470B
:101EF000204E0220214B10B4D3F8A820136850685C
:101F000019780478507A137A044201EA03011BD04D
:101F1000937A03F0030309B143F0040343F0080389
:101F20009910013B91720D2B0BD8DFE803F02107CC
:101F30001B070A152121150A071B0721D368013B3E
:101F4000D3605DF8044B7047937A03F003030029D4
:101F5000E6D043F00403E3E7D3685DF8044B023BAB
:101F6000D3607047D3685DF8044B0233D360704789
:101F7000D3685DF8044B0133D3607047204E0220D4
:101F8000214B10B4D3F8AC2013685068197804784A
:101F9000507A137A044201EA03011BD0937A03F0CA
:101FA000030309B143F0040343F008039910013B14
:101FB00091720D2B0BD8DFE803F021071B070A15E0
:101FC0002121150A071B0721D368013BD3605DF867
:101FD000044B7047937A03F003030029E6D043F0E3
:101FE0000403E3E7D3685DF8044B023BD36070471A
:101FF000D3685DF8044B0233D3607047D3685DF853
:10200000044B0133D3607047204E0220214B10B4A3
:10201000D3F8B0201368506819780478507A137A8E
:10202000044201EA03011BD0937A03F0030309B1D0
:1020300043F0040343F008039910013B91720D2B08
:102040000BD8DFE803F021071B070A152121150A29
:10205000071B0721D368013BD3605DF8044B704731
:10206000937A03F003030029E6D043F00403E3E787
:10207000D3685DF8044B023BD3607047D3685DF8CA
:10208000044B0233D3607047D3685DF8044B0133CF
:10209000D3607047204E0220214B10B4D3F8B420F7
:1020A0001368506819780478507A137A044201EA68
:1020B00003011BD0937A03F0030309B143F0040337
:1020C00043F008039910013B91720D2B0BD8DFE808
:1020D00003F021071B070A152121150A071B0721F9
:1020E000D368013BD3605DF8044B7047937A03F0EB
:1020F00003030029E6D043F00403E3E7D3685DF867
:10210000044B023BD3607047D3685DF8044B023345
:10211000D3607047D3685DF8044B0133D3607047D8
:10212000204E0220214B10B4D3F8B8201368506819
:1021300019780478507A137A044201EA03011BD01B
:10214000937A03F0030309B143F0040343F0080357
:102150009910013B91720D2B0BD8DFE803F021079A
:102160001B070A152121150A071B0721D368013B0C
:10217000D3605DF8044B7047937A03F003030029A2
:10218000E6D043F00403E3E7D3685DF8044B023B79
:10219000D3607047D3685DF8044B0233D360704757
:1021A000D3685DF8044B0133D3607047204E0220A2
:1021B000214B10B41A681368506819780478507A63
:1021C000137A044201EA03011BD0937A03F003035C
:1021D00009B143F0040343F008039910013B9172E5
:1021E0000D2B0BD8DFE803F021071B070A1521216F
:1021F000150A071B0721D368013BD3605DF8044B28
:102200007047937A03F003030029E6D043F00403F8
:10221000E3E7D3685DF8044B023BD3607047D368B3
:102220005DF8044B0233D3607047D3685DF8044B0C
:102230000133D360704700BF204E0220214B10B401
:102240005A681368506819780478507A137A0442EF
:1022500001EA03011BD0937A03F0030309B143F0B1
:10226000040343F008039910013B91720D2B0BD826
:10227000DFE803F021071B070A152121150A071BB8
:102280000721D368013BD3605DF8044B7047937A14
:1022900003F003030029E6D043F00403E3E7D36827
:1022A0005DF8044B023BD3607047D3685DF8044B84
:1022B0000233D3607047D3685DF8044B0133D360B9
:1022C000704700BF204E0220214B10B49A6813685B
:1022D000506819780478507A137A044201EA0301AD
:1022E0001BD0937A03F0030309B143F0040343F0D6
:1022F00008039910013B91720D2B0BD8DFE803F016
:1023000021071B070A152121150A071B0721D3687E
:10231000013BD3605DF8044B7047937A03F00303ED
:102320000029E6D043F00403E3E7D3685DF8044BEB
:10233000023BD3607047D3685DF8044B0233D3602F
:102340007047D3685DF8044B0133D360704700BF1A
:10235000204E0220214B10B4DA68136850681978B7
:102360000478507A137A044201EA03011BD0937A6D
:1023700003F0030309B143F0040343F00803991089
:10238000013B91720D2B0BD8DFE803F021071B07EF
:102390000A152121150A071B0721D368013BD360C9
:1023A0005DF8044B7047937A03F003030029E6D0ED
:1023B00043F00403E3E7D3685DF8044B023BD360CA
:1023C0007047D3685DF8044B0233D3607047D3681D
:1023D0005DF8044B0133D360704700BF204E0220EC
:1023E000214B10B41A691368506819780478507A30
:1023F000137A044201EA03011BD0937A03F003032A
:1024000009B143F0040343F008039910013B9172B2
:102410000D2B0BD8DFE803F021071B070A1521213C
:10242000150A071B0721D368013BD3605DF8044BF5
:102430007047937A03F003030029E6D043F00403C6
:10244000E3E7D3685DF8044B023BD3607047D36881
:102450005DF8044B0233D3607047D3685DF8044BDA
:102460000133D360704700BF204E0220214B10B4CF
:102470005A691368506819780478507A137A0442BC
:1024800001EA03011BD0937A03F0030309B143F07F
:10249000040343F008039910013B91720D2B0BD8F4
:1024A000DFE803F021071B070A152121150A071B86
:1024B0000721D368013BD3605DF8044B7047937AE2
:1024C00003F003030029E6D043F00403E3E7D368F5
:1024D0005DF8044B023BD3607047D3685DF8044B52
:1024E0000233D3607047D3685DF8044B0133D36087
:1024F000704700BF204E0220214B10B49A69136828
:10250000506819780478507A137A044201EA03017A
:102510001BD0937A03F0030309B143F0040343F0A3
:1025200008039910013B91720D2B0BD8DFE803F0E3
:1025300021071B070A152121150A071B0721D3684C
:10254000013BD3605DF8044B7047937A03F00303BB
:102550000029E6D043F00403E3E7D3685DF8044BB9
:10256000023BD3607047D3685DF8044B0233D360FD
:102570007047D3685DF8044B0133D360704700BFE8
:10258000204E0220214B10B4DA6913685068197884
:102590000478507A137A044201EA03011BD0937A3B
:1025A00003F0030309B143F0040343F00803991057
:1025B000013B91720D2B0BD8DFE803F021071B07BD
:1025C0000A152121150A071B0721D368013BD36097
:1025D0005DF8044B7047937A03F003030029E6D0BB
:1025E00043F00403E3E7D3685DF8044B023BD36098
:1025F0007047D3685DF8044B0233D3607047D368EB
:102600005DF8044B0133D360704700BF204E0220B9
:10261000214B10B41A6A1368506819780478507AFC
:10262000137A044201EA03011BD0937A03F00303F7
:1026300009B143F0040343F008039910013B917280
:102640000D2B0BD8DFE803F021071B070A1521210A
:10265000150A071B0721D368013BD3605DF8044BC3
:102660007047937A03F003030029E6D043F0040394
:10267000E3E7D3685DF8044B023BD3607047D3684F
:102680005DF8044B0233D3607047D3685DF8044BA8
:102690000133D360704700BF204E0220214B10B49D
:1026A0005A6A1368506819780478507A137A044289
:1026B00001EA03011BD0937A03F0030309B143F04D
:1026C000040343F008039910013B91720D2B0BD8C2
:1026D000DFE803F021071B070A152121150A071B54
:1026E0000721D368013BD3605DF8044B7047937AB0
:1026F00003F003030029E6D043F00403E3E7D368C3
:102700005DF8044B023BD3607047D3685DF8044B1F
:102710000233D3607047D3685DF8044B0133D36054
:10272000704700BF204E0220214B10B49A6A1368F4
:10273000506819780478507A137A044201EA030148
:102740001BD0937A03F0030309B143F0040343F071
:1027500008039910013B91720D2B0BD8DFE803F0B1
:1027600021071B070A152121150A071B0721D3681A
:10277000013BD3605DF8044B7047937A03F0030389
:102780000029E6D043F00403E3E7D3685DF8044B87
:10279000023BD3607047D3685DF8044B0233D360CB
:1027A0007047D3685DF8044B0133D360704700BFB6
:1027B000204E0220214B10B4DA6A13685068197851
:1027C0000478507A137A044201EA03011BD0937A09
:1027D00003F0030309B143F0040343F00803991025
:1027E000013B91720D2B0BD8DFE803F021071B078B
:1027F0000A152121150A071B0721D368013BD36065
:102800005DF8044B7047937A03F003030029E6D088
:1028100043F00403E3E7D3685DF8044B023BD36065
:102820007047D3685DF8044B0233D3607047D368B8
:102830005DF8044B0133D360704700BF204E022087
:10284000214B10B41A6B1368506819780478507AC9
:10285000137A044201EA03011BD0937A03F00303C5
:1028600009B143F0040343F008039910013B91724E
:102870000D2B0BD8DFE803F021071B070A152121D8
:10288000150A071B0721D368013BD3605DF8044B91
:102890007047937A03F003030029E6D043F0040362
:1028A000E3E7D3685DF8044B023BD3607047D3681D
:1028B0005DF8044B0233D3607047D3685DF8044B76
:1028C0000133D360704700BF204E0220214B10B46B
:1028D0005A6B1368506819780478507A137A044256
:1028E00001EA03011BD0937A03F0030309B143F01B
:1028F000040343F008039910013B91720D2B0BD890
:10290000DFE803F021071B070A152121150A071B21
:102910000721D368013BD3605DF8044B7047937A7D
:1029200003F003030029E6D043F00403E3E7D36890
:102930005DF8044B023BD3607047D3685DF8044BED
:102940000233D3607047D3685DF8044B0133D36022
:10295000704700BF204E0220214B10B49A6B1368C1
:10296000506819780478507A137A044201EA030116
:102970001BD0937A03F0030309B143F0040343F03F
:1029800008039910013B91720D2B0BD8DFE803F07F
:1029900021071B070A152121150A071B0721D368E8
:1029A000013BD3605DF8044B7047937A03F0030357
:1029B0000029E6D043F00403E3E7D3685DF8044B55
:1029C000023BD3607047D3685DF8044B0233D36099
:1029D0007047D3685DF8044B0133D360704700BF84
:1029E000204E0220214B10B4DA6B1368506819781E
:1029F0000478507A137A044201EA03011BD0937AD7
:102A000003F0030309B143F0040343F008039910F2
:102A1000013B91720D2B0BD8DFE803F021071B0758
:102A20000A152121150A071B0721D368013BD36032
:102A30005DF8044B7047937A03F003030029E6D056
:102A400043F00403E3E7D3685DF8044B023BD36033
:102A50007047D3685DF8044B0233D3607047D36886
:102A60005DF8044B0133D360704700BF204E022055
:102A7000214B10B41A6C1368506819780478507A96
:102A8000137A044201EA03011BD0937A03F0030393
:102A900009B143F0040343F008039910013B91721C
:102AA0000D2B0BD8DFE803F021071B070A152121A6
:102AB000150A071B0721D368013BD3605DF8044B5F
:102AC0007047937A03F003030029E6D043F0040330
:102AD000E3E7D3685DF8044B023BD3607047D368EB
:102AE0005DF8044B0233D3607047D3685DF8044B44
:102AF0000133D360704700BF204E0220214B10B439
:102B00005A6C1368506819780478507A137A044222
:102B100001EA03011BD0937A03F0030309B143F0E8
:102B2000040343F008039910013B91720D2B0BD85D
:102B3000DFE803F021071B070A152121150A071BEF
:102B40000721D368013BD3605DF8044B7047937A4B
:102B500003F003030029E6D043F00403E3E7D3685E
:102B60005DF8044B023BD3607047D3685DF8044BBB
:102B70000233D3607047D3685DF8044B0133D360F0
:102B8000704700BF204E0220214B10B49A6C13688E
:102B9000506819780478507A137A044201EA0301E4
:102BA0001BD0937A03F0030309B143F0040343F00D
:102BB00008039910013B91720D2B0BD8DFE803F04D
:102BC00021071B070A152121150A071B0721D368B6
:102BD000013BD3605DF8044B7047937A03F0030325
:102BE0000029E6D043F00403E3E7D3685DF8044B23
:102BF000023BD3607047D3685DF8044B0233D36067
:102C00007047D3685DF8044B0133D360704700BF51
:102C1000204E0220214B10B4DA6C136850681978EA
:102C20000478507A137A044201EA03011BD0937AA4
:102C300003F0030309B143F0040343F008039910C0
:102C4000013B91720D2B0BD8DFE803F021071B0726
:102C50000A152121150A071B0721D368013BD36000
:102C60005DF8044B7047937A03F003030029E6D024
:102C700043F00403E3E7D3685DF8044B023BD36001
:102C80007047D3685DF8044B0233D3607047D36854
:102C90005DF8044B0133D360704700BF204E022023
:102CA000214B10B41A6D1368506819780478507A63
:102CB000137A044201EA03011BD0937A03F0030361
:102CC00009B143F0040343F008039910013B9172EA
:102CD0000D2B0BD8DFE803F021071B070A15212174
:102CE000150A071B0721D368013BD3605DF8044B2D
:102CF0007047937A03F003030029E6D043F00403FE
:102D0000E3E7D3685DF8044B023BD3607047D368B8
:102D10005DF8044B0233D3607047D3685DF8044B11
:102D20000133D360704700BF204E0220214B10B406
:102D30005A6D1368506819780478507A137A0442EF
:102D400001EA03011BD0937A03F0030309B143F0B6
:102D5000040343F008039910013B91720D2B0BD82B
:102D6000DFE803F021071B070A152121150A071BBD
:102D70000721D368013BD3605DF8044B7047937A19
:102D800003F003030029E6D043F00403E3E7D3682C
:102D90005DF8044B023BD3607047D3685DF8044B89
:102DA0000233D3607047D3685DF8044B0133D360BE
:102DB000704700BF204E0220214B10B49A6D13685B
:102DC000506819780478507A137A044201EA0301B2
:102DD0001BD0937A03F0030309B143F0040343F0DB
:102DE00008039910013B91720D2B0BD8DFE803F01B
:102DF00021071B070A152121150A071B0721D36884
:102E0000013BD3605DF8044B7047937A03F00303F2
:102E10000029E6D043F00403E3E7D3685DF8044BF0
:102E2000023BD3607047D3685DF8044B0233D36034
:102E30007047D3685DF8044B0133D360704700BF1F
:102E4000204E0220214B10B4DA6D136850681978B7
:102E50000478507A137A044201EA03011BD0937A72
:102E600003F0030309B143F0040343F0080399108E
:102E7000013B91720D2B0BD8DFE803F021071B07F4
:102E80000A152121150A071B0721D368013BD360CE
:102E90005DF8044B7047937A03F003030029E6D0F2
:102EA00043F00403E3E7D3685DF8044B023BD360CF
:102EB0007047D3685DF8044B0233D3607047D36822
:102EC0005DF8044B0133D360704700BF204E0220F1
:102ED000214B10B41A6E1368506819780478507A30
:102EE000137A044201EA03011BD0937A03F003032F
:102EF00009B143F0040343F008039910013B9172B8
:102F00000D2B0BD8DFE803F021071B070A15212141
:102F1000150A071B0721D368013BD3605DF8044BFA
:102F20007047937A03F003030029E6D043F00403CB
:102F3000E3E7D3685DF8044B023BD3607047D36886
:102F40005DF8044B0233D3607047D3685DF8044BDF
:102F50000133D360704700BF204E0220214B10B4D4
:102F60005A6E1368506819780478507A137A0442BC
:102F700001EA03011BD0937A03F0030309B143F084
:102F8000040343F008039910013B91720D2B0BD8F9
:102F9000DFE803F021071B070A152121150A071B8B
:102FA0000721D368013BD3605DF8044B7047937AE7
:102FB00003F003030029E6D043F00403E3E7D368FA
:102FC0005DF8044B023BD3607047D3685DF8044B57
:102FD0000233D3607047D3685DF8044B0133D3608C
:102FE000704700BF204E0220214B10B49A6E136828
:102FF000506819780478507A137A044201EA030180
:103000001BD0937A03F0030309B143F0040343F0A8
:1030100008039910013B91720D2B0BD8DFE803F0E8
:1030200021071B070A152121150A071B0721D36851
:10303000013BD3605DF8044B7047937A03F00303C0
:103040000029E6D043F00403E3E7D3685DF8044BBE
:10305000023BD3607047D3685DF8044B0233D36002
:103060007047D3685DF8044B0133D360704700BFED
:10307000204E0220214B10B4DA6E13685068197884
:103080000478507A137A044201EA03011BD0937A40
:1030900003F0030309B143F0040343F0080399105C
:1030A000013B91720D2B0BD8DFE803F021071B07C2
:1030B0000A152121150A071B0721D368013BD3609C
:1030C0005DF8044B7047937A03F003030029E6D0C0
:1030D00043F00403E3E7D3685DF8044B023BD3609D
:1030E0007047D3685DF8044B0233D3607047D368F0
:1030F0005DF8044B0133D360704700BF204E0220BF
:10310000214B10B41A6F1368506819780478507AFC
:10311000137A044201EA03011BD0937A03F00303FC
:1031200009B143F0040343F008039910013B917285
:103130000D2B0BD8DFE803F021071B070A1521210F
:10314000150A071B0721D368013BD3605DF8044BC8
:103150007047937A03F003030029E6D043F0040399
:10316000E3E7D3685DF8044B023BD3607047D36854
:103170005DF8044B0233D3607047D3685DF8044BAD
:103180000133D360704700BF204E0220214B10B4A2
:103190005A6F1368506819780478507A137A044289
:1031A00001EA03011BD0937A03F0030309B143F052
:1031B000040343F008039910013B91720D2B0BD8C7
:1031C000DFE803F021071B070A152121150A071B59
:1031D0000721D368013BD3605DF8044B7047937AB5
:1031E00003F003030029E6D043F00403E3E7D368C8
:1031F0005DF8044B023BD3607047D3685DF8044B25
:103200000233D3607047D3685DF8044B0133D36059
:10321000704700BF204E0220214B10B49A6F1368F4
:10322000506819780478507A137A044201EA03014D
:103230001BD0937A03F0030309B143F0040343F076
:1032400008039910013B91720D2B0BD8DFE803F0B6
:1032500021071B070A152121150A071B0721D3681F
:10326000013BD3605DF8044B7047937A03F003038E
:103270000029E6D043F00403E3E7D3685DF8044B8C
:10328000023BD3607047D3685DF8044B0233D360D0
:103290007047D3685DF8044B0133D360704700BFBB
:1032A000204E0220214B10B4D3F8EC201368506854
:1032B00019780478507A137A044201EA03011BD08A
:1032C000937A03F0030309B143F0040343F00803C6
:1032D0009910013B91720D2B0BD8DFE803F0210709
:1032E0001B070A152121150A071B0721D368013B7B
:1032F000D3605DF8044B7047937A03F00303002911
:10330000E6D043F00403E3E7D3685DF8044B023BE7
:10331000D3607047D3685DF8044B0233D3607047C5
:10332000D3685DF8044B0133D3607047204E022010
:1033300070B5044608460D4635F0E2F823680246AB
:10334000294620465B68BDE87040184738B50368D9
:103350001B68044698470546204630F079FA284411
:1033600038BD00BF38B5044608460D4635F0C8F8EC
:103370002368024629465B68204698470546204652
:1033800030F066FA284438BD38B5054630F0CAFA40
:103390000446284630F05CFA204438BD38B5C9B23E
:1033A000054630F0C9FA0446284630F051FA204468
:1033B00038BD00BF70B50568044628460E462DF09E
:1033C000CFFD864203D0314628462DF0E3FD20464E
:1033D00070BD00BF38B50469BCB12368114ADB6A0F
:1033E0009342054612D1A06D18B134F017F80023AE
:1033F000A365236D93B104F1180023F0EDFA05F1F4
:103400001000BDE83840FDF7B7BE38BD20469847EC
:1034100005F11000BDE83840FDF7AEBE636D002B2E
:10342000E9D1ECE7C5040000F0B5012B95B00546E5
:103430003AD0022B01F1040140F20223684618BF82
:10344000002323F0C3FB129B002B36D05C2030F00E
:103450009DFF04469DF804601E481F49029A9DF88E
:103460000C30206004AF2673A1600026394604F1B9
:10347000180022612375666023F080FA636817489C
:10348000174AA66501334FF47A712E712E732C61A1
:10349000A0606360A9602A60124B0093384623F055
:1034A0009BFA284615B0F0BD44F202230431684669
:1034B00023F08CFB129B002BC8D1139B002BC5D192
:1034C0004FF47A71064A2B712B732B61A9602A6025
:1034D00004AFE1E754BC0300BCBB030004BC030021
:1034E00028BC0300E0BB030010B4036841681A78ED
:1034F0000C78417A037A0C4202EA03021BD0837AE9
:1035000003F003030AB143F0040343F008039A10E5
:10351000013B82720D2B0BD8DFE803F021071B075C
:103520000A152121150A071B0721C368013BC36047
:103530005DF8044B7047837A03F00303002AE6D05A
:1035400043F00403E3E7C3685DF8044B023BC36048
:103550007047C3685DF8044B0233C3607047C368AB
:103560005DF8044B0133C360704700BF08B50B46DC
:103570003B2800F2C682DFE810F0BB02B202A902CB
:10358000A00297028E0285027C0273026A02610227
:1035900058024F0246023D0234022B022202190257
:1035A00010020702AE01A5019C0193018A0181016D
:1035B00078016F0166015D0154014A014001360145
:1035C0002C01220118010E010401FA00F000E600AE
:1035D000DC00D200C800BE00B400AA00A000960023
:1035E0008C00820078006E0064005A005000460093
:1035F0003C00BD4ABD49C2F8EC303B2004222EF00D
:1036000017F8012008BDB84AB949C2F8E8303A2095
:1036100004222EF00DF8012008BDB34AB549C2F8C6
:10362000E430392004222EF003F8012008BDAE4A10
:10363000B149C2F8E030382004222DF0F9FF012012
:1036400008BDA94AAD49C2F8DC30372004222DF06C
:10365000EFFF012008BDA44AA949C2F8D83036209E
:1036600004222DF0E5FF012008BD9F4AA549C2F8BC
:10367000D430352004222DF0DBFF012008BD9A4A0A
:10368000A149C2F8D030342004222DF0D1FF01200E
:1036900008BD954A9D49C2F8CC30332004222DF054
:1036A000C7FF012008BD904A9949C2F8C8303220AE
:1036B00004222DF0BDFF012008BD8B4A9549C2F8B8
:1036C000C430312004222DF0B3FF012008BD864A0A
:1036D0009149C2F8C030302004222DF0A9FF01200A
:1036E00008BD814A8D49C2F8BC302F2004222DF03C
:1036F0009FFF012008BD7C4A8949C2F8B8302E20BE
:1037000004222DF095FF012008BD774A8549C2F8B3
:10371000B4302D2004222DF08BFF012008BD724A09
:103720008149C2F8B0302C2004222DF081FF012005
:1037300008BD6D4A7D49C2F8AC302B2004222DF023
:1037400077FF012008BD684A7949C2F8A8302A20CD
:1037500004222DF06DFF012008BD634A7549C2F8AF
:10376000A430292004222DF063FF012008BD5E4A09
:103770007149C2F8A030282004222DF059FF012001
:1037800008BD594A6D49C2F89C30272004222DF00B
:103790004FFF012008BD544A6949C2F898302620DD
:1037A00004222DF045FF012008BD4F4A6549C2F8AB
:1037B0009430252004222DF03BFF012008BD4A4A09
:1037C0006149C2F89030242004222DF031FF0120FD
:1037D00008BD454A5D49C2F88C30232004222DF0F3
:1037E00027FF012008BD404A5949C2F888302220ED
:1037F00004222DF01DFF012008BD3B4A5549C2F8A7
:103800008430212004222DF013FF012008BD364A08
:103810005149C2F88030202004222DF009FF0120F8
:1038200008BD314A4D49D3671F2004222DF000FF07
:10383000012008BD2C4A4A4993671E2004222DF01E
:10384000F7FE012008BD284A464953671D2004227F
:103850002DF0EEFE012008BD234A434913671C20CA
:1038600004222DF0E5FE012008BD1F4A3F49D36622
:103870001B2004222DF0DCFE012008BD1A4A3C4921
:1038800093661A2004222DF0D3FE012008BD164AAB
:1038900038495366192004222DF0CAFE012008BDC4
:1038A000114A35491366182004222DF0C1FE01206B
:1038B00008BD0D4A3149D365172004222DF0B8FE0A
:1038C000012008BD084A2E499365162004222DF0D8
:1038D000AFFE012008BD044A2A4953651520042281
:1038E0002DF0A6FE012008BD204E0220A5320000CA
:1038F0000514000079130000ED12000061120000B1
:1039000065180000D91700004D170000C11600000F
:1039100035160000A91500001D15000091140000C7
:1039200025210000992000000D200000811F0000CB
:10393000F51E0000691E0000DD1D0000511D000085
:10394000C51C0000391C0000AD1B0000211B00003D
:10395000951A0000091A00007D190000F1180000F6
:10396000193200008D310000013100007530000077
:10397000E92F00005D2F0000D12E0000452E000031
:10398000B92D00002D2D00005F4A604913651420F9
:1039900004222DF04DFE012008BD5B4A5C49D36432
:1039A000132004222DF044FE012008BD564A594937
:1039B0009364122004222DF03BFE012008BD524AE0
:1039C00055495364112004222DF032FE012008BD18
:1039D0004D4A52491364102004222DF029FE012083
:1039E00008BD494A4E49D3630F2004222DF020FE22
:1039F000012008BD444A4B4993630E2004222DF058
:103A000017FE012008BD404A474953630D20042298
:103A10002DF00EFE012008BD3B4A444913630C20E3
:103A200004222DF005FE012008BD374A4049D3622B
:103A30000B2004222DF0FCFD012008BD324A3D4937
:103A400093620A2004222DF0F3FD012008BD2E4AC6
:103A500039495362092004222DF0EAFD012008BDF6
:103A6000294A36491362082004222DF0E1FD012085
:103A700008BD254A3249D361072004222DF0D8FD24
:103A8000012008BD204A2F499361062004222DF011
:103A9000CFFD012008BD1C4A2B495361052004229B
:103AA0002DF0C6FD012008BD174A284913610422E4
:103AB00010462DF0BDFD012008BD134A2449D360F6
:103AC000032004222DF0B4FD012008BD0E4A214937
:103AD0009360022004222DF0ABFD012008BD0A4AAC
:103AE0001D495360012004222DF0A2FD012008BDD4
:103AF000054A1A491360002004222DF099FD012087
:103B000008BD002008BD00BF204E0220A12C0000EF
:103B1000152C0000892B0000FD2A0000712A0000EE
:103B2000E529000059290000CD28000041280000A7
:103B3000B5270000292700009D260000112600005F
:103B400085250000F92400006D240000E123000019
:103B500055230000C92200003D220000B1210000D1
:103B6000704700BF2DE9F0411D4B1D68854282B0B2
:103B700016468CB219D005B2C4F5907300222946BE
:103B800000921BB20A22174826F0FAFE164B15487F
:103B90001B880093C4F59572A31B1BB212B2294671
:103BA00026F0EEFE02B0BDE8F081C4F595772DB2A7
:103BB0003FB24FF478483B462946CDF800800A22B0
:103BC000084826F0DDFEA31B3A461BB2CDF8008064
:103BD0002946044826F0D4FE02B0BDE8F08100BFBB
:103BE000580AFF1FD0D501203808FF1F2DE9F043E8
:103BF000DFF824813E4ED8F800003E4D83B032F00D
:103C000023FE41EC100B30F0FFFD00223A4B51EC4B
:103C1000100B32F08FFE33F065F92F463060002430
:103C200012E0364B364A53F824303648126803EB1C
:103C3000C3035B01B3FBF2F202602046FFF792FF81
:103C40000134B4F5D27F50D055F82430012B2FD950
:103C500057F8240032F0F8FD41EC100B30F0D4FDA1
:103C6000254B002251EC100B32F064FE33F03AF990
:103C700000EBC00033684001B0FBF3F0224BB0F51D
:103C8000907F8ABF4FF49071186019601F4B1B78AA
:103C900098BF0146002BC4D155F824301948D8F8F4
:103CA000002003EBC3035B01B3FBF2F20260C4E745
:103CB00000230FFA84F9009349464FF490730A22C7
:103CC000134826F05DFE134B1B68A342B8D14FF496
:103CD0007843009349464FF490730A220C4801340C
:103CE00026F04EFEB4F5D27FAED103B0BDE8F0832E
:103CF00024C60020A04002200000594020280120B6
:103D0000C4D5012028300120F0EC01208009FF1FDC
:103D1000D0D50120580AFF1F6094012030B5104B08
:103D20001D68854283B00B460DD00E4A1288009262
:103D30000446C1F595720C4821B212B21BB226F0AE
:103D40001FFE03B030BDC1F595724FF4784000906E
:103D500029B212B21BB2044826F012FE03B030BDE5
:103D6000580AFF1F6409FF1FD0D501202DE9F84331
:103D7000184D194CDFF87080184F194E4FF000099C
:103D800010E056F82930116803EBC3035B01484685
:103D9000B3FBF1F109F101092160FFF7BFFFB9F5AC
:103DA000D27F14D02B780F4A002BEAD158F8293053
:103DB000396803EBC3035B014846B3FBF1F109F13A
:103DC00001092160FFF7AAFFB9F5D27FEAD1BDE86A
:103DD000F88300BF8009FF1FF0EC012060940120F0
:103DE00020280120C4D50120A040022000B50748AA
:103DF00083B0B0F92020B0F91E3000920022019269
:103E0000114627F061F803B05DF804FBD0D501201E
:103E1000F0B50023174F1A4647F823200133B3F5B6
:103E2000007FF9D1144E4FF0000E01F1FF3C002944
:103E30001DDDB0F5805F1ADA03460CEB00050022A9
:103E400002E0B3F5805F06D056F82340AB4222442F
:103E500003F10103F5D10844B0F5805F47F82E2047
:103E600004DA0EF1010EBEF5007FE0D1F0BD0022B4
:103E7000F1E700BFA0400220F4EC0120F0B50023E0
:103E8000174F1A4647F823200133B3F5007FF9D1C5
:103E9000144E4FF0000E01F1FF3C00291DDDB0F57E
:103EA000805F1ADA03460CEB0005002202E0B3F54E
:103EB000805F06D056F82340AB42224403F1010351
:103EC000F5D10844B0F5805F47F82E2004DA0EF1F2
:103ED000010EBEF5007FE0D1F0BD0022F1E700BF8A
:103EE0002028012054E7002000236C48194640F8A0
:103EF00023100133B3F5805F4FF00002F7D1684B18
:103F000068486949F0B4694E694D6A4C6A4F1A7045
:103F10006A4B32702A60226002603A60684E694DD6
:103F2000694C6A486A4F0A601A606A496A4B326093
:103F30002A60226002603A60684E694D694C6A48A6
:103F40006A4F0A601A606A496A4B32602A602260CE
:103F500002603A60684E694D694C6A486A4F0A606F
:103F60001A606A496A4B32602A606A4E6A4D226062
:103F700002606A4C6A483A606A4F0A601A606A498D
:103F80006A4B32602A606A4E22606A4D02603A6073
:103F9000694C6A486A4F0A601A606A496A4B326023
:103FA0002A60226002603A60684E694D694C6A4836
:103FB0006A4F0A601A606A496A4B32602A6022605E
:103FC00002603A60684E694D694C6A486A4F0A60FF
:103FD0001A606A4932603C232B60236003603B60B7
:103FE000674E684D684C6948694F0B60694933609A
:103FF0002B60236003603B60674E684D684C6948E6
:10400000694F0B60694933602B60694E2360694DCD
:1040100003603B60684C6948694F0B6069493360D5
:104020002B60236003603A70674E684D684C6948A6
:10403000694B3270B4270F6068492A702270027091
:104040001A70674F674E684D684C6948694B0A7033
:1040500069493A7032702A70227002701A70674F84
:10406000674E684D684C6948694B0A7069493A70F7
:1040700032702A70684F694E694D22700270694C27
:104080001A706948694B0A7000213A7032702A70C0
:10409000227002701960F0BC704700BFF4EC012080
:1040A000B0D501200C2D022034C60020C55DFF1FB5
:1040B000F81BFF1FD474012038C6002040C6002022
:1040C0003CC6002044C6002048C600204CC6002044
:1040D00054C6002050C600206C9401206894012032
:1040E000E85CFF1F70940120749401207C940120EF
:1040F000789401208494012080940120F45CFF1FB7
:104100008CD5012098D5012094D5012090D501208F
:10411000A4D50120A0D501209CD50120A8D501203F
:10412000A04802202CC60020A4480220881BFF1FA4
:10413000889401208C1BFF1F901BFF1FE45CFF1F56
:104140005895012054950120609501205C9501202F
:1041500064950120689501206C950120B8D5012057
:10416000B4D50120C0D50120BCD50120FC09FF1F1A
:104170006408FF1FBC08FF1FB008FF1FB808FF1F1F
:10418000AC08FF1F9809FF1F6008FF1F5C08FF1F96
:104190005408FF1F5808FF1F9409FF1F5008FF1FF6
:1041A0004C08FF1F0009FF1FF808FF1FFC08FF1F36
:1041B000F408FF1FF008FF1F1009FF1FEC08FF1F86
:1041C000503D0220680AFF1F64940120D87401202A
:1041D000EDE8012068C60020EEE80120C9D50120E5
:1041E000CAD50120201CFF1F29C60020D03C022078
:1041F000E15CFF1F9C40022008C60020C8D50120BA
:10420000E05CFF1FF8E80120112D0220EFE80120FB
:10421000A6270120E83C0220A5270120FC1BFF1F48
:1042200015C6002044C70020D17401207CD801208D
:10423000F0B5644A644C654F654E664D6648674903
:10424000DFF8F8C2DFF8F8E2002323603B60136078
:10425000634C644F644A33602B6003600B60634EB1
:10426000634D6448644923603B601360634C644F52
:10427000644A33602B6003600B60634E634D644897
:10428000644923603B601360634C644F644A33604D
:104290002B6003600B60634E634D64486449236088
:1042A0003B60644C644F1360644A33602B60644E1F
:1042B000644D03600B60644864492360CCF80030AF
:1042C000634CCEF800303B601360624A33602B6071
:1042D00003600B60604F614E614D6248624923602C
:1042E0001360624C624A3B6033602B6003600B607A
:1042F000604F614E614D6248624923601360624CB9
:104300003B603C2232602A6002600A605F4F604E70
:10431000604D614861492260614C3A6032602A60B8
:1043200002600A605F4F604E604D614861492260E3
:10433000614C3A6032602A6002600A605F4F604EF2
:10434000604D614861492260614C3A6032600260B0
:104350002B700A605F4F604E604D6148614A237068
:104360006149624C3B7033702B7003701370604F67
:10437000604E614D6148624A0B7023706149624C26
:104380003B7033702B7003701370604F604E614D43
:104390006148624A0B7023706149624C3B70337014
:1043A0002B7003701370604F604E614D6148624A1C
:1043B0000B7023700021B4243B7033702B700460A9
:1043C0001160F0BD44C600203CC6002040C600205D
:1043D00048C600204CC6002050C6002054C600200D
:1043E000689401206C940120E85CFF1F7094012008
:1043F00074940120789401207C9401208094012001
:1044000084940120F45CFF1F8CD5012098D50120F5
:1044100090D5012094D50120A0D50120A4D501205C
:104420009CD50120A8D50120A0480220A448022044
:104430002CC6002088940120881BFF1F8C1BFF1FA7
:10444000901BFF1FE45CFF1F54950120589501202D
:104450005C950120649501206095012068950120FC
:104460006C95012020C60020B4D50120B8D50120CC
:10447000C0D50120BCD50120FC09FF1F6408FF1F27
:10448000BC08FF1FB808FF1FB008FF1FAC08FF1FC4
:104490009809FF1F6008FF1F5C08FF1F5808FF1FD7
:1044A0005408FF1F9409FF1F5008FF1F4C08FF1FEF
:1044B0000009FF1FFC08FF1FF808FF1FF408FF1F7B
:1044C000F008FF1F503D02201009FF1FEC08FF1FDE
:1044D00064940120D8740120EDE8012068C6002012
:1044E000EEE80120C9D50120CAD50120201CFF1FFC
:1044F00029C60020D03C0220E15CFF1F9C40022026
:1045000008C60020C8D50120E05CFF1FF8E80120A4
:10451000112D0220EFE80120A6270120E83C02200F
:10452000A5270120FC1BFF1F15C6002044C7002043
:10453000D1740120680AFF1F7CD8012034C60020F6
:1045400038C60020544A554BD2ED007AD3ED006AAC
:10455000534B27EEA76A66EEA63AD3ED004A76EEF5
:10456000632A64EEA40A77EEE65A22EEE47A23EE9A
:10457000E74AA0EEA57A0022A6EE864A37EE047A34
:10458000B5EE407AF1EE10FA79D04649464A474BEB
:10459000D2ED001A93ED001A91ED002A9FED440A26
:1045A00025EE825A71EEC15AF1EE644A66EEA16AB6
:1045B00067EE817AA4EEA55A36EEE73A33EE055A55
:1045C00085EE073AB0EEC35AB4EE405AF1EE10FA57
:1045D00048DCB4EE433AF1EE10FA47D6354B83EDA2
:1045E000003A26EE016A60EEA55AA3EEE16AE2EE19
:1045F000C25ADFED2F3A75EE865A85EE875AF0EEF5
:10460000C55AF4EE635AF1EE10FA03DD15EE103AD6
:10461000002B2FDAB4EE455AF1EE10FA2AD6264BCB
:1046200083ED005A77EEE67ADFED215A67EEA07A45
:10463000E4EE867AE4EE027AC7EE876AF0EEE67A76
:10464000F4EE657AF1EE10FA03DD16EE903A002BE7
:104650001EDAF4EE666AF1EE10FA19D6174BC3EDC6
:10466000006A704713EE103A002BB2DB114B0022A8
:104670001A60B6E7104B4FF07E521A60D2E70D4831
:104680000D490E4B02604FF07E5008601A60704773
:104690000A4B00221A607047E809FF1FEC09FF1F50
:1046A000E409FF1F080AFF1F1808FF1F1C08FF1F4F
:1046B000FFFF7F7F74950120500AFF1FE8EC012067
:1046C000C64B1B78002B00F0A78007EE900AC44B66
:1046D000F8EEE76AD3ED007AF4EEE76AF1EE10FA4D
:1046E00073D4F4EE676AF1EE10FA00F0E880F4EEAD
:1046F000E76AF1EE10FA00F39F80BA4B93ED006A7F
:10470000F4EEC66AF1EE10FA0BDDB74AB74B92ED44
:10471000007AD3ED005AB4EEE57AF1EE10FA00F328
:104720005181B34B93ED007AF4EEE76AF1EE10FAA3
:1047300000F3DD80F4EE476AF1EE10FA52D0F4EEA9
:10474000C76AF1EE10FA40F3EE80A74AA94BD2ED0A
:10475000007AD3ED005AF4EEE57AF1EE10FA40F368
:104760000781A54BD3ED005AF4EEE57AF1EE10FA8D
:10477000F4EEC66A40F12D81F1EE10FA40F2268186
:1047800000F3EC809D4BD3ED007AF4EEC76AF1EEB6
:1047900010FA00F3F580F4EE676AF1EE10FA21D01A
:1047A000F4EEE76AF1EE10FA0CDD8F4A924B92EDCF
:1047B000007AD3ED007AB4EEE77AF1EE10FA00F366
:1047C00005810FD407EE900A23E0874A874B92EDCC
:1047D000006A93ED007AB4EEC76AF1EE10FA61D484
:1047E0007FF77FAF864A874B92ED007A93ED006AA0
:1047F000854B66EE877A00FB00F007EE100AB8EEF4
:10480000C77AD3ED006AE7EE067A77EEA67AFDEE78
:10481000E77A17EE900A704707EE900A784A794BCC
:1048200092ED007A93ED006A774BF8EEE77A00FBA1
:1048300000F067EE877AE0E76B4A6C4B92ED007A06
:10484000D3ED005AB4EEE57AF1EE10FA43DD694B90
:10485000D3ED005A634BB4EEE57A93ED006AF1EEC6
:1048600010FAF4EEC66A00F1A780F1EE10FA3BDD13
:10487000B4EEE57AF1EE10FA7FF553AF5C4B93EDB1
:10488000007AF4EEC76AF1EE10FA7FF54DAF5F4A99
:104890005F4BD3ED007A92ED007AA6EEA77AFDEE9B
:1048A000C77AB6E75B4A5C4BD2ED007A93ED007AAB
:1048B000E6EE877AFDEEE77A17EE900A7047504AE7
:1048C000504BD2ED007A93ED006A4F4B00FB00F0A5
:1048D00066EEA77A91E7434B93ED006AF4EEC66A61
:1048E000F1EE10FA3FF717AF414B93ED007AF4EE7B
:1048F000C76AF1EE10FA7FF51DAF3B4A3B4BD2ED94
:10490000007AD3ED005AF4EEE57AF1EE10FA3FF5B5
:1049100069AF384BD3ED005AF4EEE57AF1EE10FAB8
:104920007FF708AF5EE7F4EEC66AF1EE10FA7FF7A4
:1049300029AF2D4A2F4BD2ED007AD3ED005AF4EE79
:10494000E57AF1EE10FA7FF71DAF2B4BD3ED005A4D
:10495000F4EEE57AF1EE10FA7FF514AF274BD3EDC4
:10496000007AF4EEE76AF1EE10FA7FF50EAF8EE70B
:10497000F4EEC66AF1EE10FAE1DC204BD3ED007ADA
:10498000F4EEE76AF1EE10FA7FF505AF164A194B1F
:1049900092ED007A93ED006AB4EEC67AF1EE10FA69
:1049A0003FF520AF144B93ED006AB4EEC67AF1EEFA
:1049B00010FA7FF7F0AE15E7F1EE10FA06D93FF7DF
:1049C0005DAF91E70B4BD3ED005A51E7114A124B03
:1049D0005FE7F1EE10FABBDCD4E600BF14C600209E
:1049E000E409FF1FF009FF1F2008FF1F080AFF1F2F
:1049F000E809FF1F1808FF1F1C08FF1FEC09FF1F15
:104A0000500AFF1F74950120E8EC01204CE70020BC
:104A10000408FF1F48E70020BC09FF1F664A674BD8
:104A2000D2ED007A93ED007AF4EEC77AF1EE10FA47
:104A300000F1A480624BD3ED006AF4EEE67AF1EE69
:104A400010FA40DCF4EEC77A5E4BF1EE10FA93ED0B
:104A5000006A55DDF4EEC67AF1EE10FA50D55A49E7
:104A60005A4A5B4BD1ED006AD2ED005A93ED004AF1
:104A700058485949594A5A4B36EEE55A77EEC72AF3
:104A800036EE673A74EE663AC2EE854A83EE235AF2
:104A900076EEA55A37EE877A76EE846A77EE867AD6
:104AA000A4EEE57AE5EE667AB6EE006A27EE067ABF
:104AB00067EE867AC0ED004A81ED007AC2ED007A99
:104AC00083ED005A7047404A464B92ED007A93EDD1
:104AD000006A404A404B37EEE65A77EE465A37EEC8
:104AE000067A85EE256A77EEA67AF6EE006AE6EE9D
:104AF000477A82ED006A67EEA67AC3ED007A7047C6
:104B0000F4EEC67AF1EE10FA37DDF4EEE67AF1EE65
:104B100010FA32D52C492E4A324B91ED007AD2ED63
:104B2000005A93ED004A2B482B492C4A2C4B37EE68
:104B3000655A77EEC62A74EE473A36EEE73AC2EE89
:104B4000854A83EE235A77EE255A37EE866A37EE8A
:104B5000047A77EEA67AA4EEE56AE5EE477AB6EE39
:104B6000007A26EE076A67EE877AC0ED004A81ED8B
:104B7000006AC2ED007A83ED005A7047134A124B67
:104B8000D2ED006A93ED006A124A134B37EE675A72
:104B900076EEC65A76EE866A85EE256A77EE877AD5
:104BA000B6EE007AE6EE667A82ED006A67EE877A04
:104BB000C3ED007A704700BF2008FF1F080AFF1FDF
:104BC0001C08FF1F1808FF1FF009FF1FE409FF1F43
:104BD000E809FF1FBC09FF1F48E700204CE7002041
:104BE0000408FF1FEC09FF1F30B583B001AD04249A
:104BF00020462CF0B5F90134082C05F8010BF7D14B
:104C0000124A134B92ED007A9DED016AD3ED006AD2
:104C1000104A114B92ED005AD3ED005A66EE077A16
:104C200026EE267AF7EE006AE6EE077A77EE857AC8
:104C300077EEE57AF0EEE77AF4EEE67AF1EE10FA46
:104C400094BF01204FF0FF3003B030BD500AFF1F6A
:104C500074950120E8EC01201808FF1F70B50128A9
:104C600082B00E46154600F0C6800228044671D078
:104C700008B102B070BD4FF48C738DE818001C228F
:104C80004FF4AF730A21834826F01EF90A22114619
:104C90002346804829F080FD0A22102311468DE822
:104CA00018007C484FF4AF7326F00EF90A22114623
:104CB0002346784829F070FD77497648FEF738FB9F
:104CC0002946744829F0D4FD314672482EF09AFDE9
:104CD0004FF6FF716F4829F0CBFD23462A220A21A7
:104CE0006C4829F059FD6D496A48FEF721FB3C22CA
:104CF00023460A21674829F04FFD69496548FEF7B8
:104D000017FB2946634829F0B3FD664B186831F05C
:104D1000BDFD41EC100B02215E482EF00DFE4FF65A
:104D2000FF715C4829F0A4FD23465C220A21594802
:104D300029F032FD5C495748FEF7FAFA23466E2205
:104D40000A21544829F028FD58495248FEF7F0FA44
:104D500002B070BD00244FF48C738DE818001C2243
:104D60004FF4AF730A214B4826F0AEF80A221146E1
:104D70002346484829F010FD0A22102311468DE8E9
:104D8000180044484FF4AF7326F09EF80A221146EB
:104D90002346404829F000FD3F493E48FEF7C8FA47
:104DA00029463C4829F064FD31463A482EF02AFD58
:104DB0004FF6FF71374829F05BFD23462A220A216E
:104DC000344829F0E9FC2946324829F051FD384998
:104DD0003048FEF7ADFA4FF6FF712E4829F048FD36
:104DE0000A2123463C222B4829F0D6FC3149294888
:104DF000FEF79EFA98E700244FF48C738DE81800B4
:104E00001C224FF4AF730A21224826F05DF80A22D3
:104E1000114623461F4829F0BFFC0A2210231146E1
:104E20008DE818001B484FF4AF7326F04DF80A22A6
:104E300011462346174829F0AFFC17491548FEF7DD
:104E400077FA2946134829F013FD314611482EF010
:104E5000D9FC4FF6FF710F4829F00AFD23462A229C
:104E60000A210C4829F098FC29460A4829F000FD3F
:104E700011490848FEF75CFA4FF6FF71054829F022
:104E8000F7FC0A2123463C22024829F085FC0B4905
:104E9000ADE700BFD0D501207C7004008C70040009
:104EA000A4700400780AFF1FB4700400D0700400DE
:104EB0000871040024710400E4700400FC70040014
:104EC00038B51A4C237C012B2BD972B6174DE368E9
:104ED00062B61749174A08681360984220D0002B21
:104EE000154815DB0068B3EB800F05DD0023136068
:104EF00072B6E36062B61368104A0B60032BCCBF36
:104F0000981000201060BDE8384032202CF06ABFB5
:104F100003689B00136072B6EB6062B61368E1E74A
:104F200038BD72B62046FEF7DFFACFE71C940120A9
:104F3000E408FF1FCC3C022018C60020403D0220A0
:104F40002DE9F04785B28CB284B02E4E04F12103D6
:104F500005F114024FF4784E07B212B218B2A5F15F
:104F60001403CDF80CE0019202900AB20090394689
:104F700030461BB2A5F1020927F004FD4FF6FF7879
:104F80000FFA89F904F109020E23494630468DE8EB
:104F9000080112B2052325F097FF04F1FF3A05231B
:104FA000494604F11A02A5F11509223424B230460B
:104FB00000930FFA8AFA0FFA89F9CDF8048012B239
:104FC000153525F081FF2DB252464B463946304605
:104FD0008DE810012AF094F8524639462B463046A7
:104FE0000094CDF804802AF08BF800944B462246BA
:104FF0002946CDF8048030462AF082F804B0BDE896
:10500000F08700BFD0D501202DE9F0438DB2264EA8
:1050100005F1020885B04CF218690FFA88F80523EB
:1050200084B242468DE808020F46042301B230469E
:1050300025F04AFFA31D05F108001BB23FB200B2E4
:10504000EA1CA11C009701930290CDF80C90304609
:1050500012B209B204F1080727F094FC3FB24FF0F6
:10506000000E6A1C0723123406358DE808403946C5
:10507000304624B22DB212B20D2325F025FF23466F
:105080004246394630468DE820022AF039F8CDF8FC
:10509000008023462A463946CDF8049030462AF04F
:1050A0002FF805B0BDE8F083D0D501202DE9F04FF1
:1050B0008DB2354E05F1020A85B04CF218670FFA31
:1050C0008AFA052384B28846524601B28DE88800E8
:1050D0003046042325F0F8FEA31D05F1080205F172
:1050E000030E0FFA88F01BB212B2A11C00900193BC
:1050F000029230460FFA8EF2039709B204F1080BC0
:1051000027F040FC0FFA8BFB4FF0000E6A1C0723C0
:1051100004F10D0805F104098DE808400FFA88F83C
:105120000FFA89F95946304612B20D23063525F09B
:10513000CBFE2DB252465946434630460197CDF834
:105140000090123429F0DCFF24B2594643462A4627
:105150003046CDF80090019729F0D2FF5246234601
:1051600041463046CDF80090019729F0C9FFCDF8AF
:10517000009023462A4641460197304629F0C0FF59
:1051800005B0BDE8F08F00BFD0D501202DE9F04F6C
:105190008DB2364E05F1020985B00FFA89F94CF24D
:1051A0001868052384B28DE808014A460F46042397
:1051B00001B2304625F088FEA31D05F108001BB2A0
:1051C0003FB200B2EA1CA11C0097CDF80C800193FD
:1051D000029012B2304609B227F0D4FB04F1080B5A
:1051E000002707230FFA8BFB8DE888006A1C04F167
:1051F0000D0705F104083FB20FFA88F840F2FF7A74
:105200005946304612B20D23063525F05DFE2DB20B
:105210004A4659463B463046CDF80080CDF804A0BA
:10522000123429F06DFF24B259463B462A463046D7
:10523000CDF80080CDF804A029F062FF4A4623464D
:1052400039463046CDF80080CDF804A029F058FF4B
:10525000CDF8008023462A463946CDF804A03046D2
:1052600029F04EFF05B0BDE8F08F00BFD0D501207A
:105270002DE9F04F504B1B7883B0002B48D1002A0A
:1052800000F08F80002A40DD8FB285B207F10A0B53
:1052900096B20FFA80FA0CB20FFA8BFB07F10309F2
:1052A00005F105080FFA88F822460FFA89F95346E6
:1052B000514642480196CDF800B0073729F020FF4B
:1052C0003FB22246434651463C480196CDF80090F5
:1052D0006C1F29F015FF24B25A4651464346374801
:1052E0000097019629F00CFF23463A464146334881
:1052F000CDF80090019629F003FF009723464A4617
:10530000414601962D4829F0FBFE03B0BDE8F08F21
:10531000002AB7D18EB206F10A0A0CB20FFA8AFA45
:105320000FFA80F940F2FF7885B26F1D06F1030B8A
:105330003FB20FFA8BFB22464B464946CDF800A000
:10534000CDF804801D48073629F0DAFE36B2224631
:105350003B464946CDF80480CDF800B01748053DDE
:1053600029F0CEFE2DB2524649463B468DE840011B
:10537000124829F0C5FE2B4632463946CDF800B01A
:10538000CDF804800D4829F0BBFE00962B465A4606
:105390003946CDF80480094829F0B2FE03B0BDE8D3
:1053A000F08F8EB206F10A0A0CB20FFA8AFA0FFADF
:1053B00080F947F6EF38B7E7D2740120D0D5012045
:1053C0002DE9F04F3A4B85B21B7805F10A0785B0FD
:1053D0000A4604B23FB20FFA81FA002B64D14FF4AF
:1053E000404692B23B4621460292CDF800A052467A
:1053F0000196304829F084FE029B019603F10A08C9
:105400000FFA88F83B4642462146CDF800802948ED
:1054100029F076FE0299019601F105090FFA89F942
:10542000EB1C05F1010B04351BB2524621460FFA65
:105430008BFB2DB2CDF800901E48039329F060FE3F
:105440002B4659465246CDF800900196194829F04E
:1054500057FE0399CDF8008023464A460196154829
:1054600029F04EFE5B464A462946CDF8008001965B
:10547000104829F045FE029C0196A01C00B252463D
:105480003B46394600900B4829F03AFE04F10803E8
:105490001BB28DE8480042463B463946054829F094
:1054A0002FFE05B0BDE8F08F40F2FF7699E700BF10
:1054B000A4270120D0D501202DE9F04F85B28CB270
:1054C00083B0DFF860806E1DA71C0A3424B240F25E
:1054D000FF7936B23FB205F1080382468B463A4661
:1054E0003146404600941BB2CDF8049029F008FEE6
:1054F00005F10A03A91D0FFA8BF240468DE8100250
:105500001BB209B229F0FCFD00943A463146CDF8B1
:1055100004900FFA8AF3404629F0F2FD03B0BDE88B
:10552000F08F00BFD0D501202DE9F0478DB282B0B9
:10553000374E05F1040905F1110197B20FFA89F907
:1055400003B209B284B24A46009130461946019727
:1055500029F0D6FD631C05F110001BB200B21946FC
:105560004A4600900197304629F0CAFD05F10E0821
:1055700004F108030FFA88F81BB219464A46CDF821
:1055800000803046019729F0BBFD04F109031BB2EE
:10559000CDF800804A4619463046019729F0B0FD03
:1055A00004F1020904F1040A05F10D020FFA89F968
:1055B0000FFA8AFA12B249465346009230460197D2
:1055C00029F09EFD53464946CDF8008042463046BC
:1055D000019729F095FD04F1050805F10C02073447
:1055E0000FFA88F824B212B22346414600923046A0
:1055F000019729F085FD05F10B0212B223464146C1
:105600008DE88400304629F07BFD02B0BDE8F087CC
:10561000D0D5012010B52AF0FDFF092827DC324C37
:1056200030303023607023702BF004F8092831DC0F
:1056300030303023E070A3702AF0BCFF09283BDC37
:1056400030303023607123712AF0C4FF092845DD12
:10565000264BC21783FB0013C2EBA30303EB8302A9
:10566000A0EB420030303033E071A37110BD1F4B0E
:105670001D4C83FB0032C317C3EBA20303EB830271
:10568000A0EB420030303033607023702AF0D2FF3C
:105690000928CDDD154BC21783FB0013C2EBA30312
:1056A00003EB8302A0EB420030303033E070A37094
:1056B0002AF080FF0928C3DD0C4BC21783FB0013BF
:1056C000C2EBA30303EB8302A0EB42003030303384
:1056D000607123712AF07EFF0928B9DC3030302355
:1056E000E071A37110BD00BFC408FF1F6766666646
:1056F00008B5C8224FF4DC7111202EF0C9FBDC2064
:105700002CF070FBC8224FF4DC7111202EF0C0FB8E
:10571000DC202CF067FB1120C8224FF4DC712EF046
:10572000B7FBDC20BDE808402CF05CBBF0B593B0C3
:105730000DA80023714A7249FDF776FE11980028E2
:105740002AD003686F4A1B6B934240F0CD80036DF3
:10575000002B00F0C28001A86B496C4C6C4D2EF000
:105760007BFC119B5BB11A681169A14240F08980F2
:10577000186D002800F0978001780E070ED40DA850
:10578000FDF728FE01A82EF027FC119A614B0D931E
:1057900012B111A8FBF7F0FC13B0F0BDC169466966
:1057A000891B21D408460028E9D096685A4A9642B7
:1057B00074D1186DE0B9586D48B1012209A91DF0E6
:1057C00017F820B9FFF794FFFEF78EFBD7E79DF897
:1057D00024103929F6D80A290FD001A82EF03EFD51
:1057E000039B202BBDD9EDE796684B4A964255D1D5
:1057F000012209A91FF0A2F9E3E72C2101A82EF04C
:1058000083FD431C0646DDD0334605A8002201A9CE
:105810002EF08AFD721C039B3D4E01A909A82EF0B3
:1058200083FD05A82EF0A4FD074609A82EF0A0FDD3
:10583000354945F8270001A82EF0CEFC09A82EF026
:10584000CBFB05A82EF0C8FB40F6FF739F4288D122
:10585000324B3068186000221346326056F823102D
:105860000133B3F5805F0A44F8D1002841D12C4BB5
:1058700018604FF47A702CF0B5FA0DA8FDF7AAFD68
:105880007DE71846884700283FF479AF119B002B2D
:1058900098D01A689668204A96428AD01846012203
:1058A00009A9B0478DE75E6D002E3FF468AF96F80A
:1058B000311009077FF563AFD6E90401D6E9006727
:1058C000801B61EB070100276FF000468F4208BF85
:1058D0008642BFF468AF304665E7436D002B7FF426
:1058E0003AAF0C4B0D9354E7984700283FF44DAF67
:1058F00031E70B4BB2FBF0F21A60BAE7C408FF1FA6
:10590000A848022075040000F09F0400F90E000072
:10591000F4EC012028BC03009D0C0000F81BFF1FC5
:10592000809501202DE9704F92B00DA800236A4A9E
:105930006A49FDF779FD1198002832D00368684A5A
:105940001B6B934240F0C280036D002B00F0B780C8
:1059500001A86449DFF8A081634C644D2EF07CFB04
:10596000119951B108680369A3427CD10E6D002ED4
:1059700000F0898033781B0716D40DA8FDF72AFDA7
:105980005B4BD8F800201A6001A80023C8F800304B
:105990002EF022FB119A574B0D9312B111A8FBF771
:1059A000EBFB12B0BDE8708FF36972699A1A1DD4CF
:1059B000002AE2D08368AB4260D1086DD0B9486D4F
:1059C00038B1012209A91CF013FF10B9FFF790FEAE
:1059D000D3E79DF824103929F8D80A290FD001A857
:1059E0002EF03CFC039B202BBAD9EFE78368AB4237
:1059F00044D13046012209A91FF0A0F8E5E72C2187
:105A000001A82EF081FCB0F1FF3F8146DED04B466D
:105A100005A8002201A92EF087FC09F10102039BD1
:105A200001A909A82EF080FC05A82EF0A1FC814652
:105A300009A82EF09DFC2B4948F8290001A82EF05A
:105A4000CBFB09A82EF0C8FA05A82EF0C5FA40F63F
:105A5000FF73994584D14FF47A702CF0C3F90DA8E7
:105A6000FDF7B8FC89E708469847002885D01199CA
:105A70000029ABD008688368AB429ED0084601225B
:105A800009A99847A1E74B6D002B3FF476AF93F837
:105A9000312012077FF571AFD3E904ABD3E90023BE
:105AA000BAEB02026BEB03034FF0000A6FF0004900
:105AB0009A4508BF9145BFF47BAF4A4678E7436DEE
:105AC000002B7FF445AF0B4B0D9367E798470028F9
:105AD0003FF460AF3CE700BF34710400A8480220E7
