:10000000F8FF0220990100004D3C0100053C010071
:10001000053C0100053C0100053C0100053C0100D8
:10002000053C0100053C0100053C01004D3C010080
:100030004D3C0100053C0100F5600100F960010044
:100040004D3C01004D3C01004D3C01004D3C010088
:100050004D3C01004D3C01004D3C01004D3C010078
:100060004D3C01004D3C01004D3C01004D3C010068
:100070004D3C01004D3C01004D3C01004D3C010058
:100080004D3C01004D3C01004D3C01004D3C010048
:100090004D3C01004D3C01004D3C01004D3C010038
:1000A000A9340100B53401004D3C01004D3C010074
:1000B0004D3C01004D3C01004D3C01004D3C010018
:1000C0004D3C01004D3C01004D3C01004D3C010008
:1000D0004D3C01004D3C01004D3C01004D3C0100F8
:1000E0004D3C01004D3C01004D3C0100BD9F000016
:1000F0004D3C01004D3C01004D3C01004D3C0100D8
:1001000045630100596301006D63010081630100D3
:100110004D3C01003D5001004D3C01004D3C0100B3
:100120004D3C01004D3C01004D3C01004D3C0100A7
:100130004D3C01004D3C01004D3C01004D3C010097
:100140004D3C01004D3C0100B14D01004D3C010012
:100150004D3C01004D3C01004D3C01004D3C010077
:100160004D3C01004D3C0100C13401004D3C0100FB
:100170004D3C01004D3C01004D3C01004D3C010057
:100180004D3C01004D3C01004D3C01004D3C010047
:100190004D3C01004D3C0100584B4CF2205210B533
:1001A0001A804DF628121A8000BF00BF13F052FDCE
:1001B000534B4FF030621A60524A9A60524ADA60EA
:1001C000524B4FF470021A60514A136813F4807353
:1001D00004D150490B604FF4A85313604E4B1A786A
:1001E000110703D51A7842F008021A704B4B4C499C
:1001F0002A221A704B4A4C4B8B4204D252F8040FFD
:1002000043F8040BF8E7494B494900228B4202D2DC
:1002100043F8042BFAE74749474A002352F82300E2
:1002200041F823000133662BF8D1444B444A802126
:1002300003F8011B9342FBD1424B3E4A1A60424BEA
:100240008A221A70A3F5805324225A70A0221A70B1
:100250009A799207FCD59A79D406FCD43B4A9379D3
:1002600003F00C03082B394BF9D103221A714622F3
:100270005A719A799006FCD5344A9179334B4906E4
:10028000FBD5334A4FF08271116009215160202261
:100290001A709A7902F00C020C2AFAD12D4B2E4AD0
:1002A0001A602E4B2E4A1A6000225A60072243F829
:1002B000042C2C4AC3F80C2D62B614F0A1FA154B8D
:1002C0001B68DA0705D5284813F0FAFF274B284AA0
:1002D0001A60284B1B785B0609D5244C244B2268F6
:1002E0009A4204D1204813F0EBFF0023236019F059
:1002F0000BFB13F0B5FC16F0A7FCFEE70E20054043
:1003000030800440823F04000100002B88ED00E0B3
:1003100010D0034014D0034002D0074000E0074053
:10032000B816FF1F18780400F806FF1FB816FF1F45
:10033000E40E00200002FF1F0000000000E400E0C7
:1003400056E400E008ED00E00050064000400640A2
:100350004480044004800440C010050014E000E024
:10036000BFD4010000002020650ED1601CE00340D6
:10037000A5C3945A00F00740FFFFFFFFFFFFFFFFF8
:10038000FFFFFFFFFFFFFFFFFFFFFFFFFFFFFFFF7D
:10039000FFFFFFFFFFFFFFFFFFFFFFFFFFFFFFFF6D
:1003A000FFFFFFFFFFFFFFFFFFFFFFFFFFFFFFFF5D
:1003B000FFFFFFFFFFFFFFFFFFFFFFFFFFFFFFFF4D
:1003C000FFFFFFFFFFFFFFFFFFFFFFFFFFFFFFFF3D
:1003D000FFFFFFFFFFFFFFFFFFFFFFFFFFFFFFFF2D
:1003E000FFFFFFFFFFFFFFFFFFFFFFFFFFFFFFFF1D
:1003F000FFFFFFFFFFFFFFFFFFFFFFFFFFFFFFFF0D
:10040000FFFFFFFFFFFFFFFFFFFFFFFFDEF9FFFF23
:1004100010B5054C237833B9044B13B10448AFF33E
:1004200000800123237010BDB816FF1F00000000DC
:1004300014780400084B10B51BB108490848AFF305
:1004400000800848036803B910BD074B002BFBD0A0
:10045000BDE81040184700BF00000000BC16FF1F99
:1004600014780400B816FF1F000000000020704739
:10047000704700BF0349044B4FF4804001220860DD
:100480001A60704708F00F40AC68FF1F014B012253
:100490001A607047C81CFF1F024A136801331360BB
:1004A000704700BF401AFF1F13F004BFF8B50E4697
:1004B000074612F067FD054612F054FD044612F09F
:1004C00041FD6401C0B204F4FF54ADB2A5F2BC75A5
:1004D000044344EA45243C8012F004FD054612F032
:1004E00011FD044612F01EFDED02640105F4FF2526
:1004F00004F4FF542C43C0F3460004433480F8BD99
:1005000030B59FED3E7A3E4C83B0002234F8123075
:100510009BB207EE903A0132F8EEE77A3C2A37EECA
:10052000277AF3D1DFED376A374DC7EE267A2921D6
:1005300028460422C5ED007A13F0ECFA0A2014F0E4
:1005400011F995ED006ADFED2D6A002134F81120D4
:1005500034F8113092B207EE902A9BB2B8EEE77AE7
:1005600007EE903AF8EEE77A36EE477A76EE677A5B
:1005700001313C29E7EE276AE8D1DFED247A244BEC
:1005800086EEA77A00221A60012417EE100A18F0EE
:10059000CDFD41EC100B16F00FFE51EC100B19F0D5
:1005A00011F9D5ED007A1B4B1B4D07EE100AF0EE4A
:1005B000006AB0EE086AF0EE675AE7EE265A17486E
:1005C000E7EE067A0422242180ED007AC3ED007A5A
:1005D000C5ED005A13F09EFA0A2014F0C3F802A8E1
:1005E000042240F8044D282113F094FA0A2014F054
:1005F000B9F80B4B1C7003B030BD00BF0000000009
:10060000F45CFF1F000070421808FF1F00006C42DE
:1006100004090020581CFF1FA868FF1F6808FF1F5F
:100620008060FF1F214B10B41A6813685068197856
:100630000478507A137A044201EA03011BD0937ABA
:1006400003F0030309B143F0040343F008039910D6
:10065000013B91720D2B0BD8DFE803F021071B073C
:100660000A152121150A071B0721D368013BD36016
:100670005DF8044B7047937A03F003030029E6D03A
:1006800043F00403E3E7D3685DF8044B023BD36017
:100690007047D3685DF8044B0233D3607047D3686A
:1006A0005DF8044B0133D360704700BFC80B0020D6
:1006B000214B10B45A681368506819780478507A3E
:1006C000137A044201EA03011BD0937A03F0030377
:1006D00009B143F0040343F008039910013B917200
:1006E0000D2B0BD8DFE803F021071B070A1521218A
:1006F000150A071B0721D368013BD3605DF8044B43
:100700007047937A03F003030029E6D043F0040313
:10071000E3E7D3685DF8044B023BD3607047D368CE
:100720005DF8044B0233D3607047D3685DF8044B27
:100730000133D360704700BFC80B0020214B10B4B9
:100740009A681368506819780478507A137A0442CA
:1007500001EA03011BD0937A03F0030309B143F0CC
:10076000040343F008039910013B91720D2B0BD841
:10077000DFE803F021071B070A152121150A071BD3
:100780000721D368013BD3605DF8044B7047937A2F
:1007900003F003030029E6D043F00403E3E7D36842
:1007A0005DF8044B023BD3607047D3685DF8044B9F
:1007B0000233D3607047D3685DF8044B0133D360D4
:1007C000704700BFC80B0020214B10B4DA681368D3
:1007D000506819780478507A137A044201EA0301C8
:1007E0001BD0937A03F0030309B143F0040343F0F1
:1007F00008039910013B91720D2B0BD8DFE803F031
:1008000021071B070A152121150A071B0721D36899
:10081000013BD3605DF8044B7047937A03F0030308
:100820000029E6D043F00403E3E7D3685DF8044B06
:10083000023BD3607047D3685DF8044B0233D3604A
:100840007047D3685DF8044B0133D360704700BF35
:10085000C80B0020214B10B41A691368506819782E
:100860000478507A137A044201EA03011BD0937A88
:1008700003F0030309B143F0040343F008039910A4
:10088000013B91720D2B0BD8DFE803F021071B070A
:100890000A152121150A071B0721D368013BD360E4
:1008A0005DF8044B7047937A03F003030029E6D008
:1008B00043F00403E3E7D3685DF8044B023BD360E5
:1008C0007047D3685DF8044B0233D3607047D36838
:1008D0005DF8044B0133D360704700BFC80B0020A4
:1008E000214B10B45A691368506819780478507A0B
:1008F000137A044201EA03011BD0937A03F0030345
:1009000009B143F0040343F008039910013B9172CD
:100910000D2B0BD8DFE803F021071B070A15212157
:10092000150A071B0721D368013BD3605DF8044B10
:100930007047937A03F003030029E6D043F00403E1
:10094000E3E7D3685DF8044B023BD3607047D3689C
:100950005DF8044B0233D3607047D3685DF8044BF5
:100960000133D360704700BFC80B0020214B10B487
:100970009A691368506819780478507A137A044297
:1009800001EA03011BD0937A03F0030309B143F09A
:10099000040343F008039910013B91720D2B0BD80F
:1009A000DFE803F021071B070A152121150A071BA1
:1009B0000721D368013BD3605DF8044B7047937AFD
:1009C00003F003030029E6D043F00403E3E7D36810
:1009D0005DF8044B023BD3607047D3685DF8044B6D
:1009E0000233D3607047D3685DF8044B0133D360A2
:1009F000704700BFC80B0020214B10B4D3F8EC2087
:100A00001368506819780478507A137A044201EA1E
:100A100003011BD0937A03F0030309B143F00403ED
:100A200043F008039910013B91720D2B0BD8DFE8BE
:100A300003F021071B070A152121150A071B0721AF
:100A4000D368013BD3605DF8044B7047937A03F0A1
:100A500003030029E6D043F00403E3E7D3685DF81D
:100A6000044B023BD3607047D3685DF8044B0233FC
:100A7000D3607047D3685DF8044B0133D36070478F
:100A8000C80B0020214B10B4D3F8DC201368506849
:100A900019780478507A137A044201EA03011BD0D2
:100AA000937A03F0030309B143F0040343F008030E
:100AB0009910013B91720D2B0BD8DFE803F0210751
:100AC0001B070A152121150A071B0721D368013BC3
:100AD000D3605DF8044B7047937A03F00303002959
:100AE000E6D043F00403E3E7D3685DF8044B023B30
:100AF000D3607047D3685DF8044B0233D36070470E
:100B0000D3685DF8044B0133D3607047C80B0020F5
:100B1000214B10B4D3F8E02013685068197804789A
:100B2000507A137A044201EA03011BD0937A03F04E
:100B3000030309B143F0040343F008039910013B98
:100B400091720D2B0BD8DFE803F021071B070A1564
:100B50002121150A071B0721D368013BD3605DF8EB
:100B6000044B7047937A03F003030029E6D043F067
:100B70000403E3E7D3685DF8044B023BD36070479E
:100B8000D3685DF8044B0233D3607047D3685DF8D7
:100B9000044B0133D3607047C80B0020214B10B4C5
:100BA000D3F8E4201368506819780478507A137ADF
:100BB000044201EA03011BD0937A03F0030309B155
:100BC00043F0040343F008039910013B91720D2B8D
:100BD0000BD8DFE803F021071B070A152121150AAE
:100BE000071B0721D368013BD3605DF8044B7047B6
:100BF000937A03F003030029E6D043F00403E3E70C
:100C0000D3685DF8044B023BD3607047D3685DF84E
:100C1000044B0233D3607047D3685DF8044B013353
:100C2000D3607047C80B0020214B10B4D3F8E820E4
:100C30001368506819780478507A137A044201EAEC
:100C400003011BD0937A03F0030309B143F00403BB
:100C500043F008039910013B91720D2B0BD8DFE88C
:100C600003F021071B070A152121150A071B07217D
:100C7000D368013BD3605DF8044B7047937A03F06F
:100C800003030029E6D043F00403E3E7D3685DF8EB
:100C9000044B023BD3607047D3685DF8044B0233CA
:100CA000D3607047D3685DF8044B0133D36070475D
:100CB000C80B0020214B10B4DA691368506819780A
:100CC0000478507A137A044201EA03011BD0937A24
:100CD00003F0030309B143F0040343F00803991040
:100CE000013B91720D2B0BD8DFE803F021071B07A6
:100CF0000A152121150A071B0721D368013BD36080
:100D00005DF8044B7047937A03F003030029E6D0A3
:100D100043F00403E3E7D3685DF8044B023BD36080
:100D20007047D3685DF8044B0233D3607047D368D3
:100D30005DF8044B0133D360704700BFC80B00203F
:100D4000214B10B41A6A1368506819780478507AE5
:100D5000137A044201EA03011BD0937A03F00303E0
:100D600009B143F0040343F008039910013B917269
:100D70000D2B0BD8DFE803F021071B070A152121F3
:100D8000150A071B0721D368013BD3605DF8044BAC
:100D90007047937A03F003030029E6D043F004037D
:100DA000E3E7D3685DF8044B023BD3607047D36838
:100DB0005DF8044B0233D3607047D3685DF8044B91
:100DC0000133D360704700BFC80B0020214B10B423
:100DD0005A6A1368506819780478507A137A044272
:100DE00001EA03011BD0937A03F0030309B143F036
:100DF000040343F008039910013B91720D2B0BD8AB
:100E0000DFE803F021071B070A152121150A071B3C
:100E10000721D368013BD3605DF8044B7047937A98
:100E200003F003030029E6D043F00403E3E7D368AB
:100E30005DF8044B023BD3607047D3685DF8044B08
:100E40000233D3607047D3685DF8044B0133D3603D
:100E5000704700BFC80B0020214B10B49A6A13687A
:100E6000506819780478507A137A044201EA030131
:100E70001BD0937A03F0030309B143F0040343F05A
:100E800008039910013B91720D2B0BD8DFE803F09A
:100E900021071B070A152121150A071B0721D36803
:100EA000013BD3605DF8044B7047937A03F0030372
:100EB0000029E6D043F00403E3E7D3685DF8044B70
:100EC000023BD3607047D3685DF8044B0233D360B4
:100ED0007047D3685DF8044B0133D360704700BF9F
:100EE000C80B0020214B10B4DA6A136850681978D7
:100EF0000478507A137A044201EA03011BD0937AF2
:100F000003F0030309B143F0040343F0080399100D
:100F1000013B91720D2B0BD8DFE803F021071B0773
:100F20000A152121150A071B0721D368013BD3604D
:100F30005DF8044B7047937A03F003030029E6D071
:100F400043F00403E3E7D3685DF8044B023BD3604E
:100F50007047D3685DF8044B0233D3607047D368A1
:100F60005DF8044B0133D360704700BFC80B00200D
:100F7000214B10B41A6B1368506819780478507AB2
:100F8000137A044201EA03011BD0937A03F00303AE
:100F900009B143F0040343F008039910013B917237
:100FA0000D2B0BD8DFE803F021071B070A152121C1
:100FB000150A071B0721D368013BD3605DF8044B7A
:100FC0007047937A03F003030029E6D043F004034B
:100FD000E3E7D3685DF8044B023BD3607047D36806
:100FE0005DF8044B0233D3607047D3685DF8044B5F
:100FF0000133D360704700BFC80B0020214B10B4F1
:101000005A6B1368506819780478507A137A04423E
:1010100001EA03011BD0937A03F0030309B143F003
:10102000040343F008039910013B91720D2B0BD878
:10103000DFE803F021071B070A152121150A071B0A
:101040000721D368013BD3605DF8044B7047937A66
:1010500003F003030029E6D043F00403E3E7D36879
:101060005DF8044B023BD3607047D3685DF8044BD6
:101070000233D3607047D3685DF8044B0133D3600B
:10108000704700BFC80B0020214B10B49A6B136847
:10109000506819780478507A137A044201EA0301FF
:1010A0001BD0937A03F0030309B143F0040343F028
:1010B00008039910013B91720D2B0BD8DFE803F068
:1010C00021071B070A152121150A071B0721D368D1
:1010D000013BD3605DF8044B7047937A03F0030340
:1010E0000029E6D043F00403E3E7D3685DF8044B3E
:1010F000023BD3607047D3685DF8044B0233D36082
:101100007047D3685DF8044B0133D360704700BF6C
:10111000C80B0020214B10B4DA6B136850681978A3
:101120000478507A137A044201EA03011BD0937ABF
:1011300003F0030309B143F0040343F008039910DB
:10114000013B91720D2B0BD8DFE803F021071B0741
:101150000A152121150A071B0721D368013BD3601B
:101160005DF8044B7047937A03F003030029E6D03F
:1011700043F00403E3E7D3685DF8044B023BD3601C
:101180007047D3685DF8044B0233D3607047D3686F
:101190005DF8044B0133D360704700BFC80B0020DB
:1011A000214B10B41A6C1368506819780478507A7F
:1011B000137A044201EA03011BD0937A03F003037C
:1011C00009B143F0040343F008039910013B917205
:1011D0000D2B0BD8DFE803F021071B070A1521218F
:1011E000150A071B0721D368013BD3605DF8044B48
:1011F0007047937A03F003030029E6D043F0040319
:10120000E3E7D3685DF8044B023BD3607047D368D3
:101210005DF8044B0233D3607047D3685DF8044B2C
:101220000133D360704700BFC80B0020214B10B4BE
:101230005A6C1368506819780478507A137A04420B
:1012400001EA03011BD0937A03F0030309B143F0D1
:10125000040343F008039910013B91720D2B0BD846
:10126000DFE803F021071B070A152121150A071BD8
:101270000721D368013BD3605DF8044B7047937A34
:1012800003F003030029E6D043F00403E3E7D36847
:101290005DF8044B023BD3607047D3685DF8044BA4
:1012A0000233D3607047D3685DF8044B0133D360D9
:1012B000704700BFC80B0020214B10B49A6C136814
:1012C000506819780478507A137A044201EA0301CD
:1012D0001BD0937A03F0030309B143F0040343F0F6
:1012E00008039910013B91720D2B0BD8DFE803F036
:1012F00021071B070A152121150A071B0721D3689F
:10130000013BD3605DF8044B7047937A03F003030D
:101310000029E6D043F00403E3E7D3685DF8044B0B
:10132000023BD3607047D3685DF8044B0233D3604F
:101330007047D3685DF8044B0133D360704700BF3A
:10134000C80B0020214B10B4DA6C13685068197870
:101350000478507A137A044201EA03011BD0937A8D
:1013600003F0030309B143F0040343F008039910A9
:10137000013B91720D2B0BD8DFE803F021071B070F
:101380000A152121150A071B0721D368013BD360E9
:101390005DF8044B7047937A03F003030029E6D00D
:1013A00043F00403E3E7D3685DF8044B023BD360EA
:1013B0007047D3685DF8044B0233D3607047D3683D
:1013C0005DF8044B0133D360704700BFC80B0020A9
:1013D000214B10B41A6D1368506819780478507A4C
:1013E000137A044201EA03011BD0937A03F003034A
:1013F00009B143F0040343F008039910013B9172D3
:101400000D2B0BD8DFE803F021071B070A1521215C
:10141000150A071B0721D368013BD3605DF8044B15
:101420007047937A03F003030029E6D043F00403E6
:10143000E3E7D3685DF8044B023BD3607047D368A1
:101440005DF8044B0233D3607047D3685DF8044BFA
:101450000133D360704700BFC80B0020214B10B48C
:101460005A6D1368506819780478507A137A0442D8
:1014700001EA03011BD0937A03F0030309B143F09F
:10148000040343F008039910013B91720D2B0BD814
:10149000DFE803F021071B070A152121150A071BA6
:1014A0000721D368013BD3605DF8044B7047937A02
:1014B00003F003030029E6D043F00403E3E7D36815
:1014C0005DF8044B023BD3607047D3685DF8044B72
:1014D0000233D3607047D3685DF8044B0133D360A7
:1014E000704700BFC80B0020214B10B49A6D1368E1
:1014F000506819780478507A137A044201EA03019B
:101500001BD0937A03F0030309B143F0040343F0C3
:1015100008039910013B91720D2B0BD8DFE803F003
:1015200021071B070A152121150A071B0721D3686C
:10153000013BD3605DF8044B7047937A03F00303DB
:101540000029E6D043F00403E3E7D3685DF8044BD9
:10155000023BD3607047D3685DF8044B0233D3601D
:101560007047D3685DF8044B0133D360704700BF08
:10157000C80B0020214B10B4DA6D1368506819783D
:101580000478507A137A044201EA03011BD0937A5B
:1015900003F0030309B143F0040343F00803991077
:1015A000013B91720D2B0BD8DFE803F021071B07DD
:1015B0000A152121150A071B0721D368013BD360B7
:1015C0005DF8044B7047937A03F003030029E6D0DB
:1015D00043F00403E3E7D3685DF8044B023BD360B8
:1015E0007047D3685DF8044B0233D3607047D3680B
:1015F0005DF8044B0133D360704700BFC80B002077
:10160000214B10B41A6E1368506819780478507A18
:10161000137A044201EA03011BD0937A03F0030317
:1016200009B143F0040343F008039910013B9172A0
:101630000D2B0BD8DFE803F021071B070A1521212A
:10164000150A071B0721D368013BD3605DF8044BE3
:101650007047937A03F003030029E6D043F00403B4
:10166000E3E7D3685DF8044B023BD3607047D3686F
:101670005DF8044B0233D3607047D3685DF8044BC8
:101680000133D360704700BFC80B0020214B10B45A
:101690005A6E1368506819780478507A137A0442A5
:1016A00001EA03011BD0937A03F0030309B143F06D
:1016B000040343F008039910013B91720D2B0BD8E2
:1016C000DFE803F021071B070A152121150A071B74
:1016D0000721D368013BD3605DF8044B7047937AD0
:1016E00003F003030029E6D043F00403E3E7D368E3
:1016F0005DF8044B023BD3607047D3685DF8044B40
:101700000233D3607047D3685DF8044B0133D36074
:10171000704700BFC80B0020214B10B49A6E1368AD
:10172000506819780478507A137A044201EA030168
:101730001BD0937A03F0030309B143F0040343F091
:1017400008039910013B91720D2B0BD8DFE803F0D1
:1017500021071B070A152121150A071B0721D3683A
:10176000013BD3605DF8044B7047937A03F00303A9
:101770000029E6D043F00403E3E7D3685DF8044BA7
:10178000023BD3607047D3685DF8044B0233D360EB
:101790007047D3685DF8044B0133D360704700BFD6
:1017A000C80B0020214B10B4DA6E1368506819780A
:1017B0000478507A137A044201EA03011BD0937A29
:1017C00003F0030309B143F0040343F00803991045
:1017D000013B91720D2B0BD8DFE803F021071B07AB
:1017E0000A152121150A071B0721D368013BD36085
:1017F0005DF8044B7047937A03F003030029E6D0A9
:1018000043F00403E3E7D3685DF8044B023BD36085
:101810007047D3685DF8044B0233D3607047D368D8
:101820005DF8044B0133D360704700BFC80B002044
:10183000214B10B41A6F1368506819780478507AE5
:10184000137A044201EA03011BD0937A03F00303E5
:1018500009B143F0040343F008039910013B91726E
:101860000D2B0BD8DFE803F021071B070A152121F8
:10187000150A071B0721D368013BD3605DF8044BB1
:101880007047937A03F003030029E6D043F0040382
:10189000E3E7D3685DF8044B023BD3607047D3683D
:1018A0005DF8044B0233D3607047D3685DF8044B96
:1018B0000133D360704700BFC80B0020214B10B428
:1018C0005A6F1368506819780478507A137A044272
:1018D00001EA03011BD0937A03F0030309B143F03B
:1018E000040343F008039910013B91720D2B0BD8B0
:1018F000DFE803F021071B070A152121150A071B42
:101900000721D368013BD3605DF8044B7047937A9D
:1019100003F003030029E6D043F00403E3E7D368B0
:101920005DF8044B023BD3607047D3685DF8044B0D
:101930000233D3607047D3685DF8044B0133D36042
:10194000704700BFC80B0020214B10B49A6F13687A
:10195000506819780478507A137A044201EA030136
:101960001BD0937A03F0030309B143F0040343F05F
:1019700008039910013B91720D2B0BD8DFE803F09F
:1019800021071B070A152121150A071B0721D36808
:10199000013BD3605DF8044B7047937A03F0030377
:1019A0000029E6D043F00403E3E7D3685DF8044B75
:1019B000023BD3607047D3685DF8044B0233D360B9
:1019C0007047D3685DF8044B0133D360704700BFA4
:1019D000C80B0020214B10B4DA6F136850681978D7
:1019E0000478507A137A044201EA03011BD0937AF7
:1019F00003F0030309B143F0040343F00803991013
:101A0000013B91720D2B0BD8DFE803F021071B0778
:101A10000A152121150A071B0721D368013BD36052
:101A20005DF8044B7047937A03F003030029E6D076
:101A300043F00403E3E7D3685DF8044B023BD36053
:101A40007047D3685DF8044B0233D3607047D368A6
:101A50005DF8044B0133D360704700BFC80B002012
:101A6000214B10B4D3F8802013685068197804789B
:101A7000507A137A044201EA03011BD0937A03F0EF
:101A8000030309B143F0040343F008039910013B39
:101A900091720D2B0BD8DFE803F021071B070A1505
:101AA0002121150A071B0721D368013BD3605DF88C
:101AB000044B7047937A03F003030029E6D043F008
:101AC0000403E3E7D3685DF8044B023BD36070473F
:101AD000D3685DF8044B0233D3607047D3685DF878
:101AE000044B0133D3607047C80B0020214B10B466
:101AF000D3F884201368506819780478507A137AE0
:101B0000044201EA03011BD0937A03F0030309B1F5
:101B100043F0040343F008039910013B91720D2B2D
:101B20000BD8DFE803F021071B070A152121150A4E
:101B3000071B0721D368013BD3605DF8044B704756
:101B4000937A03F003030029E6D043F00403E3E7AC
:101B5000D3685DF8044B023BD3607047D3685DF8EF
:101B6000044B0233D3607047D3685DF8044B0133F4
:101B7000D3607047C80B0020214B10B4D3F88820E5
:101B80001368506819780478507A137A044201EA8D
:101B900003011BD0937A03F0030309B143F004035C
:101BA00043F008039910013B91720D2B0BD8DFE82D
:101BB00003F021071B070A152121150A071B07211E
:101BC000D368013BD3605DF8044B7047937A03F010
:101BD00003030029E6D043F00403E3E7D3685DF88C
:101BE000044B023BD3607047D3685DF8044B02336B
:101BF000D3607047D3685DF8044B0133D3607047FE
:101C0000C80B0020214B10B4D3F88C201368506807
:101C100019780478507A137A044201EA03011BD040
:101C2000937A03F0030309B143F0040343F008037C
:101C30009910013B91720D2B0BD8DFE803F02107BF
:101C40001B070A152121150A071B0721D368013B31
:101C5000D3605DF8044B7047937A03F003030029C7
:101C6000E6D043F00403E3E7D3685DF8044B023B9E
:101C7000D3607047D3685DF8044B0233D36070477C
:101C8000D3685DF8044B0133D3607047C80B002064
:101C9000214B10B4D3F89020136850681978047859
:101CA000507A137A044201EA03011BD0937A03F0BD
:101CB000030309B143F0040343F008039910013B07
:101CC00091720D2B0BD8DFE803F021071B070A15D3
:101CD0002121150A071B0721D368013BD3605DF85A
:101CE000044B7047937A03F003030029E6D043F0D6
:101CF0000403E3E7D3685DF8044B023BD36070470D
:101D0000D3685DF8044B0233D3607047D3685DF845
:101D1000044B0133D3607047C80B0020214B10B433
:101D2000D3F894201368506819780478507A137A9D
:101D3000044201EA03011BD0937A03F0030309B1C3
:101D400043F0040343F008039910013B91720D2BFB
:101D50000BD8DFE803F021071B070A152121150A1C
:101D6000071B0721D368013BD3605DF8044B704724
:101D7000937A03F003030029E6D043F00403E3E77A
:101D8000D3685DF8044B023BD3607047D3685DF8BD
:101D9000044B0233D3607047D3685DF8044B0133C2
:101DA000D3607047C80B0020214B10B4D3F89820A3
:101DB0001368506819780478507A137A044201EA5B
:101DC00003011BD0937A03F0030309B143F004032A
:101DD00043F008039910013B91720D2B0BD8DFE8FB
:101DE00003F021071B070A152121150A071B0721EC
:101DF000D368013BD3605DF8044B7047937A03F0DE
:101E000003030029E6D043F00403E3E7D3685DF859
:101E1000044B023BD3607047D3685DF8044B023338
:101E2000D3607047D3685DF8044B0133D3607047CB
:101E3000C80B0020214B10B4D3F89C2013685068C5
:101E400019780478507A137A044201EA03011BD00E
:101E5000937A03F0030309B143F0040343F008034A
:101E60009910013B91720D2B0BD8DFE803F021078D
:101E70001B070A152121150A071B0721D368013BFF
:101E8000D3605DF8044B7047937A03F00303002995
:101E9000E6D043F00403E3E7D3685DF8044B023B6C
:101EA000D3607047D3685DF8044B0233D36070474A
:101EB000D3685DF8044B0133D3607047C80B002032
:101EC000214B10B4D3F8A020136850681978047817
:101ED000507A137A044201EA03011BD0937A03F08B
:101EE000030309B143F0040343F008039910013BD5
:101EF00091720D2B0BD8DFE803F021071B070A15A1
:101F00002121150A071B0721D368013BD3605DF827
:101F1000044B7047937A03F003030029E6D043F0A3
:101F20000403E3E7D3685DF8044B023BD3607047DA
:101F3000D3685DF8044B0233D3607047D3685DF813
:101F4000044B0133D3607047C80B002070B50446C2
:101F500008460D4618F0B4FB236802462946204681
:101F60005B68BDE87040184738B5044608460D4622
:101F700018F0A6FB2368024629465B68204698476E
:101F80000546204614F042FA284438BD10B40368D0
:101F900041681A780C78417A037A0C4202EA03020B
:101FA0001BD0837A03F003030AB143F0040343F028
:101FB00008039A10013B82720D2B0BD8DFE803F067
:101FC00021071B070A152121150A071B0721C368D2
:101FD000013BC3605DF8044B7047837A03F0030351
:101FE000002AE6D043F00403E3E7C3685DF8044B3E
:101FF000023BC3607047C3685DF8044B0233C360A3
:102000007047C3685DF8044B0133C360704700BF7D
:1020100008B5034BD3F8D800FFF7B8FF08BD00BFE1
:10202000C80B002008B5034BD3F8D400FFF7AEFF70
:1020300008BD00BFC80B002008B5034BD3F8D00083
:10204000FFF7A4FF08BD00BFC80B002008B5034B75
:10205000D3F8CC00FFF79AFF08BD00BFC80B0020E3
:1020600008B5034BD3F8C800FFF790FF08BD00BFC9
:10207000C80B002008B5034BD3F8C400FFF786FF58
:1020800008BD00BFC80B002008B5034BD3F8C00043
:10209000FFF77CFF08BD00BFC80B002008B5034B4D
:1020A000D3F8BC00FFF772FF08BD00BFC80B0020CB
:1020B00008B5034BD3F8B800FFF768FF08BD00BFB1
:1020C000C80B002008B5034BD3F8B400FFF75EFF40
:1020D00008BD00BFC80B002008B5034BD3F8B00003
:1020E000FFF754FF08BD00BFC80B002008B5034B25
:1020F000D3F8AC00FFF74AFF08BD00BFC80B0020B3
:1021000008B5034BD3F8A800FFF740FF08BD00BF98
:10211000C80B002008B5034BD3F8A400FFF736FF27
:1021200008BD00BFC80B002008B50B463B2800F2D5
:10213000C682DFE810F0BB02B202A902A002970239
:102140008E0285027C0273026A02610258024F020B
:1021500046023D0234022B0222021902100207023B
:10216000AE01A5019C0193018A01810178016F01F3
:1021700066015D0154014A01400136012C01220132
:1021800018010E010401FA00F000E600DC00D200A4
:10219000C800BE00B400AA00A00096008C00820017
:1021A00078006E0064005A00500046003C00BD4AB2
:1021B000BD49C2F8EC303B20042211F0BBFF0120E6
:1021C00008BDB84AB949C2F8E8303A20042211F0F3
:1021D000B1FF012008BDB34AB549C2F8E430392047
:1021E000042211F0A7FF012008BDAE4AB149C2F890
:1021F000E0303820042211F09DFF012008BDA94ADB
:10220000AD49C2F8DC303720042211F093FF0120E1
:1022100008BDA44AA949C2F8D8303620042211F0DA
:1022200089FF012008BD9F4AA549C2F8D430352056
:10223000042211F07FFF012008BD9A4AA149C2F88B
:10224000D0303420042211F075FF012008BD954ADA
:102250009D49C2F8CC303320042211F06BFF0120DD
:1022600008BD904A9949C2F8C8303220042211F0C2
:1022700061FF012008BD8B4A9549C2F8C430312066
:10228000042211F057FF012008BD864A9149C2F887
:10229000C0303020042211F04DFF012008BD814ADA
:1022A0008D49C2F8BC302F20042211F043FF0120D9
:1022B00008BD7C4A8949C2F8B8302E20042211F0AA
:1022C00039FF012008BD774A8549C2F8B4302D2076
:1022D000042211F02FFF012008BD724A8149C2F883
:1022E000B0302C20042211F025FF012008BD6D4ADA
:1022F0007D49C2F8AC302B20042211F01BFF0120D5
:1023000008BD684A7949C2F8A8302A20042211F091
:1023100011FF012008BD634A7549C2F8A430292085
:10232000042211F007FF012008BD5E4A7149C2F87E
:10233000A0302820042211F0FDFE012008BD594ADA
:102340006D49C2F89C302720042211F0F3FE0120D1
:1023500008BD544A6949C2F898302620042211F079
:10236000E9FE012008BD4F4A6549C2F89430252096
:10237000042211F0DFFE012008BD4A4A6149C2F87B
:1023800090302420042211F0D5FE012008BD454ADA
:102390005D49C2F88C302320042211F0CBFE0120CD
:1023A00008BD404A5949C2F888302220042211F061
:1023B000C1FE012008BD3B4A5549C2F884302120A6
:1023C000042211F0B7FE012008BD364A5149C2F877
:1023D00080302020042211F0ADFE012008BD314ADA
:1023E0004D49D3671F20042211F0A4FE012008BD2F
:1023F0002C4A4A4993671E20042211F09BFE0120BB
:1024000008BD284A464953671D20042211F092FE58
:10241000012008BD234A434913671C20042211F000
:1024200089FE012008BD1F4A3F49D3661B200422B4
:1024300011F080FE012008BD1A4A3C4993661A201B
:10244000042211F077FE012008BD164A3849536670
:102450001920042211F06EFE012008BD114A3549F1
:1024600013661820042211F065FE012008BD0D4AF4
:102470003149D3651720042211F05CFE012008BD0C
:10248000084A2E4993651620042211F053FE0120BC
:1024900008BD044A2A4953651520042211F04AFE5A
:1024A000012008BDC80B0020F9090000290C00001C
:1024B0009D0B0000110B0000850A00001120000098
:1024C00025200000392000004D2000006120000080
:1024D00075200000892000009D200000B120000030
:1024E000C5200000D9200000ED20000001210000DF
:1024F00015210000C11E0000351E0000A91D0000AE
:102500001D1D0000911C0000051C0000791B00002F
:10251000ED1A0000611A0000D519000049190000E9
:10252000BD18000031180000A517000019170000A1
:102530008D1600000116000075150000E91400005A
:102540005D1400005F4A604913651420042211F0F5
:10255000F1FD012008BD5B4A5C49D36413200422CD
:1025600011F0E8FD012008BD564A59499364122034
:10257000042211F0DFFD012008BD524A5549536481
:102580001120042211F0D6FD012008BD4D4A524908
:1025900013641020042211F0CDFD012008BD494A2A
:1025A0004E49D3630F20042211F0C4FD012008BD61
:1025B000444A4B4993630E20042211F0BBFD0120D5
:1025C00008BD404A474953630D20042211F0B2FD73
:1025D000012008BD3B4A444913630C20042211F03A
:1025E000A9FD012008BD374A4049D3620B200422CF
:1025F00011F0A0FD012008BD324A3D4993620A2036
:10260000042211F097FD012008BD2E4A394953627A
:102610000920042211F08EFD012008BD294A364907
:1026200013620820042211F085FD012008BD254A0F
:102630003249D3610720042211F07CFD012008BD3E
:10264000204A2F4993610620042211F073FD0120D6
:1026500008BD1C4A2B4953610520042211F06AFD74
:10266000012008BD174A284913610422104611F0C1
:1026700061FD012008BD134A2449D36003200422D0
:1026800011F058FD012008BD0E4A21499360022037
:10269000042211F04FFD012008BD0A4A1D49536074
:1026A0000120042211F046FD012008BD054A1A4907
:1026B00013600020042211F03DFD012008BD002020
:1026C00008BD00BFC80B0020D11300004513000057
:1026D000B91200002D120000A11100001511000018
:1026E00089100000FD0F0000710F0000E50E0000D2
:1026F000590E0000CD0D0000410D0000B50C00008A
:102700006D090000E108000055080000C90700003D
:102710003D070000B1060000250600002DE9F0414C
:102720001D4B1D68854282B016468CB219D005B289
:10273000C4F590730022294600921BB20A22174862
:102740000AF0EEFD164B15481B880093C4F59572F0
:10275000A31B1BB212B229460AF0E2FD02B0BDE88B
:10276000F081C4F595772DB23FB24FF478483B46DF
:102770002946CDF800800A2208480AF0D1FDA31BA3
:102780003A461BB2CDF80080294604480AF0C8FD3D
:1027900002B0BDE8F08100BF3408FF1FB05DFF1F2D
:1027A0003C08FF1F2DE9F043364F374E3868374D50
:1027B00083B016F099FC41EC100B14F075FC00226C
:1027C000334B51EC100B16F005FD16F0DBFFA8465D
:1027D0003060002431E058F8240016F085FC41EC0C
:1027E000100B14F061FC0022294B51EC100B16F079
:1027F000F1FC16F0C7FF00EBC000264A3168DFF895
:10280000A0E04001B0FBF1F1B1F5907F8ABF4FF439
:1028100090711160116055F824203B6802EBC202F0
:1028200052012046B2FBF3F31A46CEF80030FFF710
:1028300075FF0134B4F5D27F20D055F82430012B38
:10284000C9D800230FFA84F9009349464FF49073D6
:102850000A2211480AF064FD104B1B68A342E8D11C
:102860004FF47843009349464FF490730A220A4884
:1028700001340AF055FDB4F5D27FDED103B0BDE8D6
:10288000F08300BF701CFF1F941CFF1F9C60FF1F84
:1028900000005940941AFF1FB05DFF1F3408FF1F4E
:1028A0007C60FF1F10B50F4B1C68844282B00B4642
:1028B000C1F595720AD045F21F0401B212B21BB2E3
:1028C000009409480AF02CFD02B010BD4FF4784086
:1028D000009021B212B21BB203480AF021FD02B0EF
:1028E00010BD00BF3408FF1FB05DFF1FF8B50B4FD0
:1028F0000B4E0C4D002457F82420336802EBC20223
:1029000052012046B2FBF3F3013419462B60FFF766
:10291000C9FFB4F5D27FEED1F8BD00BF9C60FF1FA8
:10292000701CFF1F941AFF1F00B5074883B0B0F951
:102930002020B0F91E3000920022019211460AF0C8
:1029400093FF03B05DF804FBB05DFF1FDFF878C0B4
:1029500000232DE9F0411A4FCCF800301A4647F811
:1029600023200133B3F5007FF9D1164E4FF0000E4E
:1029700001F1FF38002921DDB0F5805F1EDA034642
:1029800008EB0005002202E0B3F5805F06D056F8A0
:102990002340AB42224403F10103F5D10844B0F5D2
:1029A000805F47F82E2004DA0EF1010EBEF5007F9D
:1029B000E0D10023CCF80030BDE8F0810022EDE743
:1029C0009C60FF1FDC88FF1F941AFF1F0023304804
:1029D000194640F823100133B3F5805F4FF0000231
:1029E000F7D12C4B2C482D49F0B52D4D2D4C1A60AC
:1029F0002D4B2A70226002600A602C4F2C4E2D4D08
:102A00002D4C2E482E491A602E4B3A6032602A60B7
:102A1000226002600A602C4F2C4E2D4D2D4C2E480A
:102A20002E491A602E4B3A6032602A6022600260A2
:102A30000A602C4F2C4E2D4D2D4C2E482E491A60DD
:102A40003C23236003603A6032602A600B602B4FA6
:102A50002B4E2C4D2C4C2D482D493B6033602B6068
:102A600023600360DFF8C8E00B602A4F2A4E2B4D2D
:102A70002B4C2C482C492D4B3A704FF0B40CCEF80F
:102A800000C032702A70227002700A701A70F0BD95
:102A9000DC88FF1F8C1CFF1F301CFF1F341CFF1F16
:102AA000351AFF1F9C5DFF1F441CFF1F381CFF1FB2
:102AB0003C1CFF1F401CFF1F481CFF1F4C1CFF1F1E
:102AC000501CFF1FD088FF1FBC1CFF1FC01CFF1F16
:102AD000381AFF1FD488FF1FD888FF1FDCC8FF1FCC
:102AE000DC16FF1FE0C8FF1FE4C8FF1FD816FF1F3A
:102AF000DC07FF1F5808FF1F0008FF1FFC07FF1F10
:102B0000F807FF1FF407FF1FF007FF1FEC07FF1F69
:102B1000E807FF1F541CFF1FECC8FF1FDA1CFF1F34
:102B2000D91CFF1FA468FF1F341AFF1FE81CFF1FDA
:102B30004408FF1FF0B52949294F2A4A2A4E2B4D38
:102B40002B4C2C48DFF820C1DFF820E100230B607C
:102B50003B602949294F1360294A33602B60236069
:102B600003600B603B60274E274D284C28482949BD
:102B7000294F1360294A33602B60236003600B6088
:102B80003B60274E274D284C28482949294F137070
:102B90003C2202600A603A6033602B602370264E4C
:102BA000264D274C27482849284F32602A6022604A
:102BB00002600A603A60264E264D274C2748284975
:102BC000284ACCF80030B427CEF8003037602B709C
:102BD000237003700B701370F0BD00BF381CFF1F13
:102BE0003C1CFF1F4C1CFF1F401CFF1F441CFF1FF1
:102BF000481CFF1F501CFF1FBC1CFF1FC01CFF1FD9
:102C0000D888FF1F381AFF1FD088FF1FD488FF1FE6
:102C1000DCC8FF1FE0C8FF1FE4C8FF1FECC8FF1F90
:102C2000D816FF1FDC16FF1F541CFF1FDC07FF1FF9
:102C30005808FF1F0008FF1FFC07FF1FF807FF1FB2
:102C4000F407FF1FF007FF1FEC07FF1FE807FF1F38
:102C50004408FF1FDA1CFF1FD91CFF1FA468FF1FB9
:102C6000341AFF1FE81CFF1F301CFF1F341CFF1FFE
:102C70002B4B2C4AD3ED004A2B4BD2ED002A2B4A8A
:102C800093ED006A92ED007A294B2A49D3ED006A50
:102C9000294B2A4A93ED002A294B64EEA47A26EEAA
:102CA000064A22EEE73A66EE075AA4EE073AB0EE7D
:102CB000651AA4EEE21A66EEA61A63EE663A32EEE2
:102CC000C75A34EE677A67EEC67AE1EE813AE4EEEF
:102CD000847A36EE646A22EE474A27EE667A65EE1B
:102CE000666AD4EEA25AA1EE867AE6EE026AA1EEF8
:102CF000854AF0EE634AE7EE824A34EE036A77EEE5
:102D0000277A75EEA66A86EE277AC4EEA75A86EE73
:102D1000A76AC1ED005A82ED006A83ED007A704720
:102D2000845DFF1F601CFF1F805DFF1F641CFF1F71
:102D30007C5DFF1FF8C8FF1F5C1CFF1FC41CFF1F2A
:102D40004808FF1F38B51B4C237C012B2CD972B6C9
:102D5000184DE36862B61849184A0868136098422B
:102D600021D0002B164816DB0068B3EB800F05DD81
:102D70000023136072B6E36062B61368114C0B60F7
:102D8000002B1A46B8BFDA1C921022603220BDE830
:102D9000384011F0E7BC03689B00136072B6EB602B
:102DA00062B61368E0E738BD72B62046FFF7EEF86A
:102DB000CEE700BF141CFF1F7008FF1F8460FF1FB9
:102DC000E41CFF1FE8C8FF1F2DE9F04785B28CB255
:102DD00084B02E4E04F1210305F114024FF4784E15
:102DE00007B212B218B2A5F11403CDF80CE00192AB
:102DF00002900AB20090394630461BB2A5F1020992
:102E00000CF05CFA4FF6FF780FFA89F904F1090229
:102E10000E23494630468DE8080112B205230AF018
:102E200023FD04F1FF3A0523494604F11A02A5F1F6
:102E30001509223424B2304600930FFA8AFA0FFAA9
:102E400089F9CDF8048012B215350AF00DFD2DB2C6
:102E500052464B46394630468DE810010EF0E4FDEF
:102E6000524639462B4630460094CDF804800EF089
:102E7000DBFD00944B4622462946CDF804803046BF
:102E80000EF0D2FD04B0BDE8F08700BFB05DFF1FBB
:102E90002DE9F0478DB284B0264FAE1C36B24CF20D
:102EA00018694FF0050A84B28846324601B2CDF85F
:102EB00004903846CDF800A004230AF0D5FCA31DE9
:102EC00005F1080205F1030E0FFA88F01BB212B2E9
:102ED000A11C00900193029238460FFA8EF2CDF8B1
:102EE0000C9009B204F108080CF0E8F90FFA88F820
:102EF000002312340635324641463846019324B247
:102F00002DB2CDF800A00C230AF0AEFC23463246C9
:102F1000414638468DE820020EF086FD0096234695
:102F20002A464146CDF8049038460EF07DFD04B0A7
:102F3000BDE8F087B05DFF1F2DE9F04F8DB285B081
:102F4000344E05F1020A4CF218670FFA8AFA4FF074
:102F5000050884B28946524601B2CDF80080304659
:102F6000019704230AF080FCA31D05F1080205F176
:102F7000030E0FFA89F01BB212B2A11C009001934C
:102F8000029230460FFA8EF2039709B204F1080B51
:102F90000CF094F90FFA8BFBCDF80080002304F1BC
:102FA0000D0805F104090FFA88F80FFA89F952465D
:102FB00059463046019306350C230AF055FC2DB2D4
:102FC00052465946434630460197CDF80090123498
:102FD0000EF02AFD24B2594643462A463046CDF823
:102FE000009001970EF020FD5246234641463046A0
:102FF000CDF8009001970EF017FDCDF80090234614
:103000002A464146019730460EF00EFD05B0BDE858
:10301000F08F00BFB05DFF1F2DE9F04F8DB2364E2F
:1030200005F1020985B00FFA89F94CF218680527F5
:1030300084B28DE880018A464A4601B204233046B4
:103040000AF012FCA31D05F1080205F1030E0FFAA8
:103050008AF01BB212B2A11C0090CDF80C80019333
:10306000029230460FFA8EF209B204F1080B0CF00E
:1030700025F90FFA8BFB0097002304F10D0705F1EA
:1030800004083FB20FFA88F840F2FF7A4A465946E0
:103090003046019306350C230AF0E6FB2DB24A4672
:1030A00059463B463046CDF80080CDF804A0123496
:1030B0000EF0BAFC24B259463B462A463046CDF8BB
:1030C0000080CDF804A00EF0AFFC4A4623463946F6
:1030D0003046CDF80080CDF804A00EF0A5FCCDF868
:1030E000008023462A463946CDF804A030460EF02B
:1030F0009BFC05B0BDE8F08FB05DFF1F2DE9F04FE0
:10310000504B1B7883B0002B48D1002A00F08F80F1
:10311000002A40DD8FB285B207F10A0B96B20FFA92
:1031200080FA0CB20FFA8BFB07F1030905F10508D1
:103130000FFA88F822460FFA89F953465146424859
:103140000196CDF800B007370EF06EFC3FB2224674
:10315000434651463C480196CDF800906C1F0EF056
:1031600063FC24B25A4651464346374800970196BD
:103170000EF05AFC23463A4641463348CDF80090BB
:1031800001960EF051FC009723464A4641460196AF
:103190002D480EF049FC03B0BDE8F08F002AB7D1EE
:1031A0008EB206F10A0A0CB20FFA8AFA0FFA80F907
:1031B00040F2FF7885B26F1D06F1030B3FB20FFAA4
:1031C0008BFB22464B464946CDF800A0CDF8048043
:1031D0001D4807360EF028FC36B222463B464946CB
:1031E000CDF80480CDF800B01748053D0EF01CFC6A
:1031F0002DB2524649463B468DE8400112480EF03A
:1032000013FC2B4632463946CDF800B0CDF8048089
:103210000D480EF009FC00962B465A463946CDF86B
:10322000048009480EF000FC03B0BDE8F08F8EB2B8
:1032300006F10A0A0CB20FFA8AFA0FFA80F947F679
:10324000EF38B7E73C1AFF1FB05DFF1F2DE9F04FC5
:103250003A4B85B21B7805F10A0785B00A4604B2DD
:103260003FB20FFA81FA002B64D14FF4404692B27C
:103270003B4621460292CDF800A0524601963048C6
:103280000EF0D2FB029B019603F10A080FFA88F8B0
:103290003B4642462146CDF8008029480EF0C4FB4B
:1032A0000299019601F105090FFA89F9EB1C05F164
:1032B000010B04351BB2524621460FFA8BFB2DB28F
:1032C000CDF800901E4803930EF0AEFB2B465946F6
:1032D0005246CDF80090019619480EF0A5FB0399CF
:1032E000CDF8008023464A46019615480EF09CFB17
:1032F0005B464A462946CDF80080019610480EF0FC
:1033000093FB029C0196A01C00B252463B463946F4
:1033100000900B480EF088FB04F108031BB28DE807
:10332000480042463B46394605480EF07DFB05B055
:10333000BDE8F08F40F2FF7699E700BF8060FF1F85
:10334000B05DFF1F2DE9F041C54CC64EE38BB4F9CB
:10335000202086B0052700924CF218680022743BAA
:1033600011461BB22046CDF8088001970BF0E2FE13
:10337000E18BB4F9203000937339712309B22046F0
:103380000022CDF8088001970BF0D4FE02221146EE
:1033900020460DF0F3FEE38B01974FF6FF721E21DE
:1033A0000292783B02221BB20091204611460BF09C
:1033B000C1FE3368002B40F0C283E38BAA4DCDF8E9
:1033C00008801C2103227A3B009120461146019778
:1033D0001BB20BF031FF298820460DF0DDFEA04F17
:1033E0000A221146002338460DF06AFE9F493846EE
:1033F000FEF7ACFDE38B4FF6FF711E22783B4FF0DA
:1034000005081BB202918DE80401384622220221F0
:103410000BF090FE3368012B00F0E384944AFB8BA1
:103420001268CDF80480D24392B21C217A3B0292FA
:103430000091384603211BB223220BF0FDFE2968C0
:10344000C943384689B20DF0A7FE854F00232A22D2
:1034500038460A210DF034FE86493846FEF776FDDF
:10346000E38B4FF6FF711E22783B4FF005081BB22D
:1034700002918DE804013846422202210BF05AFEE7
:103480003368022B00F09884794AFB8B1268CDF8E0
:103490000480D24392B21C217A3B029200913846BA
:1034A00003211BB243220BF0C7FE2968C9433846EB
:1034B00089B20DF071FE6A4F00234A2238460A2174
:1034C0000DF0FEFD6C493846FEF740FDE38B4FF6EC
:1034D000FF711E22783B4FF0050802918DE8040130
:1034E00002211BB2384662220BF024FE3168032908
:1034F00000F04E845E4AFB8B1268CDF80480D24304
:1035000092B21C217A3B02920091384603211BB2F1
:1035100063220BF091FE2968C943384689B20DF049
:103520003BFE4F4F00236A2238460A210DF0C8FDAA
:1035300052493846FEF70AFDE38B4FF6FF711E2213
:10354000783B4FF005081BB202918DE80401384624
:10355000822202210BF0EEFD3368042B00F003847D
:10356000434AFB8B1268CDF80480D24392B21C21EF
:103570007A3B02920091384603211BB283220BF062
:103580005BFE2968C943384689B20DF005FE344F09
:1035900000238A2238460A210DF092FD3849384628
:1035A000FEF7D4FCE38B4FF6FF714FF005081E22A7
:1035B000783B02918DE804011BB2A2223846022119
:1035C0000BF0B8FD3268424500F0BA83284AFB8B05
:1035D0001268CDF80480D24392B21C217A3B029249
:1035E0000091384603211BB2A3220BF025FE296867
:1035F000C943384689B20DF0CFFD194F0023AA22E6
:1036000038460A210DF05CFD1E493846FEF79EFC47
:10361000E38B4FF6FF711E22783B4FF005081BB27B
:1036200002918DE804013846C22202210BF082FD8E
:103630003368062B00F070830D4AFB8B1268CDF8BF
:103640000480D24392B21C217A3B02920091384608
:1036500003211BB2C3220BF0EFFD2968C94313E01D
:10366000B05DFF1FF4C8FF1FB888FF1FA0FE030056
:103670005C08FF1FA8FE0300B0FE0300C0FE0300AD
:10368000D0FE0300DCFE0300384689B20DF084FD55
:10369000C84F0023CA2238460A210DF011FDC64941
:1036A0003846FEF753FCE38B4FF6FF711E22783B42
:1036B0004FF005081BB202918DE804013846E22262
:1036C00002210BF037FD3368072B00F0FE82BB4A66
:1036D000FB8B1268CDF80480D24392B21C217A3B56
:1036E00002920091384603211BB2E3220BF0A4FDA5
:1036F0002968C943384689B20DF04EFDAD4F00230D
:10370000EA2238460A210DF0DBFCAD493846FEF7C7
:103710001DFCE38B4FF6FF711E22783B4FF005082E
:103720001BB202918DE8040138464FF481720221E8
:103730000BF000FD3368082B00F0B2829F4AFB8B30
:103740001268CDF80480D24392B21C217A3B0292D7
:103750000091384603211BB240F203120BF06CFDBE
:103760002968C943384689B20DF016FD914F0023F0
:103770004FF4857238460A210DF0A2FC9149384673
:10378000FEF7E4FBE38B4FF6FF711C22783B052428
:103790001BB202918DE8140038464FF49172022159
:1037A0000BF0C8FC3368092B00F06682834AFB8B60
:1037B00012680194D24392B21A217A3B029200918C
:1037C000384603211BB240F223120BF035FD296865
:1037D000C943384689B20DF0DFFC00234FF49572DF
:1037E0000A2174480DF06CFC052416274CF2186869
:1037F00075497048FEF7AAFB5E23062240F2771156
:103800006C48CDF80880019400970BF015FD4FF639
:10381000FF7168480DF0C0FC6C4B04AA93ED000AE0
:103820000121204610F078FA00230A2240F2791193
:1038300060480DF045FC04A95E48FEF787FB64492B
:103840005C48FEF783FB3B46222240F27711594841
:10385000CDF80880019400970BF0EEFC40F2FF7267
:1038600027214FF4C070FFF749FC33680A2B00F0A2
:10387000FC8129684F48C94389B20DF08DFC0022B4
:10388000182301940292009322222E234FF4CA712E
:1038900048480BF04FFC4F4B1C78002C00F0A081E7
:1038A0001621052240F22E238DE80E0041482C23DC
:1038B000232240F295110BF0BFFC4FF4D0713D482C
:1038C000002327220DF0FCFB43493A48FEF73EFB5C
:1038D00016234CF2186205248DE81800029240F27B
:1038E00077113E2233480BF0A7FC432140F27D10B4
:1038F000FFF7ACFC33680B2B00F0B08129682D4832
:10390000C94389B20DF048FC0022182301940292A9
:1039100000933E222E234FF4CA7126480BF00AFC76
:103920002E4B1C78002C40F042811621052240F2DB
:103930002E238DE80E001F482C233F2240F29511C4
:103940000BF07AFC4FF4D0711A48234643220DF055
:10395000B7FB21491748FEF7F9FA214B019364237D
:10396000009373224FF4BA7112480AF0D5FC012279
:10397000114610480DF002FC4FF6FF710D480DF096
:103980000BFC0023D5224FF4BD710A480DF098FBC3
:1039900014490848FEF7DAFA0023E1224FF4BD711A
:1039A00004480DF08DFB10490248FEF7CFFA0222C1
:1039B00011461BE0B05DFF1FE8FE03005C08FF1F1F
:1039C000F4FE030008FF030018FF0300101CFF1F94
:1039D00088FE03003C1AFF1F04FF03008060FF1FE6
:1039E0003804040028FF030038FF0300C1480DF02D
:1039F000C5FB33680C2B00F02A812968BD48C943F8
:103A000089B20DF0C9FB002105221823BA4C02919E
:103A10000192009340F205122E234FF4BB71B5487A
:103A20000BF088FB2778002F40F0B180162105228B
:103A300040F22E238DE80E00AE482C234FF4837203
:103A400040F277110BF0F8FB3B464FF485724FF4D0
:103A5000BE71A8480DF034FBA849A648FEF776FAD7
:103A600033680D2B00F0EC802968A248C94389B265
:103A70000DF092FB00210522182302910192009380
:103A800040F205122E234FF4D4719A480BF052FBEA
:103A90002478002C6BD1162105224CF218638DE896
:103AA0000E0094482C234FF4837240F2A9110BF0BE
:103AB000C3FB23464FF485724FF4D7718D480DF048
:103AC000FFFA8F498B48FEF741FA33680E2B00F05E
:103AD000B08029688748C94389B20DF05DFB002199
:103AE0000522182302910192009340F221126023D3
:103AF0004FF4BB717F480BF01DFB824B1C78002CF0
:103B000000F087801621052240F22E238DE80E005A
:103B100078485E234FF4917240F277110BF08CFBE2
:103B200000234FF4937240F27D1172480DF0C8FAF1
:103B300075497048FEF70AFA06B0BDE8F081734A8D
:103B4000E38B1168724D0197C943032289B21C208F
:103B50007A3B02910090114620461BB20BF06CFBA1
:103B60002968C94389B220460DF016FB37E41621B7
:103B7000052240F22E238DE80E005E482C234FF4E0
:103B8000837240F2A9110BF057FB002392E7162134
:103B900005224CF218638DE80E0056482C234FF492
:103BA000837240F277110BF047FB00234DE716219B
:103BB00005224CF218638DE80E004E482C233F225C
:103BC00040F295110BF038FB002343224FF4CD71E6
:103BD00048480DF075FA4F494648FEF7B7F9BCE67C
:103BE000162105224CF218638DE80E0041482C2363
:103BF000232240F295110BF01FFB234627224FF49E
:103C0000CD713C480DF05CFA42493A48FEF79EF906
:103C10005EE6162105224CF218638DE80E00354849
:103C20005E234FF4917240F277110BF005FB2346AF
:103C300077E729882F480DF0AFFA4FF6FF714FE76D
:103C400029882C480DF0A8FA4FF6FF7113E7298850
:103C500028480DF0A1FA4FF6FF71D5E629882548CE
:103C60000DF09AFA4FF6FF724FE6298821480DF0C1
:103C700093FA4FF6FF7203E6FB8B01944CF2186146
:103C80001A227A3B0291009238461BB240F223126C
:103C900003210BF0D1FA384629880DF07DFA9CE516
:103CA000FB8BCDF804804CF218611C227A3B029108
:103CB000009238461BB240F2031203210BF0BCFA0B
:103CC000384629880DF068FA50E5FB8BCDF8048062
:103CD0004CF218611C227A3B0291009238461BB2CA
:103CE000E32203210BF0A8FA384629880DF054FA94
:103CF00004E500BFB05DFF1FA568FF1F48FF03007C
:103D00004CFF03000009002050FF03005C08FF1F68
:103D1000B888FF1F24FF0300FB8BCDF804804CF212
:103D200018611C227A3B0291009238461BB2C322D2
:103D300003210BF081FA384629880DF02DFAA7E40B
:103D4000FB8B01924CF218611C227A3B029100928B
:103D500038461BB2A32203210BF06EFA384629889D
:103D60000DF01AFA49E4FB8BCDF804804CF218618F
:103D70001C227A3B0291009238461BB28322032117
:103D80000BF05AFA384629880DF006FAFFF7FFBB08
:103D9000FB8BCDF804804CF218601C227A3B029019
:103DA000009238461BB263220BF046FA3846298847
:103DB0000DF0F2F9FFF7B5BBFB8BCDF804804CF2A8
:103DC00018611C227A3B0291009238461BB24322B2
:103DD00003210BF031FA384629880DF0DDF9FFF7A1
:103DE0006ABBFB8BCDF804804CF218611C227A3B35
:103DF0000291009238461BB2232203210BF01CFAD9
:103E0000384629880DF0C8F9FFF71FBB2DE9F047A8
:103E10008DB282B0374E05F1040905F1110197B258
:103E20000FFA89F903B209B284B24A4600913046CA
:103E3000194601970DF0F8FD631C05F110001BB247
:103E400000B219464A460090019730460DF0ECFD4D
:103E500005F10E0804F108030FFA88F81BB21946A1
:103E60004A46CDF80080304601970DF0DDFD04F1A3
:103E700009031BB2CDF800804A4619463046019727
:103E80000DF0D2FD04F1020904F1040A05F10D025E
:103E90000FFA89F90FFA8AFA12B24946534600928C
:103EA000304601970DF0C0FD53464946CDF80080DD
:103EB0004246304601970DF0B7FD04F1050805F1C3
:103EC0000C0207340FFA88F824B212B22346414696
:103ED0000092304601970DF0A7FD05F10B0212B2DA
:103EE000234641468DE8840030460DF09DFD02B02A
:103EF000BDE8F087B05DFF1F10B50FF023F809286B
:103F000027DC324C30303023607023700FF02AF8F9
:103F1000092831DC30303023E070A3700EF0E2FF6E
:103F200009283BDC30303023607123710EF0EAFF4A
:103F3000092845DD264BC21783FB0013C2EBA30300
:103F400003EB8302A0EB420030303033E071A37109
:103F500010BD1F4B1D4C83FB0032C317C3EBA203E4
:103F600003EB8302A0EB42003030303360702370EB
:103F70000EF0F8FF0928CDDD154BC21783FB0013A7
:103F8000C2EBA30303EB8302A0EB420030303033DB
:103F9000E070A3700EF0A6FF0928C3DD0C4BC2171A
:103FA00083FB0013C2EBA30303EB8302A0EB4200ED
:103FB00030303033607123710EF0A4FF0928B9DC72
:103FC00030303023E071A37110BD00BF0408FF1F23
:103FD000676666662DE9F0432F4E002389B00746D9
:103FE000336008E0336868460133336006F0A0F8B8
:103FF000684606F091F868460122394606F094FAC0
:10400000684606F0A3F80028ECD1384606F0E6FA38
:10401000684606F081F83568B5F1FE6F39D94FF082
:10402000FF3012F019FE102380E8280000F1080983
:104030006C1E4DB14D462846013C002112F0D2FCC9
:10404000631C05F11005F6D13368DFF85080002BB2
:10405000C8F800901ADD002401223946684606F0AF
:1040600063FAD8F80030684603EB041506F056F8FA
:104070000146284612F02CFD684606F059F86846BD
:1040800006F04AF833680134A342E5DC09B0BDE824
:10409000F08328010830C4E7A068FF1F301AFF1F13
:1040A00008B5C8224FF4DC71112012F0B7FBDC20F8
:1040B00010F058FBC8224FF4DC71112012F0AEFB57
:1040C000DC2010F04FFB1120C8224FF4DC7112F0FD
:1040D000A5FBDC20BDE8084010F044BB70B594B0EF
:1040E0000CA801234F4A504906F08EF90CA806F09F
:1040F0002DF820B90CA806F00FF814B070BD684672
:104100004A494B4E12F06EFC0CA805F071FF90B1BD
:104110000CA805F08BFFC3B2392B1946684606D8A8
:104120000A2B13D012F016FD029B202BECD9FFF7BF
:10413000B7FFFEF74BFC0CA805F0FAFF684612F03B
:1041400011FC0CA805F0E8FF14B070BD2C216846E6
:1041500012F040FD05466C1C03464FF00002694614
:1041600004A8334CE3D012F045FD6A1C029B69465B
:1041700008A812F03FFD04A812F060FD054608A84B
:1041800012F05CFD294946F82500684612F0A0FCB3
:1041900008A812F0E7FB04A812F0E4FB40F6FF7356
:1041A0009D42B1D1234B2068186000221346226043
:1041B00054F823100133B3F5805F0A44F8D140BBB3
:1041C0001D4B18601D4B1E4A186811681D4CFEF7E8
:1041D000BDFB1D48002323602646054650F82310EA
:1041E0002268914284BF55F8232032600133B3F531
:1041F000007FF3D12368012B01D9FEF7D3FA23689E
:1042000063B94FF47A7010F0ADFA0CA805F090FF86
:1042100091E7094BB2FBF0F21A60D3E7FEF766FBB9
:10422000EFE700BF0408FF1F0C090020C469040069
:10423000DC88FF1F8C1CFF1FE016FF1F681CFF1F80
:104240002808FF1F701CFF1F9C60FF1F30B595B032
:104250000CA80123324A334906F0D6F80CA805F021
:1042600075FF20B90CA805F057FF15B030BD6846A2
:104270002D492E4D12F0B6FB0CA805F0B9FE80B109
:104280000CA805F0D3FEC3B2392B1946684606D8F0
:104290000A2B11D012F05EFC029B202BECD9FFF709
:1042A000FFFE0CA805F044FF684612F05BFB0CA86B
:1042B00005F032FF15B030BD2C21684612F08AFCA3
:1042C0000446B4F1FF3F03464FF00002694604A8DC
:1042D000E5D012F08FFC621C029B694608A812F020
:1042E00089FC04A812F0AAFC044608A812F0A6FC57
:1042F0000D4945F82400684612F0EAFB08A812F0C0
:1043000031FB04A812F02EFB40F6FF739C42B3D1A0
:104310004FF47A7010F026FA0CA805F009FFC0E7F8
:1043200058FF03000C090020C4690400FCC8FF1FEB
:1043300008B564224FF45C71112012F06FFA652009
:1043400010F010FA642240F21741112012F066FAC0
:10435000652010F007FA1120642240F2275112F074
:104360005DFA6520BDE8084010F0FCB908B5C82228
:1043700040F22751112012F051FAC92010F0F2F941
:104380001120DC2240F2174112F048FADD20BDE88E
:10439000084010F0E7B900BF70B594B0FFF7ACFD6E
:1043A000394B3A4818603A4A3A490CA8132306F0A8
:1043B0002BF80CA805F0CAFE20B90CA805F0ACFE3D
:1043C00014B070BD3449354E08A812F00BFB344AC6
:1043D0003449354B12681B68096804A801FB023197
:1043E0000A2212F045FB04A908A812F0C3FB0146FB
:1043F0002E4812F065FB04A812F0B4FA08A812F0D7
:10440000B1FA2A490CA811F0DBFF0CA811F0FEFF4D
:1044100001240A222146684612F016FB694604A8C8
:1044200012F0F4FA224904A812F0ACFB0A2256F862
:104430002410054608A812F02FFB08A9284612F000
:1044400099FB0146194812F03BFB08A812F08AFAC2
:1044500004A812F087FA684612F084FA13490CA8EF
:1044600011F0AEFF01340CA811F0D0FFB4F5805F5D
:10447000CFD1FFF77BFF0CA805F05AFE0CA805F082
:104480004BFE14B070BD00BF78090020AD040000E1
:104490000408FF1F0C09002068FF0300DC88FF1FD1
:1044A0009C5DFF1F6C08FF1F8C1CFF1F781CFF1FEB
:1044B0006CFF0300F8B51248124F00253D602C46F2
:1044C00029462B46064650F823208A4203D956F83F
:1044D0002340012521460133B3F5805FF3D165B94F
:1044E000094B994208D9094C01232370FFF754FF67
:1044F000FEF76CFA00232370F8BD3C60F0E700BFC4
:10450000DC88FF1F881CFF1F80969800351AFF1F4C
:1045100070B52B492B4894B005F0EAFF002849D12B
:10452000294B2A481860264A26490CA8132305F06F
:104530006BFF0CA805F00AFE002836D0244E00249C
:104540000A222146684612F07FFA694604A812F052
:104550005DFA204904A812F015FB0A2256F824102F
:10456000054608A812F098FA08A9284612F002FB9E
:104570000146194812F0A4FA08A812F0F3F904A8A9
:1045800012F0F0F9684612F0EDF913490CA811F099
:1045900017FF01340CA811F039FFB4F5805FCFD1BB
:1045A000FFF7E4FE0CA805F0C3FD0CA805F0B4FD70
:1045B00014B070BD0249034805F0A8FFB0E700BF82
:1045C00058FF03000C09002078090020AD0400000A
:1045D000DC88FF1F6CFF0300781CFF1F38B53524F3
:1045E00044F6B0250121112010F0A2F82B46013B22
:1045F000FDD10021112010F09BF82B46013BFDD18D
:10460000013CEFD1412443F638350121112010F04F
:104610008FF82B46013BFDD10021112010F088F8C6
:104620002B46013BFDD1013CEFD1352444F6B025AA
:104630000121112010F07CF82B46013BFDD1002117
:10464000112010F075F82B46013BFDD1013CEFD154
:1046500038BD00BF2DE9F04F2DED028B0A2083B04D
:10466000D84F10F07FF800243D4620460FF010FA96
:104670000134042C05F8010BF7D1D34D20460FF07F
:1046800007FA0134082C05F8010BF7D1DFF89493F1
:104690004D4620460FF0FCF901340C2C05F8010BB7
:1046A000F7D1CA4D2E4620460FF0F2F90134102CF6
:1046B00006F8010BF7D1C64EB24620460FF0E8F9D6
:1046C0000134142C0AF8010BF7D1DFF85CA3D346B0
:1046D00020460FF0DDF90134182C0BF8010BF7D14F
:1046E000DFF848B32424D84620460FF0D1F901342E
:1046F000282C08F8010BF7D19BED008ADFEDB57A85
:10470000B4EEE78AF1EE10FA00F33581DFEDB27A0C
:10471000B4EEE78AF1EE10FA00F12D81DFF810B364
:104720002924D84620460FF0B3F901342D2C08F87F
:10473000010BF7D1DBED007A9FEDA87AF4EEC77A92
:10474000F1EE10FA00F310819FEDA37AF4EEC77A30
:10475000F1EE10FA00F10881B0EE007AF0EE086A8E
:10476000B0EE676AA8EE076A9D4B9E4AE8EE267A8D
:10477000282082ED006AC3ED007A0FF089F99A4B88
:10478000002840F0FF80187019200FF081F90828E8
:10479000964C00F300812060002800F009811F2062
:1047A0000FF076F9642300FB0330914A44F620634E
:1047B0009842106000F2A481DFF878B21A242046F3
:1047C0000FF066F901341E2C0BF8010BF7D1DFF85E
:1047D00068B2202420460FF05BF90134242C0BF83A
:1047E000010BF7D118200FF053F9022800F27C8159
:1047F000804B1870D5ED007A002840F023819FEDA2
:104800007E7A77EEC77AFDEEE77A17EE903A63B9D3
:10481000D6ED007A9FED797A77EEC77AFDEEE77AEA
:1048200017EE903A002B00F0768102AC4FF08443F3
:1048300044F8043D04220C2120460FF06BF90A20B5
:104840000FF090FF6E4B01930422102120460FF0D1
:1048500061F90A200FF086FF6A4B0193204604227B
:1048600014210FF057F90A200FF07CFFFFF718FC16
:104870004FF08443624A2B60624B3260CAF80030CA
:10488000D7ED007AF5EEC07AF1EE10FA06D99FED79
:104890005E7AF4EEC77AF1EE10FA0BDD02A85B4BFC
:1048A00040F8043D042200213B600FF033F90A2058
:1048B0000FF058FF444BD3ED007AF5EEC07AF1EEDD
:1048C00010FA06D99FED507AF4EEC77AF1EE10FA9D
:1048D0000CDD02A84E4B3C4C40F8043D042211462E
:1048E00023600FF017F90A200FF03CFFD9ED007A92
:1048F000F5EEC07AF1EE10FA06D99FED437AF4EEA8
:10490000C77AF1EE10FA0CDD02A8424B40F8043DE4
:1049100004220821C9F800300FF0FCF80A200FF03B
:1049200021FF2D200FF0B4F805462E200FF0B0F82F
:10493000394E00EB05252F2035600FF0A9F804460D
:1049400030200FF0A5F8354B00EB042085421860AD
:1049500040F3BA800A2140F6F67231601A6003B063
:10496000BDEC028BBDE8F08F9FED2D7AF0EE477A1B
:104970008BED007AF0E6F2EE047AB0EE678ACBEDCA
:10498000007ACBE6012219201A700FF081F808286E
:10499000164C7FF700AF08231946192023600FF04B
:1049A00091F80A200FF0DEFE206800287FF4F7AEB1
:1049B00001231946192023600FF084F80A200FF014
:1049C000D1FEECE67C5DFF1F805DFF1F5C1CFF1FBE
:1049D000601CFF1F0000C842CDCCCC3D00009643B8
:1049E000581CFF1FA868FF1F8060FF1F2808FF1FBB
:1049F0006C08FF1F9C68FF1F0000004200802544D8
:104A0000008025440080B64400F07F450000D0427D
:104A100000007A44008006451408FF1F5008FF1F5D
:104A200000001643845DFF1F641CFF1F6808FF1F02
:104A30001808FF1FE407FF1F2C08FF1F00003A4360
:104A400000401844012874D01FED047A77EEC77A2D
:104A5000FDEEE77A17EE903A63B9D6ED007A1FEDD6
:104A6000087A77EEC77AFDEEE77A17EE903A002BD8
:104A700000F0A88002AC5A4B44F8043D04220C21FB
:104A800020460FF047F80A200FF06CFE554B0193BB
:104A90000422102120460FF03DF80A200FF062FE9C
:104AA000514B01932046042214210FF033F80A20C1
:104AB0000FF058FEFFF7F4FA494B4A4A2B604A4B75
:104AC0003260CAF80030DBE6092DDCBF0A22326012
:104AD000B0F5805FFFF643AF40F6F6721A6003B0A0
:104AE000BDEC028BBDE8F08F0023404C1946182026
:104AF00023700EF0E7FF0A200FF034FE207879E6ED
:104B00004FF4616324211F2013600EF0DBFF0A20A5
:104B10000FF028FE50E6DAED007A9FED357A77EE59
:104B2000C77AFDEEE77A17EE903A002B3FF4A0AE7D
:104B30007BE69FED307A77EEC77AFDEEE77A17EEE7
:104B4000903AABB9D6ED007A9FED2B7A77EEC77A23
:104B5000FDEEE77A17EE903A53B9DAED007A9FED61
:104B6000277A77EEC77AFDEEE77A17EE903A0BB325
:104B700002AC234B44F8043D04220C2120460EF0E5
:104B8000C9FF0A200FF0EEFD1E4B019304221021F5
:104B900020460EF0BFFF0A200FF0E4FD1A4B0193F0
:104BA0002046042214210EF0B5FF0A200FF0DAFD92
:104BB000FFF776FA124B134A2B60134B3260CAF898
:104BC00000305DE6DAED007A9FED107A77EEC77A75
:104BD000FDEEE77A17EE903A002B3FF46DAF49E710
:104BE00000003A43004018440000DC449C68FF1F6A
:104BF0000080B6440000F4420000AC430000B04422
:104C00000000F4420000AC430000B0440000DC446B
:104C1000174A184B92ED007AD3ED007A16491748DF
:104C2000B8EE477AF8EE677A0022C7EE276AF1EE0F
:104C3000666A51F8223007EE903A50F8223007EEBB
:104C4000103AF8EE677AB8EE477AE6EE877AF5EE34
:104C5000C07AF1EE10FA56BFFCEEE77A002317EEA9
:104C6000903A41F822300132B2F5805FE1D17047CD
:104C70008C1CFF1F6C08FF1FDC88FF1FFCC8FF1F78
:104C800040F63C739842F0B540DC63285FDC324963
:104C9000324A002351F8230042F823000133C92B84
:104CA000F8D12F4E00214C1C52F8210052F824C09C
:104CB0002A4D8B1C01F1030E0F1D52F82EE052F805
:104CC000233052F8277000EB800000EB8C00384452
:104CD00000EB4E0003EB43030344A6FB0303DB0896
:104CE000C52C42F821302146DDD1D5F81033C5F866
:104CF0001433D5F81033C5F81833D5F81033C5F888
:104D00001C33D5F81033C5F82033F0BD184640F6F3
:104D10003D7440F6D8661049104A00239D190E4F85
:104D200051F8255042F823500133642B0B4DF5D137
:104D300057F82030C5F89031652351F8240042F827
:104D400023000133C92B04F10104F6D1A9E7A0F136
:104D50006406441CDFE700BFDC88FF1F0C17FF1F41
:104D6000898888886328F0B52FDC00F10A01A0F15A
:104D70000A032D4C54F8235054F8212000262A44CD
:104D80008B424FEA520E31460CDC00F10B052746F0
:104D900054F823208A4284BF57F823101E4601335B
:104DA000AB42F5D186423BD1BEFBF1F207EE902A31
:104DB0009FED1E7AF8EEE77AF4EEC77AF1EE10FA7C
:104DC0002ED51B4B01201E60F0BDA0F16403164CD4
:104DD000643054F8231054F8202000230A44560865
:104DE00020461D46194654F823208A4284BF50F8B5
:104DF00023101D460133C92BF5D1642D10D1B6FB0C
:104E0000F1F207EE902A9FED097AF8EEE77AF4EED8
:104E1000C77AF1EE10FA03D5054B01201D60F0BDF5
:104E20004FF0FF30F0BD00BF0C17FF1F6666663FF6
:104E30003808FF1F2DE9F04F2DED028B83B014F0E1
:104E400063F941EC100B12F0B7F951EC100B14F0B0
:104E500071FC734B734D1E683128A8BF31200023AD
:104E6000642E19BF06F1FF3B741C65244FF0630BE1
:104E70001A4655F823100133C82B0A44F9D1B2F56C
:104E8000FA7FC0F0AB804FEA400ACAEB0B0B5E45DD
:104E900040F3AE8000FB0AF007EE900AB8EEE78A16
:104EA0000027C6EB0B0307EE903AF8EEE77A67EEC1
:104EB000A77A87EE887AF1EE477A17EE900A14F017
:104EC00035F941EC100B12F06BF853EC102B55F840
:104ED0002B00CDE9002314F007F9DDE9002314F0DD
:104EE00079F980463846894614F020F902460B4687
:104EF0004046494613F0BCFF14F064FC0BF1010B73
:104F00005E450746CDD104EB0A0B5C457CDA4FF0D9
:104F1000000AA31B07EE903AF8EEE77A67EEA77A4D
:104F200087EE887AF1EE477A17EE900A14F0FEF8D1
:104F300041EC100B12F034F853EC102B55F8240010
:104F4000CDE9002314F0D0F8DDE9002314F042F994
:104F500080465046894614F0E9F802460B46404622
:104F6000494613F085FF14F02DFC01345C45824660
:104F7000CFDB07EE10AA07EE907A77EEC77AF5EE50
:104F8000C07AF1EE10FAD8BFF1EE677A17EE900A08
:104F900014F0CCF8044638460D4614F0C7F8024623
:104FA0000B462046294614F03FFA00221E4B14F00F
:104FB00083FB98B1504614F0B9F802460B462046E0
:104FC000294614F031FA0022174B14F075FB28B172
:104FD000012003B0BDEC028BBDE8F08F134B002223
:104FE0004FF0FF301A6003B0BDEC028BBDE8F08FCC
:104FF00004EB0A0B5C450ADA00FB0AF007EE900AA4
:105000000027B8EEE78A82E74FF0000AB1E70022F6
:10501000002300244FF000454FF0000AC1E700BF15
:105020003808FF1F0C17FF1F0000D03F741CFF1F24
:1050300070B586B001A9012238480EF0C3F80028E7
:1050400048D09DF80430222B05D0282B03D0102BFC
:105050005FD006B070BD002630480DF0F1FF01A909
:105060002E480EF08FF8012244212C480EF05AF8F9
:105070004FF47A700FF076FB28480DF0E1FF01A99C
:1050800026480EF07FF80022BE2124480EF04AF890
:105090000DF10B0405AD21480EF064F804F8010F82
:1050A000AC42F8D19DF80D209DF80C3043EA022364
:1050B0001BB2BEB19DF81320102A4FEAC30320D0C3
:1050C0001BB207EE903A164AFAEECE7AC2ED007A9B
:1050D00006B070BD11480EF067F8FA200FF042FBE1
:1050E00006B070BD9DF8102012F0600206D0202A94
:1050F00011D0402A08BF23F00103E2E723F00703A1
:10510000DFE79DF8122023F00F03C2F10C021344D5
:10511000D6E70126A0E723F00303D2E7BC88FF1FF0
:10512000101CFF1F10B50D4C217861B924200FF021
:10513000FFFA01200FF016FB012124200FF0F8FAEE
:105140000123237010BD002124200FF0F1FA0A2062
:105150000FF008FB0023237010BD00BF3C1AFF1F97
:10516000012814DD38B505460124012115200FF072
:10517000DFFA64200FF0F6FA002115200FF0D8FABC
:10518000013464200FF0EEFAA542EED138BD70472D
:1051900010B5012115200FF0CBFA0F4C0F4B0A224E
:1051A00019682046002311F057F905210C480FF02B
:1051B0005DFD0C4B186813F0B9FF41EC100B204655
:1051C000022111F091F9084805210FF04FFD20460A
:1051D000BDE8104011F01AB9300CFF1FE016FF1F98
:1051E00070FF0300F0C8FF1F78FF0300184A194939
:1051F000194B92ED006AD1ED005AD3ED006A1920E7
:1052000040F6E77202E0013090421ED007EE900AAD
:1052100000FB00F3F8EEE77A07EE103A67EE867AC5
:10522000B8EEC77AE7EE257A77EEA67A70EE677A5F
:10523000F5EEC07AF1EE10FAD8BFF1EE677AF4EE2F
:10524000E07AF1EE10FADED870474FF0FF30704789
:105250004808FF1FC41CFF1FF8C8FF1F484A494BDE
:1052600011681A689FED487A10B4484C914284ED59
:10527000007A12DA4648B1EE046A30F811309BB277
:1052800007EE903AF8EEE77A0131C7EE866A91426E
:1052900037EE267AF1D184ED007A3E4B1B689342BB
:1052A00027DDD4ED006A3A48DFED3B4A9FED3B5ADB
:1052B000B7EE006A07EE902AF8EEE77AB0EE457A8C
:1052C000A7EEA47A30F8121089B207EE901AB4EE65
:1052D000467AF1EE10FAF8EEE77A48BFB0EE467A79
:1052E000C7EE875A01329A4276EEA56AE2D1C4ED42
:1052F000006A2B4A1168994229DDD4ED006A2448DE
:105300009FED285ADFED285A9FED286AF7EE004AF4
:1053100007EE903AF8EEE77AB0EE654AA7EE854AD6
:1053200030F81320B0EE007AB4EEC64AF1EE10FA6F
:1053300088BF84EE847A92B201338B4207EE902AC2
:10534000F8EEE77AE7EE876AE2D1C4ED006A184B1F
:105350001A68914211DA94ED007A0D4830F8113054
:105360009BB25B0007EE903A0131F8EEE77A91428A
:1053700037EE277AF2D184ED007A5DF8044B70475E
:105380001408FF1FDC1CFF1F00000000B81CFF1FDB
:10539000B468FF1F281CFF1FB37BF2BBCDCCBC4001
:1053A0002C1CFF1FA69B44BA508DBF3F1100003F2D
:1053B0005008FF1F2DE9F04F2DED0A8B01288BB00F
:1053C000894640F35F81B44B9842824640F35F8147
:1053D000DFEDB29A9A46B24CD4ED007AF4EE697AD7
:1053E000F1EE10FA00F04981AAF51C53113BAAF521
:1053F000C3320893A2F1A1030993AAF10B03059309
:10540000AAF1650306936FF47A735344A54EA64D33
:105410009FEDA69A9FEDA68ADFEDA68A079313E17A
:1054200094ED007AF7EE007A37EE677AF3EE097AB8
:1054300027EE277AF2EE026AC7EE267A77EEC97A6D
:10544000059B592B0DD894ED007AF2EE067A37EED3
:10545000677AF3EE087A27EE277AC7EE087A77EEB6
:10546000E87A069BB3F5617F11D29FED937AD4ED74
:10547000006A9FED926ADFED927A76EEC76AB3EE2C
:10548000087A66EE876A86EE867A77EE677A079AFA
:1054900042F227339A420FD8DFED8A7A94ED007AF0
:1054A000DFED896A37EE677AF3EE087A27EE277A1E
:1054B000C7EE267A77EEC87A844B089A9A4211D8BA
:1054C0009FED837AD4ED006A9FED826ADFED827AE8
:1054D00076EEC76AB3EE087A66EE876A86EE867A5B
:1054E00077EE677A099A4CF24F339A4211D89FEDC2
:1054F0007B7AD4ED006A9FED7A6ADFED7A7A76EEF8
:10550000C76AB3EE087A66EE876A86EE867A77EE29
:10551000677A9FED757A9FED75AA67EE877A002707
:1055200017EE900A13F002FE41EC100B41EC1C0B3D
:1055300011F076FCB0EE40BAF0EE60BAB0EE4C0A74
:10554000F0EE6C0A11F0CCFCB5F90020B6F9003091
:105550000092ED214FF48272654801978DED020BA8
:105560000CF062FAB5F90020B6F9003060488DE819
:105570008400F3214FF482720CF056FA51EC1B0BAD
:1055800014F020F9DFED5B7A07EE100AE7EE0A7AF5
:1055900040F2FF789DED020BFCEEE77A51EC100B28
:1055A000CDED027ABDF808B0A6F800B014F00AF903
:1055B000DFED517ACDF8048007EE100AE7EE0A7AA3
:1055C0000FFA8BF34FF48272ED21FCEEE77A484834
:1055D000CDED027ABDF808E0A5F800E00FFA8EFCE8
:1055E000CDF800C00CF020FAB5F90020B6F9003073
:1055F0003F488DE80401F3214FF482720CF014FA55
:1056000005234FF48272F0213948CDF8008009F06B
:105610003FFB40F2EF3300934FF482720423F021FA
:10562000334809F065FD3B464FF48272F021304863
:1056300007F052FD48460FF095F8D4ED007AF4EEED
:10564000697AF1EE10FA18D0F4EEE97AF1EE10FA78
:10565000B7EE007A4CBF77EE877A77EEC77AC4ED63
:10566000007AB9F1000F01D1C4ED009ABAF10A0F26
:105670007FF7D6AEDFED217AE2E60BB0BDEC0A8B08
:10568000BDE8F08FF0EE009A4FF0020AA3E607EEB5
:10569000900AF8EEE79A9EE6F0490200007C124874
:1056A0004008FF1F6408FF1F5408FF1F0000254328
:1056B0000000B24200000B430000CA4200C0604438
:1056C0000000E44200407A44009C0C468F5F0100D9
:1056D00000441C4680C7AF47000080428050C3474B
:1056E000004F434700001C4235FA8E3C00000C433B
:1056F000B05DFF1F00007043000082430000000007
:1057000070B501210E200FF013F80C4E0C4A0D4C11
:105710000D490020002510600346306002462560D8
:1057200021F813200133B42BFAD1032207491020AA
:105730000EF000FD064B01221A7070BDE816FF1F27
:10574000401AFF1FFC080020A81AFF1F9904000040
:105750000009002008B510200EF068FD0A4A0B4829
:10576000002313701A4620F813200133B42B4FF096
:105770000001F8D10648074B016000221A600E2094
:10578000BDE808400EF0D4BF00090020A81AFF1F92
:10579000401AFF1FFC080020154B164816499FEDC4
:1057A000177A10B41C68026892B221F814201A68A3
:1057B00001321A601A68B32A84BF00221A600022DC
:1057C00031F812309BB207EE903A0132F8EEE77AE8
:1057D000B42A37EE277AF3D1DFED096A094A5DF87A
:1057E000044BC7EE267A0023C2ED007A03607047AF
:1057F000E816FF1F401AFF1FA81AFF1F0000000035
:1058000000003443FC08002038B510F063FA00288B
:1058100004DD10F023FAC0B2472800D038BD0F4D88
:1058200000242C6021460E4810F056FE01210D4840
:1058300010F07AFA55F82410094800230A2210F0D3
:105840000BFE074810F0E2FD4FF4C873013BFDD199
:105850000134B4F5805FE5D138BD00BFDC88FF1F9F
:10586000580CFF1F6CFF0300F0B585B00EF0C8F8B0
:10587000022101200EF070FF022100200EF06CFFCB
:105880004F4B504C99681A684F4B012001F5007737
:1058900002F50076002527606660E5602072607280
:1058A000013BFDD191F8003292F800224549D20720
:1058B00003EA000344BF43F00203DBB20120A372FA
:1058C000FCF732FC3F4920740020FCF72DFC237CC0
:1058D000052103443D4823740DF096FB12200B2153
:1058E0000D220C238DE80F00172313223849394865
:1058F00007F0AEF93849394811F074F8384A394997
:10590000364813F0A9FA3849384811F06BF8344A90
:105910003449364813F0A0FA3549364811F062F898
:105920002F4A3049334813F097FA3349334811F07E
:1059300059F82B4A2B49314813F08EFA3049314837
:1059400011F050F8264A27492E4813F085FA2E49BF
:105950002E4811F047F8224A22492C4813F07CFACD
:105960002B492C4811F03EF81D4A1E49294813F0D6
:1059700073FA2949294811F035F8194A1949274875
:1059800013F06AFA2649274811F02CF8144A1549F1
:10599000244813F061FA0021234811F023F8104A3B
:1059A0001049214813F058FA204804F0A7FB0C4A8C
:1059B0001F491E4805B0BDE8F04013F04DBA00BFC6
:1059C00040700400141CFF1F80380100BC88FF1FBA
:1059D0007C08FF1FB05DFF1F80FF0300981AFF1FA8
:1059E000D407FF1F6569010088FF03006C5DFF1F7E
:1059F00090FF03008C5DFF1F98FF0300A05DFF1F59
:105A0000A0FF03005C60FF1FA8FF03006C60FF1F86
:105A1000B0FF03008860FF1FB8FF0300981CFF1F42
:105A2000C0FF0300A81CFF1F781CFF1FEC16FF1F00
:105A300019A10000F0B5054685B00E4616205F217D
:105A40000EF050FC1C4B1D4C4FF6FF774FF05F0ED5
:105A50000297C3F800E04FF0050E1E238DE80840C2
:105A600032B2962329B2204609F0E6FB0222114603
:105A700020460BF083FB20464FF478410BF08CFB63
:105A800006F1080205F10A010023204612B209B20C
:105A90000BF016FB20460B2209490CF0CFFF012228
:105AA000204611460BF06AFB3946204605B0BDE89A
:105AB000F0400BF071BB00BFD807FF1FB05DFF1FA8
:105AC000C8FF030010B51D4B1C7882B06CB10922D1
:105AD00000238DE80C0064214FF4AF7340F23512BF
