:10000000F8FF022099010000F1AA0100A9AA01004D
:10001000A9AA0100A9AA0100A9AA0100A9AA010090
:10002000A9AA0100A9AA0100A9AA0100F1AA010038
:10003000F1AA0100A9AA010099CF01009DCF0100FA
:10004000F1AA0100F1AA0100F1AA0100F1AA010040
:10005000F1AA0100F1AA0100F1AA0100F1AA010030
:10006000F1AA0100F1AA0100F1AA0100F1AA010020
:10007000F1AA0100F1AA0100F1AA0100F1AA010010
:10008000F1AA0100F1AA0100F1AA0100F1AA010000
:10009000F1AA0100F1AA0100F1AA0100F1AA0100F0
:1000A0004DA3010059A30100F1AA0100F1AA01002A
:1000B000F1AA0100F1AA0100F1AA0100F1AA0100D0
:1000C000F1AA0100F1AA0100F1AA0100F1AA0100C0
:1000D000F1AA0100F1AA0100F1AA0100752B0000AC
:1000E000F1AA0100F1AA0100F1AA0100D50801005E
:1000F000F1AA0100F1AA0100F1AA0100F1AA010090
:10010000E9D10100FDD1010011D2010025D2010089
:10011000F1AA0100E1BE0100F1AA0100F1AA01006B
:10012000F1AA0100F1AA0100F1AA0100F1AA01005F
:10013000F1AA0100F1AA0100F1AA0100F1AA01004F
:10014000F1AA0100F1AA010055BC0100F1AA0100C9
:10015000F1AA0100F1AA0100F1AA0100F1AA01002F
:10016000F1AA0100F1AA010065A30100F1AA0100B2
:10017000F1AA0100F1AA0100F1AA0100F1AA01000F
:10018000F1AA0100F1AA0100F1AA0100F1AA0100FF
:10019000F1AA0100F1AA0100584B4CF2205210B50F
:1001A0001A804DF628121A8000BF00BF1AF0A4FC76
:1001B000534B4FF030621A60524A9A60524ADA60EA
:1001C000524B4FF470021A60514A136813F4807353
:1001D00004D150490B604FF4A85313604E4B1A786A
:1001E000110703D51A7842F008021A704B4B4C499C
:1001F0002A221A704B4A4C4B8B4204D252F8040FFD
:1002000043F8040BF8E7494B494900228B4202D2DC
:1002100043F8042BFAE74749474A002352F82300E2
:1002200041F823000133662BF8D1444B444A802126
:1002300003F8011B9342FBD1424B3E4A1A60424BEA
:100240008A221A70A3F5805324225A70A0221A70B1
:100250009A799207FCD59A79D406FCD43B4A9379D3
:1002600003F00C03082B394BF9D103221A714622F3
:100270005A719A799006FCD5344A9179334B4906E4
:10028000FBD5334A4FF08271116009215160202261
:100290001A709A7902F00C020C2AFAD12D4B2E4AD0
:1002A0001A602E4B2E4A1A6000225A60072243F829
:1002B000042C2C4AC3F80C2D62B61BF0F3F9154B35
:1002C0001B68DA0705D528481AF04CFF274B284A47
:1002D0001A60284B1B785B0609D5244C244B2268F6
:1002E0009A4204D120481AF03DFF0023236021F0F8
:1002F00057FA1AF007FC1DF039FCFEE70E20054006
:1003000030800440823F04000100002B88ED00E0B3
:1003100010D0034014D0034002D0074000E0074053
:10032000D017FF1F78220500F806FF1FD017FF1F08
:100330003C5300200002FF1F0000000000E400E02A
:1003400056E400E008ED00E00050064000400640A2
:100350004480044004800440C010050014E000E024
:10036000BFD40100000020202B047B611CE003406F
:10037000A5C3945A00F00740FFFFFFFFFFFFFFFFF8
:10038000FFFFFFFFFFFFFFFFFFFFFFFFFFFFFFFF7D
:10039000FFFFFFFFFFFFFFFFFFFFFFFFFFFFFFFF6D
:1003A000FFFFFFFFFFFFFFFFFFFFFFFFFFFFFFFF5D
:1003B000FFFFFFFFFFFFFFFFFFFFFFFFFFFFFFFF4D
:1003C000FFFFFFFFFFFFFFFFFFFFFFFFFFFFFFFF3D
:1003D000FFFFFFFFFFFFFFFFFFFFFFFFFFFFFFFF2D
:1003E000FFFFFFFFFFFFFFFFFFFFFFFFFFFFFFFF1D
:1003F000FFFFFFFFFFFFFFFFFFFFFFFFFFFFFFFF0D
:10040000FFFFFFFFFFFFFFFFFFFFFFFFDEF9FFFF23
:1004100010B5054C237833B9044B13B10448AFF33E
:1004200000800123237010BDD017FF1F00000000C3
:1004300074220500084B10B51BB108490848AFF3FA
:1004400000800848036803B910BD074B002BFBD0A0
:10045000BDE81040184700BF00000000D417FF1F80
:1004600074220500D017FF1F000000000020704715
:10047000704700BF0349044B4FF4804001220860DD
:100480001A60704708F00F40E8A5FF1F014B0122DA
:100490001A607047744C0020034A04491368012015
:1004A00003441360086070478CA5FF1FC0A5FF1FA1
:1004B0001AF052BEF8B50E46074619F0B5FC0546CF
:1004C00019F0A2FC044619F08FFC6401C0B204F4D8
:1004D000FF54ADB2A5F2BC75044344EA45243C8008
:1004E00019F052FC054619F05FFC044619F06CFC4B
:1004F000ED02640105F4FF2504F4FF542C43C0F31E
:10050000460004433480F8BD9FED3D7A38B53D4C3C
:10051000F0EE476A002234F812309BB207EE903AB0
:10052000F8EEE77A013277EEA67A3C2A37EE277AA0
:10053000F1D1DFED356A354DC7EE267A29212846FF
:100540000422C5ED007A1AF037FA0A201BF05CF895
:1005500095ED006ADFED2A6A002134F8112034F8A5
:10056000113092B207EE902A9BB2B8EEE77A07EE0E
:10057000903AF8EEE77A36EE477A76EE677A01310E
:100580003C29E7EE276AE8D1DFED217A214B224CA6
:1005900086EEA77A00221A6017EE100A20F012FDEC
:1005A00041EC100B1DF038FF51EC100B21F056F808
:1005B000D5ED007A194B07EE100AF0EE006AB0EEA6
:1005C000086AF0EE675AE7EE265A1548E7EE067A13
:1005D0000422242180ED007AC3ED007AC4ED005A94
:1005E0001AF0EAF90A201BF00FF8012128201AF06E
:1005F000BBF90A201BF008F80A4B01221A7038BD1B
:1006000000000000C44C002000007042D807FF1F0B
:1006100000006C42880B00206465FF1FD0A5FF1FFF
:100620004008FF1FE4A5FF1F214B10B41A6913688F
:10063000506819780478507A137A044201EA030169
:100640001BD0937A03F0030309B143F0040343F092
:1006500008039910013B91720D2B0BD8DFE803F0D2
:1006600021071B070A152121150A071B0721D3683B
:10067000013BD3605DF8044B7047937A03F00303AA
:100680000029E6D043F00403E3E7D3685DF8044BA8
:10069000023BD3607047D3685DF8044B0233D360EC
:1006A0007047D3685DF8044B0133D360704700BFD7
:1006B00020500020214B10B45A69136850681978F3
:1006C0000478507A137A044201EA03011BD0937A2A
:1006D00003F0030309B143F0040343F00803991046
:1006E000013B91720D2B0BD8DFE803F021071B07AC
:1006F0000A152121150A071B0721D368013BD36086
:100700005DF8044B7047937A03F003030029E6D0A9
:1007100043F00403E3E7D3685DF8044B023BD36086
:100720007047D3685DF8044B0233D3607047D368D9
:100730005DF8044B0133D360704700BF20500020A8
:10074000214B10B49A691368506819780478507A6C
:10075000137A044201EA03011BD0937A03F00303E6
:1007600009B143F0040343F008039910013B91726F
:100770000D2B0BD8DFE803F021071B070A152121F9
:10078000150A071B0721D368013BD3605DF8044BB2
:100790007047937A03F003030029E6D043F0040383
:1007A000E3E7D3685DF8044B023BD3607047D3683E
:1007B0005DF8044B0233D3607047D3685DF8044B97
:1007C0000133D360704700BF20500020214B10B48C
:1007D000DA691368506819780478507A137A0442F9
:1007E00001EA03011BD0937A03F0030309B143F03C
:1007F000040343F008039910013B91720D2B0BD8B1
:10080000DFE803F021071B070A152121150A071B42
:100810000721D368013BD3605DF8044B7047937A9E
:1008200003F003030029E6D043F00403E3E7D368B1
:100830005DF8044B023BD3607047D3685DF8044B0E
:100840000233D3607047D3685DF8044B0133D36043
:10085000704700BF20500020214B10B41A6A136863
:10086000506819780478507A137A044201EA030137
:100870001BD0937A03F0030309B143F0040343F060
:1008800008039910013B91720D2B0BD8DFE803F0A0
:1008900021071B070A152121150A071B0721D36809
:1008A000013BD3605DF8044B7047937A03F0030378
:1008B0000029E6D043F00403E3E7D3685DF8044B76
:1008C000023BD3607047D3685DF8044B0233D360BA
:1008D0007047D3685DF8044B0133D360704700BFA5
:1008E00020500020214B10B45A6A136850681978C0
:1008F0000478507A137A044201EA03011BD0937AF8
:1009000003F0030309B143F0040343F00803991013
:10091000013B91720D2B0BD8DFE803F021071B0779
:100920000A152121150A071B0721D368013BD36053
:100930005DF8044B7047937A03F003030029E6D077
:1009400043F00403E3E7D3685DF8044B023BD36054
:100950007047D3685DF8044B0233D3607047D368A7
:100960005DF8044B0133D360704700BF2050002076
:10097000214B10B49A6A1368506819780478507A39
:10098000137A044201EA03011BD0937A03F00303B4
:1009900009B143F0040343F008039910013B91723D
:1009A0000D2B0BD8DFE803F021071B070A152121C7
:1009B000150A071B0721D368013BD3605DF8044B80
:1009C0007047937A03F003030029E6D043F0040351
:1009D000E3E7D3685DF8044B023BD3607047D3680C
:1009E0005DF8044B0233D3607047D3685DF8044B65
:1009F0000133D360704700BF20500020214B10B45A
:100A0000DA6A1368506819780478507A137A0442C5
:100A100001EA03011BD0937A03F0030309B143F009
:100A2000040343F008039910013B91720D2B0BD87E
:100A3000DFE803F021071B070A152121150A071B10
:100A40000721D368013BD3605DF8044B7047937A6C
:100A500003F003030029E6D043F00403E3E7D3687F
:100A60005DF8044B023BD3607047D3685DF8044BDC
:100A70000233D3607047D3685DF8044B0133D36011
:100A8000704700BF20500020214B10B41A6B136830
:100A9000506819780478507A137A044201EA030105
:100AA0001BD0937A03F0030309B143F0040343F02E
:100AB00008039910013B91720D2B0BD8DFE803F06E
:100AC00021071B070A152121150A071B0721D368D7
:100AD000013BD3605DF8044B7047937A03F0030346
:100AE0000029E6D043F00403E3E7D3685DF8044B44
:100AF000023BD3607047D3685DF8044B0233D36088
:100B00007047D3685DF8044B0133D360704700BF72
:100B100020500020214B10B45A6B1368506819788C
:100B20000478507A137A044201EA03011BD0937AC5
:100B300003F0030309B143F0040343F008039910E1
:100B4000013B91720D2B0BD8DFE803F021071B0747
:100B50000A152121150A071B0721D368013BD36021
:100B60005DF8044B7047937A03F003030029E6D045
:100B700043F00403E3E7D3685DF8044B023BD36022
:100B80007047D3685DF8044B0233D3607047D36875
:100B90005DF8044B0133D360704700BF2050002044
:100BA000214B10B49A6B1368506819780478507A06
:100BB000137A044201EA03011BD0937A03F0030382
:100BC00009B143F0040343F008039910013B91720B
:100BD0000D2B0BD8DFE803F021071B070A15212195
:100BE000150A071B0721D368013BD3605DF8044B4E
:100BF0007047937A03F003030029E6D043F004031F
:100C0000E3E7D3685DF8044B023BD3607047D368D9
:100C10005DF8044B0233D3607047D3685DF8044B32
:100C20000133D360704700BF20500020214B10B427
:100C3000DA6B1368506819780478507A137A044292
:100C400001EA03011BD0937A03F0030309B143F0D7
:100C5000040343F008039910013B91720D2B0BD84C
:100C6000DFE803F021071B070A152121150A071BDE
:100C70000721D368013BD3605DF8044B7047937A3A
:100C800003F003030029E6D043F00403E3E7D3684D
:100C90005DF8044B023BD3607047D3685DF8044BAA
:100CA0000233D3607047D3685DF8044B0133D360DF
:100CB000704700BF20500020214B10B41A6C1368FD
:100CC000506819780478507A137A044201EA0301D3
:100CD0001BD0937A03F0030309B143F0040343F0FC
:100CE00008039910013B91720D2B0BD8DFE803F03C
:100CF00021071B070A152121150A071B0721D368A5
:100D0000013BD3605DF8044B7047937A03F0030313
:100D10000029E6D043F00403E3E7D3685DF8044B11
:100D2000023BD3607047D3685DF8044B0233D36055
:100D30007047D3685DF8044B0133D360704700BF40
:100D400020500020214B10B45A6C13685068197859
:100D50000478507A137A044201EA03011BD0937A93
:100D600003F0030309B143F0040343F008039910AF
:100D7000013B91720D2B0BD8DFE803F021071B0715
:100D80000A152121150A071B0721D368013BD360EF
:100D90005DF8044B7047937A03F003030029E6D013
:100DA00043F00403E3E7D3685DF8044B023BD360F0
:100DB0007047D3685DF8044B0233D3607047D36843
:100DC0005DF8044B0133D360704700BF2050002012
:100DD000214B10B49A6C1368506819780478507AD3
:100DE000137A044201EA03011BD0937A03F0030350
:100DF00009B143F0040343F008039910013B9172D9
:100E00000D2B0BD8DFE803F021071B070A15212162
:100E1000150A071B0721D368013BD3605DF8044B1B
:100E20007047937A03F003030029E6D043F00403EC
:100E3000E3E7D3685DF8044B023BD3607047D368A7
:100E40005DF8044B0233D3607047D3685DF8044B00
:100E50000133D360704700BF20500020214B10B4F5
:100E6000DA6C1368506819780478507A137A04425F
:100E700001EA03011BD0937A03F0030309B143F0A5
:100E8000040343F008039910013B91720D2B0BD81A
:100E9000DFE803F021071B070A152121150A071BAC
:100EA0000721D368013BD3605DF8044B7047937A08
:100EB00003F003030029E6D043F00403E3E7D3681B
:100EC0005DF8044B023BD3607047D3685DF8044B78
:100ED0000233D3607047D3685DF8044B0133D360AD
:100EE000704700BF20500020214B10B41A6D1368CA
:100EF000506819780478507A137A044201EA0301A1
:100F00001BD0937A03F0030309B143F0040343F0C9
:100F100008039910013B91720D2B0BD8DFE803F009
:100F200021071B070A152121150A071B0721D36872
:100F3000013BD3605DF8044B7047937A03F00303E1
:100F40000029E6D043F00403E3E7D3685DF8044BDF
:100F5000023BD3607047D3685DF8044B0233D36023
:100F60007047D3685DF8044B0133D360704700BF0E
:100F700020500020214B10B45A6D13685068197826
:100F80000478507A137A044201EA03011BD0937A61
:100F900003F0030309B143F0040343F0080399107D
:100FA000013B91720D2B0BD8DFE803F021071B07E3
:100FB0000A152121150A071B0721D368013BD360BD
:100FC0005DF8044B7047937A03F003030029E6D0E1
:100FD00043F00403E3E7D3685DF8044B023BD360BE
:100FE0007047D3685DF8044B0233D3607047D36811
:100FF0005DF8044B0133D360704700BF20500020E0
:10100000214B10B49A6D1368506819780478507A9F
:10101000137A044201EA03011BD0937A03F003031D
:1010200009B143F0040343F008039910013B9172A6
:101030000D2B0BD8DFE803F021071B070A15212130
:10104000150A071B0721D368013BD3605DF8044BE9
:101050007047937A03F003030029E6D043F00403BA
:10106000E3E7D3685DF8044B023BD3607047D36875
:101070005DF8044B0233D3607047D3685DF8044BCE
:101080000133D360704700BF20500020214B10B4C3
:10109000DA6D1368506819780478507A137A04422C
:1010A00001EA03011BD0937A03F0030309B143F073
:1010B000040343F008039910013B91720D2B0BD8E8
:1010C000DFE803F021071B070A152121150A071B7A
:1010D0000721D368013BD3605DF8044B7047937AD6
:1010E00003F003030029E6D043F00403E3E7D368E9
:1010F0005DF8044B023BD3607047D3685DF8044B46
:101100000233D3607047D3685DF8044B0133D3607A
:10111000704700BF20500020214B10B41A6E136896
:10112000506819780478507A137A044201EA03016E
:101130001BD0937A03F0030309B143F0040343F097
:1011400008039910013B91720D2B0BD8DFE803F0D7
:1011500021071B070A152121150A071B0721D36840
:10116000013BD3605DF8044B7047937A03F00303AF
:101170000029E6D043F00403E3E7D3685DF8044BAD
:10118000023BD3607047D3685DF8044B0233D360F1
:101190007047D3685DF8044B0133D360704700BFDC
:1011A00020500020214B10B45A6E136850681978F3
:1011B0000478507A137A044201EA03011BD0937A2F
:1011C00003F0030309B143F0040343F0080399104B
:1011D000013B91720D2B0BD8DFE803F021071B07B1
:1011E0000A152121150A071B0721D368013BD3608B
:1011F0005DF8044B7047937A03F003030029E6D0AF
:1012000043F00403E3E7D3685DF8044B023BD3608B
:101210007047D3685DF8044B0233D3607047D368DE
:101220005DF8044B0133D360704700BF20500020AD
:10123000214B10B49A6E1368506819780478507A6C
:10124000137A044201EA03011BD0937A03F00303EB
:1012500009B143F0040343F008039910013B917274
:101260000D2B0BD8DFE803F021071B070A152121FE
:10127000150A071B0721D368013BD3605DF8044BB7
:101280007047937A03F003030029E6D043F0040388
:10129000E3E7D3685DF8044B023BD3607047D36843
:1012A0005DF8044B0233D3607047D3685DF8044B9C
:1012B0000133D360704700BF20500020214B10B491
:1012C000DA6E1368506819780478507A137A0442F9
:1012D00001EA03011BD0937A03F0030309B143F041
:1012E000040343F008039910013B91720D2B0BD8B6
:1012F000DFE803F021071B070A152121150A071B48
:101300000721D368013BD3605DF8044B7047937AA3
:1013100003F003030029E6D043F00403E3E7D368B6
:101320005DF8044B023BD3607047D3685DF8044B13
:101330000233D3607047D3685DF8044B0133D36048
:10134000704700BF20500020214B10B41A6F136863
:10135000506819780478507A137A044201EA03013C
:101360001BD0937A03F0030309B143F0040343F065
:1013700008039910013B91720D2B0BD8DFE803F0A5
:1013800021071B070A152121150A071B0721D3680E
:10139000013BD3605DF8044B7047937A03F003037D
:1013A0000029E6D043F00403E3E7D3685DF8044B7B
:1013B000023BD3607047D3685DF8044B0233D360BF
:1013C0007047D3685DF8044B0133D360704700BFAA
:1013D00020500020214B10B45A6F136850681978C0
:1013E0000478507A137A044201EA03011BD0937AFD
:1013F00003F0030309B143F0040343F00803991019
:10140000013B91720D2B0BD8DFE803F021071B077E
:101410000A152121150A071B0721D368013BD36058
:101420005DF8044B7047937A03F003030029E6D07C
:1014300043F00403E3E7D3685DF8044B023BD36059
:101440007047D3685DF8044B0233D3607047D368AC
:101450005DF8044B0133D360704700BF205000207B
:10146000214B10B49A6F1368506819780478507A39
:10147000137A044201EA03011BD0937A03F00303B9
:1014800009B143F0040343F008039910013B917242
:101490000D2B0BD8DFE803F021071B070A152121CC
:1014A000150A071B0721D368013BD3605DF8044B85
:1014B0007047937A03F003030029E6D043F0040356
:1014C000E3E7D3685DF8044B023BD3607047D36811
:1014D0005DF8044B0233D3607047D3685DF8044B6A
:1014E0000133D360704700BF20500020214B10B45F
:1014F000DA6F1368506819780478507A137A0442C6
:1015000001EA03011BD0937A03F0030309B143F00E
:10151000040343F008039910013B91720D2B0BD883
:10152000DFE803F021071B070A152121150A071B15
:101530000721D368013BD3605DF8044B7047937A71
:1015400003F003030029E6D043F00403E3E7D36884
:101550005DF8044B023BD3607047D3685DF8044BE1
:101560000233D3607047D3685DF8044B0133D36016
:10157000704700BF20500020214B10B4D3F88020CA
:101580001368506819780478507A137A044201EA93
:1015900003011BD0937A03F0030309B143F0040362
:1015A00043F008039910013B91720D2B0BD8DFE833
:1015B00003F021071B070A152121150A071B072124
:1015C000D368013BD3605DF8044B7047937A03F016
:1015D00003030029E6D043F00403E3E7D3685DF892
:1015E000044B023BD3607047D3685DF8044B023371
:1015F000D3607047D3685DF8044B0133D360704704
:1016000020500020214B10B4D3F884201368506878
:1016100019780478507A137A044201EA03011BD046
:10162000937A03F0030309B143F0040343F0080382
:101630009910013B91720D2B0BD8DFE803F02107C5
:101640001B070A152121150A071B0721D368013B37
:10165000D3605DF8044B7047937A03F003030029CD
:10166000E6D043F00403E3E7D3685DF8044B023BA4
:10167000D3607047D3685DF8044B0233D360704782
:10168000D3685DF8044B0133D360704720500020CD
:10169000214B10B4D3F88820136850681978047867
:1016A000507A137A044201EA03011BD0937A03F0C3
:1016B000030309B143F0040343F008039910013B0D
:1016C00091720D2B0BD8DFE803F021071B070A15D9
:1016D0002121150A071B0721D368013BD3605DF860
:1016E000044B7047937A03F003030029E6D043F0DC
:1016F0000403E3E7D3685DF8044B023BD360704713
:10170000D3685DF8044B0233D3607047D3685DF84B
:10171000044B0133D360704720500020214B10B49C
:10172000D3F88C201368506819780478507A137AAB
:10173000044201EA03011BD0937A03F0030309B1C9
:1017400043F0040343F008039910013B91720D2B01
:101750000BD8DFE803F021071B070A152121150A22
:10176000071B0721D368013BD3605DF8044B70472A
:10177000937A03F003030029E6D043F00403E3E780
:10178000D3685DF8044B023BD3607047D3685DF8C3
:10179000044B0233D3607047D3685DF8044B0133C8
:1017A000D360704720500020214B10B4D3F8902014
:1017B0001368506819780478507A137A044201EA61
:1017C00003011BD0937A03F0030309B143F0040330
:1017D00043F008039910013B91720D2B0BD8DFE801
:1017E00003F021071B070A152121150A071B0721F2
:1017F000D368013BD3605DF8044B7047937A03F0E4
:1018000003030029E6D043F00403E3E7D3685DF85F
:10181000044B023BD3607047D3685DF8044B02333E
:10182000D3607047D3685DF8044B0133D3607047D1
:1018300020500020214B10B4D3F894201368506836
:1018400019780478507A137A044201EA03011BD014
:10185000937A03F0030309B143F0040343F0080350
:101860009910013B91720D2B0BD8DFE803F0210793
:101870001B070A152121150A071B0721D368013B05
:10188000D3605DF8044B7047937A03F0030300299B
:10189000E6D043F00403E3E7D3685DF8044B023B72
:1018A000D3607047D3685DF8044B0233D360704750
:1018B000D3685DF8044B0133D3607047205000209B
:1018C000214B10B4D3F89820136850681978047825
:1018D000507A137A044201EA03011BD0937A03F091
:1018E000030309B143F0040343F008039910013BDB
:1018F00091720D2B0BD8DFE803F021071B070A15A7
:101900002121150A071B0721D368013BD3605DF82D
:10191000044B7047937A03F003030029E6D043F0A9
:101920000403E3E7D3685DF8044B023BD3607047E0
:10193000D3685DF8044B0233D3607047D3685DF819
:10194000044B0133D360704720500020214B10B46A
:10195000D3F89C201368506819780478507A137A69
:10196000044201EA03011BD0937A03F0030309B197
:1019700043F0040343F008039910013B91720D2BCF
:101980000BD8DFE803F021071B070A152121150AF0
:10199000071B0721D368013BD3605DF8044B7047F8
:1019A000937A03F003030029E6D043F00403E3E74E
:1019B000D3685DF8044B023BD3607047D3685DF891
:1019C000044B0233D3607047D3685DF8044B013396
:1019D000D360704720500020214B10B4D3F8A020D2
:1019E0001368506819780478507A137A044201EA2F
:1019F00003011BD0937A03F0030309B143F00403FE
:101A000043F008039910013B91720D2B0BD8DFE8CE
:101A100003F021071B070A152121150A071B0721BF
:101A2000D368013BD3605DF8044B7047937A03F0B1
:101A300003030029E6D043F00403E3E7D3685DF82D
:101A4000044B023BD3607047D3685DF8044B02330C
:101A5000D3607047D3685DF8044B0133D36070479F
:101A600020500020214B10B4D3F8A42013685068F4
:101A700019780478507A137A044201EA03011BD0E2
:101A8000937A03F0030309B143F0040343F008031E
:101A90009910013B91720D2B0BD8DFE803F0210761
:101AA0001B070A152121150A071B0721D368013BD3
:101AB000D3605DF8044B7047937A03F00303002969
:101AC000E6D043F00403E3E7D3685DF8044B023B40
:101AD000D3607047D3685DF8044B0233D36070471E
:101AE000D3685DF8044B0133D36070472050002069
:101AF000214B10B4D3F8A8201368506819780478E3
:101B0000507A137A044201EA03011BD0937A03F05E
:101B1000030309B143F0040343F008039910013BA8
:101B200091720D2B0BD8DFE803F021071B070A1574
:101B30002121150A071B0721D368013BD3605DF8FB
:101B4000044B7047937A03F003030029E6D043F077
:101B50000403E3E7D3685DF8044B023BD3607047AE
:101B6000D3685DF8044B0233D3607047D3685DF8E7
:101B7000044B0133D360704720500020214B10B438
:101B8000D3F8AC201368506819780478507A137A27
:101B9000044201EA03011BD0937A03F0030309B165
:101BA00043F0040343F008039910013B91720D2B9D
:101BB0000BD8DFE803F021071B070A152121150ABE
:101BC000071B0721D368013BD3605DF8044B7047C6
:101BD000937A03F003030029E6D043F00403E3E71C
:101BE000D3685DF8044B023BD3607047D3685DF85F
:101BF000044B0233D3607047D3685DF8044B013364
:101C0000D360704720500020214B10B4D3F8B0208F
:101C10001368506819780478507A137A044201EAFC
:101C200003011BD0937A03F0030309B143F00403CB
:101C300043F008039910013B91720D2B0BD8DFE89C
:101C400003F021071B070A152121150A071B07218D
:101C5000D368013BD3605DF8044B7047937A03F07F
:101C600003030029E6D043F00403E3E7D3685DF8FB
:101C7000044B023BD3607047D3685DF8044B0233DA
:101C8000D3607047D3685DF8044B0133D36070476D
:101C900020500020214B10B4D3F8B42013685068B2
:101CA00019780478507A137A044201EA03011BD0B0
:101CB000937A03F0030309B143F0040343F00803EC
:101CC0009910013B91720D2B0BD8DFE803F021072F
:101CD0001B070A152121150A071B0721D368013BA1
:101CE000D3605DF8044B7047937A03F00303002937
:101CF000E6D043F00403E3E7D3685DF8044B023B0E
:101D0000D3607047D3685DF8044B0233D3607047EB
:101D1000D3685DF8044B0133D36070472050002036
:101D2000214B10B4D3F8B8201368506819780478A0
:101D3000507A137A044201EA03011BD0937A03F02C
:101D4000030309B143F0040343F008039910013B76
:101D500091720D2B0BD8DFE803F021071B070A1542
:101D60002121150A071B0721D368013BD3605DF8C9
:101D7000044B7047937A03F003030029E6D043F045
:101D80000403E3E7D3685DF8044B023BD36070477C
:101D9000D3685DF8044B0233D3607047D3685DF8B5
:101DA000044B0133D360704720500020214B10B406
:101DB000D3F8BC201368506819780478507A137AE5
:101DC000044201EA03011BD0937A03F0030309B133
:101DD00043F0040343F008039910013B91720D2B6B
:101DE0000BD8DFE803F021071B070A152121150A8C
:101DF000071B0721D368013BD3605DF8044B704794
:101E0000937A03F003030029E6D043F00403E3E7E9
:101E1000D3685DF8044B023BD3607047D3685DF82C
:101E2000044B0233D3607047D3685DF8044B013331
:101E3000D360704720500020214B10B4D3F8C0204D
:101E40001368506819780478507A137A044201EACA
:101E500003011BD0937A03F0030309B143F0040399
:101E600043F008039910013B91720D2B0BD8DFE86A
:101E700003F021071B070A152121150A071B07215B
:101E8000D368013BD3605DF8044B7047937A03F04D
:101E900003030029E6D043F00403E3E7D3685DF8C9
:101EA000044B023BD3607047D3685DF8044B0233A8
:101EB000D3607047D3685DF8044B0133D36070473B
:101EC00020500020214B10B4D3F8C4201368506870
:101ED00019780478507A137A044201EA03011BD07E
:101EE000937A03F0030309B143F0040343F00803BA
:101EF0009910013B91720D2B0BD8DFE803F02107FD
:101F00001B070A152121150A071B0721D368013B6E
:101F1000D3605DF8044B7047937A03F00303002904
:101F2000E6D043F00403E3E7D3685DF8044B023BDB
:101F3000D3607047D3685DF8044B0233D3607047B9
:101F4000D3685DF8044B0133D36070472050002004
:101F5000214B10B4D3F8C82013685068197804785E
:101F6000507A137A044201EA03011BD0937A03F0FA
:101F7000030309B143F0040343F008039910013B44
:101F800091720D2B0BD8DFE803F021071B070A1510
:101F90002121150A071B0721D368013BD3605DF897
:101FA000044B7047937A03F003030029E6D043F013
:101FB0000403E3E7D3685DF8044B023BD36070474A
:101FC000D3685DF8044B0233D3607047D3685DF883
:101FD000044B0133D360704720500020214B10B4D4
:101FE000D3F8CC201368506819780478507A137AA3
:101FF000044201EA03011BD0937A03F0030309B101
:1020000043F0040343F008039910013B91720D2B38
:102010000BD8DFE803F021071B070A152121150A59
:10202000071B0721D368013BD3605DF8044B704761
:10203000937A03F003030029E6D043F00403E3E7B7
:10204000D3685DF8044B023BD3607047D3685DF8FA
:10205000044B0233D3607047D3685DF8044B0133FF
:10206000D360704720500020214B10B4D3F8D0200B
:102070001368506819780478507A137A044201EA98
:1020800003011BD0937A03F0030309B143F0040367
:1020900043F008039910013B91720D2B0BD8DFE838
:1020A00003F021071B070A152121150A071B072129
:1020B000D368013BD3605DF8044B7047937A03F01B
:1020C00003030029E6D043F00403E3E7D3685DF897
:1020D000044B023BD3607047D3685DF8044B023376
:1020E000D3607047D3685DF8044B0133D360704709
:1020F00020500020214B10B4D3F8D420136850682E
:1021000019780478507A137A044201EA03011BD04B
:10211000937A03F0030309B143F0040343F0080387
:102120009910013B91720D2B0BD8DFE803F02107CA
:102130001B070A152121150A071B0721D368013B3C
:10214000D3605DF8044B7047937A03F003030029D2
:10215000E6D043F00403E3E7D3685DF8044B023BA9
:10216000D3607047D3685DF8044B0233D360704787
:10217000D3685DF8044B0133D360704720500020D2
:10218000214B10B4D3F8D82013685068197804781C
:10219000507A137A044201EA03011BD0937A03F0C8
:1021A000030309B143F0040343F008039910013B12
:1021B00091720D2B0BD8DFE803F021071B070A15DE
:1021C0002121150A071B0721D368013BD3605DF865
:1021D000044B7047937A03F003030029E6D043F0E1
:1021E0000403E3E7D3685DF8044B023BD360704718
:1021F000D3685DF8044B0233D3607047D3685DF851
:10220000044B0133D360704720500020214B10B4A1
:10221000D3F8DC201368506819780478507A137A60
:10222000044201EA03011BD0937A03F0030309B1CE
:1022300043F0040343F008039910013B91720D2B06
:102240000BD8DFE803F021071B070A152121150A27
:10225000071B0721D368013BD3605DF8044B70472F
:10226000937A03F003030029E6D043F00403E3E785
:10227000D3685DF8044B023BD3607047D3685DF8C8
:10228000044B0233D3607047D3685DF8044B0133CD
:10229000D360704720500020214B10B4D3F8E020C9
:1022A0001368506819780478507A137A044201EA66
:1022B00003011BD0937A03F0030309B143F0040335
:1022C00043F008039910013B91720D2B0BD8DFE806
:1022D00003F021071B070A152121150A071B0721F7
:1022E000D368013BD3605DF8044B7047937A03F0E9
:1022F00003030029E6D043F00403E3E7D3685DF865
:10230000044B023BD3607047D3685DF8044B023343
:10231000D3607047D3685DF8044B0133D3607047D6
:1023200020500020214B10B4D3F8E42013685068EB
:1023300019780478507A137A044201EA03011BD019
:10234000937A03F0030309B143F0040343F0080355
:102350009910013B91720D2B0BD8DFE803F0210798
:102360001B070A152121150A071B0721D368013B0A
:10237000D3605DF8044B7047937A03F003030029A0
:10238000E6D043F00403E3E7D3685DF8044B023B77
:10239000D3607047D3685DF8044B0233D360704755
:1023A000D3685DF8044B0133D360704720500020A0
:1023B000214B10B4D3F8E8201368506819780478DA
:1023C000507A137A044201EA03011BD0937A03F096
:1023D000030309B143F0040343F008039910013BE0
:1023E00091720D2B0BD8DFE803F021071B070A15AC
:1023F0002121150A071B0721D368013BD3605DF833
:10240000044B7047937A03F003030029E6D043F0AE
:102410000403E3E7D3685DF8044B023BD3607047E5
:10242000D3685DF8044B0233D3607047D3685DF81E
:10243000044B0133D36070472050002070B5044630
:1024400008460D4620F09CF823680246294620469F
:102450005B68BDE87040184738B5044608460D462D
:1024600020F08EF82368024629465B68204698478C
:10247000054620461AF01CFF284438BD38B50546ED
:102480001AF07CFF044628461AF012FF204438BD9B
:1024900038B5C9B205461AF07BFF044628461AF043
:1024A00007FF204438BD00BF10B4036841681A78A4
:1024B0000C78417A037A0C4202EA03021BD0837A39
:1024C00003F003030AB143F0040343F008039A1036
:1024D000013B82720D2B0BD8DFE803F021071B07AD
:1024E0000A152121150A071B0721C368013BC36098
:1024F0005DF8044B7047837A03F00303002AE6D0AB
:1025000043F00403E3E7C3685DF8044B023BC36098
:102510007047C3685DF8044B0233C3607047C368FB
:102520005DF8044B0133C360704700BF08B5034B2F
:10253000D3F8EC00FFF7B8FF08BD00BF2050002023
:1025400008B5024BD868FFF7AFFF08BD2050002048
:1025500008B5024B9868FFF7A7FF08BD2050002080
:1025600008B5024B5868FFF79FFF08BD20500020B8
:1025700008B5024B1868FFF797FF08BD20500020F0
:1025800008B50B463B2800F2C682DFE810F0BB021C
:10259000B202A902A00297028E0285027C02730297
:1025A0006A02610258024F0246023D0234022B02C7
:1025B0002202190210020702AE01A5019C0193013B
:1025C0008A01810178016F0166015D0154014A01B0
:1025D000400136012C01220118010E010401FA000C
:1025E000F000E600DC00D200C800BE00B400AA0083
:1025F000A00096008C00820078006E0064005A00F3
:10260000500046003C00BD4ABD49C2F8EC303B20BA
:10261000042218F0E1FC012008BDB84AB949C2F80B
:10262000E8303A20042218F0D7FC012008BDB34A54
:10263000B549C2F8E4303920042218F0CDFC01205D
:1026400008BDAE4AB149C2F8E0303820042218F083
:10265000C3FC012008BDA94AAD49C2F8DC303720CF
:10266000042218F0B9FC012008BDA44AA949C2F807
:10267000D8303620042218F0AFFC012008BD9F4A54
:10268000A549C2F8D4303520042218F0A5FC012059
:1026900008BD9A4AA149C2F8D0303420042218F06B
:1026A0009BFC012008BD954A9D49C2F8CC303320DF
:1026B000042218F091FC012008BD904A9949C2F803
:1026C000C8303220042218F087FC012008BD8B4A54
:1026D0009549C2F8C4303120042218F07DFC012055
:1026E00008BD864A9149C2F8C0303020042218F053
:1026F00073FC012008BD814A8D49C2F8BC302F20EF
:10270000042218F069FC012008BD7C4A8949C2F8FE
:10271000B8302E20042218F05FFC012008BD774A53
:102720008549C2F8B4302D20042218F055FC012050
:1027300008BD724A8149C2F8B0302C20042218F03A
:102740004BFC012008BD6D4A7D49C2F8AC302B20FE
:10275000042218F041FC012008BD684A7949C2F8FA
:10276000A8302A20042218F037FC012008BD634A53
:102770007549C2F8A4302920042218F02DFC01204C
:1027800008BD5E4A7149C2F8A0302820042218F022
:1027900023FC012008BD594A6D49C2F89C3027200E
:1027A000042218F019FC012008BD544A6949C2F8F6
:1027B00098302620042218F00FFC012008BD4F4A53
:1027C0006549C2F894302520042218F005FC012048
:1027D00008BD4A4A6149C2F890302420042218F00A
:1027E000FBFB012008BD454A5D49C2F88C3023201F
:1027F000042218F0F1FB012008BD404A5949C2F8F3
:1028000088302220042218F0E7FB012008BD3B4A53
:102810005549C2F884302120042218F0DDFB012044
:1028200008BD364A5149C2F880302020042218F0F1
:10283000D3FB012008BD314A4D49D3671F20042234
:1028400018F0CAFB012008BD2C4A4A4993671E2094
:10285000042218F0C1FB012008BD284A46495367ED
:102860001D20042218F0B8FB012008BD234A43496B
:1028700013671C20042218F0AFFB012008BD1F4A7B
:102880003F49D3661B20042218F0A6FB012008BD97
:102890001A4A3C4993661A20042218F09DFB012035
:1028A00008BD164A384953661920042218F094FBD3
:1028B000012008BD114A354913661820042218F07A
:1028C0008BFB012008BD0D4A3149D3651720042236
:1028D00018F082FB012008BD084A2E499365162096
:1028E000042218F079FB012008BD044A2A495365E7
:1028F0001520042218F070FB012008BD2050002094
:102900002D250000B123000025230000992200009E
:102910000D22000081210000F52000006920000048
:10292000DD1F0000511F0000C51E0000391E000001
:10293000AD1D0000211D0000951C0000091C0000B9
:102940007D1B0000F11A0000651A0000D919000073
:102950004D190000C118000035180000A91700002B
:102960001D170000911600000516000079150000E3
:10297000ED14000061140000D5130000491300009D
:10298000BD12000031120000A51100001911000055
:102990008D10000001100000750F00005F4A6049B3
:1029A00013651420042218F017FB012008BD5B4AB0
:1029B0005C49D3641320042218F00EFB012008BDEB
:1029C000564A594993641220042218F005FB01204D
:1029D00008BD524A554953641120042218F0FCFAEC
:1029E000012008BD4D4A524913641020042218F0FA
:1029F000F3FA012008BD494A4E49D3630F2004224F
:102A000018F0EAFA012008BD444A4B4993630E20AE
:102A1000042218F0E1FA012008BD404A47495363F7
:102A20000D20042218F0D8FA012008BD3B4A444981
:102A300013630C20042218F0CFFA012008BD374A96
:102A40004049D3620B20042218F0C6FA012008BDC9
:102A5000324A3D4993620A20042218F0BDFA01204F
:102A600008BD2E4A394953620920042218F0B4FAED
:102A7000012008BD294A364913620820042218F0B3
:102A8000ABFA012008BD254A3249D3610720042250
:102A900018F0A2FA012008BD204A2F4993610620B0
:102AA000042218F099FA012008BD1C4A2B495361F1
:102AB0000520042218F090FA012008BD174A284981
:102AC00013610422104618F087FA012008BD134A4A
:102AD0002449D3600320042218F07EFA012008BDA7
:102AE0000E4A214993600220042218F075FA012051
:102AF00008BD0A4A1D4953600120042218F06CFAEF
:102B0000012008BD054A1A4913600020042218F06C
:102B100063FA012008BD002008BD00BF205000203E
:102B2000E90E00005D0E0000D10D0000450D000013
:102B3000B90C00002D0C0000A10B0000150B0000CB
:102B4000890A0000FD09000071090000E508000085
:102B500059080000CD07000041070000B50600003D
:102B600029060000412500005125000061250000D4
:102B700071250000024B1B68DB6F1B6B1B697047E4
:102B8000B4A6FF1F2DE9F0411D4B1D68854282B0A0
:102B900016468CB219D005B2C4F5907300222946AE
:102BA00000921BB20A22174811F00CFB164B154875
:102BB0001B880093C4F59572A31B1BB212B2294661
:102BC00011F000FB02B0BDE8F081C4F595772DB29D
:102BD0003FB24FF478483B462946CDF800800A22A0
:102BE000084811F0EFFAA31B3A461BB2CDF800805B
:102BF0002946044811F0E6FA02B0BDE8F08100BFB2
:102C00000C08FF1FD40800204408FF1F2DE9F043E3
:102C1000364F374E3868374D83B01EF0B1F941EC6E
:102C2000100B1BF0D5F90022334B51EC100B1EF0AA
:102C30001DFA1EF0F3FCA8463060002431E058F87D
:102C400024001EF09DF941EC100B1BF0C1F900228D
:102C5000294B51EC100B1EF009FA1EF0DFFC00EBC3
:102C6000C000264A3168DFF8A0E04001B0FBF1F176
:102C7000B1F5907F8ABF4FF490711160116055F8E3
:102C800024203B6802EBC20252012046B2FBF3F360
:102C90001A46CEF80030FFF775FF0134B4F5D27F45
:102CA00020D055F82430012BC9D800230FFA84F91D
:102CB000009349464FF490730A22114811F082FAAA
:102CC000104B1B68A342E8D14FF478430093494668
:102CD0004FF490730A220A48013411F073FAB4F5E4
:102CE000D27FDED103B0BDE8F08300BFB8A6FF1FDE
:102CF000580C0020AC1BFF1F000059404065FF1F0F
:102D0000D40800200C08FF1F9C4C002030B5104B4D
:102D10001D68854283B00B460DD00E4A1288009282
:102D20000446C1F595720C4821B212B21BB211F0E3
:102D300049FA03B030BDC1F595724FF47840009068
:102D400029B212B21BB2044811F03CFA03B030BDF4
:102D50000C08FF1F6808FF1FD4080020F8B50B4FB0
:102D60000B4E0C4D002457F82420336802EBC202AE
:102D700052012046B2FBF3F3013419462B60FFF7F2
:102D8000C5FFB4F5D27FEED1F8BD00BFAC1BFF1F6D
:102D9000B8A6FF1F4065FF1F00B5074883B0B0F914
:102DA0002020B0F91E30009200220192114611F04D
:102DB000ADFC03B05DF804FBD4080020DFF878C058
:102DC00000232DE9F0411A4FCCF800301A4647F89D
:102DD00023200133B3F5007FF9D1164E4FF0000EDA
:102DE00001F1FF38002921DDB0F5805F1EDA0346CE
:102DF00008EB0005002202E0B3F5805F06D056F82C
:102E00002340AB42224403F10103F5D10844B0F55D
:102E1000805F47F82E2004DA0EF1010EBEF5007F28
:102E2000E0D10023CCF80030BDE8F0810022EDE7CE
:102E3000AC1BFF1F8C65FF1F4065FF1F002351481F
:102E4000194640F823100133B3F5805F4FF00002BC
:102E5000F7D1F0B44C4B4D4F4D4D4E4C4E484F4971
:102E60003A701A604E4F4F4B2A70226002600A601F
:102E70004D4E4E4D4E4C4F484F493A601A604F4FA1
:102E80004F4B32602A60226002600A604D4E4E4D08
:102E90004E4C4F484F493A601A604F4F4F4B32608B
:102EA0002A60226002600A604D4E4E4D4E4C4F48E3
:102EB0004F493A601A604F4F4F4B32602A604F4E75
:102EC0004F4D226002604F4C4F480A604F493A60B4
:102ED0001A604F4F4F4B32602A604F4E22604F4D69
:102EE00002600A604E4C4F484F493A601A604F4F9B
:102EF00032603C2323602A6003600B604C4E4D4DD2
:102F00004D4C4E484E493B604E4F33602B60236022
:102F100003600B604C4E4D4D4D4C4E484E493B604E
:102F20004E4F33602B60236003600B604C4E4D4D61
:102F30004D4C4E484E4B3A704E492A70B42737607C
:102F400022704D4F4D4E4E4D4E4C02701A704E48F1
:102F50004E4B0A704E493A7032704E4F4E4E2A70A8
:102F600022704E4D02704E4C1A704E484E4B0A70F5
:102F700000213A7032702A70227002701960F0BC21
:102F8000704700BF8C65FF1FA04C0020A0A5FF1F4D
:102F90001018FF1FD00800208865FF1F784C002004
:102FA000804C0020E0A5FF1F7C4C0020844C0020BA
:102FB000884C00208C4C0020904C00201865FF1F8E
:102FC0002065FF1F944C00201C65FF1F2465FF1F18
:102FD0002865FF1F0418FF1F2C65FF1F7864FF1F63
:102FE0000C18FF1F3065FF1F7C64FF1F8064FF1FEC
:102FF000B864FF1F8C64FF1F9864FF1F8864FF1F65
:103000009064FF1F9C64FF1FA064FF1FA464FF1F48
:10301000AC64FF1FB464FF1FA864FF1FB064FF1FF0
:10302000D808FF1FD408FF1FD008FF1FC808FF1FC4
:10303000CC08FF1FC408FF1FC008FF1FBC08FF1FEC
:103040001C09FF1F1409FF1F1809FF1F1009FF1F8C
:103050000C09FF1F0809FF1F0409FF1FC5A6FF1F5A
:103060003009FF1F9464FF1FB418FF1F614C00203C
:103070005C65FF1F8464FF1FCCA5FF1FD4A5FF1F45
:10308000A41BFF1F6CE8FF1F3465FF1F8465FF1F33
:10309000840B0020B44C0020D5A5FF1FBCA5FF1F4A
:1030A000EC17FF1FA4080020B8A5FF1FF0B5484A81
:1030B000484F494E494D4A4C4A494B48DFF818C2DF
:1030C000DFF818E200233B6033601360474F484E3F
:1030D000484A2B6023600B60474D484C48490360C9
:1030E0003B60336013604748474F484E484A2B6067
:1030F00023600B60474D484C484903603B60336098
:1031000013604748474F484E484A2B6023600B6086
:10311000474D484C484903603B604848484F33603E
:103120001360484E484A2B602360484D484C0B6062
:10313000484903603B604848484FCCF80030CEF81F
:10314000003033601370464A2B6023700B70454E7D
:10315000454D464C464903703B7013704548464FF9
:10316000464A33702B7023700B70454E454D464CCC
:10317000464903703B704648464F13703C220A6034
:1031800033702B702370444E444D454C45490260CA
:103190003A604548454F32602A6022600A60444EDA
:1031A000444D454C454902603A604548454F3260C0
:1031B0002A6022600A60444E444D454C45490260F5
:1031C0003A600020B42232602B7023700860F0BD9A
:1031D0008C4C0020804C0020844C0020E0A5FF1F78
:1031E000884C0020904C0020944C00201865FF1F54
:1031F0001C65FF1F2865FF1F2065FF1F2465FF1F3B
:103200000418FF1F0C18FF1F2C65FF1F3065FF1FE0
:103210008064FF1F7864FF1F7C64FF1FB864FF1F7A
:103220008864FF1F8C64FF1F9064FF1FA064FF1F52
:103230009864FF1F9C64FF1FA464FF1FA864FF1F06
:10324000AC64FF1FB064FF1F9464FF1FB464FF1FD2
:10325000C5A6FF1FB418FF1F614C00205C65FF1F4F
:10326000A41BFF1F8464FF1FCCA5FF1FD4A5FF1F55
:103270006CE8FF1F3465FF1F8465FF1FBCA5FF1F9F
:10328000840B0020B44C0020D5A5FF1FD808FF1FD9
:10329000D408FF1FD008FF1FCC08FF1FC808FF1F5E
:1032A000C408FF1FC008FF1FBC08FF1F1C09FF1F29
:1032B0001809FF1F1409FF1F1009FF1F0C09FF1F2A
:1032C0000809FF1F0409FF1F3009FF1FEC17FF1F2C
:1032D000A4080020B8A5FF1F784C00207C4C0020DB
:1032E000544A554BD2ED007AD3ED006A534B27EE8A
:1032F000A76A66EEA63AD3ED004A76EE632A64EE3C
:10330000A40A77EEE65A22EEE47A23EEE74AA0EE2C
:10331000A57A0022A6EE864A37EE047AB5EE407A08
:10332000F1EE10FA79D04649464A474BD2ED001AE1
:1033300093ED001A91ED002A9FED440A25EE825A82
:1033400071EEC15AF1EE644A66EEA16A67EE817AC7
:10335000A4EEA55A36EEE73A33EE055A85EE073A63
:10336000B0EEC35AB4EE405AF1EE10FA48DCB4EEB7
:10337000433AF1EE10FA47D6354B83ED003A26EE8C
:10338000016A60EEA55AA3EEE16AE2EEC25ADFEDF1
:103390002F3A75EE865A85EE875AF0EEC55AF4EE4E
:1033A000635AF1EE10FA03DD15EE103A002B2FDA16
:1033B000B4EE455AF1EE10FA2AD6264B83ED005AA8
:1033C00077EEE67ADFED215A67EEA07AE4EE867AB0
:1033D000E4EE027AC7EE876AF0EEE67AF4EE657AFA
:1033E000F1EE10FA03DD16EE903A002B1EDAF4EE41
:1033F000666AF1EE10FA19D6174BC3ED006A7047F2
:1034000013EE103A002BB2DB114B00221A60B6E724
:10341000104B4FF07E521A60D2E70D480D490E4B0B
:1034200002604FF07E5008601A6070470A4B00221D
:103430001A6070478009FF1F8409FF1F7C09FF1F66
:10344000EC08FF1FA408FF1FA808FF1FFFFF7F7FD6
:10345000C8A5FF1F2409FF1FAC18FF1F30B583B09C
:1034600001AD0424204617F065FA0134082C05F854
:10347000010BF7D1124A134B92ED007A9DED016AD0
:10348000D3ED006A104A114B92ED005AD3ED005A69
:1034900066EE077A26EE267AF7EE006AE6EE077AFF
:1034A00077EE857A77EEE57AF0EEE77AF4EEE67A73
:1034B000F1EE10FA94BF01204FF0FF3003B030BDA1
:1034C0002409FF1FC8A5FF1FAC18FF1FA408FF1F7A
:1034D00070B5012882B00E46154600F0C68002285D
:1034E000044671D008B102B070BD4FF48C738DE802
:1034F00018001C224FF4AF730A21834811F006F91B
:103500000A2211462346804814F02CFD0A2210237B
:1035100011468DE818007C484FF4AF7311F0F6F8AF
:103520000A2211462346784814F01CFD7749764854
:10353000FEF784FF2946744814F080FD3146724836
:1035400019F090FE4FF6FF716F4814F077FD234697
:103550002A220A216C4814F005FD6D496A48FEF7DD
:103560006DFF3C2223460A21674814F0FBFC6949A1
:103570006548FEF763FF2946634814F05FFD664B1C
:1035800018681DF01FFD41EC100B02215E4819F078
:10359000FFFE4FF6FF715C4814F050FD23465C229D
:1035A0000A21594814F0DEFC5C495748FEF746FFF3
:1035B00023466E220A21544814F0D4FC584952483C
:1035C000FEF73CFF02B070BD00244FF48C738DE811
:1035D00018001C224FF4AF730A214B4811F096F8E3
:1035E0000A2211462346484814F0BCFC0A22102344
:1035F00011468DE8180044484FF4AF7311F086F877
:103600000A2211462346404814F0ACFC3F493E488C
:10361000FEF714FF29463C4814F010FD31463A48A5
:1036200019F020FE4FF6FF71374814F007FD2346CE
:103630002A220A21344814F095FC2946324814F015
:10364000FDFC38493048FEF7F9FE4FF6FF712E4871
:1036500014F0F4FC0A2123463C222B4814F082FC8F
:1036600031492948FEF7EAFE98E700244FF48C73AD
:103670008DE818001C224FF4AF730A21224811F084
:1036800045F80A22114623461F4814F06BFC0A2213
:10369000102311468DE818001B484FF4AF7311F04A
:1036A00035F80A2211462346174814F05BFC1749E7
:1036B0001548FEF7C3FE2946134814F0BFFC3146F7
:1036C000114819F0CFFD4FF6FF710F4814F0B6FC0A
:1036D00023462A220A210C4814F044FC29460A48B1
:1036E00014F0ACFC11490848FEF7A8FE4FF6FF7134
:1036F000054814F0A3FC0A2123463C22024814F09A
:1037000031FC0B49ADE700BFD4080020E0630200A4
:10371000F0630200086402005809FF1F18640200E9
:10372000346402006C640200886402004864020091
:103730006064020038B51B4C237C012B2CD972B677
:10374000184DE36862B61849184A08681360984231
:1037500021D0002B164816DB0068B3EB800F05DD87
:103760000023136072B6E36062B61368114C0B60FD
:10377000002B1A46B8BFDA1C921022603220BDE836
:10378000384017F041BF03689B00136072B6EB60CE
:1037900062B61368E0E738BD72B62046FEF784FED5
:1037A000CEE700BF6418FF1FE007FF1F0018FF1FD0
:1037B000B018FF1FBC4C00202DE9F04785B28CB239
:1037C00084B02E4E04F1210305F114024FF4784E1B
:1037D00007B212B218B2A5F11403CDF80CE00192B1
:1037E00002900AB20090394630461BB2A5F1020998
:1037F00012F0B6FC4FF6FF780FFA89F904F10902CE
:103800000E23494630468DE8080112B2052310F018
:103810007DFF04F1FF3A0523494604F11A02A5F1A0
:103820001509223424B2304600930FFA8AFA0FFAAF
:1038300089F9CDF8048012B2153510F067FF2DB26A
:1038400052464B46394630468DE8100115F03EF899
:10385000524639462B4630460094CDF8048015F088
:1038600035F800944B4622462946CDF80480304670
:1038700015F02CF804B0BDE8F08700BFD408002094
:103880002DE9F0438DB2264E05F1020885B04CF2C9
:1038900018690FFA88F8052384B242468DE80802B9
:1038A0000F46042301B2304610F030FFA31D05F18E
:1038B00008001BB23FB200B2EA1CA11C00970193A2
:1038C0000290CDF80C90304612B209B204F108070C
:1038D00012F046FC3FB24FF0000E6A1C0723123470
:1038E00006358DE808403946304624B22DB212B272
:1038F0000D2310F00BFF23464246394630468DE833
:10390000200214F0E3FFCDF8008023462A46394612
:10391000CDF80490304614F0D9FF05B0BDE8F0832F
:10392000D40800202DE9F04F8DB2354E05F1020A82
:1039300085B04CF218670FFA8AFA052384B28846DC
:10394000524601B28DE888003046042310F0DEFEB6
:10395000A31D05F1080205F1030E0FFA88F01BB252
:1039600012B2A11C00900193029230460FFA8EF21F
:10397000039709B204F1080B12F0F2FB0FFA8BFB6C
:103980004FF0000E6A1C072304F10D0805F104092D
:103990008DE808400FFA88F80FFA89F95946304641
:1039A00012B20D23063510F0B1FE2DB25246594623
:1039B000434630460197CDF80090123414F086FF4C
:1039C00024B2594643462A463046CDF80090019726
:1039D00014F07CFF5246234641463046CDF8009015
:1039E000019714F073FFCDF8009023462A46414614
:1039F0000197304614F06AFF05B0BDE8F08F00BFB4
:103A0000D40800202DE9F04F8DB2364E05F10209A1
:103A100085B00FFA89F94CF21868052384B28DE855
:103A200008014A460F46042301B2304610F06EFEEC
:103A3000A31D05F108001BB23FB200B2EA1CA11C95
:103A40000097CDF80C800193029012B2304609B273
:103A500012F086FB04F1080B002707230FFA8BFBFB
:103A60008DE888006A1C04F10D0705F104083FB2D7
:103A70000FFA88F840F2FF7A5946304612B20D2309
:103A8000063510F043FE2DB24A4659463B463046B5
:103A9000CDF80080CDF804A0123414F017FF24B242
:103AA00059463B462A463046CDF80080CDF804A062
:103AB00014F00CFF4A46234639463046CDF80080C4
:103AC000CDF804A014F002FFCDF8008023462A466A
:103AD0003946CDF804A0304614F0F8FE05B0BDE834
:103AE000F08F00BFD40800202DE9F04F504B1B7819
:103AF00083B0002B48D1002A00F08F80002A40DDDF
:103B00008FB285B207F10A0B96B20FFA80FA0CB2A7
:103B10000FFA8BFB07F1030905F105080FFA88F886
:103B200022460FFA89F95346514642480196CDF88C
:103B300000B0073714F0CAFE3FB222464346514652
:103B40003C480196CDF800906C1F14F0BFFE24B2E3
:103B50005A465146434637480097019614F0B6FE40
:103B600023463A4641463348CDF80090019614F07A
:103B7000ADFE009723464A46414601962D4814F073
:103B8000A5FE03B0BDE8F08F002AB7D18EB206F1D2
:103B90000A0A0CB20FFA8AFA0FFA80F940F2FF789B
:103BA00085B26F1D06F1030B3FB20FFA8BFB224665
:103BB0004B464946CDF800A0CDF804801D48073695
:103BC00014F084FE36B222463B464946CDF80480C6
:103BD000CDF800B01748053D14F078FE2DB25246DE
:103BE00049463B468DE84001124814F06FFE2B46D3
:103BF00032463946CDF800B0CDF804800D4814F0B7
:103C000065FE00962B465A463946CDF80480094891
:103C100014F05CFE03B0BDE8F08F8EB206F10A0A24
:103C20000CB20FFA8AFA0FFA80F947F6EF38B7E7C5
:103C3000901BFF1FD40800202DE9F04F3A4B85B2AE
:103C40001B7805F10A0785B00A4604B23FB20FFAA5
:103C500081FA002B64D14FF4404692B23B46214694
:103C60000292CDF800A052460196304814F02EFE84
:103C7000029B019603F10A080FFA88F83B46424678
:103C80002146CDF80080294814F020FE02990196C3
:103C900001F105090FFA89F9EB1C05F1010B043557
:103CA0001BB2524621460FFA8BFB2DB2CDF8009085
:103CB0001E48039314F00AFE2B4659465246CDF88F
:103CC00000900196194814F001FE0399CDF8008088
:103CD00023464A460196154814F0F8FD5B464A46CD
:103CE0002946CDF800800196104814F0EFFD029CA3
:103CF0000196A01C00B252463B46394600900B4844
:103D000014F0E4FD04F108031BB28DE848004246BC
:103D10003B463946054814F0D9FD05B0BDE8F08FA3
:103D200040F2FF7699E700BFE4A5FF1FD40800200A
:103D30002DE9F04F85B28CB283B0DFF860806E1D44
:103D4000A71C0A3424B240F2FF7936B23FB205F123
:103D5000080382468B463A463146404600941BB2E1
:103D6000CDF8049014F0B2FD05F10A03A91D0FFA75
:103D70008BF240468DE810021BB209B214F0A6FD8A
:103D800000943A463146CDF804900FFA8AF3404643
:103D900014F09CFD03B0BDE8F08F00BFD4080020F4
:103DA0002DE9F0478DB282B0374E05F1040905F1D7
:103DB000110197B20FFA89F903B209B284B24A46E7
:103DC000009130461946019714F080FD631C05F1FF
:103DD00010001BB200B219464A46009001973046C7
:103DE00014F074FD05F10E0804F108030FFA88F8C9
:103DF0001BB219464A46CDF800803046019714F0B0
:103E000065FD04F109031BB2CDF800804A4619464E
:103E10003046019714F05AFD04F1020904F1040A36
:103E200005F10D020FFA89F90FFA8AFA12B2494622
:103E3000534600923046019714F048FD53464946D8
:103E4000CDF8008042463046019714F03FFD04F162
:103E5000050805F10C0207340FFA88F824B212B2F3
:103E60002346414600923046019714F02FFD05F19C
:103E70000B0212B2234641468DE88400304614F00E
:103E800025FD02B0BDE8F087D408002010B515F07C
:103E9000ABFF092827DC324C3030302360702370B0
:103EA00015F0B2FF092831DC30303023E070A37008
:103EB00015F06AFF09283BDC303030236071237134
:103EC00015F072FF092845DD264BC21783FB00134E
:103ED000C2EBA30303EB8302A0EB4200303030338C
:103EE000E071A37110BD1F4B1D4C83FB0032C31743
:103EF000C3EBA20303EB8302A0EB4200303030336C
:103F00006070237015F080FF0928CDDD154BC217B6
:103F100083FB0013C2EBA30303EB8302A0EB42007D
:103F200030303033E070A37015F02EFF0928C3DD68
:103F30000C4BC21783FB0013C2EBA30303EB8302FA
:103F4000A0EB4200303030336071237115F02CFF4C
:103F50000928B9DC30303023E071A37110BD00BFF7
:103F6000FC07FF1F676666662DE9F0432F4E0023AE
:103F700089B00746336008E0336868460133336030
:103F80000CF062FD68460CF053FD6846012239468C
:103F90000CF056FF68460CF065FD0028ECD1384661
:103FA0000CF0A8FF68460CF043FD3568B5F1FE6FD4
:103FB00039D94FF0FF3019F0E3FD102380E82800D5
:103FC00000F108096C1E4DB14D462846013C002108
:103FD00019F05CFC631C05F11005F6D13368DFF8BD
:103FE0005080002BC8F800901ADD002401223946C9
:103FF00068460CF025FFD8F80030684603EB04153E
:104000000CF018FD0146284619F0F4FC68460CF047
:104010001BFD68460CF00CFD33680134A342E5DC5F
:1040200009B0BDE8F08328010830C4E75C0C00202B
:104030003C4D002008B5C8224FF4DC71112019F066
:1040400041FBDC2017F0E0FAC8224FF4DC711120AC
:1040500019F038FBDC2017F0D7FA1120C8224FF4F2
:10406000DC7119F02FFBDC20BDE8084017F0CCBA5A
:1040700070B594B00CA801234F4A50490CF050FE83
:104080000CA80CF0EFFC20B90CA80CF0D1FC14B07B
:1040900070BD68464A494B4E19F0F8FB0CA80CF06D
:1040A00033FC90B10CA80CF04DFCC3B2392B19466F
:1040B000684606D80A2B13D019F0DEFC029B202B91
:1040C000ECD9FFF7B7FFFEF7B9FE0CA80CF0BCFC6B
:1040D000684619F09BFB0CA80CF0AAFC14B070BD4C
:1040E0002C21684619F008FD05466C1C03464FF06C
:1040F0000002694604A8334CE3D019F00DFD6A1C98
:10410000029B694608A819F007FD04A819F028FDCC
:10411000054608A819F024FD294946F825006846F7
:1041200019F068FC08A819F071FB04A819F06EFBDF
:1041300040F6FF739D42B1D1234B206818600022E6
:104140001346226054F823100133B3F5805F0A440C
:10415000F8D140BB1D4B18601D4B1E4A18681168F2
:104160001D4CFEF72BFE1D48002323602646054606
:1041700050F823102268914284BF55F82320326002
:104180000133B3F5007FF3D12368012B01D9FEF78A
:104190003DFD236863B94FF47A7017F035FA0CA827
:1041A0000CF052FC91E7094BB2FBF0F21A60D3E736
:1041B000FEF7D4FDEFE700BFFC07FF1F644D0020B2
:1041C000101405008C65FF1FA04C0020881BFF1FEA
:1041D0003865FF1FAC08FF1FB8A6FF1FAC1BFF1FF1
:1041E00030B595B00CA80123354A36490CF098FD3E
:1041F0000CA80CF037FC20B90CA80CF019FC15B079
:1042000030BD68463049314D19F040FB0CA80CF028
:104210007BFB80B10CA80CF095FBC3B2392B19467F
:10422000684606D80A2B16D019F026FC029B202BD4
:10423000ECD9FFF7FFFE0CA80CF006FC244B2A6813
:104240001A60684600232B6019F0E0FA0CA80CF005
:10425000EFFB15B030BD2C21684619F04DFC04462B
:10426000B4F1FF3F03464FF00002694604A8E0D0D6
:1042700019F052FC621C029B694608A819F04CFC1C
:1042800004A819F06DFC044608A819F069FC0E4951
:1042900045F82400684619F0ADFB08A819F0B6FAF5
:1042A00004A819F0B3FA40F6FF739C42AED14FF464
:1042B0007A7017F0A9F90CA80CF0C6FBBBE700BF99
:1042C00098640200644D002010140500A4A7FF1F8D
:1042D000F808FF1F2DE9F0412DED028B98B008A8DA
:1042E0000CF098FBAE49AF480CF08EFD002840F072
:1042F000BD81AD49AB480CF087FD002840F01E8120
:10430000AA49A8480CF080FD002840F09380A849F5
:10431000A4480CF079FD50B908A80CF095FB08A84A
:104320000CF086FB18B0BDEC028BBDE8F08110AD3F
:1043300001239F4A9B4928460CF0F2FC9DF844104B
:10434000129A9DF84C308DF824100A928DF82C307A
:1043500013A90DF12D020DF13A0311F8010F02F826
:10436000010B9A42F9D1179B0F9328460CF060FB82
:1043700008A80CF077FB0028CED068468D49DFED09
:104380008E8ADFF838826C4619F080FA002608E041
:1043900019F072FB029B202B00F20F82322E00F0EC
:1043A000E48108A80CF0B0FA002800F0E18108A828
:1043B0000CF0C8FAC3B2392B1946204600F2FD8131
:1043C0000A2BE5D12E21204619F096FB0746B7F1BE
:1043D000FF3F0346214604A84FF0000200F0ED81A4
:1043E00019F09AFB7A1C029B2146284619F094FB8F
:1043F00004A819F0B5FB08EE100A284619F0B0FB26
:1044000007EE900AB8EEE77AB8EEC88AC7EE287AC7
:1044100008EB860367492046013677EE887AC3EDBC
:10442000007A19F0E7FA284619F0F0F904A819F013
:10443000EDF9B3E710AD01235C4A5A4928460CF068
:104440006FFC9DF84410129A9DF84C308DF82410A2
:104450000A928DF82C3013A90DF12D020DF13A03BB
:1044600011F8010F02F8010B9A42F9D1179B0F9333
:1044700028460CF0DDFA08A80CF0F4FA00283FF406
:1044800046AF68464B49DFED4C8ADFF834816C4615
:1044900019F0FCF9002608E019F0EEFA029B202B37
:1044A00000F29181322E00F06A8108A80CF02CFAFB
:1044B000002800F0678108A80CF044FAC3B2392B39
:1044C0001946204600F27F810A2BE5D12E21204695
:1044D00019F012FB0746B7F1FF3F0346214604A837
:1044E0004FF0000200F06F8119F016FB7A1C029B5E
:1044F0002146284619F010FB04A819F031FB08EEFC
:10450000100A284619F02CFB07EE900AB8EEE77A5D
:10451000B8EEC88AC7EE287A08EB860325492046FC
:10452000013677EE887AC3ED007A19F063FA2846EF
:1045300019F06CF904A819F069F9B3E710AD01237B
:10454000194A184928460CF0EBFB9DF84410129AC2
:104550009DF84C308DF824100A928DF82C3013A958
:104560000DF12D020DF13A0311F8010F02F8010BC4
:104570009A42F9D1179B0F9328460CF059FA08A8D4
:104580000CF070FA00283FF4BBAE68460949DFED35
:104590000A8ADFF830806C4619F078F900261CE0B2
:1045A0004009FF1F644D00205808FF1F7C08FF1FB3
:1045B0004808FF1F10140500286B6E4EECA5FF1F66
:1045C000C8A6FF1FAC23FF1F19F056FA029B202B31
:1045D00000F2FC80322E00F0DC8008A80CF094F988
:1045E000002800F0D98008A80CF0ACF9C3B2392B30
:1045F0001946204600F2EA800A2BE5D12E212046FA
:1046000019F07AFA0746B7F1FF3F0346214604A89E
:104610004FF0000200F0DA8019F07EFA7A1C029B5B
:104620002146284619F078FA04A819F099FA08EEFC
:10463000100A284619F094FA07EE900AB8EEE77AC5
:10464000B8EEC88AC7EE287A08EB8603614920468F
:10465000013677EE887AC3ED007A19F0CBF9284657
:1046600019F0D4F804A819F0D1F8B3E710AD01237C
:10467000594A5A4928460CF053FB9DF84410129AA7
:104680009DF84C308DF824100A928DF82C3013A927
:104690000DF12D020DF13A0311F8010F02F8010B93
:1046A0009A42F9D1179B0F9328460CF0C1F908A83C
:1046B0000CF0D8F900283FF41CAE68464549DFED00
:1046C000488ADFF820816C4619F0E0F8002606E001
:1046D00019F0D2F9029B202B72D8322E63D008A891
:1046E0000CF012F9002861D008A80CF02BF9C3B225
:1046F000392B1946204663D80A2BE9D12E212046B2
:1047000019F0FAF90746B7F1FF3F0346214604A81E
:104710004FF0000254D019F0FFF97A1C029B214699
:10472000284619F0F9F904A819F01AFA08EE100A47
:10473000284619F015FA07EE900AB8EEE77AB8EEB7
:10474000C88AC7EE287A08EB86032249204601363C
:1047500077EE887AC3ED007A19F04CF9284619F003
:1047600055F804A819F052F8B7E708A80CF06CF94E
:1047700008A80CF069F9204619F048F8CCE508A81B
:104780000CF062F908A80CF05FF9204619F03EF829
:10479000BDE508A80CF058F908A80CF055F920461A
:1047A00019F034F8ACE508A80CF04EF908A80CF0A4
:1047B0004BF9204619F02AF89BE5FFF73BFCD7E7B9
:1047C000FFF738FCF2E7FFF735FCDBE7FFF732FCD9
:1047D000E2E700BF101405004009FF1F644D0020F0
:1047E000286B6E4E900B0020CF49D04AD04BD14859
:1047F00091ED007AD2ED006A93ED006ACE499FED0B
:10480000CF4AD0ED004A30B440F6E770012407EEFD
:10481000904AB8EEE75A192335EE045A03E0013303
:10482000834200F0138207EE903A03FB03F2F8EEA6
:10483000E77A05EE902A67EE877AF8EEE55AE5EE1C
:10484000A67A77EE867A74EEE77AF0EEE77AB4EE3F
:10485000E75AF1EE10FAE2DB01340B2C36D17A2361
:104860000122B748B74CD0ED004A9FEDB44A23600F
:10487000012540F6E77407EE905AB8EEE75A19237F
:1048800035EE045A03E00133A34200F0E58107EE60
:10489000903A03FB03F0F8EEE77A05EE900A67EE34
:1048A000877AF8EEE55AE5EEA67A77EE867A74EE28
:1048B000E77AF0EEE77AB4EEE75AF1EE10FAE2DBCF
:1048C00001350B2D06D0581CD5D006E05D1C9ED0BE
:1048D0000022C6E740F26E2301229B489B4CD0ED9C
:1048E000004A9FED964A2360012540F6E77407EEE3
:1048F000905AB8EEE75A192335EE045A03E0013313
:10490000A34200F0A68107EE903A03FB03F0F8EE15
:10491000E77A05EE900A67EE877AF8EEE55AE5EE5B
:10492000A67A77EE867A74EEE77AF0EEE77AB4EE5E
:10493000E75AF1EE10FAE2DB01350B2D02D0581CDC
:10494000D5D002E040F2345301228148814CD0EDB1
:10495000004A9FED7A4A2360012540F6E77407EE8E
:10496000905AB8EEE75A192335EE045A03E00133A2
:10497000A34200F0748107EE903A03FB03F0F8EED7
:10498000E77A05EE900A67EE877AF8EEE55AE5EEEB
:10499000A67A77EE867A74EEE77AF0EEE77AB4EEEE
:1049A000E75AF1EE10FAE2DB01350B2D02D0581C6C
:1049B000D5D002E040F2492301226748674CD0ED90
:1049C000004A9FED5E4A2360012540F6E77407EE3A
:1049D000905AB8EEE75A192335EE045A03E0013332
:1049E000A34200F0428107EE903A03FB03F0F8EE99
:1049F000E77A05EE900A67EE877AF8EEE55AE5EE7B
:104A0000A67A77EE867A74EEE77AF0EEE77AB4EE7D
:104A1000E75AF1EE10FAE2DB01350B2D02D0581CFB
:104A2000D5D002E04FF4397301224D489FED434A3F
:104A3000DFED4C4A0360012540F6E77407EE905A1B
:104A4000B8EEE75A192335EE045A03E00133A342C6
:104A500000F0088107EE903A03FB03F0F8EEE77AE6
:104A600005EE900A67EE877AF8EEE55AE5EEA67A4B
:104A700077EE867A74EEE77AF0EEE77AB4EEE75AEC
:104A8000F1EE10FAE2DB01350B2D02D0581CD5D027
:104A900002E04FF43E73012233489FED284ADFEDD8
:104AA000334A0360012540F6E77407EE905AB8EEEA
:104AB000E75A192335EE045A03E00133A34200F00C
:104AC000BF8007EE903A03FB03F0F8EEE77A05EEBD
:104AD000900A67EE877AF8EEE55AE5EEA67A77EE69
:104AE000867A74EEE77AF0EEE77AB4EEE75AF1EE02
:104AF00010FAE2DB01350B2D02D0581CD5D001E0B5
:104B0000902301221A489FED0D4ADFED1A4A0360F7
:104B1000012540F6E77407EE905AB8EEE75A1923DC
:104B200035EE045A2BE000BF2409FF1FC8A5FF1F64
:104B3000AC18FF1F1008FF1FA008FF1F0000000097
:104B40001408FF1FA4A5FF1F1808FF1FA8A5FF1F1B
:104B50001C08FF1FACA5FF1F2008FF1FB0A5FF1FEB
:104B6000B4A5FF1F00003E449808FF1F000010433B
:104B7000F408FF1F00007F440133A34263D007EE17
:104B8000903A03FB03F0F8EEE77A05EE900A67EE41
:104B9000877AF8EEE55AE5EEA67A77EE867A74EE35
:104BA000E77AF0EEE77AB4EEE75AF1EE10FAE3DBDB
:104BB00001350B2D02D0581CADD002E04FF47F73AD
:104BC00001222B489FED2B4ADFED2B4A0360012584
:104BD00040F6E77407EE905AB8EEE75A192335EE1F
:104BE000045A02E00133A34227D007EE903A03FBB8
:104BF00003F0F8EEE77A05EE900A67EE877AF8EEB2
:104C0000E55AE5EEA67A77EE867A74EEE77AF0EE6C
:104C1000E77AB4EEE75AF1EE10FAE3DB01350B2D3B
:104C200005D0581CD6D00B6022B930BC70474FF469
:104C3000FE730B6030BCFFF7FDB94FF0FF33EDE7BB
:104C40004FF0FF3356E74FF0FF33B1E74FF0FF333C
:104C500002E64FF0FF336FE64FF0FF3330E64FF0E0
:104C6000FF33A1E64FF0FF330DE74FF0FF33D3E6FC
:104C70009C08FF1F000000000000FE4308B56422EE
:104C80004FF45C71112018F01DFD652016F0BCFC7E
:104C9000642240F21741112018F014FD652016F02F
:104CA000B3FC1120642240F2275118F00BFD65205F
:104CB000BDE8084016F0A8BC08B5C82240F227514C
:104CC000112018F0FFFCC92016F09EFC1120DC22F8
:104CD00040F2174118F0F6FCDD20BDE8084016F060
:104CE00093BC00BF70B594B0FFF7D0F8394B3A4889
:104CF00018603A4A3A490CA813230CF011F80CA892
:104D00000BF0B0FE20B90CA80BF092FE14B070BDF1
:104D10003449354E08A818F0B9FD344A3449354BAA
:104D200012681B68096804A801FB02310A2218F006
:104D3000F3FD04A908A818F0AFFE01462E4818F0AC
:104D400049FE04A818F062FD08A818F05FFD2A4982
:104D50000CA818F087FA0CA818F0AAFA01240A2265
:104D60002146684618F0C4FD694604A818F0A2FD63
:104D7000224904A818F098FE0A2256F82410054685
:104D800008A818F0DDFD08A9284618F085FE0146A0
:104D9000194818F01FFE08A818F038FD04A818F0EC
:104DA00035FD684618F032FD13490CA818F05AFA80
:104DB00001340CA818F07CFAB4F5805FCFD1FFF76E
:104DC0007BFF0CA80BF040FE0CA80BF031FE14B0DA
:104DD00070BD00BFD04D0020B5040000FC07FF1FD0
:104DE000644D0020A86402008C65FF1FD0080020DD
:104DF0006809FF1FA04C00207065FF1FAC64020013
:104E0000F8B51248124F00253D602C4629462B4626
:104E1000064650F823208A4203D956F8234001253C
:104E200021460133B3F5805FF3D165B9094B99424F
:104E300008D9094C01232370FFF754FFFDF7FEFF4B
:104E400000232370F8BD3C60F0E700BF8C65FF1FB6
:104E50003C65FF1F80969800A0A5FF1F70B54449D0
:104E6000444894B00BF0D0FF00287CD1424B434C17
:104E70001B68434D23600CA8424E3D4A3D492E60BD
:104E800013230BF04DFF0CA80BF0ECFD20B90CA880
:104E90000BF0CEFD14B070BD0A220021684618F058
:104EA00027FD694604A818F005FD3749374E04A8C8
:104EB00018F0FAFD0A222168054608A818F02CFD12
:104EC00008A9284618F0E8FD0146314818F082FD8F
:104ED00008A818F09BFC04A818F098FC684618F085
:104EE00095FC2B490CA818F0BDF90CA818F0E0F9B6
:104EF00001240A222146684618F0FAFC694604A8F3
:104F000018F0D8FC204904A818F0CEFD0A2256F863
:104F10002410054608A818F013FD08A9284618F023
:104F2000BBFD01461A4818F055FD08A818F06EFCA4
:104F300004A818F06BFC684618F068FC14490CA82B
:104F400018F090F901340CA818F0B2F9B4F5805FAC
:104F5000CFD1FFF7B1FE0CA80BF076FD0CA80BF03B
:104F600067FD14B070BD024902480BF05BFF7DE79E
:104F700098640200644D0020A04C0020F808FF1F38
:104F8000D04D0020B5040000AC6402008C65FF1F0A
:104F90007065FF1F38B5352444F6B0250121112076
:104FA00016F018FB2B46013BFDD10021112016F015
:104FB00011FB2B46013BFDD1013CEFD1412443F6CF
:104FC00038350121112016F005FB2B46013BFDD1A0
:104FD0000021112016F0FEFA2B46013BFDD1013CC9
:104FE000EFD1352444F6B0250121112016F0F2FA54
:104FF0002B46013BFDD10021112016F0EBFA2B4688
:10500000013BFDD1013CEFD138BD00BF38B5642470
:1050100043F638350121112016F0DCFA2B46013B0E
:10502000FDD10021112016F0D5FA2B46013BFDD110
:10503000013CEFD1782444F6B0250121112016F06F
:10504000C9FA2B46013BFDD10021112016F0C2FA0E
:105050002B46013BFDD1013CEFD138BDF0B5524BA1
:105060001B7803BB514E5248524A534D534C544F38
:10507000544B326002605449544E2E604FF07C52C3
:105080002260DFF864E1524E524D5348534A3B6070
:105090003227534C0F600521CEF8003033602B606F
:1050A00004601160F0BD012B1DD1444E4D4F4E48A0
:1050B000444B3760404A3D4C414F43493D4D0360AE
:1050C0004FF0824025601060414E434D384C4148BE
:1050D000424A3B6019270F600A2133602B6023602E
:1050E00003601160F0BD022B1BD1304C3E4A3F4B98
:1050F0003148324D34493B4E2360384F3C4C1360AD
:105100000F222E6004600A602D4E334D284C31482A
:105110002F493A60374A33602B60236003600A608E
:10512000F0BD032B1DD1244B204D224A3249234E82
:1051300025481F4C2A60314F196032252A49214BDE
:105140003760056022601E4F214E224D2248234ABF
:10515000234C0B6005213B6033602B6004601160C1
:10516000F0BD042B1ED1154B104D1148114A124CA5
:105170002349154F2A6002601960224D1049114BD6
:1051800025602322DFF860E0114E124D12483A608C
:10519000124A134C0B600721CEF8003033602B60AD
:1051A00004601160F0BD00BF6C65FF1FDC07FF1FCE
:1051B0007809FF1F00803B453008FF1F3408FF1FA0
:1051C0006C08FF1F0000FA44B408FF1F0000A04055
:1051D0005009FF1F3809FF1F7008FF1F2C08FF1F11
:1051E000008009456666E63E6C09FF1F0080BB44EF
:1051F0000000104100007A449A999940CDCC0C3FB0
:105200008FC2F53E0000C0402DE9F0472DED028B26
:10521000642082B0DB4D16F0F7F900242E462046BC
:1052200015F088FB0134042C06F8010BF7D1D64E9B
:105230003746204615F07EFB0134082C07F8010B99
:10524000F7D1D24FB846204615F074FB01340C2C30
:1052500008F8010BF7D1D5ED007ACA4BF4EE677A66
:10526000D6ED007AF1EE10FA64BFC94A1A60F4EE86
:10527000677A6CBF4FF001084FF00008F1EE10FAAA
:10528000C14B80F1DC82D7ED007AC04BF4EE677A37
:10529000F1EE10FA80F1D882DFF8F8A22424D1468A
:1052A000204615F047FB0134282C09F8010BF7D1F3
:1052B0009AED008AB74BB4EE488AF1EE10FA80F10D
:1052C000B082DFEDB57AB4EEE78AF1EE10FA40F382
:1052D0005882F2EE047AB0EE678ACAED007ADFF8FF
:1052E000BCA22924D146204615F024FB01342D2CE4
:1052F00009F8010BF7D1DAED007AA84BF4EE677AE2
:10530000F1EE10FA80F194829FEDA57AF4EEC77A5F
:10531000F1EE10FA40F32C829FEDA27AF0EE477A7C
:105320008AED007AB0EE007AF0EE086AB0EE676AB5
:10533000A8EE076A9C4B9D4AE8EE267A282082ED6B
:10534000006AC3ED007A15F0F5FA994B002840F099
:10535000D1811870192015F0EDFA0828954C00F34A
:10536000D2812060002800F0DB811F2015F0E2FAD6
:10537000642300FB0330904A44F620639842106097
:1053800000F22882DFF834A21A24D146204615F014
:10539000D1FA01341E2C09F8010BF7D1DAED007AAD
:1053A000864BF4EE677AF1EE10FA80F13082DFF886
:1053B00010A22024D146204615F0BCFA0134242C3A
:1053C00009F8010BF7D1DAED007A7D4BF4EE677A3C
:1053D000F1EE10FA80F12082182015F0ABFA0328C4
:1053E00000F2EC81774B1870774B002840F0738106
:1053F0004FF084421A607549754B7648764A0860CA
:105400001A60D5ED007AF5EEC07AF1EE10FA40F2AE
:105410002E819FED727AF4EEC77AF1EE10FA00F366
:105420002681D6ED007AF5EEC07AF1EE10FA40F260
:105430000F819FED6A7AF4EEC77AF1EE10FA00F36D
:105440000781D7ED007AF5EEC07AF1EE10FA40F25E
:10545000F0809FED627AF4EEC77AF1EE10FA00F375
:10546000E8802D2015F066FA05462E2015F062FA28
:105470005B4E00EB05252F20356015F05BFA0446E6
:10548000302015F057FA574B00EB04208542186086
:1054900040F309810A2140F6F672322031601A6029
:1054A00015F048FA042800F210814F4B1870FFF7EE
:1054B000D5FD332015F03EFA0446342015F03AFAB3
:1054C00000EB0420A0F10A0246F29E139A4200F279
:1054D0006181464B186007EE900A1620B8EEE70A85
:1054E00015F0E6FF7F21162015F04EFE404B7F227F
:1054F00035201A6015F01EFA012840F22B81002198
:10550000352015F031FA3B4C3B493C4B002545F228
:105510001F0047F2B332257008601A60384E3624F7
:105520003546204615F006FA01343A2C05F8010BF1
:10553000F7D1D6ED007A324CF4EE677AF1EE10FA3C
:1055400080F187819FED2F7AF4EEC77AF1EE10FAA1
:1055500000F19C80B1EE047AF4EEC77AF1EE10FA15
:1055600000F394803A2015F0E5F904463B2015F04D
:10557000E1F9052C00F0DE800F2C45D14B2800F01E
:10558000DC8041E07C09FF1F8009FF1F8409FF1FA9
:105590000000D0424008FF1F0000C842D807FF1F8C
:1055A0000000964300001643D0A5FF1F6465FF1F4F
:1055B000E4A5FF1FAC08FF1F6809FF1FE008FF1FDD
:1055C000B008FF1FC04C0020EC08FF1FA408FF1FFD
:1055D000A808FF1F008025440080B64400F07F45E6
:1055E0000009FF1F3C08FF1F6C65FF1F3C09FF1FE0
:1055F000F008FF1FC4A6FF1F6808FF1F4408FF1F15
:105600003409FF1F0AD7233C05213A2015F0ACF9D5
:1056100001213B2015F0A8F99C499D4B0520012252
:1056200008601A60FEF706FD02B0BDEC028BBDE813
:10563000F08702A8974B40F8043D042208213B6004
:1056400015F0BAF90A2015F0DFFF4FF0010808E75E
:1056500002A8914B40F8043D04221146336015F036
:10566000ABF90A2015F0D0FF4FF00108E9E602A8D7
:105670008A4B40F8043D042200212B6015F09CF970
:105680000A2015F0C1FF4FF00108CAE602A84FF04A
:105690007E5340F8043D0422362133604FF0010868
:1056A00015F08AF95EE7092DDCBF0A223260B0F5F9
:1056B000805FA8BF40F6F6724FF03200A8BF1A60B4
:1056C00015F038F904287FF6F0AE3220002115F0ED
:1056D0004BF90020E9E6012800F08780022800F05D
:1056E0008D806F4A1A606F496F4B7048704A08602E
:1056F0001A6086E6012219201A7015F01BF9082895
:105700006C4C7FF72EAE082319461920236015F044
:105710002BF90A2015F078FF206800287FF425AEC9
:10572000012319461920236015F01EF90A2015F0EF
:105730006BFF1AE601287FF467AF544A544B14609C
:105740001860B8F1000F7FF46DAF02B0BDEC028BB2
:10575000BDE8F087002840F08B80574A5749584BE6
:10576000107045F21F0047F2B33208601A60D5E6A8
:105770009FED547AF4EEC77AF1EE10FA3FF5CCAD16
:10578000D0E5DFED507AB4EEE78AF1EE10FA3FF59E
:10579000A0ADA4E54C4C4FF47A7303213320236071
:1057A00015F0E2F80A2015F02FFF2178342015F0CB
:1057B000DBF80A2015F028FF20688CE60023434C14
:1057C00019461820237015F0CFF80A2015F01CFF99
:1057D000207809E64FF4616324211F20136015F03F
:1057E000C3F80A2015F010FFCCE52D4A1A602D49A8
:1057F0002D4B3748374A08601A6002E6364A1A606D
:105800002849294B3548364A08601A60F9E5354A77
:105810001A604FF00108CAE5334A1A604FF00108D8
:10582000DAE5B2EE048A83ED008A4FF0010856E50E
:10583000DFED2E7A4FF00108C3ED007A72E5164ACB
:105840001A604FF001081EE5124A1A604FF0010875
:1058500022E502A84FF07E5340F8043D0422362191
:1058600023604FF0010815F0A7F8D4ED007A69E63F
:1058700001287FF453AE104A1049114B10704BF6BB
:10588000BF5044F6AB2208601A6047E69408FF1F39
:105890007808FF1F0080064500007A440000D042CF
:1058A0000000F442A408FF1FA808FF1F0000B64331
:1058B00000401F44AC08FF1FC4A6FF1F6808FF1F5D
:1058C0004408FF1FCDCCCC3D3C09FF1FC04C00203D
:1058D0000000AC430000B04400003A4300401844CC
:1058E0000000DC440080224400C0A84400001643AD
:1058F000174A184B92ED007AD3ED007A16491748F3
:10590000B8EE477AF8EE677A0022C7EE276AF1EE22
:10591000666A51F8223007EE903A50F8223007EECE
:10592000103AF8EE677AB8EE477AE6EE877AF5EE47
:10593000C07AF1EE10FA56BFFCEEE77A002317EEBC
:10594000903A41F822300132B2F5805FE1D17047E0
:10595000A04C0020F808FF1F8C65FF1FA4A7FF1FA5
:1059600023482449002350F8232041F82320013301
:10597000B3F5805FF7D12DE9F0411F4F002240F6CB
:10598000FC76541C51F8220051F82480194D931CC8
:1059900002F1030C02F1040E51F82CC051F823302F
:1059A00051F82EE000EB800000EB8800704400EB23
:1059B0004C0003EB43030344A7FB0303DB08B4429F
:1059C00041F822302246DCD143F6EC7343F6F07204
:1059D000E958A95043F6F472E958A95043F6F87211
:1059E000E958A95043F6FC72EB58AB50BDE8F08182
:1059F0008C65FF1F600C002089888888F8B5A0F1AD
:105A00000A0240F632739A4259D807461BF0C8FA88
:105A100041EC100B18F000FD51EC100B1BF0D6FD03
:105A20003228A8BF322044003B1B264D3C4455F889
:105A3000231055F82420A3420A444FEA520E3EDCBC
:105A4000002601343146284655F823208A4284BF77
:105A500050F823101E4601339C42F5D1BE422ED190
:105A600040F628239E4207EE901AA7F2262740F61A
:105A70000203CCBFDFED146ADFED146A9F42F8EE3B
:105A8000677A11D907EE10EAB8EEC77A87EE276A6F
:105A9000F4EEC66AF1EE10FA11DDB5EEC06AF1EE71
:105AA00010FA0CDD0120F8BD07EE106A9FED086AC0
:105AB000DFED086AB8EEC77AE7EE066AE2E74FF074
:105AC000FF30F8BD600C00206666E63E9A99593FAB
:105AD000A6994CB9BB12753F2DE9F04F2DED028B05
