:10000000F8FF022099010000BD0B0200750B0200F1
:10001000750B0200750B0200750B0200750B0200D8
:10002000750B0200750B0200750B0200BD0B020080
:10003000BD0B0200750B0200653002006930020042
:10004000BD0B0200BD0B0200BD0B0200BD0B020088
:10005000BD0B0200BD0B0200BD0B0200BD0B020078
:10006000BD0B0200BD0B0200BD0B0200BD0B020068
:10007000BD0B0200BD0B0200BD0B0200BD0B020058
:10008000BD0B0200BD0B0200BD0B0200BD0B020048
:10009000BD0B0200BD0B0200BD0B0200BD0B020038
:1000A0001904020025040200BD0B0200BD0B020072
:1000B000BD0B0200BD0B0200BD0B0200BD0B020018
:1000C000BD0B0200BD0B0200BD0B0200BD0B020008
:1000D000BD0B0200BD0B0200BD0B0200F92F00009A
:1000E000BD0B0200BD0B0200BD0B0200A1690100A7
:1000F000BD0B0200BD0B0200BD0B0200BD0B0200D8
:10010000B5320200C9320200DD320200F1320200D3
:10011000BD0B0200AD1F0200BD0B0200BD0B0200B3
:10012000BD0B0200BD0B0200BD0B0200BD0B0200A7
:10013000BD0B0200BD0B0200BD0B0200BD0B020097
:10014000BD0B0200BD0B0200211D0200BD0B020011
:10015000BD0B0200BD0B0200BD0B0200BD0B020077
:10016000BD0B0200BD0B020031040200BD0B0200FA
:10017000BD0B0200BD0B0200BD0B0200BD0B020057
:10018000BD0B0200BD0B0200BD0B0200BD0B020047
:10019000BD0B0200BD0B0200584B4CF2205210B5B3
:1001A0001A804DF628121A8000BF00BF20F00AFD09
:1001B000534B4FF030621A60524A9A60524ADA60EA
:1001C000524B4FF470021A60514A136813F4807353
:1001D00004D150490B604FF4A85313604E4B1A786A
:1001E000110703D51A7842F008021A704B4B4C499C
:1001F0002A221A704B4A4C4B8B4204D252F8040FFD
:1002000043F8040BF8E7494B494900228B4202D2DC
:1002100043F8042BFAE74749474A002352F82300E2
:1002200041F823000133662BF8D1444B444A802126
:1002300003F8011B9342FBD1424B3E4A1A60424BEA
:100240008A221A70A3F5805324225A70A0221A70B1
:100250009A799207FCD59A79D406FCD43B4A9379D3
:1002600003F00C03082B394BF9D103221A714622F3
:100270005A719A799006FCD5344A9179334B4906E4
:10028000FBD5334A4FF08271116009215160202261
:100290001A709A7902F00C020C2AFAD12D4B2E4AD0
:1002A0001A602E4B2E4A1A6000225A60072243F829
:1002B000042C2C4AC3F80C2D62B621F059FA154BC8
:1002C0001B68DA0705D5284820F0B2FF274B284ADB
:1002D0001A60284B1B785B0609D5244C244B2268F6
:1002E0009A4204D1204820F0A3FF0023236027F086
:1002F000BBFA20F06DFC23F09DFCFEE70E200540CC
:1003000030800440823F04000100002B88ED00E0B3
:1003100010D0034014D0034002D0074000E0074053
:100320006818FF1FB89A0300F806FF1F6818FF1F20
:1003300050C300200002FF1F0000000000E400E0A6
:1003400056E400E008ED00E00050064000400640A2
:100350004480044004800440C010050014E000E024
:10036000BFD40100000020200FB19F621CE00340B9
:10037000A5C3945A00F00740FFFFFFFFFFFFFFFFF8
:10038000FFFFFFFFFFFFFFFFFFFFFFFFFFFFFFFF7D
:10039000FFFFFFFFFFFFFFFFFFFFFFFFFFFFFFFF6D
:1003A000FFFFFFFFFFFFFFFFFFFFFFFFFFFFFFFF5D
:1003B000FFFFFFFFFFFFFFFFFFFFFFFFFFFFFFFF4D
:1003C000FFFFFFFFFFFFFFFFFFFFFFFFFFFFFFFF3D
:1003D000FFFFFFFFFFFFFFFFFFFFFFFFFFFFFFFF2D
:1003E000FFFFFFFFFFFFFFFFFFFFFFFFFFFFFFFF1D
:1003F000FFFFFFFFFFFFFFFFFFFFFFFFFFFFFFFF0D
:10040000FFFFFFFFFFFFFFFFFFFFFFFFDEF9FFFF23
:1004100010B5054C237833B9044B13B10448AFF33E
:1004200000800123237010BD6818FF1F000000002A
:10043000B49A0300084B10B51BB108490848AFF344
:1004400000800848036803B910BD074B002BFBD0A0
:10045000BDE81040184700BF000000006C18FF1FE7
:10046000B49A03006818FF1F0000000000207047C6
:10047000704700BF0349044B4FF4804001220860DD
:100480001A60704708F00F40AC19FF1F014B0122A2
:100490001A607047A419FF1F034A0449136801201A
:1004A0000344136008607047E8610020A00C00203E
:1004B00020F0B8BEF8B50E4607461FF01BFD0546F6
:1004C0001FF008FD04461FF0F5FC6401C0B204F4FF
:1004D000FF54ADB2A5F2BC75044344EA45243C8008
:1004E0001FF0B8FC05461FF0C5FC04461FF0D2FC07
:1004F000ED02640105F4FF2504F4FF542C43C0F31E
:10050000460004433480F8BD2DE9F043002283B057
:100510001FFA80F911461546DFF85880124F134E26
:1005200000E01D4658F825303C681148CDF804908D
:1005300003EBC3035B01B3FBF4F4C4F59473C2F59E
:10054000947201331BB2013212B209B200932BB282
:1005500034601EF021FA6B1CB3F5D27F2946326855
:10056000DFD103B0BDE8F083E84D00201065002026
:10057000F04D00207CBCFF1F2DE9F043002283B02A
:100580001FFA80F911461546DFF85880124F134EB6
:1005900000E01D4658F825303C681148CDF804901D
:1005A00003EBC3035B01B3FBF4F4C4F59473C2F52E
:1005B000947201331BB2013212B209B200932BB212
:1005C00034601EF0E9F96B1CB3F5D27F294632681E
:1005D000DFD103B0BDE8F083A80C00201065002037
:1005E000F04D002070B500202DE9F04F394BDFF8B9
:1005F000F4A01B68DFF8F09083B08046184626F020
:1006000023FD41EC100B23F047FD0022324B51EC4F
:10061000100B26F08FFD27F065F800241FFA88F8EC
:10062000CAF80000CB462746254613E030601BB2CF
:10063000C4F5947201328DE8080139B22BB2274813
:1006400012B21EF0A9F96B1CB3F5D27F34682F46A5
:100650003CD01D4659F82530012B22D95BF82500E6
:100660001F4E26F0F1FC41EC100B23F015FD00228B
:10067000194B51EC100B26F05DFD27F033F84FF4C9
:100680008F72DAF8003002FB00F0B0FBF3F0C0F537
:100690009473904203F10103C8D9114E0B233260C9
:1006A000C6E7C4F5947240F22913013239B20093BF
:1006B00012B22BB2CDF8048008481EF06DF96B1C05
:1006C000B3F5D27F4FF000042F46C2D103B0BDE88E
:1006D000F08F00BFA80C002000002440F04D002047
:1006E00010650020FC5AFF1F70B500209FED3D7A79
:1006F00038B53D4CF0EE476A002234F812309BB218
:1007000007EE903AF8EEE77A013277EEA67A3C2AC5
:1007100037EE277AF1D1DFED356A354DC7EE267A0F
:10072000292128460422C5ED007A20F0ABF90A20E1
:1007300020F0D0FF95ED006ADFED2A6A002134F841
:10074000112034F8113092B207EE902A9BB2B8EE25
:10075000E77A07EE903AF8EEE77A36EE477A76EEE9
:10076000677A01313C29E7EE276AE8D1DFED217A8B
:10077000214B224C86EEA77A00221A6017EE100A4F
:1007800026F084FC41EC100B23F0AAFE51EC100B78
:1007900026F0C8FFD5ED007A194B07EE100AF0EEEF
:1007A000006AB0EE086AF0EE675AE7EE265A15487E
:1007B000E7EE067A0422242180ED007AC3ED007A68
:1007C000C4ED005A20F05EF90A2020F083FF0121D9
:1007D000282020F02FF90A2020F07CFF0A4B01226C
:1007E0001A7038BD00000000A8C7FF1F000070424B
:1007F000C008FF1F00006C42A819FF1F1C09002041
:10080000C85AFF1F7808FF1F6C510020214B10B4FD
:100810001A681368506819780478507A137A044279
:1008200001EA03011BD0937A03F0030309B143F0FB
:10083000040343F008039910013B91720D2B0BD870
:10084000DFE803F021071B070A152121150A071B02
:100850000721D368013BD3605DF8044B7047937A5E
:1008600003F003030029E6D043F00403E3E7D36871
:100870005DF8044B023BD3607047D3685DF8044BCE
:100880000233D3607047D3685DF8044B0133D36003
:10089000704700BF34C00020214B10B45A68136861
:1008A000506819780478507A137A044201EA0301F7
:1008B0001BD0937A03F0030309B143F0040343F020
:1008C00008039910013B91720D2B0BD8DFE803F060
:1008D00021071B070A152121150A071B0721D368C9
:1008E000013BD3605DF8044B7047937A03F0030338
:1008F0000029E6D043F00403E3E7D3685DF8044B36
:10090000023BD3607047D3685DF8044B0233D36079
:100910007047D3685DF8044B0133D360704700BF64
:1009200034C00020214B10B49A68136850681978BD
:100930000478507A137A044201EA03011BD0937AB7
:1009400003F0030309B143F0040343F008039910D3
:10095000013B91720D2B0BD8DFE803F021071B0739
:100960000A152121150A071B0721D368013BD36013
:100970005DF8044B7047937A03F003030029E6D037
:1009800043F00403E3E7D3685DF8044B023BD36014
:100990007047D3685DF8044B0233D3607047D36867
:1009A0005DF8044B0133D360704700BF34C00020B2
:1009B000214B10B4DA681368506819780478507ABB
:1009C000137A044201EA03011BD0937A03F0030374
:1009D00009B143F0040343F008039910013B9172FD
:1009E0000D2B0BD8DFE803F021071B070A15212187
:1009F000150A071B0721D368013BD3605DF8044B40
:100A00007047937A03F003030029E6D043F0040310
:100A1000E3E7D3685DF8044B023BD3607047D368CB
:100A20005DF8044B0233D3607047D3685DF8044B24
:100A30000133D360704700BF34C00020214B10B495
:100A40001A691368506819780478507A137A044246
:100A500001EA03011BD0937A03F0030309B143F0C9
:100A6000040343F008039910013B91720D2B0BD83E
:100A7000DFE803F021071B070A152121150A071BD0
:100A80000721D368013BD3605DF8044B7047937A2C
:100A900003F003030029E6D043F00403E3E7D3683F
:100AA0005DF8044B023BD3607047D3685DF8044B9C
:100AB0000233D3607047D3685DF8044B0133D360D1
:100AC000704700BF34C00020214B10B45A6913682E
:100AD000506819780478507A137A044201EA0301C5
:100AE0001BD0937A03F0030309B143F0040343F0EE
:100AF00008039910013B91720D2B0BD8DFE803F02E
:100B000021071B070A152121150A071B0721D36896
:100B1000013BD3605DF8044B7047937A03F0030305
:100B20000029E6D043F00403E3E7D3685DF8044B03
:100B3000023BD3607047D3685DF8044B0233D36047
:100B40007047D3685DF8044B0133D360704700BF32
:100B500034C00020214B10B49A691368506819788A
:100B60000478507A137A044201EA03011BD0937A85
:100B700003F0030309B143F0040343F008039910A1
:100B8000013B91720D2B0BD8DFE803F021071B0707
:100B90000A152121150A071B0721D368013BD360E1
:100BA0005DF8044B7047937A03F003030029E6D005
:100BB00043F00403E3E7D3685DF8044B023BD360E2
:100BC0007047D3685DF8044B0233D3607047D36835
:100BD0005DF8044B0133D360704700BF34C0002080
:100BE000214B10B4DA691368506819780478507A88
:100BF000137A044201EA03011BD0937A03F0030342
:100C000009B143F0040343F008039910013B9172CA
:100C10000D2B0BD8DFE803F021071B070A15212154
:100C2000150A071B0721D368013BD3605DF8044B0D
:100C30007047937A03F003030029E6D043F00403DE
:100C4000E3E7D3685DF8044B023BD3607047D36899
:100C50005DF8044B0233D3607047D3685DF8044BF2
:100C60000133D360704700BF34C00020214B10B463
:100C70001A6A1368506819780478507A137A044213
:100C800001EA03011BD0937A03F0030309B143F097
:100C9000040343F008039910013B91720D2B0BD80C
:100CA000DFE803F021071B070A152121150A071B9E
:100CB0000721D368013BD3605DF8044B7047937AFA
:100CC00003F003030029E6D043F00403E3E7D3680D
:100CD0005DF8044B023BD3607047D3685DF8044B6A
:100CE0000233D3607047D3685DF8044B0133D3609F
:100CF000704700BF34C00020214B10B45A6A1368FB
:100D0000506819780478507A137A044201EA030192
:100D10001BD0937A03F0030309B143F0040343F0BB
:100D200008039910013B91720D2B0BD8DFE803F0FB
:100D300021071B070A152121150A071B0721D36864
:100D4000013BD3605DF8044B7047937A03F00303D3
:100D50000029E6D043F00403E3E7D3685DF8044BD1
:100D6000023BD3607047D3685DF8044B0233D36015
:100D70007047D3685DF8044B0133D360704700BF00
:100D800034C00020214B10B49A6A13685068197857
:100D90000478507A137A044201EA03011BD0937A53
:100DA00003F0030309B143F0040343F0080399106F
:100DB000013B91720D2B0BD8DFE803F021071B07D5
:100DC0000A152121150A071B0721D368013BD360AF
:100DD0005DF8044B7047937A03F003030029E6D0D3
:100DE00043F00403E3E7D3685DF8044B023BD360B0
:100DF0007047D3685DF8044B0233D3607047D36803
:100E00005DF8044B0133D360704700BF34C000204D
:100E1000214B10B4DA6A1368506819780478507A54
:100E2000137A044201EA03011BD0937A03F003030F
:100E300009B143F0040343F008039910013B917298
:100E40000D2B0BD8DFE803F021071B070A15212122
:100E5000150A071B0721D368013BD3605DF8044BDB
:100E60007047937A03F003030029E6D043F00403AC
:100E7000E3E7D3685DF8044B023BD3607047D36867
:100E80005DF8044B0233D3607047D3685DF8044BC0
:100E90000133D360704700BF34C00020214B10B431
:100EA0001A6B1368506819780478507A137A0442E0
:100EB00001EA03011BD0937A03F0030309B143F065
:100EC000040343F008039910013B91720D2B0BD8DA
:100ED000DFE803F021071B070A152121150A071B6C
:100EE0000721D368013BD3605DF8044B7047937AC8
:100EF00003F003030029E6D043F00403E3E7D368DB
:100F00005DF8044B023BD3607047D3685DF8044B37
:100F10000233D3607047D3685DF8044B0133D3606C
:100F2000704700BF34C00020214B10B45A6B1368C7
:100F3000506819780478507A137A044201EA030160
:100F40001BD0937A03F0030309B143F0040343F089
:100F500008039910013B91720D2B0BD8DFE803F0C9
:100F600021071B070A152121150A071B0721D36832
:100F7000013BD3605DF8044B7047937A03F00303A1
:100F80000029E6D043F00403E3E7D3685DF8044B9F
:100F9000023BD3607047D3685DF8044B0233D360E3
:100FA0007047D3685DF8044B0133D360704700BFCE
:100FB00034C00020214B10B49A6B13685068197824
:100FC0000478507A137A044201EA03011BD0937A21
:100FD00003F0030309B143F0040343F0080399103D
:100FE000013B91720D2B0BD8DFE803F021071B07A3
:100FF0000A152121150A071B0721D368013BD3607D
:101000005DF8044B7047937A03F003030029E6D0A0
:1010100043F00403E3E7D3685DF8044B023BD3607D
:101020007047D3685DF8044B0233D3607047D368D0
:101030005DF8044B0133D360704700BF34C000201B
:10104000214B10B4DA6B1368506819780478507A21
:10105000137A044201EA03011BD0937A03F00303DD
:1010600009B143F0040343F008039910013B917266
:101070000D2B0BD8DFE803F021071B070A152121F0
:10108000150A071B0721D368013BD3605DF8044BA9
:101090007047937A03F003030029E6D043F004037A
:1010A000E3E7D3685DF8044B023BD3607047D36835
:1010B0005DF8044B0233D3607047D3685DF8044B8E
:1010C0000133D360704700BF34C00020214B10B4FF
:1010D0001A6C1368506819780478507A137A0442AD
:1010E00001EA03011BD0937A03F0030309B143F033
:1010F000040343F008039910013B91720D2B0BD8A8
:10110000DFE803F021071B070A152121150A071B39
:101110000721D368013BD3605DF8044B7047937A95
:1011200003F003030029E6D043F00403E3E7D368A8
:101130005DF8044B023BD3607047D3685DF8044B05
:101140000233D3607047D3685DF8044B0133D3603A
:10115000704700BF34C00020214B10B45A6C136894
:10116000506819780478507A137A044201EA03012E
:101170001BD0937A03F0030309B143F0040343F057
:1011800008039910013B91720D2B0BD8DFE803F097
:1011900021071B070A152121150A071B0721D36800
:1011A000013BD3605DF8044B7047937A03F003036F
:1011B0000029E6D043F00403E3E7D3685DF8044B6D
:1011C000023BD3607047D3685DF8044B0233D360B1
:1011D0007047D3685DF8044B0133D360704700BF9C
:1011E00034C00020214B10B49A6C136850681978F1
:1011F0000478507A137A044201EA03011BD0937AEF
:1012000003F0030309B143F0040343F0080399100A
:10121000013B91720D2B0BD8DFE803F021071B0770
:101220000A152121150A071B0721D368013BD3604A
:101230005DF8044B7047937A03F003030029E6D06E
:1012400043F00403E3E7D3685DF8044B023BD3604B
:101250007047D3685DF8044B0233D3607047D3689E
:101260005DF8044B0133D360704700BF34C00020E9
:10127000214B10B4DA6C1368506819780478507AEE
:10128000137A044201EA03011BD0937A03F00303AB
:1012900009B143F0040343F008039910013B917234
:1012A0000D2B0BD8DFE803F021071B070A152121BE
:1012B000150A071B0721D368013BD3605DF8044B77
:1012C0007047937A03F003030029E6D043F0040348
:1012D000E3E7D3685DF8044B023BD3607047D36803
:1012E0005DF8044B0233D3607047D3685DF8044B5C
:1012F0000133D360704700BF34C00020214B10B4CD
:101300001A6D1368506819780478507A137A044279
:1013100001EA03011BD0937A03F0030309B143F000
:10132000040343F008039910013B91720D2B0BD875
:10133000DFE803F021071B070A152121150A071B07
:101340000721D368013BD3605DF8044B7047937A63
:1013500003F003030029E6D043F00403E3E7D36876
:101360005DF8044B023BD3607047D3685DF8044BD3
:101370000233D3607047D3685DF8044B0133D36008
:10138000704700BF34C00020214B10B45A6D136861
:10139000506819780478507A137A044201EA0301FC
:1013A0001BD0937A03F0030309B143F0040343F025
:1013B00008039910013B91720D2B0BD8DFE803F065
:1013C00021071B070A152121150A071B0721D368CE
:1013D000013BD3605DF8044B7047937A03F003033D
:1013E0000029E6D043F00403E3E7D3685DF8044B3B
:1013F000023BD3607047D3685DF8044B0233D3607F
:101400007047D3685DF8044B0133D360704700BF69
:1014100034C00020214B10B49A6D136850681978BD
:101420000478507A137A044201EA03011BD0937ABC
:1014300003F0030309B143F0040343F008039910D8
:10144000013B91720D2B0BD8DFE803F021071B073E
:101450000A152121150A071B0721D368013BD36018
:101460005DF8044B7047937A03F003030029E6D03C
:1014700043F00403E3E7D3685DF8044B023BD36019
:101480007047D3685DF8044B0233D3607047D3686C
:101490005DF8044B0133D360704700BF34C00020B7
:1014A000214B10B4DA6D1368506819780478507ABB
:1014B000137A044201EA03011BD0937A03F0030379
:1014C00009B143F0040343F008039910013B917202
:1014D0000D2B0BD8DFE803F021071B070A1521218C
:1014E000150A071B0721D368013BD3605DF8044B45
:1014F0007047937A03F003030029E6D043F0040316
:10150000E3E7D3685DF8044B023BD3607047D368D0
:101510005DF8044B0233D3607047D3685DF8044B29
:101520000133D360704700BF34C00020214B10B49A
:101530001A6E1368506819780478507A137A044246
:1015400001EA03011BD0937A03F0030309B143F0CE
:10155000040343F008039910013B91720D2B0BD843
:10156000DFE803F021071B070A152121150A071BD5
:101570000721D368013BD3605DF8044B7047937A31
:1015800003F003030029E6D043F00403E3E7D36844
:101590005DF8044B023BD3607047D3685DF8044BA1
:1015A0000233D3607047D3685DF8044B0133D360D6
:1015B000704700BF34C00020214B10B45A6E13682E
:1015C000506819780478507A137A044201EA0301CA
:1015D0001BD0937A03F0030309B143F0040343F0F3
:1015E00008039910013B91720D2B0BD8DFE803F033
:1015F00021071B070A152121150A071B0721D3689C
:10160000013BD3605DF8044B7047937A03F003030A
:101610000029E6D043F00403E3E7D3685DF8044B08
:10162000023BD3607047D3685DF8044B0233D3604C
:101630007047D3685DF8044B0133D360704700BF37
:1016400034C00020214B10B49A6E1368506819788A
:101650000478507A137A044201EA03011BD0937A8A
:1016600003F0030309B143F0040343F008039910A6
:10167000013B91720D2B0BD8DFE803F021071B070C
:101680000A152121150A071B0721D368013BD360E6
:101690005DF8044B7047937A03F003030029E6D00A
:1016A00043F00403E3E7D3685DF8044B023BD360E7
:1016B0007047D3685DF8044B0233D3607047D3683A
:1016C0005DF8044B0133D360704700BF34C0002085
:1016D000214B10B4DA6E1368506819780478507A88
:1016E000137A044201EA03011BD0937A03F0030347
:1016F00009B143F0040343F008039910013B9172D0
:101700000D2B0BD8DFE803F021071B070A15212159
:10171000150A071B0721D368013BD3605DF8044B12
:101720007047937A03F003030029E6D043F00403E3
:10173000E3E7D3685DF8044B023BD3607047D3689E
:101740005DF8044B0233D3607047D3685DF8044BF7
:101750000133D360704700BF34C00020214B10B468
:101760001A6F1368506819780478507A137A044213
:1017700001EA03011BD0937A03F0030309B143F09C
:10178000040343F008039910013B91720D2B0BD811
:10179000DFE803F021071B070A152121150A071BA3
:1017A0000721D368013BD3605DF8044B7047937AFF
:1017B00003F003030029E6D043F00403E3E7D36812
:1017C0005DF8044B023BD3607047D3685DF8044B6F
:1017D0000233D3607047D3685DF8044B0133D360A4
:1017E000704700BF34C00020214B10B45A6F1368FB
:1017F000506819780478507A137A044201EA030198
:101800001BD0937A03F0030309B143F0040343F0C0
:1018100008039910013B91720D2B0BD8DFE803F000
:1018200021071B070A152121150A071B0721D36869
:10183000013BD3605DF8044B7047937A03F00303D8
:101840000029E6D043F00403E3E7D3685DF8044BD6
:10185000023BD3607047D3685DF8044B0233D3601A
:101860007047D3685DF8044B0133D360704700BF05
:1018700034C00020214B10B49A6F13685068197857
:101880000478507A137A044201EA03011BD0937A58
:1018900003F0030309B143F0040343F00803991074
:1018A000013B91720D2B0BD8DFE803F021071B07DA
:1018B0000A152121150A071B0721D368013BD360B4
:1018C0005DF8044B7047937A03F003030029E6D0D8
:1018D00043F00403E3E7D3685DF8044B023BD360B5
:1018E0007047D3685DF8044B0233D3607047D36808
:1018F0005DF8044B0133D360704700BF34C0002053
:10190000214B10B4DA6F1368506819780478507A54
:10191000137A044201EA03011BD0937A03F0030314
:1019200009B143F0040343F008039910013B91729D
:101930000D2B0BD8DFE803F021071B070A15212127
:10194000150A071B0721D368013BD3605DF8044BE0
:101950007047937A03F003030029E6D043F00403B1
:10196000E3E7D3685DF8044B023BD3607047D3686C
:101970005DF8044B0233D3607047D3685DF8044BC5
:101980000133D360704700BF34C00020214B10B436
:10199000D3F880201368506819780478507A137A45
:1019A000044201EA03011BD0937A03F0030309B157
:1019B00043F0040343F008039910013B91720D2B8F
:1019C0000BD8DFE803F021071B070A152121150AB0
:1019D000071B0721D368013BD3605DF8044B7047B8
:1019E000937A03F003030029E6D043F00403E3E70E
:1019F000D3685DF8044B023BD3607047D3685DF851
:101A0000044B0233D3607047D3685DF8044B013355
:101A1000D360704734C00020214B10B4D3F8842029
:101A20001368506819780478507A137A044201EAEE
:101A300003011BD0937A03F0030309B143F00403BD
:101A400043F008039910013B91720D2B0BD8DFE88E
:101A500003F021071B070A152121150A071B07217F
:101A6000D368013BD3605DF8044B7047937A03F071
:101A700003030029E6D043F00403E3E7D3685DF8ED
:101A8000044B023BD3607047D3685DF8044B0233CC
:101A9000D3607047D3685DF8044B0133D36070475F
:101AA00034C00020214B10B4D3F88820136850684C
:101AB00019780478507A137A044201EA03011BD0A2
:101AC000937A03F0030309B143F0040343F00803DE
:101AD0009910013B91720D2B0BD8DFE803F0210721
:101AE0001B070A152121150A071B0721D368013B93
:101AF000D3605DF8044B7047937A03F00303002929
:101B0000E6D043F00403E3E7D3685DF8044B023BFF
:101B1000D3607047D3685DF8044B0233D3607047DD
:101B2000D3685DF8044B0133D360704734C00020A4
:101B3000214B10B4D3F88C201368506819780478BE
:101B4000507A137A044201EA03011BD0937A03F01E
:101B5000030309B143F0040343F008039910013B68
:101B600091720D2B0BD8DFE803F021071B070A1534
:101B70002121150A071B0721D368013BD3605DF8BB
:101B8000044B7047937A03F003030029E6D043F037
:101B90000403E3E7D3685DF8044B023BD36070476E
:101BA000D3685DF8044B0233D3607047D3685DF8A7
:101BB000044B0133D360704734C00020214B10B474
:101BC000D3F890201368506819780478507A137A03
:101BD000044201EA03011BD0937A03F0030309B125
:101BE00043F0040343F008039910013B91720D2B5D
:101BF0000BD8DFE803F021071B070A152121150A7E
:101C0000071B0721D368013BD3605DF8044B704785
:101C1000937A03F003030029E6D043F00403E3E7DB
:101C2000D3685DF8044B023BD3607047D3685DF81E
:101C3000044B0233D3607047D3685DF8044B013323
:101C4000D360704734C00020214B10B4D3F89420E7
:101C50001368506819780478507A137A044201EABC
:101C600003011BD0937A03F0030309B143F004038B
:101C700043F008039910013B91720D2B0BD8DFE85C
:101C800003F021071B070A152121150A071B07214D
:101C9000D368013BD3605DF8044B7047937A03F03F
:101CA00003030029E6D043F00403E3E7D3685DF8BB
:101CB000044B023BD3607047D3685DF8044B02339A
:101CC000D3607047D3685DF8044B0133D36070472D
:101CD00034C00020214B10B4D3F89820136850680A
:101CE00019780478507A137A044201EA03011BD070
:101CF000937A03F0030309B143F0040343F00803AC
:101D00009910013B91720D2B0BD8DFE803F02107EE
:101D10001B070A152121150A071B0721D368013B60
:101D2000D3605DF8044B7047937A03F003030029F6
:101D3000E6D043F00403E3E7D3685DF8044B023BCD
:101D4000D3607047D3685DF8044B0233D3607047AB
:101D5000D3685DF8044B0133D360704734C0002072
:101D6000214B10B4D3F89C2013685068197804787C
:101D7000507A137A044201EA03011BD0937A03F0EC
:101D8000030309B143F0040343F008039910013B36
:101D900091720D2B0BD8DFE803F021071B070A1502
:101DA0002121150A071B0721D368013BD3605DF889
:101DB000044B7047937A03F003030029E6D043F005
:101DC0000403E3E7D3685DF8044B023BD36070473C
:101DD000D3685DF8044B0233D3607047D3685DF875
:101DE000044B0133D360704734C00020214B10B442
:101DF000D3F8A0201368506819780478507A137AC1
:101E0000044201EA03011BD0937A03F0030309B1F2
:101E100043F0040343F008039910013B91720D2B2A
:101E20000BD8DFE803F021071B070A152121150A4B
:101E3000071B0721D368013BD3605DF8044B704753
:101E4000937A03F003030029E6D043F00403E3E7A9
:101E5000D3685DF8044B023BD3607047D3685DF8EC
:101E6000044B0233D3607047D3685DF8044B0133F1
:101E7000D360704734C00020214B10B4D3F8A420A5
:101E80001368506819780478507A137A044201EA8A
:101E900003011BD0937A03F0030309B143F0040359
:101EA00043F008039910013B91720D2B0BD8DFE82A
:101EB00003F021071B070A152121150A071B07211B
:101EC000D368013BD3605DF8044B7047937A03F00D
:101ED00003030029E6D043F00403E3E7D3685DF889
:101EE000044B023BD3607047D3685DF8044B023368
:101EF000D3607047D3685DF8044B0133D3607047FB
:101F000034C00020214B10B4D3F8A82013685068C7
:101F100019780478507A137A044201EA03011BD03D
:101F2000937A03F0030309B143F0040343F0080379
:101F30009910013B91720D2B0BD8DFE803F02107BC
:101F40001B070A152121150A071B0721D368013B2E
:101F5000D3605DF8044B7047937A03F003030029C4
:101F6000E6D043F00403E3E7D3685DF8044B023B9B
:101F7000D3607047D3685DF8044B0233D360704779
:101F8000D3685DF8044B0133D360704734C0002040
:101F9000214B10B4D3F8AC2013685068197804783A
:101FA000507A137A044201EA03011BD0937A03F0BA
:101FB000030309B143F0040343F008039910013B04
:101FC00091720D2B0BD8DFE803F021071B070A15D0
:101FD0002121150A071B0721D368013BD3605DF857
:101FE000044B7047937A03F003030029E6D043F0D3
:101FF0000403E3E7D3685DF8044B023BD36070470A
:10200000D3685DF8044B0233D3607047D3685DF842
:10201000044B0133D360704734C00020214B10B40F
:10202000D3F8B0201368506819780478507A137A7E
:10203000044201EA03011BD0937A03F0030309B1C0
:1020400043F0040343F008039910013B91720D2BF8
:102050000BD8DFE803F021071B070A152121150A19
:10206000071B0721D368013BD3605DF8044B704721
:10207000937A03F003030029E6D043F00403E3E777
:10208000D3685DF8044B023BD3607047D3685DF8BA
:10209000044B0233D3607047D3685DF8044B0133BF
:1020A000D360704734C00020214B10B4D3F8B42063
:1020B0001368506819780478507A137A044201EA58
:1020C00003011BD0937A03F0030309B143F0040327
:1020D00043F008039910013B91720D2B0BD8DFE8F8
:1020E00003F021071B070A152121150A071B0721E9
:1020F000D368013BD3605DF8044B7047937A03F0DB
:1021000003030029E6D043F00403E3E7D3685DF856
:10211000044B023BD3607047D3685DF8044B023335
:10212000D3607047D3685DF8044B0133D3607047C8
:1021300034C00020214B10B4D3F8B8201368506885
:1021400019780478507A137A044201EA03011BD00B
:10215000937A03F0030309B143F0040343F0080347
:102160009910013B91720D2B0BD8DFE803F021078A
:102170001B070A152121150A071B0721D368013BFC
:10218000D3605DF8044B7047937A03F00303002992
:10219000E6D043F00403E3E7D3685DF8044B023B69
:1021A000D3607047D3685DF8044B0233D360704747
:1021B000D3685DF8044B0133D360704734C000200E
:1021C000214B10B4D3F8BC201368506819780478F8
:1021D000507A137A044201EA03011BD0937A03F088
:1021E000030309B143F0040343F008039910013BD2
:1021F00091720D2B0BD8DFE803F021071B070A159E
:102200002121150A071B0721D368013BD3605DF824
:10221000044B7047937A03F003030029E6D043F0A0
:102220000403E3E7D3685DF8044B023BD3607047D7
:10223000D3685DF8044B0233D3607047D3685DF810
:10224000044B0133D360704734C00020214B10B4DD
:10225000D3F8C0201368506819780478507A137A3C
:10226000044201EA03011BD0937A03F0030309B18E
:1022700043F0040343F008039910013B91720D2BC6
:102280000BD8DFE803F021071B070A152121150AE7
:10229000071B0721D368013BD3605DF8044B7047EF
:1022A000937A03F003030029E6D043F00403E3E745
:1022B000D3685DF8044B023BD3607047D3685DF888
:1022C000044B0233D3607047D3685DF8044B01338D
:1022D000D360704734C00020214B10B4D3F8C42021
:1022E0001368506819780478507A137A044201EA26
:1022F00003011BD0937A03F0030309B143F00403F5
:1023000043F008039910013B91720D2B0BD8DFE8C5
:1023100003F021071B070A152121150A071B0721B6
:10232000D368013BD3605DF8044B7047937A03F0A8
:1023300003030029E6D043F00403E3E7D3685DF824
:10234000044B023BD3607047D3685DF8044B023303
:10235000D3607047D3685DF8044B0133D360704796
:1023600034C00020214B10B4D3F8C8201368506843
:1023700019780478507A137A044201EA03011BD0D9
:10238000937A03F0030309B143F0040343F0080315
:102390009910013B91720D2B0BD8DFE803F0210758
:1023A0001B070A152121150A071B0721D368013BCA
:1023B000D3605DF8044B7047937A03F00303002960
:1023C000E6D043F00403E3E7D3685DF8044B023B37
:1023D000D3607047D3685DF8044B0233D360704715
:1023E000D3685DF8044B0133D360704734C00020DC
:1023F000214B10B4D3F8CC201368506819780478B6
:10240000507A137A044201EA03011BD0937A03F055
:10241000030309B143F0040343F008039910013B9F
:1024200091720D2B0BD8DFE803F021071B070A156B
:102430002121150A071B0721D368013BD3605DF8F2
:10244000044B7047937A03F003030029E6D043F06E
:102450000403E3E7D3685DF8044B023BD3607047A5
:10246000D3685DF8044B0233D3607047D3685DF8DE
:10247000044B0133D360704734C00020214B10B4AB
:10248000D3F8D0201368506819780478507A137AFA
:10249000044201EA03011BD0937A03F0030309B15C
:1024A00043F0040343F008039910013B91720D2B94
:1024B0000BD8DFE803F021071B070A152121150AB5
:1024C000071B0721D368013BD3605DF8044B7047BD
:1024D000937A03F003030029E6D043F00403E3E713
:1024E000D3685DF8044B023BD3607047D3685DF856
:1024F000044B0233D3607047D3685DF8044B01335B
:10250000D360704734C00020214B10B4D3F8D420DE
:102510001368506819780478507A137A044201EAF3
:1025200003011BD0937A03F0030309B143F00403C2
:1025300043F008039910013B91720D2B0BD8DFE893
:1025400003F021071B070A152121150A071B072184
:10255000D368013BD3605DF8044B7047937A03F076
:1025600003030029E6D043F00403E3E7D3685DF8F2
:10257000044B023BD3607047D3685DF8044B0233D1
:10258000D3607047D3685DF8044B0133D360704764
:1025900034C00020214B10B4D3F8D8201368506801
:1025A00019780478507A137A044201EA03011BD0A7
:1025B000937A03F0030309B143F0040343F00803E3
:1025C0009910013B91720D2B0BD8DFE803F0210726
:1025D0001B070A152121150A071B0721D368013B98
:1025E000D3605DF8044B7047937A03F0030300292E
:1025F000E6D043F00403E3E7D3685DF8044B023B05
:10260000D3607047D3685DF8044B0233D3607047E2
:10261000D3685DF8044B0133D360704734C00020A9
:10262000214B10B4D3F8DC20136850681978047873
:10263000507A137A044201EA03011BD0937A03F023
:10264000030309B143F0040343F008039910013B6D
:1026500091720D2B0BD8DFE803F021071B070A1539
:102660002121150A071B0721D368013BD3605DF8C0
:10267000044B7047937A03F003030029E6D043F03C
:102680000403E3E7D3685DF8044B023BD360704773
:10269000D3685DF8044B0233D3607047D3685DF8AC
:1026A000044B0133D360704734C00020214B10B479
:1026B000D3F8E0201368506819780478507A137AB8
:1026C000044201EA03011BD0937A03F0030309B12A
:1026D00043F0040343F008039910013B91720D2B62
:1026E0000BD8DFE803F021071B070A152121150A83
:1026F000071B0721D368013BD3605DF8044B70478B
:10270000937A03F003030029E6D043F00403E3E7E0
:10271000D3685DF8044B023BD3607047D3685DF823
:10272000044B0233D3607047D3685DF8044B013328
:10273000D360704734C00020214B10B4D3F8E4209C
:102740001368506819780478507A137A044201EAC1
:1027500003011BD0937A03F0030309B143F0040390
:1027600043F008039910013B91720D2B0BD8DFE861
:1027700003F021071B070A152121150A071B072152
:10278000D368013BD3605DF8044B7047937A03F044
:1027900003030029E6D043F00403E3E7D3685DF8C0
:1027A000044B023BD3607047D3685DF8044B02339F
:1027B000D3607047D3685DF8044B0133D360704732
:1027C00034C00020214B10B4D3F8E82013685068BF
:1027D00019780478507A137A044201EA03011BD075
:1027E000937A03F0030309B143F0040343F00803B1
:1027F0009910013B91720D2B0BD8DFE803F02107F4
:102800001B070A152121150A071B0721D368013B65
:10281000D3605DF8044B7047937A03F003030029FB
:10282000E6D043F00403E3E7D3685DF8044B023BD2
:10283000D3607047D3685DF8044B0233D3607047B0
:10284000D3685DF8044B0133D360704734C0002077
:10285000214B10B4D3F8EC20136850681978047831
:10286000507A137A044201EA03011BD0937A03F0F1
:10287000030309B143F0040343F008039910013B3B
:1028800091720D2B0BD8DFE803F021071B070A1507
:102890002121150A071B0721D368013BD3605DF88E
:1028A000044B7047937A03F003030029E6D043F00A
:1028B0000403E3E7D3685DF8044B023BD360704741
:1028C000D3685DF8044B0233D3607047D3685DF87A
:1028D000044B0133D360704734C0002070B5044608
:1028E00008460D4625F0ACFE2368024629462046E0
:1028F0005B68BDE87040184738B503681B6804463C
:1029000098470546204620F039FD284438BD00BFD1
:1029100038B5044608460D4625F092FE2368024667
:1029200029465B68204698470546204620F026FD4C
:10293000284438BD38B5054620F086FD04462846B3
:1029400020F01CFD204438BD38B5C9B2054620F042
:1029500083FD0446284620F011FD204438BD00BF09
:1029600070B50568044628460E461EF049F88642B2
:1029700003D0314628461EF05DF8204670BD00BFEA
:1029800010B4036841681A780C78417A037A0C42D3
:1029900002EA03021BD0837A03F003030AB143F077
:1029A000040343F008039A10013B82720D2B0BD8ED
:1029B000DFE803F021071B070A152121150A071B71
:1029C0000721C368013BC3605DF8044B7047837AFD
:1029D00003F00303002AE6D043F00403E3E7C368EF
:1029E0005DF8044B023BC3607047C3685DF8044B5D
:1029F0000233C3607047C3685DF8044B0133C360A2
:102A0000704700BF08B50B463B2800F2C682DFE8DE
:102A100010F0BB02B202A902A00297028E02850248
:102A20007C0273026A02610258024F0246023D02B2
:102A300034022B022202190210020702AE01A50184
:102A40009C0193018A01810178016F0166015D019A
:102A500054014A01400136012C01220118010E01E6
:102A60000401FA00F000E600DC00D200C800BE005D
:102A7000B400AA00A00096008C00820078006E00CE
:102A800064005A00500046003C00BD4ABD49C2F8EF
:102A9000EC303B2004221EF005FB012008BDB84AA3
:102AA000B949C2F8E8303A2004221EF0FBFA0120AE
:102AB00008BDB34AB549C2F8E430392004221EF0FB
:102AC000F1FA012008BDAE4AB149C2F8E030382021
:102AD00004221EF0E7FA012008BDA94AAD49C2F858
:102AE000DC30372004221EF0DDFA012008BDA44AA4
:102AF000A949C2F8D830362004221EF0D3FA0120AA
:102B000008BD9F4AA549C2F8D430352004221EF0E2
:102B1000C9FA012008BD9A4AA149C2F8D030342030
:102B200004221EF0BFFA012008BD954A9D49C2F853
:102B3000CC30332004221EF0B5FA012008BD904AA3
:102B40009949C2F8C830322004221EF0ABFA0120A5
:102B500008BD8B4A9549C2F8C430312004221EF0CA
:102B6000A1FA012008BD864A9149C2F8C030302040
:102B700004221EF097FA012008BD814A8D49C2F84F
:102B8000BC302F2004221EF08DFA012008BD7C4AA3
:102B90008949C2F8B8302E2004221EF083FA0120A1
:102BA00008BD774A8549C2F8B4302D2004221EF0B2
:102BB00079FA012008BD724A8149C2F8B0302C2050
:102BC00004221EF06FFA012008BD6D4A7D49C2F84B
:102BD000AC302B2004221EF065FA012008BD684AA3
:102BE0007949C2F8A8302A2004221EF05BFA01209D
:102BF00008BD634A7549C2F8A430292004221EF09A
:102C000051FA012008BD5E4A7149C2F8A03028205F
:102C100004221EF047FA012008BD594A6D49C2F846
:102C20009C30272004221EF03DFA012008BD544AA2
:102C30006949C2F89830262004221EF033FA012098
:102C400008BD4F4A6549C2F89430252004221EF081
:102C500029FA012008BD4A4A6149C2F8903024206F
:102C600004221EF01FFA012008BD454A5D49C2F842
:102C70008C30232004221EF015FA012008BD404AA2
:102C80005949C2F88830222004221EF00BFA012094
:102C900008BD3B4A5549C2F88430212004221EF069
:102CA00001FA012008BD364A5149C2F8803020207F
:102CB00004221EF0F7F9012008BD314A4D49D367BF
:102CC0001F2004221EF0EEF9012008BD2C4A4A49BB
:102CD00093671E2004221EF0E5F9012008BD284A52
:102CE000464953671D2004221EF0DCF9012008BD6F
:102CF000234A434913671C2004221EF0D3F9012004
:102D000008BD1F4A3F49D3661B2004221EF0CAF9A2
:102D1000012008BD1A4A3C4993661A2004221EF07D
:102D2000C1F9012008BD164A38495366192004220A
:102D30001EF0B8F9012008BD114A35491366182064
:102D400004221EF0AFF9012008BD0D4A3149D365B8
:102D5000172004221EF0A6F9012008BD084A2E49BA
:102D60009365162004221EF09DF9012008BD044A37
:102D70002A495365152004221EF094F9012008BD4C
:102D800034C0002051280000C5270000392700006A
:102D9000AD26000021260000952500000925000031
:102DA0007D240000F123000065230000D9220000EB
:102DB0004D220000C121000035210000A9200000A3
:102DC0001D200000911F0000051F0000791E00005B
:102DD000ED1D0000611D0000D51C0000491C000015
:102DE000BD1B0000311B0000A51A0000191A0000CD
:102DF0008D1900000119000075180000E917000086
:102E00005D170000D116000045160000B91500003E
:102E10002D150000A11400001514000089130000F6
:102E20005F4A60491365142004221EF03BF901201B
:102E300008BD5B4A5C49D364132004221EF032F9BA
:102E4000012008BD564A59499364122004221EF0FD
:102E500029F9012008BD524A554953641120042222
:102E60001EF020F9012008BD4D4A5249136410207C
:102E700004221EF017F9012008BD494A4E49D363C8
:102E80000F2004221EF00EF9012008BD444A4B49D0
:102E900093630E2004221EF005F9012008BD404A6C
:102EA000474953630D2004221EF0FCF8012008BDA1
:102EB0003B4A444913630C2004221EF0F3F801201E
:102EC00008BD374A4049D3620B2004221EF0EAF8BD
:102ED000012008BD324A3D4993620A2004221EF0B7
:102EE000E1F8012008BD2E4A394953620920042225
:102EF0001EF0D8F8012008BD294A3649136208207F
:102F000004221EF0CFF8012008BD254A3249D361C2
:102F1000072004221EF0C6F8012008BD204A2F49D0
:102F20009361062004221EF0BDF8012008BD1C4A52
:102F30002B495361052004221EF0B4F8012008BD7E
:102F4000174A28491361042210461EF0ABF80120ED
:102F500008BD134A2449D360032004221EF0A2F8BE
:102F6000012008BD0E4A21499360022004221EF070
:102F700099F8012008BD0A4A1D4953600120042226
:102F80001EF090F8012008BD054A1A491360002080
:102F900004221EF087F8012008BD002008BD00BFF4
:102FA00034C00020FD12000071120000E511000085
:102FB00059110000CD10000041100000B50F0000B5
:102FC000290F00009D0E0000110E0000850D00006D
:102FD000F90C00006D0C0000E10B0000550B000027
:102FE000C90A00003D0A0000B109000025090000DF
:102FF000990800000D080000024B1B68DB6F1B6B7B
:103000001B6970479419FF1F2DE9F0411D4B1D6886
:10301000854282B016468CB219D005B2C4F59073C1
:103020000022294600921BB20A22174817F030F9F5
:10303000164B15481B880093C4F59572A31B1BB251
:1030400012B2294617F024F902B0BDE8F081C4F5A8
:1030500095772DB23FB24FF478483B462946CDF8DC
:1030600000800A22084817F013F9A31B3A461BB246
:10307000CDF800802946044817F00AF902B0BDE8EF
:10308000F08100BFB809FF1FF04D00204C09FF1F61
:103090002DE9F043DFF824813E4ED8F800003E4D84
:1030A00083B023F0D1FF41EC100B20F0F5FF00229C
:1030B0003A4B51EC100B24F03DF824F013FB2F4653
:1030C0003060002412E0364B364A53F8243036483C
:1030D000126803EBC3035B01B3FBF2F2026020460C
:1030E000FFF792FF0134B4F5D27F50D055F8243069
:1030F000012B2FD957F8240023F0A6FF41EC100B29
:1031000020F0CAFF254B002251EC100B24F012F8DE
:1031100024F0E8FA00EBC00033684001B0FBF3F0A4
:10312000224BB0F5907F8ABF4FF490711860196000
:103130001F4B1B7898BF0146002BC4D155F8243093
:103140001948D8F8002003EBC3035B01B3FBF2F28C
:103150000260C4E700230FFA84F9009349464FF454
:1031600090730A22134817F093F8134B1B68A3427D
:10317000B8D14FF47843009349464FF490730A2234
:103180000C48013417F084F8B4F5D27FAED103B007
:10319000BDE8F083FC5AFF1F70B5002000005940C5
:1031A0007CBCFF1FE84D0020A0C7FF1F106500205A
:1031B0000408FF1FF04D0020B809FF1FA80C0020D5
:1031C00030B5104B1D68854283B00B460DD00E4ABA
:1031D000128800920446C1F595720C4821B212B2D1
:1031E0001BB217F055F803B030BDC1F595724FF41E
:1031F0007840009029B212B21BB2044817F048F888
:1032000003B030BDB809FF1F3809FF1FF04D002083
:103210002DE9F843184D194CDFF87080184F194EFE
:103220004FF0000910E056F82930116803EBC30392
:103230005B014846B3FBF1F109F101092160FFF799
:10324000BFFFB9F5D27F14D02B780F4A002BEAD1FB
:1032500058F82930396803EBC3035B014846B3FBD8
:10326000F1F109F101092160FFF7AAFFB9F5D27F59
:10327000EAD1BDE8F88300BF0408FF1F10650020F5
:10328000A80C00207CBCFF1FE84D002070B500207A
:1032900000B5074883B0B0F92020B0F91E30009285
:1032A00000220192114617F097FA03B05DF804FB73
:1032B000F04D0020F0B50023174F1A4647F82320A1
:1032C0000133B3F5007FF9D1144E4FF0000E01F138
:1032D000FF3C00291DDDB0F5805F1ADA03460CEBD8
:1032E0000005002202E0B3F5805F06D056F82340C7
:1032F000AB42224403F10103F5D10844B0F5805FED
:1033000047F82E2004DA0EF1010EBEF5007FE0D161
:10331000F0BD0022F1E700BF70B500201465002069
:10332000F0B50023174F1A4647F823200133B3F5B1
:10333000007FF9D1144E4FF0000E01F1FF3C00293F
:103340001DDDB0F5805F1ADA03460CEB00050022A4
:1033500002E0B3F5805F06D056F82340AB4222442A
:1033600003F10103F5D10844B0F5805F47F82E2042
:1033700004DA0EF1010EBEF5007FE0D1F0BD0022AF
:10338000F1E700BF7CBCFF1F187CFF1F00236048D3
:10339000194640F823100133B3F5805F4FF0000267
:1033A000F7D1F0B55B495C4E5C4B5D4C5D4D5E48C2
:1033B0000A7032701A605D4F5D495E4E5E4B22604E
:1033C0002A6002605D4C5E4D5E483A600A60326081
:1033D0001A605D4F5D495E4E5E4B22602A6002605E
:1033E0005D4C5E4D5E483A600A6032601A605D4F27
:1033F0005D495E4E5E4B22602A6002605D4C5E4D10
:103400005E483A600A6032601A605D4F5D495E4E08
:103410005E4B22602A605E4C5E4D02605E483A6000
:103420000A605E4F5E4932601A605E4E5E4B2260FB
:103430002A6002605D4C5E4D5E483A600A60326010
:103440001A605D4F5D495E4E5E4B2A6022600260ED
:103450005D4C5E4D5E483A600A6032605D4F5E4989
:103460005E4E1A603C232B60236003605C4C5D4D14
:103470005D483B600B6033605C4F5D495D4E2B6087
:10348000236003605C4C5D4D5D483B600B603360C6
:103490005C4F5D495D4E2B60236003605C4C5D4D6D
:1034A0005D483B600B6033605C495D4F5D4E2A7048
:1034B000B42323605C4D02705C4C5D485D4B0A7028
:1034C0005D493A7032702A70227002701A705B4F38
:1034D0005B4E5C4D5C4C5D485D4B0A705D493A70DB
:1034E00032702A70227002701A70DFF884E15A4F2D
:1034F0005A4E5B4D5B4C5C485C4B0A7000218EF869
:1035000000203A7032702A70227002701960F0BD8B
:1035100014650020BD5AFF1FDC4D0020EC59FF1F31
:10352000500C002028A50020105BFF1F145BFF1F1C
:10353000185BFF1F1C5BFF1F205BFF1F245BFF1F2F
:10354000C05AFF1F2C5BFF1F305BFF1FB00C002019
:10355000B40C0020E059FF1FB80C0020BC0C002068
:10356000C00C0020C40C0020E859FF1FC80C00202C
:10357000CC0C0020C44D0020D04D0020C84D0020B0
:10358000CC4D0020D44D002070BD002074BD002023
:103590008418FF1F085BFF1F8818FF1F8C18FF1F70
:1035A0009018FF1FD859FF1F980D00209C0D002078
:1035B000A00D0020A40D0020A80D0020AC0D0020BF
:1035C000B00D0020E04D0020B009FF1FAC09FF1F27
:1035D0007408FF1F5C08FF1F5808FF1F5408FF1FD7
:1035E0005008FF1F4C08FF1F5809FF1F4808FF1F06
:1035F0004408FF1FE408FF1FCC08FF1FF008FF1F4F
:10360000C808FF1FC408FF1FE808FF1FD808FF1FD6
:10361000F409FF1F115CFF1FAC0C0020116100209A
:103620003C5BFF1F12610020ED4D0020EE4D00209D
:103630001C19FF1F015BFF1FF4B40020D459FF1FAA
:103640006CB50020D85AFF1FEC4D00202DA500209E
:1036500079BCFF1FFDB4002078BCFF1FF85AFF1F84
:10366000E85AFF1F105CFF1FE44D00209C50002013
:10367000540C00205A495B4A5B48DFF8A8C200237B
:10368000F0B50B60594F5A4E5A4D5B4C5B49136075
:103690005B4A3B6033602B60236003600B60594FD3
:1036A000594E5A4D5A4C5B485B4913605B4A3B602C
:1036B00033602B60236003600B60594F594E5A4DA5
:1036C0005A4C5B485B4913605B4A3B6033602B603C
:1036D000236003600B60594F594E5A4D5A4C5B485A
:1036E0005B49DFF844E213605A4A3B6033605A4F4B
:1036F0005A4E2B6023605A4D5A4C03600B605A4857
:103700005A49CCF80030CEF800301360584A3B607C
:1037100033602B60236003600B60564F564E574D4D
:10372000574C584858491360584A3B6033602B70D7
:10373000237003700B70564F564E574D574C5848D8
:10374000584913703C223A6032602A60226002605D
:103750000A60554F554E564D564C574857493A609A
:1037600032602A60226002600A60554F554E564D05
:10377000564C574857493A6032602A6022600260CE
:103780000A60554E554D564C5648574ADFF89CE155
:103790005649574F4FF0B40CCEF800C033702B7021
:1037A000237003701370534E534D544C5448554A74
:1037B0000B7055493B7033702B702370037013707E
:1037C000524F534E534D544C5448554A0B700021A0
:1037D0003B7033702B70237003701160F0BD00BF1D
:1037E000185BFF1F1C5BFF1F305BFF1F205BFF1F71
:1037F000245BFF1FC05AFF1F2C5BFF1FB00C002073
:10380000B40C0020E059FF1FB80C0020BC0C0020B5
:10381000C00C0020C40C0020E859FF1FC80C002079
:10382000CC0C0020C44D0020D04D0020C84D0020FD
:10383000CC4D0020D44D002070BD002074BD002070
:103840008418FF1F085BFF1F8818FF1F8C18FF1FBD
:103850009018FF1FD859FF1F980D00209C0D0020C5
:10386000A00D0020A40D0020A80D0020AC0D00200C
:10387000B00D0020F45AFF1FE04D0020115CFF1F27
:10388000AC0C0020540C0020116100203C5BFF1F99
:10389000B009FF1FAC09FF1F7408FF1F5C08FF1F62
:1038A0005808FF1F5408FF1F5008FF1F4C08FF1F38
:1038B0005809FF1F4808FF1F4408FF1FE408FF1FA7
:1038C000CC08FF1FF008FF1FC808FF1FC408FF1F18
:1038D000E808FF1FD808FF1F12610020ED4D0020EF
:1038E000EE4D00201C19FF1F015BFF1FF4B40020E8
:1038F000D459FF1F6CB50020D85AFF1FEC4D002093
:103900002DA5002079BCFF1FFDB4002078BCFF1F4F
:10391000F85AFF1FE85AFF1F105CFF1FE44D0020FC
:103920009C500020105BFF1F145BFF1FF409FF1F5A
:10393000544A554BD2ED007AD3ED006A534B27EE33
:10394000A76A66EEA63AD3ED004A76EE632A64EEE5
:10395000A40A77EEE65A22EEE47A23EEE74AA0EED6
:10396000A57A0022A6EE864A37EE047AB5EE407AB2
:10397000F1EE10FA79D04649464A474BD2ED001A8B
:1039800093ED001A91ED002A9FED440A25EE825A2C
:1039900071EEC15AF1EE644A66EEA16A67EE817A71
:1039A000A4EEA55A36EEE73A33EE055A85EE073A0D
:1039B000B0EEC35AB4EE405AF1EE10FA48DCB4EE61
:1039C000433AF1EE10FA47D6354B83ED003A26EE36
:1039D000016A60EEA55AA3EEE16AE2EEC25ADFED9B
:1039E0002F3A75EE865A85EE875AF0EEC55AF4EEF8
:1039F000635AF1EE10FA03DD15EE103A002B2FDAC0
:103A0000B4EE455AF1EE10FA2AD6264B83ED005A51
:103A100077EEE67ADFED215A67EEA07AE4EE867A59
:103A2000E4EE027AC7EE876AF0EEE67AF4EE657AA3
:103A3000F1EE10FA03DD16EE903A002B1EDAF4EEEA
:103A4000666AF1EE10FA19D6174BC3ED006A70479B
:103A500013EE103A002BB2DB114B00221A60B6E7CE
:103A6000104B4FF07E521A60D2E70D480D490E4BB5
:103A700002604FF07E5008601A6070470A4B0022C7
:103A80001A607047A409FF1FA809FF1FA009FF1FA4
:103A9000BC09FF1F1408FF1F1808FF1FFFFF7F7FCF
:103AA000B40D0020E409FF1F0C65002030B583B081
:103AB00001AD042420461CF0A3FF0134082C05F8B6
:103AC000010BF7D1124A134B92ED007A9DED016A7A
:103AD000D3ED006A104A114B92ED005AD3ED005A13
:103AE00066EE077A26EE267AF7EE006AE6EE077AA9
:103AF00077EE857A77EEE57AF0EEE77AF4EEE67A1D
:103B0000F1EE10FA94BF01204FF0FF3003B030BD4A
:103B1000E409FF1FB40D00200C6500201408FF1FEE
:103B200070B5012882B00E46154600F0C680022806
:103B3000044671D008B102B070BD4FF48C738DE8AB
:103B400018001C224FF4AF730A21834816F044FE7C
:103B50000A221146234680481AF06AFA0A221023E4
:103B600011468DE818007C484FF4AF7316F034FE10
:103B70000A221146234678481AF05AFA77497648BD
:103B8000FEF7ACFE294674481AF0BEFA3146724878
:103B90001FF0CEFB4FF6FF716F481AF0B5FA2346BF
:103BA0002A220A216C481AF043FA6D496A48FEF746
:103BB00095FE3C2223460A2167481AF039FA6949E2
:103BC0006548FEF78BFE294663481AF09DFA664B5E
:103BD000186823F05BFA41EC100B02215E481FF0DD
:103BE0003BFC4FF6FF715C481AF08EFA23465C22CC
:103BF0000A2159481AF01CFA5C495748FEF76EFE34
:103C000023466E220A2154481AF012FA58495248A3
:103C1000FEF764FE02B070BD00244FF48C738DE893
:103C200018001C224FF4AF730A214B4816F0D4FD44
:103C30000A221146234648481AF0FAF90A221023AC
:103C400011468DE8180044484FF4AF7316F0C4FDD8
:103C50000A221146234640481AF0EAF93F493E48F5
:103C6000FEF73CFE29463C481AF04EFA31463A48E7
:103C70001FF05EFB4FF6FF7137481AF045FA2346F6
:103C80002A220A2134481AF0D3F9294632481AF078
:103C90003BFA38493048FEF721FE4FF6FF712E48B7
:103CA0001AF032FA0A2123463C222B481AF0C0F9B6
:103CB00031492948FEF712FE98E700244FF48C732F
:103CC0008DE818001C224FF4AF730A21224816F029
:103CD00083FD0A22114623461F481AF0A9F90A2239
:103CE000102311468DE818001B484FF4AF7316F0EF
:103CF00073FD0A221146234617481AF099F917490D
:103D00001548FEF7EBFD294613481AF0FDF9314638
:103D100011481FF00DFB4FF6FF710F481AF0F4F930
:103D200023462A220A210C481AF082F929460A4819
:103D30001AF0EAF911490848FEF7D0FD4FF6FF7175
:103D400005481AF0E1F90A2123463C2202481AF0FC
:103D50006FF90B49ADE700BFF04D0020F45D0300A3
:103D6000045E03001C5E03002409FF1F2C5E030099
:103D7000485E0300805E03009C5E03005C5E0300FF
:103D8000745E030038B51B4C237C012B2CD972B612
:103D9000184DE36862B61849184A086813609842DB
:103DA00021D0002B164816DB0068B3EB800F05DD31
:103DB0000023136072B6E36062B61368114C0B60A7
:103DC000002B1A46B8BFDA1C921022603220BDE8E0
:103DD00038401DF07FBC03689B00136072B6EB6037
:103DE00062B61368E0E738BD72B62046FEF7C8FD3C
:103DF000CEE700BF580C0020BC08FF1FF0B4002025
:103E0000EC5AFF1F50B500202DE9F04785B28CB267
:103E100084B02E4E04F1210305F114024FF4784EC4
:103E200007B212B218B2A5F11403CDF80CE001925A
:103E300002900AB20090394630461BB2A5F1020941
:103E400018F0F4F94FF6FF780FFA89F904F1090236
:103E50000E23494630468DE8080112B2052316F0BC
:103E6000BBFC04F1FF3A0523494604F11A02A5F10F
:103E70001509223424B2304600930FFA8AFA0FFA59
:103E800089F9CDF8048012B2153516F0A5FC2DB2D3
:103E900052464B46394630468DE810011AF07CFDFB
:103EA000524639462B4630460094CDF804801AF02D
:103EB00073FD00944B4622462946CDF804803046D7
:103EC0001AF06AFD04B0BDE8F08700BFF04D002095
:103ED0002DE9F0438DB2264E05F1020885B04CF273
:103EE00018690FFA88F8052384B242468DE8080263
:103EF0000F46042301B2304616F06EFCA31D05F1F7
:103F000008001BB23FB200B2EA1CA11C009701934B
:103F10000290CDF80C90304612B209B204F10807B5
:103F200018F084F93FB24FF0000E6A1C07231234D8
:103F300006358DE808403946304624B22DB212B21B
:103F40000D2316F049FC23464246394630468DE89B
:103F500020021AF021FDCDF8008023462A4639467A
:103F6000CDF8049030461AF017FD05B0BDE8F08397
:103F7000F04D00202DE9F04F8DB2354E05F1020ACB
:103F800085B04CF218670FFA8AFA052384B2884686
:103F9000524601B28DE888003046042316F01CFC1E
:103FA000A31D05F1080205F1030E0FFA88F01BB2FC
:103FB00012B2A11C00900193029230460FFA8EF2C9
:103FC000039709B204F1080B18F030F90FFA8BFBD4
:103FD0004FF0000E6A1C072304F10D0805F10409D7
:103FE0008DE808400FFA88F80FFA89F959463046EB
:103FF00012B20D23063516F0EFFB2DB2524659468C
:10400000434630460197CDF8009012341AF0C4FCB4
:1040100024B2594643462A463046CDF800900197CF
:104020001AF0BAFC5246234641463046CDF800907D
:1040300001971AF0B1FCCDF8009023462A4641467C
:10404000019730461AF0A8FC05B0BDE8F08F00BF1C
:10405000F04D00202DE9F04F8DB2364E05F10209EA
:1040600085B00FFA89F94CF21868052384B28DE8FF
:1040700008014A460F46042301B2304616F0ACFB55
:10408000A31D05F108001BB23FB200B2EA1CA11C3F
:104090000097CDF80C800193029012B2304609B21D
:1040A00018F0C4F804F1080B002707230FFA8BFB64
:1040B0008DE888006A1C04F10D0705F104083FB281
:1040C0000FFA88F840F2FF7A5946304612B20D23B3
:1040D000063516F081FB2DB24A4659463B4630461E
:1040E000CDF80080CDF804A012341AF055FC24B2AB
:1040F00059463B462A463046CDF80080CDF804A00C
:104100001AF04AFC4A46234639463046CDF800802C
:10411000CDF804A01AF040FCCDF8008023462A46D2
:104120003946CDF804A030461AF036FC05B0BDE89B
:10413000F08F00BFF04D00202DE9F04F504B1B7861
:1041400083B0002B48D1002A00F08F80002A40DD88
:104150008FB285B207F10A0B96B20FFA80FA0CB251
:104160000FFA8BFB07F1030905F105080FFA88F830
:1041700022460FFA89F95346514642480196CDF836
:1041800000B007371AF008FC3FB2224643465146BA
:104190003C480196CDF800906C1F1AF0FDFB24B24C
:1041A0005A46514643463748009701961AF0F4FBA9
:1041B00023463A4641463348CDF8009001961AF01E
:1041C000EBFB009723464A46414601962D481AF0DC
:1041D000E3FB03B0BDE8F08F002AB7D18EB206F141
:1041E0000A0A0CB20FFA8AFA0FFA80F940F2FF7845
:1041F00085B26F1D06F1030B3FB20FFA8BFB22460F
:104200004B464946CDF800A0CDF804801D4807363E
:104210001AF0C2FB36B222463B464946CDF804802E
:10422000CDF800B01748053D1AF0B6FB2DB2524646
:1042300049463B468DE8400112481AF0ADFB2B463B
:1042400032463946CDF800B0CDF804800D481AF05A
:10425000A3FB00962B465A463946CDF80480094800
:104260001AF09AFB03B0BDE8F08F8EB206F10A0A8D
:104270000CB20FFA8AFA0FFA80F947F6EF38B7E76F
:104280004D0C0020F04D00202DE9F04F3A4B85B247
:104290001B7805F10A0785B00A4604B23FB20FFA4F
:1042A00081FA002B64D14FF4404692B23B4621463E
:1042B0000292CDF800A05246019630481AF06CFBED
:1042C000029B019603F10A080FFA88F83B46424622
:1042D0002146CDF8008029481AF05EFB029901962C
:1042E00001F105090FFA89F9EB1C05F1010B043501
:1042F0001BB2524621460FFA8BFB2DB2CDF800902F
:104300001E4803931AF048FB2B4659465246CDF8F7
:104310000090019619481AF03FFB0399CDF80080F0
:1043200023464A46019615481AF036FB5B464A4634
:104330002946CDF80080019610481AF02DFB029C0A
:104340000196A01C00B252463B46394600900B48ED
:104350001AF022FB04F108031BB28DE84800424624
:104360003B46394605481AF017FB05B0BDE8F08F0B
:1043700040F2FF7699E700BF6C510020F04D00201D
:104380002DE9F04F85B28CB283B0DFF860806E1DEE
:10439000A71C0A3424B240F2FF7936B23FB205F1CD
:1043A000080382468B463A463146404600941BB28B
:1043B000CDF804901AF0F0FA05F10A03A91D0FFADE
:1043C0008BF240468DE810021BB209B21AF0E4FAF3
:1043D00000943A463146CDF804900FFA8AF34046ED
:1043E0001AF0DAFA03B0BDE8F08F00BFF04D0020FC
:1043F0002DE9F0478DB282B0374E05F1040905F181
:10440000110197B20FFA89F903B209B284B24A4690
:1044100000913046194601971AF0BEFA631C05F167
:1044200010001BB200B219464A4600900197304670
:104430001AF0B2FA05F10E0804F108030FFA88F831
:104440001BB219464A46CDF80080304601971AF053
:10445000A3FA04F109031BB2CDF800804A461946BD
:10446000304601971AF098FA04F1020904F1040A9F
:1044700005F10D020FFA89F90FFA8AFA12B24946CC
:1044800053460092304601971AF086FA5346494641
:10449000CDF800804246304601971AF07DFA04F1CB
:1044A000050805F10C0207340FFA88F824B212B29D
:1044B000234641460092304601971AF06DFA05F105
:1044C0000B0212B2234641468DE8840030461AF0B2
:1044D00063FA02B0BDE8F087F04D002010B51BF084
:1044E000E9FC092827DC324C30303023607023701F
:1044F0001BF0F0FC092831DC30303023E070A37071
:104500001BF0A8FC09283BDC30303023607123719C
:104510001BF0B0FC092845DD264BC21783FB0013B6
:10452000C2EBA30303EB8302A0EB42003030303335
:10453000E071A37110BD1F4B1D4C83FB0032C317EC
:10454000C3EBA20303EB8302A0EB42003030303315
:10455000607023701BF0BEFC0928CDDD154BC2171F
:1045600083FB0013C2EBA30303EB8302A0EB420027
:1045700030303033E070A3701BF06CFC0928C3DDD1
:104580000C4BC21783FB0013C2EBA30303EB8302A4
:10459000A0EB420030303033607123711BF06AFCB5
:1045A0000928B9DC30303023E071A37110BD00BFA1
:1045B0008008FF1F676666662DE9F0432F4E0023D3
:1045C00089B00746336008E03368684601333360DA
:1045D00012F0A0FA684612F091FA684601223946B4
:1045E00012F094FC684612F0A3FA0028ECD1384689
:1045F00012F0E6FC684612F081FA3568B5F1FE6FFC
:1046000039D94FF0FF301FF01FFB102380E828003E
:1046100000F108096C1E4DB14D462846013C0021B1
:104620001FF098F9631C05F11005F6D13368DFF827
:104630005080002BC8F800901ADD00240122394672
:10464000684612F063FCD8F80030684603EB0415A6
:1046500012F056FA014628461FF030FA684612F06A
:1046600059FA684612F04AFA33680134A342E5DC8D
:1046700009B0BDE8F08328010830C4E7D059FF1F16
:104680009418FF1F08B5C8224FF4DC7111201FF0E9
:104690007DF8DC201DF01EF8C8224FF4DC711120DB
:1046A0001FF074F8DC201DF015F81120C8224FF41B
:1046B000DC711FF06BF8DC20BDE808401DF00AB883
:1046C00070B594B00CA801233E4A3F4912F08EFB0E
:1046D0000CA812F02DFA20B90CA812F00FFA14B0A1
:1046E00070BD684639493A4E1FF034F90CA812F0F3
:1046F00071F990B10CA812F08BF9C3B2392B19469D
:10470000684606D80A2B13D01FF01AFA029B202BFA
:10471000ECD9FFF7B7FFFEF739FE0CA812F0FAF953
:1047200068461FF0D7F80CA812F0E8F914B070BD75
:104730002C2168461FF044FA05466C1C03464FF0D6
:104740000002694604A8224CE3D01FF049FA6A1C13
:10475000029B694608A81FF043FA04A81FF064FAF8
:10476000054608A81FF060FA184946F82500684673
:104770001FF0A4F908A81FF0ADF804A81FF0AAF8CC
:1047800040F6FF739D42B1D1124B206818600022A1
:104790001346226054F823100133B3F5805F0A44B6
:1047A000F8D148B90C4B18604FF47A701CF092FFA6
:1047B0000CA812F0AFF9B0E7074BB2FBF0F21A60A9
:1047C000F2E700BF8008FF1F78BD0020508C030077
:1047D00014650020EC59FF1FBC0D002030B595B0CA
:1047E0000CA80123354A364912F000FB0CA812F040
:1047F0009FF920B90CA812F081F915B030BD6846B8
:104800003049314D1FF0A6F80CA812F0E3F880B142
:104810000CA812F0FDF8C3B2392B1946684606D829
:104820000A2B16D01FF08CF9029B202BECD9FFF736
:1048300029FF0CA812F06EF9244B2A681A6068460A
:1048400000232B601FF046F80CA812F057F915B0A2
:1048500030BD2C2168461FF0B3F90446B4F1FF3F88
:1048600003464FF00002694604A8E0D01FF0B8F9F3
:10487000621C029B694608A81FF0B2F904A81FF049
:10488000D3F9044608A81FF0CFF90E4945F82400D3
:1048900068461FF013F908A81FF01CF804A81FF0C1
:1048A00019F840F6FF739C42AED14FF47A701CF0B9
:1048B00011FF0CA812F02EF9BBE700BFAC5E03009D
:1048C00078BD0020508C0300D019FF1F0008FF1F87
:1048D0002DE9F0412DED028B98B008A812F000F9F7
:1048E000AE49AF4812F0F6FA002840F0BD81AD495C
:1048F000AB4812F0EFFA002840F01E81AA49A84800
:1049000012F0E8FA002840F09380A849A44812F079
:10491000E1FA50B908A812F0FDF808A812F0EEF874
:1049200018B0BDEC028BBDE8F08110AD01239F4AA9
:104930009B49284612F05AFA9DF84410129A9DF8A5
:104940004C308DF824100A928DF82C3013A90DF1FB
:104950002D020DF13A0311F8010F02F8010B9A42F2
:10496000F9D1179B0F93284612F0C8F808A812F047
:10497000DFF80028CED068468D49DFED8E8ADFF85B
:1049800038826C461EF0E6FF002608E01FF0D8F8DB
:10499000029B202B00F20F82322E00F0E48108A847
:1049A00012F018F8002800F0E18108A812F030F8A1
:1049B000C3B2392B1946204600F2FD810A2BE5D1FE
:1049C0002E2120461FF0FCF80746B7F1FF3F0346B3
:1049D000214604A84FF0000200F0ED811FF000F91D
:1049E0007A1C029B214628461FF0FAF804A81FF003
:1049F0001BF908EE100A28461FF016F907EE900A78
:104A0000B8EEE77AB8EEC88AC7EE287A08EB8603D4
:104A100067492046013677EE887AC3ED007A1FF0A9
:104A20004DF828461EF056FF04A81EF053FFB3E7CA
:104A300010AD01235C4A5A49284612F0D7F99DF877
:104A40004410129A9DF84C308DF824100A928DF87B
:104A50002C3013A90DF12D020DF13A0311F8010FBD
:104A600002F8010B9A42F9D1179B0F93284612F0D6
:104A700045F808A812F05CF800283FF446AF6846F5
:104A80004B49DFED4C8ADFF834816C461EF062FF43
:104A9000002608E01FF054F8029B202B00F29181C1
:104AA000322E00F06A8108A811F094FF002800F06F
:104AB000678108A811F0ACFFC3B2392B1946204614
:104AC00000F27F810A2BE5D12E2120461FF078F8D5
:104AD0000746B7F1FF3F0346214604A84FF0000206
:104AE00000F06F811FF07CF87A1C029B214628465B
:104AF0001FF076F804A81FF097F808EE100A284671
:104B00001FF092F807EE900AB8EEE77AB8EEC88A7E
:104B1000C7EE287A08EB860325492046013677EE52
:104B2000887AC3ED007A1EF0C9FF28461EF0D2FE37
:104B300004A81EF0CFFEB3E710AD0123194A1849AF
:104B4000284612F053F99DF84410129A9DF84C3003
:104B50008DF824100A928DF82C3013A90DF12D0236
:104B60000DF13A0311F8010F02F8010B9A42F9D145
:104B7000179B0F93284611F0C1FF08A811F0D8FF2A
:104B800000283FF4BBAE68460949DFED0A8ADFF82A
:104B900030806C461EF0DEFE00261CE0D409FF1FAC
:104BA00078BD00201409FF1FF808FF1F9009FF1FA0
:104BB000508C0300286B6E4ED00C00201C6100202E
:104BC000F059FF1F1EF0BCFF029B202B00F2FC805F
:104BD000322E00F0DC8008A811F0FCFE002800F066
:104BE000D98008A811F014FFC3B2392B194620460A
:104BF00000F2EA800A2BE5D12E2120461EF0E0FFCC
:104C00000746B7F1FF3F0346214604A84FF00002D4
:104C100000F0DA801EF0E4FF7A1C029B2146284651
:104C20001EF0DEFF04A81EF0FFFF08EE100A284663
:104C30001EF0FAFF07EE900AB8EEE77AB8EEC88ADF
:104C4000C7EE287A08EB860361492046013677EEE5
:104C5000887AC3ED007A1EF031FF28461EF03AFE36
:104C600004A81EF037FEB3E710AD0123594A5A4994
:104C7000284612F0BBF89DF84410129A9DF84C306B
:104C80008DF824100A928DF82C3013A90DF12D0205
:104C90000DF13A0311F8010F02F8010B9A42F9D114
:104CA000179B0F93284611F029FF08A811F040FF29
:104CB00000283FF41CAE68464549DFED488ADFF81E
:104CC00020816C461EF046FE002606E01EF038FFEE
:104CD000029B202B72D8322E63D008A811F07AFEE6
:104CE000002861D008A811F093FEC3B2392B1946F1
:104CF000204663D80A2BE9D12E2120461EF060FF02
:104D00000746B7F1FF3F0346214604A84FF00002D3
:104D100054D01EF065FF7A1C029B214628461EF0E7
:104D20005FFF04A81EF080FF08EE100A28461EF060
:104D30007BFF07EE900AB8EEE77AB8EEC88AC7EEB6
:104D4000287A08EB860322492046013677EE887AD6
:104D5000C3ED007A1EF0B2FE28461EF0BBFD04A88B
:104D60001EF0B8FDB7E708A811F0D4FE08A811F0AE
:104D7000D1FE20461EF0AEFDCCE508A811F0CAFE1B
:104D800008A811F0C7FE20461EF0A4FDBDE508A846
:104D900011F0C0FE08A811F0BDFE20461EF09AFDDD
:104DA000ACE508A811F0B6FE08A811F0B3FE204645
:104DB0001EF090FD9BE5FFF765FCD7E7FFF762FC6F
:104DC000F2E7FFF75FFCDBE7FFF75CFCE2E700BF21
:104DD000508C0300D409FF1F78BD0020286B6E4E55
:104DE000A0500020D049D14AD14BD248D1ED007A11
:104DF00092ED007AD3ED006ACF499FEDD04AD0ED15
:104E0000004A30B440F6E770012406EE104AB8EECE
:104E1000C65A192335EE045A03E00133834200F0E9
:104E20005D8306EE103A03FB03F2B8EEC66A05EEA8
:104E3000902A26EE076AF8EEE55AA5EEA66A36EE47
:104E4000276A34EEC66AB0EEC66AB4EEC65AF1EE10
:104E500010FAE2DB01340B2C36D17A230122B84858
:104E6000B84CD0ED004A9FEDB54A2360012540F6CD
:104E7000E77406EE105AB8EEC65A192335EE045AF6
:104E800003E00133A34200F02F8306EE103A03FB48
:104E900003F0B8EEC66A05EE900A26EE076AF8EE51
:104EA000E55AA5EEA66A36EE276A34EEC66AB0EE7B
:104EB000C66AB4EEC65AF1EE10FAE2DB01350B2DEC
:104EC00006D0581CD5D006E05D1C9ED00022C6E757
:104ED00040F26E2301229C489C4CD0ED004A9FED8D
:104EE000974A2360012540F6E77406EE105AB8EEA3
:104EF000C65A192335EE045A03E00133A34200F0E9
:104F0000F08206EE103A03FB03F0B8EEC66A05EE37
:104F1000900A26EE076AF8EEE55AA5EEA66A36EE86
:104F2000276A34EEC66AB0EEC66AB4EEC65AF1EE2F
:104F300010FAE2DB01350B2D02D0581CD5D002E06F
:104F400040F2345301228248824CD0ED004A9FED5A
:104F50007B4A2360012540F6E77406EE105AB8EE4E
:104F6000C65A192335EE045A03E00133A34200F078
:104F7000BE8206EE103A03FB03F0B8EEC66A05EEF9
:104F8000900A26EE076AF8EEE55AA5EEA66A36EE16
:104F9000276A34EEC66AB0EEC66AB4EEC65AF1EEBF
:104FA00010FAE2DB01350B2D02D0581CD5D002E0FF
:104FB00040F2492301226848684CD0ED004A9FED39
:104FC0005F4A2360012540F6E77406EE105AB8EEFA
:104FD000C65A192335EE045A03E00133A34200F008
:104FE0008C8206EE103A03FB03F0B8EEC66A05EEBB
:104FF000900A26EE076AF8EEE55AA5EEA66A36EEA6
:10500000276A34EEC66AB0EEC66AB4EEC65AF1EE4E
:1050100010FAE2DB01350B2D02D0581CD5D002E08E
:105020004FF4397301224E484E4CD0ED004A9FEDAB
:10503000434A2360012540F6E77406EE105AB8EEA5
:10504000C65A192335EE045A03E00133A34200F097
:10505000518206EE103A03FB03F0B8EEC66A05EE85
:10506000900A26EE076AF8EEE55AA5EEA66A36EE35
:10507000276A34EEC66AB0EEC66AB4EEC65AF1EEDE
:1050800010FAE2DB01350B2D02D0581CD5D001E01F
:105090007A2301223448354CD0ED004A9FED274A4F
:1050A0002360012540F6E77406EE105AB8EEC65AA2
:1050B000192335EE045A03E00133A34200F02082A5
:1050C00006EE103A03FB03F0B8EEC66A05EE900A4E
:1050D00026EE076AF8EEE55AA5EEA66A36EE276ACE
:1050E00034EEC66AB0EEC66AB4EEC65AF1EE10FAF5
:1050F000E2DB01350B2D02D0581CD5D002E04FF475
:10510000F97301221A489FED0D4ADFED1A4A036038
:10511000012540F6E77406EE105AB8EEC65A192378
:1051200035EE045A2CE000BF0C650020E409FF1F97
:10513000B40D0020E007FF1FB008FF1F00000000B3
:10514000E407FF1F20090020E807FF1FDC5AFF1FAC
:10515000EC07FF1FE05AFF1FF007FF1F4CA50020C0
:10516000F407FF1F480C0020F807FF1FC809FF1FA6
:10517000CC09FF1F00003E440133A34200F0C6816A
:1051800006EE103A03FB03F0B8EEC66A05EE900A8D
:1051900026EE076AF8EEE55AA5EEA66A36EE276A0D
:1051A00034EEC66AB0EEC66AB4EEC65AF1EE10FA34
:1051B000E2DB01350B2D02D0581CACD002E04FF4DD
:1051C0003E730122D6489FEDD74ADFEDD74A0360F0
:1051D000012440F6E77006EE104AB8EEC65A1923CD
:1051E00035EE045A03E00133834200F08C8106EE71
:1051F000103A03FB03F505EE905AB8EEC66AF8EED6
:10520000E55A26EE076AA5EEA66A36EE276A34EE60
:10521000C66AB0EEC66AB4EEC65AF1EE10FAE2DB28
:1052200001340B2C02D05D1CD5D001E0902301226B
:10523000BE489FEDBC4ADFEDBE4A0360012540F643
:10524000E77406EE105AB8EEC65A192335EE045A22
:1052500003E00133A34200F05C8106EE103A03FB49
:1052600003F0B8EEC66A05EE900A26EE076AF8EE7D
:10527000E55AA5EEA66A36EE276A34EEC66AB0EEA7
:10528000C66AB4EEC65AF1EE10FAE2DB01350B2D18
:1052900002D0581CD5D002E04FF47F730122A548FC
:1052A0009FEDA04ADFEDA44A0360012540F6E774B4
:1052B00006EE105AB8EEC65A192335EE045A03E02A
:1052C0000133A34200F04A8106EE103A03FB03F0DB
:1052D000B8EEC66A05EE900A26EE076AF8EEE55AC1
:1052E000A5EEA66A36EE276A34EEC66AB0EEC66A46
:1052F000B4EEC65AF1EE10FAE2DB01350B2D02D006
:10530000581CD5D002E04FF4FE7301228B489FED6C
:10531000854ADFED8B4A0360012540F6E77406EE0F
:10532000105AB8EEC65A192335EE045A03E0013379
:10533000A34200F0F18006EE103A03FB03F0B8EE52
:10534000C66A05EE900A26EE076AF8EEE55AA5EE63
:10535000A66A36EE276A34EEC66AB0EEC66AB4EEC6
:10536000C65AF1EE10FAE2DB01350B2D02D0581CC3
:10537000D5D002E04FF4C363012272489FED694A21
:10538000DFED714A0360012540F6E77406EE105A1E
:10539000B8EEC65A192335EE045A03E00133A3428E
:1053A00000F0968006EE103A03FB03F0B8EEC66AF2
:1053B00005EE900A26EE076AF8EEE55AA5EEA66A13
:1053C00036EE276A34EEC66AB0EEC66AB4EEC65A46
:1053D000F1EE10FAE2DB01350B2D02D0581CD5D0CE
:1053E00002E04FF44373012258489FED4E4ADFED2F
:1053F000584A0360012540F6E77406EE105AB8EEED
:10540000C65A192335EE045A02E00133A34262D092
:1054100006EE103A03FB03F0B8EEC66A05EE900AFA
:1054200026EE076AF8EEE55AA5EEA66A36EE276A7A
:1054300034EEC66AB0EEC66AB4EEC65AF1EE10FAA1
:10544000E3DB01350B2D02D0581CD6D002E040F230
:10545000B45301223F489FED334ADFED3F4A0360DA
:10546000012540F6E77406EE105AB8EEC65A192325
:1054700035EE045A02E00133A34226D006EE103A7C
:1054800003FB03F0B8EEC66A05EE900A26EE076A43
:10549000F8EEE55AA5EEA66A36EE276A34EEC66A3D
:1054A000B0EEC66AB4EEC65AF1EE10FAE3DB01358F
:1054B0000B2D05D0581CD6D00B601AB930BC7047E4
:1054C000E6230B6030BCFFF7DDB84FF0FF33EEE7AB
:1054D0004FF0FF337FE74FF0FF33B2E74FF0FF337A
:1054E000B8E44FF0FF3325E54FF0FF33E6E44FF02B
:1054F000FF3357E54FF0FF33C4E54FF0FF3389E545
:105500004FF0FF33F5E54FF0FF3389E64FF0FF33FF
:105510004FE64FF0FF33B9E64FF0FF3324E700BF0B
:105520009408FF1F00000000000010439808FF1FB0
:1055300000007F449C08FF1F0000FE43A008FF1FDF
:105540000000C344A408FF1F00004344A808FF1F35
:105550000080B644AC08FF1F000066434FF0FF33E5
:10556000CBE600BF08B564224FF45C7111201EF039
:105570000DF965201CF0AEF8642240F217411120AD
:105580001EF004F965201CF0A5F81120642240F2F9
:1055900027511EF0FBF86520BDE808401CF09AB8C2
:1055A00008B5C82240F2275111201EF0EFF8C9209B
:1055B0001CF090F81120DC2240F217411EF0E6F8B2
:1055C000DD20BDE808401CF085B800BF70B594B080
:1055D000FEF784FF394B3A4818603A4A3A490CA81A
:1055E000132311F003FC0CA811F0A2FA20B90CA8A7
:1055F00011F084FA14B070BD3449354E08A81EF07D
:10560000A9F9344A3449354B12681B68096804A863
:1056100001FB02310A221EF0E3F904A908A81EF0DA
:105620009FFA01462E481EF039FA04A81EF052F9DE
:1056300008A81EF04FF92A490CA81DF079FE0CA805
:105640001DF09CFE01240A22214668461EF0B4F992
:10565000694604A81EF092F9224904A81EF088FAAF
:105660000A2256F82410054608A81EF0CDF908A90C
:1056700028461EF075FA014619481EF00FFA08A8D0
:105680001EF028F904A81EF025F968461EF022F93C
:1056900013490CA81DF04CFE01340CA81DF06EFE41
:1056A000B4F5805FCFD1FFF77BFF0CA811F032FA81
:1056B0000CA811F023FA14B070BD00BFE4BD0020A7
:1056C000B50400008008FF1F78BD0020BC5E030009
:1056D00014650020500C00203409FF1FEC59FF1FF7
:1056E00018A50020C05E0300F8B51248124F00252F
:1056F0003D602C4629462B46064650F823208A4218
:1057000003D956F82340012521460133B3F5805FC4
:10571000F3D165B9094B994208D9094C012323708B
:10572000FFF754FFFDF732FE00232370F8BD3C6005
:10573000F0E700BF146500209819FF1F80969800BD
:10574000BD5AFF1F70B54449444894B011F0C2FBE4
:1057500000287CD1424B434C1B68434D23600CA86E
:10576000424E3D4A3D492E60132311F03FFB0CA8E9
:1057700011F0DEF920B90CA811F0C0F914B070BD19
:105780000A22002168461EF017F9694604A81EF097
:10579000F5F83749374E04A81EF0EAF90A222168C5
:1057A000054608A81EF01CF908A928461EF0D8F9DD
:1057B000014631481EF072F908A81EF08BF804A8C3
:1057C0001EF088F868461EF085F82B490CA81DF0DD
:1057D000AFFD0CA81DF0D2FD01240A222146684627
:1057E0001EF0EAF8694604A81EF0C8F8204904A88B
:1057F0001EF0BEF90A2256F82410054608A81EF02D
:1058000003F908A928461EF0ABF901461A481EF014
:1058100045F908A81EF05EF804A81EF05BF868467B
:105820001EF058F814490CA81DF082FD01340CA894
:105830001DF0A4FDB4F5805FCFD1FFF7B1FE0CA839
:1058400011F068F90CA811F059F914B070BD0249B3
:10585000024811F04DFB7DE7AC5E030078BD0020EF
:10586000EC59FF1F0008FF1FE4BD0020B504000035
:10587000C05E03001465002018A5002038B535244B
:1058800044F6B025012111201BF00AFF2B46013BF5
:10589000FDD1002111201BF003FF2B46013BFDD160
:1058A000013CEFD1412443F63835012111201BF092
:1058B000F7FE2B46013BFDD1002111201BF0F0FE2D
:1058C0002B46013BFDD1013CEFD1352444F6B025F8
:1058D000012111201BF0E4FE2B46013BFDD10021EC
:1058E00011201BF0DDFE2B46013BFDD1013CEFD129
:1058F00038BD00BF38B5642443F638350121112086
:105900001BF0CEFE2B46013BFDD1002111201BF0E8
:10591000C7FE2B46013BFDD1013CEFD1782444F674
:10592000B025012111201BF0BBFE2B46013BFDD110
:10593000002111201BF0B4FE2B46013BFDD1013CA0
:10594000EFD138BDF0B56B4B1B78002B2AD16A4FD5
:105950006A4A6B4E3A606B486B4F37606B4C6C4FCA
:105960006C4B02606C496D4D6D4E6E486E4A236003
:105970003B604FF07C5432270C602F603360036033
:105980006A4C6B496B4F6C4D6C4E6D4813606D4AA1
:1059900023600B6005244FF07E513B602E60046055
:1059A0001160F0BD012B29D15B4D674F5749594B11
:1059B0002F60534A5048564F584C504E0B604FF092
:1059C000824106601160564D4E48574A3B60192788
:1059D0002760544E5549564C2B6003601360554F59
:1059E000554D5748574A33600B60584E584923600D
:1059F0000A243B602E6004601160F0BD022B2AD1A6
:105A00003D4C544B3E48444D404A23604E4F434921
:105A1000514C2F6004604A4E3D4F424D394C424834
:105A200013600F220A603E4932602B6023600360DE
:105A30003B60DFF83CE1404E3C4D3D4C3D48414B26
:105A4000344A464FC1F800E0414937602A6022607D
:105A500002601960F0BD032B21D1274C284B2E4D3D
:105A60002E48264A3E4F3F4E226032242E6004606C
:105A700024491F60264D254F294E2A48DFF8A8E00B
:105A8000244B0A603B602B6033600360274C28493D
:105A9000284F294D294E2A48CEF8003077E7042BAD
:105AA00027D11D4B144E154A15482F4D1549174F38
:105AB00032601A4C1D602D4E164B06600A60144D64
:105AC0001848194A3B6023272760154E1749184C80
:105AD0002B6003601360174F174D1948194A336044
