:10000000F8FF0220990100004DE0020005E0020027
:1000100005E0020005E0020005E0020005E0020044
:1000200005E0020005E0020005E002004DE00200EC
:100030004DE0020005E00200410403004504030016
:100040004DE002004DE002004DE002004DE00200F4
:100050004DE002004DE002004DE002004DE00200E4
:100060004DE002004DE002004DE002004DE00200D4
:100070004DE002004DE002004DE002004DE00200C4
:100080004DE002004DE002004DE002004DE00200B4
:100090004DE002004DE002004DE002004DE00200A4
:1000A000CD6E0200D96E02004DE002004DE002006C
:1000B0004DE002004DE002004DE002004DE0020084
:1000C0004DE002004DE002004DE002004DE0020074
:1000D0004DE002004DE002004DE00200613B0000F7
:1000E0004DE002004DE002004DE0020045EE01004F
:1000F0004DE002004DE002004DE002004DE0020044
:10010000A1060300B5060300C9060300DD060300CF
:100110004DE00200D9F502004DE002004DE0020082
:100120004DE002004DE002004DE002004DE0020013
:100130004DE002004DE002004DE002004DE0020003
:100140004DE002004DE00200E9F202004DE0020045
:100150004DE002004DE002004DE002004DE00200E3
:100160004DE002004DE00200E56E02004DE00200AD
:100170004DE002004DE002004DE002004DE00200C3
:100180004DE002004DE002004DE002004DE00200B3
:100190004DE002004DE00200584B4CF2205210B5E9
:1001A0001A804DF628121A8000BF00BF2DF052FFB2
:1001B000534B4FF030621A60524A9A60524ADA60EA
:1001C000524B4FF470021A60514A136813F4807353
:1001D00004D150490B604FF4A85313604E4B1A786A
:1001E000110703D51A7842F008021A704B4B4C499C
:1001F0002A221A704B4A4C4B8B4204D252F8040FFD
:1002000043F8040BF8E7494B494900228B4202D2DC
:1002100043F8042BFAE74749474A002352F82300E2
:1002200041F823000133662BF8D1444B444A802126
:1002300003F8011B9342FBD1424B3E4A1A60424BEA
:100240008A221A70A3F5805324225A70A0221A70B1
:100250009A799207FCD59A79D406FCD43B4A9379D3
:1002600003F00C03082B394BF9D103221A714622F3
:100270005A719A799006FCD5344A9179334B4906E4
:10028000FBD5334A4FF08271116009215160202261
:100290001A709A7902F00C020C2AFAD12D4B2E4AD0
:1002A0001A602E4B2E4A1A6000225A60072243F829
:1002B000042C2C4AC3F80C2D62B62EF01FFA154BF5
:1002C0001B68DA0705D528482EF004FA274B284A80
:1002D0001A60284B1B785B0609D5244C244B2268F6
:1002E0009A4204D120482EF0F5F9002323602DF026
:1002F000B7FE33F0D1FF30F0CDFFFEE70E20054012
:1003000030800440823F04000100002B88ED00E0B3
:1003100010D0034014D0034002D0074000E0074053
:10032000401BFF1F80810400F806FF1F401BFF1FBA
:10033000F05002200002FF1F0000000000E400E077
:1003400056E400E008ED00E00050064000400640A2
:100350004480044004800440C010050014E000E024
:10036000BFD4010000002020DC85F6631CE00340C0
:10037000A5C3945A00F00740FFFFFFFFFFFFFFFFF8
:10038000FFFFFFFFFFFFFFFFFFFFFFFFFFFFFFFF7D
:10039000FFFFFFFFFFFFFFFFFFFFFFFFFFFFFFFF6D
:1003A000FFFFFFFFFFFFFFFFFFFFFFFFFFFFFFFF5D
:1003B000FFFFFFFFFFFFFFFFFFFFFFFFFFFFFFFF4D
:1003C000FFFFFFFFFFFFFFFFFFFFFFFFFFFFFFFF3D
:1003D000FFFFFFFFFFFFFFFFFFFFFFFFFFFFFFFF2D
:1003E000FFFFFFFFFFFFFFFFFFFFFFFFFFFFFFFF1D
:1003F000FFFFFFFFFFFFFFFFFFFFFFFFFFFFFFFF0D
:10040000FFFFFFFFFFFFFFFFFFFFFFFFDEF9FFFF23
:1004100010B5054C237833B9044B13B10448AFF33E
:1004200000800123237010BD401BFF1F000000004F
:100430007C810400084B10B51BB108490848AFF394
:1004400000800848036803B910BD074B002BFBD0A0
:10045000BDE81040184700BF00000000441BFF1F0C
:100460007C810400401BFF1F00000000002070473B
:10047000704700BF036D0BB101207047406D003025
:1004800018BF0120704700BF0349044B4FF4804060
:10049000012208601A60704708F00F40601CFF1FBF
:1004A000014B01221A607047401CFF1F034A044998
:1004B00013680120034413600860704790EC01202A
:1004C0002C97012010B50446806D18B133F032FF2F
:1004D0000023A365236D2BB104F11800BDE8104083
:1004E00023F006BA636D002BF6D110BDF0B50023E2
:1004F00095B01A460546183104A84FF47A74224F75
:100500008DF804308DF80C301293139302940097F9
:1005100023F042FA129B002B2BD05C2030F0C2FE5D
:1005200004461A4B9DF80400029A194923600026DC
:100530009DF80C302073A160226104A9237504F199
:100540001800666023F0A6F96368124AA7600133B9
:100550004FF47A71A6652E712E732C616360A960C9
:100560002A600D4B009304A823F0C2F9284615B069
:10057000F0BD139B002BD0D1064A2B71AC602B73BE
:100580002B612A60EDE700BF048B0300548B03004E
:10059000BC8A0300288B0300E08A030038B5054CB1
:1005A000A4F5FA552046103C30F0A2FCAC42F9D13B
:1005B00038BD00BFE49601202EF086B8F8B50D4690
:1005C00006462CF0D3FF04462CF0C0FF07462CF063
:1005D000ADFFA4F2BC739BB27F2B02D8FAB20C2AF7
:1005E00022D9002333802CF071FF06462CF07EFFC9
:1005F00004462CF08BFFF3B2172B12D8E3B23B2B3F
:100600000FD8C3B23B2B0CD8F302640103F4FF23D1
:1006100004F4FF542343C0F3460003439BB22B80F2
:10062000F8BD00232B80F8BDC0B21F28D9D87F01A8
:1006300007F4FF57384340EA43239BB2D2E700BF99
:10064000036D13B1184621F0D5BA406D08B11FF003
:100650002FB94FF0FF30704700B5836C83B063B1A2
:10066000184601220DF1070121F0F4F901280CD1FF
:100670009DF8070003B05DF804FBC06C28B10122AF
:100680000DF107011FF040F8F0E74FF0FF30F1E700
:100690002DE9F043002283B01FFA80F91146154678
:1006A000DFF85880124F134E00E01D4658F82530F1
:1006B0003C681148CDF8049003EBC3035B01B3FB26
:1006C000F4F4C4F59473C2F5947201331BB2013291
:1006D00012B209B200932BB234602BF09DFC6B1C5C
:1006E000B3F5D27F29463268DFD103B0BDE8F0838D
:1006F00090D80120BCEF01209CD80120DC270120EC
:100700002DE9F043002283B01FFA80F91146154607
:10071000DFF85880124F134E00E01D4658F8253080
:100720003C681148CDF8049003EBC3035B01B3FBB5
:10073000F4F4C4F59473C2F5947201331BB2013220
:1007400012B209B200932BB234602BF065FC6B1C23
:10075000B3F5D27F29463268DFD103B0BDE8F0831C
:1007600034D70120BCEF01209CD801204C4002204E
:100770002DE9F04F394BDFF8F4A01B68DFF8F0905B
:1007800083B08046184632F0EBFF41EC100B30F09E
:10079000C7FF0022324B51EC100B33F057F833F007
:1007A0002DFB00241FFA88F8CAF80000CB46274624
:1007B000254613E030601BB2C4F5947201328DE817
:1007C000080139B22BB2274812B22BF025FC6B1C62
:1007D000B3F5D27F34682F463CD01D4659F82530FA
:1007E000012B22D95BF825001F4E32F0B9FF41ECF6
:1007F000100B30F095FF0022194B51EC100B33F029
:1008000025F833F0FBFA4FF48F72DAF8003002FB70
:1008100000F0B0FBF3F0C0F59473904203F10103D4
:10082000C8D9114E0B233260C6E7C4F5947240F26A
:100830002913013239B2009312B22BB2CDF80480E1
:1008400008482BF0E9FB6B1CB3F5D27F4FF0000496
:100850002F46C2D103B0BDE8F08F00BF34D70120CE
:10086000000024409CD80120BCEF0120C0C500201E
:100870004C400220DFED137AB4EEE70AF1EE10FAF5
:100880001DDCB5EE400ADFED107AF1EE10FA48BF3C
:10089000B0EE670A0D4A0E4BD2ED007A93ED007A66
:1008A0000C4A0D4BD2ED006A60EE277A20EE077AF3
:1008B000E0EE077A77EEA67AC3ED007A7047B0EEE5
:1008C000670AE7E70000484200000000AC09FF1F8C
:1008D0005CD8012008C600200C08FF1F9FED3D7A60
:1008E00038B53D4CF0EE476A002234F812309BB226
:1008F00007EE903AF8EEE77A013277EEA67A3C2AD4
:1009000037EE277AF1D1DFED356A354DC7EE267A1D
:10091000292128460422C5ED007A2DF0EFFA0A209D
:100920002EF0ECF995ED006ADFED2A6A002134F82B
:10093000112034F8113092B207EE902A9BB2B8EE33
:10094000E77A07EE903AF8EEE77A36EE477A76EEF7
:10095000677A01313C29E7EE276AE8D1DFED217A99
:10096000214B224C86EEA77A00221A6017EE100A5D
:1009700032F018FF41EC100B30F05AFF51EC100B25
:1009800033F05CFAD5ED007A194B07EE100AF0EE61
:10099000006AB0EE086AF0EE675AE7EE265A15488C
:1009A000E7EE067A0422242180ED007AC3ED007A76
:1009B000C4ED005A2DF0A2FA0A202EF09FF9012171
:1009C00028202DF073FA0A202EF098F90A4B012204
:1009D0001A7038BD0000000008330120000070428A
:1009E000D808FF1F00006C42441CFF1F80740120C8
:1009F00090C50020A808FF1F18DC0120F0B5036D8A
:100A000083B00C462BB318460DF1060201A920F065
:100A100085FED8B1BDF80430BDF8062003B9AAB1EF
:100A200002F01F06C3F343155912C2F345177600AF
:100A3000013D01F5EA6103F01F03D21226706571D2
:100A4000A17123716770A27003B0F0BD002003B0E4
:100A5000F0BD406D0028F9D00DF1060201A91EF08D
:100A6000E3FDD6E738B5846D0CB1204638BD0546A8
:100A70004FF4807033F056FC0146A86580B1286DB4
:100A80000C7028B14FF4807222F058FCAC6DECE78A
:100A9000686D40B14FF4807220F07AFAAC6DE4E7F3
:100AA000024CAC65E1E70C46DFE700BF5C1BFF1FB3
:100AB0008A79A2F150031B0620D4F0B54B79046D5E
:100AC0000D798E784F780978013385B002F26C7217
:100AD000DBB244B103918DE8E0002046022121F011
:100AE000C3FA05B0F0BD406D0028FAD003918DE83F
:100AF000E00002211FF096FC05B0F0BD0020704719
:100B0000D0B5046D8CB1012B08BF002A01D30020A1
:100B1000D0BD1146204621F08FF90028F7D020469D
:100B200021F00AFB0028F2D0D0BD446D002CEED09D
:100B300020461EF0D5FE0028E9D02046BDE8D04072
:100B40001FF01EBD10B504468EB0A0B100240A46A9
:100B50000123014668468DF800408DF801408DF86C
:100B6000024020F04DFF08B90EB010BD684621F0DC
:100B7000B5FF0EB010BD0C4BD3F888040028F3D09D
:100B80000A460123014668468DF831408DF832400F
:100B90008DF833401FF066F90028E5D068461FF055
:100BA000C9F90EB010BD00BF5448022030B504464C
:100BB0008FB070B100250A462B46014668468DF875
:100BC00000508DF801508DF8025020F019FF0FB041
:100BD00030BD094BD3F888040028F8D00A462346D4
:100BE000014668468DF831408DF832408DF833402B
:100BF0001FF038F90FB030BD54480220F0B5036D36
:100C000083B00C462BB318460DF1060201A920F063
:100C100095FDD8B1BDF80430BDF8062003B9AAB1DE
:100C200002F01F06C3F343155912C2F345177600AD
:100C3000013D01F5EA6103F01F03D21226706571D0
:100C4000A17123716770A27003B0F0BD002003B0E2
:100C5000F0BD406D0028F9D00DF1060201A91EF08B
:100C6000F3FCD6E7036D13B1586900217047436D5B
:100C700013B193E80300704718461946704700BF48
:100C8000036D13B1D86900217047436D13B1186922
:100C90005969704718461946704700BF036D13B174
:100CA000184620F0D7BE406D08B11EF02DBD4FF0A4
:100CB000FF307047836C13B1184620F09BBFC06CA7
:100CC00008B11EF0F5BD4FF0FF307047036D33B132
:100CD0001B7813F0700F14BF012000207047406D87
:100CE00030B190F8313013F0500F14BF01200020C4
:100CF000704700BF036D9BB11A7812F0700F00D1DE
:100D0000704710B504460021184621F095F8606D33
:100D100028B100220023BDE810401EF0E1BD10BD47
:100D2000406D0028ECD090F8313013F0500FE7D030
:100D3000002200231EF0D4BD8A79A2F150031B06C5
:100D400020D4F0B54B79046D0D798E784F78097801
:100D5000013385B002F26C72DBB244B103918DE8CD
:100D6000E0002046042121F07FF905B0F0BD406D80
:100D70000028FAD003918DE8E00004211FF052FB17
:100D800005B0F0BD00207047036963B11A680749D8
:100D900092698A4208D1186D08B121F05FB9586D87
:100DA00008B11FF0EBB9704718461047B10D0000AD
:100DB000036D13B1184621F051B9406D08B11FF011
:100DC000DDB97047836C13B1184621F047B9C06C88
:100DD00008B11FF0D3B9704710B5036982B08DF820
:100DE0000710BBB11968104ACC68944215D1186D30
:100DF00030B101220DF1070121F0DAF902B010BD86
:100E0000586D0028FAD001220DF107011FF028FCCF
:100E100002B010BD184602B010BD184601220DF1F7
:100E20000701A04702B010BD590E0000036973B15D
:100E30001A68084952698A4207D1186D08B120F032
:100E4000D9BE586D18B11EF033BD184610474FF08B
:100E5000FF30704741060000036D13B1184621F0C2
:100E6000A7B9406D08B11FF0FBBB7047836C13B18D
:100E7000184621F09DB9C06C08B11FF0F1BB704756
:100E800000B5836C83B08DF8071043B1184601227A
:100E90000DF1070121F08CF903B05DF804FBC06C83
:100EA0000028F9D001220DF107011FF0D9FB03B092
:100EB0005DF804FB03698BB110B41C680D48E4684D
:100EC000844211D1186D18B15DF8044B21F070B94E
:100ED000586D28B15DF8044B1FF0C2BB002070476D
:100EE00000205DF8044B7047184623465DF8044B1C
:100EF000184700BF590E0000826C62B1137803F0EE
:100F0000080303F0FF0003B3D3695069181A48BF00
:100F10006FF000407047C16CC1B191F8313003F0FF
:100F2000080303F0FF0083B1D1E90423D1E90001F4
:100F3000101A30B463EB010100256FF000448D42BC
:100F400008BF844200D2204630BC70470846704734
:100F5000026D62B1137803F0080303F0FF0003B3DE
:100F6000D3695069181A48BF6FF000407047416D4F
:100F7000C1B191F8313003F0080303F0FF0083B1F1
:100F8000D1E90423D1E90001101A30B463EB010167
:100F900000256FF000448D4208BF844200D22046F5
:100FA00030BC704708467047036923B310B5196811
:100FB000124A8C68944282B014D1186D48B1012253
:100FC0000DF1070120F046FD90B19DF8070002B039
:100FD00010BD586D0028F8D001220DF107011EF058
:100FE00093FBF1E7184601220DF10701A047EBE75B
:100FF0004FF0FF30EBE74FF0FF3070479D0C0000E3
:10100000006970B30368184A1B6993420ED1026DE0
:101010006AB1137803F0080303F0FF000BB3D36940
:101020005069181A48BF6FF0004070471847416D6B
:10103000C1B191F8313003F0080303F0FF0083B130
:10104000D1E90423D1E90001101A30B463EB0101A6
:1010500000256FF000448D4208BF844200D2204634
:1010600030BC704708467047510F0000D0B4039C55
:1010700016461F4634B1012C1ED0022C0DD0002084
:10108000D0BC7047046DDCB1012B08BF002AF6D23A
:1010900020461146D0BC20F0CFBE036DB3B1DA6953
:1010A000B61847F10007012F08BF002EE7D23146DE
:1010B0001846D0BC20F0C0BE036D8BB15A69EFE773
:1010C000406D0028DBD0D0BC1EF00ABC406D00286B
:1010D000D5D0D0E9042392197B41D0BC1EF000BCCE
:1010E000406D0028CBD0D0E9002392197B41EAE77C
:1010F00038B50446806D0C4B236018B133F01AF9F3
:101100000023A365236D04F118054BB1284622F096
:10111000EFFB064BA360284622F0EAFB204638BDD1
:10112000636D002BF2D1F4E7548B0300E08A0300D7
:1011300038B50446806D0E4B236018B133F0FAF8D1
:101140000023A365236D04F118056BB1284622F036
:10115000CFFB084BA360284622F0CAFB20465C2147
:1011600030F0A2F8204638BD636D002BEED1F0E7D9
:10117000548B0300E08A030070B505686C68013C7D
:1011800006466C6014B10023336070BD2B68204AA2
:10119000DB6A93422DD1A86D10B133F0CBF8AC656A
:1011A0002B6D63B305F1180022F0A2FB3468002C0C
:1011B000E9D02368174A5B6893421DD1A06D164B96
:1011C000236018B133F0B6F80023A365236D04F152
:1011D0001805C3B1284622F08BFB104BA3602846AC
:1011E00022F086FB20465C2130F05EF8002333605D
:1011F00070BD28469847D9E720469847C3E76B6DEE
:10120000002BCFD1D2E7636D002BE3D1E5E700BF20
:10121000C504000031110000548B0300E08A030074
:101220000369054A10B50446026013B11030FFF798
:10123000A3FF204610BD00BF288B03000369074AA7
:1012400010B50446026013B11030FFF795FF204639
:10125000142130F029F8204610BD00BF288B030070
:10126000214B10B41A681368506819780478507AC2
:10127000137A044201EA03011BD0937A03F00303BB
:1012800009B143F0040343F008039910013B917244
:101290000D2B0BD8DFE803F021071B070A152121CE
:1012A000150A071B0721D368013BD3605DF8044B87
:1012B0007047937A03F003030029E6D043F0040358
:1012C000E3E7D3685DF8044B023BD3607047D36813
:1012D0005DF8044B0233D3607047D3685DF8044B6C
:1012E0000133D360704700BFCC4D0220214B10B4B6
:1012F0005A681368506819780478507A137A04424F
:1013000001EA03011BD0937A03F0030309B143F010
:10131000040343F008039910013B91720D2B0BD885
:10132000DFE803F021071B070A152121150A071B17
:101330000721D368013BD3605DF8044B7047937A73
:1013400003F003030029E6D043F00403E3E7D36886
:101350005DF8044B023BD3607047D3685DF8044BE3
:101360000233D3607047D3685DF8044B0133D36018
:10137000704700BFCC4D0220214B10B49A6813680F
:10138000506819780478507A137A044201EA03010C
:101390001BD0937A03F0030309B143F0040343F035
:1013A00008039910013B91720D2B0BD8DFE803F075
:1013B00021071B070A152121150A071B0721D368DE
:1013C000013BD3605DF8044B7047937A03F003034D
:1013D0000029E6D043F00403E3E7D3685DF8044B4B
:1013E000023BD3607047D3685DF8044B0233D3608F
:1013F0007047D3685DF8044B0133D360704700BF7A
:10140000CC4D0220214B10B4DA681368506819786B
:101410000478507A137A044201EA03011BD0937ACC
:1014200003F0030309B143F0040343F008039910E8
:10143000013B91720D2B0BD8DFE803F021071B074E
:101440000A152121150A071B0721D368013BD36028
:101450005DF8044B7047937A03F003030029E6D04C
:1014600043F00403E3E7D3685DF8044B023BD36029
:101470007047D3685DF8044B0233D3607047D3687C
:101480005DF8044B0133D360704700BFCC4D0220A0
:10149000214B10B41A691368506819780478507A8F
:1014A000137A044201EA03011BD0937A03F0030389
:1014B00009B143F0040343F008039910013B917212
:1014C0000D2B0BD8DFE803F021071B070A1521219C
:1014D000150A071B0721D368013BD3605DF8044B55
:1014E0007047937A03F003030029E6D043F0040326
:1014F000E3E7D3685DF8044B023BD3607047D368E1
:101500005DF8044B0233D3607047D3685DF8044B39
:101510000133D360704700BFCC4D0220214B10B483
:101520005A691368506819780478507A137A04421B
:1015300001EA03011BD0937A03F0030309B143F0DE
:10154000040343F008039910013B91720D2B0BD853
:10155000DFE803F021071B070A152121150A071BE5
:101560000721D368013BD3605DF8044B7047937A41
:1015700003F003030029E6D043F00403E3E7D36854
:101580005DF8044B023BD3607047D3685DF8044BB1
:101590000233D3607047D3685DF8044B0133D360E6
:1015A000704700BFCC4D0220214B10B49A691368DC
:1015B000506819780478507A137A044201EA0301DA
:1015C0001BD0937A03F0030309B143F0040343F003
:1015D00008039910013B91720D2B0BD8DFE803F043
:1015E00021071B070A152121150A071B0721D368AC
:1015F000013BD3605DF8044B7047937A03F003031B
:101600000029E6D043F00403E3E7D3685DF8044B18
:10161000023BD3607047D3685DF8044B0233D3605C
:101620007047D3685DF8044B0133D360704700BF47
:10163000CC4D0220214B10B4DA6913685068197838
:101640000478507A137A044201EA03011BD0937A9A
:1016500003F0030309B143F0040343F008039910B6
:10166000013B91720D2B0BD8DFE803F021071B071C
:101670000A152121150A071B0721D368013BD360F6
:101680005DF8044B7047937A03F003030029E6D01A
:1016900043F00403E3E7D3685DF8044B023BD360F7
:1016A0007047D3685DF8044B0233D3607047D3684A
:1016B0005DF8044B0133D360704700BFCC4D02206E
:1016C000214B10B4D3F8E0201368506819780478DF
:1016D000507A137A044201EA03011BD0937A03F093
:1016E000030309B143F0040343F008039910013BDD
:1016F00091720D2B0BD8DFE803F021071B070A15A9
:101700002121150A071B0721D368013BD3605DF82F
:10171000044B7047937A03F003030029E6D043F0AB
:101720000403E3E7D3685DF8044B023BD3607047E2
:10173000D3685DF8044B0233D3607047D3685DF81B
:10174000044B0133D3607047CC4D0220214B10B4C1
:10175000D3F8E4201368506819780478507A137A23
:10176000044201EA03011BD0937A03F0030309B199
:1017700043F0040343F008039910013B91720D2BD1
:101780000BD8DFE803F021071B070A152121150AF2
:10179000071B0721D368013BD3605DF8044B7047FA
:1017A000937A03F003030029E6D043F00403E3E750
:1017B000D3685DF8044B023BD3607047D3685DF893
:1017C000044B0233D3607047D3685DF8044B013398
:1017D000D3607047CC4D0220214B10B4D3F8E820E1
:1017E0001368506819780478507A137A044201EA31
:1017F00003011BD0937A03F0030309B143F0040300
:1018000043F008039910013B91720D2B0BD8DFE8D0
:1018100003F021071B070A152121150A071B0721C1
:10182000D368013BD3605DF8044B7047937A03F0B3
:1018300003030029E6D043F00403E3E7D3685DF82F
:10184000044B023BD3607047D3685DF8044B02330E
:10185000D3607047D3685DF8044B0133D3607047A1
:10186000CC4D0220214B10B4D3F8EC201368506803
:1018700019780478507A137A044201EA03011BD0E4
:10188000937A03F0030309B143F0040343F0080320
:101890009910013B91720D2B0BD8DFE803F0210763
:1018A0001B070A152121150A071B0721D368013BD5
:1018B000D3605DF8044B7047937A03F0030300296B
:1018C000E6D043F00403E3E7D3685DF8044B023B42
:1018D000D3607047D3685DF8044B0233D360704720
:1018E000D3685DF8044B0133D3607047CC4D0220C0
:1018F000214B10B4D3F8A0201368506819780478ED
:10190000507A137A044201EA03011BD0937A03F060
:10191000030309B143F0040343F008039910013BAA
:1019200091720D2B0BD8DFE803F021071B070A1576
:101930002121150A071B0721D368013BD3605DF8FD
:10194000044B7047937A03F003030029E6D043F079
:101950000403E3E7D3685DF8044B023BD3607047B0
:10196000D3685DF8044B0233D3607047D3685DF8E9
:10197000044B0133D3607047CC4D0220214B10B48F
:10198000D3F8A4201368506819780478507A137A31
:10199000044201EA03011BD0937A03F0030309B167
:1019A00043F0040343F008039910013B91720D2B9F
:1019B0000BD8DFE803F021071B070A152121150AC0
:1019C000071B0721D368013BD3605DF8044B7047C8
:1019D000937A03F003030029E6D043F00403E3E71E
:1019E000D3685DF8044B023BD3607047D3685DF861
:1019F000044B0233D3607047D3685DF8044B013366
:101A0000D3607047CC4D0220214B10B4D3F8A820EE
:101A10001368506819780478507A137A044201EAFE
:101A200003011BD0937A03F0030309B143F00403CD
:101A300043F008039910013B91720D2B0BD8DFE89E
:101A400003F021071B070A152121150A071B07218F
:101A5000D368013BD3605DF8044B7047937A03F081
:101A600003030029E6D043F00403E3E7D3685DF8FD
:101A7000044B023BD3607047D3685DF8044B0233DC
:101A8000D3607047D3685DF8044B0133D36070476F
:101A9000CC4D0220214B10B4D3F8AC201368506811
:101AA00019780478507A137A044201EA03011BD0B2
:101AB000937A03F0030309B143F0040343F00803EE
:101AC0009910013B91720D2B0BD8DFE803F0210731
:101AD0001B070A152121150A071B0721D368013BA3
:101AE000D3605DF8044B7047937A03F00303002939
:101AF000E6D043F00403E3E7D3685DF8044B023B10
:101B0000D3607047D3685DF8044B0233D3607047ED
:101B1000D3685DF8044B0133D3607047CC4D02208D
:101B2000214B10B4D3F8B0201368506819780478AA
:101B3000507A137A044201EA03011BD0937A03F02E
:101B4000030309B143F0040343F008039910013B78
:101B500091720D2B0BD8DFE803F021071B070A1544
:101B60002121150A071B0721D368013BD3605DF8CB
:101B7000044B7047937A03F003030029E6D043F047
:101B80000403E3E7D3685DF8044B023BD36070477E
:101B9000D3685DF8044B0233D3607047D3685DF8B7
:101BA000044B0133D3607047CC4D0220214B10B45D
:101BB000D3F8B4201368506819780478507A137AEF
:101BC000044201EA03011BD0937A03F0030309B135
:101BD00043F0040343F008039910013B91720D2B6D
:101BE0000BD8DFE803F021071B070A152121150A8E
:101BF000071B0721D368013BD3605DF8044B704796
:101C0000937A03F003030029E6D043F00403E3E7EB
:101C1000D3685DF8044B023BD3607047D3685DF82E
:101C2000044B0233D3607047D3685DF8044B013333
:101C3000D3607047CC4D0220214B10B4D3F8B820AC
:101C40001368506819780478507A137A044201EACC
:101C500003011BD0937A03F0030309B143F004039B
:101C600043F008039910013B91720D2B0BD8DFE86C
:101C700003F021071B070A152121150A071B07215D
:101C8000D368013BD3605DF8044B7047937A03F04F
:101C900003030029E6D043F00403E3E7D3685DF8CB
:101CA000044B023BD3607047D3685DF8044B0233AA
:101CB000D3607047D3685DF8044B0133D36070473D
:101CC000CC4D0220214B10B4D3F8BC2013685068CF
:101CD00019780478507A137A044201EA03011BD080
:101CE000937A03F0030309B143F0040343F00803BC
:101CF0009910013B91720D2B0BD8DFE803F02107FF
:101D00001B070A152121150A071B0721D368013B70
:101D1000D3605DF8044B7047937A03F00303002906
:101D2000E6D043F00403E3E7D3685DF8044B023BDD
:101D3000D3607047D3685DF8044B0233D3607047BB
:101D4000D3685DF8044B0133D3607047CC4D02205B
:101D5000214B10B4D3F8C020136850681978047868
:101D6000507A137A044201EA03011BD0937A03F0FC
:101D7000030309B143F0040343F008039910013B46
:101D800091720D2B0BD8DFE803F021071B070A1512
:101D90002121150A071B0721D368013BD3605DF899
:101DA000044B7047937A03F003030029E6D043F015
:101DB0000403E3E7D3685DF8044B023BD36070474C
:101DC000D3685DF8044B0233D3607047D3685DF885
:101DD000044B0133D3607047CC4D0220214B10B42B
:101DE000D3F8C4201368506819780478507A137AAD
:101DF000044201EA03011BD0937A03F0030309B103
:101E000043F0040343F008039910013B91720D2B3A
:101E10000BD8DFE803F021071B070A152121150A5B
:101E2000071B0721D368013BD3605DF8044B704763
:101E3000937A03F003030029E6D043F00403E3E7B9
:101E4000D3685DF8044B023BD3607047D3685DF8FC
:101E5000044B0233D3607047D3685DF8044B013301
:101E6000D3607047CC4D0220214B10B4D3F8C8206A
:101E70001368506819780478507A137A044201EA9A
:101E800003011BD0937A03F0030309B143F0040369
:101E900043F008039910013B91720D2B0BD8DFE83A
:101EA00003F021071B070A152121150A071B07212B
:101EB000D368013BD3605DF8044B7047937A03F01D
:101EC00003030029E6D043F00403E3E7D3685DF899
:101ED000044B023BD3607047D3685DF8044B023378
:101EE000D3607047D3685DF8044B0133D36070470B
:101EF000CC4D0220214B10B4D3F8CC20136850688D
:101F000019780478507A137A044201EA03011BD04D
:101F1000937A03F0030309B143F0040343F0080389
:101F20009910013B91720D2B0BD8DFE803F02107CC
:101F30001B070A152121150A071B0721D368013B3E
:101F4000D3605DF8044B7047937A03F003030029D4
:101F5000E6D043F00403E3E7D3685DF8044B023BAB
:101F6000D3607047D3685DF8044B0233D360704789
:101F7000D3685DF8044B0133D3607047CC4D022029
:101F8000214B10B4D3F8D020136850681978047826
:101F9000507A137A044201EA03011BD0937A03F0CA
:101FA000030309B143F0040343F008039910013B14
:101FB00091720D2B0BD8DFE803F021071B070A15E0
:101FC0002121150A071B0721D368013BD3605DF867
:101FD000044B7047937A03F003030029E6D043F0E3
:101FE0000403E3E7D3685DF8044B023BD36070471A
:101FF000D3685DF8044B0233D3607047D3685DF853
:10200000044B0133D3607047CC4D0220214B10B4F8
:10201000D3F8D4201368506819780478507A137A6A
:10202000044201EA03011BD0937A03F0030309B1D0
:1020300043F0040343F008039910013B91720D2B08
:102040000BD8DFE803F021071B070A152121150A29
:10205000071B0721D368013BD3605DF8044B704731
:10206000937A03F003030029E6D043F00403E3E787
:10207000D3685DF8044B023BD3607047D3685DF8CA
:10208000044B0233D3607047D3685DF8044B0133CF
:10209000D3607047CC4D0220214B10B4D3F8D82028
:1020A0001368506819780478507A137A044201EA68
:1020B00003011BD0937A03F0030309B143F0040337
:1020C00043F008039910013B91720D2B0BD8DFE808
:1020D00003F021071B070A152121150A071B0721F9
:1020E000D368013BD3605DF8044B7047937A03F0EB
:1020F00003030029E6D043F00403E3E7D3685DF867
:10210000044B023BD3607047D3685DF8044B023345
:10211000D3607047D3685DF8044B0133D3607047D8
:10212000CC4D0220214B10B4D3F8DC20136850684A
:1021300019780478507A137A044201EA03011BD01B
:10214000937A03F0030309B143F0040343F0080357
:102150009910013B91720D2B0BD8DFE803F021079A
:102160001B070A152121150A071B0721D368013B0C
:10217000D3605DF8044B7047937A03F003030029A2
:10218000E6D043F00403E3E7D3685DF8044B023B79
:10219000D3607047D3685DF8044B0233D360704757
:1021A000D3685DF8044B0133D3607047CC4D0220F7
:1021B000214B10B41A6A1368506819780478507A61
:1021C000137A044201EA03011BD0937A03F003035C
:1021D00009B143F0040343F008039910013B9172E5
:1021E0000D2B0BD8DFE803F021071B070A1521216F
:1021F000150A071B0721D368013BD3605DF8044B28
:102200007047937A03F003030029E6D043F00403F8
:10221000E3E7D3685DF8044B023BD3607047D368B3
:102220005DF8044B0233D3607047D3685DF8044B0C
:102230000133D360704700BFCC4D0220214B10B456
:102240005A6A1368506819780478507A137A0442ED
:1022500001EA03011BD0937A03F0030309B143F0B1
:10226000040343F008039910013B91720D2B0BD826
:10227000DFE803F021071B070A152121150A071BB8
:102280000721D368013BD3605DF8044B7047937A14
:1022900003F003030029E6D043F00403E3E7D36827
:1022A0005DF8044B023BD3607047D3685DF8044B84
:1022B0000233D3607047D3685DF8044B0133D360B9
:1022C000704700BFCC4D0220214B10B49A6A1368AE
:1022D000506819780478507A137A044201EA0301AD
:1022E0001BD0937A03F0030309B143F0040343F0D6
:1022F00008039910013B91720D2B0BD8DFE803F016
:1023000021071B070A152121150A071B0721D3687E
:10231000013BD3605DF8044B7047937A03F00303ED
:102320000029E6D043F00403E3E7D3685DF8044BEB
:10233000023BD3607047D3685DF8044B0233D3602F
:102340007047D3685DF8044B0133D360704700BF1A
:10235000CC4D0220214B10B4DA6A1368506819780A
:102360000478507A137A044201EA03011BD0937A6D
:1023700003F0030309B143F0040343F00803991089
:10238000013B91720D2B0BD8DFE803F021071B07EF
:102390000A152121150A071B0721D368013BD360C9
:1023A0005DF8044B7047937A03F003030029E6D0ED
:1023B00043F00403E3E7D3685DF8044B023BD360CA
:1023C0007047D3685DF8044B0233D3607047D3681D
:1023D0005DF8044B0133D360704700BFCC4D022041
:1023E000214B10B41A6B1368506819780478507A2E
:1023F000137A044201EA03011BD0937A03F003032A
:1024000009B143F0040343F008039910013B9172B2
:102410000D2B0BD8DFE803F021071B070A1521213C
:10242000150A071B0721D368013BD3605DF8044BF5
:102430007047937A03F003030029E6D043F00403C6
:10244000E3E7D3685DF8044B023BD3607047D36881
:102450005DF8044B0233D3607047D3685DF8044BDA
:102460000133D360704700BFCC4D0220214B10B424
:102470005A6B1368506819780478507A137A0442BA
:1024800001EA03011BD0937A03F0030309B143F07F
:10249000040343F008039910013B91720D2B0BD8F4
:1024A000DFE803F021071B070A152121150A071B86
:1024B0000721D368013BD3605DF8044B7047937AE2
:1024C00003F003030029E6D043F00403E3E7D368F5
:1024D0005DF8044B023BD3607047D3685DF8044B52
:1024E0000233D3607047D3685DF8044B0133D36087
:1024F000704700BFCC4D0220214B10B49A6B13687B
:10250000506819780478507A137A044201EA03017A
:102510001BD0937A03F0030309B143F0040343F0A3
:1025200008039910013B91720D2B0BD8DFE803F0E3
:1025300021071B070A152121150A071B0721D3684C
:10254000013BD3605DF8044B7047937A03F00303BB
:102550000029E6D043F00403E3E7D3685DF8044BB9
:10256000023BD3607047D3685DF8044B0233D360FD
:102570007047D3685DF8044B0133D360704700BFE8
:10258000CC4D0220214B10B4DA6B136850681978D7
:102590000478507A137A044201EA03011BD0937A3B
:1025A00003F0030309B143F0040343F00803991057
:1025B000013B91720D2B0BD8DFE803F021071B07BD
:1025C0000A152121150A071B0721D368013BD36097
:1025D0005DF8044B7047937A03F003030029E6D0BB
:1025E00043F00403E3E7D3685DF8044B023BD36098
:1025F0007047D3685DF8044B0233D3607047D368EB
:102600005DF8044B0133D360704700BFCC4D02200E
:10261000214B10B41A6C1368506819780478507AFA
:10262000137A044201EA03011BD0937A03F00303F7
:1026300009B143F0040343F008039910013B917280
:102640000D2B0BD8DFE803F021071B070A1521210A
:10265000150A071B0721D368013BD3605DF8044BC3
:102660007047937A03F003030029E6D043F0040394
:10267000E3E7D3685DF8044B023BD3607047D3684F
:102680005DF8044B0233D3607047D3685DF8044BA8
:102690000133D360704700BFCC4D0220214B10B4F2
:1026A0005A6C1368506819780478507A137A044287
:1026B00001EA03011BD0937A03F0030309B143F04D
:1026C000040343F008039910013B91720D2B0BD8C2
:1026D000DFE803F021071B070A152121150A071B54
:1026E0000721D368013BD3605DF8044B7047937AB0
:1026F00003F003030029E6D043F00403E3E7D368C3
:102700005DF8044B023BD3607047D3685DF8044B1F
:102710000233D3607047D3685DF8044B0133D36054
:10272000704700BFCC4D0220214B10B49A6C136847
:10273000506819780478507A137A044201EA030148
:102740001BD0937A03F0030309B143F0040343F071
:1027500008039910013B91720D2B0BD8DFE803F0B1
:1027600021071B070A152121150A071B0721D3681A
:10277000013BD3605DF8044B7047937A03F0030389
:102780000029E6D043F00403E3E7D3685DF8044B87
:10279000023BD3607047D3685DF8044B0233D360CB
:1027A0007047D3685DF8044B0133D360704700BFB6
:1027B000CC4D0220214B10B4DA6C136850681978A4
:1027C0000478507A137A044201EA03011BD0937A09
:1027D00003F0030309B143F0040343F00803991025
:1027E000013B91720D2B0BD8DFE803F021071B078B
:1027F0000A152121150A071B0721D368013BD36065
:102800005DF8044B7047937A03F003030029E6D088
:1028100043F00403E3E7D3685DF8044B023BD36065
:102820007047D3685DF8044B0233D3607047D368B8
:102830005DF8044B0133D360704700BFCC4D0220DC
:10284000214B10B41A6D1368506819780478507AC7
:10285000137A044201EA03011BD0937A03F00303C5
:1028600009B143F0040343F008039910013B91724E
:102870000D2B0BD8DFE803F021071B070A152121D8
:10288000150A071B0721D368013BD3605DF8044B91
:102890007047937A03F003030029E6D043F0040362
:1028A000E3E7D3685DF8044B023BD3607047D3681D
:1028B0005DF8044B0233D3607047D3685DF8044B76
:1028C0000133D360704700BFCC4D0220214B10B4C0
:1028D0005A6D1368506819780478507A137A044254
:1028E00001EA03011BD0937A03F0030309B143F01B
:1028F000040343F008039910013B91720D2B0BD890
:10290000DFE803F021071B070A152121150A071B21
:102910000721D368013BD3605DF8044B7047937A7D
:1029200003F003030029E6D043F00403E3E7D36890
:102930005DF8044B023BD3607047D3685DF8044BED
:102940000233D3607047D3685DF8044B0133D36022
:10295000704700BFCC4D0220214B10B49A6D136814
:10296000506819780478507A137A044201EA030116
:102970001BD0937A03F0030309B143F0040343F03F
:1029800008039910013B91720D2B0BD8DFE803F07F
:1029900021071B070A152121150A071B0721D368E8
:1029A000013BD3605DF8044B7047937A03F0030357
:1029B0000029E6D043F00403E3E7D3685DF8044B55
:1029C000023BD3607047D3685DF8044B0233D36099
:1029D0007047D3685DF8044B0133D360704700BF84
:1029E000CC4D0220214B10B4DA6D13685068197871
:1029F0000478507A137A044201EA03011BD0937AD7
:102A000003F0030309B143F0040343F008039910F2
:102A1000013B91720D2B0BD8DFE803F021071B0758
:102A20000A152121150A071B0721D368013BD36032
:102A30005DF8044B7047937A03F003030029E6D056
:102A400043F00403E3E7D3685DF8044B023BD36033
:102A50007047D3685DF8044B0233D3607047D36886
:102A60005DF8044B0133D360704700BFCC4D0220AA
:102A7000214B10B41A6E1368506819780478507A94
:102A8000137A044201EA03011BD0937A03F0030393
:102A900009B143F0040343F008039910013B91721C
:102AA0000D2B0BD8DFE803F021071B070A152121A6
:102AB000150A071B0721D368013BD3605DF8044B5F
:102AC0007047937A03F003030029E6D043F0040330
:102AD000E3E7D3685DF8044B023BD3607047D368EB
:102AE0005DF8044B0233D3607047D3685DF8044B44
:102AF0000133D360704700BFCC4D0220214B10B48E
:102B00005A6E1368506819780478507A137A044220
:102B100001EA03011BD0937A03F0030309B143F0E8
:102B2000040343F008039910013B91720D2B0BD85D
:102B3000DFE803F021071B070A152121150A071BEF
:102B40000721D368013BD3605DF8044B7047937A4B
:102B500003F003030029E6D043F00403E3E7D3685E
:102B60005DF8044B023BD3607047D3685DF8044BBB
:102B70000233D3607047D3685DF8044B0133D360F0
:102B8000704700BFCC4D0220214B10B49A6E1368E1
:102B9000506819780478507A137A044201EA0301E4
:102BA0001BD0937A03F0030309B143F0040343F00D
:102BB00008039910013B91720D2B0BD8DFE803F04D
:102BC00021071B070A152121150A071B0721D368B6
:102BD000013BD3605DF8044B7047937A03F0030325
:102BE0000029E6D043F00403E3E7D3685DF8044B23
:102BF000023BD3607047D3685DF8044B0233D36067
:102C00007047D3685DF8044B0133D360704700BF51
:102C1000CC4D0220214B10B4DA6E1368506819783D
:102C20000478507A137A044201EA03011BD0937AA4
:102C300003F0030309B143F0040343F008039910C0
:102C4000013B91720D2B0BD8DFE803F021071B0726
:102C50000A152121150A071B0721D368013BD36000
:102C60005DF8044B7047937A03F003030029E6D024
:102C700043F00403E3E7D3685DF8044B023BD36001
:102C80007047D3685DF8044B0233D3607047D36854
:102C90005DF8044B0133D360704700BFCC4D022078
:102CA000214B10B41A6F1368506819780478507A61
:102CB000137A044201EA03011BD0937A03F0030361
:102CC00009B143F0040343F008039910013B9172EA
:102CD0000D2B0BD8DFE803F021071B070A15212174
:102CE000150A071B0721D368013BD3605DF8044B2D
:102CF0007047937A03F003030029E6D043F00403FE
:102D0000E3E7D3685DF8044B023BD3607047D368B8
:102D10005DF8044B0233D3607047D3685DF8044B11
:102D20000133D360704700BFCC4D0220214B10B45B
:102D30005A6F1368506819780478507A137A0442ED
:102D400001EA03011BD0937A03F0030309B143F0B6
:102D5000040343F008039910013B91720D2B0BD82B
:102D6000DFE803F021071B070A152121150A071BBD
:102D70000721D368013BD3605DF8044B7047937A19
:102D800003F003030029E6D043F00403E3E7D3682C
:102D90005DF8044B023BD3607047D3685DF8044B89
:102DA0000233D3607047D3685DF8044B0133D360BE
:102DB000704700BFCC4D0220214B10B49A6F1368AE
:102DC000506819780478507A137A044201EA0301B2
:102DD0001BD0937A03F0030309B143F0040343F0DB
:102DE00008039910013B91720D2B0BD8DFE803F01B
:102DF00021071B070A152121150A071B0721D36884
:102E0000013BD3605DF8044B7047937A03F00303F2
:102E10000029E6D043F00403E3E7D3685DF8044BF0
:102E2000023BD3607047D3685DF8044B0233D36034
:102E30007047D3685DF8044B0133D360704700BF1F
:102E4000CC4D0220214B10B4DA6F1368506819780A
:102E50000478507A137A044201EA03011BD0937A72
:102E600003F0030309B143F0040343F0080399108E
:102E7000013B91720D2B0BD8DFE803F021071B07F4
:102E80000A152121150A071B0721D368013BD360CE
:102E90005DF8044B7047937A03F003030029E6D0F2
:102EA00043F00403E3E7D3685DF8044B023BD360CF
:102EB0007047D3685DF8044B0233D3607047D36822
:102EC0005DF8044B0133D360704700BFCC4D022046
:102ED000214B10B4D3F88020136850681978047817
:102EE000507A137A044201EA03011BD0937A03F06B
:102EF000030309B143F0040343F008039910013BB5
:102F000091720D2B0BD8DFE803F021071B070A1580
:102F10002121150A071B0721D368013BD3605DF807
:102F2000044B7047937A03F003030029E6D043F083
:102F30000403E3E7D3685DF8044B023BD3607047BA
:102F4000D3685DF8044B0233D3607047D3685DF8F3
:102F5000044B0133D3607047CC4D0220214B10B499
:102F6000D3F884201368506819780478507A137A5B
:102F7000044201EA03011BD0937A03F0030309B171
:102F800043F0040343F008039910013B91720D2BA9
:102F90000BD8DFE803F021071B070A152121150ACA
:102FA000071B0721D368013BD3605DF8044B7047D2
:102FB000937A03F003030029E6D043F00403E3E728
:102FC000D3685DF8044B023BD3607047D3685DF86B
:102FD000044B0233D3607047D3685DF8044B013370
:102FE000D3607047CC4D0220214B10B4D3F8882019
:102FF0001368506819780478507A137A044201EA09
:1030000003011BD0937A03F0030309B143F00403D7
:1030100043F008039910013B91720D2B0BD8DFE8A8
:1030200003F021071B070A152121150A071B072199
:10303000D368013BD3605DF8044B7047937A03F08B
:1030400003030029E6D043F00403E3E7D3685DF807
:10305000044B023BD3607047D3685DF8044B0233E6
:10306000D3607047D3685DF8044B0133D360704779
:10307000CC4D0220214B10B4D3F88C20136850683B
:1030800019780478507A137A044201EA03011BD0BC
:10309000937A03F0030309B143F0040343F00803F8
:1030A0009910013B91720D2B0BD8DFE803F021073B
:1030B0001B070A152121150A071B0721D368013BAD
:1030C000D3605DF8044B7047937A03F00303002943
:1030D000E6D043F00403E3E7D3685DF8044B023B1A
:1030E000D3607047D3685DF8044B0233D3607047F8
:1030F000D3685DF8044B0133D3607047CC4D022098
:10310000214B10B4D3F890201368506819780478D4
:10311000507A137A044201EA03011BD0937A03F038
:10312000030309B143F0040343F008039910013B82
:1031300091720D2B0BD8DFE803F021071B070A154E
:103140002121150A071B0721D368013BD3605DF8D5
:10315000044B7047937A03F003030029E6D043F051
:103160000403E3E7D3685DF8044B023BD360704788
:10317000D3685DF8044B0233D3607047D3685DF8C1
:10318000044B0133D3607047CC4D0220214B10B467
:10319000D3F894201368506819780478507A137A19
:1031A000044201EA03011BD0937A03F0030309B13F
:1031B00043F0040343F008039910013B91720D2B77
:1031C0000BD8DFE803F021071B070A152121150A98
:1031D000071B0721D368013BD3605DF8044B7047A0
:1031E000937A03F003030029E6D043F00403E3E7F6
:1031F000D3685DF8044B023BD3607047D3685DF839
:10320000044B0233D3607047D3685DF8044B01333D
:10321000D3607047CC4D0220214B10B4D3F89820D6
:103220001368506819780478507A137A044201EAD6
:1032300003011BD0937A03F0030309B143F00403A5
:1032400043F008039910013B91720D2B0BD8DFE876
:1032500003F021071B070A152121150A071B072167
:10326000D368013BD3605DF8044B7047937A03F059
:1032700003030029E6D043F00403E3E7D3685DF8D5
:10328000044B023BD3607047D3685DF8044B0233B4
:10329000D3607047D3685DF8044B0133D360704747
:1032A000CC4D0220214B10B4D3F89C2013685068F9
:1032B00019780478507A137A044201EA03011BD08A
:1032C000937A03F0030309B143F0040343F00803C6
:1032D0009910013B91720D2B0BD8DFE803F0210709
:1032E0001B070A152121150A071B0721D368013B7B
:1032F000D3605DF8044B7047937A03F00303002911
:10330000E6D043F00403E3E7D3685DF8044B023BE7
:10331000D3607047D3685DF8044B0233D3607047C5
:10332000D3685DF8044B0133D3607047CC4D022065
:1033300070B5044608460D4632F062F8236802462E
:10334000294620465B68BDE87040184738B50368D9
:103350001B6804469847054620462DF005FA284488
:1033600038BD00BF38B5044608460D4632F048F86F
:103370002368024629465B68204698470546204652
:103380002DF0F2F9284438BD38B505462DF056FA2F
:10339000044628462DF0E8F9204438BD38B5C9B2B6
:1033A00005462DF055FA044628462DF0DDF9204457
:1033B00038BD00BF70B50568044628460E462AF0A1
:1033C0005BFD864203D0314628462AF06FFD204639
:1033D00070BD00BF38B50469BCB12368114ADB6A0F
:1033E0009342054612D1A06D18B130F0A3FF00231F
:1033F000A365236D93B104F1180020F079FA05F16B
:103400001000BDE83840FDF7B7BE38BD20469847EC
:1034100005F11000BDE83840FDF7AEBE636D002B2E
:10342000E9D1ECE7C5040000F0B5012B95B00546E5
:103430003AD0022B01F1040140F20223684618BF82
:10344000002320F04FFB129B002B36D05C202DF088
:1034500029FF04469DF804601E481F49029A9DF802
:103460000C30206004AF2673A1600026394604F1B9
:10347000180022612375666020F00CFA6368174813
:10348000174AA66501334FF47A712E712E732C61A1
:10349000A0606360A9602A60124B0093384620F058
:1034A00027FA284615B0F0BD44F2022304316846DD
:1034B00020F018FB129B002BC8D1139B002BC5D109
:1034C0004FF47A71064A2B712B732B61A9602A6025
:1034D00004AFE1E7548B0300BC8A0300048B0300B4
:1034E000288B0300E08A030010B4036841681A784F
:1034F0000C78417A037A0C4202EA03021BD0837AE9
:1035000003F003030AB143F0040343F008039A10E5
:10351000013B82720D2B0BD8DFE803F021071B075C
:103520000A152121150A071B0721C368013BC36047
:103530005DF8044B7047837A03F00303002AE6D05A
:1035400043F00403E3E7C3685DF8044B023BC36048
:103550007047C3685DF8044B0233C3607047C368AB
:103560005DF8044B0133C360704700BF08B50B46DC
:103570003B2800F2C682DFE810F0BB02B202A902CB
:10358000A00297028E0285027C0273026A02610227
:1035900058024F0246023D0234022B022202190257
:1035A00010020702AE01A5019C0193018A0181016D
:1035B00078016F0166015D0154014A014001360145
:1035C0002C01220118010E010401FA00F000E600AE
:1035D000DC00D200C800BE00B400AA00A000960023
:1035E0008C00820078006E0064005A005000460093
:1035F0003C00BD4ABD49C2F8EC303B2004222AF011
:10360000A3FF012008BDB84AB949C2F8E8303A2002
:1036100004222AF099FF012008BDB34AB549C2F837
:10362000E430392004222AF08FFF012008BDAE4A81
:10363000B149C2F8E030382004222AF085FF012089
:1036400008BDA94AAD49C2F8DC30372004222AF06F
:103650007BFF012008BDA44AA949C2F8D830362012
:1036600004222AF071FF012008BD9F4AA549C2F833
:10367000D430352004222AF067FF012008BD9A4A81
:10368000A149C2F8D030342004222AF05DFF012085
:1036900008BD954A9D49C2F8CC30332004222AF057
:1036A00053FF012008BD904A9949C2F8C830322022
:1036B00004222AF049FF012008BD8B4A9549C2F82F
:1036C000C430312004222AF03FFF012008BD864A81
:1036D0009149C2F8C030302004222AF035FF012081
:1036E00008BD814A8D49C2F8BC302F2004222AF03F
:1036F0002BFF012008BD7C4A8949C2F8B8302E2032
:1037000004222AF021FF012008BD774A8549C2F82A
:10371000B4302D2004222AF017FF012008BD724A80
:103720008149C2F8B0302C2004222AF00DFF01207C
:1037300008BD6D4A7D49C2F8AC302B2004222AF026
:1037400003FF012008BD684A7949C2F8A8302A2041
:1037500004222AF0F9FE012008BD634A7549C2F827
:10376000A430292004222AF0EFFE012008BD5E4A81
:103770007149C2F8A030282004222AF0E5FE012079
:1037800008BD594A6D49C2F89C30272004222AF00E
:10379000DBFE012008BD544A6949C2F89830262052
:1037A00004222AF0D1FE012008BD4F4A6549C2F823
:1037B0009430252004222AF0C7FE012008BD4A4A81
:1037C0006149C2F89030242004222AF0BDFE012075
:1037D00008BD454A5D49C2F88C30232004222AF0F6
:1037E000B3FE012008BD404A5949C2F88830222062
:1037F00004222AF0A9FE012008BD3B4A5549C2F81F
:103800008430212004222AF09FFE012008BD364A80
:103810005149C2F88030202004222AF095FE012070
:1038200008BD314A4D49D3671F2004222AF08CFE7F
:10383000012008BD2C4A4A4993671E2004222AF021
:1038400083FE012008BD284A464953671D200422F3
:103850002AF07AFE012008BD234A434913671C2041
:1038600004222AF071FE012008BD1F4A3F49D36699
:103870001B2004222AF068FE012008BD1A4A3C4998
:1038800093661A2004222AF05FFE012008BD164A22
:1038900038495366192004222AF056FE012008BD3B
:1038A000114A35491366182004222AF04DFE0120E2
:1038B00008BD0D4A3149D365172004222AF044FE81
:1038C000012008BD084A2E499365162004222AF0DB
:1038D0003BFE012008BD044A2A49536515200422F5
:1038E0002AF032FE012008BDCC4D022065180000F0
:1038F000D91700004D170000C11600002521000057
:10390000992000000D200000811F0000F51E00001E
:10391000691E0000DD1D0000511D0000C51C0000D7
:10392000391C0000AD1B0000211B0000951A00008F
:10393000091A00007D190000F1180000A5320000EE
:10394000193200008D310000013100007530000097
:10395000E92F00005D2F0000D12E0000452E000051
:10396000B92D00002D2D0000A12C0000152C000009
:10397000892B0000FD2A0000712A0000E5290000C3
:1039800059290000CD2800005F4A604913651420C2
:1039900004222AF0D9FD012008BD5B4A5C49D364AA
:1039A000132004222AF0D0FD012008BD564A5949AF
:1039B0009364122004222AF0C7FD012008BD524A58
:1039C00055495364112004222AF0BEFD012008BD90
:1039D0004D4A52491364102004222AF0B5FD0120FB
:1039E00008BD494A4E49D3630F2004222AF0ACFD9A
:1039F000012008BD444A4B4993630E2004222AF05B
:103A0000A3FD012008BD404A474953630D2004220D
:103A10002AF09AFD012008BD3B4A444913630C205B
:103A200004222AF091FD012008BD374A4049D362A3
:103A30000B2004222AF088FD012008BD324A3D49AE
:103A400093620A2004222AF07FFD012008BD2E4A3D
:103A500039495362092004222AF076FD012008BD6D
:103A6000294A36491362082004222AF06DFD0120FC
:103A700008BD254A3249D361072004222AF064FD9B
:103A8000012008BD204A2F499361062004222AF014
:103A90005BFD012008BD1C4A2B495361052004220F
:103AA0002AF052FD012008BD174A2849136104225B
:103AB00010462AF049FD012008BD134A2449D3606D
:103AC000032004222AF040FD012008BD0E4A2149AE
:103AD0009360022004222AF037FD012008BD0A4A23
:103AE0001D495360012004222AF02EFD012008BD4B
:103AF000054A1A491360002004222AF025FD0120FE
:103B000008BD002008BD00BFCC4D022041280000A8
:103B1000B5270000292700009D260000112600007F
:103B200085250000F92400006D240000E123000039
:103B300055230000C92200003D220000B1210000F1
:103B400035160000A91500001D1500009114000095
:103B50000514000079130000ED120000611200004E
:103B6000704700BF2DE9F0411D4B1D68854282B0B2
:103B700016468CB219D005B2C4F5907300222946BE
:103B800000921BB20A22174823F086FE164B1548F6
:103B90001B880093C4F59572A31B1BB212B2294671
:103BA00023F07AFE02B0BDE8F081C4F595772DB21E
:103BB0003FB24FF478483B462946CDF800800A22B0
:103BC000084823F069FEA31B3A461BB2CDF80080DB
:103BD0002946044823F060FE02B0BDE8F08100BF32
:103BE000340AFF1F9CD801203008FF1F2DE9F04345
:103BF000DFF824813E4ED8F800003E4D83B02FF010
:103C0000AFFD41EC100B2DF08BFD00223A4B51EC37
:103C1000100B2FF01BFE30F0F1F82F46306000241F
:103C200012E0364B364A53F824303648126803EB1C
:103C3000C3035B01B3FBF2F202602046FFF792FF81
:103C40000134B4F5D27F50D055F82430012B2FD950
:103C500057F824002FF084FD41EC100B2DF060FD8F
:103C6000254B002251EC100B2FF0F0FD30F0C6F880
:103C700000EBC00033684001B0FBF3F0224BB0F51D
:103C8000907F8ABF4FF49071186019601F4B1B78AA
:103C900098BF0146002BC4D155F824301948D8F8F4
:103CA000002003EBC3035B01B3FBF2F20260C4E745
:103CB00000230FFA84F9009349464FF490730A22C7
:103CC000134823F0E9FD134B1B68A342B8D14FF40E
:103CD0007843009349464FF490730A220C4801340C
:103CE00023F0DAFDB4F5D27FAED103B0BDE8F083A6
:103CF000C0C500204C40022000005940DC270120B4
:103D000090D8012000330120BCEF01206C09FF1F77
:103D10009CD80120340AFF1F34D7012030B5104B46
:103D20001D68854283B00B460DD00E4A1288009262
:103D30000446C1F595720C4821B212B21BB223F0B1
:103D4000ABFD03B030BDC1F595724FF478400090E3
:103D500029B212B21BB2044823F09EFD03B030BD5D
:103D6000340AFF1F5409FF1F9CD801202DE9F84396
:103D7000184D194CDFF87080184F194E4FF000099C
:103D800010E056F82930116803EBC3035B01484685
:103D9000B3FBF1F109F101092160FFF7BFFFB9F5AC
:103DA000D27F14D02B780F4A002BEAD158F8293053
:103DB000396803EBC3035B014846B3FBF1F109F13A
:103DC00001092160FFF7AAFFB9F5D27FEAD1BDE86A
:103DD000F88300BF6C09FF1FBCEF012034D701201E
:103DE000DC27012090D801204C40022000B5074874
:103DF00083B0B0F92020B0F91E3000920022019269
:103E0000114623F0EDFF03B05DF804FB9CD80120C0
:103E1000F0B50023174F1A4647F823200133B3F5B6
:103E2000007FF9D1144E4FF0000E01F1FF3C002944
:103E30001DDDB0F5805F1ADA03460CEB00050022A9
:103E400002E0B3F5805F06D056F82340AB4222442F
:103E500003F10103F5D10844B0F5805F47F82E2047
:103E600004DA0EF1010EBEF5007FE0D1F0BD0022B4
:103E7000F1E700BF4C400220C0EF0120F0B5002365
:103E8000174F1A4647F823200133B3F5007FF9D1C5
:103E9000144E4FF0000E01F1FF3C00291DDDB0F57E
:103EA000805F1ADA03460CEB0005002202E0B3F54E
:103EB000805F06D056F82340AB42224403F1010351
:103EC000F5D10844B0F5805F47F82E2004DA0EF1F2
:103ED000010EBEF5007FE0D1F0BD0022F1E700BF8A
:103EE000DC270120E8E6002000236448194640F85A
:103EF00023100133B3F5805F4FF00002F7D1F0B526
:103F00005F48604E604C614F614B62493270227075
:103F100002603A601A60604D604E614C6148624FC9
:103F2000624B0A6062492A603260226002603A6035
:103F30001A60604D604E614C6148624F624B0A608E
:103F400062492A603260226002603A601A60604D05
:103F5000604E614C6148624F624B0A6062492A6060
:103F6000326022600260614D614E624C62483A608C
:103F70001A60624F624B0A6062492A603260624D89
:103F8000624E22600260624C3A6062481A60624B84
:103F90000A60624F62492A603260226002601A60E1
:103FA000604D614E614C6248624B3A600A60624FFC
:103FB00062492A60326022600260614D614E624C4B
:103FC00062481A603C230B603A606149614F2B6084
:103FD000336023600360604D604E614C61483B601C
:103FE0000B60614F61492B60336023600360604D5B
:103FF000604E614C61483B600B60614F61492B60D2
:10400000336023600360604D604E614C61483B60EB
:104010000B6061493270B4232B60227002705F4FD5
:104020005F4E604D604C6148614B0A7061493A7067
:1040300032702A70227002701A705F4F5F4E604DAE
:10404000604C6148614B0A7061493A7032702A7065
:10405000227002701A70DFF894E15E4F5E4E5F4D81
:104060005F4C6048604B0A7000218EF800203A7067
:1040700032702A70227002701960F0BDC0EF01200A
:10408000C81BFF1F615DFF1F80D80120AC77012096
:10409000D42F0220D0C50020D4C50020D8C50020D0
:1040A000DCC50020E0C50020E4C50020E8C50020F4
:1040B000ECC50020F0C500203CD7012040D70120EE
:1040C000885CFF1F44D7012048D701204CD701202E
:1040D00050D7012054D7012058D701205CD70120A8
:1040E00064D8012070D8012068D801206CD8012044
:1040F00074D8012078D801204C4802205048022072
:10410000601BFF1F641BFF1F681BFF1F6C1BFF1F33
:10411000701BFF1F28D8012030D801202CD8012087
:1041200034D8012038D801203CD8012040D80120C3
:1041300044D8012088D8012084D80120B409FF1F69
:10414000AC08FF1FA408FF1FA008FF1F8C09FF1F5A
:104150005C08FF1F6008FF1F5808FF1F5408FF1F5F
:104160008409FF1F5008FF1F4C08FF1FEC08FF1FAA
:10417000E808FF1F0C09FF1FE408FF1FE008FF1FEE
:104180000409FF1FDC08FF1F440AFF1F1C40022018
:1041900038D70120B077012004C60020BEEB0120F3
:1041A00095D8012096D80120F01BFF1FC5C500201F
:1041B000983F0220855CFF1F48400220A4C50020D4
:1041C00094D80120845CFF1FD92F022050270120A2
:1041D000B43F022048270120CC1BFF1FB0C50020A0
:1041E000E0C600208CD8012048DB0120BDEB012077
:1041F0005E4A5F485F49DFF8C4C20023F0B55E4CF9
:1042000013605E4A23605E4F5E4E5F4D5F4C0360FD
:1042100013605F485F4A3B6033600B602B60236034
:104220005D4F5E4E5E495F4D5F4C036013605F48BB
:104230005F4A3B6033600B602B6023605D4F5E4ED6
:104240005E495F4D5F4C036013605F485F4A3B60AF
:1042500033600B602B60DFF868E25D4F5D4E5E49B6
:104260005E4D23605E4C036013605E485E4ACCF88E
:104270000030CEF800303B6033605C4F5C4E0B602A
:104280002B605C4923605C4D5C4C036013605C48B0
:104290005C4A3B6033600B602B6023605A4F5B4E7F
:1042A0005B495C4D5C4C036013705C483B603C2296
:1042B000226033600B602B70594F5A4E5A495B4D48
:1042C0005B4C02605B483A6032600A602A602260A0
:1042D000594F5A4E5A495B4D5B4C02605B483A60FD
:1042E00032600A602A602260594F5A4E5A495B4D2B
:1042F0005B4C0260DFF8CCC15A483A6032600A6019
:104300002A6022605849594F594E5A4D5A4CDFF88D
:10431000B8E1B422CCF800200370584A58480B701A
:1043200058493B7033702B70237003701370564FD5
:10433000564E574D574C5848584A0B7058493B7089
:1043400033702B70237003701370564F564E574DB9
:10435000574C5848584A0B7000218EF800303B707B
:1043600033702B70237003701160F0BDD8C500202E
:10437000E4C50020ECC50020DCC500203CD70120AE
:10438000E0C50020E8C50020F0C5002040D701208E
:1043900044D7012054D70120885CFF1F48D7012053
:1043A0004CD7012050D7012058D7012064D80120D4
:1043B00074D801205CD7012070D8012068D8012072
:1043C0006CD8012078D80120504802206C1BFF1FB8
:1043D0004C480220601BFF1F641BFF1F681BFF1F50
:1043E000701BFF1F2CD801203CD8012028D80120A9
:1043F00030D8012034D8012038D8012040D80120FD
:10440000BCC5002038D7012044D8012084D8012021
:1044100088D801201C400220B409FF1FA408FF1FF8
:10442000AC08FF1FA008FF1F8C09FF1F6008FF1FBB
:104430005C08FF1F5408FF1F5808FF1F8409FF1F57
:104440005008FF1F4C08FF1FEC08FF1F0C09FF1F3F
:10445000E808FF1FE408FF1FE008FF1F0409FF1F13
:10446000DC08FF1FB077012004C60020BEEB01204E
:1044700095D8012096D80120F01BFF1F983F0220FD
:10448000C5C50020855CFF1F48400220A4C5002050
:1044900094D80120845CFF1FD92F022050270120CF
:1044A000B43F022048270120CC1BFF1FB0C50020CD
:1044B000E0C600208CD8012048DB0120D0C50020B8
:1044C000D4C50020440AFF1FBDEB0120544A554BC0
:1044D000D2ED007AD3ED006A534B27EEA76A66EE61
:1044E000A63AD3ED004A76EE632A64EEA40A77EE8C
:1044F000E65A22EEE47A23EEE74AA0EEA57A0022FD
:10450000A6EE864A37EE047AB5EE407AF1EE10FA5E
:1045100079D04649464A474BD2ED001A93ED001A2E
:1045200091ED002A9FED440A25EE825A71EEC15AA0
:10453000F1EE644A66EEA16A67EE817AA4EEA55AAE
:1045400036EEE73A33EE055A85EE073AB0EEC35A37
:10455000B4EE405AF1EE10FA48DCB4EE433AF1EE14
:1045600010FA47D6354B83ED003A26EE016A60EE2D
:10457000A55AA3EEE16AE2EEC25ADFED2F3A75EEDC
:10458000865A85EE875AF0EEC55AF4EE635AF1EE7C
:1045900010FA03DD15EE103A002B2FDAB4EE455A6F
:1045A000F1EE10FA2AD6264B83ED005A77EEE67A22
:1045B000DFED215A67EEA07AE4EE867AE4EE027A25
:1045C000C7EE876AF0EEE67AF4EE657AF1EE10FA5D
:1045D00003DD16EE903A002B1EDAF4EE666AF1EE79
:1045E00010FA19D6174BC3ED006A704713EE103A54
:1045F000002BB2DB114B00221A60B6E7104B4FF0D4
:104600007E521A60D2E70D480D490E4B02604FF002
:104610007E5008601A6070470A4B00221A6070478B
:10462000D409FF1FD809FF1FD009FF1FE809FF1F8A
:104630001808FF1F1C08FF1FFFFF7F7F4CD80120B9
:10464000300AFF1FB4EF012030B583B001AD042460
:10465000204629F011FC0134082C05F8010BF7D194
:10466000124A134B92ED007A9DED016AD3ED006A78
:10467000104A114B92ED005AD3ED005A66EE077ABC
:1046800026EE267AF7EE006AE6EE077A77EE857A6E
:1046900077EEE57AF0EEE77AF4EEE67AF1EE10FAEC
:1046A00094BF01204FF0FF3003B030BD300AFF1F30
:1046B0004CD80120B4EF01201808FF1F70B5012865
:1046C00082B00E46154600F0C6800228044671D01E
:1046D00008B102B070BD4FF48C738DE818001C2235
:1046E0004FF4AF730A21834823F07AFB0A22114664
:1046F0002346804826F0DCFF0A22102311468DE86D
:1047000018007C484FF4AF7323F06AFB0A2211466D
:104710002346784826F0CCFF77497648FEF708FE16
:104720002946744827F030F8314672482BF0F6FFDE
:104730004FF6FF716F4827F027F823462A220A21F7
:104740006C4826F0B5FF6D496A48FEF7F1FD3C2242
:1047500023460A21674826F0ABFF69496548FEF702
:10476000E7FD2946634827F00FF8664B18682FF0DD
:1047700019F841EC100B02215E482CF069F84FF655
:10478000FF715C4827F000F823465C220A21594853
:1047900026F08EFF5C495748FEF7CAFD23466E227D
:1047A0000A21544826F084FF58495248FEF7C0FDBC
:1047B00002B070BD00244FF48C738DE818001C22E9
:1047C0004FF4AF730A214B4823F00AFB0A2211462B
:1047D0002346484826F06CFF0A22102311468DE834
:1047E000180044484FF4AF7323F0FAFA0A22114636
:1047F0002346404826F05CFF3F493E48FEF798FDBF
:1048000029463C4826F0C0FF31463A482BF086FF47
:104810004FF6FF71374826F0B7FF23462A220A21B8
:10482000344826F045FF2946324826F0ADFF384986
:104830003048FEF77DFD4FF6FF712E4826F0A4FFAD
:104840000A2123463C222B4826F032FF31492948D1
:10485000FEF76EFD98E700244FF48C738DE8180086
:104860001C224FF4AF730A21224823F0B9FA0A221E
:10487000114623461F4826F01BFF0A22102311462B
:104880008DE818001B484FF4AF7323F0A9FA0A22F1
:1048900011462346174826F00BFF17491548FEF727
:1048A00047FD2946134826F06FFF314611482BF08B
:1048B00035FF4FF6FF710F4826F066FF23462A2288
:1048C0000A210C4826F0F4FE29460A4826F05CFF2F
:1048D00011490848FEF72CFD4FF6FF71054826F0F8
:1048E00053FF0A2123463C22024826F0E1FE0B49F1
:1048F000ADE700BF9CD80120002F0400102F04005A
:10490000282F04004009FF1F382F0400542F0400F3
:104910008C2F0400A82F0400682F0400802F0400AF
:1049200038B51B4C237C012B2CD972B6184DE3688B
:1049300062B61849184A08681360984221D0002BC3
:10494000164816DB0068B3EB800F05DD002313600B
:1049500072B6E36062B61368114C0B60002B1A4606
:10496000B8BFDA1C921022603220BDE838402AF02D
:10497000C5B903689B00136072B6EB6062B613683A
:10498000E0E738BD72B62046FEF7AEFDCEE700BFC9
:10499000F4960120D408FF1F943F0220B4C50020E4
:1049A0000C4002202DE9F04785B28CB284B02E4E27
:1049B00004F1210305F114024FF4784E07B212B24C
:1049C00018B2A5F11403CDF80CE0019202900AB2DE
:1049D0000090394630461BB2A5F1020924F05EFF73
:1049E0004FF6FF780FFA89F904F109020E234946C0
:1049F00030468DE8080112B2052323F0F1F904F1E5
:104A0000FF3A0523494604F11A02A5F1150922349B
:104A100024B2304600930FFA8AFA0FFA89F9CDF8DA
:104A2000048012B2153523F0DBF92DB252464B4605
:104A3000394630468DE8100127F0EEFA52463946E5
:104A40002B4630460094CDF8048027F0E5FA009418
:104A50004B4622462946CDF80480304627F0DCFA42
:104A600004B0BDE8F08700BF9CD801202DE9F043D9
:104A70008DB2264E05F1020885B04CF218690FFA86
:104A800088F8052384B242468DE808020F460423C5
:104A900001B2304623F0A4F9A31D05F108001BB2B2
:104AA0003FB200B2EA1CA11C009701930290CDF81E
:104AB0000C90304612B209B204F1080724F0EEFE61
:104AC0003FB24FF0000E6A1C0723123406358DE802
:104AD00008403946304624B22DB212B20D2323F0DD
:104AE0007FF923464246394630468DE8200227F0BA
:104AF00093FACDF8008023462A463946CDF8049033
:104B0000304627F089FA05B0BDE8F0839CD8012033
:104B10002DE9F04F8DB2354E05F1020A85B04CF209
:104B200018670FFA8AFA052384B28846524601B202
:104B30008DE888003046042323F052F9A31D05F1C7
:104B4000080205F1030E0FFA88F01BB212B2A11C85
:104B500000900193029230460FFA8EF2039709B249
:104B600004F1080B24F09AFE0FFA8BFB4FF0000EB5
:104B70006A1C072304F10D0805F104098DE80840BB
:104B80000FFA88F80FFA89F95946304612B20D2308
:104B9000063523F025F92DB2524659464346304694
:104BA0000197CDF80090123427F036FA24B2594616
:104BB00043462A463046CDF80090019727F02CFA5C
:104BC0005246234641463046CDF80090019727F0E3
:104BD00023FACDF8009023462A46414601973046F5
:104BE00027F01AFA05B0BDE8F08F00BF9CD801206D
:104BF0002DE9F04F8DB2364E05F1020985B00FFA5E
:104C000089F94CF21868052384B28DE808014A46F8
:104C10000F46042301B2304623F0E2F8A31D05F14C
:104C200008001BB23FB200B2EA1CA11C0097CDF8ED
:104C30000C800193029012B2304609B224F02EFE8D
:104C400004F1080B002707230FFA8BFB8DE888007F
:104C50006A1C04F10D0705F104083FB20FFA88F849
:104C600040F2FF7A5946304612B20D23063523F042
:104C7000B7F82DB24A4659463B463046CDF800803B
:104C8000CDF804A0123427F0C7F924B259463B46A8
:104C90002A463046CDF80080CDF804A027F0BCF9B4
:104CA0004A46234639463046CDF80080CDF804A068
:104CB00027F0B2F9CDF8008023462A463946CDF8D0
:104CC00004A0304627F0A8F905B0BDE8F08F00BF7A
:104CD0009CD801202DE9F04F504B1B7883B0002B5E
:104CE00048D1002A00F08F80002A40DD8FB285B2C3
:104CF00007F10A0B96B20FFA80FA0CB20FFA8BFB8F
:104D000007F1030905F105080FFA88F822460FFAA2
:104D100089F95346514642480196CDF800B007370D
:104D200027F07AF93FB22246434651463C48019665
:104D3000CDF800906C1F27F06FF924B25A46514607
:104D4000434637480097019627F066F923463A46CE
:104D500041463348CDF80090019627F05DF9009761
:104D600023464A46414601962D4827F055F903B09F
:104D7000BDE8F08F002AB7D18EB206F10A0A0CB254
:104D80000FFA8AFA0FFA80F940F2FF7885B26F1DA8
:104D900006F1030B3FB20FFA8BFB22464B46494606
:104DA000CDF800A0CDF804801D48073627F034F96F
:104DB00036B222463B464946CDF80480CDF800B0D5
:104DC0001748053D27F028F92DB2524649463B4683
:104DD0008DE84001124827F01FF92B46324639462C
:104DE000CDF800B0CDF804800D4827F015F90096F5
:104DF0002B465A463946CDF80480094827F00CF96D
:104E000003B0BDE8F08F8EB206F10A0A0CB20FFAB9
:104E10008AFA0FFA80F947F6EF38B7E7AA77012048
:104E20009CD801202DE9F04F3A4B85B21B7805F153
:104E30000A0785B00A4604B23FB20FFA81FA002B86
:104E400064D14FF4404692B23B4621460292CDF8DF
:104E500000A052460196304827F0DEF8029B0196EA
:104E600003F10A080FFA88F83B4642462146CDF87E
:104E70000080294827F0D0F80299019601F1050930
:104E80000FFA89F9EB1C05F1010B04351BB25246F0
:104E900021460FFA8BFB2DB2CDF800901E480393EC
:104EA00027F0BAF82B4659465246CDF800900196A5
:104EB000194827F0B1F80399CDF8008023464A46F7
:104EC0000196154827F0A8F85B464A462946CDF8D2
:104ED00000800196104827F09FF8029C0196A01CC4
:104EE00000B252463B46394600900B4827F094F8F2
:104EF00004F108031BB28DE8480042463B463946A0
:104F0000054827F089F805B0BDE8F08F40F2FF763C
:104F100099E700BF18DC01209CD801202DE9F04F53
:104F200085B28CB283B0DFF860806E1DA71C0A3496
:104F300024B240F2FF7936B23FB205F1080382464F
:104F40008B463A463146404600941BB2CDF8049059
:104F500027F062F805F10A03A91D0FFA8BF240460B
:104F60008DE810021BB209B227F056F800943A46B9
:104F70003146CDF804900FFA8AF3404627F04CF8FA
:104F800003B0BDE8F08F00BF9CD801202DE9F047A9
:104F90008DB282B0374E05F1040905F1110197B2C7
:104FA0000FFA89F903B209B284B24A460091304639
:104FB0001946019727F030F8631C05F110001BB269
:104FC00000B219464A4600900197304627F024F86F
:104FD00005F10E0804F108030FFA88F81BB2194610
:104FE0004A46CDF800803046019727F015F804F1C5
:104FF00009031BB2CDF800804A4619463046019796
:1050000027F00AF804F1020904F1040A05F10D027F
:105010000FFA89F90FFA8AFA12B2494653460092FA
:105020003046019726F0F8FF53464946CDF80080F8
:1050300042463046019726F0EFFF04F1050805F1DE
:105040000C0207340FFA88F824B212B22346414604
:1050500000923046019726F0DFFF05F10B0212B2F5
:10506000234641468DE88400304626F0D5FF02B045
:10507000BDE8F0879CD8012010B528F057FA092820
:1050800027DC324C303030236070237028F05EFA19
:10509000092831DC30303023E070A37028F016FA94
:1050A00009283BDC303030236071237128F01EFA70
:1050B000092845DD264BC21783FB0013C2EBA3036F
:1050C00003EB8302A0EB420030303033E071A37178
:1050D00010BD1F4B1D4C83FB0032C317C3EBA20353
:1050E00003EB8302A0EB420030303033607023705A
:1050F00028F02CFA0928CDDD154BC21783FB0013CD
:10510000C2EBA30303EB8302A0EB42003030303349
:10511000E070A37028F0DAF90928C3DD0C4BC21740
:1051200083FB0013C2EBA30303EB8302A0EB42005B
:10513000303030336071237128F0D8F90928B9DC98
:1051400030303023E071A37110BD00BFB408FF1FE1
:105150006766666608B5C8224FF4DC7111202BF033
:1051600023FEDC2029F0CAFDC8224FF4DC71112097
:105170002BF01AFEDC2029F0C1FD1120C8224FF4CB
:10518000DC712BF011FEDC20BDE8084029F0B6BD33
:10519000F0B593B00DA80023714A7249FEF744F9A7
:1051A000119800282AD003686F4A1B6B934240F085
:1051B000CD80036D002B00F0C28001A86B496C4CC0
:1051C0006C4D2BF0D5FE119B5BB11A681169A142A1
:1051D00040F08980186D002800F0978001780E0754
:1051E0000ED40DA8FEF7F6F801A82BF081FE119A57
:1051F000614B0D9312B111A8FBF7BEFF13B0F0BDC8
:10520000C1694669891B21D408460028E9D09668FF
:105210005A4A964274D1186DE0B9586D48B10122CE
:1052200009A91AF071FA20B9FFF794FFFEF75CFEA6
:10523000D7E79DF824103929F6D80A290FD001A8FC
:105240002BF098FF039B202BBDD9EDE796684B4AC6
:10525000964255D1012209A91CF0FCFBE3E72C2161
:1052600001A82BF0DDFF431C0646DDD0334605A820
:10527000002201A92BF0E4FF721C039B3D4E01A903
:1052800009A82BF0DDFF05A82BF0FEFF074609A8B3
:105290002BF0FAFF354945F8270001A82BF028FF2D
:1052A00009A82BF025FE05A82BF022FE40F6FF737F
:1052B0009F4288D1324B306818600022134632601A
:1052C00056F823100133B3F5805F0A44F8D1002863
:1052D00041D12C4B18604FF47A7029F00FFD0DA8C6
:1052E000FEF778F87DE71846884700283FF479AF45
:1052F000119B002B98D01A689668204A96428AD053
:105300001846012209A9B0478DE75E6D002E3FF4D3
:1053100068AF96F8311009077FF563AFD6E904014D
:10532000D6E90067801B61EB070100276FF000469C
:105330008F4208BF8642BFF468AF304665E7436DD1
:10534000002B7FF43AAF0C4B0D9354E7984700289D
:105350003FF44DAF31E70B4BB2FBF0F21A60BAE706
:10536000B408FF1F54480220750400006058040070
:10537000510F0000C0EF0120288B03009D0C00009E
:10538000C81BFF1F58D801202DE9704F92B00DA8FF
:1053900000236A4A6A49FEF747F81198002832D07C
:1053A0000368684A1B6B934240F0C280036D002B78
:1053B00000F0B78001A86449DFF8A081634C644D18
:1053C0002BF0D6FD119951B108680369A3427CD135
:1053D0000E6D002E00F0898033781B0716D40DA8BF
:1053E000FDF7F8FF5B4BD8F800201A6001A80023F6
:1053F000C8F800302BF07CFD119A574B0D9312B179
:1054000011A8FBF7B9FE12B0BDE8708FF36972699D
:105410009A1A1DD4002AE2D08368AB4260D1086D8D
:10542000D0B9486D38B1012209A91AF06DF910B947
:10543000FFF790FED3E79DF824103929F8D80A2900
:105440000FD001A82BF096FE039B202BBAD9EFE7D3
:105450008368AB4244D13046012209A91CF0FAFA14
:10546000E5E72C2101A82BF0DBFEB0F1FF3F8146E0
:10547000DED04B4605A8002201A92BF0E1FE09F180
:105480000102039B01A909A82BF0DAFE05A82BF065
:10549000FBFE814609A82BF0F7FE2B4948F82900AE
:1054A00001A82BF025FE09A82BF022FD05A82BF062
:1054B0001FFD40F6FF73994584D14FF47A7029F0AF
:1054C0001DFC0DA8FDF786FF89E7084698470028D0
:1054D00085D011990029ABD008688368AB429ED073
:1054E0000846012209A99847A1E74B6D002B3FF41C
:1054F00076AF93F8312012077FF571AFD3E904AB93
:10550000D3E90023BAEB02026BEB03034FF0000A6E
:105510006FF000499A4508BF9145BFF47BAF4A46FA
:1055200078E7436D002B7FF445AF0B4B0D9367E796
:10553000984700283FF460AF3CE700BFB82F040055
:10554000544802207504000060580400510F000008
:105550009D0C0000FC07FF1F288B0300841CFF1F0D
:105560002DE9F04F2DED028B9E4E9F4FD6F884040F
:105570009E4993B000244FF47A7308978DF8244025
:105580008DF82C400C940A93FBF710FB30BB0DF107
:1055900020089749D6F88404FBF708FB002840F060
:1055A00037819449D6F88404FBF700FB002840F0CB
:1055B000CB80D6F884049049FBF7F8FA002876D11E
:1055C0004046FDF707FF0C9B089713B10CA8FBF7AB
:1055D000D3FD13B0BDEC028BBDE8F08F0DAD2346BB
:1055E0002846824A3146FDF71FFF119B002B00F031
:1055F00000845A680C9901325A60002900F0208416
:105600000CA8FBF7B9FD119B0D970C93002BBED096
:1056100011A8FBF7B1FD0C980028B8D00368774AB1
:105620001B6B934240F0C783036D002B00F0EC83AB
:1056300068467349DFF8D491DFED728A2BF098FC4D
:105640006C464FF00008AA460C9939B30D682B69D7
:105650004B4540F0F782086D002800F06B8303781B
:105660001B071BD5C36942699A1A00F11E81AAB1B2
:10567000AB68654A934240F0F482086D002840F020
:105680001981486D002800F01C81012251461AF052
:105690003BF8002840F01581FFF75CFD0DF1200874
:1056A0004046FDF797FE20462BF022FC71E70DAD3A
:1056B00000232846504A4B49FDF7B6FE119B002BAC
:1056C00000F088835A680C9901325A60002900F072
:1056D000BE830CA8FBF750FD119B0D970C93002B7C
:1056E0003FF46EAF11A8FBF747FD0C9800283FF47C
:1056F00067AF0368414A1B6B934240F06683036DBA
:10570000002B00F0878368463D49DFF80091DFED0C
:105710003D8A2BF02DFC6C460026AA460C9961B1FF
:105720000D682B694B4540F0A182086D002800F000
:10573000C58203781B0700F115814046FDF74AFE3C
:1057400020462BF0D5FB3BE70DAD00232846294A28
:105750002449FDF769FE119B002B00F045835A6830
:105760000C9901325A60002900F074830CA8FBF7F1
:1057700003FD119B0D970C93002B3FF41AAF11A85A
:10578000FBF7FAFC0C9800283FF413AF03681B4AA0
:105790001B6B934240F01483036D002B00F02E83AB
:1057A00068461749DFED178A2BF0E2FB6C464FF095
:1057B0000009AA460C9969B10D68144A2B699342F5
:1057C00040F06882086D002800F0968203781B077D
:1057D00000F190804046FDF7FDFD20462BF088FB50
:1057E000E7E600BF54480220288B0300180AFF1F79
:1057F0003009FF1F1409FF1FC009FF1F75040000B7
:1058000060580400286B6E4E9D0C0000510F000084
:105810000DAD00232846A64AA649FDF705FE119BBB
:10582000002B00F0DC825A680C9901325A60002982
:1058300000F00A830CA8FBF79FFC119B0D970C93BB
:10584000002B3FF4AEAE11A8FBF796FC0C98002895
:105850003FF4A7AE0368984A1B6B934240F0A682C0
:10586000036D002B00F0E68268469449DFED948AD0
:105870002BF07EFB6C464FF00009AA460C9969B1EB
:105880000D68904A2B69934240F0C881086D00284A
:1058900000F06E8203781B0700F19B804046FDF705
:1058A00099FD20462BF024FB7BE6AB68864A9342A9
:1058B00040F0D781012251461CF0CCF800283FF47B
:1058C000EBAE9DF8341039293FF6E6AE0A2900F018
:1058D000B78020462BF04EFC029B202B3FF6DCAE1F
:1058E000B8F1320F7FF4B0AE0DF120084046FDF75D
:1058F00071FDD5E6C36942699A1A13D4002A3FF4B0
:1059000069AFAB68704A934240F0D381086D70B9BB
:10591000486D90B10122514619F0F6FE68B9FFF7C3
:1059200019FC57E7AB68684A934240F0C2810122F4
:1059300051461CF08FF80028F1D09DF83410392919
:10594000EDD80A2900F0FB8020462BF013FC029BC7
:10595000202BE4D8B9F1320F7FF42CAF4046FDF78D
:1059600039FD37E7C36942699A1A13D4002A3FF414
:10597000E4AEAB68544A934240F08781086D70B939
:10598000486D90B10122514619F0BEFE68B9FFF78B
:10599000E1FBD2E6AB684C4A934240F076810122AB
:1059A00051461CF057F80028F1D09DF834103929E1
:1059B000EDD80A2900F0FB8020462BF0DBFB029B90
:1059C000202BE4D8322E7FF4A9AE4046FDF702FD2D
:1059D000B3E6C36942699A1A13D4002A3FF45EAF52
:1059E000AB68394A934240F02881086D70B9486D20
:1059F00090B10122514619F087FE68B9FFF7AAFB62
:105A00004CE7AB68304A934240F01781012251467F
:105A10001CF020F80028F1D09DF834103929EDD879
:105A20000A2955D020462BF0A5FB029B202BE5D858
:105A3000B9F1320F7FF422AF4046FDF7CBFC2DE7E2
:105A40002E2120462BF0ECFB421C05463FF424AEF1
:105A500004A82B46214600222BF0F2FB6A1C029B75
:105A6000214650462BF0ECFB04A82BF00DFC08EE71
:105A7000100A50462BF008FC07EE900AB8EEE77AC1
:105A8000B8EEC88AC7EE287A104B0C4903EB88039E
:105A9000204608F1010837EE888A83ED008A2BF052
:105AA00027FB50462BF024FA04A82BF021FA17E725
:105AB0003009FF1F5448022075040000605804009C
:105AC000286B6E4E510F00009D0C00004CDB012036
:105AD0002E2120462BF0A4FB421C05468ED004A8A4
