:10000000F8FF02209901000001C70100B9C60100F4
:10001000B9C60100B9C60100B9C60100B9C60100E0
:10002000B9C60100B9C60100B9C6010001C7010087
:1000300001C70100B9C60100A9EB0100ADEB010049
:1000400001C7010001C7010001C7010001C701008C
:1000500001C7010001C7010001C7010001C701007C
:1000600001C7010001C7010001C7010001C701006C
:1000700001C7010001C7010001C7010001C701005C
:1000800001C7010001C7010001C7010001C701004C
:1000900001C7010001C7010001C7010001C701003C
:1000A0005DBF010069BF010001C7010001C7010078
:1000B00001C7010001C7010001C7010001C701001C
:1000C00001C7010001C7010001C7010001C701000C
:1000D00001C7010001C7010001C70100852B000015
:1000E00001C7010001C7010001C70100E5240100AB
:1000F00001C7010001C7010001C7010001C70100DC
:10010000F9ED01000DEE010021EE010035EE0100D8
:1001100001C70100F1DA010001C7010001C70100B8
:1001200001C7010001C7010001C7010001C70100AB
:1001300001C7010001C7010001C7010001C701009B
:1001400001C7010001C7010065D8010001C7010016
:1001500001C7010001C7010001C7010001C701007B
:1001600001C7010001C7010075BF010001C70100FF
:1001700001C7010001C7010001C7010001C701005B
:1001800001C7010001C7010001C7010001C701004B
:1001900001C7010001C70100584B4CF2205210B5B5
:1001A0001A804DF628121A8000BF00BF1CF0ACFA6E
:1001B000534B4FF030621A60524A9A60524ADA60EA
:1001C000524B4FF470021A60514A136813F4807353
:1001D00004D150490B604FF4A85313604E4B1A786A
:1001E000110703D51A7842F008021A704B4B4C499C
:1001F0002A221A704B4A4C4B8B4204D252F8040FFD
:1002000043F8040BF8E7494B494900228B4202D2DC
:1002100043F8042BFAE74749474A002352F82300E2
:1002200041F823000133662BF8D1444B444A802126
:1002300003F8011B9342FBD1424B3E4A1A60424BEA
:100240008A221A70A3F5805324225A70A0221A70B1
:100250009A799207FCD59A79D406FCD43B4A9379D3
:1002600003F00C03082B394BF9D103221A714622F3
:100270005A719A799006FCD5344A9179334B4906E4
:10028000FBD5334A4FF08271116009215160202261
:100290001A709A7902F00C020C2AFAD12D4B2E4AD0
:1002A0001A602E4B2E4A1A6000225A60072243F829
:1002B000042C2C4AC3F80C2D62B61CF0FBFF154B26
:1002C0001B68DA0705D528481CF054FD274B284A3F
:1002D0001A60284B1B785B0609D5244C244B2268F6
:1002E0009A4204D120481CF045FD0023236023F0EE
:1002F0005FF81CF00FFA1FF041FAFEE70E200540F0
:1003000030800440823F04000100002B88ED00E0B3
:1003100010D0034014D0034002D0074000E0074053
:100320000018FF1F284F0500F806FF1F0018FF1FC9
:10033000985600200002FF1F0000000000E400E0CB
:1003400056E400E008ED00E00050064000400640A2
:100350004480044004800440C010050014E000E024
:10036000BFD4010000002020D046CE611CE0034035
:10037000A5C3945A00F00740FFFFFFFFFFFFFFFFF8
:10038000FFFFFFFFFFFFFFFFFFFFFFFFFFFFFFFF7D
:10039000FFFFFFFFFFFFFFFFFFFFFFFFFFFFFFFF6D
:1003A000FFFFFFFFFFFFFFFFFFFFFFFFFFFFFFFF5D
:1003B000FFFFFFFFFFFFFFFFFFFFFFFFFFFFFFFF4D
:1003C000FFFFFFFFFFFFFFFFFFFFFFFFFFFFFFFF3D
:1003D000FFFFFFFFFFFFFFFFFFFFFFFFFFFFFFFF2D
:1003E000FFFFFFFFFFFFFFFFFFFFFFFFFFFFFFFF1D
:1003F000FFFFFFFFFFFFFFFFFFFFFFFFFFFFFFFF0D
:10040000FFFFFFFFFFFFFFFFFFFFFFFFDEF9FFFF23
:1004100010B5054C237833B9044B13B10448AFF33E
:1004200000800123237010BD0018FF1F0000000092
:10043000244F0500084B10B51BB108490848AFF31D
:1004400000800848036803B910BD074B002BFBD0A0
:10045000BDE81040184700BF000000000418FF1F4F
:10046000244F05000018FF1F000000000020704707
:10047000704700BF0349044B4FF4804001220860DD
:100480001A60704708F00F401CA6FF1F014B0122A5
:100490001A607047B04F0020034A044913680120D6
:1004A0000344136008607047C0A5FF1FF8A5FF1F35
:1004B0001CF05ABCF8B50E4607461BF0BDFA0546BF
:1004C0001BF0AAFA04461BF097FA6401C0B204F4C8
:1004D000FF54ADB2A5F2BC75044344EA45243C8008
:1004E0001BF05AFA05461BF067FA04461BF074FA33
:1004F000ED02640105F4FF2504F4FF542C43C0F31E
:10050000460004433480F8BD9FED3D7A38B53D4C3C
:10051000F0EE476A002234F812309BB207EE903AB0
:10052000F8EEE77A013277EEA67A3C2A37EE277AA0
:10053000F1D1DFED356A354DC7EE267A29212846FF
:100540000422C5ED007A1CF03FF80A201CF064FE7E
:1005500095ED006ADFED2A6A002134F8112034F8A5
:10056000113092B207EE902A9BB2B8EEE77A07EE0E
:10057000903AF8EEE77A36EE477A76EE677A01310E
:100580003C29E7EE276AE8D1DFED217A214B224CA6
:1005900086EEA77A00221A6017EE100A22F01AFBE4
:1005A00041EC100B1FF040FD51EC100B22F05EFEF1
:1005B000D5ED007A194B07EE100AF0EE006AB0EEA6
:1005C000086AF0EE675AE7EE265A1548E7EE067A13
:1005D0000422242180ED007AC3ED007AC4ED005A94
:1005E0001BF0F2FF0A201CF017FE012128201BF04F
:1005F000C3FF0A201CF010FE0A4B01221A7038BDFE
:10060000000000003050002000007042DC07FF1F97
:1006100000006C42D80E00209865FF1F08A6FF1F3F
:100620004408FF1F14A6FF1F214B10B41A6813685B
:10063000506819780478507A137A044201EA030169
:100640001BD0937A03F0030309B143F0040343F092
:1006500008039910013B91720D2B0BD8DFE803F0D2
:1006600021071B070A152121150A071B0721D3683B
:10067000013BD3605DF8044B7047937A03F00303AA
:100680000029E6D043F00403E3E7D3685DF8044BA8
:10069000023BD3607047D3685DF8044B0233D360EC
:1006A0007047D3685DF8044B0133D360704700BFD7
:1006B0007C530020214B10B45A6813685068197895
:1006C0000478507A137A044201EA03011BD0937A2A
:1006D00003F0030309B143F0040343F00803991046
:1006E000013B91720D2B0BD8DFE803F021071B07AC
:1006F0000A152121150A071B0721D368013BD36086
:100700005DF8044B7047937A03F003030029E6D0A9
:1007100043F00403E3E7D3685DF8044B023BD36086
:100720007047D3685DF8044B0233D3607047D368D9
:100730005DF8044B0133D360704700BF7C53002049
:10074000214B10B49A681368506819780478507A6D
:10075000137A044201EA03011BD0937A03F00303E6
:1007600009B143F0040343F008039910013B91726F
:100770000D2B0BD8DFE803F021071B070A152121F9
:10078000150A071B0721D368013BD3605DF8044BB2
:100790007047937A03F003030029E6D043F0040383
:1007A000E3E7D3685DF8044B023BD3607047D3683E
:1007B0005DF8044B0233D3607047D3685DF8044B97
:1007C0000133D360704700BF7C530020214B10B42D
:1007D000DA681368506819780478507A137A0442FA
:1007E00001EA03011BD0937A03F0030309B143F03C
:1007F000040343F008039910013B91720D2B0BD8B1
:10080000DFE803F021071B070A152121150A071B42
:100810000721D368013BD3605DF8044B7047937A9E
:1008200003F003030029E6D043F00403E3E7D368B1
:100830005DF8044B023BD3607047D3685DF8044B0E
:100840000233D3607047D3685DF8044B0133D36043
:10085000704700BF7C530020214B10B41A69136805
:10086000506819780478507A137A044201EA030137
:100870001BD0937A03F0030309B143F0040343F060
:1008800008039910013B91720D2B0BD8DFE803F0A0
:1008900021071B070A152121150A071B0721D36809
:1008A000013BD3605DF8044B7047937A03F0030378
:1008B0000029E6D043F00403E3E7D3685DF8044B76
:1008C000023BD3607047D3685DF8044B0233D360BA
:1008D0007047D3685DF8044B0133D360704700BFA5
:1008E0007C530020214B10B45A6913685068197862
:1008F0000478507A137A044201EA03011BD0937AF8
:1009000003F0030309B143F0040343F00803991013
:10091000013B91720D2B0BD8DFE803F021071B0779
:100920000A152121150A071B0721D368013BD36053
:100930005DF8044B7047937A03F003030029E6D077
:1009400043F00403E3E7D3685DF8044B023BD36054
:100950007047D3685DF8044B0233D3607047D368A7
:100960005DF8044B0133D360704700BF7C53002017
:10097000214B10B49A691368506819780478507A3A
:10098000137A044201EA03011BD0937A03F00303B4
:1009900009B143F0040343F008039910013B91723D
:1009A0000D2B0BD8DFE803F021071B070A152121C7
:1009B000150A071B0721D368013BD3605DF8044B80
:1009C0007047937A03F003030029E6D043F0040351
:1009D000E3E7D3685DF8044B023BD3607047D3680C
:1009E0005DF8044B0233D3607047D3685DF8044B65
:1009F0000133D360704700BF7C530020214B10B4FB
:100A0000DA691368506819780478507A137A0442C6
:100A100001EA03011BD0937A03F0030309B143F009
:100A2000040343F008039910013B91720D2B0BD87E
:100A3000DFE803F021071B070A152121150A071B10
:100A40000721D368013BD3605DF8044B7047937A6C
:100A500003F003030029E6D043F00403E3E7D3687F
:100A60005DF8044B023BD3607047D3685DF8044BDC
:100A70000233D3607047D3685DF8044B0133D36011
:100A8000704700BF7C530020214B10B41A6A1368D2
:100A9000506819780478507A137A044201EA030105
:100AA0001BD0937A03F0030309B143F0040343F02E
:100AB00008039910013B91720D2B0BD8DFE803F06E
:100AC00021071B070A152121150A071B0721D368D7
:100AD000013BD3605DF8044B7047937A03F0030346
:100AE0000029E6D043F00403E3E7D3685DF8044B44
:100AF000023BD3607047D3685DF8044B0233D36088
:100B00007047D3685DF8044B0133D360704700BF72
:100B10007C530020214B10B45A6A1368506819782E
:100B20000478507A137A044201EA03011BD0937AC5
:100B300003F0030309B143F0040343F008039910E1
:100B4000013B91720D2B0BD8DFE803F021071B0747
:100B50000A152121150A071B0721D368013BD36021
:100B60005DF8044B7047937A03F003030029E6D045
:100B700043F00403E3E7D3685DF8044B023BD36022
:100B80007047D3685DF8044B0233D3607047D36875
:100B90005DF8044B0133D360704700BF7C530020E5
:100BA000214B10B49A6A1368506819780478507A07
:100BB000137A044201EA03011BD0937A03F0030382
:100BC00009B143F0040343F008039910013B91720B
:100BD0000D2B0BD8DFE803F021071B070A15212195
:100BE000150A071B0721D368013BD3605DF8044B4E
:100BF0007047937A03F003030029E6D043F004031F
:100C0000E3E7D3685DF8044B023BD3607047D368D9
:100C10005DF8044B0233D3607047D3685DF8044B32
:100C20000133D360704700BF7C530020214B10B4C8
:100C3000DA6A1368506819780478507A137A044293
:100C400001EA03011BD0937A03F0030309B143F0D7
:100C5000040343F008039910013B91720D2B0BD84C
:100C6000DFE803F021071B070A152121150A071BDE
:100C70000721D368013BD3605DF8044B7047937A3A
:100C800003F003030029E6D043F00403E3E7D3684D
:100C90005DF8044B023BD3607047D3685DF8044BAA
:100CA0000233D3607047D3685DF8044B0133D360DF
:100CB000704700BF7C530020214B10B41A6B13689F
:100CC000506819780478507A137A044201EA0301D3
:100CD0001BD0937A03F0030309B143F0040343F0FC
:100CE00008039910013B91720D2B0BD8DFE803F03C
:100CF00021071B070A152121150A071B0721D368A5
:100D0000013BD3605DF8044B7047937A03F0030313
:100D10000029E6D043F00403E3E7D3685DF8044B11
:100D2000023BD3607047D3685DF8044B0233D36055
:100D30007047D3685DF8044B0133D360704700BF40
:100D40007C530020214B10B45A6B136850681978FB
:100D50000478507A137A044201EA03011BD0937A93
:100D600003F0030309B143F0040343F008039910AF
:100D7000013B91720D2B0BD8DFE803F021071B0715
:100D80000A152121150A071B0721D368013BD360EF
:100D90005DF8044B7047937A03F003030029E6D013
:100DA00043F00403E3E7D3685DF8044B023BD360F0
:100DB0007047D3685DF8044B0233D3607047D36843
:100DC0005DF8044B0133D360704700BF7C530020B3
:100DD000214B10B49A6B1368506819780478507AD4
:100DE000137A044201EA03011BD0937A03F0030350
:100DF00009B143F0040343F008039910013B9172D9
:100E00000D2B0BD8DFE803F021071B070A15212162
:100E1000150A071B0721D368013BD3605DF8044B1B
:100E20007047937A03F003030029E6D043F00403EC
:100E3000E3E7D3685DF8044B023BD3607047D368A7
:100E40005DF8044B0233D3607047D3685DF8044B00
:100E50000133D360704700BF7C530020214B10B496
:100E6000DA6B1368506819780478507A137A044260
:100E700001EA03011BD0937A03F0030309B143F0A5
:100E8000040343F008039910013B91720D2B0BD81A
:100E9000DFE803F021071B070A152121150A071BAC
:100EA0000721D368013BD3605DF8044B7047937A08
:100EB00003F003030029E6D043F00403E3E7D3681B
:100EC0005DF8044B023BD3607047D3685DF8044B78
:100ED0000233D3607047D3685DF8044B0133D360AD
:100EE000704700BF7C530020214B10B41A6C13686C
:100EF000506819780478507A137A044201EA0301A1
:100F00001BD0937A03F0030309B143F0040343F0C9
:100F100008039910013B91720D2B0BD8DFE803F009
:100F200021071B070A152121150A071B0721D36872
:100F3000013BD3605DF8044B7047937A03F00303E1
:100F40000029E6D043F00403E3E7D3685DF8044BDF
:100F5000023BD3607047D3685DF8044B0233D36023
:100F60007047D3685DF8044B0133D360704700BF0E
:100F70007C530020214B10B45A6C136850681978C8
:100F80000478507A137A044201EA03011BD0937A61
:100F900003F0030309B143F0040343F0080399107D
:100FA000013B91720D2B0BD8DFE803F021071B07E3
:100FB0000A152121150A071B0721D368013BD360BD
:100FC0005DF8044B7047937A03F003030029E6D0E1
:100FD00043F00403E3E7D3685DF8044B023BD360BE
:100FE0007047D3685DF8044B0233D3607047D36811
:100FF0005DF8044B0133D360704700BF7C53002081
:10100000214B10B49A6C1368506819780478507AA0
:10101000137A044201EA03011BD0937A03F003031D
:1010200009B143F0040343F008039910013B9172A6
:101030000D2B0BD8DFE803F021071B070A15212130
:10104000150A071B0721D368013BD3605DF8044BE9
:101050007047937A03F003030029E6D043F00403BA
:10106000E3E7D3685DF8044B023BD3607047D36875
:101070005DF8044B0233D3607047D3685DF8044BCE
:101080000133D360704700BF7C530020214B10B464
:10109000DA6C1368506819780478507A137A04422D
:1010A00001EA03011BD0937A03F0030309B143F073
:1010B000040343F008039910013B91720D2B0BD8E8
:1010C000DFE803F021071B070A152121150A071B7A
:1010D0000721D368013BD3605DF8044B7047937AD6
:1010E00003F003030029E6D043F00403E3E7D368E9
:1010F0005DF8044B023BD3607047D3685DF8044B46
:101100000233D3607047D3685DF8044B0133D3607A
:10111000704700BF7C530020214B10B41A6D136838
:10112000506819780478507A137A044201EA03016E
:101130001BD0937A03F0030309B143F0040343F097
:1011400008039910013B91720D2B0BD8DFE803F0D7
:1011500021071B070A152121150A071B0721D36840
:10116000013BD3605DF8044B7047937A03F00303AF
:101170000029E6D043F00403E3E7D3685DF8044BAD
:10118000023BD3607047D3685DF8044B0233D360F1
:101190007047D3685DF8044B0133D360704700BFDC
:1011A0007C530020214B10B45A6D13685068197895
:1011B0000478507A137A044201EA03011BD0937A2F
:1011C00003F0030309B143F0040343F0080399104B
:1011D000013B91720D2B0BD8DFE803F021071B07B1
:1011E0000A152121150A071B0721D368013BD3608B
:1011F0005DF8044B7047937A03F003030029E6D0AF
:1012000043F00403E3E7D3685DF8044B023BD3608B
:101210007047D3685DF8044B0233D3607047D368DE
:101220005DF8044B0133D360704700BF7C5300204E
:10123000214B10B49A6D1368506819780478507A6D
:10124000137A044201EA03011BD0937A03F00303EB
:1012500009B143F0040343F008039910013B917274
:101260000D2B0BD8DFE803F021071B070A152121FE
:10127000150A071B0721D368013BD3605DF8044BB7
:101280007047937A03F003030029E6D043F0040388
:10129000E3E7D3685DF8044B023BD3607047D36843
:1012A0005DF8044B0233D3607047D3685DF8044B9C
:1012B0000133D360704700BF7C530020214B10B432
:1012C000DA6D1368506819780478507A137A0442FA
:1012D00001EA03011BD0937A03F0030309B143F041
:1012E000040343F008039910013B91720D2B0BD8B6
:1012F000DFE803F021071B070A152121150A071B48
:101300000721D368013BD3605DF8044B7047937AA3
:1013100003F003030029E6D043F00403E3E7D368B6
:101320005DF8044B023BD3607047D3685DF8044B13
:101330000233D3607047D3685DF8044B0133D36048
:10134000704700BF7C530020214B10B41A6E136805
:10135000506819780478507A137A044201EA03013C
:101360001BD0937A03F0030309B143F0040343F065
:1013700008039910013B91720D2B0BD8DFE803F0A5
:1013800021071B070A152121150A071B0721D3680E
:10139000013BD3605DF8044B7047937A03F003037D
:1013A0000029E6D043F00403E3E7D3685DF8044B7B
:1013B000023BD3607047D3685DF8044B0233D360BF
:1013C0007047D3685DF8044B0133D360704700BFAA
:1013D0007C530020214B10B45A6E13685068197862
:1013E0000478507A137A044201EA03011BD0937AFD
:1013F00003F0030309B143F0040343F00803991019
:10140000013B91720D2B0BD8DFE803F021071B077E
:101410000A152121150A071B0721D368013BD36058
:101420005DF8044B7047937A03F003030029E6D07C
:1014300043F00403E3E7D3685DF8044B023BD36059
:101440007047D3685DF8044B0233D3607047D368AC
:101450005DF8044B0133D360704700BF7C5300201C
:10146000214B10B49A6E1368506819780478507A3A
:10147000137A044201EA03011BD0937A03F00303B9
:1014800009B143F0040343F008039910013B917242
:101490000D2B0BD8DFE803F021071B070A152121CC
:1014A000150A071B0721D368013BD3605DF8044B85
:1014B0007047937A03F003030029E6D043F0040356
:1014C000E3E7D3685DF8044B023BD3607047D36811
:1014D0005DF8044B0233D3607047D3685DF8044B6A
:1014E0000133D360704700BF7C530020214B10B400
:1014F000DA6E1368506819780478507A137A0442C7
:1015000001EA03011BD0937A03F0030309B143F00E
:10151000040343F008039910013B91720D2B0BD883
:10152000DFE803F021071B070A152121150A071B15
:101530000721D368013BD3605DF8044B7047937A71
:1015400003F003030029E6D043F00403E3E7D36884
:101550005DF8044B023BD3607047D3685DF8044BE1
:101560000233D3607047D3685DF8044B0133D36016
:10157000704700BF7C530020214B10B41A6F1368D2
:10158000506819780478507A137A044201EA03010A
:101590001BD0937A03F0030309B143F0040343F033
:1015A00008039910013B91720D2B0BD8DFE803F073
:1015B00021071B070A152121150A071B0721D368DC
:1015C000013BD3605DF8044B7047937A03F003034B
:1015D0000029E6D043F00403E3E7D3685DF8044B49
:1015E000023BD3607047D3685DF8044B0233D3608D
:1015F0007047D3685DF8044B0133D360704700BF78
:101600007C530020214B10B45A6F1368506819782E
:101610000478507A137A044201EA03011BD0937ACA
:1016200003F0030309B143F0040343F008039910E6
:10163000013B91720D2B0BD8DFE803F021071B074C
:101640000A152121150A071B0721D368013BD36026
:101650005DF8044B7047937A03F003030029E6D04A
:1016600043F00403E3E7D3685DF8044B023BD36027
:101670007047D3685DF8044B0233D3607047D3687A
:101680005DF8044B0133D360704700BF7C530020EA
:10169000214B10B49A6F1368506819780478507A07
:1016A000137A044201EA03011BD0937A03F0030387
:1016B00009B143F0040343F008039910013B917210
:1016C0000D2B0BD8DFE803F021071B070A1521219A
:1016D000150A071B0721D368013BD3605DF8044B53
:1016E0007047937A03F003030029E6D043F0040324
:1016F000E3E7D3685DF8044B023BD3607047D368DF
:101700005DF8044B0233D3607047D3685DF8044B37
:101710000133D360704700BF7C530020214B10B4CD
:10172000DA6F1368506819780478507A137A044293
:1017300001EA03011BD0937A03F0030309B143F0DC
:10174000040343F008039910013B91720D2B0BD851
:10175000DFE803F021071B070A152121150A071BE3
:101760000721D368013BD3605DF8044B7047937A3F
:1017700003F003030029E6D043F00403E3E7D36852
:101780005DF8044B023BD3607047D3685DF8044BAF
:101790000233D3607047D3685DF8044B0133D360E4
:1017A000704700BF7C530020214B10B4D3F8802039
:1017B0001368506819780478507A137A044201EA61
:1017C00003011BD0937A03F0030309B143F0040330
:1017D00043F008039910013B91720D2B0BD8DFE801
:1017E00003F021071B070A152121150A071B0721F2
:1017F000D368013BD3605DF8044B7047937A03F0E4
:1018000003030029E6D043F00403E3E7D3685DF85F
:10181000044B023BD3607047D3685DF8044B02333E
:10182000D3607047D3685DF8044B0133D3607047D1
:101830007C530020214B10B4D3F8842013685068E7
:1018400019780478507A137A044201EA03011BD014
:10185000937A03F0030309B143F0040343F0080350
:101860009910013B91720D2B0BD8DFE803F0210793
:101870001B070A152121150A071B0721D368013B05
:10188000D3605DF8044B7047937A03F0030300299B
:10189000E6D043F00403E3E7D3685DF8044B023B72
:1018A000D3607047D3685DF8044B0233D360704750
:1018B000D3685DF8044B0133D36070477C5300203C
:1018C000214B10B4D3F88820136850681978047835
:1018D000507A137A044201EA03011BD0937A03F091
:1018E000030309B143F0040343F008039910013BDB
:1018F00091720D2B0BD8DFE803F021071B070A15A7
:101900002121150A071B0721D368013BD3605DF82D
:10191000044B7047937A03F003030029E6D043F0A9
:101920000403E3E7D3685DF8044B023BD3607047E0
:10193000D3685DF8044B0233D3607047D3685DF819
:10194000044B0133D36070477C530020214B10B40B
:10195000D3F88C201368506819780478507A137A79
:10196000044201EA03011BD0937A03F0030309B197
:1019700043F0040343F008039910013B91720D2BCF
:101980000BD8DFE803F021071B070A152121150AF0
:10199000071B0721D368013BD3605DF8044B7047F8
:1019A000937A03F003030029E6D043F00403E3E74E
:1019B000D3685DF8044B023BD3607047D3685DF891
:1019C000044B0233D3607047D3685DF8044B013396
:1019D000D36070477C530020214B10B4D3F8902083
:1019E0001368506819780478507A137A044201EA2F
:1019F00003011BD0937A03F0030309B143F00403FE
:101A000043F008039910013B91720D2B0BD8DFE8CE
:101A100003F021071B070A152121150A071B0721BF
:101A2000D368013BD3605DF8044B7047937A03F0B1
:101A300003030029E6D043F00403E3E7D3685DF82D
:101A4000044B023BD3607047D3685DF8044B02330C
:101A5000D3607047D3685DF8044B0133D36070479F
:101A60007C530020214B10B4D3F8942013685068A5
:101A700019780478507A137A044201EA03011BD0E2
:101A8000937A03F0030309B143F0040343F008031E
:101A90009910013B91720D2B0BD8DFE803F0210761
:101AA0001B070A152121150A071B0721D368013BD3
:101AB000D3605DF8044B7047937A03F00303002969
:101AC000E6D043F00403E3E7D3685DF8044B023B40
:101AD000D3607047D3685DF8044B0233D36070471E
:101AE000D3685DF8044B0133D36070477C5300200A
:101AF000214B10B4D3F898201368506819780478F3
:101B0000507A137A044201EA03011BD0937A03F05E
:101B1000030309B143F0040343F008039910013BA8
:101B200091720D2B0BD8DFE803F021071B070A1574
:101B30002121150A071B0721D368013BD3605DF8FB
:101B4000044B7047937A03F003030029E6D043F077
:101B50000403E3E7D3685DF8044B023BD3607047AE
:101B6000D3685DF8044B0233D3607047D3685DF8E7
:101B7000044B0133D36070477C530020214B10B4D9
:101B8000D3F89C201368506819780478507A137A37
:101B9000044201EA03011BD0937A03F0030309B165
:101BA00043F0040343F008039910013B91720D2B9D
:101BB0000BD8DFE803F021071B070A152121150ABE
:101BC000071B0721D368013BD3605DF8044B7047C6
:101BD000937A03F003030029E6D043F00403E3E71C
:101BE000D3685DF8044B023BD3607047D3685DF85F
:101BF000044B0233D3607047D3685DF8044B013364
:101C0000D36070477C530020214B10B4D3F8A02040
:101C10001368506819780478507A137A044201EAFC
:101C200003011BD0937A03F0030309B143F00403CB
:101C300043F008039910013B91720D2B0BD8DFE89C
:101C400003F021071B070A152121150A071B07218D
:101C5000D368013BD3605DF8044B7047937A03F07F
:101C600003030029E6D043F00403E3E7D3685DF8FB
:101C7000044B023BD3607047D3685DF8044B0233DA
:101C8000D3607047D3685DF8044B0133D36070476D
:101C90007C530020214B10B4D3F8A4201368506863
:101CA00019780478507A137A044201EA03011BD0B0
:101CB000937A03F0030309B143F0040343F00803EC
:101CC0009910013B91720D2B0BD8DFE803F021072F
:101CD0001B070A152121150A071B0721D368013BA1
:101CE000D3605DF8044B7047937A03F00303002937
:101CF000E6D043F00403E3E7D3685DF8044B023B0E
:101D0000D3607047D3685DF8044B0233D3607047EB
:101D1000D3685DF8044B0133D36070477C530020D7
:101D2000214B10B4D3F8A8201368506819780478B0
:101D3000507A137A044201EA03011BD0937A03F02C
:101D4000030309B143F0040343F008039910013B76
:101D500091720D2B0BD8DFE803F021071B070A1542
:101D60002121150A071B0721D368013BD3605DF8C9
:101D7000044B7047937A03F003030029E6D043F045
:101D80000403E3E7D3685DF8044B023BD36070477C
:101D9000D3685DF8044B0233D3607047D3685DF8B5
:101DA000044B0133D36070477C530020214B10B4A7
:101DB000D3F8AC201368506819780478507A137AF5
:101DC000044201EA03011BD0937A03F0030309B133
:101DD00043F0040343F008039910013B91720D2B6B
:101DE0000BD8DFE803F021071B070A152121150A8C
:101DF000071B0721D368013BD3605DF8044B704794
:101E0000937A03F003030029E6D043F00403E3E7E9
:101E1000D3685DF8044B023BD3607047D3685DF82C
:101E2000044B0233D3607047D3685DF8044B013331
:101E3000D36070477C530020214B10B4D3F8B020FE
:101E40001368506819780478507A137A044201EACA
:101E500003011BD0937A03F0030309B143F0040399
:101E600043F008039910013B91720D2B0BD8DFE86A
:101E700003F021071B070A152121150A071B07215B
:101E8000D368013BD3605DF8044B7047937A03F04D
:101E900003030029E6D043F00403E3E7D3685DF8C9
:101EA000044B023BD3607047D3685DF8044B0233A8
:101EB000D3607047D3685DF8044B0133D36070473B
:101EC0007C530020214B10B4D3F8B4201368506821
:101ED00019780478507A137A044201EA03011BD07E
:101EE000937A03F0030309B143F0040343F00803BA
:101EF0009910013B91720D2B0BD8DFE803F02107FD
:101F00001B070A152121150A071B0721D368013B6E
:101F1000D3605DF8044B7047937A03F00303002904
:101F2000E6D043F00403E3E7D3685DF8044B023BDB
:101F3000D3607047D3685DF8044B0233D3607047B9
:101F4000D3685DF8044B0133D36070477C530020A5
:101F5000214B10B4D3F8B82013685068197804786E
:101F6000507A137A044201EA03011BD0937A03F0FA
:101F7000030309B143F0040343F008039910013B44
:101F800091720D2B0BD8DFE803F021071B070A1510
:101F90002121150A071B0721D368013BD3605DF897
:101FA000044B7047937A03F003030029E6D043F013
:101FB0000403E3E7D3685DF8044B023BD36070474A
:101FC000D3685DF8044B0233D3607047D3685DF883
:101FD000044B0133D36070477C530020214B10B475
:101FE000D3F8BC201368506819780478507A137AB3
:101FF000044201EA03011BD0937A03F0030309B101
:1020000043F0040343F008039910013B91720D2B38
:102010000BD8DFE803F021071B070A152121150A59
:10202000071B0721D368013BD3605DF8044B704761
:10203000937A03F003030029E6D043F00403E3E7B7
:10204000D3685DF8044B023BD3607047D3685DF8FA
:10205000044B0233D3607047D3685DF8044B0133FF
:10206000D36070477C530020214B10B4D3F8C020BC
:102070001368506819780478507A137A044201EA98
:1020800003011BD0937A03F0030309B143F0040367
:1020900043F008039910013B91720D2B0BD8DFE838
:1020A00003F021071B070A152121150A071B072129
:1020B000D368013BD3605DF8044B7047937A03F01B
:1020C00003030029E6D043F00403E3E7D3685DF897
:1020D000044B023BD3607047D3685DF8044B023376
:1020E000D3607047D3685DF8044B0133D360704709
:1020F0007C530020214B10B4D3F8C42013685068DF
:1021000019780478507A137A044201EA03011BD04B
:10211000937A03F0030309B143F0040343F0080387
:102120009910013B91720D2B0BD8DFE803F02107CA
:102130001B070A152121150A071B0721D368013B3C
:10214000D3605DF8044B7047937A03F003030029D2
:10215000E6D043F00403E3E7D3685DF8044B023BA9
:10216000D3607047D3685DF8044B0233D360704787
:10217000D3685DF8044B0133D36070477C53002073
:10218000214B10B4D3F8C82013685068197804782C
:10219000507A137A044201EA03011BD0937A03F0C8
:1021A000030309B143F0040343F008039910013B12
:1021B00091720D2B0BD8DFE803F021071B070A15DE
:1021C0002121150A071B0721D368013BD3605DF865
:1021D000044B7047937A03F003030029E6D043F0E1
:1021E0000403E3E7D3685DF8044B023BD360704718
:1021F000D3685DF8044B0233D3607047D3685DF851
:10220000044B0133D36070477C530020214B10B442
:10221000D3F8CC201368506819780478507A137A70
:10222000044201EA03011BD0937A03F0030309B1CE
:1022300043F0040343F008039910013B91720D2B06
:102240000BD8DFE803F021071B070A152121150A27
:10225000071B0721D368013BD3605DF8044B70472F
:10226000937A03F003030029E6D043F00403E3E785
:10227000D3685DF8044B023BD3607047D3685DF8C8
:10228000044B0233D3607047D3685DF8044B0133CD
:10229000D36070477C530020214B10B4D3F8D0207A
:1022A0001368506819780478507A137A044201EA66
:1022B00003011BD0937A03F0030309B143F0040335
:1022C00043F008039910013B91720D2B0BD8DFE806
:1022D00003F021071B070A152121150A071B0721F7
:1022E000D368013BD3605DF8044B7047937A03F0E9
:1022F00003030029E6D043F00403E3E7D3685DF865
:10230000044B023BD3607047D3685DF8044B023343
:10231000D3607047D3685DF8044B0133D3607047D6
:102320007C530020214B10B4D3F8D420136850689C
:1023300019780478507A137A044201EA03011BD019
:10234000937A03F0030309B143F0040343F0080355
:102350009910013B91720D2B0BD8DFE803F0210798
:102360001B070A152121150A071B0721D368013B0A
:10237000D3605DF8044B7047937A03F003030029A0
:10238000E6D043F00403E3E7D3685DF8044B023B77
:10239000D3607047D3685DF8044B0233D360704755
:1023A000D3685DF8044B0133D36070477C53002041
:1023B000214B10B4D3F8D8201368506819780478EA
:1023C000507A137A044201EA03011BD0937A03F096
:1023D000030309B143F0040343F008039910013BE0
:1023E00091720D2B0BD8DFE803F021071B070A15AC
:1023F0002121150A071B0721D368013BD3605DF833
:10240000044B7047937A03F003030029E6D043F0AE
:102410000403E3E7D3685DF8044B023BD3607047E5
:10242000D3685DF8044B0233D3607047D3685DF81E
:10243000044B0133D36070477C53002070B50446D1
:1024400008460D4621F09CFE236802462946204698
:102450005B68BDE87040184738B5044608460D462D
:1024600021F08EFE2368024629465B682046984785
:10247000054620461CF024FD284438BD38B50546E5
:102480001CF084FD044628461CF01AFD204438BD8B
:1024900038B5C9B205461CF083FD044628461CF039
:1024A0000FFD204438BD00BF10B4036841681A789E
:1024B0000C78417A037A0C4202EA03021BD0837A39
:1024C00003F003030AB143F0040343F008039A1036
:1024D000013B82720D2B0BD8DFE803F021071B07AD
:1024E0000A152121150A071B0721C368013BC36098
:1024F0005DF8044B7047837A03F00303002AE6D0AB
:1025000043F00403E3E7C3685DF8044B023BC36098
:102510007047C3685DF8044B0233C3607047C368FB
:102520005DF8044B0133C360704700BF08B5034B2F
:10253000D3F8EC00FFF7B8FF08BD00BF7C530020C4
:1025400008B5034BD3F8E800FFF7AEFF08BD00BFA6
:102550007C53002008B5034BD3F8E400FFF7A4FF39
:1025600008BD00BF7C53002008B5034BD3F8E00042
:10257000FFF79AFF08BD00BF7C53002008B5034B4E
:10258000D3F8DC00FFF790FF08BD00BF7C530020AC
:1025900008B50B463B2800F2C682DFE810F0BB020C
:1025A000B202A902A00297028E0285027C02730287
:1025B0006A02610258024F0246023D0234022B02B7
:1025C0002202190210020702AE01A5019C0193012B
:1025D0008A01810178016F0166015D0154014A01A0
:1025E000400136012C01220118010E010401FA00FC
:1025F000F000E600DC00D200C800BE00B400AA0073
:10260000A00096008C00820078006E0064005A00E2
:10261000500046003C00BD4ABD49C2F8EC303B20AA
:1026200004221AF0E1FA012008BDB84AB949C2F8FB
:10263000E8303A2004221AF0D7FA012008BDB34A44
:10264000B549C2F8E430392004221AF0CDFA01204D
:1026500008BDAE4AB149C2F8E030382004221AF071
:10266000C3FA012008BDA94AAD49C2F8DC303720C1
:1026700004221AF0B9FA012008BDA44AA949C2F8F7
:10268000D830362004221AF0AFFA012008BD9F4A44
:10269000A549C2F8D430352004221AF0A5FA012049
:1026A00008BD9A4AA149C2F8D030342004221AF059
:1026B0009BFA012008BD954A9D49C2F8CC303320D1
:1026C00004221AF091FA012008BD904A9949C2F8F3
:1026D000C830322004221AF087FA012008BD8B4A44
:1026E0009549C2F8C430312004221AF07DFA012045
:1026F00008BD864A9149C2F8C030302004221AF041
:1027000073FA012008BD814A8D49C2F8BC302F20E0
:1027100004221AF069FA012008BD7C4A8949C2F8EE
:10272000B8302E2004221AF05FFA012008BD774A43
:102730008549C2F8B4302D2004221AF055FA012040
:1027400008BD724A8149C2F8B0302C2004221AF028
:102750004BFA012008BD6D4A7D49C2F8AC302B20F0
:1027600004221AF041FA012008BD684A7949C2F8EA
:10277000A8302A2004221AF037FA012008BD634A43
:102780007549C2F8A430292004221AF02DFA01203C
:1027900008BD5E4A7149C2F8A030282004221AF010
:1027A00023FA012008BD594A6D49C2F89C30272000
:1027B00004221AF019FA012008BD544A6949C2F8E6
:1027C0009830262004221AF00FFA012008BD4F4A43
:1027D0006549C2F89430252004221AF005FA012038
:1027E00008BD4A4A6149C2F89030242004221AF0F8
:1027F000FBF9012008BD454A5D49C2F88C30232011
:1028000004221AF0F1F9012008BD404A5949C2F8E2
:102810008830222004221AF0E7F9012008BD3B4A43
:102820005549C2F88430212004221AF0DDF9012034
:1028300008BD364A5149C2F88030202004221AF0DF
:10284000D3F9012008BD314A4D49D3671F20042226
:102850001AF0CAF9012008BD2C4A4A4993671E2084
:1028600004221AF0C1F9012008BD284A46495367DD
:102870001D2004221AF0B8F9012008BD234A43495B
:1028800013671C2004221AF0AFF9012008BD1F4A6B
:102890003F49D3661B2004221AF0A6F9012008BD87
:1028A0001A4A3C4993661A2004221AF09DF9012025
:1028B00008BD164A38495366192004221AF094F9C3
:1028C000012008BD114A35491366182004221AF068
:1028D0008BF9012008BD0D4A3149D3651720042228
:1028E0001AF082F9012008BD084A2E499365162086
:1028F00004221AF079F9012008BD044A2A495365D7
:10290000152004221AF070F9012008BD7C53002024
:102910002D250000412500005525000069250000F7
:102920007D250000B123000025230000992200002E
:102930000D22000081210000F52000006920000028
:10294000DD1F0000511F0000C51E0000391E0000E1
:10295000AD1D0000211D0000951C0000091C000099
:102960007D1B0000F11A0000651A0000D919000053
:102970004D190000C118000035180000A91700000B
:102980001D170000911600000516000079150000C3
:10299000ED14000061140000D5130000491300007D
:1029A000BD12000031120000A51100005F4A60490D
:1029B0001365142004221AF017F9012008BD5B4AA0
:1029C0005C49D364132004221AF00EF9012008BDDB
:1029D000564A59499364122004221AF005F901203D
:1029E00008BD524A55495364112004221AF0FCF8DC
:1029F000012008BD4D4A52491364102004221AF0E8
:102A0000F3F8012008BD494A4E49D3630F20042240
:102A10001AF0EAF8012008BD444A4B4993630E209E
:102A200004221AF0E1F8012008BD404A47495363E7
:102A30000D2004221AF0D8F8012008BD3B4A444971
:102A400013630C2004221AF0CFF8012008BD374A86
:102A50004049D3620B2004221AF0C6F8012008BDB9
:102A6000324A3D4993620A2004221AF0BDF801203F
:102A700008BD2E4A39495362092004221AF0B4F8DD
:102A8000012008BD294A36491362082004221AF0A1
:102A9000ABF8012008BD254A3249D3610720042242
:102AA0001AF0A2F8012008BD204A2F4993610620A0
:102AB00004221AF099F8012008BD1C4A2B495361E1
:102AC000052004221AF090F8012008BD174A284971
:102AD0001361042210461AF087F8012008BD134A3A
:102AE0002449D360032004221AF07EF8012008BD97
:102AF0000E4A21499360022004221AF075F8012041
:102B000008BD0A4A1D495360012004221AF06CF8DE
:102B1000012008BD054A1A491360002004221AF05A
:102B200063F8012008BD002008BD00BF7C530020D1
:102B3000191100008D10000001100000750F000039
:102B4000E90E00005D0E0000D10D0000450D0000F3
:102B5000B90C00002D0C0000A10B0000150B0000AB
:102B6000890A0000FD09000071090000E508000065
:102B700059080000CD07000041070000B50600001D
:102B800029060000024B1B68DB6F1B6B1B6970473B
:102B9000E8A6FF1F2DE9F0411D4B1D68854282B05C
:102BA00016468CB219D005B2C4F59073002229469E
:102BB00000921BB20A22174813F00CF9164B154865
:102BC0001B880093C4F59572A31B1BB212B2294651
:102BD00013F000F902B0BDE8F081C4F595772DB28D
:102BE0003FB24FF478483B462946CDF800800A2290
:102BF000084813F0EFF8A31B3A461BB2CDF800804B
:102C00002946044813F0E6F802B0BDE8F08100BFA1
:102C10001008FF1F280C00204808FF1F2DE9F04373
:102C2000364F374E3868374D83B01FF0B1FF41EC57
:102C3000100B1CF0D5FF0022334B51EC100B20F091
:102C40001DF820F0F3FAA8463060002431E058F86F
:102C500024001FF09DFF41EC100B1CF0C1FF00226F
:102C6000294B51EC100B20F009F820F0DFFA00EBB3
:102C7000C000264A3168DFF8A0E04001B0FBF1F166
:102C8000B1F5907F8ABF4FF490711160116055F8D3
:102C900024203B6802EBC20252012046B2FBF3F350
:102CA0001A46CEF80030FFF775FF0134B4F5D27F35
:102CB00020D055F82430012BC9D800230FFA84F90D
:102CC000009349464FF490730A22114813F082F89A
:102CD000104B1B68A342E8D14FF478430093494658
:102CE0004FF490730A220A48013413F073F8B4F5D4
:102CF000D27FDED103B0BDE8F08300BFECA6FF1F9A
:102D0000A40F0020E01BFF1F000059407865FF1F43
:102D1000280C00201008FF1FDC4F002030B5104B9E
:102D20001D68854283B00B460DD00E4A1288009272
:102D30000446C1F595720C4821B212B21BB213F0D1
:102D400049F803B030BDC1F595724FF4784000905A
:102D500029B212B21BB2044813F03CF803B030BDE4
:102D60001008FF1F7808FF1F280C0020F8B50B4F34
:102D70000B4E0C4D002457F82420336802EBC2029E
:102D800052012046B2FBF3F3013419462B60FFF7E2
:102D9000C5FFB4F5D27FEED1F8BD00BFE01BFF1F29
:102DA000ECA6FF1F7865FF1F00B5074883B0B0F998
:102DB0002020B0F91E30009200220192114613F03B
:102DC000ADFA03B05DF804FB280C0020DFF878C0F2
:102DD00000232DE9F0411A4FCCF800301A4647F88D
:102DE00023200133B3F5007FF9D1164E4FF0000ECA
:102DF00001F1FF38002921DDB0F5805F1EDA0346BE
:102E000008EB0005002202E0B3F5805F06D056F81B
:102E10002340AB42224403F10103F5D10844B0F54D
:102E2000805F47F82E2004DA0EF1010EBEF5007F18
:102E3000E0D10023CCF80030BDE8F0810022EDE7BE
:102E4000E01BFF1FC065FF1F7865FF1F002355486B
:102E5000194640F823100133B3F5805F4FF00002AC
:102E6000F7D1F0B45048514C5149524F524B227057
:102E700002700A603A60514E514D524C52485349CB
:102E8000534F1A60534B32602A60226002600A601E
:102E90003A60514E514D524C52485349534F1A606B
:102EA000534B32602A60226002600A603A60514EE1
:102EB000514D524C52485349534F1A60534B326054
:102EC0002A60226002600A60514E524D524C5348B3
:102ED00053493A60534F1A60534B32602A60534E45
:102EE000534D22600260534C53480A603A60534F7E
:102EF0001A605349534B32602A60226002603A6084
:102F0000514E524D524C5348534F0A601A60534928
:102F100032603C232B60236003603B60504E514D78
:102F2000514C5248524F0B60524933602B60236022
:102F300003603B60504E514D514C5248524F0B6014
:102F4000524933602B6023600360514E514D524C07
:102F50005248534B3A70B4270F605249524F327067
:102F60002A70524E524D22700270524C52481A70C2
:102F7000524B0A7052493A70524F32702A70524E78
:102F8000524D22700270524C1A705248524B0A70C5
:102F900000213A7032702A70227002701960F0BC01
:102FA000704700BFC065FF1F3C18FF1FD8A5FF1F5B
:102FB000E04F0020240C0020B44F0020BC65FF1F10
:102FC000B84F0020BC4F0020C04F002010A6FF1FAC
:102FD000C44F0020CC4F0020C84F0020D04F00200D
:102FE0004C65FF1F5065FF1F5465FF1F5865FF1F8D
:102FF0003418FF1F5C65FF1F3818FF1F6065FF1F37
:103000006465FF1F6865FF1FB865FF1FB064FF1F81
:10301000F864FF1FB464FF1FB864FF1FF464FF1F50
:10302000C064FF1FC464FF1FD064FF1FC864FF1F7C
:10303000D464FF1FD864FF1FDC64FF1FE864FF1F18
:10304000E064FF1FF064FF1FEC64FF1FE808FF1F30
:10305000E408FF1FE008FF1FD808FF1FDC08FF1F60
:10306000D408FF1FD008FF1FCC08FF1F3009FF1F27
:103070002809FF1F2C09FF1F2409FF1F2009FF1F1C
:103080001C09FF1F1809FF1FF9A6FF1F5C09FF1F7E
:10309000CC64FF1FE418FF1FAC64FF1F9465FF1F83
:1030A000BC64FF1F04A6FF1F0CA6FF1FD81BFF1F39
:1030B000D50E00206C65FF1F0EA6FF1F2C500020B0
:1030C000D818FF1F205000200DA6FF1FF4A5FF1FDA
:1030D0001C18FF1FD8080020F0A5FF1F4E484F49BD
:1030E0004F4ADFF848C20023F0B54E4F03604E4E02
:1030F0004E4D4F4C4F483B600B6013604E4F4F4955
:103100004F4A33602B60236003604E4E4E4D4F4C50
:103110004F483B600B6013604E4F4F494F4A33603E
:103120002B60236003604E4E4E4D4F4C4F483B602A
:103130000B6013604E4F4F494F4A33602B60236042
:1031400003604E4E4E4D4F4C4F48DFF8E4E13B607C
:103150000B604E4F4E4913604E4A33602B604E4E0B
:103160004E4D236003604E4C4E48CCF80030CEF8F4
:1031700000303B600B6013604B494C4A33602B605E
:10318000237003704A4F4B4E4B4D4C4C4C480B70C8
:1031900013704C494C4A3B7033702B702370037092
:1031A0004A4F4B4E4B4D4C4C4C480B7013704C4996
:1031B0003B703C222A60226002603370494F4A4EC5
:1031C0004A4D4B4C4B480A604B493A6032602A608A
:1031D00022600260494F4A4E4A4D4B4C4B480A60B0
:1031E000DFF850E14A493A6032602A6022600260AA
:1031F000484F494E494D4A4C4A484B4A4FF0B40C4F
:10320000CEF800C00B7000213B7033702B70237020
:1032100003701160F0BD00BFBC4F002010A6FF1F5F
:10322000C84F0020C04F0020C44F0020CC4F0020CA
:10323000D04F00204C65FF1F5065FF1F5465FF1FD6
:103240005C65FF1F5865FF1F3418FF1F3818FF1FEC
:103250006065FF1F6465FF1F6865FF1FF864FF1F3F
:10326000B865FF1FB064FF1FB464FF1FB864FF1F81
:10327000F464FF1FC064FF1FC864FF1FC464FF1F06
:10328000D064FF1FD464FF1FD864FF1FDC64FF1FDE
:10329000E064FF1FEC64FF1FE864FF1FF064FF1F82
:1032A000F9A6FF1FCC64FF1FAC64FF1FBC64FF1FA7
:1032B000E418FF1F9465FF1F04A6FF1F0CA6FF1F45
:1032C000D81BFF1F6C65FF1F2C500020D50E00205F
:1032D0000EA6FF1FE808FF1FE408FF1FE008FF1FFE
:1032E000D808FF1FDC08FF1FD408FF1FD008FF1FEE
:1032F000CC08FF1F3009FF1F2809FF1F2C09FF1FE3
:103300002409FF1F2009FF1F1C09FF1F1809FF1FA9
:10331000D818FF1F205000200DA6FF1FF4A5FF1F87
:103320001C18FF1FD8080020F0A5FF1FB44F002075
:10333000B84F00205C09FF1F544A554BD2ED007A6C
:10334000D3ED006A534B27EEA76A66EEA63AD3ED9B
:10335000004A76EE632A64EEA40A77EEE65A22EE7D
:10336000E47A23EEE74AA0EEA57A0022A6EE864A8A
:1033700037EE047AB5EE407AF1EE10FA79D046498C
:10338000464A474BD2ED001A93ED001A91ED002A00
:103390009FED440A25EE825A71EEC15AF1EE644A5D
:1033A00066EEA16A67EE817AA4EEA55A36EEE73A98
:1033B00033EE055A85EE073AB0EEC35AB4EE405AE2
:1033C000F1EE10FA48DCB4EE433AF1EE10FA47D6CB
:1033D000354B83ED003A26EE016A60EEA55AA3EE66
:1033E000E16AE2EEC25ADFED2F3A75EE865A85EEBB
:1033F000875AF0EEC55AF4EE635AF1EE10FA03DD87
:1034000015EE103A002B2FDAB4EE455AF1EE10FA11
:103410002AD6264B83ED005A77EEE67ADFED215A65
:1034200067EEA07AE4EE867AE4EE027AC7EE876A67
:10343000F0EEE67AF4EE657AF1EE10FA03DD16EEC0
:10344000903A002B1EDAF4EE666AF1EE10FA19D605
:10345000174BC3ED006A704713EE103A002BB2DB36
:10346000114B00221A60B6E7104B4FF07E521A60E3
:10347000D2E70D480D490E4B02604FF07E500860B8
:103480001A6070470A4B00221A607047B009FF1F8C
:10349000B409FF1FAC09FF1FFC08FF1FB808FF1F7E
:1034A000BC08FF1FFFFF7F7F00A6FF1F4C09FF1F07
:1034B000DC18FF1F30B583B001AD0424204619F09D
:1034C00041F80134082C05F8010BF7D1124A134BCF
:1034D00092ED007A9DED016AD3ED006A104A114B1E
:1034E00092ED005AD3ED005A66EE077A26EE267A60
:1034F000F7EE006AE6EE077A77EE857A77EEE57A00
:10350000F0EEE77AF4EEE67AF1EE10FA94BF0120DD
:103510004FF0FF3003B030BD4C09FF1F00A6FF1F66
:10352000DC18FF1FB808FF1F70B5012882B00E46D7
:10353000154600F0C6800228044671D008B102B0DA
:1035400070BD4FF48C738DE818001C224FF4AF73DC
:103550000A21834812F0E2FE0A22114623468048DF
:1035600016F008FB0A22102311468DE818007C484B
:103570004FF4AF7312F0D2FE0A2211462346784868
:1035800016F0F8FA77497648FEF758FF294674484E
:1035900016F05CFB314672481BF06CFC4FF6FF7175
:1035A0006F4816F053FB23462A220A216C4816F076
:1035B000E1FA6D496A48FEF741FF3C2223460A21A1
:1035C000674816F0D7FA69496548FEF737FF29467C
:1035D000634816F03BFB664B18681FF0FBFA41ECA2
:1035E000100B02215E481BF0DBFC4FF6FF715C48BC
:1035F00016F02CFB23465C220A21594816F0BAFA31
:103600005C495748FEF71AFF23466E220A215448A8
:1036100016F0B0FA58495248FEF710FF02B070BDDC
:1036200000244FF48C738DE818001C224FF4AF7304
:103630000A214B4812F072FE0A22114623464848DE
:1036400016F098FA0A22102311468DE81800444813
:103650004FF4AF7312F062FE0A221146234640482F
:1036600016F088FA3F493E48FEF7E8FE29463C48F6
:1036700016F0ECFA31463A481BF0FCFB4FF6FF71AE
:10368000374816F0E3FA23462A220A21344816F076
:1036900071FA2946324816F0D9FA38493048FEF70F
:1036A000CDFE4FF6FF712E4816F0D0FA0A212346C0
:1036B0003C222B4816F05EFA31492948FEF7BEFE3F
:1036C00098E700244FF48C738DE818001C224FF407
:1036D000AF730A21224812F021FE0A221146234626
:1036E0001F4816F047FA0A22102311468DE81800E9
:1036F0001B484FF4AF7312F011FE0A221146234605
:10370000174816F037FA17491548FEF797FE29466D
:10371000134816F09BFA314611481BF0ABFB4FF6ED
:10372000FF710F4816F092FA23462A220A210C480C
:1037300016F020FA29460A4816F088FA1149084876
:10374000FEF77CFE4FF6FF71054816F07FFA0A215E
:1037500023463C22024816F00DFA0B49ADE700BFA4
:10376000280C002090840200A0840200B88402008B
:103770008C09FF1FC8840200E48402001C8502003B
:1037800038850200F88402001085020038B51B4C11
:10379000237C012B2CD972B6184DE36862B6184908
:1037A000184A08681360984221D0002B164816DB8F
:1037B0000068B3EB800F05DD0023136072B6E36091
:1037C00062B61368114C0B60002B1A46B8BFDA1CA6
:1037D000921022603220BDE8384019F01DBD036808
:1037E0009B00136072B6EB6062B61368E0E738BD09
:1037F00072B62046FEF758FECEE700BF9018FF1FB6
:10380000E407FF1F3018FF1FE018FF1F285000209B
:103810002DE9F04785B28CB284B02E4E04F121031D
:1038200005F114024FF4784E07B212B218B2A5F1A6
:103830001403CDF80CE0019202900AB200903946D0
:1038400030461BB2A5F1020914F092FA4FF6FF7848
:103850000FFA89F904F109020E23494630468DE832
:10386000080112B2052312F059FD04F1FF3A0523B5
:10387000494604F11A02A5F11509223424B2304652
:1038800000930FFA8AFA0FFA89F9CDF8048012B280
:10389000153512F043FD2DB252464B46394630469F
:1038A0008DE8100116F01AFE524639462B46304676
:1038B0000094CDF8048016F011FE00944B46224689
:1038C0002946CDF80480304616F008FE04B0BDE865
:1038D000F08700BF280C00202DE9F0438DB2264E62
:1038E00005F1020885B04CF218690FFA88F8052333
:1038F00084B242468DE808020F46042301B23046E6
:1039000012F00CFDA31D05F108001BB23FB200B27E
:10391000EA1CA11C009701930290CDF80C90304650
:1039200012B209B204F1080714F022FA3FB24FF0C4
:10393000000E6A1C0723123406358DE8084039460C
:10394000304624B22DB212B20D2312F0E7FC23460A
:103950004246394630468DE8200216F0BFFDCDF8CC
:10396000008023462A463946CDF80490304616F0AA
:10397000B5FD05B0BDE8F083280C00202DE9F04F1F
:103980008DB2354E05F1020A85B04CF218670FFA78
:103990008AFA052384B28846524601B28DE888002F
:1039A0003046042312F0BAFCA31D05F1080205F10C
:1039B000030E0FFA88F01BB212B2A11C0090019303
:1039C000029230460FFA8EF2039709B204F1080B07
:1039D00014F0CEF90FFA8BFB4FF0000E6A1C072390
:1039E00004F10D0805F104098DE808400FFA88F884
:1039F0000FFA89F95946304612B20D23063512F0F6
:103A00008DFC2DB252465946434630460197CDF8BB
:103A10000090123416F062FD24B2594643462A46FD
:103A20003046CDF80090019716F058FD52462346D7
:103A300041463046CDF80090019716F04FFDCDF885
:103A4000009023462A4641460197304616F046FD2F
:103A500005B0BDE8F08F00BF280C00202DE9F04F25
:103A60008DB2364E05F1020985B00FFA89F94CF294
:103A70001868052384B28DE808014A460F460423DE
:103A800001B2304612F04AFCA31D05F108001BB23A
:103A90003FB200B2EA1CA11C0097CDF80C80019344
:103AA000029012B2304609B214F062F904F1080B28
:103AB000002707230FFA8BFB8DE888006A1C04F1AE
:103AC0000D0705F104083FB20FFA88F840F2FF7ABB
:103AD0005946304612B20D23063512F01FFC2DB2A6
:103AE0004A4659463B463046CDF80080CDF804A002
:103AF000123416F0F3FC24B259463B462A463046AF
:103B0000CDF80080CDF804A016F0E8FC4A46234624
:103B100039463046CDF80080CDF804A016F0DEFC22
:103B2000CDF8008023462A463946CDF804A0304619
:103B300016F0D4FC05B0BDE8F08F00BF280C0020C3
:103B40002DE9F04F504B1B7883B0002B48D1002A51
:103B500000F08F80002A40DD8FB285B207F10A0B9A
:103B600096B20FFA80FA0CB20FFA8BFB07F1030939
:103B700005F105080FFA88F822460FFA89F953462D
:103B8000514642480196CDF800B0073716F0A6FC22
:103B90003FB22246434651463C480196CDF800903C
:103BA0006C1F16F09BFC24B25A46514643463748D8
:103BB0000097019616F092FC23463A464146334858
:103BC000CDF80090019616F089FC009723464A46EE
:103BD000414601962D4816F081FC03B0BDE8F08FF8
:103BE000002AB7D18EB206F10A0A0CB20FFA8AFA8D
:103BF0000FFA80F940F2FF7885B26F1D06F1030BD2
:103C00003FB20FFA8BFB22464B464946CDF800A047
:103C1000CDF804801D48073616F060FC36B2224607
:103C20003B464946CDF80480CDF800B01748053D25
:103C300016F054FC2DB2524649463B468DE84001F1
:103C4000124816F04BFC2B4632463946CDF800B0F0
:103C5000CDF804800D4816F041FC00962B465A46DC
:103C60003946CDF80480094816F038FC03B0BDE8A9
:103C7000F08F8EB206F10A0A0CB20FFA8AFA0FFA26
:103C800080F947F6EF38B7E7C01BFF1F280C00206C
:103C90002DE9F04F3A4B85B21B7805F10A0785B044
:103CA0000A4604B23FB20FFA81FA002B64D14FF4F6
:103CB000404692B23B4621460292CDF800A05246C1
:103CC0000196304816F00AFC029B019603F10A089F
:103CD0000FFA88F83B4642462146CDF80080294835
:103CE00016F0FCFB0299019601F105090FFA89F91A
:103CF000EB1C05F1010B04351BB2524621460FFAAD
:103D00008BFB2DB2CDF800901E48039316F0E6FB16
:103D10002B4659465246CDF800900196194816F0A8
:103D2000DDFB0399CDF8008023464A4601961548ED
:103D300016F0D4FB5B464A462946CDF80080019632
:103D4000104816F0CBFB029C0196A01C00B2524614
:103D50003B46394600900B4816F0C0FB04F10803BF
:103D60001BB28DE8480042463B463946054816F0EE
:103D7000B5FB05B0BDE8F08F40F2FF7699E700BFD4
:103D800014A6FF1F280C00202DE9F04F85B28CB23D
:103D900083B0DFF860806E1DA71C0A3424B240F2A5
:103DA000FF7936B23FB205F1080382468B463A46A8
:103DB0003146404600941BB2CDF8049016F08EFBBD
:103DC00005F10A03A91D0FFA8BF240468DE8100297
:103DD0001BB209B216F082FB00943A463146CDF888
:103DE00004900FFA8AF3404616F078FB03B0BDE862
:103DF000F08F00BF280C00202DE9F0478DB282B073
:103E0000374E05F1040905F1110197B20FFA89F94E
:103E100003B209B284B24A4600913046194601976E
:103E200016F05CFB631C05F110001BB200B21946D2
:103E30004A4600900197304616F050FB05F10E08F7
:103E400004F108030FFA88F81BB219464A46CDF868
:103E500000803046019716F041FB04F109031BB2C4
:103E6000CDF800804A4619463046019716F036FBD9
:103E700004F1020904F1040A05F10D020FFA89F9AF
:103E80000FFA8AFA12B24946534600923046019719
:103E900016F024FB53464946CDF800804246304692
:103EA000019716F01BFB04F1050805F10C0207341D
:103EB0000FFA88F824B212B22346414600923046E7
:103EC000019716F00BFB05F10B0212B22346414697
:103ED0008DE88400304616F001FB02B0BDE8F087A3
:103EE000280C002010B517F087FD092827DC324C7C
:103EF000303030236070237017F08EFD092831DCDC
:103F000030303023E070A37017F046FD09283BDC09
:103F1000303030236071237117F04EFD092845DDE4
:103F2000264BC21783FB0013C2EBA30303EB8302F0
:103F3000A0EB420030303033E071A37110BD1F4B55
:103F40001D4C83FB0032C317C3EBA20303EB8302B8
:103F5000A0EB4200303030336070237017F05CFD0E
:103F60000928CDDD154BC21783FB0013C2EBA30359
:103F700003EB8302A0EB420030303033E070A370DB
:103F800017F00AFD0928C3DD0C4BC21783FB001391
:103F9000C2EBA30303EB8302A0EB420030303033CB
:103FA0006071237117F008FD0928B9DC3030302327
:103FB000E071A37110BD00BF0008FF1F6766666651
:103FC0002DE9F0432F4E002389B00746336008E007
:103FD00033686846013333600EF03EFB68460EF0EE
:103FE0002FFB6846012239460EF032FD68460EF07E
:103FF00041FB0028ECD138460EF084FD68460EF0F7
:104000001FFB3568B5F1FE6F39D94FF0FF301BF05B
:10401000BFFB102380E8280000F108096C1E4DB199
:104020004D462846013C00211BF038FA631C05F17F
:104030001005F6D13368DFF85080002BC8F80090E7
:104040001ADD00240122394668460EF001FDD8F839
:104050000030684603EB04150EF0F4FA01462846DA
:104060001BF0D0FA68460EF0F7FA68460EF0E8FA50
:1040700033680134A342E5DC09B0BDE8F0832801D0
:104080000830C4E7A80F0020A850002008B5C822B7
:104090004FF4DC7111201BF01DF9DC2019F0BCF885
:1040A000C8224FF4DC7111201BF014F9DC2019F048
:1040B000B3F81120C8224FF4DC711BF00BF9DC209F
:1040C000BDE8084019F0A8B870B594B00CA8012359
:1040D0004F4A50490EF02CFC0CA80EF0CBFA20B938
:1040E0000CA80EF0ADFA14B070BD68464A494B4EAC
:1040F0001BF0D4F90CA80EF00FFA90B10CA80EF03A
:1041000029FAC3B2392B1946684606D80A2B13D0B0
:104110001BF0BAFA029B202BECD9FFF7B7FFFEF792
:1041200095FE0CA80EF098FA68461BF077F90CA8DB
:104130000EF086FA14B070BD2C2168461BF0E4FA2C
:1041400005466C1C03464FF00002694604A8334C38
:10415000E3D01BF0E9FA6A1C029B694608A81BF031
:10416000E3FA04A81BF004FB054608A81BF000FBBB
:10417000294946F8250068461BF044FA08A81BF0B8
:104180004DF904A81BF04AF940F6FF739D42B1D1E6
:10419000234B2068186000221346226054F8231035
:1041A0000133B3F5805F0A44F8D140BB1D4B186062
:1041B0001D4B1E4A186811681D4CFEF707FE1D486E
:1041C000002323602646054650F8231022689142BA
:1041D00084BF55F8232032600133B3F5007FF3D15B
:1041E0002368012B01D9FEF719FD236863B94FF449
:1041F0007A7019F011F80CA80EF02EFA91E7094B1D
:10420000B2FBF0F21A60D3E7FEF7B0FDEFE700BFB4
:104210000008FF1FC0500020BC400500C065FF1F04
:10422000E04F0020B81BFF1F7065FF1FC008FF1F75
:10423000ECA6FF1FE01BFF1F30B595B00CA80123B3
:10424000354A36490EF074FB0CA80EF013FA20B96B
:104250000CA80EF0F5F915B030BD68463049314D67
:104260001BF01CF90CA80EF057F980B10CA80EF049
:1042700071F9C3B2392B1946684606D80A2B16D0F5
:104280001BF002FA029B202BECD9FFF7FFFE0CA8D3
:104290000EF0E2F9244B2A681A60684600232B606E
:1042A0001BF0BCF80CA80EF0CBF915B030BD2C21DA
:1042B00068461BF029FA0446B4F1FF3F03464FF06D
:1042C0000002694604A8E0D01BF02EFA621C029B93
:1042D000694608A81BF028FA04A81BF049FA04460E
:1042E00008A81BF045FA0E4945F8240068461BF063
:1042F00089F908A81BF092F804A81BF08FF840F683
:10430000FF739C42AED14FF47A7018F085FF0CA871
:104310000EF0A2F9BBE700BF48850200C0500020A4
:10432000BC400500D8C7FF1F0C09FF1F2DE9F04155
:104330002DED028B98B008A80EF074F9AE49AF4885
:104340000EF06AFB002840F0BD81AD49AB480EF08D
:1043500063FB002840F01E81AA49A8480EF05CFBD0
:10436000002840F09380A849A4480EF055FB50B9AE
:1043700008A80EF071F908A80EF062F918B0BDECAB
:10438000028BBDE8F08110AD01239F4A9B4928466E
:104390000EF0CEFA9DF84410129A9DF84C308DF82C
:1043A00024100A928DF82C3013A90DF12D020DF175
:1043B0003A0311F8010F02F8010B9A42F9D1179B49
:1043C0000F9328460EF03CF908A80EF053F9002888
:1043D000CED068468D49DFED8E8ADFF838826C4694
:1043E0001BF05CF8002608E01BF04EF9029B202B26
:1043F00000F20F82322E00F0E48108A80EF08CF853
:10440000002800F0E18108A80EF0A4F8C3B2392B0F
:104410001946204600F2FD810A2BE5D12E212046C7
:104420001BF072F90746B7F1FF3F0346214604A887
:104430004FF0000200F0ED811BF076F97A1C029B30
:10444000214628461BF070F904A81BF091F908EEEC
:10445000100A28461BF08CF907EE900AB8EEE77AAE
:10446000B8EEC88AC7EE287A08EB8603674920466B
:10447000013677EE887AC3ED007A1BF0C3F8284640
:104480001AF0CCFF04A81AF0C9FFB3E710AD01235E
:104490005C4A5A4928460EF04BFA9DF84410129A8D
:1044A0009DF84C308DF824100A928DF82C3013A909
:1044B0000DF12D020DF13A0311F8010F02F8010B75
:1044C0009A42F9D1179B0F9328460EF0B9F808A825
:1044D0000EF0D0F800283FF446AF68464B49DFEDB8
:1044E0004C8ADFF834816C461AF0D8FF002608E0C9
:1044F0001BF0CAF8029B202B00F29181322E00F0B3
:104500006A8108A80EF008F8002800F0678108A862
:104510000EF020F8C3B2392B1946204600F27F81F5
:104520000A2BE5D12E2120461BF0EEF80746B7F105
:10453000FF3F0346214604A84FF0000200F06F81C0
:104540001BF0F2F87A1C029B214628461BF0ECF87F
:1045500004A81BF00DF908EE100A28461BF008F914
:1045600007EE900AB8EEE77AB8EEC88AC7EE287A66
:1045700008EB860325492046013677EE887AC3ED9D
:10458000007A1BF03FF828461AF048FF04A81AF0FA
:1045900045FFB3E710AD0123194A184928460EF02C
:1045A000C7F99DF84410129A9DF84C308DF82410EC
:1045B0000A928DF82C3013A90DF12D020DF13A035A
:1045C00011F8010F02F8010B9A42F9D1179B0F93D2
:1045D00028460EF035F808A80EF04CF800283FF4F5
:1045E000BBAE68460949DFED0A8ADFF830806C46C9
:1045F0001AF054FF00261CE07409FF1FC050002071
:104600006808FF1F8C08FF1F4C08FF1FBC400500F7
:10461000286B6E4E20A6FF1FFCA6FF1FE023FF1F86
:104620001BF032F8029B202B00F2FC80322E00F0AF
:10463000DC8008A80DF070FF002800F0D98008A8E1
:104640000DF088FFC3B2392B1946204600F2EA80EC
:104650000A2BE5D12E2120461BF056F80746B7F16C
:10466000FF3F0346214604A84FF0000200F0DA8025
:104670001BF05AF87A1C029B214628461BF054F87E
:1046800004A81BF075F808EE100A28461BF070F815
:1046900007EE900AB8EEE77AB8EEC88AC7EE287A35
:1046A00008EB860361492046013677EE887AC3ED30
:1046B000007A1AF0A7FF28461AF0B0FE04A81AF0F4
:1046C000ADFEB3E710AD0123594A5A4928460EF012
:1046D0002FF99DF84410129A9DF84C308DF8241053
:1046E0000A928DF82C3013A90DF12D020DF13A0329
:1046F00011F8010F02F8010B9A42F9D1179B0F93A1
:1047000028460DF09DFF08A80DF0B4FF00283FF4E7
:104710001CAE68464549DFED488ADFF820816C46CB
:104720001AF0BCFE002606E01AF0AEFF029B202B1A
:1047300072D8322E63D008A80DF0EEFE002861D0AA
:1047400008A80DF007FFC3B2392B1946204663D8DD
:104750000A2BE9D12E2120461AF0D6FF0746B7F1E1
:10476000FF3F0346214604A84FF0000254D01AF040
:10477000DBFF7A1C029B214628461AF0D5FF04A8CD
:104780001AF0F6FF08EE100A28461AF0F1FF07EEBD
:10479000900AB8EEE77AB8EEC88AC7EE287A08EB36
:1047A000860322492046013677EE887AC3ED007AE7
:1047B0001AF028FF28461AF031FE04A81AF02EFE3F
:1047C000B7E708A80DF048FF08A80DF045FF204600
:1047D0001AF024FECCE508A80DF03EFF08A80DF065
:1047E0003BFF20461AF01AFEBDE508A80DF034FF85
:1047F00008A80DF031FF20461AF010FEACE508A81D
:104800000DF02AFF08A80DF027FF20461AF006FE3B
:104810009BE5FFF73BFCD7E7FFF738FCF2E7FFF734
:1048200035FCDBE7FFF732FCE2E700BFBC400500E8
:104830007409FF1FC0500020286B6E4EDC0E002054
:10484000CF49D04AD04BD14891ED007AD2ED006AE1
:1048500093ED006ACE499FEDCF4AD0ED004A30B4C7
:1048600040F6E770012407EE904AB8EEE75A1923A4
:1048700035EE045A03E00133834200F04D8207EE27
:10488000903A03FB03F2F8EEE77A05EE902A67EE22
:10489000A67AF8EEE55AE5EE867A77EE877A74EE38
:1048A000E77AF0EEE77AB4EEE75AF1EE10FAE2DBDF
:1048B00001340B2C36D17A230122B748B74CD0ED06
:1048C000004A9FEDB44A2360012540F6E77407EEE5
:1048D000905AB8EEE75A192335EE045A03E0013333
:1048E000A34200F01F8207EE903A03FB03F0F8EEBC
:1048F000E77A05EE900A67EEA67AF8EEE55AE5EE5D
:10490000867A77EE877A74EEE77AF0EEE77AB4EE9D
:10491000E75AF1EE10FAE2DB01350B2D06D0581CF8
:10492000D5D006E05D1C9ED00022C6E740F26E2383
:1049300001229B489B4CD0ED004A9FED964A236094
:10494000012540F6E77407EE905AB8EEE75A1923AE
:1049500035EE045A03E00133A34200F0E08107EE94
:10496000903A03FB03F0F8EEE77A05EE900A67EE63
:10497000A67AF8EEE55AE5EE867A77EE877A74EE57
:10498000E77AF0EEE77AB4EEE75AF1EE10FAE2DBFE
:1049900001350B2D02D0581CD5D002E040F2345323
:1049A00001228148814CD0ED004A9FED7A4A236074
:1049B000012540F6E77407EE905AB8EEE75A19233E
:1049C00035EE045A03E00133A34200F0AE8107EE56
:1049D000903A03FB03F0F8EEE77A05EE900A67EEF3
:1049E000A67AF8EEE55AE5EE867A77EE877A74EEE7
:1049F000E77AF0EEE77AB4EEE75AF1EE10FAE2DB8E
:104A000001350B2D02D0581CD5D002E040F24923CD
:104A100001226748674CD0ED004A9FED5E4A236053
:104A2000012540F6E77407EE905AB8EEE75A1923CD
:104A300035EE045A03E00133A34200F07C8107EE17
:104A4000903A03FB03F0F8EEE77A05EE900A67EE82
:104A5000A67AF8EEE55AE5EE867A77EE877A74EE76
:104A6000E77AF0EEE77AB4EEE75AF1EE10FAE2DB1D
:104A700001350B2D02D0581CD5D002E04FF439730C
:104A800001224D489FED434ADFED4C4A036001256A
:104A900040F6E77407EE905AB8EEE75A192335EE60
:104AA000045A03E00133A34200F0428107EE903A3A
:104AB00003FB03F0F8EEE77A05EE900A67EEA67ABC
:104AC000F8EEE55AE5EE867A77EE877A74EEE77AC5
:104AD000F0EEE77AB4EEE75AF1EE10FAE2DB0135D8
:104AE0000B2D02D0581CD5D002E04FF43E730122AA
:104AF00033489FED284ADFED334A0360012540F635
:104B0000E77407EE905AB8EEE75A192335EE045AC7
:104B100003E00133A34200F0F68007EE903A03FB76
:104B200003F0F8EEE77A05EE900A67EEA67AF8EE63
:104B3000E55AE5EE867A77EE877A74EEE77AF0EE5C
:104B4000E77AB4EEE75AF1EE10FAE2DB01350B2D0D
:104B500002D0581CD5D001E0902301221A489FEDC5
:104B60000D4ADFED1A4A0360012540F6E77407EEAF
:104B7000905AB8EEE75A192335EE045A2CE000BFDC
:104B8000DC18FF1F4C09FF1F00A6FF1F1408FF1FA2
:104B90000809FF1F000000001808FF1FDCA5FF1F09
:104BA0001C08FF1FE0A5FF1F2008FF1FE4A5FF1F33
:104BB0002408FF1FE8A5FF1FECA5FF1F00003E44CF
:104BC000AC08FF1F000010430409FF1F00007F44D2
:104BD0000133A34200F09D8007EE903A03FB03F0FF
:104BE000F8EEE77A05EE900A67EEA67AF8EEE55A57
:104BF000E5EE867A77EE877A74EEE77AF0EEE77A7A
:104C0000B4EEE75AF1EE10FAE2DB01350B2D02D0DB
:104C1000581CACD002E04FF47F73012247489FED4F
:104C2000484ADFED484A0360012540F6E77407EE85
:104C3000905AB8EEE75A192335EE045A02E00133D0
:104C4000A34263D007EE903A03FB03F0F8EEE77A55
:104C500005EE900A67EEA67AF8EEE55AE5EE867A5A
:104C600077EE877A74EEE77AF0EEE77AB4EEE75AF9
:104C7000F1EE10FAE3DB01350B2D02D0581CD6D033
:104C800002E04FF4FE7301222F489FED2D4ADFED25
:104C90002F4A0360012540F6E77407EE905AB8EEFC
:104CA000E75A192335EE045A02E00133A34227D014
:104CB00007EE903A03FB03F0F8EEE77A05EE900A70
:104CC00067EEA67AF8EEE55AE5EE867A77EE877A11
:104CD00074EEE77AF0EEE77AB4EEE75AF1EE10FA06
:104CE000E3DB01350B2D05D0581CD6D00B6022B963
:104CF00030BC70474FF4C3630B6030BCFFF7C6B9DC
:104D00004FF0FF33EDE74FF0FF331FE74FF0FF3376
:104D1000B1E74FF0FF3378E74FF0FF33C8E54FF0CE
:104D2000FF3335E64FF0FF33F6E54FF0FF3367E62C
:104D30004FF0FF33D3E64FF0FF3399E6B008FF1F83
:104D4000000000000000FE43B408FF1F0000C34441
:104D500008B564224FF45C7111201AF0BBFA65208B
:104D600018F05AFA642240F2174111201AF0B2FAF0
:104D7000652018F051FA1120642240F227511AF0F0
:104D8000A9FA6520BDE8084018F046BA08B5C8225F
:104D900040F2275111201AF09DFAC92018F03CFA70
:104DA0001120DC2240F217411AF094FADD20BDE810
:104DB000084018F031BA00BF70B594B0FFF792F810
:104DC000394B3A4818603A4A3A490CA813230DF077
:104DD000AFFD0CA80DF04EFC20B90CA80DF030FC76
:104DE00014B070BD3449354E08A81AF057FB344A48
:104DF0003449354B12681B68096804A801FB02316D
:104E00000A221AF091FB04A908A81AF04DFC0146E9
:104E10002E481AF0E7FB04A81AF000FB08A81AF0C5
:104E2000FDFA2A490CA81AF025F80CA81AF048F83F
:104E300001240A22214668461AF062FB694604A84A
:104E40001AF040FB224904A81AF036FC0A2256F850
:104E50002410054608A81AF07BFB08A928461AF07A
:104E600023FC014619481AF0BDFB08A81AF0D6FA2F
:104E700004A81AF0D3FA68461AF0D0FA13490CA81D
:104E800019F0F8FF01340CA81AF01AF8B4F5805F95
:104E9000CFD1FFF77BFF0CA80DF0DEFB0CA80DF0C7
:104EA000CFFB14B070BD00BF2C510020B504000032
:104EB0000008FF1FC050002058850200C065FF1F7A
:104EC000240C00209C09FF1FE04F0020A465FF1F59
:104ED0005C850200F8B51248124F00253D602C4653
:104EE00029462B46064650F823208A4203D956F815
:104EF0002340012521460133B3F5805FF3D165B925
:104F0000094B994208D9094C01232370FFF754FF3C
:104F1000FDF79CFF00232370F8BD3C60F0E700BF65
:104F2000C065FF1F7465FF1F80969800D8A5FF1FFE
:104F300070B54449444894B00DF06EFD00287CD112
:104F4000424B434C1B68434D23600CA8424E3D4AE4
:104F50003D492E6013230DF0EBFC0CA80DF08AFBED
:104F600020B90CA80DF06CFB14B070BD0A22002112
:104F700068461AF0C5FA694604A81AF0A3FA374938
:104F8000374E04A81AF098FB0A222168054608A8A3
:104F90001AF0CAFA08A928461AF086FB01463148D9
:104FA0001AF020FB08A81AF039FA04A81AF036FA09
:104FB00068461AF033FA2B490CA819F05BFF0CA8CD
:104FC00019F07EFF01240A22214668461AF098FA59
:104FD000694604A81AF076FA204904A81AF06CFB76
:104FE0000A2256F82410054608A81AF0B1FA08A9B2
:104FF00028461AF059FB01461A481AF0F3FA08A895
:105000001AF00CFA04A81AF009FA68461AF006FA1F
:1050100014490CA819F02EFF01340CA819F050FF08
:10502000B4F5805FCFD1FFF7B1FE0CA80DF014FBF3
:105030000CA80DF005FB14B070BD024902480DF03C
:10504000F9FC7DE748850200C0500020E04F0020B9
:105050000C09FF1F2C510020B50400005C850200E4
:10506000C065FF1FA465FF1F38B5352444F6B02581
:105070000121112018F0B6F82B46013BFDD100218B
:10508000112018F0AFF82B46013BFDD1013CEFD1C8
:10509000412443F638350121112018F0A3F82B469E
:1050A000013BFDD10021112018F09CF82B46013B5B
:1050B000FDD1013CEFD1352444F6B025012111206A
:1050C00018F090F82B46013BFDD10021112018F07B
:1050D00089F82B46013BFDD1013CEFD138BD00BF23
:1050E00038B5642443F638350121112018F07AF8D8
:1050F0002B46013BFDD10021112018F073F82B46FF
:10510000013BFDD1013CEFD1782444F6B0250121CB
:10511000112018F067F82B46013BFDD1002111202A
:1051200018F060F82B46013BFDD1013CEFD138BDB2
:10513000F0B5574B1B781BBB564F574D574A584835
:105140005849594C594E3A602A604FF07C52584B9E
:10515000584F0260DFF880E10F6032223360226036
:105160005549564F564D574E5748584CCEF800307B
:10517000574A0B6005213B602E6004601160F0BD52
:10518000012B20D14649534C0C60484D524C484BA2
:105190004448454A3F4E414F47492B6023604FF0FA
:1051A00082451924376005601460454F3A4E434DDF
:1051B0004548474A494C0B600A213B6033602B60ED
:1051C00004601160F0BD022B1ED13549314E374AC3
:1051D000434B344D3F4F34483D4C0F6033603E49A4
:1051E000404E13600F222E6002602260344F2A4E20
:1051F000324D3148344A3C4C0B603C493B60336093
:105200002B6004601160F0BD032B1BD1254B384C83
:10521000204E2349244D214A1F481C60DFF8B8E086
:10522000224C344F224B326032260F602E600260D7
:1052300023602149214F224D224E2348234CCEF892
:10524000003095E7042B21D1124E144A1549124D16
:10525000134B15483260284E0E602A60274F134CBE
:1052600015491F602322124B0260DFF86CE0134FD8
:10527000134D1548164A134E23600B60134CCEF89D
:10528000003007213B602E6004601160F0BD00BF5C
:10529000A065FF1FE007FF1FA809FF1F00803B4517
:1052A0003808FF1F3408FF1FC808FF1FA009FF1F91
:1052B0000000FA440000A0408409FF1F6409FF1F9A
:1052C0008008FF1F008009456008FF1F0050C3478A
:1052D0003008FF1F6666E63E7C08FF1F007C924791
:1052E0000080BB440000104100007A440050434756
:1052F0009A999940CDCC0C3F0000C0408FC2F53E3A
:10530000F0B43C483C4F3D4E3D4D3E4C3E493F4A3B
:105310003F4BD7ED003A96ED004AD5ED004A94EDAB
:10532000005AD0ED005A91ED006AD2ED006A93ED7B
:10533000007A384D384C394F394E3A483A493B4A51
:105340003B4B94ED000AD7ED000A96ED001A93ED61
:10535000003AD0ED001A91ED002AD2ED002ADFEDDF
:10536000357A2DED028BF8EEE33A95ED008AB8EE32
:10537000C44AF8EEE44AB8EEC55AF8EEE55AB8EE7B
:10538000C66AF8EEE66AB8EEC77A63EE883A24EEAB
:10539000004A64EEA04A25EE015A65EEA15A26EEB7
:1053A000026A66EEA26A27EE037A83EEA73ABDECA4
:1053B000028BC4EE273A84EEA74AC5EE274A85EE53
:1053C000A75AC6EE275A86EEA76AC7EE276A85ED6A
:1053D000003AC4ED003A87ED004AC6ED004A80ED80
:1053E000005AC1ED005A82ED006AC3ED006AF0BCBC
:1053F000704700BF4009FF1F3409FF1F3809FF1F16
:105400003C09FF1F5409FF1F4409FF1F4809FF1FE4
:105410007009FF1F7C08FF1FE007FF1FA009FF1F87
:105420006409FF1F8008FF1FA809FF1F6008FF1FF6
:105430008409FF1F0000C8422DE9F0472DED028BC3
:10544000642082B0D94E17F0E7FE0024354620468E
:1054500017F078F80134042C05F8010BF7D1D44F7C
:105460003D46204617F06EF80134082C05F8010B74
:10547000F7D1DFF844834546204617F063F801343E
:105480000C2C05F8010BF7D1D6ED007AC74BF4EEE2
:10549000677AD7ED007AF1EE10FA64BFC54A1A6058
:1054A000F4EE677A6CBF01250025F1EE10FAC04BCF
:1054B00080F1B783D8ED007ABF4BF4EE677AF1EE56
:1054C00010FA80F1B283DFF8F4A22424D1462046FA
:1054D00017F038F80134282C09F8010BF7D19AEDB0
:1054E000008AB64BB4EE488AF1EE10FA80F18C8354
:1054F000DFEDB37AB4EEE78AF1EE10FA40F3AF8253
:10550000F2EE047AB0EE678ACAED007ADFF8B4A250
:105510002924D146204617F015F801342D2C09F81E
:10552000010BF7D1DAED007AA64AF4EE677AF1EED4
:1055300010FA80F16F839FEDA47AF4EEC77AF1EE52
:1055400010FA40F37B829FEDA17AE123F0EE477AD7
:105550008AED007AF0EE006AB0EE676AB0EE087A83
:10556000A8EE266A9A489B4A9B4980ED006AE8EEBD
:10557000077A28200B60C2ED007A16F0E3FF974B04
:10558000002840F01E821870192016F0DBFF082852
:10559000934C00F31F822060002800F028821F2017
:1055A00016F0D0FF642300FB03308E4A44F62063DC
:1055B0009842106000F2CA82DFF82CA21A24D14669
:1055C000204616F0BFFF01341E2C09F8010BF7D15D
:1055D000DAED007A844BF4EE677AF1EE10FA80F19E
:1055E0000B83DFF808A22024D146204616F0AAFF3C
:1055F0000134242C09F8010BF7D1DAED007A7B4B4A
:10560000F4EE677AF1EE10FA80F1FA82182016F0C3
:1056100099FF032800F28E82754B1870754B002895
:1056200040F0C0814FF084421A607349734B744854
:10563000744A08601A60D6ED007AF5EEC07AF1EE91
:1056400010FA40F28A819FED707AF4EEC77AF1EE9B
:1056500010FA00F38281D7ED007AF5EEC07AF1EE10
:1056600010FA40F26C819FED687AF4EEC77AF1EEA1
:1056700010FA00F36481D8ED007AF5EEC07AF1EE0D
:1056800010FA40F24D819FED607AF4EEC77AF1EEA8
:1056900010FA00F345812D2016F054FF06462E2007
:1056A00016F050FF594F00EB06262F203E6016F0F3
:1056B00049FF0446302016F045FF554B00EB04200F
:1056C0008642186040F363810A2140F6F672396021
:1056D0001A603C2016F036FFA0F11903DBB2962BBE
:1056E00000F21F824B4B18603D2016F02BFFA0F1FB
:1056F0001903DBB2962B00F20B82474B18603E2059
:1057000016F020FFA0F11903DBB2962B00F2F7810F
:10571000424B18603F2016F015FFA0F11903DBB2D1
:10572000962B00F2E3813E4B1860402016F00AFFF2
:10573000A0F11903DBB2962B00F2CF81394B186030
:10574000412016F0FFFEA0F11903DBB2962B00F208
:10575000BB81354B1860422016F0F4FEA0F119030E
:10576000DBB2962B00F2A781304B1860432016F075
:10577000E9FEA0F11903DBB2962B00F293812C4BCA
:105780001860322016F0DEFE042800F28581294BD5
:105790001870FFF7CDFCFFF7B3FD332016F0D2FEF3
:1057A0000446342016F0CEFE46E000BFAC09FF1FD1
:1057B000B009FF1F0000D042B409FF1F4408FF1FBB
:1057C0000000C842DC07FF1F00009643000016439C
:1057D0009865FF1F08A6FF1FFC07FF1F14A6FF1FE9
:1057E000C008FF1F9C09FF1FF008FF1FC408FF1F10
:1057F0002D500020FC08FF1FB808FF1FBC08FF1F2A
:10580000008025440080B64400F07F451409FF1F46
:105810004008FF1F3409FF1F3809FF1F3C09FF1F05
:105820005409FF1F4009FF1F4409FF1F4809FF1FBC
:105830007009FF1FA065FF1F00EB0420A0F10A0202
:1058400046F29E139A4200F21381C64B186007EE8F
:10585000900A1620B8EEE70A17F032FC7F211620D6
:1058600017F09AFAC04B7F2235201A6016F06AFEB4
:10587000012840F2D5800021352016F07DFEBB4C7A
:10588000BB49BC4B002645F21F0047F2B3322670DD
:1058900008601A60B84F36243E46204616F052FE85
:1058A00001343A2C06F8010BF7D1D7ED007AB24C4F
:1058B000F4EE677AF1EE10FA80F1BB819FEDAF7ADA
:1058C000F4EEC77AF1EE10FA55D4B1EE047AF4EEA4
:1058D000C77AF1EE10FA4EDC3A2016F033FE044699
:1058E0003B2016F02FFE052C00F08B800F2C02D1F0
:1058F0004B2800F0898005213A2016F03DFE012159
:105900003B2016F039FE9E499E4B0520012208607F
:105910001A60FEF7BBFB02B0BDEC028BBDE8F0875E
:1059200002A8994B40F8043D04220821C8F8003031
:1059300016F04AFE0A2017F06FFC0125ABE602A81C
:10594000924B40F8043D042211463B6016F03CFEA9
:105950000A2017F061FC01258DE602A88C4B40F867
:10596000043D04220021336016F02EFE0A2017F0B9
:1059700053FC01256FE602A84FF07E5340F8043D2A
:10598000042236213B60012516F01EFEA4E7092EF5
:10599000DCBF0A223A60B0F5805FA4BF40F6F67221
:1059A0001A6096E6012800F01581022800F01B819C
:1059B000784A1A607849794B79487A4A08601A60BF
:1059C00039E6012219201A7016F0BCFD0828764C21
:1059D0007FF7E1AD082319461920236016F0CCFDAE
:1059E0000A2017F019FC206800287FF4D8AD0123A5
:1059F00019461920236016F0BFFD0A2017F00CFC91
:105A0000CDE501287FF477AF5D4A5E4B14601860E6
:105A1000002D7FF47EAF02B0BDEC028BBDE8F087B5
:105A2000002840F01481514A5149524B107045F200
:105A30001F0047F2B33208601A602BE79FED5B7AD4
:105A4000F4EEC77AF1EE10FA3FF57DADB7EE087AC5
:105A500027EE877ABCEEC77A17EE103A7AE5DFEDCB
:105A6000537AB4EEE78AF1EE10FA3FF549AD4DE511
:105A70003C4C4FF47A7303213320236016F07CFDF5
:105A80000A2017F0C9FB2178342016F075FD0A2092
:105A900017F0C2FB2068DAE63220002116F06CFD18
:105AA000002074E66423424A19464320136001250E
:105AB00016F062FD65E664233E4A194642201360F3
:105AC000012516F059FD51E664233B4A1946412051
:105AD0001360012516F050FD3DE66423374A194650
