:10000000F8FF022099010000715D0100295D0100E7
:10001000295D0100295D0100295D0100295D0100C4
:10002000295D0100295D0100295D0100715D01006C
:10003000715D0100295D0100198201001D8201002E
:10004000715D0100715D0100715D0100715D010074
:10005000715D0100715D0100715D0100715D010064
:10006000715D0100715D0100715D0100715D010054
:10007000715D0100715D0100715D0100715D010044
:10008000715D0100715D0100715D0100715D010034
:10009000715D0100715D0100715D0100715D010024
:1000A000CD550100D9550100715D0100715D010060
:1000B000715D0100715D0100715D0100715D010004
:1000C000715D0100715D0100715D0100715D0100F4
:1000D000715D0100715D0100715D01007D23000013
:1000E000715D0100715D0100715D010055BB000093
:1000F000715D0100715D0100715D0100715D0100C4
:10010000698401007D84010091840100A5840100BF
:10011000715D010061710100715D0100715D01009F
:10012000715D0100715D0100715D0100715D010093
:10013000715D0100715D0100715D0100715D010083
:10014000715D0100715D0100D56E0100715D0100FE
:10015000715D0100715D0100715D0100715D010063
:10016000715D0100715D0100E5550100715D0100E7
:10017000715D0100715D0100715D0100715D010043
:10018000715D0100715D0100715D0100715D010033
:10019000715D0100715D0100584B4CF2205210B5A9
:1001A0001A804DF628121A8000BF00BF15F0E4FD3A
:1001B000534B4FF030621A60524A9A60524ADA60EA
:1001C000524B4FF470021A60514A136813F4807353
:1001D00004D150490B604FF4A85313604E4B1A786A
:1001E000110703D51A7842F008021A704B4B4C499C
:1001F0002A221A704B4A4C4B8B4204D252F8040FFD
:1002000043F8040BF8E7494B494900228B4202D2DC
:1002100043F8042BFAE74749474A002352F82300E2
:1002200041F823000133662BF8D1444B444A802126
:1002300003F8011B9342FBD1424B3E4A1A60424BEA
:100240008A221A70A3F5805324225A70A0221A70B1
:100250009A799207FCD59A79D406FCD43B4A9379D3
:1002600003F00C03082B394BF9D103221A714622F3
:100270005A719A799006FCD5344A9179334B4906E4
:10028000FBD5334A4FF08271116009215160202261
:100290001A709A7902F00C020C2AFAD12D4B2E4AD0
:1002A0001A602E4B2E4A1A6000225A60072243F829
:1002B000042C2C4AC3F80C2D62B616F033FB154BF8
:1002C0001B68DA0705D5284816F08CF8274B284A12
:1002D0001A60284B1B785B0609D5244C244B2268F6
:1002E0009A4204D1204816F07DF8002323601BF0C9
:1002F000DFFB15F047FD18F079FDFEE70E20054005
:1003000030800440823F04000100002B88ED00E0B3
:1003100010D0034014D0034002D0074000E0074053
:100320001817FF1F58BB0400F806FF1F1817FF1F00
:10033000F01300200002FF1F0000000000E400E0B6
:1003400056E400E008ED00E00050064000400640A2
:100350004480044004800440C010050014E000E024
:10036000BFD4010000002020EF451E611CE00340C7
:10037000A5C3945A00F00740FFFFFFFFFFFFFFFFF8
:10038000FFFFFFFFFFFFFFFFFFFFFFFFFFFFFFFF7D
:10039000FFFFFFFFFFFFFFFFFFFFFFFFFFFFFFFF6D
:1003A000FFFFFFFFFFFFFFFFFFFFFFFFFFFFFFFF5D
:1003B000FFFFFFFFFFFFFFFFFFFFFFFFFFFFFFFF4D
:1003C000FFFFFFFFFFFFFFFFFFFFFFFFFFFFFFFF3D
:1003D000FFFFFFFFFFFFFFFFFFFFFFFFFFFFFFFF2D
:1003E000FFFFFFFFFFFFFFFFFFFFFFFFFFFFFFFF1D
:1003F000FFFFFFFFFFFFFFFFFFFFFFFFFFFFFFFF0D
:10040000FFFFFFFFFFFFFFFFFFFFFFFFDEF9FFFF23
:1004100010B5054C237833B9044B13B10448AFF33E
:1004200000800123237010BD1817FF1F000000007B
:1004300054BB0400084B10B51BB108490848AFF382
:1004400000800848036803B910BD074B002BFBD0A0
:10045000BDE81040184700BF000000001C17FF1F38
:1004600054BB04001817FF1F000000000020704755
:10047000704700BF0349044B4FF4804001220860DD
:100480001A60704708F00F40B867FF1F014B012248
:100490001A6070473C17FF1F034A04491368012084
:1004A00003441360086070475464FF1F5864FF1FC3
:1004B00015F092BFF8B50E46074614F0F5FD054657
:1004C00014F0E2FD044614F0CFFD6401C0B204F460
:1004D000FF54ADB2A5F2BC75044344EA45243C8008
:1004E00014F092FD054614F09FFD044614F0ACFD97
:1004F000ED02640105F4FF2504F4FF542C43C0F31E
:10050000460004433480F8BD9FED3D7A38B53D4C3C
:10051000F0EE476A002234F812309BB207EE903AB0
:10052000F8EEE77A013277EEA67A3C2A37EE277AA0
:10053000F1D1DFED356A354DC7EE267A29212846FF
:100540000422C5ED007A15F077FB0A2016F09CF91D
:1005500095ED006ADFED2A6A002134F8112034F8A5
:10056000113092B207EE902A9BB2B8EEE77A07EE0E
:10057000903AF8EEE77A36EE477A76EE677A01310E
:100580003C29E7EE276AE8D1DFED217A214B224CA6
:1005900086EEA77A00221A6017EE100A1AF09AFE69
:1005A00041EC100B18F0DCFE51EC100B1BF0DEF9E7
:1005B000D5ED007A194B07EE100AF0EE006AB0EEA6
:1005C000086AF0EE675AE7EE265A1548E7EE067A13
:1005D0000422242180ED007AC3ED007AC4ED005A94
:1005E00015F02AFB0A2016F04FF90121282015F0FA
:1005F000FBFA0A2016F048F90A4B01221A7038BD9E
:10060000000000007CEDFF1F00007042D807FF1FB4
:1006100000006C422CACFF1F3024FF1FAC67FF1F93
:100620002808FF1FB467FF1F214B10B4D3F8C82060
:100630001368506819780478507A137A044201EAF2
:1006400003011BD0937A03F0030309B143F00403C1
:1006500043F008039910013B91720D2B0BD8DFE892
:1006600003F021071B070A152121150A071B072183
:10067000D368013BD3605DF8044B7047937A03F075
:1006800003030029E6D043F00403E3E7D3685DF8F1
:10069000044B023BD3607047D3685DF8044B0233D0
:1006A000D3607047D3685DF8044B0133D360704763
:1006B000D4100020214B10B4D3F8CC20136850681C
:1006C00019780478507A137A044201EA03011BD0A6
:1006D000937A03F0030309B143F0040343F00803E2
:1006E0009910013B91720D2B0BD8DFE803F0210725
:1006F0001B070A152121150A071B0721D368013B97
:10070000D3605DF8044B7047937A03F0030300292C
:10071000E6D043F00403E3E7D3685DF8044B023B03
:10072000D3607047D3685DF8044B0233D3607047E1
:10073000D3685DF8044B0133D3607047D4100020B8
:10074000214B10B4D3F8D02013685068197804787E
:10075000507A137A044201EA03011BD0937A03F022
:10076000030309B143F0040343F008039910013B6C
:1007700091720D2B0BD8DFE803F021071B070A1538
:100780002121150A071B0721D368013BD3605DF8BF
:10079000044B7047937A03F003030029E6D043F03B
:1007A0000403E3E7D3685DF8044B023BD360704772
:1007B000D3685DF8044B0233D3607047D3685DF8AB
:1007C000044B0133D3607047D4100020214B10B488
:1007D000D3F8D4201368506819780478507A137AC3
:1007E000044201EA03011BD0937A03F0030309B129
:1007F00043F0040343F008039910013B91720D2B61
:100800000BD8DFE803F021071B070A152121150A81
:10081000071B0721D368013BD3605DF8044B704789
:10082000937A03F003030029E6D043F00403E3E7DF
:10083000D3685DF8044B023BD3607047D3685DF822
:10084000044B0233D3607047D3685DF8044B013327
:10085000D3607047D4100020214B10B4D3F8D820B7
:100860001368506819780478507A137A044201EAC0
:1008700003011BD0937A03F0030309B143F004038F
:1008800043F008039910013B91720D2B0BD8DFE860
:1008900003F021071B070A152121150A071B072151
:1008A000D368013BD3605DF8044B7047937A03F043
:1008B00003030029E6D043F00403E3E7D3685DF8BF
:1008C000044B023BD3607047D3685DF8044B02339E
:1008D000D3607047D3685DF8044B0133D360704731
:1008E000D4100020214B10B4D3F8DC2013685068DA
:1008F00019780478507A137A044201EA03011BD074
:10090000937A03F0030309B143F0040343F00803AF
:100910009910013B91720D2B0BD8DFE803F02107F2
:100920001B070A152121150A071B0721D368013B64
:10093000D3605DF8044B7047937A03F003030029FA
:10094000E6D043F00403E3E7D3685DF8044B023BD1
:10095000D3607047D3685DF8044B0233D3607047AF
:10096000D3685DF8044B0133D3607047D410002086
:10097000214B10B4D3F8E02013685068197804783C
:10098000507A137A044201EA03011BD0937A03F0F0
:10099000030309B143F0040343F008039910013B3A
:1009A00091720D2B0BD8DFE803F021071B070A1506
:1009B0002121150A071B0721D368013BD3605DF88D
:1009C000044B7047937A03F003030029E6D043F009
:1009D0000403E3E7D3685DF8044B023BD360704740
:1009E000D3685DF8044B0233D3607047D3685DF879
:1009F000044B0133D3607047D4100020214B10B456
:100A0000D3F8E4201368506819780478507A137A80
:100A1000044201EA03011BD0937A03F0030309B1F6
:100A200043F0040343F008039910013B91720D2B2E
:100A30000BD8DFE803F021071B070A152121150A4F
:100A4000071B0721D368013BD3605DF8044B704757
:100A5000937A03F003030029E6D043F00403E3E7AD
:100A6000D3685DF8044B023BD3607047D3685DF8F0
:100A7000044B0233D3607047D3685DF8044B0133F5
:100A8000D3607047D4100020214B10B4D3F8E82075
:100A90001368506819780478507A137A044201EA8E
:100AA00003011BD0937A03F0030309B143F004035D
:100AB00043F008039910013B91720D2B0BD8DFE82E
:100AC00003F021071B070A152121150A071B07211F
:100AD000D368013BD3605DF8044B7047937A03F011
:100AE00003030029E6D043F00403E3E7D3685DF88D
:100AF000044B023BD3607047D3685DF8044B02336C
:100B0000D3607047D3685DF8044B0133D3607047FE
:100B1000D4100020214B10B4D3F8EC201368506897
:100B200019780478507A137A044201EA03011BD041
:100B3000937A03F0030309B143F0040343F008037D
:100B40009910013B91720D2B0BD8DFE803F02107C0
:100B50001B070A152121150A071B0721D368013B32
:100B6000D3605DF8044B7047937A03F003030029C8
:100B7000E6D043F00403E3E7D3685DF8044B023B9F
:100B8000D3607047D3685DF8044B0233D36070477D
:100B9000D3685DF8044B0133D3607047D410002054
:100BA000214B10B41A681368506819780478507A89
:100BB000137A044201EA03011BD0937A03F0030382
:100BC00009B143F0040343F008039910013B91720B
:100BD0000D2B0BD8DFE803F021071B070A15212195
:100BE000150A071B0721D368013BD3605DF8044B4E
:100BF0007047937A03F003030029E6D043F004031F
:100C0000E3E7D3685DF8044B023BD3607047D368D9
:100C10005DF8044B0233D3607047D3685DF8044B32
:100C20000133D360704700BFD4100020214B10B4B3
:100C30005A681368506819780478507A137A044215
:100C400001EA03011BD0937A03F0030309B143F0D7
:100C5000040343F008039910013B91720D2B0BD84C
:100C6000DFE803F021071B070A152121150A071BDE
:100C70000721D368013BD3605DF8044B7047937A3A
:100C800003F003030029E6D043F00403E3E7D3684D
:100C90005DF8044B023BD3607047D3685DF8044BAA
:100CA0000233D3607047D3685DF8044B0133D360DF
:100CB000704700BFD4100020214B10B49A6813680D
:100CC000506819780478507A137A044201EA0301D3
:100CD0001BD0937A03F0030309B143F0040343F0FC
:100CE00008039910013B91720D2B0BD8DFE803F03C
:100CF00021071B070A152121150A071B0721D368A5
:100D0000013BD3605DF8044B7047937A03F0030313
:100D10000029E6D043F00403E3E7D3685DF8044B11
:100D2000023BD3607047D3685DF8044B0233D36055
:100D30007047D3685DF8044B0133D360704700BF40
:100D4000D4100020214B10B4DA6813685068197869
:100D50000478507A137A044201EA03011BD0937A93
:100D600003F0030309B143F0040343F008039910AF
:100D7000013B91720D2B0BD8DFE803F021071B0715
:100D80000A152121150A071B0721D368013BD360EF
:100D90005DF8044B7047937A03F003030029E6D013
:100DA00043F00403E3E7D3685DF8044B023BD360F0
:100DB0007047D3685DF8044B0233D3607047D36843
:100DC0005DF8044B0133D360704700BFD41000209E
:100DD000214B10B41A691368506819780478507A56
:100DE000137A044201EA03011BD0937A03F0030350
:100DF00009B143F0040343F008039910013B9172D9
:100E00000D2B0BD8DFE803F021071B070A15212162
:100E1000150A071B0721D368013BD3605DF8044B1B
:100E20007047937A03F003030029E6D043F00403EC
:100E3000E3E7D3685DF8044B023BD3607047D368A7
:100E40005DF8044B0233D3607047D3685DF8044B00
:100E50000133D360704700BFD4100020214B10B481
:100E60005A691368506819780478507A137A0442E2
:100E700001EA03011BD0937A03F0030309B143F0A5
:100E8000040343F008039910013B91720D2B0BD81A
:100E9000DFE803F021071B070A152121150A071BAC
:100EA0000721D368013BD3605DF8044B7047937A08
:100EB00003F003030029E6D043F00403E3E7D3681B
:100EC0005DF8044B023BD3607047D3685DF8044B78
:100ED0000233D3607047D3685DF8044B0133D360AD
:100EE000704700BFD4100020214B10B49A691368DA
:100EF000506819780478507A137A044201EA0301A1
:100F00001BD0937A03F0030309B143F0040343F0C9
:100F100008039910013B91720D2B0BD8DFE803F009
:100F200021071B070A152121150A071B0721D36872
:100F3000013BD3605DF8044B7047937A03F00303E1
:100F40000029E6D043F00403E3E7D3685DF8044BDF
:100F5000023BD3607047D3685DF8044B0233D36023
:100F60007047D3685DF8044B0133D360704700BF0E
:100F7000D4100020214B10B4DA6913685068197836
:100F80000478507A137A044201EA03011BD0937A61
:100F900003F0030309B143F0040343F0080399107D
:100FA000013B91720D2B0BD8DFE803F021071B07E3
:100FB0000A152121150A071B0721D368013BD360BD
:100FC0005DF8044B7047937A03F003030029E6D0E1
:100FD00043F00403E3E7D3685DF8044B023BD360BE
:100FE0007047D3685DF8044B0233D3607047D36811
:100FF0005DF8044B0133D360704700BFD41000206C
:10100000214B10B41A6A1368506819780478507A22
:10101000137A044201EA03011BD0937A03F003031D
:1010200009B143F0040343F008039910013B9172A6
:101030000D2B0BD8DFE803F021071B070A15212130
:10104000150A071B0721D368013BD3605DF8044BE9
:101050007047937A03F003030029E6D043F00403BA
:10106000E3E7D3685DF8044B023BD3607047D36875
:101070005DF8044B0233D3607047D3685DF8044BCE
:101080000133D360704700BFD4100020214B10B44F
:101090005A6A1368506819780478507A137A0442AF
:1010A00001EA03011BD0937A03F0030309B143F073
:1010B000040343F008039910013B91720D2B0BD8E8
:1010C000DFE803F021071B070A152121150A071B7A
:1010D0000721D368013BD3605DF8044B7047937AD6
:1010E00003F003030029E6D043F00403E3E7D368E9
:1010F0005DF8044B023BD3607047D3685DF8044B46
:101100000233D3607047D3685DF8044B0133D3607A
:10111000704700BFD4100020214B10B49A6A1368A6
:10112000506819780478507A137A044201EA03016E
:101130001BD0937A03F0030309B143F0040343F097
:1011400008039910013B91720D2B0BD8DFE803F0D7
:1011500021071B070A152121150A071B0721D36840
:10116000013BD3605DF8044B7047937A03F00303AF
:101170000029E6D043F00403E3E7D3685DF8044BAD
:10118000023BD3607047D3685DF8044B0233D360F1
:101190007047D3685DF8044B0133D360704700BFDC
:1011A000D4100020214B10B4DA6A13685068197803
:1011B0000478507A137A044201EA03011BD0937A2F
:1011C00003F0030309B143F0040343F0080399104B
:1011D000013B91720D2B0BD8DFE803F021071B07B1
:1011E0000A152121150A071B0721D368013BD3608B
:1011F0005DF8044B7047937A03F003030029E6D0AF
:1012000043F00403E3E7D3685DF8044B023BD3608B
:101210007047D3685DF8044B0233D3607047D368DE
:101220005DF8044B0133D360704700BFD410002039
:10123000214B10B41A6B1368506819780478507AEF
:10124000137A044201EA03011BD0937A03F00303EB
:1012500009B143F0040343F008039910013B917274
:101260000D2B0BD8DFE803F021071B070A152121FE
:10127000150A071B0721D368013BD3605DF8044BB7
:101280007047937A03F003030029E6D043F0040388
:10129000E3E7D3685DF8044B023BD3607047D36843
:1012A0005DF8044B0233D3607047D3685DF8044B9C
:1012B0000133D360704700BFD4100020214B10B41D
:1012C0005A6B1368506819780478507A137A04427C
:1012D00001EA03011BD0937A03F0030309B143F041
:1012E000040343F008039910013B91720D2B0BD8B6
:1012F000DFE803F021071B070A152121150A071B48
:101300000721D368013BD3605DF8044B7047937AA3
:1013100003F003030029E6D043F00403E3E7D368B6
:101320005DF8044B023BD3607047D3685DF8044B13
:101330000233D3607047D3685DF8044B0133D36048
:10134000704700BFD4100020214B10B49A6B136873
:10135000506819780478507A137A044201EA03013C
:101360001BD0937A03F0030309B143F0040343F065
:1013700008039910013B91720D2B0BD8DFE803F0A5
:1013800021071B070A152121150A071B0721D3680E
:10139000013BD3605DF8044B7047937A03F003037D
:1013A0000029E6D043F00403E3E7D3685DF8044B7B
:1013B000023BD3607047D3685DF8044B0233D360BF
:1013C0007047D3685DF8044B0133D360704700BFAA
:1013D000D4100020214B10B4DA6B136850681978D0
:1013E0000478507A137A044201EA03011BD0937AFD
:1013F00003F0030309B143F0040343F00803991019
:10140000013B91720D2B0BD8DFE803F021071B077E
:101410000A152121150A071B0721D368013BD36058
:101420005DF8044B7047937A03F003030029E6D07C
:1014300043F00403E3E7D3685DF8044B023BD36059
:101440007047D3685DF8044B0233D3607047D368AC
:101450005DF8044B0133D360704700BFD410002007
:10146000214B10B41A6C1368506819780478507ABC
:10147000137A044201EA03011BD0937A03F00303B9
:1014800009B143F0040343F008039910013B917242
:101490000D2B0BD8DFE803F021071B070A152121CC
:1014A000150A071B0721D368013BD3605DF8044B85
:1014B0007047937A03F003030029E6D043F0040356
:1014C000E3E7D3685DF8044B023BD3607047D36811
:1014D0005DF8044B0233D3607047D3685DF8044B6A
:1014E0000133D360704700BFD4100020214B10B4EB
:1014F0005A6C1368506819780478507A137A044249
:1015000001EA03011BD0937A03F0030309B143F00E
:10151000040343F008039910013B91720D2B0BD883
:10152000DFE803F021071B070A152121150A071B15
:101530000721D368013BD3605DF8044B7047937A71
:1015400003F003030029E6D043F00403E3E7D36884
:101550005DF8044B023BD3607047D3685DF8044BE1
:101560000233D3607047D3685DF8044B0133D36016
:10157000704700BFD4100020214B10B49A6C136840
:10158000506819780478507A137A044201EA03010A
:101590001BD0937A03F0030309B143F0040343F033
:1015A00008039910013B91720D2B0BD8DFE803F073
:1015B00021071B070A152121150A071B0721D368DC
:1015C000013BD3605DF8044B7047937A03F003034B
:1015D0000029E6D043F00403E3E7D3685DF8044B49
:1015E000023BD3607047D3685DF8044B0233D3608D
:1015F0007047D3685DF8044B0133D360704700BF78
:10160000D4100020214B10B4DA6C1368506819789C
:101610000478507A137A044201EA03011BD0937ACA
:1016200003F0030309B143F0040343F008039910E6
:10163000013B91720D2B0BD8DFE803F021071B074C
:101640000A152121150A071B0721D368013BD36026
:101650005DF8044B7047937A03F003030029E6D04A
:1016600043F00403E3E7D3685DF8044B023BD36027
:101670007047D3685DF8044B0233D3607047D3687A
:101680005DF8044B0133D360704700BFD4100020D5
:10169000214B10B41A6D1368506819780478507A89
:1016A000137A044201EA03011BD0937A03F0030387
:1016B00009B143F0040343F008039910013B917210
:1016C0000D2B0BD8DFE803F021071B070A1521219A
:1016D000150A071B0721D368013BD3605DF8044B53
:1016E0007047937A03F003030029E6D043F0040324
:1016F000E3E7D3685DF8044B023BD3607047D368DF
:101700005DF8044B0233D3607047D3685DF8044B37
:101710000133D360704700BFD4100020214B10B4B8
:101720005A6D1368506819780478507A137A044215
:1017300001EA03011BD0937A03F0030309B143F0DC
:10174000040343F008039910013B91720D2B0BD851
:10175000DFE803F021071B070A152121150A071BE3
:101760000721D368013BD3605DF8044B7047937A3F
:1017700003F003030029E6D043F00403E3E7D36852
:101780005DF8044B023BD3607047D3685DF8044BAF
:101790000233D3607047D3685DF8044B0133D360E4
:1017A000704700BFD4100020214B10B49A6D13680D
:1017B000506819780478507A137A044201EA0301D8
:1017C0001BD0937A03F0030309B143F0040343F001
:1017D00008039910013B91720D2B0BD8DFE803F041
:1017E00021071B070A152121150A071B0721D368AA
:1017F000013BD3605DF8044B7047937A03F0030319
:101800000029E6D043F00403E3E7D3685DF8044B16
:10181000023BD3607047D3685DF8044B0233D3605A
:101820007047D3685DF8044B0133D360704700BF45
:10183000D4100020214B10B4DA6D13685068197869
:101840000478507A137A044201EA03011BD0937A98
:1018500003F0030309B143F0040343F008039910B4
:10186000013B91720D2B0BD8DFE803F021071B071A
:101870000A152121150A071B0721D368013BD360F4
:101880005DF8044B7047937A03F003030029E6D018
:1018900043F00403E3E7D3685DF8044B023BD360F5
:1018A0007047D3685DF8044B0233D3607047D36848
:1018B0005DF8044B0133D360704700BFD4100020A3
:1018C000214B10B41A6E1368506819780478507A56
:1018D000137A044201EA03011BD0937A03F0030355
:1018E00009B143F0040343F008039910013B9172DE
:1018F0000D2B0BD8DFE803F021071B070A15212168
:10190000150A071B0721D368013BD3605DF8044B20
:101910007047937A03F003030029E6D043F00403F1
:10192000E3E7D3685DF8044B023BD3607047D368AC
:101930005DF8044B0233D3607047D3685DF8044B05
:101940000133D360704700BFD4100020214B10B486
:101950005A6E1368506819780478507A137A0442E2
:1019600001EA03011BD0937A03F0030309B143F0AA
:10197000040343F008039910013B91720D2B0BD81F
:10198000DFE803F021071B070A152121150A071BB1
:101990000721D368013BD3605DF8044B7047937A0D
:1019A00003F003030029E6D043F00403E3E7D36820
:1019B0005DF8044B023BD3607047D3685DF8044B7D
:1019C0000233D3607047D3685DF8044B0133D360B2
:1019D000704700BFD4100020214B10B49A6E1368DA
:1019E000506819780478507A137A044201EA0301A6
:1019F0001BD0937A03F0030309B143F0040343F0CF
:101A000008039910013B91720D2B0BD8DFE803F00E
:101A100021071B070A152121150A071B0721D36877
:101A2000013BD3605DF8044B7047937A03F00303E6
:101A30000029E6D043F00403E3E7D3685DF8044BE4
:101A4000023BD3607047D3685DF8044B0233D36028
:101A50007047D3685DF8044B0133D360704700BF13
:101A6000D4100020214B10B4DA6E13685068197836
:101A70000478507A137A044201EA03011BD0937A66
:101A800003F0030309B143F0040343F00803991082
:101A9000013B91720D2B0BD8DFE803F021071B07E8
:101AA0000A152121150A071B0721D368013BD360C2
:101AB0005DF8044B7047937A03F003030029E6D0E6
:101AC00043F00403E3E7D3685DF8044B023BD360C3
:101AD0007047D3685DF8044B0233D3607047D36816
:101AE0005DF8044B0133D360704700BFD410002071
:101AF00070B5044608460D461AF0C2FE2368024639
:101B0000294620465B68BDE87040184738B5044652
:101B100008460D461AF0B4FE2368024629465B6863
:101B2000204698470546204616F002FD284438BD59
:101B300038B5054616F062FD0446284616F0F8FC56
:101B4000204438BD38B5C9B2054616F061FD0446DB
:101B5000284616F0EDFC204438BD00BF10B40368E1
:101B600041681A780C78417A037A0C4202EA03023F
:101B70001BD0837A03F003030AB143F0040343F05C
:101B800008039A10013B82720D2B0BD8DFE803F09B
:101B900021071B070A152121150A071B0721C36806
:101BA000013BC3605DF8044B7047837A03F0030385
:101BB000002AE6D043F00403E3E7C3685DF8044B72
:101BC000023BC3607047C3685DF8044B0233C360D7
:101BD0007047C3685DF8044B0133C360704700BFB2
:101BE00008B5034BD3F8C400FFF7B8FF08BD00BF2A
:101BF000D410002008B5034BD3F8C000FFF7AEFFA8
:101C000008BD00BFD410002008B5034BD3F8BC00BA
:101C1000FFF7A4FF08BD00BFD410002008B5034B98
:101C2000D3F8B800FFF79AFF08BD00BFD41000201A
:101C300008B5034BD3F8B400FFF790FF08BD00BF11
:101C4000D410002008B5034BD3F8B000FFF786FF8F
:101C500008BD00BFD410002008B5034BD3F8AC007A
:101C6000FFF77CFF08BD00BFD410002008B5034B70
:101C7000D3F8A800FFF772FF08BD00BFD410002002
:101C800008B5034BD3F8A400FFF768FF08BD00BFF9
:101C9000D410002008B5034BD3F8A000FFF75EFF77
:101CA00008BD00BFD410002008B5034BD3F89C003A
:101CB000FFF754FF08BD00BFD410002008B5034B48
:101CC000D3F89800FFF74AFF08BD00BFD4100020EA
:101CD00008B5034BD3F89400FFF740FF08BD00BFE1
:101CE000D410002008B5034BD3F89000FFF736FF5F
:101CF00008BD00BFD410002008B5034BD3F88C00FA
:101D0000FFF72CFF08BD00BFD410002008B5034B1F
:101D1000D3F88800FFF722FF08BD00BFD4100020D1
:101D200008B5034BD3F88400FFF718FF08BD00BFC8
:101D3000D410002008B5034BD3F88000FFF70EFF46
:101D400008BD00BFD410002008B5024BD86FFFF7C4
:101D500005FF08BDD410002008B5024B986FFFF7AF
:101D6000FDFE08BDD410002008B5024B586FFFF7E8
:101D7000F5FE08BDD410002008B5024B186FFFF720
:101D8000EDFE08BDD410002008B50B463B2800F23C
:101D9000C682DFE810F0BB02B202A902A0029702DD
:101DA0008E0285027C0273026A02610258024F02AF
:101DB00046023D0234022B022202190210020702DF
:101DC000AE01A5019C0193018A01810178016F0197
:101DD00066015D0154014A01400136012C012201D6
:101DE00018010E010401FA00F000E600DC00D20048
:101DF000C800BE00B400AA00A00096008C008200BB
:101E000078006E0064005A00500046003C00BD4A55
:101E1000BD49C2F8EC303B20042214F01DFA012029
:101E200008BDB84AB949C2F8E8303A20042214F093
:101E300013FA012008BDB34AB549C2F8E43039208D
:101E4000042214F009FA012008BDAE4AB149C2F8D3
:101E5000E0303820042214F0FFF9012008BDA94A1F
:101E6000AD49C2F8DC303720042214F0F5F9012026
:101E700008BDA44AA949C2F8D8303620042214F07B
:101E8000EBF9012008BD9F4AA549C2F8D43035209E
:101E9000042214F0E1F9012008BD9A4AA149C2F8D0
:101EA000D0303420042214F0D7F9012008BD954A1F
:101EB0009D49C2F8CC303320042214F0CDF9012022
:101EC00008BD904A9949C2F8C8303220042214F063
:101ED000C3F9012008BD8B4A9549C2F8C4303120AE
:101EE000042214F0B9F9012008BD864A9149C2F8CC
:101EF000C0303020042214F0AFF9012008BD814A1F
:101F00008D49C2F8BC302F20042214F0A5F901201D
:101F100008BD7C4A8949C2F8B8302E20042214F04A
:101F20009BF9012008BD774A8549C2F8B4302D20BD
:101F3000042214F091F9012008BD724A8149C2F8C7
:101F4000B0302C20042214F087F9012008BD6D4A1E
:101F50007D49C2F8AC302B20042214F07DF9012019
:101F600008BD684A7949C2F8A8302A20042214F032
:101F700073F9012008BD634A7549C2F8A4302920CD
:101F8000042214F069F9012008BD5E4A7149C2F8C3
:101F9000A0302820042214F05FF9012008BD594A1E
:101FA0006D49C2F89C302720042214F055F9012015
:101FB00008BD544A6949C2F898302620042214F01A
:101FC0004BF9012008BD4F4A6549C2F894302520DD
:101FD000042214F041F9012008BD4A4A6149C2F8BF
:101FE00090302420042214F037F9012008BD454A1E
:101FF0005D49C2F88C302320042214F02DF9012011
:1020000008BD404A5949C2F888302220042214F001
:1020100023F9012008BD3B4A5549C2F884302120EC
:10202000042214F019F9012008BD364A5149C2F8BA
:1020300080302020042214F00FF9012008BD314A1D
:102040004D49D3671F20042214F006F9012008BD72
:102050002C4A4A4993671E20042214F0FDF80120FF
:1020600008BD284A464953671D20042214F0F4F89D
:10207000012008BD234A434913671C20042214F0A1
:10208000EBF8012008BD1F4A3F49D3661B200422FC
:1020900014F0E2F8012008BD1A4A3C4993661A2060
:1020A000042214F0D9F8012008BD164A38495366B5
:1020B0001920042214F0D0F8012008BD114A354936
:1020C00013661820042214F0C7F8012008BD0D4A39
:1020D0003149D3651720042214F0BEF8012008BD51
:1020E000084A2E4993651620042214F0B5F8012001
:1020F00008BD044A2A4953651520042214F0ACF89F
:10210000012008BDD4100020150B0000890A000032
:10211000FD09000071090000E508000059080000F1
:10212000CD07000041070000B506000029060000A9
:10213000E11B0000F51B0000091C00001D1C000035
:10214000311C0000451C0000591C00006D1C0000E3
:10215000811C0000951C0000A91C0000BD1C000093
:10216000D11C0000E51C0000F91C00000D1D000042
:10217000211D0000351D0000491D0000591D0000F3
:10218000691D0000791D0000651A0000D9190000C2
:102190004D190000C118000035180000A9170000F3
:1021A0001D1700005F4A604913651420042214F0D3
:1021B00053F8012008BD5B4A5C49D3641320042214
:1021C00014F04AF8012008BD564A59499364122078
:1021D000042214F041F8012008BD524A55495364C5
:1021E0001120042214F038F8012008BD4D4A52494C
:1021F00013641020042214F02FF8012008BD494A6E
:102200004E49D3630F20042214F026F8012008BDA4
:10221000444A4B4993630E20042214F01DF8012018
:1022200008BD404A474953630D20042214F014F8B6
:10223000012008BD3B4A444913630C20042214F0DA
:102240000BF8012008BD374A4049D3620B20042215
:1022500014F002F8012008BD324A3D4993620A2079
:10226000042213F0F9FF012008BD2E4A39495362B8
:102270000920042213F0F0FF012008BD294A364945
:1022800013620820042213F0E7FF012008BD254A4D
:102290003249D3610720042213F0DEFF012008BD7C
:1022A000204A2F4993610620042213F0D5FF012014
:1022B00008BD1C4A2B4953610520042213F0CCFFB2
:1022C000012008BD174A284913610422104613F063
:1022D000C3FF012008BD134A2449D3600320042210
:1022E00013F0BAFF012008BD0E4A21499360022075
:1022F000042213F0B1FF012008BD0A4A1D495360B2
:102300000120042213F0A8FF012008BD054A1A4944
:1023100013600020042213F09FFF012008BD00205D
:1023200008BD00BFD4100020911600000516000063
:1023300079150000ED14000061140000D5130000B1
:1023400049130000BD12000031120000A511000069
:10235000191100008D10000001100000750F000021
:10236000E90E00005D0E0000D10D0000450D0000DB
:10237000B90C00002D0C0000A10B0000024B1B68E3
:10238000DB6F1B6B1B697047BC67FF1F2DE9F041BA
:102390001D4B1D68854282B016468CB219D005B21D
:1023A000C4F590730022294600921BB20A221748F6
:1023B0000DF048F8164B15481B880093C4F595722C
:1023C000A31B1BB212B229460DF03CF802B0BDE8C7
:1023D000F081C4F595772DB23FB24FF478483B4673
:1023E0002946CDF800800A2208480DF02BF8A31BDF
:1023F0003A461BB2CDF80080294604480DF022F879
:1024000002B0BDE8F08100BFF007FF1F80A9FF1FE9
:102410002C08FF1F2DE9F043364F374E3868374DF3
:1024200083B018F035FF41EC100B16F011FF0022BD
:10243000334B51EC100B18F0A1FF19F077FAA846B6
:102440003060002431E058F8240018F021FF41ECFE
:10245000100B16F0FDFE0022294B51EC100B18F06A
:102460008DFF19F063FA00EBC000264A3168DFF8EF
:10247000A0E04001B0FBF1F1B1F5907F8ABF4FF4CD
:1024800090711160116055F824203B6802EBC20284
:1024900052012046B2FBF3F31A46CEF80030FFF7A4
:1024A00075FF0134B4F5D27F20D055F82430012BCC
:1024B000C9D800230FFA84F9009349464FF490736A
:1024C0000A2211480CF0BEFF104B1B68A342E8D152
:1024D0004FF47843009349464FF490730A220A4818
:1024E00001340CF0AFFFB4F5D27FDED103B0BDE80C
:1024F000F08300BFC067FF1FFCACFF1FB01AFF1FB7
:10250000000059400C24FF1F80A9FF1FF007FF1F88
:1025100054EDFF1F10B50F4B1C68844282B00B4670
:10252000C1F595720AD045F21F0401B212B21BB276
:10253000009409480CF086FF02B010BD4FF47840BB
:10254000009021B212B21BB203480CF07BFF02B024
:1025500010BD00BFF007FF1F80A9FF1FF8B50B4F8C
:102560000B4E0C4D002457F82420336802EBC202B6
:1025700052012046B2FBF3F3013419462B60FFF7FA
:10258000C9FFB4F5D27FEED1F8BD00BFB01AFF1F6E
:10259000C067FF1F0C24FF1F00B5074883B0B0F9C8
:1025A0002020B0F91E3000920022019211460DF059
:1025B000EDF903B05DF804FB80A9FF1FDFF878C0D8
:1025C00000232DE9F0411A4FCCF800301A4647F8A5
:1025D00023200133B3F5007FF9D1164E4FF0000EE2
:1025E00001F1FF38002921DDB0F5805F1EDA0346D6
:1025F00008EB0005002202E0B3F5805F06D056F834
:102600002340AB42224403F10103F5D10844B0F565
:10261000805F47F82E2004DA0EF1010EBEF5007F30
:10262000E0D10023CCF80030BDE8F0810022EDE7D6
:10263000B01AFF1F5424FF1F0C24FF1F0023304833
:10264000194640F823100133B3F5805F4FF00002C4
:10265000F7D12C4B2C482D49F0B52D4D2D4C1A603F
:102660002D4B2A70226002600A602C4F2C4E2D4D9B
:102670002D4C2E482E491A602E4B3A6032602A604B
:10268000226002600A602C4F2C4E2D4D2D4C2E489E
:102690002E491A602E4B3A6032602A602260026036
:1026A0000A602C4F2C4E2D4D2D4C2E482E491A6071
:1026B0003C23236003603A6032602A600B602B4F3A
:1026C0002B4E2C4D2C4C2D482D493B6033602B60FC
:1026D00023600360DFF8C8E00B602A4F2A4E2B4DC1
:1026E0002B4C2C482C492D4B3A704FF0B40CCEF8A3
:1026F00000C032702A70227002700A701A70F0BD29
:102700005424FF1F5CEDFF1F28EDFF1F2CEDFF1F62
:102710009067FF1F7CA9FF1F3CEDFF1F30EDFF1FDF
:1027200034EDFF1F38EDFF1F40EDFF1F44EDFF1F8D
:1027300048EDFF1F8423FF1FC823FF1FCC23FF1F6B
:102740008023FF1F8823FF1F8C23FF1F9023FF1F61
:10275000A423FF1F9423FF1F9823FF1FA023FF1F05
:102760007008FF1F6C08FF1F8008FF1FB008FF1FC5
:10277000AC08FF1FA808FF1FA408FF1FA008FF1F29
:102780009C08FF1FC867FF1F9C23FF1FCC17FF1F5C
:102790007C23FF1FA823FF1F3417FF1F70A9FF1FF3
:1027A000C008FF1FF0B52949294F2A4A2A4E2B4D50
:1027B0002B4C2C48DFF820C1DFF820E100230B6010
:1027C0003B602949294F1360294A33602B602360FD
:1027D00003600B603B60274E274D284C2848294951
:1027E000294F1360294A33602B60236003600B601C
:1027F0003B60274E274D284C28482949294F137004
:102800003C2202600A603A6033602B602370264EDF
:10281000264D274C27482849284F32602A602260DD
:1028200002600A603A60264E264D274C2748284908
:10283000284ACCF80030B427CEF8003037602B702F
:10284000237003700B701370F0BD00BF30EDFF1FDD
:1028500034EDFF1F44EDFF1F38EDFF1F3CEDFF1F60
:1028600040EDFF1F48EDFF1FC823FF1FCC23FF1FB4
:102870008C23FF1F8023FF1F8423FF1F8823FF1F3C
:102880009023FF1F9423FF1F9823FF1F9C23FF1FEC
:10289000A023FF1FA423FF1FC867FF1F7008FF1F8F
:1028A0006C08FF1F8008FF1FB008FF1FAC08FF1F48
:1028B000A808FF1FA408FF1FA008FF1F9C08FF1FF8
:1028C000C008FF1FCC17FF1F7C23FF1FA823FF1F7B
:1028D0003417FF1F70A9FF1F28EDFF1F2CEDFF1FEE
:1028E0002B4B2C4AD3ED004A2B4BD2ED002A2B4A1E
:1028F00093ED006A92ED007A294B2A49D3ED006AE4
:10290000294B2A4A93ED002A294B64EEA47A26EE3D
:10291000064A22EEE73A66EE075AA4EE073AB0EE10
:10292000651AA4EEE21A66EEA61A63EE663A32EE75
:10293000C75A34EE677A67EEC67AE1EE813AE4EE82
:10294000847A36EE646A22EE474A27EE667A65EEAE
:10295000666AD4EEA25AA1EE867AE6EE026AA1EE8B
:10296000854AF0EE634AE7EE824A34EE036A77EE78
:10297000277A75EEA66A86EE277AC4EEA75A86EE07
:10298000A76AC1ED005A82ED006A83ED007A7047B4
:1029900068EDFF1F2824FF1F64EDFF1F2C24FF1F7D
:1029A00060EDFF1FC817FF1F2424FF1F4CEDFF1F02
:1029B0002408FF1F38B51B4C237C012B2CD972B681
:1029C000184DE36862B61849184A086813609842BF
:1029D00021D0002B164816DB0068B3EB800F05DD15
:1029E0000023136072B6E36062B61368114C0B608B
:1029F000002B1A46B8BFDA1C921022603220BDE8C4
:102A0000384013F041BF03689B00136072B6EB605F
:102A100062B61368E0E738BD72B62046FFF79EF84D
:102A2000CEE700BFB417FF1FD008FF1F3817FF1FE6
:102A3000B023FF1F74EDFF1F2DE9F04785B28CB264
:102A400084B02E4E04F1210305F114024FF4784EA8
:102A500007B212B218B2A5F11403CDF80CE001923E
:102A600002900AB20090394630461BB2A5F1020925
:102A70000EF0B6FC4FF6FF780FFA89F904F109025F
:102A80000E23494630468DE8080112B205230CF0AA
:102A90007DFF04F1FF3A0523494604F11A02A5F12E
:102AA0001509223424B2304600930FFA8AFA0FFA3D
:102AB00089F9CDF8048012B215350CF067FF2DB2FC
:102AC00052464B46394630468DE8100111F03EF82B
:102AD000524639462B4630460094CDF8048011F01A
:102AE00035F800944B4622462946CDF804803046FE
:102AF00011F02CF804B0BDE8F08700BF80A9FF1FDB
:102B00002DE9F0438DB2264E05F1020885B04CF256
:102B100018690FFA88F8052384B242468DE8080246
:102B20000F46042301B230460CF030FFA31D05F11F
:102B300008001BB23FB200B2EA1CA11C009701932F
:102B40000290CDF80C90304612B209B204F1080799
:102B50000EF046FC3FB24FF0000E6A1C0723123401
:102B600006358DE808403946304624B22DB212B2FF
:102B70000D230CF00BFF23464246394630468DE8C4
:102B8000200210F0E3FFCDF8008023462A463946A4
:102B9000CDF80490304610F0D9FF05B0BDE8F083C1
:102BA00080A9FF1F2DE9F04F8DB2354E05F1020AC5
:102BB00085B04CF218670FFA8AFA052384B288466A
:102BC000524601B28DE88800304604230CF0DEFE48
:102BD000A31D05F1080205F1030E0FFA88F01BB2E0
:102BE00012B2A11C00900193029230460FFA8EF2AD
:102BF000039709B204F1080B0EF0F2FB0FFA8BFBFE
:102C00004FF0000E6A1C072304F10D0805F10409BA
:102C10008DE808400FFA88F80FFA89F959463046CE
:102C200012B20D2306350CF0B1FE2DB252465946B4
:102C3000434630460197CDF80090123410F086FFDD
:102C400024B2594643462A463046CDF800900197B3
:102C500010F07CFF5246234641463046CDF80090A6
:102C6000019710F073FFCDF8009023462A464146A5
:102C70000197304610F06AFF05B0BDE8F08F00BF45
:102C800080A9FF1F2DE9F04F8DB2364E05F10209E4
:102C900085B00FFA89F94CF21868052384B28DE8E3
:102CA00008014A460F46042301B230460CF06EFE7E
:102CB000A31D05F108001BB23FB200B2EA1CA11C23
:102CC0000097CDF80C800193029012B2304609B201
:102CD0000EF086FB04F1080B002707230FFA8BFB8D
:102CE0008DE888006A1C04F10D0705F104083FB265
:102CF0000FFA88F840F2FF7A5946304612B20D2397
:102D000006350CF043FE2DB24A4659463B46304646
:102D1000CDF80080CDF804A0123410F017FF24B2D3
:102D200059463B462A463046CDF80080CDF804A0EF
:102D300010F00CFF4A46234639463046CDF8008055
:102D4000CDF804A010F002FFCDF8008023462A46FB
:102D50003946CDF804A0304610F0F8FE05B0BDE8C5
:102D6000F08F00BF80A9FF1F2DE9F04F504B1B785B
:102D700083B0002B48D1002A00F08F80002A40DD6C
:102D80008FB285B207F10A0B96B20FFA80FA0CB235
:102D90000FFA8BFB07F1030905F105080FFA88F814
:102DA00022460FFA89F95346514642480196CDF81A
:102DB00000B0073710F0CAFE3FB2224643465146E4
:102DC0003C480196CDF800906C1F10F0BFFE24B275
:102DD0005A465146434637480097019610F0B6FED2
:102DE00023463A4641463348CDF80090019610F00C
:102DF000ADFE009723464A46414601962D4810F005
:102E0000A5FE03B0BDE8F08F002AB7D18EB206F15F
:102E10000A0A0CB20FFA8AFA0FFA80F940F2FF7828
:102E200085B26F1D06F1030B3FB20FFA8BFB2246F2
:102E30004B464946CDF800A0CDF804801D48073622
:102E400010F084FE36B222463B464946CDF8048057
:102E5000CDF800B01748053D10F078FE2DB252466F
:102E600049463B468DE84001124810F06FFE2B4664
:102E700032463946CDF800B0CDF804800D4810F048
:102E800065FE00962B465A463946CDF8048009481F
:102E900010F05CFE03B0BDE8F08F8EB206F10A0AB6
:102EA0000CB20FFA8AFA0FFA80F947F6EF38B7E753
:102EB000AC1AFF1F80A9FF1F2DE9F04F3A4B85B2D6
:102EC0001B7805F10A0785B00A4604B23FB20FFA33
:102ED00081FA002B64D14FF4404692B23B46214622
:102EE0000292CDF800A052460196304810F02EFE16
:102EF000029B019603F10A080FFA88F83B46424606
:102F00002146CDF80080294810F020FE0299019654
:102F100001F105090FFA89F9EB1C05F1010B0435E4
:102F20001BB2524621460FFA8BFB2DB2CDF8009012
:102F30001E48039310F00AFE2B4659465246CDF820
:102F400000900196194810F001FE0399CDF8008019
:102F500023464A460196154810F0F8FD5B464A465E
:102F60002946CDF800800196104810F0EFFD029C34
:102F70000196A01C00B252463B46394600900B48D1
:102F800010F0E4FD04F108031BB28DE8480042464E
:102F90003B463946054810F0D9FD05B0BDE8F08F35
:102FA00040F2FF7699E700BFB467FF1F80A9FF1FBB
:102FB0002DE9F0478DB282B0374E05F1040905F1D5
:102FC000110197B20FFA89F903B209B284B24A46E5
:102FD000009130461946019710F0B8FD631C05F1C9
:102FE00010001BB200B219464A46009001973046C5
:102FF00010F0ACFD05F10E0804F108030FFA88F893
:103000001BB219464A46CDF800803046019710F0B1
:103010009DFD04F109031BB2CDF800804A46194614
:103020003046019710F092FD04F1020904F1040A00
:1030300005F10D020FFA89F90FFA8AFA12B2494620
:10304000534600923046019710F080FD53464946A2
:10305000CDF8008042463046019710F077FD04F12C
:10306000050805F10C0207340FFA88F824B212B2F1
:103070002346414600923046019710F067FD05F166
:103080000B0212B2234641468DE88400304610F010
:103090005DFD02B0BDE8F08780A9FF1F10B511F0FB
:1030A000E3FF092827DC324C303030236070237076
:1030B00011F0EAFF092831DC30303023E070A370D2
:1030C00011F0A2FF09283BDC3030302360712371FE
:1030D00011F0AAFF092845DD264BC21783FB001318
:1030E000C2EBA30303EB8302A0EB4200303030338A
:1030F000E071A37110BD1F4B1D4C83FB0032C31741
:10310000C3EBA20303EB8302A0EB42003030303369
:103110006070237011F0B8FF0928CDDD154BC21780
:1031200083FB0013C2EBA30303EB8302A0EB42007B
:1031300030303033E070A37011F066FF0928C3DD32
:103140000C4BC21783FB0013C2EBA30303EB8302F8
:10315000A0EB4200303030336071237111F064FF16
:103160000928B9DC30303023E071A37110BD00BFF5
:10317000E007FF1F676666662DE9F0432F4E0023C8
:1031800089B00746336008E033686846013333602E
:1031900008F09AFD684608F08BFD68460122394622
:1031A00008F08EFF684608F09DFD0028ECD13846F7
:1031B00008F0E0FF684608F07BFD3568B5F1FE6F6A
:1031C00039D94FF0FF3015F01BFE102380E828009E
:1031D00000F108096C1E4DB14D462846013C002106
:1031E00015F094FC631C05F11005F6D13368DFF887
:1031F0005080002BC8F800901ADD002401223946C7
:10320000684608F05DFFD8F80030684603EB041507
:1032100008F050FD0146284615F02CFD684608F0E0
:1032200053FD684608F044FD33680134A342E5DCF1
:1032300009B0BDE8F08328010830C4E700ADFF1FE6
:10324000F4EDFF1F08B5C8224FF4DC71112015F012
:1032500079FBDC2013F018FBC8224FF4DC7111203D
:1032600015F070FBDC2013F00FFB1120C8224FF487
:10327000DC7115F067FBDC20BDE8084013F004BBEF
:1032800070B594B00CA801234F4A504908F088FE4D
:103290000CA808F027FD20B90CA808F009FD14B00F
:1032A00070BD68464A494B4E15F030FC0CA808F03A
:1032B0006BFC90B10CA808F085FCC3B2392B194601
:1032C000684606D80A2B13D015F016FD029B202B5A
:1032D000ECD9FFF7B7FFFFF7B1F90CA808F0F4FC41
:1032E000684615F0D3FB0CA808F0E2FC14B070BDE2
:1032F0002C21684615F040FD05466C1C03464FF036
:103300000002694604A8334CE3D015F045FD6A1C61
:10331000029B694608A815F03FFD04A815F060FD62
:10332000054608A815F05CFD294946F825006846C1
:1033300015F0A0FC08A815F0A9FB04A815F0A6FB41
:1033400040F6FF739D42B1D1234B206818600022E4
:103350001346226054F823100133B3F5805F0A440A
:10336000F8D140BB1D4B18601D4B1E4A18681168F0
:103370001D4CFFF723F91D48002323602646054610
:1033800050F823102268914284BF55F82320326000
:103390000133B3F5007FF3D12368012B01D9FFF787
:1033A00039F8236863B94FF47A7013F06DFA0CA8FA
:1033B00008F08AFC91E7094BB2FBF0F21A60D3E700
:1033C000FFF7CCF8EFE700BFE007FF1F180E002063
:1033D00000AD04005424FF1F5CEDFF1FA01AFF1F67
:1033E0000424FF1F6008FF1FC067FF1FB01AFF1FE4
:1033F00030B595B00CA80123324A334908F0D0FD0E
:103400000CA808F06FFC20B90CA808F051FC15B00E
:1034100030BD68462D492E4D15F078FB0CA808F0FC
:10342000B3FB80B10CA808F0CDFBC3B2392B194611
:10343000684606D80A2B11D015F05EFC029B202BA3
:10344000ECD9FFF7FFFE0CA808F03EFC684615F02B
:103450001DFB0CA808F02CFC15B030BD2C216846D3
:1034600015F08AFC0446B4F1FF3F03464FF000021A
:10347000694604A8E5D015F08FFC621C029B6946E2
:1034800008A815F089FC04A815F0AAFC044608A8B1
:1034900015F0A6FC0D4945F82400684615F0EAFB36
:1034A00008A815F0F3FA04A815F0F0FA40F6FF7337
:1034B0009C42B3D14FF47A7013F0E6F90CA808F0EF
:1034C00003FCC0E7B8220400180E002000AD040081
:1034D0009468FF1F2DE9F0412DED028B98B008A8EC
:1034E00008F0D8FBAB49AC4808F0CEFD002840F00E
:1034F0001E81AA49A84808F0C7FD002840F0938023
:10350000A749A54808F0C0FD50B908A808F0DCFBA1
:1035100008A808F0CDFB18B0BDEC028BBDE8F08127
:1035200010AD01239E4A9C49284608F039FD9DF8BC
:103530004410129A9DF84C308DF824100A928DF8A0
:103540002C3013A90DF12D030DF13A0211F8010FE2
:1035500003F8010B9342F9D1179B0F93284608F00B
:10356000A7FB08A808F0BEFB0028CED068468D490E
:10357000DFED8D8ADFF834826C4615F0C7FA00263D
:1035800008E015F0B9FB029B202B00F28081322E5F
:1035900000F05F8108A808F0F7FA002800F05C81CD
:1035A00008A808F00FFBC3B2392B1946204600F2D9
:1035B0006E810A2BE5D12E21204615F0DDFB074652
:1035C000B7F1FF3F0346214604A84FF0000200F088
:1035D0005E8115F0E1FB7A1C029B2146284615F01E
:1035E000DBFB04A815F0FCFB08EE100A284615F0DA
:1035F000F7FB07EE900AB8EEE77AB8EEC88AC7EE96
:10360000287A08EB860367492046013677EE887AE8
:10361000C3ED007A15F02EFB284615F037FA04A802
:1036200015F034FAB3E710AD01235C4A5A49284635
:1036300008F0B6FC9DF84410129A9DF84C308DF8B5
:1036400024100A928DF82C3013A90DF12D030DF1E1
:103650003A0211F8010F03F8010B9342F9D1179BBD
:103660000F93284608F024FB08A808F03BFB00282D
:103670003FF446AF68464B49DFED4B8ADFF83081B7
:103680006C4615F043FA002608E015F035FB029B66
:10369000202B00F20281322E00F0E58008A808F00D
:1036A00073FA002800F0E28008A808F08BFAC3B291
:1036B000392B1946204600F2F0800A2BE5D12E2145
:1036C000204615F059FB0746B7F1FF3F0346214658
:1036D00004A84FF0000200F0E08015F05DFB7A1CBA
:1036E000029B2146284615F057FB04A815F078FBED
:1036F00008EE100A284615F073FB07EE900AB8EEA4
:10370000E77AB8EEC88AC7EE287A08EB860325491F
:103710002046013677EE887AC3ED007A15F0AAFAD2
:10372000284615F0B3F904A815F0B0F9B3E710ADC9
:103730000123184A1849284608F032FC9DF8441025
:10374000129A9DF84C308DF824100A928DF82C3086
:1037500013A90DF12D030DF13A0211F8010F03F831
:10376000010B9342F9D1179B0F93284608F0A0FA5A
:1037700008A808F0B7FA00283FF4BBAE684609492C
:10378000DFED098ADFF82C806C4615F0BFF90026C2
:1037900019E000BF0008FF1F180E00203808FF1FA7
:1037A0004C08FF1F00AD0400286B6E4ECC67FF1F56
:1037B000B022FF1F34ACFF1F15F09EFA029B202B96
:1037C00068D8322E59D008A808F0DEF9002857D062
:1037D00008A808F0F7F9C3B2392B1946204659D882
:1037E0000A2BE9D12E21204615F0C6FA0746B7F17B
:1037F000FF3F0346214604A84FF000024AD015F0CF
:10380000CBFA7A1C029B2146284615F0C5FA04A87B
:1038100015F0E6FA08EE100A284615F0E1FA07EE70
:10382000900AB8EEE77AB8EEC88AC7EE287A08EBB5
:1038300086031B492046013677EE887AC3ED007A6D
:1038400015F018FA284615F021F904A815F01EF90C
:10385000B7E708A808F038FA08A808F035FA2046B3
:1038600015F014F951E608A808F02EFA08A808F097
:103870002BFA204615F00AF942E608A808F024FAC7
:1038800008A808F021FA204615F000F931E6FFF704
:10389000D9FCE1E7FFF7D6FCF2E7FFF7D3FCE5E759
:1038A00000AD040008B564224FF45C71112015F0DE
:1038B00049F8652012F0E8FF642240F21741112018
:1038C00015F040F8652012F0DFFF1120642240F26D
:1038D000275115F037F86520BDE8084012F0D4BF35
:1038E00008B5C82240F22751112015F02BF8C92045
:1038F00012F0CAFF1120DC2240F2174115F022F825
:10390000DD20BDE8084012F0BFBF00BF70B594B025
:10391000FFF7C4FB394B3A4818603A4A3A490CA8B9
:10392000132308F03DFB0CA808F0DCF920B90CA823
:1039300008F0BEF914B070BD3449354E08A815F032
:10394000E5F8344A3449354B12681B68096804A805
:1039500001FB02310A2215F01FF904A908A815F08D
:10396000DBF901462E4815F075F904A815F08EF81C
:1039700008A815F08BF82A490CA814F0B3FD0CA880
:1039800014F0D6FD01240A222146684615F0F0F80D
:10399000694604A815F0CEF8224904A815F0C4F928
:1039A0000A2256F82410054608A815F009F908A9B6
:1039B000284615F0B1F90146194815F04BF908A849
:1039C00015F064F804A815F061F8684615F05EF883
:1039D00013490CA814F086FD01340CA814F0A8FDBE
:1039E000B4F5805FCFD1FFF77BFF0CA808F06CF92E
:1039F0000CA808F05DF914B070BD00BF840E002063
:103A0000B5040000E007FF1F180E0020C8220400C4
:103A10005424FF1F7CA9FF1FC408FF1F5CEDFF1F7C
:103A20003C24FF1FCC220400F8B51248124F002599
:103A30003D602C4629462B46064650F823208A42F4
:103A400003D956F82340012521460133B3F5805FA1
:103A5000F3D165B9094B994208D9094C0123237068
:103A6000FFF754FFFEF7EAFD00232370F8BD3C602A
:103A7000F0E700BF5424FF1F0824FF1F8096980022
:103A80009067FF1F70B52B492B4894B008F0FCFAE3
:103A9000002849D1294B2A481860264A26490CA8F3
:103AA000132308F07DFA0CA808F01CF9002836D082
:103AB000244E00240A222146684615F059F869462A
:103AC00004A815F037F8204904A815F02DF90A22AA
:103AD00056F82410054608A815F072F808A92846DB
:103AE00015F01AF90146194815F0B4F808A814F0B1
:103AF000CDFF04A814F0CAFF684614F0C7FF1349AD
:103B00000CA814F0EFFC01340CA814F011FDB4F56E
:103B1000805FCFD1FFF7E4FE0CA808F0D5F80CA821
:103B200008F0C6F814B070BD0249034808F0BAFAAC
:103B3000B0E700BFB8220400180E0020840E002059
:103B4000B50400005424FF1FCC2204003C24FF1FB6
:103B500038B5352444F6B0250121112012F07AFE43
:103B60002B46013BFDD10021112012F073FE2B46A4
:103B7000013BFDD1013CEFD1412443F63835012111
:103B8000112012F067FE2B46013BFDD100211120D0
:103B900012F060FE2B46013BFDD1013CEFD13524F4
:103BA00044F6B0250121112012F054FE2B46013BB2
:103BB000FDD10021112012F04DFE2B46013BFDD11D
:103BC000013CEFD138BD00BF2DE9F04F2DED028B48
:103BD0000A2083B0DA4F12F057FE00243D462046FB
:103BE00011F0E8FF0134042C05F8010BF7D1D54D95
:103BF000204611F0DFFF0134082C05F8010BF7D146
:103C0000DFF8B0934D46204611F0D4FF01340C2C60
:103C100005F8010BF7D1CC4D2E46204611F0CAFF16
:103C20000134102C06F8010BF7D1C84EB2462046DD
:103C300011F0C0FF0134142C0AF8010BF7D1DFF8A2
:103C400078A3D346204611F0B5FF0134182C0BF8A9
:103C5000010BF7D1DFF864B32424D846204611F0D5
:103C6000A9FF0134282C08F8010BF7D19BED008A3D
:103C7000DFEDB77AB4EEE78AF1EE10FA00F3B38124
:103C8000DFEDB47AB4EEE78AF1EE10FA00F1AB8121
:103C9000DFF82CB32924D846204611F08BFF0134DD
:103CA0002D2C08F8010BF7D1DBED007A9FEDAA7AF5
:103CB000F4EEC77AF1EE10FA00F38E819FEDA57A4B
:103CC000F4EEC77AF1EE10FA00F18681B0EE007AD8
:103CD000F0EE086AB0EE676AA8EE076A9F4BA04A4A
:103CE000E8EE267A282082ED006AC3ED007A11F012
:103CF00061FF9C4B002840F07D811870192011F065
:103D000059FF0828984C00F37E812060002800F0BD
:103D100087811F2011F04EFF642300FB0330934A7C
:103D200044F620639842106000F20582DFF894B2F6
:103D30001A24204611F03EFF01341E2C0BF8010B13
:103D4000F7D1DFF884B22024204611F033FF01348C
:103D5000242C0BF8010BF7D1182011F02BFF0228AF
:103D600000F2DD81824B1870D5ED007A002840F01A
:103D700061819FED807A77EEC77AFDEEE77A17EEE4
:103D8000903A63B9D6ED007A9FED7B7A77EEC77AE9
:103D9000FDEEE77A17EE903A002B00F0D78102ACE7
:103DA0004FF0844344F8043D04220C21204611F0D6
:103DB00043FF0A2012F068FD704B0193042210218A
:103DC000204611F039FF0A2012F05EFD6C4B019382
:103DD00020460422142111F02FFF0A2012F054FD76
:103DE000FFF730FA4FF08443644A2B60644B326033
:103DF000CAF80030D7ED007AF5EEC07AF1EE10FA8D
:103E000006D99FED607AF4EEC77AF1EE10FA0BDD79
:103E100002A85D4B40F8043D042200213B6011F0F4
:103E20000BFF0A2012F030FD464BD3ED007AF5EE81
:103E3000C07AF1EE10FA06D99FED527AF4EEC77A05
:103E4000F1EE10FA0CDD02A8504B3E4C40F8043D58
:103E500004221146236011F0EFFE0A2012F014FD37
:103E6000D9ED007AF5EEC07AF1EE10FA06D99FEDA1
:103E7000457AF4EEC77AF1EE10FA0CDD02A8444B55
:103E800040F8043D04220821C9F8003011F0D4FEA6
:103E90000A2012F0F9FC2D2011F08CFE05462E2090
:103EA00011F088FE3B4E00EB05252F20356011F008
:103EB00081FE0446302011F07DFE374B00EB0420DC
:103EC0008542186040F3F9800A2140F6F6723220EC
:103ED00031601A6011F06EFE012840F2008100216D
:103EE000322011F081FE2D4B00221A702C492D4BEF
:103EF0002D4808604FF07C521A60332011F05AFEB2
:103F00000446342011F056FE00EB0420A0F10A0212
:103F100046F29E139A4200F2EE80244B186007EEA0
:103F2000900A1620B8EEE70A12F002FC7F21162054
:103F300012F06AFA1E4B7F221A6003B048E000BFFD
:103F400060EDFF1F64EDFF1F2424FF1F2824FF1FC7
:103F50000000C842CDCCCC3D00009643AC67FF1FAB
:103F60003024FF1FB467FF1F6008FF1FC408FF1F36
:103F700078EDFF1F000000420080254400802544AA
:103F80000080B64400F07F450000D04200007A4433
:103F9000008006459808FF1F2008FF1F3424FF1FDC
:103FA0001408FF1F1808FF1F0000A0403408FF1F5F
:103FB0008C08FF1F68EDFF1F2C24FF1F2808FF1F20
:103FC000D807FF1F7C08FF1F6408FF1F000016436F
:103FD000BDEC028BBDE8F08F1FED047AF0EE477A5E
:103FE0008BED007A72E6F2EE047AB0EE678ACBEDE2
:103FF000007A4DE6012219201A7011F0DBFD082825
:10400000854C7FF782AE082319461920236011F0F2
:10401000EBFD0A2012F038FC206800287FF479AE0E
:10402000012319461920236011F0DEFD0A2012F049
:104030002BFC6EE6012800F097809FED787A77EEF2
:10404000C77AFDEEE77A17EE903A63B9D6ED007ABB
:104050009FED737A77EEC77AFDEEE77A17EE903A26
:10406000002B00F0CA8002AC6E4B44F8043D0422E1
:104070000C21204611F0E0FD0A2012F005FC6A4BED
:10408000019304221021204611F0D6FD0A2012F0DF
:10409000FBFB664B019320460422142111F0CCFD5A
:1040A0000A2012F0F1FBFFF7CDF85E4B5E4A2B6061
:1040B0005E4B3260CAF800309CE6092DDCBF0A2254
:1040C0003260B0F5805FA8BF40F6F6724FF0320064
:1040D000A8BF1A6011F06EFD01283FF600AF544BE7
:1040E000187000283FF402AF5249534B534A5448CA
:1040F00008601A6001E7534C4FF47A7303213320B0
:10410000236011F071FD0A2012F0BEFB21783420EB
:1041100011F06AFD0A2012F0B7FB2068FFE60023C9
:10412000494C19461820237011F05EFD0A2012F048
:10413000ABFB207818E64FF4616324211F20136045
:1041400011F052FD0A2012F09FFBEFE5DAED007A44
:104150009FED3E7A77EEC77AFDEEE77A17EE903A5A
:10416000002B3FF43FAE1AE69FED397A77EEC77A1F
:10417000FDEEE77A17EE903AABB9D6ED007A9FEDF7
:10418000357A77EEC77AFDEEE77A17EE903A53B9B3
:10419000DAED007A9FED307A77EEC77AFDEEE77AB6
:1041A00017EE903A0BB302AC2C4B44F8043D0422BA
:1041B0000C21204611F040FD0A2012F065FB284B2F
:1041C000019304221021204611F036FD0A2012F03E
:1041D0005BFB244B019320460422142111F02CFD9B
:1041E0000A2012F051FBFFF72DF81C4B1C4A2B60E4
:1041F0001C4B3260CAF80030FCE5DAED007A9FED26
:104200001A7A77EEC77AFDEEE77A17EE903A002B2E
:104210003FF44BAF27E700BF6008FF1F00003A43A1
:104220000040184400003A43004018440000DC44B9
:104230003424FF1F1408FF1F1808FF1FCDCCCC3EED
:104240000000E0403408FF1F78EDFF1F0080B644F7
:104250000000F4420000AC430000B0440000F4420F
:104260000000AC430000B0440000DC44174A184B87
:1042700092ED007AD3ED007A16491748B8EE477AE6
:10428000F8EE677A0022C7EE276AF1EE666A51F807
:10429000223007EE903A50F8223007EE103AF8EE4E
:1042A000677AB8EE477AE6EE877AF5EEC07AF1EEF5
:1042B00010FA56BFFCEEE77A002317EE903A41F869
:1042C00022300132B2F5805FE1D170475CEDFF1F13
:1042D000C408FF1F5424FF1F9468FF1F40F63C735F
:1042E0009842F0B540DC63285FDC3249324A002353
:1042F00051F8230042F823000133C92BF8D12F4E87
:1043000000214C1C52F8210052F824C02A4D8B1C6D
:1043100001F1030E0F1D52F82EE052F8233052F82F
:10432000277000EB800000EB8C00384400EB4E005F
:1043300003EB43030344A6FB0303DB08C52C42F84D
:1043400021302146DDD1D5F81033C5F81433D5F826
:104350001033C5F81833D5F81033C5F81C33D5F829
:104360001033C5F82033F0BD184640F63D7440F6D2
:10437000D8661049104A00239D190E4F51F8255058
:1043800042F823500133642B0B4DF5D157F8203000
:10439000C5F89031652351F8240042F82300013319
:1043A000C92B04F10104F6D1A9E7A0F16406441C6D
:1043B000DFE700BF5424FF1F6C64FF1F89888888D3
:1043C0006328F0B52FDC00F10A01A0F10A032D4C9F
:1043D00054F8235054F8212000262A448B424FEAF7
:1043E000520E31460CDC00F10B05274654F8232011
:1043F0008A4284BF57F823101E460133AB42F5D1E1
:1044000086423BD1BEFBF1F207EE902A9FED1E7A69
:10441000F8EEE77AF4EEC77AF1EE10FA2ED51B4BE0
:1044200001201E60F0BDA0F16403164C643054F806
:10443000231054F8202000230A44560820461D4625
:10444000194654F823208A4284BF50F823101D4691
:104450000133C92BF5D1642D10D1B6FBF1F207EE73
:10446000902A9FED097AF8EEE77AF4EEC77AF1EE3A
:1044700010FA03D5054B01201D60F0BD4FF0FF3051
:10448000F0BD00BF6C64FF1F6666663F9408FF1FA7
:104490002DE9F04F2DED028B83B016F009FF41ECB2
:1044A000100B14F05DFF51EC100B17F017FA744B62
:1044B000744D1E683128A8BF31200023642E19BF17
:1044C00006F1FF3B741C65244FF0630B1A4655F848
:1044D00023100133C82B0A44F9D1B2F5FA7FC0F09A
:1044E000AE804FEA400ACAEB0B0B5E4540F3B38047
:1044F00000FB0AF007EE900AB8EEE78A0027C6EB49
:104500000B0307EE903AF8EEE77A67EEA77A87EEAC
:10451000887AF1EE477A17EE900A16F0DBFE41EC4E
:10452000100B14F011FE53EC102B55F82B00CDE9B5
:10453000002316F0ADFEDDE9002316F01FFF8046D4
:104540003846894616F0C6FE02460B4640464946A6
:1045500016F062FD17F00AFA0BF1010B5E450746F3
:10456000CDD104EB0A0B5C4572DA4FF0000AA31BB5
:1045700007EE903AF8EEE77A67EEA77A87EE887A48
:10458000F1EE477A17EE900A16F0A4FE41EC100BFC
:1045900014F0DAFD53EC102B55F82400CDE900237C
:1045A00016F076FEDDE9002316F0E8FE8046504660
:1045B000894616F08FFE02460B464046494616F0E5
:1045C0002BFD17F0D3F901345C458246CFDB07EEB3
:1045D00010AA07EE907A77EEC77AF5EEC07AF1EE80
:1045E00010FAD8BFF1EE677A17EE900A16F072FE55
:1045F000044638460D4616F06DFE02460B46204630
:10460000294616F0E5FF00221F4B17F029F9E0B10B
:10461000504616F05FFE02460B462046294616F02D
:10462000D7FF0022184B17F01BF9002814BF0120F8
:104630004FF0FF3003B0BDEC028BBDE8F08F134BA1
:1046400000224FF0FF301A60F4E74FF0FF30F1E73F
:104650004FF0000ABBE704EB0A0B5C4507DA00FBEE
:104660000AF007EE900A0027B8EEE78A7DE70022FD
:10467000002300244FF000454FF0000ABFE700BFC1
:104680009408FF1F6C64FF1F0000D03FA067FF1F4E
:104690002DE9F0472E4F2F4D00233B60824616F048
:1046A00007FE8046894649EC108B55F82A6014F0C5
:1046B00057FE404653EC102B494616F0ABFC17F062
:1046C0000DF949EC108B044614F04AFE404653ECB9
:1046D000102B494616F0A0FC17F000F984424FEA6F
:1046E000560130DC421CD646284655F82430B342E9
:1046F00003D950F82460A646710801349442F4D1DD
:10470000AAF164030AF1630293421EDC0AF1640A0F
:10471000002055F8232001338A4228BF01309A45F2
:10472000F7D107EE900A9FED0C7AF8EEE77A67EE84
:10473000877A07EE10EAB8EEC77AC7EE876AC7ED48
:10474000006ABDE8F087D646DAE7DFED047AF0E7E5
:10475000A067FF1F5424FF1F0000C8420000000094
:10476000002A2DE9F043C0EB010898FBF2F850DD78
:10477000DFF8B0E09FED297A294F4FF0000C08F1E7
:10478000FF39B8F1000F46DD814244DB034609EBF7
:104790000006002401E0994206DB57F823509E42B0
:1047A0002C4403F10103F6D107EE904AF8EE677A44
:1047B00077EE877A40440EEB8C038142C3ED007A9A
:1047C00003DB0CF1010C6245DBD10023B7EE007A6C
:1047D0000EEB8301D1ED007AF4EEC77AF1EE10FA18
:1047E00003F10103C8BF91ED007A9A42F0D107EEC0
:1047F000902AB8EEE76A00230EEB8301D1ED007A30
:1048000066EE277A0133C7EE876A9A42C1ED006AE5
:10481000F2DCBDE8F083DFED017ACBE700000000B9
:104820005424FF1F94A8FF1F70B590B0044668463B
:1048300007F030FA022C00F08980032C58D0012CAC
:1048400027D0684607F04EFAD8B15E4E002408AD76
:1048500006EB840393ED000A0921284614F0C4F9FD
:104860002946594814F0FEF9284614F00FF9564924
:10487000684613F037FE0134684613F059FE322CB7
:10488000E6D1684607F020FA684607F011FA10B042
:1048900070BD4E494E4807F0F7FB002840F08D8070
:1048A0004C4B32221968002008ADFFF759FF132343
:1048B000464A4749284607F073FB9DF824100A9A98
:1048C0009DF82C308DF8041002928DF80C300BA955
:1048D0000DF10D020DF11A0311F8010F02F8010B91
:1048E0009A42F9D10F9B0793284607F0E1F9A8E710
:1048F0003949374807F0C8FB002859D1354B3222D7
:104900001968002008ADFFF72BFF1323324A304906
:10491000284607F045FB9DF824100A9A9DF82C3094
:104920008DF8041002928DF80C300BA90DF10D02D8
:104930000DF11A0311F8010F02F8010B9A42F9D197
:104940000F9B0793284607F0B3F97AE723492048DD
:1049500007F09AFB38BB224B32221968002008ADC1
:10496000FFF7FEFE13231D4A1949284607F018FBDE
:104970009DF824100A9A9DF82C308DF804100292AC
:104980008DF80C300BA90DF10D020DF11A0311F881
:10499000010F02F8010B9A42F9D10F9B07932846A9
:1049A00007F086F94DE70D49094807F07BFBD2E790
:1049B0000949074807F076FBA0E70449044807F0D7
:1049C00071FB6DE794A8FF1F3C24FF1F3808FF1FF1
:1049D000180E0020F823FF1F4C08FF1F0008FF1FC0
:1049E000FC23FF1F2DE9F04302282DED068B00F07C
:1049F0001F81032800F0A280012808D0BDEC068B9F
:104A0000E74B00224FF0FF301A70BDE8F083002919
:104A100040F302829FEDE34ADFF8CC83DFF8CCC39A
:104A2000DFF8CCE3E04FE14EE14DDFEDE29A9FEDA0
:104A3000E29AE24CDFF8BC93F0EE448AB0EE448A8E
:104A4000B0EE440AF0EE442AF0EE440AB0EE441A06
:104A5000F0EE441AB0EE442AB0EE443AF0EE443A96
:104A600000200BE0B8EC010ABCEC018AFEEC018AE4
:104A7000B7EC014AB6EC019AF5EC019A8200A31852
:104A80004A44D3ED004A93ED005AD3ED005A93ED1A
:104A9000006AD3ED006A93ED007AD3ED007A92EDCF
:104AA00000AA74EEC04A35EE485A75EEE85A36EE62
:104AB000446A76EEC96A37EE697A77EECA7A0130CF
:104AC0008142E4EEA43AA5EE053AA5EEA52AE6EE6B
:104AD000061AA6EEA61AE7EE070AE7EEA72AC1D144
:104AE000B74BD3ED007AF4EEE37AF1EE10FA1EDA6A
:104AF000F4EEC37AF1EE10FA19DAF4EEC27AF1EEBE
:104B000010FA14DAF4EEE17AF1EE10FA0FDAF4EEBC
:104B1000C17AF1EE10FA0ADAF4EEE07AF1EE10FA68
:104B200005DAF4EEE27AF1EE10FAFFF667AFBDECCB
:104B3000068B9B4B01201870BDE8F083002940F3E1
:104B40007A819FED984ADFF8B082DFF8B0C2DFF8D3
:104B5000B0E29C4F9C4E9D4DDFED9D9A974CDFF847
:104B6000A492B0EE449AF0EE448AB0EE448AB0EEDD
:104B7000440AB0EE443AF0EE441AB0EE441AF0EEB5
:104B8000440AB0EE442AF0EE442AF0EE443A002003
:104B90000BE0B8EC010ABCEC018AFEEC018AB7EC30
:104BA000019AB6EC014AF5EC019A8200A3184A4436
:104BB000D3ED004A93ED005AD3ED005A93ED006A0D
:104BC000D3ED006A93ED007AD3ED007A92ED00AA5E
:104BD00074EEC04A35EE485A75EEE85A36EE496A28
:104BE00076EEC46A37EE697A77EECA7A013081428E
:104BF000E4EEA43AE5EE052AA5EEA52AE6EE060ABD
:104C0000A6EEA61AE7EE071AA7EEA73AC1D1714B96
:104C1000D3ED007AF4EEE37AF1EE10FAC0F28D8073
:104C2000BDEC068B5E4B012203201A70BDE8F083B9
:104C3000002940F3A780DFED5B4ADFF8CCC1DFF845
:104C4000CCE1654F654E664D5C4CDFF8C481B0EE3B
:104C5000648AB0EE640AF0EE640AB0EE641AF0EE14
:104C6000643AB0EE642AF0EE641AF0EE642AB0EE14
:104C7000643AB0EE644A002009E0BCEC011AFEEC94
:104C8000010AB7EC010AB6EC018AF5EC014A820090
:104C9000A318424493ED005AD3ED005A93ED006AF5
:104CA000D3ED006A93ED007AD3ED007AD2ED008A5D
:104CB00035EE415A75EEE05A36EE406A76EEC86A35
:104CC00037EE647A77EEE87A01308142A5EE054A44
:104CD000A5EEA53AE6EE062AE6EEA61AA7EE072A04
:104CE000E7EEA73AC9D13F4BD3ED007AF4EEC47A90
:104CF000F1EE10FA07DBBDEC068B294B01220220F6
:104D00001A70BDE8F083F4EEC37AF1EE10FAF2DA2D
:104D1000F4EEE27AF1EE10FAEDDAF4EEE17AF1EE89
:104D200010FAE8DAF4EEC27AF1EE10FAE3DAF4EE11
:104D3000E37AF1EE10FADEDA60E6F4EEE27AF1EE12
:104D400010FABFF66DAFF4EEC27AF1EE10FABFF6CC
:104D500067AFF4EEE07AF1EE10FABFF661AFF4EE71
:104D6000C17AF1EE10FABFF65BAFF4EEE17AF1EE44
:104D700010FABFF655AFF4EEC37AF1EE10FABFF6B3
:104D80004FAF3BE6DFED073AB0EE632AF0EE631A71
:104D9000F0EE632AB0EE633AB0EE634AA3E700BFD9
:104DA0004017FF1F00000000F84204003894040080
:104DB000043004008FE3A93CAD42B63C94A8FF1F29
:104DC0001008FF1F7093040020030200E42C04006D
:104DD0005AA8A13BC808FF1FAC2D04003C2F0400BB
:104DE000943104004808FF1F58020200CC30040030
:104DF0001C2C0400B022FF1F742E04005C3204003F
:104E0000E0910400CC67FF1FE8030200A8920400B1
:104E100034ACFF1F000000005FED022AF0EE620AD2
:104E2000B0EE621AF0EE621AB0EE622AB0EE623AAA
:104E3000F0EE623A54E61FED093AF0EE431AB0EE96
:104E4000431AF0EE430AB0EE432AF0EE432AF0EEA6
:104E5000433ADCE630B55A4B83B019683222002061
:104E6000FFF77EFC32210120FFF7BCFD012813D0A3
:104E700032210320FFF7B6FD032845D0514B3222E3
:104E800019680020FFF76CFC32210220FFF7AAFD11
:104E9000022871D003B030BD2D254B4B01930F225A
:104EA0002B464FF4B971494800950BF0C7FA00241E
:104EB00014222B468DE814004FF4B9713C2243486C
:104EC0000AF064FD23463D2240F277113F480EF080
:104ED00089F94FF6FF713D480EF0F0F93C493B4827
:104EE000FCF706FE2346472240F27F1137480EF0BA
:104EF00079F94FF6FF7135480EF0E0F9354933483E
:104F0000FCF7F6FD03B030BD2D252F4B0193009526
:104F10002B460F224FF4B9712C480BF08FFA002466
:104F200014222B468DE814004FF4B9713C22274817
:104F30000AF02CFD23463D2240F2771123480EF063
:104F400051F94FF6FF7121480EF0B8F922491F4878
:104F5000FCF7CEFD234647224FF4BA711B480EF0F2
:104F600041F94FF6FF7119480EF0A8F91B4917488F
:104F7000FCF7BEFD03B030BD2D25134B01930F226E
:104F80002B464FF4B971114800950BF057FA0024E5
:104F90000A222B468DE814004FF4B9713C220B48CD
:104FA0000AF0F4FC23463D2240F2771107480EF048
:104FB00019F94FF6FF7105480EF080F908498EE7A0
:104FC000F823FF1FFC23FF1F2033040080A9FF1FCD
:104FD000D0220400D8220400DC220400E4220400D1
:104FE000F022040070B586B001A90122384810F003
:104FF0007BF9002848D09DF80430222B05D0282BBF
:1050000003D0102B5FD006B070BD0026304810F0E2
:10501000A9F801A92E4810F047F9012244212C4893
:1050200010F012F94FF47A7011F02EFC284810F0AD
:1050300099F801A9264810F037F90022BE2124482A
:1050400010F002F90DF10B0405AD214810F01CF928
:1050500004F8010FAC42F8D19DF80D209DF80C30FA
:1050600043EA02231BB2BEB19DF81320102A4FEA77
:10507000C30320D01BB207EE903A164AFAEECE7A5E
:10508000C2ED007A06B070BD114810F01FF9FA2089
:1050900011F0FAFB06B070BD9DF8102012F060020E
:1050A00006D0202A11D0402A08BF23F00103E2E7EE
:1050B00023F00703DFE79DF8122023F00F03C2F16E
:1050C0000C021344D6E70126A0E723F00303D2E73E
:1050D0001024FF1FA81AFF1F38B50F4C11F08CFDCC
:1050E0000E4B217800251D7061B9242011F0B2FB10
:1050F0000A2011F0C9FB0121242011F0ABFB012390
:10510000237038BD2946242011F0A4FB0A2011F099
:10511000BBFB257038BD00BFAC1AFF1F58EDFF1F49
:10512000012814DD38B5054601240121152011F0B0
:1051300091FB642011F0A8FB0021152011F08AFBDF
:105140000134642011F0A0FBA542EED138BD7047B8
:1051500010B50121152011F07DFB0F4C0F4B0A22D9
:1051600019682046002313F009FA05210C4811F0B4
:105170000FFE0C4B186816F0ADF841EC100B2046F2
:10518000022113F045FA0848052111F001FE2046DE
:10519000BDE8104013F0CCB9900CFF1FA01AFF1F00
:1051A000F82204006CEDFF1F00230400184A19497F
:1051B000194B92ED006AD1ED005AD3ED006A192027
:1051C00040F6E77202E0013090421ED007EE900AEE
:1051D00000FB00F3F8EEE77A07EE103A67EE867A06
:1051E000B8EEC77AE7EE257A77EEA67A70EE677AA0
:1051F000F5EEC07AF1EE10FAD8BFF1EE677AF4EE70
:10520000E07AF1EE10FADED870474FF0FF307047C9
:105210002408FF1F4CEDFF1FC817FF1F4F4BDFED8A
:10522000504A93ED005A2DE9F0474E4EDFF84CA15D
:10523000DFF84C91DFF84C814B4F4FF0FF33336078
:10524000CAF80030C9F80030C8F800303B600124CB
:1052500007EE904AF8EEE70AB0EE450A70EEA40AAF
:105260000134FFF7A3FF0B2C66D17A2333600125AD
:105270003E4BDFED3B4A93ED005A012407EE904A86
:10528000F8EEE70AB0EE450A70EEA40A0134FFF723
:105290008DFF0B2C4BD140F26E23CAF80030012554
:1052A000334BDFED2F4A93ED005A012440F2345A7C
:1052B00007EE904AF8EEE70AB0EE450A70EEA40A4F
:1052C000FFF774FF01340A2CC9F8000002DDC6F8AC
:1052D00000A001250130EBD09FED215A012407EEFB
:1052E000904AF8EEE70A9FED230A70EE850A013432
:1052F000FFF75CFF0B2C2BD14FF43E73C8F8003046
:1053000001259FED175A012407EE904AF8EEE70AAF
:105310009FED190A70EE850A0134FFF747FF0B2C49
:105320000FD190233B60BDE8F047FDF78BBFCAF873
:1053300000000130A2D0B3E73060013088D00025F2
:1053400096E738600130DFD0002DECD1BDE8F08762
:10535000C8F800000130C2D0D3E700BFF407FF1F38
:105360000000000030ACFF1FFC23FF1FF807FF1FE9
:10537000FC07FF1F00003E44000010439867FF1F1A
:105380009C67FF1FF823FF1F1C4B1D491B681D4A0C
:10539000096812681C48C91A70B407EE101A1B4C31
:1053A00090ED006AD4ED005A194E1A4D1A4C1B4864
:1053B0009A1AF8EEC76A07EE102AF7EE007A37EE6F
:1053C000C66A75EEE75AB8EEC77A85EEA65AC6EEFB
:1053D000076A07EE103AB8EEC77AB0EE676AA5EE34
:1053E000476AE7EE667A86ED005A85ED006AC4EDFD
:1053F000007AC0ED006A70BC704700BF9867FF1F5D
:1054000030ACFF1F9C67FF1F1808FF1F1408FF1F09
:105410009008FF1F5C08FF1FDC07FF1F7808FF1FB5
:10542000514A524B11681A689FED517A30B4514C71
:10543000914284ED007A13DA4F4B504893ED006AA5
:1054400030F811309BB207EE903AF8EEE77A01316E
:10545000C7EE866A914237EE267AF1D184ED007A62
:10546000474B1B68934229DD46484749D0ED004A27
:1054700091ED005AD4ED006A4048B7EE006A07EE9D
:10548000902AF8EEE77AB0EE457AA4EEA77A30F8E3
:10549000121089B207EE901AB4EE467AF1EE10FAC5
:1054A000F8EEE77A48BFB0EE467AC7EE875A013287
:1054B0009A4276EEA56AE2D1C4ED006A334A1168D9
:1054C000994235DD3248334D334AD0ED004A95EDEF
:1054D000004AD2ED005AD4ED006A2848B7EE006ABF
:1054E00007EE903AF8EEE77AB0EE647AA7EE847AA7
:1054F00030F8132092B2F0EE477AF4EE657AF1EECE
:1055000010FA48BFF0EE657A07EE102AF4EE467AFC
:10551000F1EE10FAB8EEC77AC8BFF0EE467A87EE21
:10552000275A01338B4276EE856AD9D1C4ED006AE1
:105530001A4B1A68914215DA174B94ED007A93EDE5
:10554000006A0E4830F811309BB207EE903AF8EE40
:10555000E77A0131C7EE866A914237EE267AF1D1B9
:1055600084ED007A30BC70479808FF1F30ACFF1FF5
:10557000000000009467FF1F1408FF1FF8EDFF1FD5
:105580009867FF1F9008FF1F5C08FF1F9C67FF1FA5
:10559000DC07FF1F7808FF1F1808FF1F2008FF1FE8
:1055A0002DE9F04F2DED0A8B01288BB0894640F391
:1055B0005F81B44B9842824640F35F81DFEDB29A3F
:1055C0009A46B24CD4ED007AF4EE697AF1EE10FA14
:1055D00000F04981AAF51C53113BAAF5C332089388
:1055E000A2F1A1030993AAF10B030593AAF16503A4
:1055F00006936FF47A735344A54EA64D9FEDA69A79
:105600009FEDA68ADFEDA68A079313E194ED007A59
:10561000F7EE007A37EE677AF3EE097A27EE277A0B
:10562000F2EE026AC7EE267A77EEC97A059B592B0D
:105630000DD894ED007AF2EE067A37EE677AF3EE43
:10564000087A27EE277AC7EE087A77EEE87A069B83
:10565000B3F5617F11D29FED937AD4ED006A9FED8F
:10566000926ADFED927A76EEC76AB3EE087A66EE5A
:10567000876A86EE867A77EE677A079A42F2273350
:105680009A420FD8DFED8A7A94ED007ADFED896ACD
:1056900037EE677AF3EE087A27EE277AC7EE267A96
:1056A00077EEC87A844B089A9A4211D89FED837A94
:1056B000D4ED006A9FED826ADFED827A76EEC76AEA
:1056C000B3EE087A66EE876A86EE867A77EE677AB8
:1056D000099A4CF24F339A4211D89FED7B7AD4ED60
:1056E000006A9FED7A6ADFED7A7A76EEC76AB3EEEA
:1056F000087A66EE876A86EE867A77EE677A9FED9D
:10570000757A9FED75AA67EE877A002717EE900AE3
:1057100015F0E0FD41EC100B41EC1C0B13F054FCB8
:10572000B0EE40BAF0EE60BAB0EE4C0AF0EE6C0AA1
:1057300013F0AAFCB5F90020B6F900300092ED2173
:105740004FF48272654801978DED020B0EF0FEF961
:10575000B5F90020B6F9003060488DE88400F321E7
:105760004FF482720EF0F2F951EC1B0B16F0FEF8BA
:10577000DFED5B7A07EE100AE7EE0A7A40F2FF7877
:105780009DED020BFCEEE77A51EC100BCDED027AA9
:10579000BDF808B0A6F800B016F0E8F8DFED517AD1
:1057A000CDF8048007EE100AE7EE0A7A0FFA8BF3C1
:1057B0004FF48272ED21FCEEE77A4848CDED027A93
:1057C000BDF808E0A5F800E00FFA8EFCCDF800C0A7
:1057D0000EF0BCF9B5F90020B6F900303F488DE86D
:1057E0000401F3214FF482720EF0B0F905234FF457
:1057F0008272F0213948CDF800800BF0DBFA40F2DC
:10580000EF3300934FF482720423F02133480BF0FE
:1058100001FD3B464FF48272F021304809F0EEFC66
:10582000484611F031F8D4ED007AF4EE697AF1EEE1
:1058300010FA18D0F4EEE97AF1EE10FAB7EE007A29
:105840004CBF77EE877A77EEC77AC4ED007AB9F16C
:10585000000F01D1C4ED009ABAF10A0F7FF7D6AE5E
:10586000DFED217AE2E60BB0BDEC0A8BBDE8F08FEC
:10587000F0EE009A4FF0020AA3E607EE900AF8EE67
:10588000E79A9EE6F0490200007C12487408FF1F68
:10589000BA08FF1FBC08FF1F000025430000B242EA
:1058A00000000B430000CA4200C060440000E44214
:1058B00000407A44009C0C468F5F010000441C4667
:1058C00080C7AF47000080428050C347004F434726
:1058D00000001C4235FA8E3C00000C4380A9FF1FDB
:1058E00000007043000082430000000070B50121F9
:1058F0000E2010F0AFFF0D4E0D4B0E4D0E48002246
:1059000000241A602146326013462C6000EB8302AB
:105910000133B42B1160F9D103220849102010F093
:105920009BFC074B01221A7070BD00BFC467FF1FAC
:105930005464FF1FAC23FF1FD017FF1F9904000002
:10594000F023FF1F38B5102010F002FD0B4A0C4861
:1059500000230021137000EB83020133B42B11608C
:105960004FF00002F7D1074D074C00232B6019467A
:1059700022600E20BDE8384010F06CBFF023FF1FFE
:10598000D017FF1F5464FF1FAC23FF1F10B4294A18
:105990001323591E02EB810002EB83030068186099
:1059A000244C0B460029F4D12348DFED246A90ED06
:1059B000007AB8EE477AF0EE667A37EE267A84ED12
:1059C000007A02EB830191ED007A0133142B77EE1C
:1059D000877AF6D19FED197A002302EB8301D1ED8E
:1059E000006A0133052B37EE267AF6D177EE676A27
:1059F000B3EE096A66EEA66AF4EEC66AF1EE10FA34
:105A00000BDCF3EE046A87EEA67A0D4B5DF8044BCF
:105A100083ED007A002303607047F1EE046AC7EE5D
:105A2000267A074B5DF8044BC3ED007A0023036030
:105A3000704700BFD017FF1F5464FF1F0000000015
:105A4000AC23FF1F38B512F0D7F9002804DD12F09F
:105A500097F9C0B2472800D038BD0F4D00242C6004
:105A600021460E4812F0CAFD01210D4812F0EEF950
:105A700055F82410094800230A2212F07FFD074838
:105A800012F056FD4FF4C873013BFDD10134B4F55B
:105A9000805FE5D138BD00BF5424FF1FB80CFF1F45
:105AA000CC220400F0B585B010F03CF802210120B2
:105AB00010F0E4FE0221002010F0E0FE524B534CA7
:105AC00099681A68524B012001F5007702F50076BB
:105AD000002527606660E56020726072013BFDD1A1
