:10000000F8FF022099010000D96001009160010011
:100010009160010091600100916001009160010018
:10002000916001009160010091600100D9600100C0
:10003000D960010091600100818501008585010082
:10004000D9600100D9600100D9600100D9600100C8
:10005000D9600100D9600100D9600100D9600100B8
:10006000D9600100D9600100D9600100D9600100A8
:10007000D9600100D9600100D9600100D960010098
:10008000D9600100D9600100D9600100D960010088
:10009000D9600100D9600100D9600100D960010078
:1000A0003559010041590100D9600100D9600100B2
:1000B000D9600100D9600100D9600100D960010058
:1000C000D9600100D9600100D9600100D960010048
:1000D000D9600100D9600100D9600100E12300006E
:1000E000D9600100D9600100D9600100BDBE0000E7
:1000F000D9600100D9600100D9600100D960010018
:10010000D1870100E5870100F98701000D88010012
:10011000D9600100C9740100D9600100D9600100F3
:10012000D9600100D9600100D9600100D9600100E7
:10013000D9600100D9600100D9600100D9600100D7
:10014000D9600100D96001003D720100D960010051
:10015000D9600100D9600100D9600100D9600100B7
:10016000D9600100D96001004D590100D96001003A
:10017000D9600100D9600100D9600100D960010097
:10018000D9600100D9600100D9600100D960010087
:10019000D9600100D9600100584B4CF2205210B5D3
:1001A0001A804DF628121A8000BF00BF15F098FF84
:1001B000534B4FF030621A60524A9A60524ADA60EA
:1001C000524B4FF470021A60514A136813F4807353
:1001D00004D150490B604FF4A85313604E4B1A786A
:1001E000110703D51A7842F008021A704B4B4C499C
:1001F0002A221A704B4A4C4B8B4204D252F8040FFD
:1002000043F8040BF8E7494B494900228B4202D2DC
:1002100043F8042BFAE74749474A002352F82300E2
:1002200041F823000133662BF8D1444B444A802126
:1002300003F8011B9342FBD1424B3E4A1A60424BEA
:100240008A221A70A3F5805324225A70A0221A70B1
:100250009A799207FCD59A79D406FCD43B4A9379D3
:1002600003F00C03082B394BF9D103221A714622F3
:100270005A719A799006FCD5344A9179334B4906E4
:10028000FBD5334A4FF08271116009215160202261
:100290001A709A7902F00C020C2AFAD12D4B2E4AD0
:1002A0001A602E4B2E4A1A6000225A60072243F829
:1002B000042C2C4AC3F80C2D62B616F0E7FC154B43
:1002C0001B68DA0705D5284816F040FA274B284A5C
:1002D0001A60284B1B785B0609D5244C244B2268F6
:1002E0009A4204D1204816F031FA002323601BF013
:1002F00093FD15F0FBFE18F02DFFFEE70E200540E4
:1003000030800440823F04000100002B88ED00E0B3
:1003100010D0034014D0034002D0074000E0074053
:100320003017FF1F40BF0400F806FF1F3017FF1FE4
:10033000F01300200002FF1F0000000000E400E0B6
:1003400056E400E008ED00E00050064000400640A2
:100350004480044004800440C010050014E000E024
:10036000BFD4010000002020C3462E611CE00340E2
:10037000A5C3945A00F00740FFFFFFFFFFFFFFFFF8
:10038000FFFFFFFFFFFFFFFFFFFFFFFFFFFFFFFF7D
:10039000FFFFFFFFFFFFFFFFFFFFFFFFFFFFFFFF6D
:1003A000FFFFFFFFFFFFFFFFFFFFFFFFFFFFFFFF5D
:1003B000FFFFFFFFFFFFFFFFFFFFFFFFFFFFFFFF4D
:1003C000FFFFFFFFFFFFFFFFFFFFFFFFFFFFFFFF3D
:1003D000FFFFFFFFFFFFFFFFFFFFFFFFFFFFFFFF2D
:1003E000FFFFFFFFFFFFFFFFFFFFFFFFFFFFFFFF1D
:1003F000FFFFFFFFFFFFFFFFFFFFFFFFFFFFFFFF0D
:10040000FFFFFFFFFFFFFFFFFFFFFFFFDEF9FFFF23
:1004100010B5054C237833B9044B13B10448AFF33E
:1004200000800123237010BD3017FF1F0000000063
:100430003CBF0400084B10B51BB108490848AFF396
:1004400000800848036803B910BD074B002BFBD0A0
:10045000BDE81040184700BF000000003417FF1F20
:100460003CBF04003017FF1F000000000020704751
:10047000704700BF0349044B4FF4804001220860DD
:100480001A60704708F00F40C087FF1F014B012220
:100490001A6070475417FF1F034A0449136801206C
:1004A00003441360086070475C64FF1F6064FF1FB3
:1004B00016F046B9F8B50E46074614F0A9FF0546F2
:1004C00014F096FF044614F083FF6401C0B204F4F4
:1004D000FF54ADB2A5F2BC75044344EA45243C8008
:1004E00014F046FF054614F053FF044614F060FF75
:1004F000ED02640105F4FF2504F4FF542C43C0F31E
:10050000460004433480F8BD9FED3D7A38B53D4C3C
:10051000F0EE476A002234F812309BB207EE903AB0
:10052000F8EEE77A013277EEA67A3C2A37EE277AA0
:10053000F1D1DFED356A354DC7EE267A29212846FF
:100540000422C5ED007A15F02BFD0A2016F050FBB1
:1005500095ED006ADFED2A6A002134F8112034F8A5
:10056000113092B207EE902A9BB2B8EEE77A07EE0E
:10057000903AF8EEE77A36EE477A76EE677A01310E
:100580003C29E7EE276AE8D1DFED217A214B224CA6
:1005900086EEA77A00221A6017EE100A1BF04EF8BA
:1005A00041EC100B19F090F851EC100B1BF092FB82
:1005B000D5ED007A194B07EE100AF0EE006AB0EEA6
:1005C000086AF0EE675AE7EE265A1548E7EE067A13
:1005D0000422242180ED007AC3ED007AC4ED005A94
:1005E00015F0DEFC0A2016F003FB0121282015F08F
:1005F000AFFC0A2016F0FCFA0A4B01221A7038BD33
:10060000000000007C0D002000007042D807FF1F92
:1006100000006C423CCCFF1F3824FF1FB487FF1F33
:100620003008FF1FBC87FF1F214B10B45A6A1368A4
:10063000506819780478507A137A044201EA030169
:100640001BD0937A03F0030309B143F0040343F092
:1006500008039910013B91720D2B0BD8DFE803F0D2
:1006600021071B070A152121150A071B0721D3683B
:10067000013BD3605DF8044B7047937A03F00303AA
:100680000029E6D043F00403E3E7D3685DF8044BA8
:10069000023BD3607047D3685DF8044B0233D360EC
:1006A0007047D3685DF8044B0133D360704700BFD7
:1006B000D4100020214B10B49A6A1368506819783E
:1006C0000478507A137A044201EA03011BD0937A2A
:1006D00003F0030309B143F0040343F00803991046
:1006E000013B91720D2B0BD8DFE803F021071B07AC
:1006F0000A152121150A071B0721D368013BD36086
:100700005DF8044B7047937A03F003030029E6D0A9
:1007100043F00403E3E7D3685DF8044B023BD36086
:100720007047D3685DF8044B0233D3607047D368D9
:100730005DF8044B0133D360704700BFD410002034
:10074000214B10B4DA6A1368506819780478507A2B
:10075000137A044201EA03011BD0937A03F00303E6
:1007600009B143F0040343F008039910013B91726F
:100770000D2B0BD8DFE803F021071B070A152121F9
:10078000150A071B0721D368013BD3605DF8044BB2
:100790007047937A03F003030029E6D043F0040383
:1007A000E3E7D3685DF8044B023BD3607047D3683E
:1007B0005DF8044B0233D3607047D3685DF8044B97
:1007C0000133D360704700BFD4100020214B10B418
:1007D0001A6B1368506819780478507A137A0442B7
:1007E00001EA03011BD0937A03F0030309B143F03C
:1007F000040343F008039910013B91720D2B0BD8B1
:10080000DFE803F021071B070A152121150A071B42
:100810000721D368013BD3605DF8044B7047937A9E
:1008200003F003030029E6D043F00403E3E7D368B1
:100830005DF8044B023BD3607047D3685DF8044B0E
:100840000233D3607047D3685DF8044B0133D36043
:10085000704700BFD4100020214B10B45A6B1368AE
:10086000506819780478507A137A044201EA030137
:100870001BD0937A03F0030309B143F0040343F060
:1008800008039910013B91720D2B0BD8DFE803F0A0
:1008900021071B070A152121150A071B0721D36809
:1008A000013BD3605DF8044B7047937A03F0030378
:1008B0000029E6D043F00403E3E7D3685DF8044B76
:1008C000023BD3607047D3685DF8044B0233D360BA
:1008D0007047D3685DF8044B0133D360704700BFA5
:1008E000D4100020214B10B49A6B1368506819780B
:1008F0000478507A137A044201EA03011BD0937AF8
:1009000003F0030309B143F0040343F00803991013
:10091000013B91720D2B0BD8DFE803F021071B0779
:100920000A152121150A071B0721D368013BD36053
:100930005DF8044B7047937A03F003030029E6D077
:1009400043F00403E3E7D3685DF8044B023BD36054
:100950007047D3685DF8044B0233D3607047D368A7
:100960005DF8044B0133D360704700BFD410002002
:10097000214B10B4DA6B1368506819780478507AF8
:10098000137A044201EA03011BD0937A03F00303B4
:1009900009B143F0040343F008039910013B91723D
:1009A0000D2B0BD8DFE803F021071B070A152121C7
:1009B000150A071B0721D368013BD3605DF8044B80
:1009C0007047937A03F003030029E6D043F0040351
:1009D000E3E7D3685DF8044B023BD3607047D3680C
:1009E0005DF8044B0233D3607047D3685DF8044B65
:1009F0000133D360704700BFD4100020214B10B4E6
:100A00001A6C1368506819780478507A137A044283
:100A100001EA03011BD0937A03F0030309B143F009
:100A2000040343F008039910013B91720D2B0BD87E
:100A3000DFE803F021071B070A152121150A071B10
:100A40000721D368013BD3605DF8044B7047937A6C
:100A500003F003030029E6D043F00403E3E7D3687F
:100A60005DF8044B023BD3607047D3685DF8044BDC
:100A70000233D3607047D3685DF8044B0133D36011
:100A8000704700BFD4100020214B10B45A6C13687B
:100A9000506819780478507A137A044201EA030105
:100AA0001BD0937A03F0030309B143F0040343F02E
:100AB00008039910013B91720D2B0BD8DFE803F06E
:100AC00021071B070A152121150A071B0721D368D7
:100AD000013BD3605DF8044B7047937A03F0030346
:100AE0000029E6D043F00403E3E7D3685DF8044B44
:100AF000023BD3607047D3685DF8044B0233D36088
:100B00007047D3685DF8044B0133D360704700BF72
:100B1000D4100020214B10B49A6C136850681978D7
:100B20000478507A137A044201EA03011BD0937AC5
:100B300003F0030309B143F0040343F008039910E1
:100B4000013B91720D2B0BD8DFE803F021071B0747
:100B50000A152121150A071B0721D368013BD36021
:100B60005DF8044B7047937A03F003030029E6D045
:100B700043F00403E3E7D3685DF8044B023BD36022
:100B80007047D3685DF8044B0233D3607047D36875
:100B90005DF8044B0133D360704700BFD4100020D0
:100BA000214B10B4DA6C1368506819780478507AC5
:100BB000137A044201EA03011BD0937A03F0030382
:100BC00009B143F0040343F008039910013B91720B
:100BD0000D2B0BD8DFE803F021071B070A15212195
:100BE000150A071B0721D368013BD3605DF8044B4E
:100BF0007047937A03F003030029E6D043F004031F
:100C0000E3E7D3685DF8044B023BD3607047D368D9
:100C10005DF8044B0233D3607047D3685DF8044B32
:100C20000133D360704700BFD4100020214B10B4B3
:100C30001A6D1368506819780478507A137A044250
:100C400001EA03011BD0937A03F0030309B143F0D7
:100C5000040343F008039910013B91720D2B0BD84C
:100C6000DFE803F021071B070A152121150A071BDE
:100C70000721D368013BD3605DF8044B7047937A3A
:100C800003F003030029E6D043F00403E3E7D3684D
:100C90005DF8044B023BD3607047D3685DF8044BAA
:100CA0000233D3607047D3685DF8044B0133D360DF
:100CB000704700BFD4100020214B10B45A6D136848
:100CC000506819780478507A137A044201EA0301D3
:100CD0001BD0937A03F0030309B143F0040343F0FC
:100CE00008039910013B91720D2B0BD8DFE803F03C
:100CF00021071B070A152121150A071B0721D368A5
:100D0000013BD3605DF8044B7047937A03F0030313
:100D10000029E6D043F00403E3E7D3685DF8044B11
:100D2000023BD3607047D3685DF8044B0233D36055
:100D30007047D3685DF8044B0133D360704700BF40
:100D4000D4100020214B10B49A6D136850681978A4
:100D50000478507A137A044201EA03011BD0937A93
:100D600003F0030309B143F0040343F008039910AF
:100D7000013B91720D2B0BD8DFE803F021071B0715
:100D80000A152121150A071B0721D368013BD360EF
:100D90005DF8044B7047937A03F003030029E6D013
:100DA00043F00403E3E7D3685DF8044B023BD360F0
:100DB0007047D3685DF8044B0233D3607047D36843
:100DC0005DF8044B0133D360704700BFD41000209E
:100DD000214B10B4DA6D1368506819780478507A92
:100DE000137A044201EA03011BD0937A03F0030350
:100DF00009B143F0040343F008039910013B9172D9
:100E00000D2B0BD8DFE803F021071B070A15212162
:100E1000150A071B0721D368013BD3605DF8044B1B
:100E20007047937A03F003030029E6D043F00403EC
:100E3000E3E7D3685DF8044B023BD3607047D368A7
:100E40005DF8044B0233D3607047D3685DF8044B00
:100E50000133D360704700BFD4100020214B10B481
:100E60001A6E1368506819780478507A137A04421D
:100E700001EA03011BD0937A03F0030309B143F0A5
:100E8000040343F008039910013B91720D2B0BD81A
:100E9000DFE803F021071B070A152121150A071BAC
:100EA0000721D368013BD3605DF8044B7047937A08
:100EB00003F003030029E6D043F00403E3E7D3681B
:100EC0005DF8044B023BD3607047D3685DF8044B78
:100ED0000233D3607047D3685DF8044B0133D360AD
:100EE000704700BFD4100020214B10B45A6E136815
:100EF000506819780478507A137A044201EA0301A1
:100F00001BD0937A03F0030309B143F0040343F0C9
:100F100008039910013B91720D2B0BD8DFE803F009
:100F200021071B070A152121150A071B0721D36872
:100F3000013BD3605DF8044B7047937A03F00303E1
:100F40000029E6D043F00403E3E7D3685DF8044BDF
:100F5000023BD3607047D3685DF8044B0233D36023
:100F60007047D3685DF8044B0133D360704700BF0E
:100F7000D4100020214B10B49A6E13685068197871
:100F80000478507A137A044201EA03011BD0937A61
:100F900003F0030309B143F0040343F0080399107D
:100FA000013B91720D2B0BD8DFE803F021071B07E3
:100FB0000A152121150A071B0721D368013BD360BD
:100FC0005DF8044B7047937A03F003030029E6D0E1
:100FD00043F00403E3E7D3685DF8044B023BD360BE
:100FE0007047D3685DF8044B0233D3607047D36811
:100FF0005DF8044B0133D360704700BFD41000206C
:10100000214B10B4DA6E1368506819780478507A5E
:10101000137A044201EA03011BD0937A03F003031D
:1010200009B143F0040343F008039910013B9172A6
:101030000D2B0BD8DFE803F021071B070A15212130
:10104000150A071B0721D368013BD3605DF8044BE9
:101050007047937A03F003030029E6D043F00403BA
:10106000E3E7D3685DF8044B023BD3607047D36875
:101070005DF8044B0233D3607047D3685DF8044BCE
:101080000133D360704700BFD4100020214B10B44F
:101090001A6F1368506819780478507A137A0442EA
:1010A00001EA03011BD0937A03F0030309B143F073
:1010B000040343F008039910013B91720D2B0BD8E8
:1010C000DFE803F021071B070A152121150A071B7A
:1010D0000721D368013BD3605DF8044B7047937AD6
:1010E00003F003030029E6D043F00403E3E7D368E9
:1010F0005DF8044B023BD3607047D3685DF8044B46
:101100000233D3607047D3685DF8044B0133D3607A
:10111000704700BFD4100020214B10B45A6F1368E1
:10112000506819780478507A137A044201EA03016E
:101130001BD0937A03F0030309B143F0040343F097
:1011400008039910013B91720D2B0BD8DFE803F0D7
:1011500021071B070A152121150A071B0721D36840
:10116000013BD3605DF8044B7047937A03F00303AF
:101170000029E6D043F00403E3E7D3685DF8044BAD
:10118000023BD3607047D3685DF8044B0233D360F1
:101190007047D3685DF8044B0133D360704700BFDC
:1011A000D4100020214B10B49A6F1368506819783E
:1011B0000478507A137A044201EA03011BD0937A2F
:1011C00003F0030309B143F0040343F0080399104B
:1011D000013B91720D2B0BD8DFE803F021071B07B1
:1011E0000A152121150A071B0721D368013BD3608B
:1011F0005DF8044B7047937A03F003030029E6D0AF
:1012000043F00403E3E7D3685DF8044B023BD3608B
:101210007047D3685DF8044B0233D3607047D368DE
:101220005DF8044B0133D360704700BFD410002039
:10123000214B10B4DA6F1368506819780478507A2B
:10124000137A044201EA03011BD0937A03F00303EB
:1012500009B143F0040343F008039910013B917274
:101260000D2B0BD8DFE803F021071B070A152121FE
:10127000150A071B0721D368013BD3605DF8044BB7
:101280007047937A03F003030029E6D043F0040388
:10129000E3E7D3685DF8044B023BD3607047D36843
:1012A0005DF8044B0233D3607047D3685DF8044B9C
:1012B0000133D360704700BFD4100020214B10B41D
:1012C000D3F880201368506819780478507A137A1C
:1012D000044201EA03011BD0937A03F0030309B12E
:1012E00043F0040343F008039910013B91720D2B66
:1012F0000BD8DFE803F021071B070A152121150A87
:10130000071B0721D368013BD3605DF8044B70478E
:10131000937A03F003030029E6D043F00403E3E7E4
:10132000D3685DF8044B023BD3607047D3685DF827
:10133000044B0233D3607047D3685DF8044B01332C
:10134000D3607047D4100020214B10B4D3F8842010
:101350001368506819780478507A137A044201EAC5
:1013600003011BD0937A03F0030309B143F0040394
:1013700043F008039910013B91720D2B0BD8DFE865
:1013800003F021071B070A152121150A071B072156
:10139000D368013BD3605DF8044B7047937A03F048
:1013A00003030029E6D043F00403E3E7D3685DF8C4
:1013B000044B023BD3607047D3685DF8044B0233A3
:1013C000D3607047D3685DF8044B0133D360704736
:1013D000D4100020214B10B4D3F888201368506833
:1013E00019780478507A137A044201EA03011BD079
:1013F000937A03F0030309B143F0040343F00803B5
:101400009910013B91720D2B0BD8DFE803F02107F7
:101410001B070A152121150A071B0721D368013B69
:10142000D3605DF8044B7047937A03F003030029FF
:10143000E6D043F00403E3E7D3685DF8044B023BD6
:10144000D3607047D3685DF8044B0233D3607047B4
:10145000D3685DF8044B0133D3607047D41000208B
:10146000214B10B4D3F88C20136850681978047895
:10147000507A137A044201EA03011BD0937A03F0F5
:10148000030309B143F0040343F008039910013B3F
:1014900091720D2B0BD8DFE803F021071B070A150B
:1014A0002121150A071B0721D368013BD3605DF892
:1014B000044B7047937A03F003030029E6D043F00E
:1014C0000403E3E7D3685DF8044B023BD360704745
:1014D000D3685DF8044B0233D3607047D3685DF87E
:1014E000044B0133D3607047D4100020214B10B45B
:1014F000D3F890201368506819780478507A137ADA
:10150000044201EA03011BD0937A03F0030309B1FB
:1015100043F0040343F008039910013B91720D2B33
:101520000BD8DFE803F021071B070A152121150A54
:10153000071B0721D368013BD3605DF8044B70475C
:10154000937A03F003030029E6D043F00403E3E7B2
:10155000D3685DF8044B023BD3607047D3685DF8F5
:10156000044B0233D3607047D3685DF8044B0133FA
:10157000D3607047D4100020214B10B4D3F89420CE
:101580001368506819780478507A137A044201EA93
:1015900003011BD0937A03F0030309B143F0040362
:1015A00043F008039910013B91720D2B0BD8DFE833
:1015B00003F021071B070A152121150A071B072124
:1015C000D368013BD3605DF8044B7047937A03F016
:1015D00003030029E6D043F00403E3E7D3685DF892
:1015E000044B023BD3607047D3685DF8044B023371
:1015F000D3607047D3685DF8044B0133D360704704
:10160000D4100020214B10B4D3F8982013685068F0
:1016100019780478507A137A044201EA03011BD046
:10162000937A03F0030309B143F0040343F0080382
:101630009910013B91720D2B0BD8DFE803F02107C5
:101640001B070A152121150A071B0721D368013B37
:10165000D3605DF8044B7047937A03F003030029CD
:10166000E6D043F00403E3E7D3685DF8044B023BA4
:10167000D3607047D3685DF8044B0233D360704782
:10168000D3685DF8044B0133D3607047D410002059
:10169000214B10B4D3F89C20136850681978047853
:1016A000507A137A044201EA03011BD0937A03F0C3
:1016B000030309B143F0040343F008039910013B0D
:1016C00091720D2B0BD8DFE803F021071B070A15D9
:1016D0002121150A071B0721D368013BD3605DF860
:1016E000044B7047937A03F003030029E6D043F0DC
:1016F0000403E3E7D3685DF8044B023BD360704713
:10170000D3685DF8044B0233D3607047D3685DF84B
:10171000044B0133D3607047D4100020214B10B428
:10172000D3F8A0201368506819780478507A137A97
:10173000044201EA03011BD0937A03F0030309B1C9
:1017400043F0040343F008039910013B91720D2B01
:101750000BD8DFE803F021071B070A152121150A22
:10176000071B0721D368013BD3605DF8044B70472A
:10177000937A03F003030029E6D043F00403E3E780
:10178000D3685DF8044B023BD3607047D3685DF8C3
:10179000044B0233D3607047D3685DF8044B0133C8
:1017A000D3607047D4100020214B10B4D3F8A4208C
:1017B0001368506819780478507A137A044201EA61
:1017C00003011BD0937A03F0030309B143F0040330
:1017D00043F008039910013B91720D2B0BD8DFE801
:1017E00003F021071B070A152121150A071B0721F2
:1017F000D368013BD3605DF8044B7047937A03F0E4
:1018000003030029E6D043F00403E3E7D3685DF85F
:10181000044B023BD3607047D3685DF8044B02333E
:10182000D3607047D3685DF8044B0133D3607047D1
:10183000D4100020214B10B4D3F8A82013685068AE
:1018400019780478507A137A044201EA03011BD014
:10185000937A03F0030309B143F0040343F0080350
:101860009910013B91720D2B0BD8DFE803F0210793
:101870001B070A152121150A071B0721D368013B05
:10188000D3605DF8044B7047937A03F0030300299B
:10189000E6D043F00403E3E7D3685DF8044B023B72
:1018A000D3607047D3685DF8044B0233D360704750
:1018B000D3685DF8044B0133D3607047D410002027
:1018C000214B10B4D3F8AC20136850681978047811
:1018D000507A137A044201EA03011BD0937A03F091
:1018E000030309B143F0040343F008039910013BDB
:1018F00091720D2B0BD8DFE803F021071B070A15A7
:101900002121150A071B0721D368013BD3605DF82D
:10191000044B7047937A03F003030029E6D043F0A9
:101920000403E3E7D3685DF8044B023BD3607047E0
:10193000D3685DF8044B0233D3607047D3685DF819
:10194000044B0133D3607047D4100020214B10B4F6
:10195000D3F8B0201368506819780478507A137A55
:10196000044201EA03011BD0937A03F0030309B197
:1019700043F0040343F008039910013B91720D2BCF
:101980000BD8DFE803F021071B070A152121150AF0
:10199000071B0721D368013BD3605DF8044B7047F8
:1019A000937A03F003030029E6D043F00403E3E74E
:1019B000D3685DF8044B023BD3607047D3685DF891
:1019C000044B0233D3607047D3685DF8044B013396
:1019D000D3607047D4100020214B10B4D3F8B4204A
:1019E0001368506819780478507A137A044201EA2F
:1019F00003011BD0937A03F0030309B143F00403FE
:101A000043F008039910013B91720D2B0BD8DFE8CE
:101A100003F021071B070A152121150A071B0721BF
:101A2000D368013BD3605DF8044B7047937A03F0B1
:101A300003030029E6D043F00403E3E7D3685DF82D
:101A4000044B023BD3607047D3685DF8044B02330C
:101A5000D3607047D3685DF8044B0133D36070479F
:101A6000D4100020214B10B4D3F8B820136850686C
:101A700019780478507A137A044201EA03011BD0E2
:101A8000937A03F0030309B143F0040343F008031E
:101A90009910013B91720D2B0BD8DFE803F0210761
:101AA0001B070A152121150A071B0721D368013BD3
:101AB000D3605DF8044B7047937A03F00303002969
:101AC000E6D043F00403E3E7D3685DF8044B023B40
:101AD000D3607047D3685DF8044B0233D36070471E
:101AE000D3685DF8044B0133D3607047D4100020F5
:101AF000214B10B4D3F8BC201368506819780478CF
:101B0000507A137A044201EA03011BD0937A03F05E
:101B1000030309B143F0040343F008039910013BA8
:101B200091720D2B0BD8DFE803F021071B070A1574
:101B30002121150A071B0721D368013BD3605DF8FB
:101B4000044B7047937A03F003030029E6D043F077
:101B50000403E3E7D3685DF8044B023BD3607047AE
:101B6000D3685DF8044B0233D3607047D3685DF8E7
:101B7000044B0133D3607047D410002070B5044685
:101B800008460D461BF03CF82368024629462046CD
:101B90005B68BDE87040184738B5044608460D46F6
:101BA0001BF02EF82368024629465B6820469847BA
:101BB0000546204616F070FE284438BD38B5054667
:101BC00016F0D0FE0446284616F066FE204438BDC6
:101BD00038B5C9B2054616F0CFFE0446284616F0C1
:101BE0005BFE204438BD00BF10B4036841681A781A
:101BF0000C78417A037A0C4202EA03021BD0837A02
:101C000003F003030AB143F0040343F008039A10FE
:101C1000013B82720D2B0BD8DFE803F021071B0775
:101C20000A152121150A071B0721C368013BC36060
:101C30005DF8044B7047837A03F00303002AE6D073
:101C400043F00403E3E7C3685DF8044B023BC36061
:101C50007047C3685DF8044B0233C3607047C368C4
:101C60005DF8044B0133C360704700BF08B5034BF8
:101C7000D3F8EC00FFF7B8FF08BD00BFD410002078
:101C800008B5034BD3F8E800FFF7AEFF08BD00BF6F
:101C9000D410002008B5034BD3F8E400FFF7A4FFED
:101CA00008BD00BFD410002008B5034BD3F8E000F6
:101CB000FFF79AFF08BD00BFD410002008B5034B02
:101CC000D3F8DC00FFF790FF08BD00BFD410002060
:101CD00008B5034BD3F8D800FFF786FF08BD00BF57
:101CE000D410002008B5034BD3F8D400FFF77CFFD5
:101CF00008BD00BFD410002008B5034BD3F8D000B6
:101D0000FFF772FF08BD00BFD410002008B5034BD9
:101D1000D3F8CC00FFF768FF08BD00BFD410002047
:101D200008B5034BD3F8C800FFF75EFF08BD00BF3E
:101D3000D410002008B5034BD3F8C400FFF754FFBC
:101D400008BD00BFD410002008B5034BD3F8C00075
:101D5000FFF74AFF08BD00BFD410002008B5024BB2
:101D6000186AFFF741FF08BDD410002008B5024BE8
:101D7000D869FFF739FF08BDD410002008B5024B21
:101D80009869FFF731FF08BDD410002008B5024B59
:101D90005869FFF729FF08BDD410002008B5024B91
:101DA0001869FFF721FF08BDD410002008B5024BC9
:101DB000D868FFF719FF08BDD410002008B5024B02
:101DC0009868FFF711FF08BDD410002008B5024B3A
:101DD0005868FFF709FF08BDD410002008B5024B72
:101DE0001868FFF701FF08BDD410002008B50B46A6
:101DF0003B2800F2C682DFE810F0BB02B202A90263
:101E0000A00297028E0285027C0273026A026102BE
:101E100058024F0246023D0234022B0222021902EE
:101E200010020702AE01A5019C0193018A01810104
:101E300078016F0166015D0154014A0140013601DC
:101E40002C01220118010E010401FA00F000E60045
:101E5000DC00D200C800BE00B400AA00A0009600BA
:101E60008C00820078006E0064005A00500046002A
:101E70003C00BD4ABD49C2F8EC303B20042214F0BE
:101E80009FFB012008BDB84AB949C2F8E8303A20A2
:101E9000042214F095FB012008BDB34AB549C2F8ED
:101EA000E4303920042214F08BFB012008BDAE4A37
:101EB000B149C2F8E0303820042214F081FB01203F
:101EC00008BDA94AAD49C2F8DC303720042214F01D
:101ED00077FB012008BDA44AA949C2F8D8303620B2
:101EE000042214F06DFB012008BD9F4AA549C2F8E9
:101EF000D4303520042214F063FB012008BD9A4A37
:101F0000A149C2F8D0303420042214F059FB01203A
:101F100008BD954A9D49C2F8CC303320042214F004
:101F20004FFB012008BD904A9949C2F8C8303220C1
:101F3000042214F045FB012008BD8B4A9549C2F8E4
:101F4000C4303120042214F03BFB012008BD864A36
:101F50009149C2F8C0303020042214F031FB012036
:101F600008BD814A8D49C2F8BC302F20042214F0EC
:101F700027FB012008BD7C4A8949C2F8B8302E20D1
:101F8000042214F01DFB012008BD774A8549C2F8E0
:101F9000B4302D20042214F013FB012008BD724A36
:101FA0008149C2F8B0302C20042214F009FB012032
:101FB00008BD6D4A7D49C2F8AC302B20042214F0D4
:101FC000FFFA012008BD684A7949C2F8A8302A20E2
:101FD000042214F0F5FA012008BD634A7549C2F8DD
:101FE000A4302920042214F0EBFA012008BD5E4A37
:101FF0007149C2F8A0302820042214F0E1FA01202F
:1020000008BD594A6D49C2F89C302720042214F0BB
:10201000D7FA012008BD544A6949C2F898302620F1
:10202000042214F0CDFA012008BD4F4A6549C2F8D8
:1020300094302520042214F0C3FA012008BD4A4A36
:102040006149C2F890302420042214F0B9FA01202A
:1020500008BD454A5D49C2F88C302320042214F0A3
:10206000AFFA012008BD404A5949C2F88830222001
:10207000042214F0A5FA012008BD3B4A5549C2F8D4
:1020800084302120042214F09BFA012008BD364A36
:102090005149C2F880302020042214F091FA012026
:1020A00008BD314A4D49D3671F20042214F088FA35
:1020B000012008BD2C4A4A4993671E20042214F0CF
:1020C0007FFA012008BD284A464953671D20042293
:1020D00014F076FA012008BD234A434913671C20F7
:1020E000042214F06DFA012008BD1F4A3F49D3664F
:1020F0001B20042214F064FA012008BD1A4A3C494E
:1021000093661A20042214F05BFA012008BD164AD7
:10211000384953661920042214F052FA012008BDF0
:10212000114A354913661820042214F049FA012097
:1021300008BD0D4A3149D3651720042214F040FA36
:10214000012008BD084A2E4993651620042214F088
:1021500037FA012008BD044A2A4953651520042294
:1021600014F02EFA012008BDD41000206D1C0000D0
:10217000811C0000951C0000A91C0000BD1C000073
:10218000D11C0000E51C0000F91C00000D1D000022
:10219000211D0000351D0000491D0000F11A00003E
:1021A000651A0000D91900004D190000C11800007F
:1021B00035180000A91700001D1700009116000037
:1021C0000516000079150000ED14000061140000F0
:1021D000D513000049130000BD12000031120000A9
:1021E000A5110000191100008D1000000110000061
:1021F000750F0000E90E00005D0E0000D10D00001B
:10220000450D0000B90C00005F4A604913651420B9
:10221000042214F0D5F9012008BD5B4A5C49D3645F
:102220001320042214F0CCF9012008BD564A594964
:1022300093641220042214F0C3F9012008BD524A0D
:10224000554953641120042214F0BAF9012008BD45
:102250004D4A524913641020042214F0B1F90120B0
:1022600008BD494A4E49D3630F20042214F0A8F94F
:10227000012008BD444A4B4993630E20042214F008
:102280009FF9012008BD404A474953630D200422AD
:1022900014F096F9012008BD3B4A444913630C2011
:1022A000042214F08DF9012008BD374A4049D36259
:1022B0000B20042214F084F9012008BD324A3D4964
:1022C00093620A20042214F07BF9012008BD2E4AF3
:1022D000394953620920042214F072F9012008BD23
:1022E000294A364913620820042214F069F90120B2
:1022F00008BD254A3249D3610720042214F060F951
:10230000012008BD204A2F4993610620042214F0C1
:1023100057F9012008BD1C4A2B49536105200422AE
:1023200014F04EF9012008BD174A28491361042210
:10233000104614F045F9012008BD134A2449D36022
:102340000320042214F03CF9012008BD0E4A214963
:1023500093600220042214F033F9012008BD0A4AD8
:102360001D4953600120042214F02AF9012008BD00
:10237000054A1A4913600020042214F021F90120B3
:1023800008BD002008BD00BFD41000202D0C0000A7
:10239000A10B0000150B0000890A0000FD090000D8
:1023A00071090000E508000059080000CD07000091
:1023B00041070000B5060000290600005D1D000071
:1023C0006D1D00007D1D00008D1D00009D1D000085
:1023D000AD1D0000BD1D0000CD1D0000DD1D000075
:1023E000024B1B68DB6F1B6B1B697047C487FF1FA9
:1023F0002DE9F0411D4B1D68854282B016468CB216
:1024000019D005B2C4F590730022294600921BB280
:102410000A2217480DF0CAF9164B15481B8800937D
:10242000C4F59572A31B1BB212B229460DF0BEF97A
:1024300002B0BDE8F081C4F595772DB23FB24FF4FC
:1024400078483B462946CDF800800A2208480DF01E
:10245000ADF9A31B3A461BB2CDF8008029460448CB
:102460000DF0A4F902B0BDE8F08100BFF807FF1F2E
:1024700090C9FF1F3408FF1F2DE9F043364F374E38
:102480003868374D83B019F0B7F841EC100B17F0EE
:1024900093F80022334B51EC100B19F023F919F08B
:1024A000F9FBA8463060002431E058F8240019F008
:1024B000A3F841EC100B17F07FF80022294B51ECE8
:1024C000100B19F00FF919F0E5FB00EBC000264ADC
:1024D0003168DFF8A0E04001B0FBF1F1B1F5907F89
:1024E0008ABF4FF490711160116055F824203B6849
:1024F00002EBC20252012046B2FBF3F31A46CEF8B9
:102500000030FFF775FF0134B4F5D27F20D055F8C5
:102510002430012BC9D800230FFA84F900934946CF
:102520004FF490730A2211480DF040F9104B1B68CC
:10253000A342E8D14FF47843009349464FF4907397
:102540000A220A4801340DF031F9B4F5D27FDED108
:1025500003B0BDE8F08300BFC887FF1F08CDFF1F91
:10256000BC1AFF1F000059401C24FF1F90C9FF1F09
:10257000F807FF1F600D002010B50F4B1C68844248
:1025800082B00B46C1F595720AD045F21F0401B224
:1025900012B21BB2009409480DF008F902B010BD48
:1025A0004FF47840009021B212B21BB203480DF0F4
:1025B000FDF802B010BD00BFF807FF1F90C9FF1F54
:1025C000F8B50B4F0B4E0C4D002457F82420336800
:1025D00002EBC20252012046B2FBF3F3013419466A
:1025E0002B60FFF7C9FFB4F5D27FEED1F8BD00BF75
:1025F000BC1AFF1FC887FF1F1C24FF1F00B5074818
:1026000083B0B0F92020B0F91E3000920022019270
:1026100011460DF06FFB03B05DF804FB90C9FF1F7E
:10262000DFF878C000232DE9F0411A4FCCF80030D4
:102630001A4647F823200133B3F5007FF9D1164E2F
:102640004FF0000E01F1FF38002921DDB0F5805F69
:102650001EDA034608EB0005002202E0B3F5805FB6
:1026600006D056F82340AB42224403F10103F5D1D2
:102670000844B0F5805F47F82E2004DA0EF1010E11
:10268000BEF5007FE0D10023CCF80030BDE8F0813A
:102690000022EDE7BC1AFF1F5C24FF1F1C24FF1F54
:1026A00000233048194640F823100133B3F5805F0A
:1026B0004FF00002F7D12C4B2C482D49F0B52D4D91
:1026C0002D4C1A602D4B2A70226002600A602C4F3C
:1026D0002C4E2D4D2D4C2E482E491A602E4B3A6013
:1026E00032602A60226002600A602C4F2C4E2D4D11
:1026F0002D4C2E482E491A602E4B3A6032602A60CB
:10270000226002600A602C4F2C4E2D4D2D4C2E481D
:102710002E491A603C23236003603A6032602A60CD
:102720000B602B4F2B4E2C4D2C4C2D482D493B60D4
:1027300033602B6023600360DFF8C8E00B602A4F32
:102740002A4E2B4D2B4C2C482C492D4B3A704FF0D8
:10275000B40CCEF800C032702A70227002700A7079
:102760001A70F0BD5C24FF1F680D0020340D00209E
:10277000380D00209867FF1F8CC9FF1F480D0020EF
:102780003C0D0020400D0020440D00204C0D002089
:10279000500D0020540D00209023FF1FE023FF1F49
:1027A000E423FF1F8C23FF1F9423FF1F9823FF1F89
:1027B0009C23FF1FB023FF1FA023FF1FA423FF1F85
:1027C000AC23FF1F8808FF1F8408FF1F9808FF1F06
:1027D000C808FF1FC408FF1FC008FF1FBC08FF1F59
:1027E000B808FF1FB408FF1FD087FF1FA823FF1FD3
:1027F000D817FF1F8823FF1FB423FF1F4C17FF1F8D
:1028000080C9FF1FD408FF1FF0B52949294F2A4A64
:102810002A4E2B4D2B4C2C48DFF820C1DFF820E14D
:1028200000230B603B602949294F1360294A33601C
:102830002B60236003600B603B60274E274D284CC4
:1028400028482949294F1360294A33602B602360A7
:1028500003600B603B60274E274D284C28482949D0
:10286000294F13703C2202600A603A6033602B608B
:102870002370264E264D274C27482849284F326082
:102880002A60226002600A603A60264E264D274C7C
:1028900027482849284ACCF80030B427CEF8003021
:1028A00037602B70237003700B701370F0BD00BF86
:1028B0003C0D0020400D0020500D0020440D002054
:1028C000480D00204C0D0020540D0020E023FF1F78
:1028D000E423FF1F9823FF1F8C23FF1F9023FF1F5C
:1028E0009423FF1F9C23FF1FA023FF1FA423FF1F70
:1028F000A823FF1FAC23FF1FB023FF1FD087FF1F9C
:102900008808FF1F8408FF1F9808FF1FC808FF1FC3
:10291000C408FF1FC008FF1FBC08FF1FB808FF1F27
:10292000B408FF1FD408FF1FD817FF1F8823FF1FFD
:10293000B423FF1F4C17FF1F80C9FF1F340D002059
:10294000380D0020544A554BD2ED007AD3ED006A81
:10295000534B27EEA76A66EEA63AD3ED004A76EE11
:10296000632A64EEA40A77EEE65A22EEE47A23EEB6
:10297000E74AA0EEA57A0022A6EE864A37EE047A50
:10298000B5EE407AF1EE10FA79D04649464A474B07
:10299000D2ED001A93ED001A91ED002A9FED440A42
:1029A00025EE825A71EEC15AF1EE644A66EEA16AD2
:1029B00067EE817AA4EEA55A36EEE73A33EE055A71
:1029C00085EE073AB0EEC35AB4EE405AF1EE10FA73
:1029D00048DCB4EE433AF1EE10FA47D6354B83EDBE
:1029E000003A26EE016A60EEA55AA3EEE16AE2EE35
:1029F000C25ADFED2F3A75EE865A85EE875AF0EE11
:102A0000C55AF4EE635AF1EE10FA03DD15EE103AF2
:102A1000002B2FDAB4EE455AF1EE10FA2AD6264BE7
:102A200083ED005A77EEE67ADFED215A67EEA07A61
:102A3000E4EE867AE4EE027AC7EE876AF0EEE67A92
:102A4000F4EE657AF1EE10FA03DD16EE903A002B03
:102A50001EDAF4EE666AF1EE10FA19D6174BC3EDE2
:102A6000006A704713EE103A002BB2DB114B0022C4
:102A70001A60B6E7104B4FF07E521A60D2E70D484D
:102A80000D490E4B02604FF07E5008601A6070478F
:102A90000A4B00221A607047E408FF1FE808FF1F76
:102AA000E007FF1F6C08FF1F7008FF1F7408FF1F5F
:102AB000FFFF7F7F580D00202C08FF1FD017FF1F3E
:102AC00030B583B001AD0424204613F027FA013459
:102AD000082C05F8010BF7D1124A134B92ED007A3E
:102AE0009DED016AD3ED006A104A114B92ED005A38
:102AF000D3ED005A66EE077A26EE267AF7EE006AE4
:102B0000E6EE077A77EE857A77EEE57AF0EEE77A09
:102B1000F4EEE67AF1EE10FA94BF01204FF0FF30A8
:102B200003B030BD2C08FF1F580D0020D017FF1F29
:102B30007008FF1F38B51B4C237C012B2CD972B6B3
:102B4000184DE36862B61849184A0868136098423D
:102B500021D0002B164816DB0068B3EB800F05DD93
:102B60000023136072B6E36062B61368114C0B6009
:102B7000002B1A46B8BFDA1C921022603220BDE842
:102B8000384014F035B803689B00136072B6EB60F0
:102B900062B61368E0E738BD72B62046FFF724F846
:102BA000CEE700BFBC17FF1FDC07FF1F7CC9FF1F5C
:102BB000D417FF1F740D00202DE9F04785B28CB2A9
:102BC00084B02E4E04F1210305F114024FF4784E27
:102BD00007B212B218B2A5F11403CDF80CE00192BD
:102BE00002900AB20090394630461BB2A5F10209A4
:102BF0000EF0AAFD4FF6FF780FFA89F904F10902E9
:102C00000E23494630468DE8080112B205230DF027
:102C100071F804F1FF3A0523494604F11A02A5F1BF
:102C20001509223424B2304600930FFA8AFA0FFABB
:102C300089F9CDF8048012B215350DF05BF82DB28C
:102C400052464B46394630468DE8100111F032F9B4
:102C5000524639462B4630460094CDF8048011F098
:102C600029F900944B4622462946CDF80480304687
:102C700011F020F904B0BDE8F08700BF90C9FF1F34
:102C80002DE9F0438DB2264E05F1020885B04CF2D5
:102C900018690FFA88F8052384B242468DE80802C5
:102CA0000F46042301B230460DF024F8A31D05F1B0
:102CB00008001BB23FB200B2EA1CA11C00970193AE
:102CC0000290CDF80C90304612B209B204F1080718
:102CD0000EF03AFD3FB24FF0000E6A1C072312348B
:102CE00006358DE808403946304624B22DB212B27E
:102CF0000D230CF0FFFF23464246394630468DE84F
:102D0000200211F0D7F8CDF8008023462A46394634
:102D1000CDF80490304611F0CDF805B0BDE8F08351
:102D200090C9FF1F2DE9F04F8DB2354E05F1020A13
:102D300085B04CF218670FFA8AFA052384B28846E8
:102D4000524601B28DE88800304604230CF0D2FFD1
:102D5000A31D05F1080205F1030E0FFA88F01BB25E
:102D600012B2A11C00900193029230460FFA8EF22B
:102D7000039709B204F1080B0EF0E6FC0FFA8BFB87
:102D80004FF0000E6A1C072304F10D0805F1040939
:102D90008DE808400FFA88F80FFA89F9594630464D
:102DA00012B20D2306350CF0A5FF2DB2524659463E
:102DB000434630460197CDF80090123411F07AF86E
:102DC00024B2594643462A463046CDF80090019732
:102DD00011F070F85246234641463046CDF8009037
:102DE000019711F067F8CDF8009023462A46414636
:102DF0000197304611F05EF805B0BDE8F08F00BFD6
:102E000090C9FF1F2DE9F04F8DB2364E05F1020932
:102E100085B00FFA89F94CF21868052384B28DE861
:102E200008014A460F46042301B230460CF062FF07
:102E3000A31D05F108001BB23FB200B2EA1CA11CA1
:102E40000097CDF80C800193029012B2304609B27F
:102E50000EF07AFC04F1080B002707230FFA8BFB16
:102E60008DE888006A1C04F10D0705F104083FB2E3
:102E70000FFA88F840F2FF7A5946304612B20D2315
:102E800006350CF037FF2DB24A4659463B463046D0
:102E9000CDF80080CDF804A0123411F00BF824B264
:102EA00059463B462A463046CDF80080CDF804A06E
:102EB00011F000F84A46234639463046CDF80080E6
:102EC000CDF804A010F0F6FFCDF8008023462A4686
:102ED0003946CDF804A0304610F0ECFF05B0BDE84F
:102EE000F08F00BF90C9FF1F2DE9F04F504B1B78AA
:102EF00083B0002B48D1002A00F08F80002A40DDEB
:102F00008FB285B207F10A0B96B20FFA80FA0CB2B3
:102F10000FFA8BFB07F1030905F105080FFA88F892
:102F200022460FFA89F95346514642480196CDF898
:102F300000B0073710F0BEFF3FB22246434651466D
:102F40003C480196CDF800906C1F10F0B3FF24B2FE
:102F50005A465146434637480097019610F0AAFF5B
:102F600023463A4641463348CDF80090019610F08A
:102F7000A1FF009723464A46414601962D4810F08E
:102F800099FF03B0BDE8F08F002AB7D18EB206F1E9
:102F90000A0A0CB20FFA8AFA0FFA80F940F2FF78A7
:102FA00085B26F1D06F1030B3FB20FFA8BFB224671
:102FB0004B464946CDF800A0CDF804801D480736A1
:102FC00010F078FF36B222463B464946CDF80480E1
:102FD000CDF800B01748053D10F06CFF2DB25246F9
:102FE00049463B468DE84001124810F063FF2B46EE
:102FF00032463946CDF800B0CDF804800D4810F0C7
:1030000059FF00962B465A463946CDF804800948A8
:1030100010F050FF03B0BDE8F08F8EB206F10A0A3F
:103020000CB20FFA8AFA0FFA80F947F6EF38B7E7D1
:10303000B81AFF1F90C9FF1F2DE9F04F3A4B85B218
:103040001B7805F10A0785B00A4604B23FB20FFAB1
:1030500081FA002B64D14FF4404692B23B462146A0
:103060000292CDF800A052460196304810F022FF9F
:10307000029B019603F10A080FFA88F83B46424684
:103080002146CDF80080294810F014FF02990196DE
:1030900001F105090FFA89F9EB1C05F1010B043563
:1030A0001BB2524621460FFA8BFB2DB2CDF8009091
:1030B0001E48039310F0FEFE2B4659465246CDF8AB
:1030C00000900196194810F0F5FE0399CDF80080A4
:1030D00023464A460196154810F0ECFE5B464A46E8
:1030E0002946CDF800800196104810F0E3FE029CBE
:1030F0000196A01C00B252463B46394600900B4850
:1031000010F0D8FE04F108031BB28DE848004246D7
:103110003B463946054810F0CDFE05B0BDE8F08FBE
:1031200040F2FF7699E700BFBC87FF1F90C9FF1FE1
:103130002DE9F0478DB282B0374E05F1040905F153
:10314000110197B20FFA89F903B209B284B24A4663
:10315000009130461946019710F0ACFE631C05F152
:1031600010001BB200B219464A4600900197304643
:1031700010F0A0FE05F10E0804F108030FFA88F81C
:103180001BB219464A46CDF800803046019710F030
:1031900091FE04F109031BB2CDF800804A4619469E
:1031A0003046019710F086FE04F1020904F1040A8A
:1031B00005F10D020FFA89F90FFA8AFA12B249469F
:1031C000534600923046019710F074FE534649462C
:1031D000CDF8008042463046019710F06BFE04F1B6
:1031E000050805F10C0207340FFA88F824B212B270
:1031F0002346414600923046019710F05BFE05F1F0
:103200000B0212B2234641468DE88400304610F08E
:1032100051FE02B0BDE8F08790C9FF1F10B512F053
:10322000D7F8092827DC324C303030236070237007
:1032300012F0DEF8092831DC30303023E070A37062
:1032400012F096F809283BDC30303023607123718E
:1032500012F09EF8092845DD264BC21783FB0013A8
:10326000C2EBA30303EB8302A0EB42003030303308
:10327000E071A37110BD1F4B1D4C83FB0032C317BF
:10328000C3EBA20303EB8302A0EB420030303033E8
:103290006070237012F0ACF80928CDDD154BC21711
:1032A00083FB0013C2EBA30303EB8302A0EB4200FA
:1032B00030303033E070A37012F05AF80928C3DDC3
:1032C0000C4BC21783FB0013C2EBA30303EB830277
:1032D000A0EB4200303030336071237112F058F8A7
:1032E0000928B9DC30303023E071A37110BD00BF74
:1032F000E807FF1F676666662DE9F0432F4E00233F
:1033000089B00746336008E03368684601333360AC
:1033100008F08EFE684608F07FFE684601223946B6
:1033200009F082F8684608F091FE0028ECD1384692
:1033300009F0D4F8684608F06FFE3568B5F1FE6F05
:1033400039D94FF0FF3015F00FFF102380E8280027
:1033500000F108096C1E4DB14D462846013C002184
:1033600015F088FD631C05F11005F6D13368DFF810
:103370005080002BC8F800901ADD00240122394645
:10338000684609F051F8D8F80030684603EB041598
:1033900008F044FE0146284615F020FE684608F075
:1033A00047FE684608F038FE33680134A342E5DC86
:1033B00009B0BDE8F08328010830C4E70CCDFF1F39
:1033C000F40D002008B5C8224FF4DC71112015F06F
:1033D0006DFCDC2013F00CFCC8224FF4DC711120D2
:1033E00015F064FCDC2013F003FC1120C8224FF41C
:1033F000DC7115F05BFCDC20BDE8084013F0F8BB85
:1034000070B594B00CA801234F4A504908F07CFFD6
:103410000CA808F01BFE20B90CA808F0FDFD14B0A4
:1034200070BD68464A494B4E15F024FD0CA808F0C3
:103430005FFD90B10CA808F079FDC3B2392B194695
:10344000684606D80A2B13D015F00AFE029B202BE3
:10345000ECD9FFF7B7FFFFF723F90CA808F0E8FD58
:10346000684615F0C7FC0CA808F0D6FD14B070BD76
:103470002C21684615F034FE05466C1C03464FF0BF
:103480000002694604A8334CE3D015F039FE6A1CEB
:10349000029B694608A815F033FE04A815F054FEF7
:1034A000054608A815F050FE294946F8250068464B
:1034B00015F094FD08A815F09DFC04A815F09AFCE1
:1034C00040F6FF739D42B1D1234B20681860002263
:1034D0001346226054F823100133B3F5805F0A4489
:1034E000F8D140BB1D4B18601D4B1E4A186811686F
:1034F0001D4CFFF795F81D4800232360264605461E
:1035000050F823102268914284BF55F8232032607E
:103510000133B3F5007FF3D12368012B01D9FEF706
:10352000ABFF236863B94FF47A7013F061FB0CA80A
:1035300008F07EFD91E7094BB2FBF0F21A60D3E789
:10354000FFF73EF8EFE700BFE807FF1F180E002067
:10355000E8B004005C24FF1F680D0020AC1AFF1FB8
:103560001424FF1F7808FF1FC887FF1FBC1AFF1F06
:1035700030B595B00CA80123324A334908F0C4FE97
:103580000CA808F063FD20B90CA808F045FD15B0A3
:1035900030BD68462D492E4D15F06CFC0CA808F086
:1035A000A7FC80B10CA808F0C1FCC3B2392B1946A6
:1035B000684606D80A2B11D015F052FD029B202B2D
:1035C000ECD9FFF7FFFE0CA808F032FD684615F0B5
:1035D00011FC0CA808F020FD15B030BD2C21684668
:1035E00015F07EFD0446B4F1FF3F03464FF00002A4
:1035F000694604A8E5D015F083FD621C029B69466C
:1036000008A815F07DFD04A815F09EFD044608A845
:1036100015F09AFD0D4945F82400684615F0DEFCCA
:1036200008A815F0E7FB04A815F0E4FB40F6FF73CB
:103630009C42B3D14FF47A7013F0DAFA0CA808F078
:10364000F7FCC0E738260400180E0020E8B004009C
:103650009C88FF1F2DE9F0412DED028B98B008A842
:1036600008F0CCFCAB49AC4808F0C2FE002840F0A2
:103670001E81AA49A84808F0BBFE002840F09380AC
:10368000A749A54808F0B4FE50B908A808F0D0FC36
:1036900008A808F0C1FC18B0BDEC028BBDE8F081B1
:1036A00010AD01239E4A9C49284608F02DFE9DF846
:1036B0004410129A9DF84C308DF824100A928DF81F
:1036C0002C3013A90DF12D030DF13A0211F8010F61
:1036D00003F8010B9342F9D1179B0F93284608F08A
:1036E0009BFC08A808F0B2FC0028CED068468D49A3
:1036F000DFED8D8ADFF834826C4615F0BBFB0026C7
:1037000008E015F0ADFC029B202B00F28081322EE8
:1037100000F05F8108A808F0EBFB002800F05C8156
:1037200008A808F003FCC3B2392B1946204600F262
:103730006E810A2BE5D12E21204615F0D1FC0746DB
:10374000B7F1FF3F0346214604A84FF0000200F006
:103750005E8115F0D5FC7A1C029B2146284615F0A7
:10376000CFFC04A815F0F0FC08EE100A284615F06E
:10377000EBFC07EE900AB8EEE77AB8EEC88AC7EE1F
:10378000287A08EB860367492046013677EE887A67
:10379000C3ED007A15F022FC284615F02BFB04A897
:1037A00015F028FBB3E710AD01235C4A5A492846BF
:1037B00008F0AAFD9DF84410129A9DF84C308DF83F
:1037C00024100A928DF82C3013A90DF12D030DF160
:1037D0003A0211F8010F03F8010B9342F9D1179B3C
:1037E0000F93284608F018FC08A808F02FFC0028C2
:1037F0003FF446AF68464B49DFED4B8ADFF8308136
:103800006C4615F037FB002608E015F029FC029BFA
:10381000202B00F20281322E00F0E58008A808F08B
:1038200067FB002800F0E28008A808F07FFBC3B225
:10383000392B1946204600F2F0800A2BE5D12E21C3
:10384000204615F04DFC0746B7F1FF3F03462146E1
:1038500004A84FF0000200F0E08015F051FC7A1C43
:10386000029B2146284615F04BFC04A815F06CFC81
:1038700008EE100A284615F067FC07EE900AB8EE2D
:10388000E77AB8EEC88AC7EE287A08EB860325499E
:103890002046013677EE887AC3ED007A15F09EFB5C
:1038A000284615F0A7FA04A815F0A4FAB3E710AD5E
:1038B0000123184A1849284608F026FD9DF84410AF
:1038C000129A9DF84C308DF824100A928DF82C3005
:1038D00013A90DF12D030DF13A0211F8010F03F8B0
:1038E000010B9342F9D1179B0F93284608F094FBE4
:1038F00008A808F0ABFB00283FF4BBAE68460949B6
:10390000DFED098ADFF82C806C4615F0B3FA00264B
:1039100019E000BF0808FF1F180E00204008FF1F15
:103920005408FF1FE8B00400286B6E4ED487FF1FB9
:10393000BC22FF1F40CCFF1F15F092FB029B202BE7
:1039400068D8322E59D008A808F0D2FA002857D0EB
:1039500008A808F0EBFAC3B2392B1946204659D80B
:103960000A2BE9D12E21204615F0BAFB0746B7F104
:10397000FF3F0346214604A84FF000024AD015F04D
:10398000BFFB7A1C029B2146284615F0B9FB04A810
:1039900015F0DAFB08EE100A284615F0D5FB07EE05
:1039A000900AB8EEE77AB8EEC88AC7EE287A08EB34
:1039B00086031B492046013677EE887AC3ED007AEC
:1039C00015F00CFB284615F015FA04A815F012FAAC
:1039D000B7E708A808F02CFB08A808F029FB204648
:1039E00015F008FA51E608A808F022FB08A808F02C
:1039F0001FFB204615F0FEF942E608A808F018FB68
:103A000008A808F015FB204615F0F4F931E6FFF799
:103A1000D9FCE1E7FFF7D6FCF2E7FFF7D3FCE5E7D7
:103A2000E8B004009F48A04AA04BA149D0ED004A4D
:103A3000D2ED006A93ED006A9E489FED9F4A91ED9A
:103A4000007AF0B59D4C012640F6E77107EE906ACA
:103A5000B8EEE75A192235EE045A03E001328A42E1
:103A600000F0128107EE902A02FB02F3F8EEE77AEB
:103A700005EE903A67EEA67AF8EEE55AE5EE877A1B
:103A800077EE867A74EEE77AF0EEE77AB4EEE75AEC
:103A9000F1EE10FAE2DB154601360B2E39D17A250C
:103AA0000121874B874FD3ED004A9FED834A3D604C
:103AB0004FF0010E40F6E77607EE90EAB8EEE75ACF
:103AC000192335EE045A03E00133B34200F0DF80DE
:103AD00007EE903A03FB03F2F8EEE77A05EE902A40
:103AE00067EEA67AF8EEE55AE5EE877A77EE867A03
:103AF00074EEE77AF0EEE77AB4EEE75AF1EE10FAF8
:103B0000E2DB0EF1010EBEF10B0F06D05A1CD3D032
:103B100006E06F1C9AD00021C3E740F26E2301211A
:103B2000694A6A4ED2ED004A9FED634A33604FF016
:103B3000000C4FF0010E40F6E77607EE90EAB8EE83
:103B4000E75A192335EE045A03E00133B34200F07B
:103B5000A18007EE903A03FB03F2F8EEE77A05EE58
:103B6000902A67EEA67AF8EEE55AE5EE877A77EEC8
:103B7000867A74EEE77AF0EEE77AB4EEE75AF1EE81
:103B800010FAE2DB0EF1010EBEF10A0F04DD4FF078
:103B9000010C614640F234555A1CCED04C4A136099
:103BA000BCF1000F7CD19FED444ADFED4A4A01266B
:103BB00040F6E77507EE906AB8EEE75A192335EE3E
:103BC000045A02E00133AB4267D007EE903A03FBA0
:103BD00003F2F8EEE77A05EE902A67EEA67AF8EEA1
:103BE000E55AE5EE877A77EE867A74EEE77AF0EEBC
:103BF000E77AB4EEE75AF1EE10FAE3DB01360B2E6A
:103C000002D05F1CD6D002E04FF43E7301219FED3D
:103C10002A4ADFED314A2360012540F6E77407EEBA
:103C2000905AB8EEE75A192335EE045A02E00133F0
:103C3000A34226D007EE903A03FB03F2F8EEE77AB0
:103C400005EE902A67EEA67AF8EEE55AE5EE877A59
:103C500077EE867A74EEE77AF0EEE77AB4EEE75A1A
:103C6000F1EE10FAE3DB01350B2D04D05A1CD6D04F
:103C7000036011B9F0BD90230360BDE8F040FFF789
:103C8000A1BB4FF0FF33EEE74FF0FF3504E74FF0F5
:103C9000FF3336E74FF0FF3374E74FF0FF33ADE704
:103CA0003D6080E7FC07FF1F2C08FF1FD017FF1F98
:103CB000580D00201024FF1F000000000C24FF1FDF
:103CC0000008FF1F9C67FF1F0408FF1FA067FF1F5E
:103CD000A467FF1F00003E440000104308B56422A3
:103CE0004FF45C71112014F0E1FF652012F080FFA9
:103CF000642240F21741112014F0D8FF652012F021
:103D000077FF1120642240F2275114F0CFFF652085
:103D1000BDE8084012F06CBF08B5C82240F2275138
:103D2000112014F0C3FFC92012F062FF1120DC2221
:103D300040F2174114F0BAFFDD20BDE8084012F050
:103D400057BF00BF70B594B0FFF768FA394B3A48D7
:103D500018603A4A3A490CA8132308F0D5FA0CA87F
:103D600008F074F920B90CA808F056F914B070BD29
:103D70003449354E08A815F07DF8344A3449354B9E
:103D800012681B68096804A801FB02310A2215F0B9
:103D9000B7F804A908A815F073F901462E4815F0E4
:103DA0000DF904A815F026F808A815F023F82A49FB
:103DB0000CA814F04BFD0CA814F06EFD01240A228F
:103DC0002146684615F088F8694604A815F066F89B
:103DD000224904A815F05CF90A2256F82410054679
:103DE00008A815F0A1F808A9284615F049F90146D8
:103DF000194815F0E3F808A814F0FCFF04A814F023
:103E0000F9FF684614F0F6FF13490CA814F01EFDE4
:103E100001340CA814F040FDB4F5805FCFD1FFF75A
:103E20007BFF0CA808F004F90CA808F0F5F814B012
:103E300070BD00BF840E0020B5040000E807FF1F1E
:103E4000180E0020482604005C24FF1F8CC9FF1FA9
:103E5000D808FF1F680D00204424FF1F4C260400D3
:103E6000F8B51248124F00253D602C4629462B46D6
:103E7000064650F823208A4203D956F823400125EC
:103E800021460133B3F5805FF3D165B9094B9942FF
:103E900008D9094C01232370FFF754FFFEF700FCFB
:103EA00000232370F8BD3C60F0E700BF5C24FF1FD7
:103EB0001824FF1F809698009867FF1F70B52B4944
:103EC0002B4894B008F094FA002849D1294B2A488D
:103ED0001860264A26490CA8132308F015FA0CA8E6
:103EE00008F0B4F8002836D0244E00240A222146D7
:103EF000684614F0F1FF694604A814F0CFFF20498A
:103F000004A815F0C5F80A2256F82410054608A89A
:103F100015F00AF808A9284615F0B2F80146194824
:103F200015F04CF808A814F065FF04A814F062FF1F
:103F3000684614F05FFF13490CA814F087FC0134A5
:103F40000CA814F0A9FCB4F5805FCFD1FFF7E4FE14
:103F50000CA808F06DF80CA808F05EF814B070BD5D
:103F60000249034808F052FAB0E700BF38260400BF
:103F7000180E0020840E0020B50400005C24FF1FF2
:103F80004C2604004424FF1F38B5352444F6B025E0
:103F90000121112012F012FE2B46013BFDD1002120
:103FA000112012F00BFE2B46013BFDD1013CEFD15D
:103FB000412443F638350121112012F0FFFD2B4634
:103FC000013BFDD10021112012F0F8FD2B46013BF1
:103FD000FDD1013CEFD1352444F6B025012111205B
:103FE00012F0ECFD2B46013BFDD10021112012F017
:103FF000E5FD2B46013BFDD1013CEFD138BD00BFB3
:104000002DE9F0472DED028B642082B0D54D12F0E2
:10401000EFFD00242E46204611F080FF0134042CD1
:1040200006F8010BF7D1D04E3746204611F076FF47
:104030000134082C07F8010BF7D1CC4FB8462046C5
:1040400011F06CFF01340C2C08F8010BF7D1D5ED01
:10405000007AC44BF4EE677AD6ED007AF1EE10FAEE
:1040600064BFC34A1A60F4EE677A6CBF4FF0010870
:104070004FF00008F1EE10FABB4B80F15082D7ED03
:10408000007ABA4BF4EE677AF1EE10FA80F14C82C6
:10409000DFF8E0A22424D146204611F03FFF01348E
:1040A000282C09F8010BF7D19AED008AB14BB4EE38
:1040B000488AF1EE10FA80F12B82DFEDAF7AB4EE90
:1040C000E78AF1EE10FA40F3E181F2EE047AB0EE05
:1040D000678ACAED007ADFF8A4A22924D1462046D7
:1040E00011F01CFF01342D2C09F8010BF7D1DAED8A
:1040F000007AA24BF4EE677AF1EE10FA80F11982A1
:104100009FED9F7AF4EEC77AF1EE10FA40F3B58195
:104110009FED9C7AF0EE477A8AED007AB0EE007A55
:10412000F0EE086AB0EE676AA8EE076A964B974A07
:10413000E8EE267A282082ED006AC3ED007A11F0BD
:10414000EDFE934B002840F078811870192011F093
:10415000E5FE08288F4C00F379812060002800F0EC
:1041600082811F2011F0DAFE642300FB03308A4AAB
:1041700044F620639842106000F29D81DFF81CA293
:104180001A24D146204611F0C9FE01341E2C09F82C
:10419000010BF7D1DAED007A804BF4EE677AF1EE9D
:1041A00010FA80F1CD81DFF8F8A12024D146204615
:1041B00011F0B4FE0134242C09F8010BF7D1DAED2B
:1041C000007A774BF4EE677AF1EE10FA80F19B817A
:1041D000182011F0A3FE022800F26181714B1870C3
:1041E000714B002840F01E814FF084421A606F49E5
:1041F0006F4B7048704A08601A60D5ED007AF5EE92
:10420000C07AF1EE10FA40F29E809FED6C7AF4EEE7
:10421000C77AF1EE10FA00F39680D6ED007AF5EE4B
:10422000C07AF1EE10FA7FD99FED647AF4EEC77A86
:10423000F1EE10FA78DCD7ED007AF5EEC07AF1EE07
:1042400010FA62D99FED5D7AF4EEC77AF1EE10FABA
:104250005BDC2D2011F062FE05462E2011F05EFE83
:10426000574E00EB05252F20356011F057FE044610
:10427000302011F053FE534B00EB042085421860B0
:1042800040F3B2800A2140F6F672322031601A60A3
:1042900011F044FE012840F2B9800021322011F0D3
:1042A00057FE494B00221A704849494B494808605B
:1042B0004FF07C521A60332011F030FE0446342057
:1042C00011F02CFE00EB0420A0F10A0246F29E132E
:1042D0009A4200F2FB80404B186007EE900A1620CD
:1042E000B8EEE70A12F0D8FB7F21162012F040FA50
:1042F0003A4B7F221A60B8F1000F01D0FFF762F845
:1043000002B0BDEC028BBDE8F08702A8344B40F848
:10431000043D042208213B6011F042FE0A2012F005
:1043200067FC4FF0010894E702A82E4B40F8043DCB
:1043300004221146336011F033FE0A2012F058FCBB
:104340004FF0010877E702A8094B40F8043D04222A
:1043500000212B6011F024FE0A2012F049FC4FF0DE
:1043600001085AE7E007FF1FE408FF1FE808FF1FE6
:104370000000D0423008FF1F0000C842D807FF1FCE
:104380000000964300001643B487FF1F3824FF1F28
:10439000BC87FF1F7808FF1FD808FF1F9408FF1F66
:1043A0007C08FF1F780D00206C08FF1F7008FF1F9E
:1043B0007408FF1F008025440080B64400F07F454C
:1043C000B008FF1F2808FF1F3C24FF1F1C08FF1F09
:1043D0002008FF1F0000A0403C08FF1FA408FF1F8B
:1043E0000080064500007A44092DDCBF0A223260B5
:1043F000B0F5805FA8BF40F6F6724FF03200A8BF5C
:104400001A6011F08BFD01283FF647AF4F4B187033
:1044100000283FF449AF4E494E4B4F4A4F48086081
:104420001A6048E7012865D04D4A1A604D494E4B45
:104430004E484F4A08601A60DFE6012219201A70C0
:1044400011F06CFD08284B4C7FF787AE0823194606
:104450001920236011F07CFD0A2012F0C9FB2068AE
:1044600000287FF47EAE012319461920236011F045
:104470006FFD0A2012F0BCFB73E69FED3F7AF4EE6D
:10448000C77AF1EE10FA3FF543AE47E6DFED3A7A30
:10449000B4EEE78AF1EE10FA3FF517AE1BE6002303
:1044A000364C19461820237011F052FD0A2012F0E4
:1044B0009FFB207894E64FF4616324211F20136052
:1044C00011F046FD0A2012F093FB57E62C4C4FF4F6
:1044D0007A7303213320236011F03AFD0A2012F091
:1044E00087FB2178342011F033FD0A2012F080FB85
:1044F0002068F2E6234A1A601A491B4B2248234AD5
:1045000008601A6079E6224A1A604FF001085FE6F7
:10451000B2EE048A83ED008A4FF00108DBE51D4A04
:104520001A604FF00108AAE51B4A1A604FF0010813
:10453000AEE5DFED1A7A4FF00108C3ED007AEDE544
:10454000174A1A604FF001082DE600BF3C24FF1FF8
:104550001C08FF1F2008FF1FCDCCCC3E0000E04010
:1045600000003A437008FF1F7408FF1F0040184402
:104570000000DC447808FF1FCDCCCC3D780D002036
:104580003C08FF1F0000F4420000AC430000B044B0
:1045900000C0A84400007A4400800645000016438D
:1045A00000802244174A184B92ED007AD3ED007A2E
:1045B00016491748B8EE477AF8EE677A0022C7EE38
:1045C000276AF1EE666A51F8223007EE903A50F809
:1045D000223007EE103AF8EE677AB8EE477AE6EE48
:1045E000877AF5EEC07AF1EE10FA56BFFCEEE77A64
:1045F000002317EE903A41F822300132B2F5805F85
:10460000E1D17047680D0020D808FF1F5C24FF1F10
:104610009C88FF1F40F63C739842F0B540DC63284D
:104620005FDC3249324A002351F8230042F823006C
:104630000133C92BF8D12F4E00214C1C52F8210018
:1046400052F824C02A4D8B1C01F1030E0F1D52F8A5
:104650002EE052F8233052F8277000EB800000EB78
:104660008C00384400EB4E0003EB43030344A6FBED
:104670000303DB08C52C42F821302146DDD1D5F8F3
:104680001033C5F81433D5F81033C5F81833D5F8FE
:104690001033C5F81C33D5F81033C5F82033F0BDFE
:1046A000184640F63D7440F6D8661049104A00237B
:1046B0009D190E4F51F8255042F823500133642BB9
:1046C0000B4DF5D157F82030C5F89031652351F8DE
:1046D000240042F823000133C92B04F10104F6D170
:1046E000A9E7A0F16406441CDFE700BF5C24FF1FBC
:1046F0007464FF1F898888886328F0B52FDC00F177
:104700000A01A0F10A032D4C54F8235054F821203B
:1047100000262A448B424FEA520E31460CDC00F14F
:104720000B05274654F823208A4284BF57F82310EC
:104730001E460133AB42F5D186423BD1BEFBF1F2BE
:1047400007EE902A9FED1E7AF8EEE77AF4EEC77A2C
:10475000F1EE10FA2ED51B4B01201E60F0BDA0F12A
:104760006403164C643054F8231054F820200023BE
:104770000A44560820461D46194654F823208A420A
:1047800084BF50F823101D460133C92BF5D1642D89
:1047900010D1B6FBF1F207EE902A9FED097AF8EE00
:1047A000E77AF4EEC77AF1EE10FA03D5054B012053
:1047B0001D60F0BD4FF0FF30F0BD00BF7464FF1FFF
:1047C0006666663FAC08FF1F2DE9F04F2DED028BAA
:1047D00085B016F021FF41EC100B14F075FF51EC81
:1047E000100B17F02FFA6D4B6D4D1E683128A8BFC6
:1047F00031200023642E039019BF06F1FF3A741C88
:1048000065244FF0630A1A4655F823100133C82B6C
:104810000A44F9D1B2F5FA7FC0F0B280039B4FEAA7
:10482000430BCBEB0A0A564540F3B680039B03FBD0
:104830000BF308EE103AB8EEC88A0027C6EB0A035D
:1048400007EE903AF8EEE77A67EEA77A87EE887A75
:10485000F1EE477A17EE900A16F0F0FE41EC100BDD
:1048600014F026FE53EC102B55F82A00CDE9002356
:1048700016F0C2FEDDE9002316F034FF804638460C
:10488000894616F0DBFE02460B464046494616F0C6
:1048900077FD17F01FFA0AF1010A56450746CDD1F8
:1048A00004EB0B0A544574DA039B03FB0BFB07EE86
:1048B00090BAB8EEE78A4FF0000BA31B07EE903AD0
:1048C000F8EEE77A67EEA77A87EE887AF1EE477A14
:1048D00017EE900A16F0B2FE41EC100B14F0E8FD52
:1048E00053EC102B55F82400CDE9002316F084FE7C
:1048F000DDE9002316F0F6FE80465846894616F09C
:104900009DFE02460B464046494616F039FD17F01B
:10491000E1F90134A2458346CFD107EE10BA07EE84
:10492000907A77EEC77AF0EEE77A17EE900A16F0F3
:1049300085FE044638460D4616F080FE02460B46BC
:104940002046294616F0F8FF0022164B17F03CF9D6
:10495000E0B1584616F072FE02460B462046294644
:1049600016F0EAFF00220F4B17F02EF9002814BFB3
:1049700001204FF0FF3005B0BDEC028BBDE8F08F99
:10498000094B00224FF0FF301A60F4E74FF0FF3080
:10499000F1E74FF0000BC0E7002781E7AC08FF1FED
:1049A0007464FF1F0000D03FA887FF1F2DE9F04768
:1049B0002E4F2F4D00233B60824616F02DFE804681
:1049C000894649EC108B55F82A6014F07DFE40466C
:1049D00053EC102B494616F0D1FC17F033F949EC93
:1049E000108B044614F070FE404653EC102B4946E1
:1049F00016F0C6FC17F026F984424FEA560130DC67
:104A0000421CD646284655F82430B34203D950F804
:104A10002460A646710801349442F4D1AAF16403DB
:104A20000AF1630293421EDC0AF1640A002055F881
:104A3000232001338A4228BF01309A45F7D107EE7F
:104A4000900A9FED0C7AF8EEE77A67EE877A07EE28
:104A500010EAB8EEC77AC7EE876AC7ED006ABDE80C
:104A6000F087D646DAE7DFED047AF0E7A887FF1F84
:104A70005C24FF1F0000C84200000000002A2DE94E
:104A8000F043C0EB010898FBF2F850DDDFF8B0E02E
:104A90009FED297A294F4FF0000C08F1FF39B8F14A
:104AA000000F46DD814244DB034609EB000600248B
:104AB00001E0994206DB57F823509E422C4403F153
:104AC0000103F6D107EE904AF8EE677A77EE877A1F
:104AD00040440EEB8C038142C3ED007A03DB0CF102
:104AE000010C6245DBD10023B7EE007A0EEB8301A7
:104AF000D1ED007AF4EEC77AF1EE10FA03F101037A
:104B0000C8BF91ED007A9A42F0D107EE902AB8EE34
:104B1000E76A00230EEB8301D1ED007A66EE277A77
:104B20000133C7EE876A9A42C1ED006AF2DCBDE844
:104B3000F083DFED017ACBE7000000005C24FF1F6B
:104B40009CC8FF1F70B590B00446684607F056FA3F
:104B5000022C00F08980032C58D0012C27D0684605
:104B600007F074FAD8B15E4E002408AD06EB84035A
:104B700093ED000A0921284614F0EAF9294659481C
:104B800014F024FA284614F035F95649684613F013
:104B90005DFE0134684613F07FFE322CE6D1684694
:104BA00007F046FA684607F037FA10B070BD4E4974
:104BB0004E4807F01DFC002840F08D804C4B3222FF
:104BC0001968002008ADFFF759FF1323464A4749EB
:104BD000284607F099FB9DF824100A9A9DF82C307E
:104BE0008DF8041002928DF80C300BA90DF10D0216
:104BF0000DF11A0311F8010F02F8010B9A42F9D1D5
:104C00000F9B0793284607F007FAA8E7394937486A
:104C100007F0EEFB002859D1354B322219680020ED
:104C200008ADFFF72BFF1323324A3049284607F01F
:104C30006BFB9DF824100A9A9DF82C308DF8041017
:104C400002928DF80C300BA90DF10D020DF11A0333
:104C500011F8010F02F8010B9A42F9D10F9B07934B
:104C6000284607F0D9F97AE72349204807F0C0FB26
:104C700038BB224B32221968002008ADFFF7FEFE38
:104C800013231D4A1949284607F03EFB9DF82410BE
:104C90000A9A9DF82C308DF8041002928DF80C3091
:104CA0000BA90DF10D020DF11A0311F8010F02F815
:104CB000010B9A42F9D10F9B0793284607F0ACF9F4
:104CC0004DE70D49094807F0A1FBD2E7094907481C
:104CD00007F09CFBA0E70449044807F097FB6DE749
:104CE0009CC8FF1F4424FF1F4008FF1F180E002010
:104CF0000C24FF1F5408FF1F0808FF1F1024FF1F6C
:104D00002DE9F04302282DED068B00F01F810328CA
:104D100000F0A280012808D0BDEC068BE74B0022F2
:104D20004FF0FF301A70BDE8F083002940F3028293
:104D30009FEDE34ADFF8CC83DFF8CCC3DFF8CCE3A8
:104D4000E04FE14EE14DDFEDE29A9FEDE29AE24C59
:104D5000DFF8BC93F0EE448AB0EE448AB0EE440A29
:104D6000F0EE442AF0EE440AB0EE441AF0EE441A93
:104D7000B0EE442AB0EE443AF0EE443A00200BE0A4
:104D8000B8EC010ABCEC018AFEEC018AB7EC014ADE
:104D9000B6EC019AF5EC019A8200A3184A44D3EDCF
:104DA000004A93ED005AD3ED005A93ED006AD3ED1B
:104DB000006A93ED007AD3ED007A92ED00AA74EECA
:104DC000C04A35EE485A75EEE85A36EE446A76EE39
:104DD000C96A37EE697A77EECA7A01308142E4EE29
:104DE000A43AA5EE053AA5EEA52AE6EE061AA6EE29
:104DF000A61AE7EE070AE7EEA72AC1D1B74BD3ED13
:104E0000007AF4EEE37AF1EE10FA1EDAF4EEC37AE9
:104E1000F1EE10FA19DAF4EEC27AF1EE10FA14DAC1
:104E2000F4EEE17AF1EE10FA0FDAF4EEC17AF1EE77
:104E300010FA0ADAF4EEE07AF1EE10FA05DAF4EE9E
:104E4000E27AF1EE10FAFFF667AFBDEC068B9B4BF2
:104E500001201870BDE8F083002940F37A819FEDAE
:104E6000984ADFF8B082DFF8B0C2DFF8B0E29C4FBA
:104E70009C4E9D4DDFED9D9A974CDFF8A492B0EECD
:104E8000449AF0EE448AB0EE448AB0EE440AB0EEA2
:104E9000443AF0EE441AB0EE441AF0EE440AB0EE92
:104EA000442AF0EE442AF0EE443A00200BE0B8EC3D
:104EB000010ABCEC018AFEEC018AB7EC019AB6EC5F
:104EC000014AF5EC019A8200A3184A44D3ED004A46
:104ED00093ED005AD3ED005A93ED006AD3ED006ACA
:104EE00093ED007AD3ED007A92ED00AA74EEC04AF9
:104EF00035EE485A75EEE85A36EE496A76EEC46ADF
:104F000037EE697A77EECA7A01308142E4EEA43A4C
:104F1000E5EE052AA5EEA52AE6EE060AA6EEA61AF5
:104F2000E7EE071AA7EEA73AC1D1714BD3ED007A8D
:104F3000F4EEE37AF1EE10FAC0F28D80BDEC068B50
:104F40005E4B012203201A70BDE8F083002940F374
:104F5000A780DFED5B4ADFF8CCC1DFF8CCE1654F1D
:104F6000654E664D5C4CDFF8C481B0EE648AB0EEED
:104F7000640AF0EE640AB0EE641AF0EE643AB0EE41
:104F8000642AF0EE641AF0EE642AB0EE643AB0EEF1
:104F9000644A002009E0BCEC011AFEEC010AB7ECFF
:104FA000010AB6EC018AF5EC014A8200A3184244DA
:104FB00093ED005AD3ED005A93ED006AD3ED006AE9
:104FC00093ED007AD3ED007AD2ED008A35EE415AA6
:104FD00075EEE05A36EE406A76EEC86A37EE647ACD
:104FE00077EEE87A01308142A5EE054AA5EEA53AB2
:104FF000E6EE062AE6EEA61AA7EE072AE7EEA73A9D
:10500000C9D13F4BD3ED007AF4EEC47AF1EE10FA39
:1050100007DBBDEC068B294B012202201A70BDE88C
:10502000F083F4EEC37AF1EE10FAF2DAF4EEE27AFB
:10503000F1EE10FAEDDAF4EEE17AF1EE10FAE8DAD8
:10504000F4EEC27AF1EE10FAE3DAF4EEE37AF1EE7E
:1050500010FADEDA60E6F4EEE27AF1EE10FABFF66C
:105060006DAFF4EEC27AF1EE10FABFF667AFF4EE70
:10507000E07AF1EE10FABFF661AFF4EEC17AF1EE2C
:1050800010FABFF65BAFF4EEE17AF1EE10FABFF67C
:1050900055AFF4EEC37AF1EE10FABFF64FAF3BE630
:1050A000DFED073AB0EE632AF0EE631AF0EE632A02
:1050B000B0EE633AB0EE634AA3E700BF5817FF1F94
:1050C00000000000E046040020980400EC330400D7
:1050D0008FE3A93CAD42B63C9CC8FF1F1808FF1FD8
:1050E00058970400A0060200CC3004005AA8A13B47
:1050F000DC08FF1F94310400243304007C350400D5
:105100005008FF1FD8050200B43404000430040026
:10511000BC22FF1F5C32040044360400C895040022
:10512000D487FF1F680702009096040040CCFF1F41
:10513000000000005FED022AF0EE620AB0EE621A93
:10514000F0EE621AB0EE622AB0EE623AF0EE623A27
:1051500054E61FED093AF0EE431AB0EE431AF0EEB2
:10516000430AB0EE432AF0EE432AF0EE433ADCE67F
:1051700030B55A4B83B0196832220020FFF77EFC0D
:1051800032210120FFF7BCFD012813D0322103207A
:10519000FFF7B6FD032845D0514B32221968002095
:1051A000FFF76CFC32210220FFF7AAFD022871D024
:1051B00003B030BD2D254B4B01930F222B464FF4EE
:1051C000B971494800950BF0EDFA002414222B46E2
:1051D0008DE814004FF4B9713C2243480AF08AFD6F
:1051E00023463D2240F277113F480EF0AFF94FF6CB
:1051F000FF713D480EF016FA3C493B48FCF7BEFCF7
:105200002346472240F27F1137480EF09FF94FF6B0
:10521000FF7135480EF006FA35493348FCF7AEFC0D
:1052200003B030BD2D252F4B019300952B460F2247
:105230004FF4B9712C480BF0B5FA002414222B4618
:105240008DE814004FF4B9713C2227480AF052FD52
:1052500023463D2240F2771123480EF077F94FF6AE
:10526000FF7121480EF0DEF922491F48FCF786FC49
:10527000234647224FF4BA711B480EF067F94FF6E8
:10528000FF7119480EF0CEF91B491748FCF776FC60
:1052900003B030BD2D25134B01930F222B464FF445
:1052A000B971114800950BF07DFA00240A222B46B3
:1052B0008DE814004FF4B9713C220B480AF01AFD36
:1052C00023463D2240F2771107480EF03FF94FF692
:1052D000FF7105480EF0A6F908498EE70C24FF1F60
:1052E0001024FF1F0837040090C9FF1F5026040038
:1052F000582604005C26040064260400702604007E
:1053000070B586B001A90122384810F0A1F9002833
:1053100048D09DF80430222B05D0282B03D0102B29
:105320005FD006B070BD0026304810F0CFF801A95C
:105330002E4810F06DF9012244212C4810F038F964
:105340004FF47A7011F054FC284810F0BFF801A90E
:10535000264810F05DF90022BE21244810F028F9FB
:105360000DF10B0405AD214810F042F904F8010FCE
:10537000AC42F8D19DF80D209DF80C3043EA022391
:105380001BB2BEB19DF81320102A4FEAC30320D0F0
:105390001BB207EE903A164AFAEECE7AC2ED007AC8
:1053A00006B070BD114810F045F9FA2011F020FC4C
:1053B00006B070BD9DF8102012F0600206D0202AC1
:1053C00011D0402A08BF23F00103E2E723F00703CE
:1053D000DFE79DF8122023F00F03C2F10C02134403
:1053E000D6E70126A0E723F00303D2E72024FF1F1E
:1053F000B41AFF1F38B50F4C11F0B2FD0E4B2178D7
:1054000000251D7061B9242011F0D8FB0A2011F08D
:10541000EFFB0121242011F0D1FB0123237038BDC3
:105420002946242011F0CAFB0A2011F0E1FB257067
:1054300038BD00BFB81AFF1F640D0020012814DD1D
:1054400038B5054601240121152011F0B7FB642071
:1054500011F0CEFB0021152011F0B0FB01346420C7
:1054600011F0C6FBA542EED138BD704710B5012141
:10547000152011F0A3FB0F4C0F4B0A221968204690
:10548000002313F02FFA05210C4811F035FE0C4BC8
:10549000186816F0D3F841EC100B2046022113F0E7
:1054A0006BFA0848052111F027FE2046BDE81040A0
:1054B00013F0F2B9A80CFF1FAC1AFF1F78260400E6
:1054C0006C0D0020802604001C4B1D491B681D4AE2
:1054D000096812681C48C91A70B407EE101A1B4CF0
:1054E00090ED006AD4ED005A194E1A4D1A4C1B4823
:1054F0009A1AF8EEC76A07EE102AF7EE007A37EE2E
:10550000C66A75EEE75AB8EEC77A85EEA65AC6EEB9
:10551000076A07EE103AB8EEC77AB0EE676AA5EEF2
:10552000476AE7EE667A86ED005A85ED006AC4EDBB
:10553000007AC0ED006A70BC704700BFA067FF1F13
:105540009C67FF1FA467FF1F2008FF1F1C08FF1F89
:10555000A808FF1F6408FF1FE407FF1F9008FF1F34
:10556000514A524B11681A689FED517A30B4514C30
:10557000914284ED007A13DA4F4B504893ED006A64
:1055800030F811309BB207EE903AF8EEE77A01312D
:10559000C7EE866A914237EE267AF1D184ED007A21
:1055A000474B1B68934229DD46484749D0ED004AE6
:1055B00091ED005AD4ED006A4048B7EE006A07EE5C
:1055C000902AF8EEE77AB0EE457AA4EEA77A30F8A2
:1055D000121089B207EE901AB4EE467AF1EE10FA84
:1055E000F8EEE77A48BFB0EE467AC7EE875A013246
:1055F0009A4276EEA56AE2D1C4ED006A334A116898
:10560000994235DD3248334D334AD0ED004A95EDAD
:10561000004AD2ED005AD4ED006A2848B7EE006A7D
:1056200007EE903AF8EEE77AB0EE647AA7EE847A65
:1056300030F8132092B2F0EE477AF4EE657AF1EE8C
:1056400010FA48BFF0EE657A07EE102AF4EE467ABB
:10565000F1EE10FAB8EEC77AC8BFF0EE467A87EEE0
:10566000275A01338B4276EE856AD9D1C4ED006AA0
:105670001A4B1A68914215DA174B94ED007A93EDA4
:10568000006A0E4830F811309BB207EE903AF8EEFF
:10569000E77A0131C7EE866A914237EE267AF1D178
:1056A00084ED007A30BC7047B008FF1F9C67FF1F75
:1056B0000000000068C9FF1F1C08FF1FA867FF1F2C
:1056C000A067FF1FA808FF1F6408FF1FA467FF1F34
:1056D000E407FF1F9008FF1F2008FF1F2808FF1F77
:1056E0002DE9F04F2DED0A8B01288BB0894640F350
:1056F0005F81B44B9842824640F35F81DFEDB29AFE
:105700009A46B24CD4ED007AF4EE697AF1EE10FAD2
:1057100000F04981AAF51C53113BAAF5C332089346
:10572000A2F1A1030993AAF10B030593AAF1650362
:1057300006936FF47A735344A54EA64D9FEDA69A37
:105740009FEDA68ADFEDA68A079313E194ED007A18
:10575000F7EE007A37EE677AF3EE097A27EE277ACA
:10576000F2EE026AC7EE267A77EEC97A059B592BCC
:105770000DD894ED007AF2EE067A37EE677AF3EE02
:10578000087A27EE277AC7EE087A77EEE87A069B42
:10579000B3F5617F11D29FED937AD4ED006A9FED4E
:1057A000926ADFED927A76EEC76AB3EE087A66EE19
:1057B000876A86EE867A77EE677A079A42F227330F
:1057C0009A420FD8DFED8A7A94ED007ADFED896A8C
:1057D00037EE677AF3EE087A27EE277AC7EE267A55
:1057E00077EEC87A844B089A9A4211D89FED837A53
:1057F000D4ED006A9FED826ADFED827A76EEC76AA9
:10580000B3EE087A66EE876A86EE867A77EE677A76
:10581000099A4CF24F339A4211D89FED7B7AD4ED1E
:10582000006A9FED7A6ADFED7A7A76EEC76AB3EEA8
:10583000087A66EE876A86EE867A77EE677A9FED5B
:10584000757A9FED75AA67EE877A002717EE900AA2
:1058500015F0F4FE41EC100B41EC1C0B13F068FD4D
:10586000B0EE40BAF0EE60BAB0EE4C0AF0EE6C0A60
:1058700013F0BEFDB5F90020B6F900300092ED211D
:105880004FF48272654801978DED020B0EF012FB0A
:10589000B5F90020B6F9003060488DE88400F321A6
:1058A0004FF482720EF006FB51EC1B0B16F012FA4D
:1058B000DFED5B7A07EE100AE7EE0A7A40F2FF7836
:1058C0009DED020BFCEEE77A51EC100BCDED027A68
:1058D000BDF808B0A6F800B016F0FCF9DFED517A7B
:1058E000CDF8048007EE100AE7EE0A7A0FFA8BF380
:1058F0004FF48272ED21FCEEE77A4848CDED027A52
:10590000BDF808E0A5F800E00FFA8EFCCDF800C065
:105910000EF0D0FAB5F90020B6F900303F488DE816
:105920000401F3214FF482720EF0C4FA05234FF400
:105930008272F0213948CDF800800BF0EFFB40F285
:10594000EF3300934FF482720423F02133480BF0BD
:1059500015FE3B464FF48272F021304809F002FEFA
:10596000484611F045F9D4ED007AF4EE697AF1EE8B
:1059700010FA18D0F4EEE97AF1EE10FAB7EE007AE8
:105980004CBF77EE877A77EEC77AC4ED007AB9F12B
:10599000000F01D1C4ED009ABAF10A0F7FF7D6AE1D
:1059A000DFED217AE2E60BB0BDEC0A8BBDE8F08FAB
:1059B000F0EE009A4FF0020AA3E607EE900AF8EE26
:1059C000E79A9EE6F0490200007C12488C08FF1F0F
:1059D0006808FF1F6A08FF1F000025430000B2424D
:1059E00000000B430000CA4200C060440000E442D3
:1059F00000407A44009C0C468F5F010000441C4626
:105A000080C7AF47000080428050C347004F4347E4
:105A100000001C4235FA8E3C00000C4390C9FF1F69
:105A200000007043000082430000000070B50121B7
:105A30000E2011F0C3F80D4E0D4B0E4D0E480022F6
:105A400000241A602146326013462C6000EB83026A
:105A50000133B42B1160F9D103220849102010F052
:105A6000AFFD074B01221A7070BD00BFCC87FF1F2E
:105A70005C64FF1FB823FF1FDC17FF1F99040000A1
:105A80003424FF1F38B5102010F016FE0B4A0C48C6
:105A900000230021137000EB83020133B42B11604B
:105AA0004FF00002F7D1074D074C00232B60194639
:105AB00022600E20BDE8384011F080B83424FF1F6A
:105AC000DC17FF1F5C64FF1FB823FF1F10B4294AB7
:105AD0001323591E02EB810002EB83030068186058
