:10000000F8FF0220990100003D960100F5950100DE
:10001000F5950100F5950100F5950100F5950100B4
:10002000F5950100F5950100F59501003D9601005B
:100030003D960100F5950100E5BA0100E9BA01001D
:100040003D9601003D9601003D9601003D96010060
:100050003D9601003D9601003D9601003D96010050
:100060003D9601003D9601003D9601003D96010040
:100070003D9601003D9601003D9601003D96010030
:100080003D9601003D9601003D9601003D96010020
:100090003D9601003D9601003D9601003D96010010
:1000A000998E0100A58E01003D9601003D9601004C
:1000B0003D9601003D9601003D9601003D960100F0
:1000C0003D9601003D9601003D9601003D960100E0
:1000D0003D9601003D9601003D960100A5290000D6
:1000E0003D9601003D9601003D96010021F400007F
:1000F0003D9601003D9601003D9601003D960100B0
:1001000035BD010049BD01005DBD010071BD0100AB
:100110003D9601002DAA01003D9601003D9601008B
:100120003D9601003D9601003D9601003D9601007F
:100130003D9601003D9601003D9601003D9601006F
:100140003D9601003D960100A1A701003D960100EA
:100150003D9601003D9601003D9601003D9601004F
:100160003D9601003D960100B18E01003D960100D3
:100170003D9601003D9601003D9601003D9601002F
:100180003D9601003D9601003D9601003D9601001F
:100190003D9601003D960100584B4CF2205210B59F
:1001A0001A804DF628121A8000BF00BF19F04AFAD3
:1001B000534B4FF030621A60524A9A60524ADA60EA
:1001C000524B4FF470021A60514A136813F4807353
:1001D00004D150490B604FF4A85313604E4B1A786A
:1001E000110703D51A7842F008021A704B4B4C499C
:1001F0002A221A704B4A4C4B8B4204D252F8040FFD
:1002000043F8040BF8E7494B494900228B4202D2DC
:1002100043F8042BFAE74749474A002352F82300E2
:1002200041F823000133662BF8D1444B444A802126
:1002300003F8011B9342FBD1424B3E4A1A60424BEA
:100240008A221A70A3F5805324225A70A0221A70B1
:100250009A799207FCD59A79D406FCD43B4A9379D3
:1002600003F00C03082B394BF9D103221A714622F3
:100270005A719A799006FCD5344A9179334B4906E4
:10028000FBD5334A4FF08271116009215160202261
:100290001A709A7902F00C020C2AFAD12D4B2E4AD0
:1002A0001A602E4B2E4A1A6000225A60072243F829
:1002B000042C2C4AC3F80C2D62B619F099FF154B8B
:1002C0001B68DA0705D5284819F0F2FC274B284AA5
:1002D0001A60284B1B785B0609D5244C244B2268F6
:1002E0009A4204D1204819F0E3FC002323601FF058
:1002F000FBFF19F0ADF91CF0DDF9FEE70E2005401B
:1003000030800440823F04000100002B88ED00E0B3
:1003100010D0034014D0034002D0074000E0074053
:10032000A817FF1F200A0500F806FF1FA817FF1FC8
:10033000BC5200200002FF1F0000000000E400E0AB
:1003400056E400E008ED00E00050064000400640A2
:100350004480044004800440C010050014E000E024
:10036000BFD4010000002020077D74611CE0034021
:10037000A5C3945A00F00740FFFFFFFFFFFFFFFFF8
:10038000FFFFFFFFFFFFFFFFFFFFFFFFFFFFFFFF7D
:10039000FFFFFFFFFFFFFFFFFFFFFFFFFFFFFFFF6D
:1003A000FFFFFFFFFFFFFFFFFFFFFFFFFFFFFFFF5D
:1003B000FFFFFFFFFFFFFFFFFFFFFFFFFFFFFFFF4D
:1003C000FFFFFFFFFFFFFFFFFFFFFFFFFFFFFFFF3D
:1003D000FFFFFFFFFFFFFFFFFFFFFFFFFFFFFFFF2D
:1003E000FFFFFFFFFFFFFFFFFFFFFFFFFFFFFFFF1D
:1003F000FFFFFFFFFFFFFFFFFFFFFFFFFFFFFFFF0D
:10040000FFFFFFFFFFFFFFFFFFFFFFFFDEF9FFFF23
:1004100010B5054C237833B9044B13B10448AFF33E
:1004200000800123237010BDA817FF1F00000000EB
:100430001C0A0500084B10B51BB108490848AFF36A
:1004400000800848036803B910BD074B002BFBD0A0
:10045000BDE81040184700BF00000000AC17FF1FA8
:100460001C0A0500A817FF1F0000000000207047AD
:10047000704700BF0349044B4FF4804001220860DD
:100480001A60704708F00F406C85FF1F014B012276
:100490001A607047F44B0020034A04491368012096
:1004A00003441360086070471885FF1F4885FF1FCD
:1004B00019F0F8BBF8B50E46074618F05BFA05468A
:1004C00018F048FA044618F035FA6401C0B204F492
:1004D000FF54ADB2A5F2BC75044344EA45243C8008
:1004E00018F0F8F9054618F005FA044618F012FA63
:1004F000ED02640105F4FF2504F4FF542C43C0F31E
:10050000460004433480F8BD9FED3D7A38B53D4C3C
:10051000F0EE476A002234F812309BB207EE903AB0
:10052000F8EEE77A013277EEA67A3C2A37EE277AA0
:10053000F1D1DFED356A354DC7EE267A29212846FF
:100540000422C5ED007A18F0DDFF0A2019F002FE42
:1005500095ED006ADFED2A6A002134F8112034F8A5
:10056000113092B207EE902A9BB2B8EEE77A07EE0E
:10057000903AF8EEE77A36EE477A76EE677A01310E
:100580003C29E7EE276AE8D1DFED217A214B224CA6
:1005900086EEA77A00221A6017EE100A1FF0B6FA4C
:1005A00041EC100B1CF0DCFC51EC100B1FF0FAFDC1
:1005B000D5ED007A194B07EE100AF0EE006AB0EEA6
:1005C000086AF0EE675AE7EE265A1548E7EE067A13
:1005D0000422242180ED007AC3ED007AC4ED005A94
:1005E00018F090FF0A2019F0B5FD0121282018F01D
:1005F00061FF0A2019F0AEFD0A4B01221A7038BDC6
:1006000000000000444C002000007042D807FF1F8B
:1006100000006C420CCBFF1FF044FF1F5044FF1F33
:100620003808FF1F6885FF1F214B10B41A68136834
:10063000506819780478507A137A044201EA030169
:100640001BD0937A03F0030309B143F0040343F092
:1006500008039910013B91720D2B0BD8DFE803F0D2
:1006600021071B070A152121150A071B0721D3683B
:10067000013BD3605DF8044B7047937A03F00303AA
:100680000029E6D043F00403E3E7D3685DF8044BA8
:10069000023BD3607047D3685DF8044B0233D360EC
:1006A0007047D3685DF8044B0133D360704700BFD7
:1006B000A04F0020214B10B45A6813685068197875
:1006C0000478507A137A044201EA03011BD0937A2A
:1006D00003F0030309B143F0040343F00803991046
:1006E000013B91720D2B0BD8DFE803F021071B07AC
:1006F0000A152121150A071B0721D368013BD36086
:100700005DF8044B7047937A03F003030029E6D0A9
:1007100043F00403E3E7D3685DF8044B023BD36086
:100720007047D3685DF8044B0233D3607047D368D9
:100730005DF8044B0133D360704700BFA04F002029
:10074000214B10B49A681368506819780478507A6D
:10075000137A044201EA03011BD0937A03F00303E6
:1007600009B143F0040343F008039910013B91726F
:100770000D2B0BD8DFE803F021071B070A152121F9
:10078000150A071B0721D368013BD3605DF8044BB2
:100790007047937A03F003030029E6D043F0040383
:1007A000E3E7D3685DF8044B023BD3607047D3683E
:1007B0005DF8044B0233D3607047D3685DF8044B97
:1007C0000133D360704700BFA04F0020214B10B40D
:1007D000DA681368506819780478507A137A0442FA
:1007E00001EA03011BD0937A03F0030309B143F03C
:1007F000040343F008039910013B91720D2B0BD8B1
:10080000DFE803F021071B070A152121150A071B42
:100810000721D368013BD3605DF8044B7047937A9E
:1008200003F003030029E6D043F00403E3E7D368B1
:100830005DF8044B023BD3607047D3685DF8044B0E
:100840000233D3607047D3685DF8044B0133D36043
:10085000704700BFA04F0020214B10B41A691368E5
:10086000506819780478507A137A044201EA030137
:100870001BD0937A03F0030309B143F0040343F060
:1008800008039910013B91720D2B0BD8DFE803F0A0
:1008900021071B070A152121150A071B0721D36809
:1008A000013BD3605DF8044B7047937A03F0030378
:1008B0000029E6D043F00403E3E7D3685DF8044B76
:1008C000023BD3607047D3685DF8044B0233D360BA
:1008D0007047D3685DF8044B0133D360704700BFA5
:1008E000A04F0020214B10B45A6913685068197842
:1008F0000478507A137A044201EA03011BD0937AF8
:1009000003F0030309B143F0040343F00803991013
:10091000013B91720D2B0BD8DFE803F021071B0779
:100920000A152121150A071B0721D368013BD36053
:100930005DF8044B7047937A03F003030029E6D077
:1009400043F00403E3E7D3685DF8044B023BD36054
:100950007047D3685DF8044B0233D3607047D368A7
:100960005DF8044B0133D360704700BFA04F0020F7
:10097000214B10B49A691368506819780478507A3A
:10098000137A044201EA03011BD0937A03F00303B4
:1009900009B143F0040343F008039910013B91723D
:1009A0000D2B0BD8DFE803F021071B070A152121C7
:1009B000150A071B0721D368013BD3605DF8044B80
:1009C0007047937A03F003030029E6D043F0040351
:1009D000E3E7D3685DF8044B023BD3607047D3680C
:1009E0005DF8044B0233D3607047D3685DF8044B65
:1009F0000133D360704700BFA04F0020214B10B4DB
:100A0000DA691368506819780478507A137A0442C6
:100A100001EA03011BD0937A03F0030309B143F009
:100A2000040343F008039910013B91720D2B0BD87E
:100A3000DFE803F021071B070A152121150A071B10
:100A40000721D368013BD3605DF8044B7047937A6C
:100A500003F003030029E6D043F00403E3E7D3687F
:100A60005DF8044B023BD3607047D3685DF8044BDC
:100A70000233D3607047D3685DF8044B0133D36011
:100A8000704700BFA04F0020214B10B41A6A1368B2
:100A9000506819780478507A137A044201EA030105
:100AA0001BD0937A03F0030309B143F0040343F02E
:100AB00008039910013B91720D2B0BD8DFE803F06E
:100AC00021071B070A152121150A071B0721D368D7
:100AD000013BD3605DF8044B7047937A03F0030346
:100AE0000029E6D043F00403E3E7D3685DF8044B44
:100AF000023BD3607047D3685DF8044B0233D36088
:100B00007047D3685DF8044B0133D360704700BF72
:100B1000A04F0020214B10B45A6A1368506819780E
:100B20000478507A137A044201EA03011BD0937AC5
:100B300003F0030309B143F0040343F008039910E1
:100B4000013B91720D2B0BD8DFE803F021071B0747
:100B50000A152121150A071B0721D368013BD36021
:100B60005DF8044B7047937A03F003030029E6D045
:100B700043F00403E3E7D3685DF8044B023BD36022
:100B80007047D3685DF8044B0233D3607047D36875
:100B90005DF8044B0133D360704700BFA04F0020C5
:100BA000214B10B49A6A1368506819780478507A07
:100BB000137A044201EA03011BD0937A03F0030382
:100BC00009B143F0040343F008039910013B91720B
:100BD0000D2B0BD8DFE803F021071B070A15212195
:100BE000150A071B0721D368013BD3605DF8044B4E
:100BF0007047937A03F003030029E6D043F004031F
:100C0000E3E7D3685DF8044B023BD3607047D368D9
:100C10005DF8044B0233D3607047D3685DF8044B32
:100C20000133D360704700BFA04F0020214B10B4A8
:100C3000DA6A1368506819780478507A137A044293
:100C400001EA03011BD0937A03F0030309B143F0D7
:100C5000040343F008039910013B91720D2B0BD84C
:100C6000DFE803F021071B070A152121150A071BDE
:100C70000721D368013BD3605DF8044B7047937A3A
:100C800003F003030029E6D043F00403E3E7D3684D
:100C90005DF8044B023BD3607047D3685DF8044BAA
:100CA0000233D3607047D3685DF8044B0133D360DF
:100CB000704700BFA04F0020214B10B41A6B13687F
:100CC000506819780478507A137A044201EA0301D3
:100CD0001BD0937A03F0030309B143F0040343F0FC
:100CE00008039910013B91720D2B0BD8DFE803F03C
:100CF00021071B070A152121150A071B0721D368A5
:100D0000013BD3605DF8044B7047937A03F0030313
:100D10000029E6D043F00403E3E7D3685DF8044B11
:100D2000023BD3607047D3685DF8044B0233D36055
:100D30007047D3685DF8044B0133D360704700BF40
:100D4000A04F0020214B10B45A6B136850681978DB
:100D50000478507A137A044201EA03011BD0937A93
:100D600003F0030309B143F0040343F008039910AF
:100D7000013B91720D2B0BD8DFE803F021071B0715
:100D80000A152121150A071B0721D368013BD360EF
:100D90005DF8044B7047937A03F003030029E6D013
:100DA00043F00403E3E7D3685DF8044B023BD360F0
:100DB0007047D3685DF8044B0233D3607047D36843
:100DC0005DF8044B0133D360704700BFA04F002093
:100DD000214B10B49A6B1368506819780478507AD4
:100DE000137A044201EA03011BD0937A03F0030350
:100DF00009B143F0040343F008039910013B9172D9
:100E00000D2B0BD8DFE803F021071B070A15212162
:100E1000150A071B0721D368013BD3605DF8044B1B
:100E20007047937A03F003030029E6D043F00403EC
:100E3000E3E7D3685DF8044B023BD3607047D368A7
:100E40005DF8044B0233D3607047D3685DF8044B00
:100E50000133D360704700BFA04F0020214B10B476
:100E6000DA6B1368506819780478507A137A044260
:100E700001EA03011BD0937A03F0030309B143F0A5
:100E8000040343F008039910013B91720D2B0BD81A
:100E9000DFE803F021071B070A152121150A071BAC
:100EA0000721D368013BD3605DF8044B7047937A08
:100EB00003F003030029E6D043F00403E3E7D3681B
:100EC0005DF8044B023BD3607047D3685DF8044B78
:100ED0000233D3607047D3685DF8044B0133D360AD
:100EE000704700BFA04F0020214B10B41A6C13684C
:100EF000506819780478507A137A044201EA0301A1
:100F00001BD0937A03F0030309B143F0040343F0C9
:100F100008039910013B91720D2B0BD8DFE803F009
:100F200021071B070A152121150A071B0721D36872
:100F3000013BD3605DF8044B7047937A03F00303E1
:100F40000029E6D043F00403E3E7D3685DF8044BDF
:100F5000023BD3607047D3685DF8044B0233D36023
:100F60007047D3685DF8044B0133D360704700BF0E
:100F7000A04F0020214B10B45A6C136850681978A8
:100F80000478507A137A044201EA03011BD0937A61
:100F900003F0030309B143F0040343F0080399107D
:100FA000013B91720D2B0BD8DFE803F021071B07E3
:100FB0000A152121150A071B0721D368013BD360BD
:100FC0005DF8044B7047937A03F003030029E6D0E1
:100FD00043F00403E3E7D3685DF8044B023BD360BE
:100FE0007047D3685DF8044B0233D3607047D36811
:100FF0005DF8044B0133D360704700BFA04F002061
:10100000214B10B49A6C1368506819780478507AA0
:10101000137A044201EA03011BD0937A03F003031D
:1010200009B143F0040343F008039910013B9172A6
:101030000D2B0BD8DFE803F021071B070A15212130
:10104000150A071B0721D368013BD3605DF8044BE9
:101050007047937A03F003030029E6D043F00403BA
:10106000E3E7D3685DF8044B023BD3607047D36875
:101070005DF8044B0233D3607047D3685DF8044BCE
:101080000133D360704700BFA04F0020214B10B444
:10109000DA6C1368506819780478507A137A04422D
:1010A00001EA03011BD0937A03F0030309B143F073
:1010B000040343F008039910013B91720D2B0BD8E8
:1010C000DFE803F021071B070A152121150A071B7A
:1010D0000721D368013BD3605DF8044B7047937AD6
:1010E00003F003030029E6D043F00403E3E7D368E9
:1010F0005DF8044B023BD3607047D3685DF8044B46
:101100000233D3607047D3685DF8044B0133D3607A
:10111000704700BFA04F0020214B10B41A6D136818
:10112000506819780478507A137A044201EA03016E
:101130001BD0937A03F0030309B143F0040343F097
:1011400008039910013B91720D2B0BD8DFE803F0D7
:1011500021071B070A152121150A071B0721D36840
:10116000013BD3605DF8044B7047937A03F00303AF
:101170000029E6D043F00403E3E7D3685DF8044BAD
:10118000023BD3607047D3685DF8044B0233D360F1
:101190007047D3685DF8044B0133D360704700BFDC
:1011A000A04F0020214B10B45A6D13685068197875
:1011B0000478507A137A044201EA03011BD0937A2F
:1011C00003F0030309B143F0040343F0080399104B
:1011D000013B91720D2B0BD8DFE803F021071B07B1
:1011E0000A152121150A071B0721D368013BD3608B
:1011F0005DF8044B7047937A03F003030029E6D0AF
:1012000043F00403E3E7D3685DF8044B023BD3608B
:101210007047D3685DF8044B0233D3607047D368DE
:101220005DF8044B0133D360704700BFA04F00202E
:10123000214B10B49A6D1368506819780478507A6D
:10124000137A044201EA03011BD0937A03F00303EB
:1012500009B143F0040343F008039910013B917274
:101260000D2B0BD8DFE803F021071B070A152121FE
:10127000150A071B0721D368013BD3605DF8044BB7
:101280007047937A03F003030029E6D043F0040388
:10129000E3E7D3685DF8044B023BD3607047D36843
:1012A0005DF8044B0233D3607047D3685DF8044B9C
:1012B0000133D360704700BFA04F0020214B10B412
:1012C000DA6D1368506819780478507A137A0442FA
:1012D00001EA03011BD0937A03F0030309B143F041
:1012E000040343F008039910013B91720D2B0BD8B6
:1012F000DFE803F021071B070A152121150A071B48
:101300000721D368013BD3605DF8044B7047937AA3
:1013100003F003030029E6D043F00403E3E7D368B6
:101320005DF8044B023BD3607047D3685DF8044B13
:101330000233D3607047D3685DF8044B0133D36048
:10134000704700BFA04F0020214B10B41A6E1368E5
:10135000506819780478507A137A044201EA03013C
:101360001BD0937A03F0030309B143F0040343F065
:1013700008039910013B91720D2B0BD8DFE803F0A5
:1013800021071B070A152121150A071B0721D3680E
:10139000013BD3605DF8044B7047937A03F003037D
:1013A0000029E6D043F00403E3E7D3685DF8044B7B
:1013B000023BD3607047D3685DF8044B0233D360BF
:1013C0007047D3685DF8044B0133D360704700BFAA
:1013D000A04F0020214B10B45A6E13685068197842
:1013E0000478507A137A044201EA03011BD0937AFD
:1013F00003F0030309B143F0040343F00803991019
:10140000013B91720D2B0BD8DFE803F021071B077E
:101410000A152121150A071B0721D368013BD36058
:101420005DF8044B7047937A03F003030029E6D07C
:1014300043F00403E3E7D3685DF8044B023BD36059
:101440007047D3685DF8044B0233D3607047D368AC
:101450005DF8044B0133D360704700BFA04F0020FC
:10146000214B10B49A6E1368506819780478507A3A
:10147000137A044201EA03011BD0937A03F00303B9
:1014800009B143F0040343F008039910013B917242
:101490000D2B0BD8DFE803F021071B070A152121CC
:1014A000150A071B0721D368013BD3605DF8044B85
:1014B0007047937A03F003030029E6D043F0040356
:1014C000E3E7D3685DF8044B023BD3607047D36811
:1014D0005DF8044B0233D3607047D3685DF8044B6A
:1014E0000133D360704700BFA04F0020214B10B4E0
:1014F000DA6E1368506819780478507A137A0442C7
:1015000001EA03011BD0937A03F0030309B143F00E
:10151000040343F008039910013B91720D2B0BD883
:10152000DFE803F021071B070A152121150A071B15
:101530000721D368013BD3605DF8044B7047937A71
:1015400003F003030029E6D043F00403E3E7D36884
:101550005DF8044B023BD3607047D3685DF8044BE1
:101560000233D3607047D3685DF8044B0133D36016
:10157000704700BFA04F0020214B10B41A6F1368B2
:10158000506819780478507A137A044201EA03010A
:101590001BD0937A03F0030309B143F0040343F033
:1015A00008039910013B91720D2B0BD8DFE803F073
:1015B00021071B070A152121150A071B0721D368DC
:1015C000013BD3605DF8044B7047937A03F003034B
:1015D0000029E6D043F00403E3E7D3685DF8044B49
:1015E000023BD3607047D3685DF8044B0233D3608D
:1015F0007047D3685DF8044B0133D360704700BF78
:10160000A04F0020214B10B45A6F1368506819780E
:101610000478507A137A044201EA03011BD0937ACA
:1016200003F0030309B143F0040343F008039910E6
:10163000013B91720D2B0BD8DFE803F021071B074C
:101640000A152121150A071B0721D368013BD36026
:101650005DF8044B7047937A03F003030029E6D04A
:1016600043F00403E3E7D3685DF8044B023BD36027
:101670007047D3685DF8044B0233D3607047D3687A
:101680005DF8044B0133D360704700BFA04F0020CA
:10169000214B10B49A6F1368506819780478507A07
:1016A000137A044201EA03011BD0937A03F0030387
:1016B00009B143F0040343F008039910013B917210
:1016C0000D2B0BD8DFE803F021071B070A1521219A
:1016D000150A071B0721D368013BD3605DF8044B53
:1016E0007047937A03F003030029E6D043F0040324
:1016F000E3E7D3685DF8044B023BD3607047D368DF
:101700005DF8044B0233D3607047D3685DF8044B37
:101710000133D360704700BFA04F0020214B10B4AD
:10172000DA6F1368506819780478507A137A044293
:1017300001EA03011BD0937A03F0030309B143F0DC
:10174000040343F008039910013B91720D2B0BD851
:10175000DFE803F021071B070A152121150A071BE3
:101760000721D368013BD3605DF8044B7047937A3F
:1017700003F003030029E6D043F00403E3E7D36852
:101780005DF8044B023BD3607047D3685DF8044BAF
:101790000233D3607047D3685DF8044B0133D360E4
:1017A000704700BFA04F0020214B10B4D3F8802019
:1017B0001368506819780478507A137A044201EA61
:1017C00003011BD0937A03F0030309B143F0040330
:1017D00043F008039910013B91720D2B0BD8DFE801
:1017E00003F021071B070A152121150A071B0721F2
:1017F000D368013BD3605DF8044B7047937A03F0E4
:1018000003030029E6D043F00403E3E7D3685DF85F
:10181000044B023BD3607047D3685DF8044B02333E
:10182000D3607047D3685DF8044B0133D3607047D1
:10183000A04F0020214B10B4D3F8842013685068C7
:1018400019780478507A137A044201EA03011BD014
:10185000937A03F0030309B143F0040343F0080350
:101860009910013B91720D2B0BD8DFE803F0210793
:101870001B070A152121150A071B0721D368013B05
:10188000D3605DF8044B7047937A03F0030300299B
:10189000E6D043F00403E3E7D3685DF8044B023B72
:1018A000D3607047D3685DF8044B0233D360704750
:1018B000D3685DF8044B0133D3607047A04F00201C
:1018C000214B10B4D3F88820136850681978047835
:1018D000507A137A044201EA03011BD0937A03F091
:1018E000030309B143F0040343F008039910013BDB
:1018F00091720D2B0BD8DFE803F021071B070A15A7
:101900002121150A071B0721D368013BD3605DF82D
:10191000044B7047937A03F003030029E6D043F0A9
:101920000403E3E7D3685DF8044B023BD3607047E0
:10193000D3685DF8044B0233D3607047D3685DF819
:10194000044B0133D3607047A04F0020214B10B4EB
:10195000D3F88C201368506819780478507A137A79
:10196000044201EA03011BD0937A03F0030309B197
:1019700043F0040343F008039910013B91720D2BCF
:101980000BD8DFE803F021071B070A152121150AF0
:10199000071B0721D368013BD3605DF8044B7047F8
:1019A000937A03F003030029E6D043F00403E3E74E
:1019B000D3685DF8044B023BD3607047D3685DF891
:1019C000044B0233D3607047D3685DF8044B013396
:1019D000D3607047A04F0020214B10B4D3F8902063
:1019E0001368506819780478507A137A044201EA2F
:1019F00003011BD0937A03F0030309B143F00403FE
:101A000043F008039910013B91720D2B0BD8DFE8CE
:101A100003F021071B070A152121150A071B0721BF
:101A2000D368013BD3605DF8044B7047937A03F0B1
:101A300003030029E6D043F00403E3E7D3685DF82D
:101A4000044B023BD3607047D3685DF8044B02330C
:101A5000D3607047D3685DF8044B0133D36070479F
:101A6000A04F0020214B10B4D3F894201368506885
:101A700019780478507A137A044201EA03011BD0E2
:101A8000937A03F0030309B143F0040343F008031E
:101A90009910013B91720D2B0BD8DFE803F0210761
:101AA0001B070A152121150A071B0721D368013BD3
:101AB000D3605DF8044B7047937A03F00303002969
:101AC000E6D043F00403E3E7D3685DF8044B023B40
:101AD000D3607047D3685DF8044B0233D36070471E
:101AE000D3685DF8044B0133D3607047A04F0020EA
:101AF000214B10B4D3F898201368506819780478F3
:101B0000507A137A044201EA03011BD0937A03F05E
:101B1000030309B143F0040343F008039910013BA8
:101B200091720D2B0BD8DFE803F021071B070A1574
:101B30002121150A071B0721D368013BD3605DF8FB
:101B4000044B7047937A03F003030029E6D043F077
:101B50000403E3E7D3685DF8044B023BD3607047AE
:101B6000D3685DF8044B0233D3607047D3685DF8E7
:101B7000044B0133D3607047A04F0020214B10B4B9
:101B8000D3F89C201368506819780478507A137A37
:101B9000044201EA03011BD0937A03F0030309B165
:101BA00043F0040343F008039910013B91720D2B9D
:101BB0000BD8DFE803F021071B070A152121150ABE
:101BC000071B0721D368013BD3605DF8044B7047C6
:101BD000937A03F003030029E6D043F00403E3E71C
:101BE000D3685DF8044B023BD3607047D3685DF85F
:101BF000044B0233D3607047D3685DF8044B013364
:101C0000D3607047A04F0020214B10B4D3F8A02020
:101C10001368506819780478507A137A044201EAFC
:101C200003011BD0937A03F0030309B143F00403CB
:101C300043F008039910013B91720D2B0BD8DFE89C
:101C400003F021071B070A152121150A071B07218D
:101C5000D368013BD3605DF8044B7047937A03F07F
:101C600003030029E6D043F00403E3E7D3685DF8FB
:101C7000044B023BD3607047D3685DF8044B0233DA
:101C8000D3607047D3685DF8044B0133D36070476D
:101C9000A04F0020214B10B4D3F8A4201368506843
:101CA00019780478507A137A044201EA03011BD0B0
:101CB000937A03F0030309B143F0040343F00803EC
:101CC0009910013B91720D2B0BD8DFE803F021072F
:101CD0001B070A152121150A071B0721D368013BA1
:101CE000D3605DF8044B7047937A03F00303002937
:101CF000E6D043F00403E3E7D3685DF8044B023B0E
:101D0000D3607047D3685DF8044B0233D3607047EB
:101D1000D3685DF8044B0133D3607047A04F0020B7
:101D2000214B10B4D3F8A8201368506819780478B0
:101D3000507A137A044201EA03011BD0937A03F02C
:101D4000030309B143F0040343F008039910013B76
:101D500091720D2B0BD8DFE803F021071B070A1542
:101D60002121150A071B0721D368013BD3605DF8C9
:101D7000044B7047937A03F003030029E6D043F045
:101D80000403E3E7D3685DF8044B023BD36070477C
:101D9000D3685DF8044B0233D3607047D3685DF8B5
:101DA000044B0133D3607047A04F0020214B10B487
:101DB000D3F8AC201368506819780478507A137AF5
:101DC000044201EA03011BD0937A03F0030309B133
:101DD00043F0040343F008039910013B91720D2B6B
:101DE0000BD8DFE803F021071B070A152121150A8C
:101DF000071B0721D368013BD3605DF8044B704794
:101E0000937A03F003030029E6D043F00403E3E7E9
:101E1000D3685DF8044B023BD3607047D3685DF82C
:101E2000044B0233D3607047D3685DF8044B013331
:101E3000D3607047A04F0020214B10B4D3F8B020DE
:101E40001368506819780478507A137A044201EACA
:101E500003011BD0937A03F0030309B143F0040399
:101E600043F008039910013B91720D2B0BD8DFE86A
:101E700003F021071B070A152121150A071B07215B
:101E8000D368013BD3605DF8044B7047937A03F04D
:101E900003030029E6D043F00403E3E7D3685DF8C9
:101EA000044B023BD3607047D3685DF8044B0233A8
:101EB000D3607047D3685DF8044B0133D36070473B
:101EC000A04F0020214B10B4D3F8B4201368506801
:101ED00019780478507A137A044201EA03011BD07E
:101EE000937A03F0030309B143F0040343F00803BA
:101EF0009910013B91720D2B0BD8DFE803F02107FD
:101F00001B070A152121150A071B0721D368013B6E
:101F1000D3605DF8044B7047937A03F00303002904
:101F2000E6D043F00403E3E7D3685DF8044B023BDB
:101F3000D3607047D3685DF8044B0233D3607047B9
:101F4000D3685DF8044B0133D3607047A04F002085
:101F5000214B10B4D3F8B82013685068197804786E
:101F6000507A137A044201EA03011BD0937A03F0FA
:101F7000030309B143F0040343F008039910013B44
:101F800091720D2B0BD8DFE803F021071B070A1510
:101F90002121150A071B0721D368013BD3605DF897
:101FA000044B7047937A03F003030029E6D043F013
:101FB0000403E3E7D3685DF8044B023BD36070474A
:101FC000D3685DF8044B0233D3607047D3685DF883
:101FD000044B0133D3607047A04F0020214B10B455
:101FE000D3F8BC201368506819780478507A137AB3
:101FF000044201EA03011BD0937A03F0030309B101
:1020000043F0040343F008039910013B91720D2B38
:102010000BD8DFE803F021071B070A152121150A59
:10202000071B0721D368013BD3605DF8044B704761
:10203000937A03F003030029E6D043F00403E3E7B7
:10204000D3685DF8044B023BD3607047D3685DF8FA
:10205000044B0233D3607047D3685DF8044B0133FF
:10206000D3607047A04F0020214B10B4D3F8C0209C
:102070001368506819780478507A137A044201EA98
:1020800003011BD0937A03F0030309B143F0040367
:1020900043F008039910013B91720D2B0BD8DFE838
:1020A00003F021071B070A152121150A071B072129
:1020B000D368013BD3605DF8044B7047937A03F01B
:1020C00003030029E6D043F00403E3E7D3685DF897
:1020D000044B023BD3607047D3685DF8044B023376
:1020E000D3607047D3685DF8044B0133D360704709
:1020F000A04F0020214B10B4D3F8C42013685068BF
:1021000019780478507A137A044201EA03011BD04B
:10211000937A03F0030309B143F0040343F0080387
:102120009910013B91720D2B0BD8DFE803F02107CA
:102130001B070A152121150A071B0721D368013B3C
:10214000D3605DF8044B7047937A03F003030029D2
:10215000E6D043F00403E3E7D3685DF8044B023BA9
:10216000D3607047D3685DF8044B0233D360704787
:10217000D3685DF8044B0133D3607047A04F002053
:10218000214B10B4D3F8C82013685068197804782C
:10219000507A137A044201EA03011BD0937A03F0C8
:1021A000030309B143F0040343F008039910013B12
:1021B00091720D2B0BD8DFE803F021071B070A15DE
:1021C0002121150A071B0721D368013BD3605DF865
:1021D000044B7047937A03F003030029E6D043F0E1
:1021E0000403E3E7D3685DF8044B023BD360704718
:1021F000D3685DF8044B0233D3607047D3685DF851
:10220000044B0133D3607047A04F002070B50446E3
:1022100008460D461EF054FF236802462946204614
:102220005B68BDE87040184738B5044608460D465F
:102230001EF046FF2368024629465B682046984701
:102240000546204619F0DAFD284438BD38B5054664
:1022500019F03AFE0446284619F0D0FD204438BD56
:1022600038B5C9B2054619F037FE0446284619F0BC
:10227000C5FD204438BD00BF10B4036841681A781A
:102280000C78417A037A0C4202EA03021BD0837A6B
:1022900003F003030AB143F0040343F008039A1068
:1022A000013B82720D2B0BD8DFE803F021071B07DF
:1022B0000A152121150A071B0721C368013BC360CA
:1022C0005DF8044B7047837A03F00303002AE6D0DD
:1022D00043F00403E3E7C3685DF8044B023BC360CB
:1022E0007047C3685DF8044B0233C3607047C3682E
:1022F0005DF8044B0133C360704700BF08B5034B62
:10230000D3F8EC00FFF7B8FF08BD00BFA04F0020D6
:1023100008B5034BD3F8E800FFF7AEFF08BD00BFD8
:10232000A04F002008B5034BD3F8E400FFF7A4FF4B
:1023300008BD00BFA04F002008B5034BD3F8E00054
:10234000FFF79AFF08BD00BFA04F002008B5034B60
:10235000D3F8DC00FFF790FF08BD00BFA04F0020BE
:1023600008B5034BD3F8D800FFF786FF08BD00BFC0
:10237000A04F002008B5034BD3F8D400FFF77CFF33
:1023800008BD00BFA04F002008B5034BD3F8D00014
:10239000FFF772FF08BD00BFA04F002008B5034B38
:1023A000D3F8CC00FFF768FF08BD00BFA04F0020A6
:1023B00008B50B463B2800F2C682DFE810F0BB02EE
:1023C000B202A902A00297028E0285027C02730269
:1023D0006A02610258024F0246023D0234022B0299
:1023E0002202190210020702AE01A5019C0193010D
:1023F0008A01810178016F0166015D0154014A0182
:10240000400136012C01220118010E010401FA00DD
:10241000F000E600DC00D200C800BE00B400AA0054
:10242000A00096008C00820078006E0064005A00C4
:10243000500046003C00BD4ABD49C2F8EC303B208C
:10244000042217F06FFB012008BDB84AB949C2F851
:10245000E8303A20042217F065FB012008BDB34A9A
:10246000B549C2F8E4303920042217F05BFB0120A3
:1024700008BDAE4AB149C2F8E0303820042217F056
:1024800051FB012008BDA94AAD49C2F8DC30372014
:10249000042217F047FB012008BDA44AA949C2F84D
:1024A000D8303620042217F03DFB012008BD9F4A9A
:1024B000A549C2F8D4303520042217F033FB01209F
:1024C00008BD9A4AA149C2F8D0303420042217F03E
:1024D00029FB012008BD954A9D49C2F8CC30332024
:1024E000042217F01FFB012008BD904A9949C2F849
:1024F000C8303220042217F015FB012008BD8B4A9A
:102500009549C2F8C4303120042217F00BFB01209A
:1025100008BD864A9149C2F8C0303020042217F025
:1025200001FB012008BD814A8D49C2F8BC302F2033
:10253000042217F0F7FA012008BD7C4A8949C2F845
:10254000B8302E20042217F0EDFA012008BD774A9A
:102550008549C2F8B4302D20042217F0E3FA012097
:1025600008BD724A8149C2F8B0302C20042217F00D
:10257000D9FA012008BD6D4A7D49C2F8AC302B2044
:10258000042217F0CFFA012008BD684A7949C2F841
:10259000A8302A20042217F0C5FA012008BD634A9A
:1025A0007549C2F8A4302920042217F0BBFA012093
:1025B00008BD5E4A7149C2F8A0302820042217F0F5
:1025C000B1FA012008BD594A6D49C2F89C30272054
:1025D000042217F0A7FA012008BD544A6949C2F83D
:1025E00098302620042217F09DFA012008BD4F4A9A
:1025F0006549C2F894302520042217F093FA01208F
:1026000008BD4A4A6149C2F890302420042217F0DC
:1026100089FA012008BD454A5D49C2F88C30232063
:10262000042217F07FFA012008BD404A5949C2F838
:1026300088302220042217F075FA012008BD3B4A99
:102640005549C2F884302120042217F06BFA01208A
:1026500008BD364A5149C2F880302020042217F0C4
:1026600061FA012008BD314A4D49D3671F20042279
:1026700017F058FA012008BD2C4A4A4993671E20DA
:10268000042217F04FFA012008BD284A4649536733
:102690001D20042217F046FA012008BD234A4349B1
:1026A00013671C20042217F03DFA012008BD1F4AC1
:1026B0003F49D3661B20042217F034FA012008BDDD
:1026C0001A4A3C4993661A20042217F02BFA01207B
:1026D00008BD164A384953661920042217F022FA19
:1026E000012008BD114A354913661820042217F04D
:1026F00019FA012008BD0D4A3149D365172004227B
:1027000017F010FA012008BD084A2E4993651620DB
:10271000042217F007FA012008BD044A2A4953652C
:102720001520042217F0FEF9012008BDA04F00205B
:10273000FD220000112300002523000039230000A2
:102740004D23000061230000752300008923000051
:102750009D23000081210000F52000006920000079
:10276000DD1F0000511F0000C51E0000391E0000C3
:10277000AD1D0000211D0000951C0000091C00007B
:102780007D1B0000F11A0000651A0000D919000035
:102790004D190000C118000035180000A9170000ED
:1027A0001D170000911600000516000079150000A5
:1027B000ED14000061140000D5130000491300005F
:1027C000BD12000031120000A51100005F4A6049EF
:1027D00013651420042217F0A5F9012008BD5B4AF7
:1027E0005C49D3641320042217F09CF9012008BD32
:1027F000564A594993641220042217F093F9012094
:1028000008BD524A554953641120042217F08AF931
:10281000012008BD4D4A524913641020042217F0CC
:1028200081F9012008BD494A4E49D3630F20042293
:1028300017F078F9012008BD444A4B4993630E20F4
:10284000042217F06FF9012008BD404A474953633D
:102850000D20042217F066F9012008BD3B4A4449C7
:1028600013630C20042217F05DF9012008BD374ADC
:102870004049D3620B20042217F054F9012008BD0F
:10288000324A3D4993620A20042217F04BF9012095
:1028900008BD2E4A394953620920042217F042F933
:1028A000012008BD294A364913620820042217F086
:1028B00039F9012008BD254A3249D3610720042295
:1028C00017F030F9012008BD204A2F4993610620F6
:1028D000042217F027F9012008BD1C4A2B49536137
:1028E0000520042217F01EF9012008BD174A2849C7
:1028F00013610422104617F015F9012008BD134A90
:102900002449D3600320042217F00CF9012008BDEC
:102910000E4A214993600220042217F003F9012096
:1029200008BD0A4A1D4953600120042217F0FAF835
:10293000012008BD054A1A4913600020042217F03F
:10294000F1F8012008BD002008BD00BFA04F002005
:10295000191100008D10000001100000750F00001B
:10296000E90E00005D0E0000D10D0000450D0000D5
:10297000B90C00002D0C0000A10B0000150B00008D
:10298000890A0000FD09000071090000E508000047
:1029900059080000CD07000041070000B5060000FF
:1029A00029060000024B1B68DB6F1B6B1B6970471D
:1029B0004CC8FF1F2DE9F0411D4B1D68854282B0B8
:1029C00016468CB219D005B2C4F590730022294680
:1029D00000921BB20A22174810F09AF9164B1548BC
:1029E0001B880093C4F59572A31B1BB212B2294633
:1029F00010F08EF902B0BDE8F081C4F595772DB2E4
:102A00003FB24FF478483B462946CDF800800A2271
:102A1000084810F07DF9A31B3A461BB2CDF80080A0
:102A20002946044810F074F902B0BDE8F08100BFF7
:102A30000408FF1F5CC8FF1F3C08FF1F2DE9F0437F
:102A4000364F374E3868374D83B01DF03DF841ECB6
:102A5000100B1AF061F80022334B51EC100B1DF0F3
:102A6000A9F81DF07FFBA8463060002431E058F83B
:102A700024001DF029F841EC100B1AF04DF800224B
:102A8000294B51EC100B1DF095F81DF06BFB00EB82
:102A9000C000264A3168DFF8A0E04001B0FBF1F148
:102AA000B1F5907F8ABF4FF490711160116055F8B5
:102AB00024203B6802EBC20252012046B2FBF3F332
:102AC0001A46CEF80030FFF775FF0134B4F5D27F17
:102AD00020D055F82430012BC9D800230FFA84F9EF
:102AE000009349464FF490730A22114810F010F9F0
:102AF000104B1B68A342E8D14FF47843009349463A
:102B00004FF490730A220A48013410F001F9B4F529
:102B1000D27FDED103B0BDE8F08300BF3C86FF1F4B
:102B2000DCCBFF1F4C3BFF1F00005940D044FF1F70
:102B30005CC8FF1F0408FF1F1C4C002030B5104B61
:102B40001D68854283B00B460DD00E4A1288009254
:102B50000446C1F595720C4821B212B21BB210F0B6
:102B6000D7F803B030BDC1F595724FF478400090AE
:102B700029B212B21BB2044810F0CAF803B030BD3B
:102B80000408FF1F6008FF1F5CC8FF1FF8B50B4F4C
:102B90000B4E0C4D002457F82420336802EBC20280
:102BA00052012046B2FBF3F3013419462B60FFF7C4
:102BB000C5FFB4F5D27FEED1F8BD00BF4C3BFF1F7F
:102BC0003C86FF1FD044FF1F00B5074883B0B0F913
:102BD0002020B0F91E30009200220192114610F020
:102BE0003BFB03B05DF804FB5CC8FF1FDFF878C057
:102BF00000232DE9F0411A4FCCF800301A4647F86F
:102C000023200133B3F5007FF9D1164E4FF0000EAB
:102C100001F1FF38002921DDB0F5805F1EDA03469F
:102C200008EB0005002202E0B3F5805F06D056F8FD
:102C30002340AB42224403F10103F5D10844B0F52F
:102C4000805F47F82E2004DA0EF1010EBEF5007FFA
:102C5000E0D10023CCF80030BDE8F0810022EDE7A0
:102C60004C3BFF1F1845FF1FD044FF1F0023414866
:102C7000194640F823100133B3F5805F4FF000028E
:102C8000F7D13D4B3D483E49F0B43E4C3E4F1A60B3
:102C90003E4B227002600A603A603D4E3D4D3E4C14
:102CA0003E483F493F4F1A603F4B32602A602260E6
:102CB00002600A603A603D4E3D4D3E4C3E483F4901
:102CC0003F4F1A603F4B32602A60226002600A6008
:102CD0003A603D4E3D4D3E4C3E483F493F4F1A60A5
:102CE0003F4B32602A60226002603E4E3E4D3F4CB8
:102CF0003F480A603A603F493F4F1A603C233260C8
:102D00002A603E4E3E4D226002603E4C0B603E48C3
:102D10003B603E4F3E4933602B60236003603B6065
:102D20003C4E3D4D3D4C3E483E4F0B603E4933606E
:102D30002B60236003603D4E3D4D3E4C3E483F4B73
:102D40003A70B4270F603E493E4F32702A703E4EB3
:102D50003E4D227002703E4C1A703E483E4B0A7047
:102D600000213A7032702A70227002701960F0BC33
:102D7000704700BF1845FF1F58C8FF1F284C002090
:102D80001445FF1F2C85FF1FF84B0020084C002026
:102D90005885FF1FFC4B0020004C0020044C0020F5
:102DA0000C4C00203886FF1FBC44FF1F144C002031
:102DB000B044FF1FB444FF1FB844FF1FC044FF1FAF
:102DC000CC17FF1F2C44FF1F1C44FF1F2044FF1F74
:102DD0002444FF1F5444FF1F3044FF1F3444FF1F8F
:102DE0004C44FF1F3C44FF1F4044FF1F4444FF1F4F
:102DF0004844FF1FBC08FF1FB808FF1FB408FF1F8F
:102E0000B008FF1FAC08FF1F1809FF1F1009FF1FA4
:102E10001409FF1F0C09FF1F0809FF1F0409FF1FEA
:102E20000009FF1F4886FF1F2809FF1F3844FF1FA6
:102E30005038FF1F1844FF1FEC44FF1F2844FF1F9A
:102E40005485FF1F5C85FF1F443BFF1F09CBFF1FFD
:102E5000C417FF1F28C8FF1F4485FF1F394A3A487F
:102E60003A49DFF8ACC10023F0B5394E394D136053
:102E7000394C3A4A33602B6003600B60384F394E4F
:102E8000394D3A483A49236013603A4C3A4A3B601C
:102E900033602B6003600B60384F394E394D3A4830
:102EA0003A49236013603A4C3A4A3B6033602B60E6
:102EB00003600B60384F394E394D3A483A49236028
:102EC00013603A4C3B603C2233600A60384F394E05
:102ED0002B600360384D39483949DFF838E122600A
:102EE000384C3A603260384F384ECCF80030CEF86B
:102EF00000302A6002600B70354D3648364922603A
:102F0000364C3A6032602A6002600A60344F354EB7
:102F1000354D3648364A37492370374C3B7033704D
:102F20002B7003701370354F354E364D3648374A87
:102F30000B7023700021B4243B7033702B7004603D
:102F40001160F0BD084C0020044C00200C4C002007
:102F5000FC4B0020004C00203886FF1FBC44FF1FA4
:102F6000144C0020B044FF1FB444FF1FB844FF1F9F
:102F7000C044FF1FCC17FF1F2C44FF1F1C44FF1F22
:102F80002044FF1F2444FF1F5444FF1F3044FF1FF1
:102F90003444FF1F4C44FF1F3C44FF1F4044FF1FAD
:102FA0004444FF1F4844FF1FBC08FF1FB808FF1F11
:102FB000B408FF1FB008FF1FAC08FF1F1809FF1F50
:102FC0004886FF1F1409FF1F1009FF1F0C09FF1F70
:102FD0000809FF1F0409FF1F0009FF1F3844FF1FD6
:102FE0005038FF1F1844FF1FEC44FF1F2844FF1FE9
:102FF0005485FF1F5C85FF1F443BFF1F09CBFF1F4C
:10300000C417FF1F28C8FF1F2809FF1F4485FF1F83
:10301000F84B00205885FF1F544A554BD2ED007ADB
:10302000D3ED006A534B27EEA76A66EEA63AD3EDBE
:10303000004A76EE632A64EEA40A77EEE65A22EEA0
:10304000E47A23EEE74AA0EEA57A0022A6EE864AAD
:1030500037EE047AB5EE407AF1EE10FA79D04649AF
:10306000464A474BD2ED001A93ED001A91ED002A23
:103070009FED440A25EE825A71EEC15AF1EE644A80
:1030800066EEA16A67EE817AA4EEA55A36EEE73ABB
:1030900033EE055A85EE073AB0EEC35AB4EE405A05
:1030A000F1EE10FA48DCB4EE433AF1EE10FA47D6EE
:1030B000354B83ED003A26EE016A60EEA55AA3EE89
:1030C000E16AE2EEC25ADFED2F3A75EE865A85EEDE
:1030D000875AF0EEC55AF4EE635AF1EE10FA03DDAA
:1030E00015EE103A002B2FDAB4EE455AF1EE10FA35
:1030F0002AD6264B83ED005A77EEE67ADFED215A89
:1031000067EEA07AE4EE867AE4EE027AC7EE876A8A
:10311000F0EEE67AF4EE657AF1EE10FA03DD16EEE3
:10312000903A002B1EDAF4EE666AF1EE10FA19D628
:10313000174BC3ED006A704713EE103A002BB2DB59
:10314000114B00221A60B6E7104B4FF07E521A6006
:10315000D2E70D480D490E4B02604FF07E500860DB
:103160001A6070470A4B00221A6070475809FF1F07
:103170005C09FF1F5409FF1FD808FF1F9408FF1F99
:103180009808FF1FFFFF7F7F5085FF1F3408FF1F38
:103190004838FF1F30B583B001AD0424204616F037
:1031A0006FF90134082C05F8010BF7D1124A134BC3
:1031B00092ED007A9DED016AD3ED006A104A114B41
:1031C00092ED005AD3ED005A66EE077A26EE267A83
:1031D000F7EE006AE6EE077A77EE857A77EEE57A23
:1031E000F0EEE77AF4EEE67AF1EE10FA94BF012001
:1031F0004FF0FF3003B030BD3408FF1F5085FF1F74
:103200004838FF1F9408FF1F38B51B4C237C012B47
:103210002CD972B6184DE36862B61849184A086886
:103220001360984221D0002B164816DB0068B3EBE0
:10323000800F05DD0023136072B6E36062B6136889
:10324000114C0B60002B1A46B8BFDA1C921022609A
:103250003220BDE8384016F07DBF03689B00136044
:1032600072B6EB6062B61368E0E738BD72B620460E
:10327000FFF702F8CEE700BF2038FF1FE007FF1F6F
:10328000C817FF1F4C38FF1F3C4C00202DE9F047AA
:1032900085B28CB284B02E4E04F1210305F11402E4
:1032A0004FF4784E07B212B218B2A5F11403CDF85C
:1032B0000CE0019202900AB20090394630461BB2EF
:1032C000A5F1020911F0F2FC4FF6FF780FFA89F927
:1032D00004F109020E23494630468DE8080112B276
:1032E00005230FF0B9FF04F1FF3A0523494604F125
:1032F0001A02A5F11509223424B2304600930FFAC0
:103300008AFA0FFA89F9CDF8048012B215350FF058
:10331000A3FF2DB252464B46394630468DE8100188
:1033200014F07AF8524639462B4630460094CDF8D0
:10333000048014F071F800944B4622462946CDF8DB
:103340000480304614F068F804B0BDE8F08700BF90
:103350005CC8FF1F2DE9F0438DB2264E05F102082F
:1033600085B04CF218690FFA88F8052384B24246FA
:103370008DE808020F46042301B230460FF06CFFBF
:10338000A31D05F108001BB23FB200B2EA1CA11C4C
:10339000009701930290CDF80C90304612B209B21A
:1033A00004F1080711F082FC3FB24FF0000E6A1CD6
:1033B0000723123406358DE808403946304624B2DA
:1033C0002DB212B20D230FF047FF23464246394675
:1033D00030468DE8200214F01FF8CDF80080234617
:1033E0002A463946CDF80490304614F015F805B059
:1033F000BDE8F0835CC8FF1F2DE9F04F8DB2354E5C
:1034000005F1020A85B04CF218670FFA8AFA052313
:1034100084B28846524601B28DE8880030460423C3
:103420000FF01AFFA31D05F1080205F1030E0FFAB4
:1034300088F01BB212B2A11C009001930292304698
:103440000FFA8EF2039709B204F1080B11F02EFC6B
:103450000FFA8BFB4FF0000E6A1C072304F10D08D6
:1034600005F104098DE808400FFA88F80FFA89F988
:103470005946304612B20D2306350FF0EDFE2DB23F
:1034800052465946434630460197CDF800901234D3
:1034900013F0C2FF24B2594643462A463046CDF8BF
:1034A0000090019713F0B8FF52462346414630463C
:1034B000CDF80090019713F0AFFFCDF800902346B0
:1034C0002A4641460197304613F0A6FF05B0BDE8F5
:1034D000F08F00BF5CC8FF1F2DE9F04F8DB2364E54
:1034E00005F1020985B00FFA89F94CF21868052335
:1034F00084B28DE808014A460F46042301B23046E3
:103500000FF0AAFEA31D05F108001BB23FB200B2E6
:10351000EA1CA11C0097CDF80C800193029012B216
:10352000304609B211F0C2FB04F1080B0027072353
:103530000FFA8BFB8DE888006A1C04F10D0705F17A
:1035400004083FB20FFA88F840F2FF7A5946304635
:1035500012B20D2306350FF07FFE2DB24A465946B2
:103560003B463046CDF80080CDF804A0123413F06D
:1035700053FF24B259463B462A463046CDF80080D8
:10358000CDF804A013F048FF4A462346394630469A
:10359000CDF80080CDF804A013F03EFFCDF80080F8
:1035A00023462A463946CDF804A0304613F034FFAE
:1035B00005B0BDE8F08F00BF5CC8FF1F2DE9F04FDC
:1035C000504B1B7883B0002B48D1002A00F08F802D
:1035D000002A40DD8FB285B207F10A0B96B20FFACE
:1035E00080FA0CB20FFA8BFB07F1030905F105080D
:1035F0000FFA88F822460FFA89F953465146424895
:103600000196CDF800B0073713F006FF3FB222460F
:10361000434651463C480196CDF800906C1F13F08C
:10362000FBFE24B25A46514643463748009701965E
:1036300013F0F2FE23463A4641463348CDF8009057
:10364000019613F0E9FE009723464A46414601964B
:103650002D4813F0E1FE03B0BDE8F08F002AB7D18A
:103660008EB206F10A0A0CB20FFA8AFA0FFA80F942
:1036700040F2FF7885B26F1D06F1030B3FB20FFADF
:103680008BFB22464B464946CDF800A0CDF804807E
:103690001D48073613F0C0FE36B222463B46494667
:1036A000CDF80480CDF800B01748053D13F0B4FE06
:1036B0002DB2524649463B468DE84001124813F070
:1036C000ABFE2B4632463946CDF800B0CDF804802B
:1036D0000D4813F0A1FE00962B465A463946CDF808
:1036E0000480094813F098FE03B0BDE8F08F8EB255
:1036F00006F10A0A0CB20FFA8AFA0FFA80F947F6B5
:10370000EF38B7E7303BFF1F5CC8FF1F2DE9F04FD4
:103710003A4B85B21B7805F10A0785B00A4604B218
:103720003FB20FFA81FA002B64D14FF4404692B2B7
:103730003B4621460292CDF800A052460196304801
:1037400013F06AFE029B019603F10A080FFA88F84B
:103750003B4642462146CDF80080294813F05CFEE6
:103760000299019601F105090FFA89F9EB1C05F19F
:10377000010B04351BB2524621460FFA8BFB2DB2CA
:10378000CDF800901E48039313F046FE2B46594691
:103790005246CDF800900196194813F03DFE03996A
:1037A000CDF8008023464A460196154813F034FEB2
:1037B0005B464A462946CDF800800196104813F032
:1037C0002BFE029C0196A01C00B252463B46394695
:1037D00000900B4813F020FE04F108031BB28DE8A3
:1037E000480042463B463946054813F015FE05B0F1
:1037F000BDE8F08F40F2FF7699E700BF6885FF1FB4
:103800005CC8FF1F2DE9F04F85B28CB283B0DFF8A2
:1038100060806E1DA71C0A3424B240F2FF7936B2D4
:103820003FB205F1080382468B463A463146404690
:1038300000941BB2CDF8049013F0EEFD05F10A03DD
:10384000A91D0FFA8BF240468DE810021BB209B297
:1038500013F0E2FD00943A463146CDF804900FFA99
:103860008AF3404613F0D8FD03B0BDE8F08F00BFE7
:103870005CC8FF1F2DE9F0478DB282B0374E05F1CD
:10388000040905F1110197B20FFA89F903B209B2DF
:1038900084B24A46009130461946019713F0BCFDA8
:1038A000631C05F110001BB200B219464A46009095
:1038B0000197304613F0B0FD05F10E0804F108033E
:1038C0000FFA88F81BB219464A46CDF800803046F8
:1038D000019713F0A1FD04F109031BB2CDF800809C
:1038E0004A4619463046019713F096FD04F1020945
:1038F00004F1040A05F10D020FFA89F90FFA8AFAA8
:1039000012B24946534600923046019713F084FDA7
:1039100053464946CDF8008042463046019713F0A1
:103920007BFD04F1050805F10C0207340FFA88F855
:1039300024B212B22346414600923046019713F05A
:103940006BFD05F10B0212B2234641468DE884005F
:10395000304613F061FD02B0BDE8F0875CC8FF1F80
:1039600010B514F0E7FF092827DC324C3030302343
:103970006070237014F0EEFF092831DC3030302302
:10398000E070A37014F0A6FF09283BDC3030302330
:103990006071237114F0AEFF092845DD264BC21774
:1039A00083FB0013C2EBA30303EB8302A0EB4200F3
:1039B00030303033E071A37110BD1F4B1D4C83FBC1
:1039C0000032C317C3EBA20303EB8302A0EB420058
:1039D000303030336070237014F0BCFF0928CDDD27
:1039E000154BC21783FB0013C2EBA30303EB830247
:1039F000A0EB420030303033E070A37014F06AFF67
:103A00000928C3DD0C4BC21783FB0013C2EBA303D1
:103A100003EB8302A0EB420030303033607123713E
:103A200014F068FF0928B9DC30303023E071A3714D
:103A300010BD00BFF407FF1F676666662DE9F043FF
:103A40002F4E002389B00746336008E0336868468C
:103A5000013333600BF09EFD68460BF08FFD684626
:103A6000012239460BF092FF68460BF0A1FD0028B9
:103A7000ECD138460BF0E4FF68460BF07FFD35686B
:103A8000B5F1FE6F39D94FF0FF3018F01DFE10234D
:103A900080E8280000F108096C1E4DB14D4628460B
:103AA000013C002118F096FC631C05F11005F6D1CD
:103AB0003368DFF85080002BC8F800901ADD00242E
:103AC0000122394668460BF061FFD8F8003068469D
:103AD00003EB04150BF054FD0146284618F02EFDAB
:103AE00068460BF057FD68460BF048FD336801341B
:103AF000A342E5DC09B0BDE8F08328010830C4E743
:103B0000E0CBFF1FBC4C002008B5C8224FF4DC718D
:103B1000112018F07BFBDC2016F01CFBC8224FF4B0
:103B2000DC71112018F072FBDC2016F013FB112061
:103B3000C8224FF4DC7118F069FBDC20BDE80840B6
:103B400016F008BB70B594B00CA801234F4A504939
:103B50000BF08CFE0CA80BF02BFD20B90CA80BF081
:103B60000DFD14B070BD68464A494B4E18F032FC4A
:103B70000CA80BF06FFC90B10CA80BF089FCC3B241
:103B8000392B1946684606D80A2B13D018F018FDB1
:103B9000029B202BECD9FFF7B7FFFFF767F80CA8C3
:103BA0000BF0F8FC684618F0D5FB0CA80BF0E6FC0F
:103BB00014B070BD2C21684618F042FD05466C1CFF
:103BC00003464FF00002694604A8334CE3D018F0D6
:103BD00047FD6A1C029B694608A818F041FD04A82D
:103BE00018F062FD054608A818F05EFD294946F860
:103BF0002500684618F0A2FC08A818F0ABFB04A842
:103C000018F0A8FB40F6FF739D42B1D1234B20680A
:103C1000186000221346226054F823100133B3F5D4
:103C2000805F0A44F8D140BB1D4B18601D4B1E4AF3
:103C3000186811681D4CFEF7D9FF1D48002323604A
:103C40002646054650F823102268914284BF55F855
:103C5000232032600133B3F5007FF3D12368012BB9
:103C600001D9FEF7EBFE236863B94FF47A7016F0C2
:103C700071FA0CA80BF08EFC91E7094BB2FBF0F245
:103C80001A60D3E7FEF782FFEFE700BFF407FF1FDC
:103C9000E44C0020B8FB04001845FF1F284C00200E
:103CA000243BFF1FC844FF1F9C08FF1F3C86FF1FCB
:103CB0004C3BFF1F30B595B00CA80123324A334965
:103CC0000BF0D4FD0CA80BF073FC20B90CA80BF082
:103CD00055FC15B030BD68462D492E4D18F07AFBC5
:103CE0000CA80BF0B7FB80B10CA80BF0D1FBC3B252
:103CF000392B1946684606D80A2B11D018F060FCFB
:103D0000029B202BECD9FFF7FFFE0CA80BF042FC26
:103D1000684618F01FFB0CA80BF030FC15B030BD46
:103D20002C21684618F08CFC0446B4F1FF3F034692
:103D30004FF00002694604A8E5D018F091FC621C1F
:103D4000029B694608A818F08BFC04A818F0ACFC8C
:103D5000044608A818F0A8FC0D4945F82400684658
:103D600018F0ECFB08A818F0F5FA04A818F0F2FA1D
:103D700040F6FF739C42B3D14FF47A7016F0EAF923
:103D80000CA80BF007FCC0E7E84F0200E44C002051
:103D9000B8FB04002887FF1F2DE9F0412DED028BB1
:103DA00098B008A80BF0DCFBAE49AF480BF0D2FD91
:103DB000002840F0BD81AD49AB480BF0CBFD002899
:103DC00040F01E81AA49A8480BF0C4FD002840F02D
:103DD0009380A849A4480BF0BDFD50B908A80BF08A
:103DE000D9FB08A80BF0CAFB18B0BDEC028BBDE8EC
:103DF000F08110AD01239F4A9B4928460BF036FD08
:103E00009DF84410129A9DF84C308DF824100A92B7
:103E10008DF82C3013A90DF12D020DF13A0311F894
:103E2000010F02F8010B9A42F9D1179B0F93284614
:103E30000BF0A4FB08A80BF0BBFB0028CED0684613
:103E40008D49DFED8E8ADFF838826C4618F0C2FAB1
:103E5000002608E018F0B4FB029B202B00F20F8232
:103E6000322E00F0E48108A80BF0F4FA002800F0EC
:103E7000E18108A80BF00CFBC3B2392B1946204690
:103E800000F2FD810A2BE5D12E21204618F0D8FB47
:103E90000746B7F1FF3F0346214604A84FF0000252
:103EA00000F0ED8118F0DCFB7A1C029B21462846CD
:103EB00018F0D6FB04A818F0F7FB08EE100A284605
:103EC00018F0F2FB07EE900AB8EEE77AB8EEC88A6F
:103ED000C7EE287A08EB860367492046013677EE5D
:103EE000887AC3ED007A18F029FB284618F032FAD8
:103EF00004A818F02FFAB3E710AD01235C4A5A4921
:103F000028460BF0B3FC9DF84410129A9DF84C30F3
:103F10008DF824100A928DF82C3013A90DF12D0282
:103F20000DF13A0311F8010F02F8010B9A42F9D191
:103F3000179B0F9328460BF021FB08A80BF038FBCA
:103F400000283FF446AF68464B49DFED4C8ADFF866
:103F500034816C4618F03EFA002608E018F030FB79
:103F6000029B202B00F29181322E00F06A8108A87A
:103F70000BF070FA002800F0678108A80BF088FAAF
:103F8000C3B2392B1946204600F27F810A2BE5D1B6
:103F90002E21204618F054FB0746B7F1FF3F034699
:103FA000214604A84FF0000200F06F8118F058FB82
:103FB0007A1C029B2146284618F052FB04A818F0F0
:103FC00073FB08EE100A284618F06EFB07EE900A05
:103FD000B8EEE77AB8EEC88AC7EE287A08EB86030F
:103FE00025492046013677EE887AC3ED007A18F02D
:103FF000A5FA284618F0AEF904A818F0ABF9B3E713
:1040000010AD0123194A184928460BF02FFC9DF8E2
:104010004410129A9DF84C308DF824100A928DF8B5
:104020002C3013A90DF12D020DF13A0311F8010FF7
:1040300002F8010B9A42F9D1179B0F9328460BF017
:104040009DFA08A80BF0B4FA00283FF4BBAE68460E
:104050000949DFED0A8ADFF830806C4618F0BAF9BA
:1040600000261CE0C008FF1FE44C00205008FF1F82
:104070007008FF1F4008FF1FB8FB0400286B6E4E3E
:104080007085FF1F4C86FF1F4C43FF1F18F098FAE6
:10409000029B202B00F2FC80322E00F0DC8008A86E
:1040A0000BF0D8F9002800F0D98008A80BF0F0F93F
:1040B000C3B2392B1946204600F2EA800A2BE5D11B
:1040C0002E21204618F0BCFA0746B7F1FF3F034601
:1040D000214604A84FF0000200F0DA8018F0C0FA80
:1040E0007A1C029B2146284618F0BAFA04A818F058
:1040F000DBFA08EE100A284618F0D6FA07EE900A06
:10410000B8EEE77AB8EEC88AC7EE287A08EB8603DD
:1041100061492046013677EE887AC3ED007A18F0BF
:104120000DFA284618F016F904A818F013F9B3E7A9
:1041300010AD0123594A5A4928460BF097FB9DF8C8
:104140004410129A9DF84C308DF824100A928DF884
:104150002C3013A90DF12D020DF13A0311F8010FC6
:1041600002F8010B9A42F9D1179B0F9328460BF0E6
:1041700005FA08A80BF01CFA00283FF41CAE6846AC
:104180004549DFED488ADFF820816C4618F022F9B6
:10419000002606E018F014FA029B202B72D8322E6B
:1041A00063D008A80BF056F9002861D008A80BF0DE
:1041B0006FF9C3B2392B1946204663D80A2BE9D1CF
:1041C0002E21204618F03CFA0746B7F1FF3F034680
:1041D000214604A84FF0000254D018F041FA7A1C8E
:1041E000029B2146284618F03BFA04A818F05CFA16
:1041F00008EE100A284618F057FA07EE900AB8EEB3
:10420000E77AB8EEC88AC7EE287A08EB8603224917
:104210002046013677EE887AC3ED007A18F08EF9E1
:10422000284618F097F804A818F094F8B7E708A8FB
:104230000BF0B0F908A80BF0ADF9204618F08AF899
:10424000CCE508A80BF0A6F908A80BF0A3F92046C6
:1042500018F080F8BDE508A80BF09CF908A80BF051
:1042600099F9204618F076F8ACE508A80BF092F919
:1042700008A80BF08FF9204618F06CF89BE5FFF7C3
:1042800043FCD7E7FFF740FCF2E7FFF73DFCDBE735
:10429000FFF73AFCE2E700BFB8FB0400C008FF1FCD
:1042A000E44C0020286B6E4E14CBFF1FCF49D04A40
:1042B000D04BD14891ED007AD2ED006A93ED006ABF
:1042C000CE499FEDCF4AD0ED004A30B440F6E770BA
:1042D000012407EE904AB8EEE75A192335EE045A46
:1042E00003E00133834200F0138207EE903A03FBB0
:1042F00003F2F8EEE77A05EE902A67EE877AF8EE99
:10430000E55AE5EEA67A77EE867A74EEE77AF0EE75
:10431000E77AB4EEE75AF1EE10FAE2DB01340B2C47
:1043200036D17A230122B748B74CD0ED004A9FED31
:10433000B44A2360012540F6E77407EE905AB8EEC0
:10434000E75A192335EE045A03E00133A34200F083
:10435000E58107EE903A03FB03F0F8EEE77A05EE0D
:10436000900A67EE877AF8EEE55AE5EEA67A77EEE0
:10437000867A74EEE77AF0EEE77AB4EEE75AF1EE79
:1043800010FAE2DB01350B2D06D0581CD5D006E023
:104390005D1C9ED00022C6E740F26E2301229B489E
:1043A0009B4CD0ED004A9FED964A2360012540F6D4
:1043B000E77407EE905AB8EEE75A192335EE045A1F
:1043C00003E00133A34200F0A68107EE903A03FB1D
:1043D00003F0F8EEE77A05EE900A67EE877AF8EEDA
:1043E000E55AE5EEA67A77EE867A74EEE77AF0EE95
:1043F000E77AB4EEE75AF1EE10FAE2DB01350B2D65
:1044000002D0581CD5D002E040F23453012281483A
:10441000814CD0ED004A9FED7A4A2360012540F699
:10442000E77407EE905AB8EEE75A192335EE045AAE
:1044300003E00133A34200F0748107EE903A03FBDE
:1044400003F0F8EEE77A05EE900A67EE877AF8EE69
:10445000E55AE5EEA67A77EE867A74EEE77AF0EE24
:10446000E77AB4EEE75AF1EE10FAE2DB01350B2DF4
:1044700002D0581CD5D002E040F2492301226748FF
:10448000674CD0ED004A9FED5E4A2360012540F65F
:10449000E77407EE905AB8EEE75A192335EE045A3E
:1044A00003E00133A34200F0428107EE903A03FBA0
:1044B00003F0F8EEE77A05EE900A67EE877AF8EEF9
:1044C000E55AE5EEA67A77EE867A74EEE77AF0EEB4
:1044D000E77AB4EEE75AF1EE10FAE2DB01350B2D84
:1044E00002D0581CD5D002E04FF4397301224D4858
:1044F0009FED434ADFED4C4A0360012540F6E77427
:1045000007EE905AB8EEE75A192335EE045A03E045
:104510000133A34200F0088107EE903A03FB03F059
:10452000F8EEE77A05EE900A67EE877AF8EEE55A3C
:10453000E5EEA67A77EE867A74EEE77AF0EEE77A21
:10454000B4EEE75AF1EE10FAE2DB01350B2D02D0A2
:10455000581CD5D002E04FF43E73012233489FED42
:10456000284ADFED334A0360012540F6E77407EE81
:10457000905AB8EEE75A192335EE045A03E0013396
:10458000A34200F0BF8007EE903A03FB03F0F8EE81
:10459000E77A05EE900A67EE877AF8EEE55AE5EEDF
:1045A000A67A77EE867A74EEE77AF0EEE77AB4EEE2
:1045B000E75AF1EE10FAE2DB01350B2D02D0581C60
:1045C000D5D001E0902301221A489FED0D4ADFED7E
:1045D0001A4A0360012540F6E77407EE905AB8EED8
:1045E000E75A192335EE045A2BE000BF3408FF1FA9
:1045F0005085FF1F4838FF1F0808FF1F9008FF1F46
:10460000000000000C08FF1F3085FF1F1008FF1F6F
:104610003485FF1F1408FF1F3885FF1F1808FF1F70
:104620003C85FF1F4085FF1F00003E448808FF1F98
:1046300000001043E808FF1F00007F440133A3423D
:1046400063D007EE903A03FB03F0F8EEE77A05EE4D
:10465000900A67EE877AF8EEE55AE5EEA67A77EEED
:10466000867A74EEE77AF0EEE77AB4EEE75AF1EE86
:1046700010FAE3DB01350B2D02D0581CADD002E05F
:104680004FF47F7301222B489FED2B4ADFED2B4A1D
:104690000360012540F6E77407EE905AB8EEE75A3A
:1046A000192335EE045A02E00133A34227D007EE66
:1046B000903A03FB03F0F8EEE77A05EE900A67EE16
:1046C000877AF8EEE55AE5EEA67A77EE867A74EE0A
:1046D000E77AF0EEE77AB4EEE75AF1EE10FAE3DBB0
:1046E00001350B2D05D0581CD6D00B6022B930BC3B
:1046F00070474FF4FE730B6030BCFFF705BA4FF004
:10470000FF33EDE74FF0FF3356E74FF0FF33B1E7EC
:104710004FF0FF3302E64FF0FF336FE64FF0FF3309
:1047200030E64FF0FF33A1E64FF0FF330DE74FF0D7
:10473000FF33D3E68C08FF1F000000000000FE439B
:1047400008B564224FF45C71112017F05FFD6520FD
:1047500015F000FD642240F21741112017F056FDBC
:10476000652015F0F7FC1120642240F2275117F064
:104770004DFD6520BDE8084015F0ECBC08B5C82229
:1047800040F22751112017F041FDC92015F0E2FC3D
:104790001120DC2240F2174117F038FDDD20BDE882
:1047A000084015F0D7BC00BF70B594B0FFF7D8F83B
:1047B000394B3A4818603A4A3A490CA813230BF08F
:1047C00055F80CA80AF0F4FE20B90CA80AF0D6FEA1
:1047D00014B070BD3449354E08A817F0FBFD344ABB
:1047E0003449354B12681B68096804A801FB023183
:1047F0000A2217F035FE04A908A817F0F1FE0146B9
:104800002E4817F08BFE04A817F0A4FD08A817F097
:10481000A1FD2A490CA817F0CBFA0CA817F0EEFA64
:1048200001240A222146684617F006FE694604A8BC
:1048300017F0E4FD224904A817F0DAFE0A2256F820
:104840002410054608A817F01FFE08A9284617F0EF
:10485000C7FE0146194817F061FE08A817F07AFD57
:1048600004A817F077FD684617F074FD13490CA8EB
:1048700017F09EFA01340CA817F0C0FAB4F5805F67
:10488000CFD1FFF77BFF0CA80AF084FE0CA80AF03A
:1048900075FE14B070BD00BF504D0020B50400007F
:1048A000F407FF1FE44C0020F84F02001845FF1FDB
:1048B00058C8FF1F4009FF1F284C0020FC44FF1F61
:1048C000FC4F0200F8B51248124F00253D602C46FF
:1048D00029462B46064650F823208A4203D956F82B
:1048E0002340012521460133B3F5805FF3D165B93B
:1048F000094B994208D9094C01232370FFF754FF53
:10490000FEF7B4F900232370F8BD3C60F0E700BF68
:104910001845FF1FCC44FF1F809698002C85FF1F71
:1049200070B52B492B4894B00BF014F8002849D1EE
:10493000294B2A481860264A26490CA813230AF056
:1049400095FF0CA80AF034FE002836D0244E00242F
:104950000A222146684617F06FFD694604A817F041
:104960004DFD204904A817F043FE0A2256F82410F2
:10497000054608A817F088FD08A9284617F030FE5C
:104980000146194817F0CAFD08A817F0E3FC04A86F
:1049900017F0E0FC684617F0DDFC13490CA817F08F
:1049A00007FA01340CA817F029FAB4F5805FCFD1CB
:1049B000FFF7E4FE0CA80AF0EDFD0CA80AF0DEFDFE
:1049C00014B070BD024903480AF0D2FFB0E700BF3F
:1049D000E84F0200E44C0020504D0020B5040000D8
:1049E0001845FF1FFC4F0200FC44FF1F38B535245B
:1049F00044F6B0250121112015F092FB2B46013B16
:104A0000FDD10021112015F08BFB2B46013BFDD180
:104A1000013CEFD1412443F638350121112015F036
:104A20007FFB2B46013BFDD10021112015F078FBC7
:104A30002B46013BFDD1013CEFD1352444F6B02596
:104A40000121112015F06CFB2B46013BFDD100210B
:104A5000112015F065FB2B46013BFDD1013CEFD148
:104A600038BD00BF2DE9F0472DED028B642082B0E8
:104A7000DA4D15F06FFB00242E46204614F000FDA1
:104A80000134042C06F8010BF7D1D54E37462046E9
:104A900014F0F6FC0134082C07F8010BF7D1D14FC4
:104AA000B846204614F0ECFC01340C2C08F8010B3D
:104AB000F7D1D5ED007AC94BF4EE677AD6ED007ADE
:104AC000F1EE10FA64BFC84A1A60F4EE677A6CBF60
:104AD0004FF001084FF00008F1EE10FAC04B80F1E2
:104AE000BA82D7ED007ABF4BF4EE677AF1EE10FA96
:104AF00080F1B682DFF8F4A22424D146204614F0D7
:104B0000BFFC0134282C09F8010BF7D19AED008A7B
:104B1000B64BB4EE488AF1EE10FA80F1A682DFEDD2
:104B2000B47AB4EEE78AF1EE10FA40F34E82F2EE78
:104B3000047AB0EE678ACAED007ADFF8B8A22924B9
:104B4000D146204614F09CFC01342D2C09F8010BB1
:104B5000F7D1DAED007AA74BF4EE677AF1EE10FAAE
:104B600080F18A829FEDA47AF4EEC77AF1EE10FA12
:104B700040F322829FEDA17AF0EE477A8AED007A27
:104B8000B0EE007AF0EE086AB0EE676AA8EE076A47
:104B90009B4B9C4AE8EE267A282082ED006AC3ED02
:104BA000007A14F06DFC984B002840F0CE8118700C
:104BB000192014F065FC0828944C00F3CF81206084
:104BC000002800F0D8811F2014F05AFC642300FB59
:104BD00003308F4A44F620639842106000F20A8244
:104BE000DFF830A21A24D146204614F049FC0134E3
:104BF0001E2C09F8010BF7D1DAED007A854BF4EEA3
:104C0000677AF1EE10FA80F13E82DFF80CA22024E0
:104C1000D146204614F034FC0134242C09F8010B51
:104C2000F7D1DAED007A7C4BF4EE677AF1EE10FA08
:104C300080F12E82182014F023FC032800F2CE818C
:104C4000764B1870764B002840F071814FF084420B
:104C50001A607449744B7548754A08601A60D5ED3E
:104C6000007AF5EEC07AF1EE10FA40F230819FED55
:104C7000717AF4EEC77AF1EE10FA00F32881D6EDDE
:104C8000007AF5EEC07AF1EE10FA40F211819FED54
:104C9000697AF4EEC77AF1EE10FA00F30981D7EDE4
:104CA000007AF5EEC07AF1EE10FA40F2F2809FED54
:104CB000617AF4EEC77AF1EE10FA00F3EA802D2063
:104CC00014F0DEFB05462E2014F0DAFB5A4E00EB02
:104CD00005252F20356014F0D3FB0446302014F056
:104CE000CFFB564B00EB04208542186040F3FE805A
:104CF0000A2140F6F672322031601A6014F0C0FBCF
:104D0000012840F205810021322014F0D3FB4C4BE6
:104D100000221A704B4C4C494C4B4D4D25604FF0C6
:104D20007C50322208601A60332014F0A9FB04463C
:104D3000342014F0A5FB00EB0420A0F10A0246F297
:104D40009E139A4200F26181424B186007EE900A6E
:104D50001620B8EEE70A15F051F97F21162014F05D
:104D6000B9FF3D4B7F2235201A6014F089FB0128E2
:104D700040F214810021352014F09CFB374C384957
:104D8000384B002545F21F0047F2B332257008600A
:104D90001A60354E36243546204614F071FB013436
:104DA0003A2C05F8010BF7D1D6ED007A2E4CF4EE33
:104DB000677AF1EE10FA80F170819FED2C7AF4EEB3
:104DC000C77AF1EE10FA53D4B1EE047AF4EEC77A52
:104DD000F1EE10FA40F3D9804AE000BF5409FF1FFA
:104DE0005809FF1F5C09FF1F0000D0423808FF1F51
:104DF0000000C842D807FF1F00009643000016437A
:104E00005044FF1FF044FF1F6885FF1F9C08FF1FD1
:104E10004009FF1FD408FF1FA008FF1F404C0020BF
:104E2000D808FF1F9408FF1F9808FF1F0080254423
:104E30000080B64400F07F45FC08FF1F3008FF1FCC
:104E4000F844FF1F2408FF1F2808FF1FA408FF1FA6
:104E50000000A0403009FF1FE408FF1F104C002095
:104E60006008FF1F3C08FF1F2C09FF1F0AD7233CC7
:104E700002A84FF07E5340F8043D042236213360EF
:104E800014F040FBFEF740FE02B0BDEC028BBDE823
:104E9000F08702A88F4B40F8043D042208213B60B4
:104EA00014F030FB0A2015F055F94FF0010806E721
:104EB00002A8894B40F8043D04221146336014F0E7
:104EC00021FB0A2015F046F94FF00108E7E602A899
:104ED000824B40F8043D042200212B6014F012FBA9
:104EE0000A2015F037F94FF00108C8E6092DDCBF9C
:104EF0000A223260B0F5805FA8BF40F6F6724FF02C
:104F00003200A8BF1A6014F0BBFA01283FF6FBAECE
:104F1000734B187000283FF4FDAE724A7248734913
:104F2000734B10607348086019221A60FCE6012870
:104F30007FD0022800F086806F4A1A606F49704B5C
:104F40007048714A08601A6089E6012219201A70B7
:104F500014F096FA08286D4C7FF731AE08231946F5
:104F60001920236014F0A6FA0A2015F0F3F820683F
:104F700000287FF428AE012319461920236014F07D
:104F800099FA0A2015F0E6F81DE6B8F1000F7FF453
:104F900079AF02B0BDEC028BBDE8F087002840F08D
:104FA0008B805B4A5B495C4B107045F21F0047F2F7
:104FB000B33208601A60ECE69FED587AF4EEC77AD7
:104FC000F1EE10FA3FF5D6ADDAE5DFED547AB4EE46
:104FD000E78AF1EE10FA3FF5AAADAEE50023504C9A
:104FE00019461820237014F065FA0A2015F0B2F85B
:104FF000207827E64FF4616324211F20136014F00A
:1050000059FA0A2015F0A6F8EAE5464C4FF47A73EF
:1050100003213320236014F04DFA0A2015F09AF88A
:105020002178342014F046FA0A2015F093F820680D
:105030008CE6314A1A603149314B3B483B4A0860A3
:105040001A600CE63A4A1A602C492D4B39483A4A04
:1050500008601A6003E6204A1A604FF0010840E534
:105060001C4A1A604FF0010844E5B2EE048A83ED51
:10507000008A4FF0010860E5DFED307A4FF001085B
:10508000C3ED007A7CE52E4A1A604FF00108BCE5BA
:105090002C4A1A604FF00108CCE502A84FF07E536D
:1050A00040F8043D0422362123604FF0010814F03B
:1050B00029FAD4ED007A80E601287FF46AAE144A1A
:1050C0001449154B10704BF6BF5044F6AB220860E4
:1050D0001A605EE60080064500007A440000D04277
:1050E000F844FF1F2808FF1FCDCCCC3E2408FF1F2B
:1050F000A408FF1F0000E0400000F4429408FF1FD6
:105100009808FF1F0000B64300401F449C08FF1F83
:10511000104C00206008FF1F3C08FF1FCDCCCC3D89
:10512000404C00203009FF1F0000AC430000B04499
:1051300000003A43004018440000DC4400001643DD
:105140000080224400C0A844174A184B92ED007A10
:10515000D3ED007A16491748B8EE477AF8EE677A29
:105160000022C7EE276AF1EE666A51F8223007EE98
:10517000903A50F8223007EE103AF8EE677AB8EE1F
:10518000477AE6EE877AF5EEC07AF1EE10FA56BF6E
:10519000FCEEE77A002317EE903A41F82230013214
:1051A000B2F5805FE1D17047284C00204009FF1F15
:1051B0001845FF1F2887FF1F23482449002350F864
:1051C000232041F823200133B3F5805FF7D12DE987
:1051D000F0411F4F002240F6FC76541C51F822008B
:1051E00051F82480194D931C02F1030C02F1040EB6
:1051F00051F82CC051F8233051F82EE000EB80001C
:1052000000EB8800704400EB4C0003EB43030344C5
:10521000A7FB0303DB08B44241F822302246DCD16D
:1052200043F6EC7343F6F072E958A95043F6F47272
:10523000E958A95043F6F872E958A95043F6FC72B0
:10524000EB58AB50BDE8F0811845FF1FE4CBFF1FC2
:1052500089888888F8B5A0F10A0240F632739A422C
:1052600059D807461AF040FC41EC100B17F078FEB5
:1052700051EC100B1AF04EFF3228A8BF3220440028
:105280003B1B264D3C4455F8231055F82420A342DF
:105290000A444FEA520E3EDC0026013431462846CD
:1052A00055F823208A4284BF50F823101E4601334C
:1052B0009C42F5D1BE422ED140F628239E4207EEF5
:1052C000901AA7F2262740F60203CCBFDFED146A3E
:1052D000DFED146A9F42F8EE677A11D907EE10EA03
:1052E000B8EEC77A87EE276AF4EEC66AF1EE10FAD6
:1052F00011DDB5EEC06AF1EE10FA0CDD0120F8BD4B
:1053000007EE106A9FED086ADFED086AB8EEC77A0B
:10531000E7EE066AE2E74FF0FF30F8BDE4CBFF1F8F
:105320006666E63E9A99593FA6994CB9BB12753FFD
:105330002DE9F04F2DED028B85B005461AF0D4FB18
:1053400041EC100B17F00CFE51EC100B1AF0E2FEC2
:105350003128A8BF31204FEA400B0390CBEB050367
:1053600005EB0B00834200F3DE80734E0130002218
:1053700056F82310013398420A44F9D1B2F5FA7F66
:10538000C0F0D18005F1FF3ACBEB0A0A554505F193
:10539000010440F3CE80039B03FB0BF308EE103AAD
:1053A000B8EEC88A0027C5EB0A0303FB03F307EE38
:1053B000903AF8EEE77A87EE887AF1EE477A17EEC0
:1053C000900A1AF0A3FB41EC100B17F021FB56F8E2
:1053D0002A0007EE900AF8EE677A53EC102B17EECE
:1053E000900ACDE900231AF091FBDDE900231AF0C1
:1053F000E1FB8046384689461AF088FB02460B4698
:10540000404649461AF024FA1AF0CCFE0AF1010A85
:1054100055450746C7D10BEB040A54457CDA039B7C
:1054200003FB0BFB07EE90BAB8EEE78A4FF0000BD8
:10543000631B03FB03F307EE903AF8EEE77A87EE7F
:10544000887AF1EE477A17EE900A1AF05FFB41EC8A
:10545000100B17F0DDFA56F8240007EE900AF8EE6C
:10546000677A53EC102B17EE900ACDE900231AF05F
:105470004DFBDDE900231AF09DFB80465846894626
:105480001AF044FB02460B46404649461AF0E0F942
:105490001AF088FE013454458346C9D107EE907A4C
:1054A000F5EE407AF1EE10FA36D007EE900AF5EEFE
:1054B000407AF1EE10FA2FD007EE100A07EE907A3C
:1054C00077EEC77AF0EEE77A17EE900A1AF01EFB35
:1054D000044638460D461AF019FB02460B46204694
:1054E00029461AF091FC0022144B1AF0D5FD98B110
:1054F00058461AF00BFB02460B46204629461AF086
:1055000083FC00220D4B1AF0C7FD28B1012005B025
:10551000BDEC028BBDE8F08F4FF0FF3005B0BDEC65
:10552000028BBDE8F08F064B00224FF0FF301A606F
:10553000EDE700276FE700BFE4CBFF1F0000D03F7F
:105540004485FF1F2DE9F0472E4F2F4D00233B6070
:1055500082461AF0C9FA8046894649EC108B55F804
:105560002A6017F0FDFC404653EC102B49461AF018
:105570006DF91AF0CFFD49EC108B044617F0F0FCE2
:10558000404653EC102B49461AF062F91AF0C2FD5E
:1055900084424FEA560130DC421CD646284655F874
:1055A0002430B34203D950F82460A6467108013470
:1055B0009442F4D1AAF196030AF1950293421EDCBB
:1055C0000AF1960A002055F8232001338A4228BFA9
:1055D00001309A45F7D107EE900A9FED0C7AF8EE6C
:1055E000E77A67EE877A07EE10EAB8EEC77AC7EE79
:1055F000876AC7ED006ABDE8F087D646DAE7DFEDD7
:10560000047AF0E74485FF1FE4CBFF1F0000C84287
:1056100000000000002A2DE9F043C0EB010898FBD0
:10562000F2F850DDDFF8B0E09FED297A294F4FF016
:10563000000C08F1FF39B8F1000F46DD814244DB70
:10564000034609EB0006002401E0994206DB57F807
:1056500023509E422C4403F10103F6D107EE904AF9
:10566000F8EE677A77EE877A40440EEB8C0381423E
:10567000C3ED007A03DB0CF1010C6245DBD10023A2
:10568000B7EE007A0EEB8301D1ED007AF4EEC77A23
:10569000F1EE10FA03F10103C8BF91ED007A9A42CE
:1056A000F0D107EE902AB8EEE76A00230EEB8301F3
:1056B000D1ED007A66EE277A0133C7EE876A9A4207
:1056C000C1ED006AF2DCBDE8F083DFED017ACBE7E3
:1056D000000000001845FF1F28C7FF1F70B590B0DD
:1056E0000446684609F03CFF601E032833D8DFE813
:1056F00000F0B7895A02784978480AF02BF918B1B6
:10570000754976480AF034F9754B32221968002041
:1057100008ADFFF77FFF13236F4A704928460AF050
:10572000A5F89DF824100A9A9DF82C308DF80410E5
:1057300002928DF80C300BA90DF10D020DF11A0338
:1057400011F8010F02F8010B9A42F9D10F9B079350
:10575000284609F013FF684609F02AFFD8B1614EC8
:10576000002408AD06EB840393ED000A09212846C6
:1057700016F09EFE29465C4816F0D8FE284616F024
:10578000E9FD5949684616F013FB0134684616F0E6
:1057900035FB322CE6D1684609F0FCFE684609F07C
:1057A000EDFE10B070BD51494C480AF0D3F8002806
:1057B00040F08D804E4B32221968002008ADFFF773
:1057C00029FF1323494A454928460AF04FF89DF816
:1057D00024100A9A9DF82C308DF8041002928DF84E
:1057E0000C300BA90DF10D020DF11A0311F8010F88
:1057F00002F8010B9A42F9D10F9B0793284609F052
:10580000BDFEA8E73B4935480AF0A4F8002859D165
:10581000394B32221968002008ADFFF7FBFE132335
:10582000344A2E4928460AF021F89DF824100A9A95
:105830009DF82C308DF8041002928DF80C300BA9D5
:105840000DF10D020DF11A0311F8010F02F8010B11
:105850009A42F9D10F9B0793284609F08FFE7AE709
:1058600026491E480AF076F838BB214B32221968C7
:10587000002008ADFFF7CEFE1323204A1749284623
:1058800009F0F4FF9DF824100A9A9DF82C308DF849
:10589000041002928DF80C300BA90DF10D020DF1E0
:1058A0001A0311F8010F02F8010B9A42F9D10F9B6C
:1058B0000793284609F062FE4DE7104907480AF0B1
:1058C00057F8D2E70B4905480AF052F8A0E7074914
:1058D00002480AF04DF86DE74008FF1FE44C002035
:1058E0008C08FF1F28C7FF1FFC44FF1F7008FF1F05
:1058F0008808FF1FC008FF1FE808FF1F5008FF1F90
:105900002DE9F04301382DED068B052800F2D282F7
:10591000DFE810F03E00D500840141017B02060063
:10592000002940F30883DFEDD36AD34DD34CD44A2A
:10593000B0EE665AF0EE665AB0EE666A002303E0F7
:10594000B5EC015AF4EC016A02EB830090ED007AA9
:10595000D0ED007A37EE457A77EEE67A0133994258
:10596000A7EE076AE7EEA75AEAD1C64BD3ED007A55
:10597000F4EEC67AF1EE10FAC0F2A582BDEC068B09
:10598000C149C24A012306200B701370BDE8F083A1
:10599000002940F3F4829FEDB74ADFF84483DFF833
:1059A00044C3DFF844E3BA4FBA4EBB4DDFEDBB9AB8
:1059B0009FEDBB9AB24ADFF83493F0EE448AB0EE22
:1059C000448AB0EE440AF0EE442AF0EE440AB0EE07
:1059D000441AF0EE441AB0EE442AB0EE443AF0EE27
:1059E000443A00240BE0B8EC010ABCEC018AFEEC5E
:1059F000018AB7EC014AB6EC019AF5EC019AA000D5
:105A000013184844D3ED004A93ED005AD3ED005AE1
:105A100093ED006AD3ED006A93ED007AD3ED007A3E
:105A200090ED00AA74EEC04A35EE485A75EEE85A79
:105A300036EE446A76EEC96A37EE697A77EECA7A4C
:105A40000134A142E4EEA43AA5EE053AA5EEA52A5A
:105A5000E6EE061AA6EEA61AE7EE070AE7EEA72A72
:105A6000C1D1904BD3ED007AF4EEE37AF1EE10FA67
:105A70001EDAF4EEC37AF1EE10FA19DAF4EEC27A15
:105A8000F1EE10FA14DAF4EEE17AF1EE10FA0FDA30
:105A9000F4EEC17AF1EE10FA0ADAF4EEE07AF1EE01
:105AA00010FA05DAF4EEE27AF1EE10FAC0F20282B0
:105AB000BDEC068B744B01201870BDE8F083002903
:105AC00040F35082DFED6B4ADFF824C2DFF824E2B6
:105AD000754F764E764D6A4ADFF81C82B0EE648AC6
