:10000000F8FF022099010000497401000174010009
:100010000174010001740100017401000174010008
:1000200001740100017401000174010049740100B0
:100030004974010001740100F1980100F598010074
:1000400049740100497401004974010049740100B8
:1000500049740100497401004974010049740100A8
:100060004974010049740100497401004974010098
:100070004974010049740100497401004974010088
:100080004974010049740100497401004974010078
:100090004974010049740100497401004974010068
:1000A000A56C0100B16C01004974010049740100A4
:1000B0004974010049740100497401004974010048
:1000C0004974010049740100497401004974010038
:1000D0004974010049740100497401005D26000063
:1000E0004974010049740100497401002DD20000D7
:1000F0004974010049740100497401004974010008
:10010000419B0100559B0100699B01007D9B010003
:1001100049740100398801004974010049740100E3
:1001200049740100497401004974010049740100D7
:1001300049740100497401004974010049740100C7
:100140004974010049740100AD8501004974010042
:1001500049740100497401004974010049740100A7
:100160004974010049740100BD6C0100497401002B
:100170004974010049740100497401004974010087
:100180004974010049740100497401004974010077
:100190004974010049740100584B4CF2205210B5CB
:1001A0001A804DF628121A8000BF00BF17F050F9D0
:1001B000534B4FF030621A60524A9A60524ADA60EA
:1001C000524B4FF470021A60514A136813F4807353
:1001D00004D150490B604FF4A85313604E4B1A786A
:1001E000110703D51A7842F008021A704B4B4C499C
:1001F0002A221A704B4A4C4B8B4204D252F8040FFD
:1002000043F8040BF8E7494B494900228B4202D2DC
:1002100043F8042BFAE74749474A002352F82300E2
:1002200041F823000133662BF8D1444B444A802126
:1002300003F8011B9342FBD1424B3E4A1A60424BEA
:100240008A221A70A3F5805324225A70A0221A70B1
:100250009A799207FCD59A79D406FCD43B4A9379D3
:1002600003F00C03082B394BF9D103221A714622F3
:100270005A719A799006FCD5344A9179334B4906E4
:10028000FBD5334A4FF08271116009215160202261
:100290001A709A7902F00C020C2AFAD12D4B2E4AD0
:1002A0001A602E4B2E4A1A6000225A60072243F829
:1002B000042C2C4AC3F80C2D62B617F09FFE154B88
:1002C0001B68DA0705D5284817F0F8FB274B284AA2
:1002D0001A60284B1B785B0609D5244C244B2268F6
:1002E0009A4204D1204817F0E9FB002323601CF058
:1002F0004BFF17F0B3F81AF0E5F8FEE70E200540C3
:1003000030800440823F04000100002B88ED00E0B3
:1003100010D0034014D0034002D0074000E0074053
:100320007817FF1F10D70400F806FF1F7817FF1F6C
:10033000405200200002FF1F0000000000E400E027
:1003400056E400E008ED00E00050064000400640A2
:100350004480044004800440C010050014E000E024
:10036000BFD4010000002020E3F954611CE00340E9
:10037000A5C3945A00F00740FFFFFFFFFFFFFFFFF8
:10038000FFFFFFFFFFFFFFFFFFFFFFFFFFFFFFFF7D
:10039000FFFFFFFFFFFFFFFFFFFFFFFFFFFFFFFF6D
:1003A000FFFFFFFFFFFFFFFFFFFFFFFFFFFFFFFF5D
:1003B000FFFFFFFFFFFFFFFFFFFFFFFFFFFFFFFF4D
:1003C000FFFFFFFFFFFFFFFFFFFFFFFFFFFFFFFF3D
:1003D000FFFFFFFFFFFFFFFFFFFFFFFFFFFFFFFF2D
:1003E000FFFFFFFFFFFFFFFFFFFFFFFFFFFFFFFF1D
:1003F000FFFFFFFFFFFFFFFFFFFFFFFFFFFFFFFF0D
:10040000FFFFFFFFFFFFFFFFFFFFFFFFDEF9FFFF23
:1004100010B5054C237833B9044B13B10448AFF33E
:1004200000800123237010BD7817FF1F000000001B
:100430000CD70400084B10B51BB108490848AFF3AE
:1004400000800848036803B910BD074B002BFBD0A0
:10045000BDE81040184700BF000000007C17FF1FD8
:100460000CD704007817FF1F000000000020704721
:10047000704700BF0349044B4FF4804001220860DD
:100480001A60704708F00F401865FF1F014B0122EA
:100490001A6070479C17FF1F034A04491368012024
:1004A0000344136008607047CC64FF1FF464FF1FAF
:1004B00017F0FEBAF8B50E46074616F061F9054684
:1004C00016F04EF9044616F03BF96401C0B204F48C
:1004D000FF54ADB2A5F2BC75044344EA45243C8008
:1004E00016F0FEF8054616F00BF9044616F018F95A
:1004F000ED02640105F4FF2504F4FF542C43C0F31E
:10050000460004433480F8BD9FED3D7A38B53D4C3C
:10051000F0EE476A002234F812309BB207EE903AB0
:10052000F8EEE77A013277EEA67A3C2A37EE277AA0
:10053000F1D1DFED356A354DC7EE267A29212846FF
:100540000422C5ED007A16F0E3FE0A2017F008FD3C
:1005500095ED006ADFED2A6A002134F8112034F8A5
:10056000113092B207EE902A9BB2B8EEE77A07EE0E
:10057000903AF8EEE77A36EE477A76EE677A01310E
:100580003C29E7EE276AE8D1DFED217A214B224CA6
:1005900086EEA77A00221A6017EE100A1CF006FAFF
:1005A00041EC100B1AF048FA51EC100B1CF04AFD0C
:1005B000D5ED007A194B07EE100AF0EE006AB0EEA6
:1005C000086AF0EE675AE7EE265A1548E7EE067A13
:1005D0000422242180ED007AC3ED007AC4ED005A94
:1005E00016F096FE0A2017F0BBFC0121282016F019
:1005F00067FE0A2017F0B4FC0A4B01221A7038BDBE
:1006000000000000CC2B002000007042D807FF1F24
:1006100000006C42A0AAFF1FA824FF1F4421FF1F57
:100620003808FF1F1465FF1F214B10B41A681368A8
:10063000506819780478507A137A044201EA030169
:100640001BD0937A03F0030309B143F0040343F092
:1006500008039910013B91720D2B0BD8DFE803F0D2
:1006600021071B070A152121150A071B0721D3683B
:10067000013BD3605DF8044B7047937A03F00303AA
:100680000029E6D043F00403E3E7D3685DF8044BA8
:10069000023BD3607047D3685DF8044B0233D360EC
:1006A0007047D3685DF8044B0133D360704700BFD7
:1006B000244F0020214B10B45A68136850681978F1
:1006C0000478507A137A044201EA03011BD0937A2A
:1006D00003F0030309B143F0040343F00803991046
:1006E000013B91720D2B0BD8DFE803F021071B07AC
:1006F0000A152121150A071B0721D368013BD36086
:100700005DF8044B7047937A03F003030029E6D0A9
:1007100043F00403E3E7D3685DF8044B023BD36086
:100720007047D3685DF8044B0233D3607047D368D9
:100730005DF8044B0133D360704700BF244F0020A5
:10074000214B10B49A681368506819780478507A6D
:10075000137A044201EA03011BD0937A03F00303E6
:1007600009B143F0040343F008039910013B91726F
:100770000D2B0BD8DFE803F021071B070A152121F9
:10078000150A071B0721D368013BD3605DF8044BB2
:100790007047937A03F003030029E6D043F0040383
:1007A000E3E7D3685DF8044B023BD3607047D3683E
:1007B0005DF8044B0233D3607047D3685DF8044B97
:1007C0000133D360704700BF244F0020214B10B489
:1007D000DA681368506819780478507A137A0442FA
:1007E00001EA03011BD0937A03F0030309B143F03C
:1007F000040343F008039910013B91720D2B0BD8B1
:10080000DFE803F021071B070A152121150A071B42
:100810000721D368013BD3605DF8044B7047937A9E
:1008200003F003030029E6D043F00403E3E7D368B1
:100830005DF8044B023BD3607047D3685DF8044B0E
:100840000233D3607047D3685DF8044B0133D36043
:10085000704700BF244F0020214B10B41A69136861
:10086000506819780478507A137A044201EA030137
:100870001BD0937A03F0030309B143F0040343F060
:1008800008039910013B91720D2B0BD8DFE803F0A0
:1008900021071B070A152121150A071B0721D36809
:1008A000013BD3605DF8044B7047937A03F0030378
:1008B0000029E6D043F00403E3E7D3685DF8044B76
:1008C000023BD3607047D3685DF8044B0233D360BA
:1008D0007047D3685DF8044B0133D360704700BFA5
:1008E000244F0020214B10B45A69136850681978BE
:1008F0000478507A137A044201EA03011BD0937AF8
:1009000003F0030309B143F0040343F00803991013
:10091000013B91720D2B0BD8DFE803F021071B0779
:100920000A152121150A071B0721D368013BD36053
:100930005DF8044B7047937A03F003030029E6D077
:1009400043F00403E3E7D3685DF8044B023BD36054
:100950007047D3685DF8044B0233D3607047D368A7
:100960005DF8044B0133D360704700BF244F002073
:10097000214B10B49A691368506819780478507A3A
:10098000137A044201EA03011BD0937A03F00303B4
:1009900009B143F0040343F008039910013B91723D
:1009A0000D2B0BD8DFE803F021071B070A152121C7
:1009B000150A071B0721D368013BD3605DF8044B80
:1009C0007047937A03F003030029E6D043F0040351
:1009D000E3E7D3685DF8044B023BD3607047D3680C
:1009E0005DF8044B0233D3607047D3685DF8044B65
:1009F0000133D360704700BF244F0020214B10B457
:100A0000DA691368506819780478507A137A0442C6
:100A100001EA03011BD0937A03F0030309B143F009
:100A2000040343F008039910013B91720D2B0BD87E
:100A3000DFE803F021071B070A152121150A071B10
:100A40000721D368013BD3605DF8044B7047937A6C
:100A500003F003030029E6D043F00403E3E7D3687F
:100A60005DF8044B023BD3607047D3685DF8044BDC
:100A70000233D3607047D3685DF8044B0133D36011
:100A8000704700BF244F0020214B10B41A6A13682E
:100A9000506819780478507A137A044201EA030105
:100AA0001BD0937A03F0030309B143F0040343F02E
:100AB00008039910013B91720D2B0BD8DFE803F06E
:100AC00021071B070A152121150A071B0721D368D7
:100AD000013BD3605DF8044B7047937A03F0030346
:100AE0000029E6D043F00403E3E7D3685DF8044B44
:100AF000023BD3607047D3685DF8044B0233D36088
:100B00007047D3685DF8044B0133D360704700BF72
:100B1000244F0020214B10B45A6A1368506819788A
:100B20000478507A137A044201EA03011BD0937AC5
:100B300003F0030309B143F0040343F008039910E1
:100B4000013B91720D2B0BD8DFE803F021071B0747
:100B50000A152121150A071B0721D368013BD36021
:100B60005DF8044B7047937A03F003030029E6D045
:100B700043F00403E3E7D3685DF8044B023BD36022
:100B80007047D3685DF8044B0233D3607047D36875
:100B90005DF8044B0133D360704700BF244F002041
:100BA000214B10B49A6A1368506819780478507A07
:100BB000137A044201EA03011BD0937A03F0030382
:100BC00009B143F0040343F008039910013B91720B
:100BD0000D2B0BD8DFE803F021071B070A15212195
:100BE000150A071B0721D368013BD3605DF8044B4E
:100BF0007047937A03F003030029E6D043F004031F
:100C0000E3E7D3685DF8044B023BD3607047D368D9
:100C10005DF8044B0233D3607047D3685DF8044B32
:100C20000133D360704700BF244F0020214B10B424
:100C3000DA6A1368506819780478507A137A044293
:100C400001EA03011BD0937A03F0030309B143F0D7
:100C5000040343F008039910013B91720D2B0BD84C
:100C6000DFE803F021071B070A152121150A071BDE
:100C70000721D368013BD3605DF8044B7047937A3A
:100C800003F003030029E6D043F00403E3E7D3684D
:100C90005DF8044B023BD3607047D3685DF8044BAA
:100CA0000233D3607047D3685DF8044B0133D360DF
:100CB000704700BF244F0020214B10B41A6B1368FB
:100CC000506819780478507A137A044201EA0301D3
:100CD0001BD0937A03F0030309B143F0040343F0FC
:100CE00008039910013B91720D2B0BD8DFE803F03C
:100CF00021071B070A152121150A071B0721D368A5
:100D0000013BD3605DF8044B7047937A03F0030313
:100D10000029E6D043F00403E3E7D3685DF8044B11
:100D2000023BD3607047D3685DF8044B0233D36055
:100D30007047D3685DF8044B0133D360704700BF40
:100D4000244F0020214B10B45A6B13685068197857
:100D50000478507A137A044201EA03011BD0937A93
:100D600003F0030309B143F0040343F008039910AF
:100D7000013B91720D2B0BD8DFE803F021071B0715
:100D80000A152121150A071B0721D368013BD360EF
:100D90005DF8044B7047937A03F003030029E6D013
:100DA00043F00403E3E7D3685DF8044B023BD360F0
:100DB0007047D3685DF8044B0233D3607047D36843
:100DC0005DF8044B0133D360704700BF244F00200F
:100DD000214B10B49A6B1368506819780478507AD4
:100DE000137A044201EA03011BD0937A03F0030350
:100DF00009B143F0040343F008039910013B9172D9
:100E00000D2B0BD8DFE803F021071B070A15212162
:100E1000150A071B0721D368013BD3605DF8044B1B
:100E20007047937A03F003030029E6D043F00403EC
:100E3000E3E7D3685DF8044B023BD3607047D368A7
:100E40005DF8044B0233D3607047D3685DF8044B00
:100E50000133D360704700BF244F0020214B10B4F2
:100E6000DA6B1368506819780478507A137A044260
:100E700001EA03011BD0937A03F0030309B143F0A5
:100E8000040343F008039910013B91720D2B0BD81A
:100E9000DFE803F021071B070A152121150A071BAC
:100EA0000721D368013BD3605DF8044B7047937A08
:100EB00003F003030029E6D043F00403E3E7D3681B
:100EC0005DF8044B023BD3607047D3685DF8044B78
:100ED0000233D3607047D3685DF8044B0133D360AD
:100EE000704700BF244F0020214B10B41A6C1368C8
:100EF000506819780478507A137A044201EA0301A1
:100F00001BD0937A03F0030309B143F0040343F0C9
:100F100008039910013B91720D2B0BD8DFE803F009
:100F200021071B070A152121150A071B0721D36872
:100F3000013BD3605DF8044B7047937A03F00303E1
:100F40000029E6D043F00403E3E7D3685DF8044BDF
:100F5000023BD3607047D3685DF8044B0233D36023
:100F60007047D3685DF8044B0133D360704700BF0E
:100F7000244F0020214B10B45A6C13685068197824
:100F80000478507A137A044201EA03011BD0937A61
:100F900003F0030309B143F0040343F0080399107D
:100FA000013B91720D2B0BD8DFE803F021071B07E3
:100FB0000A152121150A071B0721D368013BD360BD
:100FC0005DF8044B7047937A03F003030029E6D0E1
:100FD00043F00403E3E7D3685DF8044B023BD360BE
:100FE0007047D3685DF8044B0233D3607047D36811
:100FF0005DF8044B0133D360704700BF244F0020DD
:10100000214B10B49A6C1368506819780478507AA0
:10101000137A044201EA03011BD0937A03F003031D
:1010200009B143F0040343F008039910013B9172A6
:101030000D2B0BD8DFE803F021071B070A15212130
:10104000150A071B0721D368013BD3605DF8044BE9
:101050007047937A03F003030029E6D043F00403BA
:10106000E3E7D3685DF8044B023BD3607047D36875
:101070005DF8044B0233D3607047D3685DF8044BCE
:101080000133D360704700BF244F0020214B10B4C0
:10109000DA6C1368506819780478507A137A04422D
:1010A00001EA03011BD0937A03F0030309B143F073
:1010B000040343F008039910013B91720D2B0BD8E8
:1010C000DFE803F021071B070A152121150A071B7A
:1010D0000721D368013BD3605DF8044B7047937AD6
:1010E00003F003030029E6D043F00403E3E7D368E9
:1010F0005DF8044B023BD3607047D3685DF8044B46
:101100000233D3607047D3685DF8044B0133D3607A
:10111000704700BF244F0020214B10B41A6D136894
:10112000506819780478507A137A044201EA03016E
:101130001BD0937A03F0030309B143F0040343F097
:1011400008039910013B91720D2B0BD8DFE803F0D7
:1011500021071B070A152121150A071B0721D36840
:10116000013BD3605DF8044B7047937A03F00303AF
:101170000029E6D043F00403E3E7D3685DF8044BAD
:10118000023BD3607047D3685DF8044B0233D360F1
:101190007047D3685DF8044B0133D360704700BFDC
:1011A000244F0020214B10B45A6D136850681978F1
:1011B0000478507A137A044201EA03011BD0937A2F
:1011C00003F0030309B143F0040343F0080399104B
:1011D000013B91720D2B0BD8DFE803F021071B07B1
:1011E0000A152121150A071B0721D368013BD3608B
:1011F0005DF8044B7047937A03F003030029E6D0AF
:1012000043F00403E3E7D3685DF8044B023BD3608B
:101210007047D3685DF8044B0233D3607047D368DE
:101220005DF8044B0133D360704700BF244F0020AA
:10123000214B10B49A6D1368506819780478507A6D
:10124000137A044201EA03011BD0937A03F00303EB
:1012500009B143F0040343F008039910013B917274
:101260000D2B0BD8DFE803F021071B070A152121FE
:10127000150A071B0721D368013BD3605DF8044BB7
:101280007047937A03F003030029E6D043F0040388
:10129000E3E7D3685DF8044B023BD3607047D36843
:1012A0005DF8044B0233D3607047D3685DF8044B9C
:1012B0000133D360704700BF244F0020214B10B48E
:1012C000DA6D1368506819780478507A137A0442FA
:1012D00001EA03011BD0937A03F0030309B143F041
:1012E000040343F008039910013B91720D2B0BD8B6
:1012F000DFE803F021071B070A152121150A071B48
:101300000721D368013BD3605DF8044B7047937AA3
:1013100003F003030029E6D043F00403E3E7D368B6
:101320005DF8044B023BD3607047D3685DF8044B13
:101330000233D3607047D3685DF8044B0133D36048
:10134000704700BF244F0020214B10B41A6E136861
:10135000506819780478507A137A044201EA03013C
:101360001BD0937A03F0030309B143F0040343F065
:1013700008039910013B91720D2B0BD8DFE803F0A5
:1013800021071B070A152121150A071B0721D3680E
:10139000013BD3605DF8044B7047937A03F003037D
:1013A0000029E6D043F00403E3E7D3685DF8044B7B
:1013B000023BD3607047D3685DF8044B0233D360BF
:1013C0007047D3685DF8044B0133D360704700BFAA
:1013D000244F0020214B10B45A6E136850681978BE
:1013E0000478507A137A044201EA03011BD0937AFD
:1013F00003F0030309B143F0040343F00803991019
:10140000013B91720D2B0BD8DFE803F021071B077E
:101410000A152121150A071B0721D368013BD36058
:101420005DF8044B7047937A03F003030029E6D07C
:1014300043F00403E3E7D3685DF8044B023BD36059
:101440007047D3685DF8044B0233D3607047D368AC
:101450005DF8044B0133D360704700BF244F002078
:10146000214B10B49A6E1368506819780478507A3A
:10147000137A044201EA03011BD0937A03F00303B9
:1014800009B143F0040343F008039910013B917242
:101490000D2B0BD8DFE803F021071B070A152121CC
:1014A000150A071B0721D368013BD3605DF8044B85
:1014B0007047937A03F003030029E6D043F0040356
:1014C000E3E7D3685DF8044B023BD3607047D36811
:1014D0005DF8044B0233D3607047D3685DF8044B6A
:1014E0000133D360704700BF244F0020214B10B45C
:1014F000DA6E1368506819780478507A137A0442C7
:1015000001EA03011BD0937A03F0030309B143F00E
:10151000040343F008039910013B91720D2B0BD883
:10152000DFE803F021071B070A152121150A071B15
:101530000721D368013BD3605DF8044B7047937A71
:1015400003F003030029E6D043F00403E3E7D36884
:101550005DF8044B023BD3607047D3685DF8044BE1
:101560000233D3607047D3685DF8044B0133D36016
:10157000704700BF244F0020214B10B41A6F13682E
:10158000506819780478507A137A044201EA03010A
:101590001BD0937A03F0030309B143F0040343F033
:1015A00008039910013B91720D2B0BD8DFE803F073
:1015B00021071B070A152121150A071B0721D368DC
:1015C000013BD3605DF8044B7047937A03F003034B
:1015D0000029E6D043F00403E3E7D3685DF8044B49
:1015E000023BD3607047D3685DF8044B0233D3608D
:1015F0007047D3685DF8044B0133D360704700BF78
:10160000244F0020214B10B45A6F1368506819788A
:101610000478507A137A044201EA03011BD0937ACA
:1016200003F0030309B143F0040343F008039910E6
:10163000013B91720D2B0BD8DFE803F021071B074C
:101640000A152121150A071B0721D368013BD36026
:101650005DF8044B7047937A03F003030029E6D04A
:1016600043F00403E3E7D3685DF8044B023BD36027
:101670007047D3685DF8044B0233D3607047D3687A
:101680005DF8044B0133D360704700BF244F002046
:10169000214B10B49A6F1368506819780478507A07
:1016A000137A044201EA03011BD0937A03F0030387
:1016B00009B143F0040343F008039910013B917210
:1016C0000D2B0BD8DFE803F021071B070A1521219A
:1016D000150A071B0721D368013BD3605DF8044B53
:1016E0007047937A03F003030029E6D043F0040324
:1016F000E3E7D3685DF8044B023BD3607047D368DF
:101700005DF8044B0233D3607047D3685DF8044B37
:101710000133D360704700BF244F0020214B10B429
:10172000DA6F1368506819780478507A137A044293
:1017300001EA03011BD0937A03F0030309B143F0DC
:10174000040343F008039910013B91720D2B0BD851
:10175000DFE803F021071B070A152121150A071BE3
:101760000721D368013BD3605DF8044B7047937A3F
:1017700003F003030029E6D043F00403E3E7D36852
:101780005DF8044B023BD3607047D3685DF8044BAF
:101790000233D3607047D3685DF8044B0133D360E4
:1017A000704700BF244F0020214B10B4D3F8802095
:1017B0001368506819780478507A137A044201EA61
:1017C00003011BD0937A03F0030309B143F0040330
:1017D00043F008039910013B91720D2B0BD8DFE801
:1017E00003F021071B070A152121150A071B0721F2
:1017F000D368013BD3605DF8044B7047937A03F0E4
:1018000003030029E6D043F00403E3E7D3685DF85F
:10181000044B023BD3607047D3685DF8044B02333E
:10182000D3607047D3685DF8044B0133D3607047D1
:10183000244F0020214B10B4D3F884201368506843
:1018400019780478507A137A044201EA03011BD014
:10185000937A03F0030309B143F0040343F0080350
:101860009910013B91720D2B0BD8DFE803F0210793
:101870001B070A152121150A071B0721D368013B05
:10188000D3605DF8044B7047937A03F0030300299B
:10189000E6D043F00403E3E7D3685DF8044B023B72
:1018A000D3607047D3685DF8044B0233D360704750
:1018B000D3685DF8044B0133D3607047244F002098
:1018C000214B10B4D3F88820136850681978047835
:1018D000507A137A044201EA03011BD0937A03F091
:1018E000030309B143F0040343F008039910013BDB
:1018F00091720D2B0BD8DFE803F021071B070A15A7
:101900002121150A071B0721D368013BD3605DF82D
:10191000044B7047937A03F003030029E6D043F0A9
:101920000403E3E7D3685DF8044B023BD3607047E0
:10193000D3685DF8044B0233D3607047D3685DF819
:10194000044B0133D3607047244F0020214B10B467
:10195000D3F88C201368506819780478507A137A79
:10196000044201EA03011BD0937A03F0030309B197
:1019700043F0040343F008039910013B91720D2BCF
:101980000BD8DFE803F021071B070A152121150AF0
:10199000071B0721D368013BD3605DF8044B7047F8
:1019A000937A03F003030029E6D043F00403E3E74E
:1019B000D3685DF8044B023BD3607047D3685DF891
:1019C000044B0233D3607047D3685DF8044B013396
:1019D000D3607047244F0020214B10B4D3F89020DF
:1019E0001368506819780478507A137A044201EA2F
:1019F00003011BD0937A03F0030309B143F00403FE
:101A000043F008039910013B91720D2B0BD8DFE8CE
:101A100003F021071B070A152121150A071B0721BF
:101A2000D368013BD3605DF8044B7047937A03F0B1
:101A300003030029E6D043F00403E3E7D3685DF82D
:101A4000044B023BD3607047D3685DF8044B02330C
:101A5000D3607047D3685DF8044B0133D36070479F
:101A6000244F0020214B10B4D3F894201368506801
:101A700019780478507A137A044201EA03011BD0E2
:101A8000937A03F0030309B143F0040343F008031E
:101A90009910013B91720D2B0BD8DFE803F0210761
:101AA0001B070A152121150A071B0721D368013BD3
:101AB000D3605DF8044B7047937A03F00303002969
:101AC000E6D043F00403E3E7D3685DF8044B023B40
:101AD000D3607047D3685DF8044B0233D36070471E
:101AE000D3685DF8044B0133D3607047244F002066
:101AF000214B10B4D3F898201368506819780478F3
:101B0000507A137A044201EA03011BD0937A03F05E
:101B1000030309B143F0040343F008039910013BA8
:101B200091720D2B0BD8DFE803F021071B070A1574
:101B30002121150A071B0721D368013BD3605DF8FB
:101B4000044B7047937A03F003030029E6D043F077
:101B50000403E3E7D3685DF8044B023BD3607047AE
:101B6000D3685DF8044B0233D3607047D3685DF8E7
:101B7000044B0133D3607047244F0020214B10B435
:101B8000D3F89C201368506819780478507A137A37
:101B9000044201EA03011BD0937A03F0030309B165
:101BA00043F0040343F008039910013B91720D2B9D
:101BB0000BD8DFE803F021071B070A152121150ABE
:101BC000071B0721D368013BD3605DF8044B7047C6
:101BD000937A03F003030029E6D043F00403E3E71C
:101BE000D3685DF8044B023BD3607047D3685DF85F
:101BF000044B0233D3607047D3685DF8044B013364
:101C0000D3607047244F0020214B10B4D3F8A0209C
:101C10001368506819780478507A137A044201EAFC
:101C200003011BD0937A03F0030309B143F00403CB
:101C300043F008039910013B91720D2B0BD8DFE89C
:101C400003F021071B070A152121150A071B07218D
:101C5000D368013BD3605DF8044B7047937A03F07F
:101C600003030029E6D043F00403E3E7D3685DF8FB
:101C7000044B023BD3607047D3685DF8044B0233DA
:101C8000D3607047D3685DF8044B0133D36070476D
:101C9000244F0020214B10B4D3F8A42013685068BF
:101CA00019780478507A137A044201EA03011BD0B0
:101CB000937A03F0030309B143F0040343F00803EC
:101CC0009910013B91720D2B0BD8DFE803F021072F
:101CD0001B070A152121150A071B0721D368013BA1
:101CE000D3605DF8044B7047937A03F00303002937
:101CF000E6D043F00403E3E7D3685DF8044B023B0E
:101D0000D3607047D3685DF8044B0233D3607047EB
:101D1000D3685DF8044B0133D3607047244F002033
:101D2000214B10B4D3F8A8201368506819780478B0
:101D3000507A137A044201EA03011BD0937A03F02C
:101D4000030309B143F0040343F008039910013B76
:101D500091720D2B0BD8DFE803F021071B070A1542
:101D60002121150A071B0721D368013BD3605DF8C9
:101D7000044B7047937A03F003030029E6D043F045
:101D80000403E3E7D3685DF8044B023BD36070477C
:101D9000D3685DF8044B0233D3607047D3685DF8B5
:101DA000044B0133D3607047244F0020214B10B403
:101DB000D3F8AC201368506819780478507A137AF5
:101DC000044201EA03011BD0937A03F0030309B133
:101DD00043F0040343F008039910013B91720D2B6B
:101DE0000BD8DFE803F021071B070A152121150A8C
:101DF000071B0721D368013BD3605DF8044B704794
:101E0000937A03F003030029E6D043F00403E3E7E9
:101E1000D3685DF8044B023BD3607047D3685DF82C
:101E2000044B0233D3607047D3685DF8044B013331
:101E3000D3607047244F002070B5044608460D4615
:101E40001CF07EF823680246294620465B68BDE800
:101E50007040184738B5044608460D461CF070F827
:101E60002368024629465B68204698470546204677
:101E700017F0CAFE284438BD38B5054617F02AFFCA
:101E80000446284617F0C0FE204438BD38B5C9B214
:101E9000054617F029FF0446284617F0B5FE2044F2
:101EA00038BD00BF10B4036841681A780C78417AD5
:101EB000037A0C4202EA03021BD0837A03F0030385
:101EC0000AB143F0040343F008039A10013B827205
:101ED0000D2B0BD8DFE803F021071B070A15212182
:101EE000150A071B0721C368013BC3605DF8044B5B
:101EF0007047837A03F00303002AE6D043F004031B
:101F0000E3E7C3685DF8044B023BC3607047C368F6
:101F10005DF8044B0233C3607047C3685DF8044B3F
:101F20000133C360704700BF08B5034BD3F8EC0022
:101F3000FFF7B8FF08BD00BF244F002008B5034BD2
:101F4000D3F8E800FFF7AEFF08BD00BF244F002024
:101F500008B5034BD3F8E400FFF7A4FF08BD00BFAA
:101F6000244F002008B5034BD3F8E000FFF79AFF99
:101F700008BD00BF244F002008B5034BD3F8DC0098
:101F8000FFF790FF08BD00BF244F002008B5034BAA
:101F9000D3F8D800FFF786FF08BD00BF244F00200C
:101FA00008B5034BD3F8D400FFF77CFF08BD00BF92
:101FB000244F002008B5034BD3F8D000FFF772FF81
:101FC00008BD00BF244F002008B5034BD3F8CC0058
:101FD000FFF768FF08BD00BF244F002008B5034B82
:101FE000D3F8C800FFF75EFF08BD00BF244F0020F4
:101FF00008B5034BD3F8C400FFF754FF08BD00BF7A
:10200000244F002008B5034BD3F8C000FFF74AFF68
:1020100008BD00BF244F002008B5034BD3F8BC0017
:10202000FFF740FF08BD00BF244F002008B5034B59
:10203000D3F8B800FFF736FF08BD00BF244F0020DB
:1020400008B5034BD3F8B400FFF72CFF08BD00BF61
:10205000244F002008B5034BD3F8B000FFF722FF50
:1020600008BD00BF244F002008B50B463B2800F2F6
:10207000C682DFE810F0BB02B202A902A0029702FA
:102080008E0285027C0273026A02610258024F02CC
:1020900046023D0234022B022202190210020702FC
:1020A000AE01A5019C0193018A01810178016F01B4
:1020B00066015D0154014A01400136012C012201F3
:1020C00018010E010401FA00F000E600DC00D20065
:1020D000C800BE00B400AA00A00096008C008200D8
:1020E00078006E0064005A00500046003C00BD4A73
:1020F000BD49C2F8EC303B20042215F019FC012048
:1021000008BDB84AB949C2F8E8303A20042215F0AF
:102110000FFC012008BDB34AB549C2F8E4303920AC
:10212000042215F005FC012008BDAE4AB149C2F8F1
:10213000E0303820042215F0FBFB012008BDA94A3D
:10214000AD49C2F8DC303720042215F0F1FB012044
:1021500008BDA44AA949C2F8D8303620042215F097
:10216000E7FB012008BD9F4AA549C2F8D4303520BD
:10217000042215F0DDFB012008BD9A4AA149C2F8EE
:10218000D0303420042215F0D3FB012008BD954A3D
:102190009D49C2F8CC303320042215F0C9FB012040
:1021A00008BD904A9949C2F8C8303220042215F07F
:1021B000BFFB012008BD8B4A9549C2F8C4303120CD
:1021C000042215F0B5FB012008BD864A9149C2F8EA
:1021D000C0303020042215F0ABFB012008BD814A3D
:1021E0008D49C2F8BC302F20042215F0A1FB01203C
:1021F00008BD7C4A8949C2F8B8302E20042215F067
:1022000097FB012008BD774A8549C2F8B4302D20DC
:10221000042215F08DFB012008BD724A8149C2F8E5
:10222000B0302C20042215F083FB012008BD6D4A3C
:102230007D49C2F8AC302B20042215F079FB012037
:1022400008BD684A7949C2F8A8302A20042215F04E
:102250006FFB012008BD634A7549C2F8A4302920EC
:10226000042215F065FB012008BD5E4A7149C2F8E1
:10227000A0302820042215F05BFB012008BD594A3C
:102280006D49C2F89C302720042215F051FB012033
:1022900008BD544A6949C2F898302620042215F036
:1022A00047FB012008BD4F4A6549C2F894302520FC
:1022B000042215F03DFB012008BD4A4A6149C2F8DD
:1022C00090302420042215F033FB012008BD454A3C
:1022D0005D49C2F88C302320042215F029FB01202F
:1022E00008BD404A5949C2F888302220042215F01E
:1022F0001FFB012008BD3B4A5549C2F8843021200C
:10230000042215F015FB012008BD364A5149C2F8D8
:1023100080302020042215F00BFB012008BD314A3B
:102320004D49D3671F20042215F002FB012008BD90
:102330002C4A4A4993671E20042215F0F9FA01201D
:1023400008BD284A464953671D20042215F0F0FABB
:10235000012008BD234A434913671C20042215F0BD
:10236000E7FA012008BD1F4A3F49D3661B2004221B
:1023700015F0DEFA012008BD1A4A3C4993661A207E
:10238000042215F0D5FA012008BD164A38495366D3
:102390001920042215F0CCFA012008BD114A354954
:1023A00013661820042215F0C3FA012008BD0D4A57
:1023B0003149D3651720042215F0BAFA012008BD6F
:1023C000084A2E4993651620042215F0B1FA01201F
:1023D00008BD044A2A4953651520042215F0A8FABD
:1023E000012008BD244F0020291F00003D1F0000D0
:1023F000511F0000651F0000791F00008D1F0000A5
:10240000A11F0000B51F0000C91F0000DD1F000054
:10241000F11F000005200000192000002D20000001
:102420004120000055200000AD1D0000211D0000CE
:10243000951C0000091C00007D1B0000F11A000023
:10244000651A0000D91900004D190000C1180000DC
:1024500035180000A91700001D1700009116000094
:102460000516000079150000ED140000611400004D
:10247000D513000049130000BD1200003112000006
:10248000A51100005F4A604913651420042215F06D
:102490004FFA012008BD5B4A5C49D3641320042233
:1024A00015F046FA012008BD564A59499364122096
:1024B000042215F03DFA012008BD524A55495364E3
:1024C0001120042215F034FA012008BD4D4A52496A
:1024D00013641020042215F02BFA012008BD494A8C
:1024E0004E49D3630F20042215F022FA012008BDC3
:1024F000444A4B4993630E20042215F019FA012037
:1025000008BD404A474953630D20042215F010FAD4
:10251000012008BD3B4A444913630C20042215F0F6
:1025200007FA012008BD374A4049D3620B20042234
:1025300015F0FEF9012008BD324A3D4993620A2098
:10254000042215F0F5F9012008BD2E4A39495362DD
:102550000920042215F0ECF9012008BD294A36496A
:1025600013620820042215F0E3F9012008BD254A72
:102570003249D3610720042215F0DAF9012008BDA1
:10258000204A2F4993610620042215F0D1F9012039
:1025900008BD1C4A2B4953610520042215F0C8F9D7
:1025A000012008BD174A284913610422104615F07E
:1025B000BFF9012008BD134A2449D3600320042237
:1025C00015F0B6F9012008BD0E4A2149936002209A
:1025D000042215F0ADF9012008BD0A4A1D495360D7
:1025E0000120042215F0A4F9012008BD054A1A496A
:1025F00013600020042215F09BF9012008BD002083
:1026000008BD00BF244F0020191100008D100000EC
:1026100001100000750F0000E90E00005D0E0000C3
:10262000D10D0000450D0000B90C00002D0C00007C
:10263000A10B0000150B0000890A0000FD09000035
:1026400071090000E508000059080000CD070000EE
:1026500041070000B506000029060000024B1B6878
:10266000DB6F1B6B1B697047E465FF1F2DE9F041B1
:102670001D4B1D68854282B016468CB219D005B23A
:10268000C4F590730022294600921BB20A22174813
:102690000EF044FA164B15481B880093C4F595724A
:1026A000A31B1BB212B229460EF038FA02B0BDE8E5
:1026B000F081C4F595772DB23FB24FF478483B4690
:1026C0002946CDF800800A2208480EF027FAA31BFD
:1026D0003A461BB2CDF80080294604480EF01EFA97
:1026E00002B0BDE8F08100BFFC07FF1FF0A7FF1F8D
:1026F0003C08FF1F2DE9F043364F374E3868374D01
:1027000083B01AF031F941EC100B18F00DF90022EA
:10271000334B51EC100B1AF09DF91AF073FCA846DC
:102720003060002431E058F824001AF01DF941EC23
:10273000100B18F0F9F80022294B51EC100B1AF08D
:1027400089F91AF05FFC00EBC000264A3168DFF817
:10275000A0E04001B0FBF1F1B1F5907F8ABF4FF4EA
:1027600090711160116055F824203B6802EBC202A1
:1027700052012046B2FBF3F31A46CEF80030FFF7C1
:1027800075FF0134B4F5D27F20D055F82430012BE9
:10279000C9D800230FFA84F9009349464FF4907387
:1027A0000A2211480EF0BAF9104B1B68A342E8D177
:1027B0004FF47843009349464FF490730A220A4835
:1027C00001340EF0ABF9B4F5D27FDED103B0BDE831
:1027D000F08300BFE865FF1F70ABFF1F3C18FF1FB1
:1027E000000059408424FF1FF0A7FF1FFC07FF1FB4
:1027F000AC2B002030B5104B1D68854283B00B46D2
:102800000DD00E4A128800920446C1F595720C480C
:1028100021B212B21BB20EF081F903B030BDC1F586
:1028200095724FF47840009029B212B21BB204485E
:102830000EF074F903B030BDFC07FF1F6008FF1FE6
:10284000F0A7FF1FF8B50B4F0B4E0C4D002457F8A7
:102850002420336802EBC20252012046B2FBF3F39C
:10286000013419462B60FFF7C5FFB4F5D27FEED1D6
:10287000F8BD00BF3C18FF1FE865FF1F8424FF1F41
:1028800000B5074883B0B0F92020B0F91E3000929F
:102890000022019211460EF0E5FB03B05DF804FB47
:1028A000F0A7FF1FDFF878C000232DE9F0411A4F91
:1028B000CCF800301A4647F823200133B3F5007FE7
:1028C000F9D1164E4FF0000E01F1FF38002921DD3D
:1028D000B0F5805F1EDA034608EB0005002202E037
:1028E000B3F5805F06D056F82340AB42224403F193
:1028F0000103F5D10844B0F5805F47F82E2004DAD3
:102900000EF1010EBEF5007FE0D10023CCF80030BF
:10291000BDE8F0810022EDE73C18FF1FCC24FF1F2B
:102920008424FF1F00234048194640F82310013338
:10293000B3F5805F4FF00002F7D13C4B3C483D4976
:10294000F0B43D4F1A603D4B02700A603A603C4E55
:102950003C4D3D4C3D483E493E4F1A603E4B326037
:102960002A60226002600A603A603C4E3C4D3D4C59
:102970003D483E493E4F1A603E4B32602A6022601D
:1029800002600A603A603C4E3C4D3D4C3D483E4939
:102990003E4F1A603E4B32602A60226002600A603D
:1029A0003C4E3D4D3D4C3E483E493A603E4F1A60DC
:1029B0003C230B6032602A603C4E3D4D2260026039
:1029C0003C4C3B603C483D4F3D4933602B602360AD
:1029D00003603B603B4E3C4D3C4C3D483D4F0B60E3
:1029E0003D4933602B60236003603C4E3C4D3D4CC1
:1029F0003D483E4B3A70B4270F603D493D4F327021
:102A00002A703D4E3D4D227002703D4C1A703D487B
:102A10003D4B0A7000213A7032702A7022700270A9
:102A20001960F0BC704700BFCC24FF1FB42B0020FE
:102A3000E064FF1FECA7FF1F8C2B00209C2B0020C5
:102A40000465FF1F902B0020942B0020982B002062
:102A5000A02B0020A42B0020A021FF1FA82B0020CA
:102A60009421FF1F9821FF1F9C21FF1FA421FF1FFE
:102A7000A017FF1F2021FF1F1021FF1F1421FF1F80
:102A80001821FF1F4821FF1F2421FF1F2821FF1F9E
:102A90004021FF1F3021FF1F3421FF1F3821FF1F5E
:102AA0003C21FF1FB808FF1FB408FF1FB008FF1F1D
:102AB000AC08FF1FA808FF1F0009FF1FF808FF1F31
:102AC000FC08FF1FF408FF1FF008FF1FEC08FF1FA2
:102AD000E808FF1FF565FF1F0C09FF1F2C21FF1FD2
:102AE0002018FF1F0C21FF1F3C20FF1F1C21FF1F70
:102AF0000065FF1F0865FF1F3418FF1F9DAAFF1FF9
:102B00009417FF1FC0A7FF1FF064FF1F394A3A4800
:102B10003A49DFF8ACC10023F0B5394E394D1360A6
:102B2000394C3A4A33602B6003600B60384F394EA2
:102B3000394D3A483A49236013603A4C3A4A3B606F
:102B400033602B6003600B60384F394E394D3A4883
:102B50003A49236013603A4C3A4A3B6033602B6039
:102B600003600B60384F394E394D3A483A4923607B
:102B700013603A4C3B603C2233600A60384F394E58
:102B80002B600360384D39483949DFF838E122605D
:102B9000384C3A603260384F384ECCF80030CEF8BE
:102BA00000302A6002600B70354D3648364922608D
:102BB000364C3A6032602A6002600A60344F354E0B
:102BC000354D3648364A37492370374C3B703370A1
:102BD0002B7003701370354F354E364D3648374ADB
:102BE0000B7023700021B4243B7033702B70046091
:102BF0001160F0BD9C2B0020982B0020A02B002002
:102C0000902B0020942B0020A42B0020A021FF1F3C
:102C1000A82B00209421FF1F9821FF1F9C21FF1F3C
:102C2000A421FF1FA017FF1F2021FF1F1021FF1F3E
:102C30001421FF1F1821FF1F4821FF1F2421FF1F00
:102C40002821FF1F4021FF1F3021FF1F3421FF1FBC
:102C50003821FF1F3C21FF1FB808FF1FB408FF1FCA
:102C6000B008FF1FAC08FF1FA808FF1F0009FF1FC7
:102C7000F565FF1FFC08FF1FF808FF1FF408FF1F82
:102C8000F008FF1FEC08FF1FE808FF1F2C21FF1FA3
:102C90002018FF1F0C21FF1F3C20FF1F1C21FF1FBE
:102CA0000065FF1F0865FF1F3418FF1F9DAAFF1F47
:102CB0009417FF1FC0A7FF1F0C09FF1FF064FF1F21
:102CC0008C2B00200465FF1F544A554BD2ED007A2F
:102CD000D3ED006A534B27EEA76A66EEA63AD3ED12
:102CE000004A76EE632A64EEA40A77EEE65A22EEF4
:102CF000E47A23EEE74AA0EEA57A0022A6EE864A01
:102D000037EE047AB5EE407AF1EE10FA79D0464902
:102D1000464A474BD2ED001A93ED001A91ED002A76
:102D20009FED440A25EE825A71EEC15AF1EE644AD3
:102D300066EEA16A67EE817AA4EEA55A36EEE73A0E
:102D400033EE055A85EE073AB0EEC35AB4EE405A58
:102D5000F1EE10FA48DCB4EE433AF1EE10FA47D641
:102D6000354B83ED003A26EE016A60EEA55AA3EEDC
:102D7000E16AE2EEC25ADFED2F3A75EE865A85EE31
:102D8000875AF0EEC55AF4EE635AF1EE10FA03DDFD
:102D900015EE103A002B2FDAB4EE455AF1EE10FA88
:102DA0002AD6264B83ED005A77EEE67ADFED215ADC
:102DB00067EEA07AE4EE867AE4EE027AC7EE876ADE
:102DC000F0EEE67AF4EE657AF1EE10FA03DD16EE37
:102DD000903A002B1EDAF4EE666AF1EE10FA19D67C
:102DE000174BC3ED006A704713EE103A002BB2DBAD
:102DF000114B00221A60B6E7104B4FF07E521A605A
:102E0000D2E70D480D490E4B02604FF07E5008602E
:102E10001A6070470A4B00221A6070473009FF1F82
:102E2000C808FF1F2C09FF1FCC08FF1F9408FF1FB5
:102E30009808FF1FFFFF7F7FFC64FF1F3408FF1F00
:102E40001818FF1F30B583B001AD0424204614F0DC
:102E50001DFA0134082C05F8010BF7D1124A134B67
:102E600092ED007A9DED016AD3ED006A104A114B94
:102E700092ED005AD3ED005A66EE077A26EE267AD6
:102E8000F7EE006AE6EE077A77EE857A77EEE57A76
:102E9000F0EEE77AF4EEE67AF1EE10FA94BF012054
:102EA0004FF0FF3003B030BD3408FF1FFC64FF1F3C
:102EB0001818FF1F9408FF1F38B51B4C237C012BEB
:102EC0002CD972B6184DE36862B61849184A0868DA
:102ED0001360984221D0002B164816DB0068B3EB34
:102EE000800F05DD0023136072B6E36062B61368DD
:102EF000114C0B60002B1A46B8BFDA1C92102260EE
:102F00003220BDE8384015F02BB803689B001360F1
:102F100072B6EB6062B61368E0E738BD72B6204661
:102F2000FEF7C0FFCEE700BFF417FF1FDC07FF1F4F
:102F30009817FF1F1C18FF1FC42B00202DE9F04716
:102F400085B28CB284B02E4E04F1210305F1140237
:102F50004FF4784E07B212B218B2A5F11403CDF8AF
:102F60000CE0019202900AB20090394630461BB242
:102F7000A5F102090FF0A0FD4FF6FF780FFA89F9CD
:102F800004F109020E23494630468DE8080112B2C9
:102F900005230EF067F804F1FF3A0523494604F1D2
:102FA0001A02A5F11509223424B2304600930FFA13
:102FB0008AFA0FFA89F9CDF8048012B215350EF0AD
:102FC00051F82DB252464B46394630468DE8100135
:102FD00012F028F9524639462B4630460094CDF877
:102FE000048012F01FF900944B4622462946CDF882
:102FF0000480304612F016F904B0BDE8F08700BF37
:10300000F0A7FF1F2DE9F0438DB2264E05F102080F
:1030100085B04CF218690FFA88F8052384B242464D
:103020008DE808020F46042301B230460EF01AF86C
:10303000A31D05F108001BB23FB200B2EA1CA11C9F
:10304000009701930290CDF80C90304612B209B26D
:1030500004F108070FF030FD3FB24FF0000E6A1C7C
:103060000723123406358DE808403946304624B22D
:103070002DB212B20D230DF0F5FF2346424639461C
:1030800030468DE8200212F0CDF8CDF800802346BE
:103090002A463946CDF80490304612F0C3F805B000
:1030A000BDE8F083F0A7FF1F2DE9F04F8DB2354E3C
:1030B00005F1020A85B04CF218670FFA8AFA052367
:1030C00084B28846524601B28DE888003046042317
:1030D0000DF0C8FFA31D05F1080205F1030E0FFA5C
:1030E00088F01BB212B2A11C0090019302923046EC
:1030F0000FFA8EF2039709B204F1080B0FF0DCFC13
:103100000FFA8BFB4FF0000E6A1C072304F10D0829
:1031100005F104098DE808400FFA88F80FFA89F9DB
:103120005946304612B20D2306350DF09BFF2DB2E5
:1031300052465946434630460197CDF80090123426
:1031400012F070F824B2594643462A463046CDF86C
:103150000090019712F066F85246234641463046E9
:10316000CDF80090019712F05DF8CDF8009023465D
:103170002A4641460197304612F054F805B0BDE8A2
:10318000F08F00BFF0A7FF1F2DE9F04F8DB2364E34
:1031900005F1020985B00FFA89F94CF21868052388
:1031A00084B28DE808014A460F46042301B2304636
:1031B0000DF058FFA31D05F108001BB23FB200B28D
:1031C000EA1CA11C0097CDF80C800193029012B26A
:1031D000304609B20FF070FC04F1080B00270723FA
:1031E0000FFA8BFB8DE888006A1C04F10D0705F1CE
:1031F00004083FB20FFA88F840F2FF7A5946304689
:1032000012B20D2306350DF02DFF2DB24A46594658
:103210003B463046CDF80080CDF804A0123412F0C1
:1032200001F824B259463B462A463046CDF8008084
:10323000CDF804A011F0F6FF4A4623463946304641
:10324000CDF80080CDF804A011F0ECFFCDF800809F
:1032500023462A463946CDF804A0304611F0E2FF55
:1032600005B0BDE8F08F00BFF0A7FF1F2DE9F04FBC
:10327000504B1B7883B0002B48D1002A00F08F8080
:10328000002A40DD8FB285B207F10A0B96B20FFA21
:1032900080FA0CB20FFA8BFB07F1030905F1050860
:1032A0000FFA88F822460FFA89F9534651464248E8
:1032B0000196CDF800B0073711F0B4FF3FB22246B7
:1032C000434651463C480196CDF800906C1F11F0E2
:1032D000A9FF24B25A465146434637480097019603
:1032E00011F0A0FF23463A4641463348CDF80090FE
:1032F000019611F097FF009723464A4641460196F2
:103300002D4811F08FFF03B0BDE8F08F002AB7D130
:103310008EB206F10A0A0CB20FFA8AFA0FFA80F995
:1033200040F2FF7885B26F1D06F1030B3FB20FFA32
:103330008BFB22464B464946CDF800A0CDF80480D1
:103340001D48073611F06EFF36B222463B4649460D
:10335000CDF80480CDF800B01748053D11F062FFAC
:103360002DB2524649463B468DE84001124811F0C5
:1033700059FF2B4632463946CDF800B0CDF80480CF
:103380000D4811F04FFF00962B465A463946CDF8AE
:103390000480094811F046FF03B0BDE8F08F8EB2FB
:1033A00006F10A0A0CB20FFA8AFA0FFA80F947F608
:1033B000EF38B7E72C18FF1FF0A7FF1F2DE9F04FDC
:1033C0003A4B85B21B7805F10A0785B00A4604B26C
:1033D0003FB20FFA81FA002B64D14FF4404692B20B
:1033E0003B4621460292CDF800A052460196304855
:1033F00011F018FF029B019603F10A080FFA88F8F2
:103400003B4642462146CDF80080294811F00AFF8C
:103410000299019601F105090FFA89F9EB1C05F1F2
:10342000010B04351BB2524621460FFA8BFB2DB21D
:10343000CDF800901E48039311F0F4FE2B46594638
:103440005246CDF800900196194811F0EBFE039911
:10345000CDF8008023464A460196154811F0E2FE59
:103460005B464A462946CDF800800196104811F087
:10347000D9FE029C0196A01C00B252463B4639463A
:1034800000900B4811F0CEFE04F108031BB28DE84A
:10349000480042463B463946054811F0C3FE05B098
:1034A000BDE8F08F40F2FF7699E700BF1465FF1F7B
:1034B000F0A7FF1F2DE9F0478DB282B0374E05F11E
:1034C000040905F1110197B20FFA89F903B209B2A3
:1034D00084B24A46009130461946019711F0A2FE87
:1034E000631C05F110001BB200B219464A46009059
:1034F0000197304611F096FE05F10E0804F108031D
:103500000FFA88F81BB219464A46CDF800803046BB
:10351000019711F087FE04F109031BB2CDF800807A
:103520004A4619463046019711F07CFE04F1020923
:1035300004F1040A05F10D020FFA89F90FFA8AFA6B
:1035400012B24946534600923046019711F06AFE86
:1035500053464946CDF8008042463046019711F067
:1035600061FE04F1050805F10C0207340FFA88F832
:1035700024B212B22346414600923046019711F020
:1035800051FE05F10B0212B2234641468DE884003C
:10359000304611F047FE02B0BDE8F087F0A7FF1FEC
:1035A00010B513F0CDF8092827DC324C3030302329
:1035B0006070237013F0D4F8092831DC30303023E8
:1035C000E070A37013F08CF809283BDC3030302316
:1035D0006071237113F094F8092845DD264BC2175A
:1035E00083FB0013C2EBA30303EB8302A0EB4200B7
:1035F00030303033E071A37110BD1F4B1D4C83FB85
:103600000032C317C3EBA20303EB8302A0EB42001B
:10361000303030336070237013F0A2F80928CDDD0C
:10362000154BC21783FB0013C2EBA30303EB83020A
:10363000A0EB420030303033E070A37013F050F84C
:103640000928C3DD0C4BC21783FB0013C2EBA30395
:1036500003EB8302A0EB4200303030336071237102
:1036600013F04EF80928B9DC30303023E071A37133
:1036700010BD00BFEC07FF1F676666662DE9F043CB
:103680002F4E002389B00746336008E03368684650
:103690000133336009F084FE684609F075FE684620
:1036A000012239460AF078F8684609F087FE0028BA
:1036B000ECD138460AF0CAF8684609F065FE35686C
:1036C000B5F1FE6F39D94FF0FF3016F005FF10232A
:1036D00080E8280000F108096C1E4DB14D462846CF
:1036E000013C002116F07EFD631C05F11005F6D1AA
:1036F0003368DFF85080002BC8F800901ADD0024F2
:103700000122394668460AF047F8D8F80030684682
:1037100003EB041509F03AFE0146284616F016FEA2
:10372000684609F03DFE684609F02EFE3368013414
:10373000A342E5DC09B0BDE8F08328010830C4E706
:1037400078ABFF1F442C002008B5C8224FF4DC7171
:10375000112016F063FCDC2014F002FCC8224FF4A8
:10376000DC71112016F05AFCDC2014F0F9FB11205A
:10377000C8224FF4DC7116F051FCDC20BDE8084093
:1037800014F0EEBB70B594B00CA801234F4A504919
:1037900009F072FF0CA809F011FE20B90CA809F07D
:1037A000F3FD14B070BD68464A494B4E16F01AFD41
:1037B0000CA809F055FD90B10CA809F06FFDC3B23B
:1037C000392B1946684606D80A2B13D016F000FE8E
:1037D000029B202BECD9FFF7B7FFFFF7A3F80CA84B
:1037E00009F0DEFD684616F0BDFC0CA809F0CCFD22
:1037F00014B070BD2C21684616F02AFE05466C1CDC
:1038000003464FF00002694604A8334CE3D016F09B
:103810002FFE6A1C029B694608A816F029FE04A820
:1038200016F04AFE054608A816F046FE294946F855
:103830002500684616F08AFD08A816F093FC04A837
:1038400016F090FC40F6FF739D42B1D1234B2068E7
:10385000186000221346226054F823100133B3F598
:10386000805F0A44F8D140BB1D4B18601D4B1E4AB7
:10387000186811681D4CFFF715F81D4800232360D8
:103880002646054650F823102268914284BF55F819
:10389000232032600133B3F5007FF3D12368012B7D
:1038A00001D9FEF727FF236863B94FF47A7014F04B
:1038B00057FB0CA809F074FD91E7094BB2FBF0F23D
:1038C0001A60D3E7FEF7BEFFEFE700BFEC07FF1F6C
:1038D000684C0020B8C80400CC24FF1FB42B002083
:1038E0002418FF1F7C24FF1F9C08FF1FE865FF1F93
:1038F0003C18FF1F30B595B00CA80123324A33495C
:1039000009F0BAFE0CA809F059FD20B90CA809F07D
:103910003BFD15B030BD68462D492E4D16F062FCBA
:103920000CA809F09DFC80B10CA809F0B7FCC3B24B
:10393000392B1946684606D80A2B11D016F048FDD7
:10394000029B202BECD9FFF7FFFE0CA809F028FD05
:10395000684616F007FC0CA809F016FD15B030BD3E
:103960002C21684616F074FD0446B4F1FF3F03466F
:103970004FF00002694604A8E5D016F079FD621CFC
:10398000029B694608A816F073FD04A816F094FD82
:10399000044608A816F090FD0D4945F82400684635
:1039A00016F0D4FC08A816F0DDFB04A816F0DAFB2C
:1039B00040F6FF739C42B3D14FF47A7014F0D0FA02
:1039C0000CA809F0EDFCC0E7D03B0400684C0020D7
:1039D000B8C80400D066FF1F2DE9F0412DED028B21
:1039E00098B008A809F0C2FCAE49AF4809F0B8FE8B
:1039F000002840F0BD81AD49AB4809F0B1FE002878
:103A000040F01E81AA49A84809F0AAFE002840F00B
:103A10009380A849A44809F0A3FE50B908A809F06A
:103A2000BFFC08A809F0B0FC18B0BDEC028BBDE8E3
:103A3000F08110AD01239F4A9B49284609F01CFEE6
:103A40009DF84410129A9DF84C308DF824100A927B
:103A50008DF82C3013A90DF12D020DF13A0311F858
:103A6000010F02F8010B9A42F9D1179B0F932846D8
:103A700009F08AFC08A809F0A1FC0028CED068460D
:103A80008D49DFED8E8ADFF838826C4616F0AAFB8E
:103A9000002608E016F09CFC029B202B00F20F820F
:103AA000322E00F0E48108A809F0DAFB002800F0CB
:103AB000E18108A809F0F2FBC3B2392B1946204670
:103AC00000F2FD810A2BE5D12E21204616F0C0FC24
:103AD0000746B7F1FF3F0346214604A84FF0000216
:103AE00000F0ED8116F0C4FC7A1C029B21462846AA
:103AF00016F0BEFC04A816F0DFFC08EE100A2846FB
:103B000016F0DAFC07EE900AB8EEE77AB8EEC88A4B
:103B1000C7EE287A08EB860367492046013677EE20
:103B2000887AC3ED007A16F011FC284616F01AFBCD
:103B300004A816F017FBB3E710AD01235C4A5A49FD
:103B4000284609F099FD9DF84410129A9DF84C30D2
:103B50008DF824100A928DF82C3013A90DF12D0246
:103B60000DF13A0311F8010F02F8010B9A42F9D155
:103B7000179B0F93284609F007FC08A809F01EFCC4
:103B800000283FF446AF68464B49DFED4C8ADFF82A
:103B900034816C4616F026FB002608E016F018FC6F
:103BA000029B202B00F29181322E00F06A8108A83E
:103BB00009F056FB002800F0678108A809F06EFBA9
:103BC000C3B2392B1946204600F27F810A2BE5D17A
:103BD0002E21204616F03CFC0746B7F1FF3F034676
:103BE000214604A84FF0000200F06F8116F040FC5F
:103BF0007A1C029B2146284616F03AFC04A816F0CF
:103C00005BFC08EE100A284616F056FC07EE900AF8
:103C1000B8EEE77AB8EEC88AC7EE287A08EB8603D2
:103C200025492046013677EE887AC3ED007A16F0F2
:103C30008DFB284616F096FA04A816F093FAB3E71F
:103C400010AD0123194A1849284609F015FD9DF8C1
:103C50004410129A9DF84C308DF824100A928DF879
:103C60002C3013A90DF12D020DF13A0311F8010FBB
:103C700002F8010B9A42F9D1179B0F93284609F0DD
:103C800083FB08A809F09AFB00283FF4BBAE684606
:103C90000949DFED0A8ADFF830806C4616F0A2FA97
:103CA00000261CE00C08FF1F684C00205008FF1F76
:103CB0007008FF1F4008FF1FB8C80400286B6E4E35
:103CC0001C65FF1FF865FF1F4020FF1F16F080FBDB
:103CD000029B202B00F2FC80322E00F0DC8008A832
:103CE00009F0BEFA002800F0D98008A809F0D6FA39
:103CF000C3B2392B1946204600F2EA800A2BE5D1DF
:103D00002E21204616F0A4FB0746B7F1FF3F0346DD
:103D1000214604A84FF0000200F0DA8016F0A8FB5C
:103D20007A1C029B2146284616F0A2FB04A816F036
:103D3000C3FB08EE100A284616F0BEFB07EE900AF9
:103D4000B8EEE77AB8EEC88AC7EE287A08EB8603A1
:103D500061492046013677EE887AC3ED007A16F085
:103D6000F5FA284616F0FEF904A816F0FBF9B3E7B9
:103D700010AD0123594A5A49284609F07DFC9DF8A7
:103D80004410129A9DF84C308DF824100A928DF848
:103D90002C3013A90DF12D020DF13A0311F8010F8A
:103DA00002F8010B9A42F9D1179B0F93284609F0AC
:103DB000EBFA08A809F002FB00283FF41CAE6846A5
:103DC0004549DFED488ADFF820816C4616F00AFA93
:103DD000002606E016F0FCFA029B202B72D8322E49
:103DE00063D008A809F03CFA002861D008A809F0BF
:103DF00055FAC3B2392B1946204663D80A2BE9D1AC
:103E00002E21204616F024FB0746B7F1FF3F03465C
:103E1000214604A84FF0000254D016F029FB7A1C6A
:103E2000029B2146284616F023FB04A816F044FB0B
:103E300008EE100A284616F03FFB07EE900AB8EE8F
:103E4000E77AB8EEC88AC7EE287A08EB86032249DB
:103E50002046013677EE887AC3ED007A16F076FABE
:103E6000284616F07FF904A816F07CF9B7E708A8F1
:103E700009F096FA08A809F093FA204616F072F9AC
:103E8000CCE508A809F08CFA08A809F089FA2046C0
:103E900016F068F9BDE508A809F082FA08A809F04B
:103EA0007FFA204616F05EF9ACE508A809F078FA2A
:103EB00008A809F075FA204616F054F99BE5FFF7BB
:103EC00043FCD7E7FFF740FCF2E7FFF73DFCDBE7F9
:103ED000FFF73AFCE2E700BFB8C804000C08FF1F78
:103EE000684C0020286B6E4EA8AAFF1FDB48DC4AF6
:103EF000DC4BDD49D0ED004AD2ED006A93ED006A5B
:103F0000DA489FEDDB4A91ED007A2DE9F043D94E76
:103F1000D94DDA4C012740F6E77107EE907AB8EEFA
:103F2000E75A192335EE045A03E001338B4200F0BF
:103F30008C8107EE903A03FB03F2F8EEE77A05EE88
:103F4000902A67EE877AF8EEE55AE5EEA67A77EEE4
:103F5000867A74EEE77AF0EEE77AB4EEE75AF1EE9D
:103F600010FAE2DB01370B2F3BD17A230121C44A3F
:103F7000DFF828E3D2ED004A9FEDBD4ACEF80030CD
:103F80004FF0010840F6E77C07EE908AB8EEE75A5A
:103F9000192235EE045A03E00132624500F05881DF
:103FA00007EE902A02FB02F7F8EEE77A05EE907A28
:103FB00067EE877AF8EEE55AE5EEA67A77EE867A2E
:103FC00074EEE77AF0EEE77AB4EEE75AF1EE10FA23
:103FD000E2DB08F10108B8F10B0F06D0571CD3D073
:103FE00006E05A1C99D00021C1E740F26E2201215F
:103FF000A44FDFF8ACC2D7ED004A9FED9D4ACCF844
:1040000000204FF000094FF0010840F6E77C07EE72
:10401000908AB8EEE75A192235EE045A03E00132CD
:10402000624500F0188107EE902A02FB02F7F8EED5
:10403000E77A05EE907A67EE877AF8EEE55AE5EED4
:10404000A67A77EE867A74EEE77AF0EEE77AB4EE47
:10405000E75AF1EE10FAE2DB08F10108B8F10A0FB5
:1040600004DD4FF00109494640F23453571CCED0CD
:10407000854F3A60B9F1000F40F017819FED7C4AFF
:10408000DFED824A4FF0010E40F6E77707EE90EA47
:10409000B8EEE75A192335EE045A03E00133BB4268
:1040A00000F0008107EE903A03FB03F2F8EEE77AA6
:1040B00005EE902A67EE877AF8EEE55AE5EEA67AE5
:1040C00077EE867A74EEE77AF0EEE77AB4EEE75AA6
:1040D000F1EE10FAE2DB0EF1010EBEF10B0F02D091
:1040E0005A1CD3D002E04FF43E7301219FED604A89
:1040F000DFED674A3360012740F6E77607EE907AF6
:10410000B8EEE75A192335EE045A03E00133B342FF
:1041100000F0958007EE903A03FB03F2F8EEE77AA1
:1041200005EE902A67EE877AF8EEE55AE5EEA67A74
:1041300077EE867A74EEE77AF0EEE77AB4EEE75A35
:10414000F1EE10FAE2DB01370B2F02D05A1CD5D06A
:1041500001E0902301219FED464ADFED4E4A2B609E
:10416000012640F6E77507EE906AB8EEE75A192384
:1041700035EE045A02E00133AB4263D007EE903AC9
:1041800003FB03F2F8EEE77A05EE902A67EE877AF2
:10419000F8EEE55AE5EEA67A77EE867A74EEE77ADF
:1041A000F0EEE77AB4EEE75AF1EE10FAE3DB01360F
:1041B0000B2E02D05F1CD6D002E04FF47F7301219A
:1041C0009FED2B4ADFED344A2360012540F6E7746A
:1041D00007EE905AB8EEE75A192335EE045A02E07A
:1041E0000133A34228D007EE903A03FB03F2F8EE26
:1041F000E77A05EE902A67EE877AF8EEE55AE5EE63
:10420000A67A77EE867A74EEE77AF0EEE77AB4EE85
:10421000E75AF1EE10FAE3DB01350B2D05D05A1CFD
:10422000D6D0036021B9BDE8F0834FF4FE7303607C
:10423000BDE8F043FFF788BA4FF0FF33ECE74FF0EB
:10424000FF3380E74FF0FF33B1E74FF0FF3389E6EC
:104250004FF0FF32BDE64FF0FF32FDE60008FF1FD2
:10426000FC64FF1F1818FF1F3408FF1F9008FF1F72
:10427000000000008808FF1FD808FF1F8C08FF1FE0
:104280000408FF1F0808FF1FEC64FF1F00003E44E6
:104290000000104300007F440000FE43E464FF1F61
:1042A000E864FF1F4FF0FF3315E7CEF80030E5E676
:1042B00008B564224FF45C71112015F0AFFE652043
:1042C00013F04EFE642240F21741112015F0A6FEB5
:1042D000652013F045FE1120642240F2275115F0AD
:1042E0009DFE6520BDE8084013F03ABE08B5C8221F
:1042F00040F22751112015F091FEC92013F030FE35
:104300001120DC2240F2174115F088FEDD20BDE8C7
:10431000084013F025BE00BF70B594B0FFF740F918
:10432000394B3A4818603A4A3A490CA8132309F025
:10433000A3F90CA809F042F820B90CA809F024F858
:1043400014B070BD3449354E08A815F04BFF344AFF
:104350003449354B12681B68096804A801FB023117
:104360000A2215F085FF04A908A816F041F80146B5
:104370002E4815F0DBFF04A815F0F4FE08A815F090
:10438000F1FE2A490CA815F019FC0CA815F03CFC0C
:1043900001240A222146684615F056FF694604A802
:1043A00015F034FF224904A816F02AF80A2256F81C
:1043B0002410054608A815F06FFF08A9284616F036
:1043C00017F80146194815F0B1FF08A815F0CAFE04
:1043D00004A815F0C7FE684615F0C4FE13490CA8E2
:1043E00015F0ECFB01340CA815F00EFCB4F5805F61
:1043F000CFD1FFF77BFF0CA808F0D2FF0CA808F084
:10440000C3FF14B070BD00BFD44C0020B504000041
:10441000EC07FF1F684C0020E03B0400CC24FF1F8A
:10442000ECA7FF1F1C09FF1FB42B0020B024FF1FA7
:10443000E43B0400F8B51248124F00253D602C46BD
:1044400029462B46064650F823208A4203D956F8BF
:104450002340012521460133B3F5805FF3D165B9CF
:10446000094B994208D9094C01232370FFF754FFE7
:10447000FEF758FA00232370F8BD3C60F0E700BF58
:10448000CC24FF1F8024FF1F80969800E064FF1F4C
:1044900070B52B492B4894B009F062F9002849D136
:1044A000294B2A481860264A26490CA8132309F0EC
:1044B000E3F80CA808F082FF002836D0244E002430
:1044C0000A222146684615F0BFFE694604A815F089
:1044D0009DFE204904A815F093FF0A2256F82410E7
:1044E000054608A815F0D8FE08A9284615F080FF53
:1044F0000146194815F01AFF08A815F033FE04A864
:1045000015F030FE684615F02DFE13490CA815F085
:1045100055FB01340CA815F077FBB4F5805FCFD1C3
:10452000FFF7E4FE0CA808F03BFF0CA808F02CFFF6
:1045300014B070BD0249034809F020F9B0E700BF8C
:10454000D03B0400684C0020D44C0020B50400008F
:10455000CC24FF1FE43B0400B024FF1F38B53524F2
:1045600044F6B0250121112013F0E0FC2B46013B5D
:10457000FDD10021112013F0D9FC2B46013BFDD1C8
:10458000013CEFD1412443F638350121112013F0CD
:10459000CDFC2B46013BFDD10021112013F0C6FCC0
:1045A0002B46013BFDD1013CEFD1352444F6B0252B
:1045B0000121112013F0BAFC2B46013BFDD1002153
:1045C000112013F0B3FC2B46013BFDD1013CEFD190
:1045D00038BD00BF2DE9F0472DED028B642082B07D
:1045E000D34D13F0BDFC00242E46204612F04EFEA3
:1045F0000134042C06F8010BF7D1CE4E3746204685
:1046000012F044FE0134082C07F8010BF7D1CA4F11
:10461000B846204612F03AFE01340C2C08F8010B83
:10462000F7D1D5ED007AC24BF4EE677AD6ED007A79
:10463000F1EE10FA64BFC14A1A60F4EE677A6CBFFB
:104640004FF001084FF00008F1EE10FAB94B80F17D
:104650008B82D7ED007AB84BF4EE677AF1EE10FA60
:1046600080F18782DFF8D8A22424D146204612F0B8
:104670000DFE0134282C09F8010BF7D19AED008AC0
:10468000AF4BB4EE488AF1EE10FA80F16682DFEDAE
:10469000AD7AB4EEE78AF1EE10FA40F31382F2EE4F
:1046A000047AB0EE678ACAED007ADFF89CA229246A
:1046B000D146204612F0EAFD01342D2C09F8010BF9
:1046C000F7D1DAED007AA04BF4EE677AF1EE10FA4A
:1046D00080F154829FED9D7AF4EEC77AF1EE10FAE4
:1046E00040F3E7819FED9A7AF0EE477A8AED007AFF
:1046F000B0EE007AF0EE086AB0EE676AA8EE076ADC
:10470000944B954AE8EE267A282082ED006AC3EDA4
:10471000007A12F0BBFD914B002840F09D8118708B
:10472000192012F0B3FD08288D4C00F39E81206003
:10473000002800F0A7811F2012F0A8FD642300FBD1
:104740000330884A44F620639842106000F2CF811B
:10475000DFF814A21A24D146204612F097FD013446
:104760001E2C09F8010BF7D1DAED007A7E4BF4EE3E
:10477000677AF1EE10FA80F10882DFF8F0A12024C8
:10478000D146204612F082FD0134242C09F8010B99
:10479000F7D1DAED007A754BF4EE677AF1EE10FAA4
:1047A00080F1D681182012F071FD032800F2938168
:1047B0006F4B18706F4B002840F041814FF08442DE
:1047C0001A606D496D4B6E486E4A08601A60D5EDEF
:1047D000007AF5EEC07AF1EE10FA40F200819FED1A
:1047E0006A7AF4EEC77AF1EE10FA00F3F880D6EDAB
:1047F000007AF5EEC07AF1EE10FA40F2E1809FED1A
:10480000627AF4EEC77AF1EE10FA00F3D980D7EDB0
:10481000007AF5EEC07AF1EE10FA7AD99FED5A7A65
:10482000F4EEC77AF1EE10FA73DC2D2012F02EFDB3
:1048300005462E2012F02AFD544E00EB05252F20B0
:10484000356012F023FD0446302012F01FFD504B5E
:1048500000EB04208542186040F3D0800A2140F626
:10486000F672322031601A6012F010FD012840F219
:10487000D7800021322012F023FD464B00221A700F
:10488000454C4649464B474D25604FF07C506422CD
:1048900008601A60332012F0F9FC0446342012F04C
:1048A000F5FC00EB0420A0F10A0246F29E139A42A6
:1048B00000F228813C4B186007EE900A1620B8EEF3
:1048C000E70A13F0A1FA7F21162013F009F9374BFC
:1048D0007F2235201A6012F0D9FC012840F2DC80DA
:1048E0000021352012F0ECFC314C3249324B0025CE
:1048F00045F21F0047F2B332257008601A60B8F124
:10490000000F01D0FEF720FF02B0BDEC028BBDE826
:10491000F08702A8294B40F8043D042208213B609F
:1049200012F0F6FC0A2013F01BFB4FF001087CE7A5
:104930002C09FF1F3009FF1FC808FF1F0000D042CD
:104940003808FF1F0000C842D807FF1F0000964329
:10495000000016434421FF1FA824FF1F1465FF1FFA
:104960009C08FF1F1C09FF1FC408FF1FA008FF1F92
:10497000C82B0020CC08FF1F9408FF1F9808FF1FBA
:10498000008025440080B64400F07F45E408FF1F06
:104990003008FF1FAC24FF1F2408FF1F2808FF1F3B
:1049A000A408FF1F0000A0401009FF1FD408FF1F2C
:1049B000F465FF1F6008FF1F3C08FF1F00800645CD
:1049C00002A87B4B40F8043D04221146336012F0EC
:1049D0009FFC0A2013F0C4FA4FF0010817E702A861
:1049E000744B40F8043D042200212B6012F090FC2F
:1049F0000A2013F0B5FA4FF00108F8E6092DDCBFE4
:104A00000A223260B0F5805FA8BF40F6F6724FF020
:104A10003200A8BF1A6012F039FC01283FF629AF16
:104A2000654B187000283FF42BAF644A6448654911
:104A3000654B10606548086019221A602AE7012852
:104A400074D002287BD0624A1A606249624B634884
:104A5000634A08601A60BAE6012219201A7012F03F
:104A600015FC08285F4C7FF762AE08231946192011
:104A7000236012F025FC0A2013F072FA2068002847
:104A80007FF459AE012319461920236012F018FC57
:104A90000A2013F065FA4EE600287BD1524A5349AA
:104AA000534B107045F21F0047F2B33208601A6092
:104AB00025E79FED507AF4EEC77AF1EE10FA3FF554
:104AC00011AE15E6DFED4B7AB4EEE78AF1EE10FA9F
:104AD0003FF5E5ADE9E50023474C19461820237062
:104AE00012F0EEFB0A2013F03BFA207862E64FF456
:104AF000616324211F20136012F0E2FB0A2013F0EF
:104B00002FFA25E63D4C4FF47A73032133202360BE
:104B100012F0D6FB0A2013F023FA2178342012F089
:104B2000CFFB0A2013F01CFA2068C5E6284A1A6059
:104B30002849294B3248334A08601A6047E6324A0E
:104B40001A602449244B3148314A08601A603EE615
:104B5000304A1A604FF0010824E6B2EE048A83ED71
:104B6000008A4FF00108A0E5114A1A604FF00108D1
:104B70006FE5294A1A604FF0010873E5DFED277AE7
:104B80004FF00108C3ED007AB2E5254A1A604FF0F4
:104B90000108F2E501287FF4B2AE134A1349144B21
:104BA00010704BF6BF5044F6AB2208601A60A6E6C0
:104BB00000007A440000D042AC24FF1F2808FF1FE9
:104BC000CDCCCC3E2408FF1FA408FF1F0000E0400E
:104BD0000000F4429408FF1F9808FF1F0000B6432E
:104BE00000401F449C08FF1FF465FF1F6008FF1F63
:104BF0003C08FF1FCDCCCC3DC82B00201009FF1F67
:104C00000000AC430000B04400003A4300401844A8
:104C10000000DC4400C0A8440080064500001643A4
:104C200000802244174A184B92ED007AD3ED007AA7
:104C300016491748B8EE477AF8EE677A0022C7EEB1
:104C4000276AF1EE666A51F8223007EE903A50F882
:104C5000223007EE103AF8EE677AB8EE477AE6EEC1
:104C6000877AF5EEC07AF1EE10FA56BFFCEEE77ADD
:104C7000002317EE903A41F822300132B2F5805FFE
:104C8000E1D17047B42B00201C09FF1FCC24FF1F6B
:104C9000D066FF1F23482449002350F8232041F801
:104CA00023200133B3F5805FF7D12DE9F0411F4F89
:104CB000002240F6FC76541C51F8220051F8248062
:104CC000194D931C02F1030C02F1040E51F82CC093
:104CD00051F8233051F82EE000EB800000EB880003
:104CE000704400EB4C0003EB43030344A7FB0303B6
:104CF000DB08B44241F822302246DCD143F6EC73A3
:104D000043F6F072E958A95043F6F472E958A950F5
:104D100043F6F872E958A95043F6FC72EB58AB50D1
:104D2000BDE8F081CC24FF1F7CABFF1F89888888F9
:104D3000F8B5A0F10A0240F632739A4259D80746F4
:104D400017F022FE41EC100B15F076FE51EC100B23
:104D500018F030F93228A8BF322044003B1B264D02
:104D60003C4455F8231055F82420A3420A444FEA46
:104D7000520E3EDC002601343146284655F82320E9
:104D80008A4284BF50F823101E4601339C42F5D15D
:104D9000BE422ED140F628239E4207EE901AA7F27B
:104DA000262740F60203CCBFDFED146ADFED146A5C
:104DB0009F42F8EE677A11D907EE10EAB8EEC77A8B
:104DC00087EE276AF4EEC66AF1EE10FA11DDB5EE51
:104DD000C06AF1EE10FA0CDD0120F8BD07EE106A92
:104DE0009FED086ADFED086AB8EEC77AE7EE066A5B
:104DF000E2E74FF0FF30F8BD7CABFF1F6666E63E92
:104E00009A99593FA6994CB9BB12753F2DE9F04FBD
:104E10002DED028B85B0054617F0B6FD41EC100B69
:104E200015F00AFE51EC100B18F0C4F83128A8BF99
:104E300031204FEA400B0390CBEB050305EB0B0051
:104E4000834200F3DE80734E0130002256F82310B7
:104E5000013398420A44F9D1B2F5FA7FC0F0D1800B
:104E600005F1FF3ACBEB0A0A554505F1010440F381
:104E7000CE80039B03FB0BF308EE103AB8EEC88A12
:104E80000027C5EB0A0303FB03F307EE903AF8EEA5
:104E9000E77A87EE887AF1EE477A17EE900A17F0F4
:104EA00085FD41EC100B15F0BBFC56F82A0007EE0F
:104EB000900AF8EE677A53EC102B17EE900ACDE9C2
:104EC000002317F073FDDDE9002317F0C3FD8046D2
:104ED0003846894617F06AFD02460B464046494669
:104EE00017F006FC18F0AEF80AF1010A554507461E
:104EF000C7D10BEB040A54457CDA039B03FB0BFB85
:104F000007EE90BAB8EEE78A4FF0000B631B03FB85
:104F100003F307EE903AF8EEE77A87EE887AF1EE3F
:104F2000477A17EE900A17F041FD41EC100B15F08F
:104F300077FC56F8240007EE900AF8EE677A53ECF7
:104F4000102B17EE900ACDE9002317F02FFDDDE9B5
:104F5000002317F07FFD80465846894617F026FD4E
:104F600002460B464046494617F0C2FB18F06AF865
:104F7000013454458346C9D107EE907AF5EE407A64
:104F8000F1EE10FA36D007EE900AF5EE407AF1EE27
:104F900010FA2FD007EE100A07EE907A77EEC77A54
:104FA000F0EEE77A17EE900A17F000FD0446384657
:104FB0000D4617F0FBFC02460B462046294617F02B
:104FC00073FE0022144B17F0B7FF98B1584617F044
:104FD000EDFC02460B462046294617F065FE0022EE
:104FE0000D4B17F0A9FF28B1012005B0BDEC028BD5
:104FF000BDE8F08F4FF0FF3005B0BDEC028BBDE88F
:10500000F08F064B00224FF0FF301A60EDE70027CB
:105010006FE700BF7CABFF1F0000D03FF064FF1FB5
:105020002DE9F0472E4F2F4D00233B60824617F0AD
:10503000ABFC8046894649EC108B55F82A6015F088
:10504000FBFC404653EC102B494617F04FFB17F082
:10505000B1FF49EC108B044615F0EEFC404653ECD2
:10506000102B494617F044FB17F0A4FF84424FEA87
:10507000560130DC421CD646284655F82430B3424F
:1050800003D950F82460A646710801349442F4D143
:10509000AAF196030AF1950293421EDC0AF1960AE0
:1050A000002055F8232001338A4228BF01309A4559
:1050B000F7D107EE900A9FED0C7AF8EEE77A67EEEB
:1050C000877A07EE10EAB8EEC77AC7EE876AC7EDAF
:1050D000006ABDE8F087D646DAE7DFED047AF0E74C
:1050E000F064FF1F7CABFF1F0000C84200000000FF
:1050F000002A2DE9F043C0EB010898FBF2F850DDDF
:10510000DFF8B0E09FED297A294F4FF0000C08F14D
:10511000FF39B8F1000F46DD814244DB034609EB5D
:105120000006002401E0994206DB57F823509E4216
:105130002C4403F10103F6D107EE904AF8EE677AAA
:1051400077EE877A40440EEB8C038142C3ED007A00
:1051500003DB0CF1010C6245DBD10023B7EE007AD2
:105160000EEB8301D1ED007AF4EEC77AF1EE10FA7E
:1051700003F10103C8BF91ED007A9A42F0D107EE26
:10518000902AB8EEE76A00230EEB8301D1ED007A96
:1051900066EE277A0133C7EE876A9A42C1ED006A4C
:1051A000F2DCBDE8F083DFED017ACBE70000000020
:1051B000CC24FF1FD0A6FF1F70B590B004466846F0
:1051C00008F0D4F8601E032833D8DFE800F0B78970
:1051D0005A027849784808F0C3FA18B175497648F8
:1051E00008F0CCFA754B32221968002008ADFFF7A1
:1051F0007FFF13236F4A7049284608F03DFA9DF857
:1052000024100A9A9DF82C308DF8041002928DF823
:105210000C300BA90DF10D020DF11A0311F8010F5D
:1052200002F8010B9A42F9D10F9B0793284608F028
:10523000ABF8684608F0C2F8D8B1614E002408AD5A
:1052400006EB840393ED000A0921284615F038F88F
:1052500029465C4815F072F8284614F083FF594936
:10526000684614F0ABFC0134684614F0CDFC322CD7
:10527000E6D1684608F094F8684608F085F810B062
:1052800070BD51494C4808F06BFA002840F08D8001
:105290004E4B32221968002008ADFFF729FF132377
:1052A000494A4549284608F0E7F99DF824100A9A2A
:1052B0009DF82C308DF8041002928DF80C300BA95B
:1052C0000DF10D020DF11A0311F8010F02F8010B97
:1052D0009A42F9D10F9B0793284608F055F8A8E7A2
:1052E0003B49354808F03CFA002859D1394B322265
:1052F0001968002008ADFFF7FBFE1323344A2E493E
:10530000284608F0B9F99DF824100A9A9DF82C3027
:105310008DF8041002928DF80C300BA90DF10D02DE
:105320000DF11A0311F8010F02F8010B9A42F9D19D
:105330000F9B0793284608F027F87AE726491E486E
:1053400008F00EFA38BB214B32221968002008AD54
:10535000FFF7CEFE1323204A1749284608F08CF9A0
:105360009DF824100A9A9DF82C308DF804100292B2
:105370008DF80C300BA90DF10D020DF11A0311F887
:10538000010F02F8010B9A42F9D10F9B07932846AF
:1053900007F0FAFF4DE71049074808F0EFF9D2E7A8
:1053A0000B49054808F0EAF9A0E70749024808F068
:1053B000E5F96DE74008FF1F684C00208C08FF1FCF
:1053C000D0A6FF1FB024FF1F7008FF1F8808FF1F13
:1053D0000C08FF1FD808FF1F5008FF1F2DE9F043DE
:1053E00001382DED068B052800F2D282DFE810F09F
:1053F0003E00D500840141017B020600002940F3F4
:105400000883DFEDD36AD34DD34CD44AB0EE665A4D
:10541000F0EE665AB0EE666A002303E0B5EC015A7E
:10542000F4EC016A02EB830090ED007AD0ED007A93
:1054300037EE457A77EEE67A01339942A7EE076AAE
:10544000E7EEA75AEAD1C64BD3ED007AF4EEC67A5E
:10545000F1EE10FAC0F2A582BDEC068BC149C24A3A
:10546000012306200B701370BDE8F083002940F380
:10547000F4829FEDB74ADFF84483DFF844C3DFF8D6
:1054800044E3BA4FBA4EBB4DDFEDBB9A9FEDBB9ADA
:10549000B24ADFF83493F0EE448AB0EE448AB0EEBC
:1054A000440AF0EE442AF0EE440AB0EE441AF0EE5C
:1054B000441AB0EE442AB0EE443AF0EE443A0024E6
:1054C0000BE0B8EC010ABCEC018AFEEC018AB7ECF7
:1054D000014AB6EC019AF5EC019AA0001318484471
:1054E000D3ED004A93ED005AD3ED005A93ED006AD4
:1054F000D3ED006A93ED007AD3ED007A90ED00AA27
:1055000074EEC04A35EE485A75EEE85A36EE446AF3
:1055100076EEC96A37EE697A77EECA7A0134A1422B
:10552000E4EEA43AA5EE053AA5EEA52AE6EE061AA3
:10553000A6EEA61AE7EE070AE7EEA72AC1D1904B1E
:10554000D3ED007AF4EEE37AF1EE10FA1EDAF4EE1F
:10555000C37AF1EE10FA19DAF4EEC27AF1EE10FA2B
:1055600014DAF4EEE17AF1EE10FA0FDAF4EEC17A21
:10557000F1EE10FA0ADAF4EEE07AF1EE10FA05DA5A
:10558000F4EEE27AF1EE10FAC0F20282BDEC068B84
:10559000744B01201870BDE8F083002940F350825D
:1055A000DFED6B4ADFF824C2DFF824E2754F764E58
:1055B000764D6A4ADFF81C82B0EE648AB0EE640A67
:1055C000F0EE640AB0EE641AF0EE643AB0EE642ACB
:1055D000F0EE641AF0EE642AB0EE643AB0EE644A7B
:1055E000002409E0BCEC011AFEEC010AB7EC010A48
:1055F000B6EC018AF5EC014AA0001318404493ED83
:10560000005AD3ED005A93ED006AD3ED006A93ED92
:10561000007AD3ED007AD0ED008A35EE415A75EE6E
:10562000E05A36EE406A76EEC86A37EE647A77EE74
:10563000E87A0134A142A5EE054AA5EEA53AE6EEC8
:10564000062AE6EEA61AA7EE072AE7EEA73AC9D180
:105650004F4BD3ED007AF4EEC47AF1EE10FAC0F2BB
:10566000B481BDEC068B3F4B012202201A70BDE8CD
:10567000F0830029DFED366A40F3DF81454DDFED31
:10568000465A364A454EB0EE666A002001E0F5EC17
:10569000015A8300D418334494ED007AD4ED007A93
:1056A00093ED005A37EE657A77EEC57AA7EE076A72
:1056B0000130E7EEA76AB4EEE66AF1EE10FAD4BF65
:1056C000F0EE467AF0EE667A8142E0D1344BC3EDDB
:1056D000007A344BD3ED007AF4EEC67AF1EE10FA8C
:1056E000C0F26C81BDEC068B1E492F4A01230420B9
:1056F0000B701370BDE8F083002940F38F819FED9C
:10570000140ADFF8D480DFF8D4C0DFF8D4E0274FE4
:10571000274E284DDFED289A104ADFF8C890F0EEAA
:10572000405AB0EE409AF0EE408AB0EE408AB0EEB9
:10573000403AF0EE401AB0EE401AF0EE400AB0EEF9
:10574000402AF0EE402AF0EE403A002458E000BF34
:1057500000000000001D020028AF0400D0A6FF1FBB
:105760002809FF1FEC65FF1F3418FF1F60AE0400FF
:105770004C4D04002C4A04008FE3A93CAD42B63CDA
:10578000E807FF1FD447040064490400BC4B040031
:105790006408FF1F98AD0400992B213F1C65FF1F73
:1057A0000809FF1F1409FF1F1C21FF1FF0AF040091
:1057B000701B02000C4704005AA8A13BE01902002C
:1057C000F44A0400444604004020FF1F381C020035
:1057D000D0AC0400A8AAFF1F9C480400844C04001D
:1057E000A81A0200F865FF1FB8EC018AFCEC018AD8
:1057F000BEEC019AF7EC015AB6EC010AF5EC019AFD
:10580000A000131893ED004AD3ED004A93ED005A1F
:10581000D3ED007A93ED006AD3ED006A93ED007A40
:1058200034EE484A74EEE84AE4EE043A484401345F
:10583000E4EEA42A35EE495AF4EEE23AA5EE052A42
:1058400077EEE55AF1EE10FAD4BFF0EE637AF0EE9F
:10585000627AE5EEA50AB4EE672A36EE406AF1EE0A
:1058600010FA48BFF0EE427AA6EE061AF4EE607A1D
:1058700076EEE96AF1EE10FA90ED006AC8BFF0EE3C
:10588000607AE6EEA61AB4EE671A37EE467AF1EEC3
:1058900010FA48BFF0EE417AA7EE073AF4EE671A25
:1058A000F1EE10FA48BFF0EE617AB4EE673AF1EE2D
:1058B00010FA48BFF0EE437AA14295D16E4BC3ED8A
:1058C000007A6E4BD3ED007AF4EEE37AF1EE10FA43
:1058D00040DBBDEC068B6A496A4A012303200B704A
:1058E0001370BDE8F083002940F38E809FED666A57
:1058F000664D674C9FED675A674AF0EE465AF0EEE8
:10590000466A002303E0B5EC015AB4EC016A02EBED
:10591000830090ED007AD0ED007A37EE457A77EE8D
:10592000C67A01339942E7EE076AE7EEA75AEAD151
:105930005A4BD3ED007AF4EEE67AF1EE10FA37DB4B
:10594000BDEC068B4E49564A012305200B7013709F
:10595000BDE8F083F4EEE27AF1EE10FAB9DAF4EE93
:10596000C27AF1EE10FAB4DAF4EEE07AF1EE10FA5F
:10597000AFDAF4EEC17AF1EE10FAAADAF4EEE17AD7
:10598000F1EE10FAA5DAF4EEC37AF1EE10FAA0DA2D
:10599000BDEC068B3A4B00224FF0FF301A70BDE889
:1059A000F083F4EEE57AF1EE10FABFF655ADEFE7CD
:1059B000F4EEE57AF1EE10FAC2DAE9E7F4EEE67A0F
:1059C000F1EE10FABFF68EAEE2E7F4EEC37AF1EE36
:1059D00010FABFF646AEF4EEE27AF1EE10FABFF638
:1059E00040AEF4EEE17AF1EE10FABFF63AAEF4EE24
:1059F000C27AF1EE10FABFF634AEF4EEE37AF1EECD
:105A000010FABFF62EAEC3E7DFED1F5AF0EE656A5F
:105A10008EE7DFED1D5AB0EE656A14E59FED1A3A88
:105A2000F0EE431AB0EE431AF0EE430AB0EE432A0A
:105A3000F0EE432AF0EE433A43E7B0EE666A48E6FA
:105A4000DFED113AB0EE632AF0EE631AF0EE632A4E
:105A5000B0EE633AB0EE634AFAE5DFED0B2AF0EE02
:105A6000620AB0EE621AF0EE621AB0EE622AB0EE8E
:105A7000623AF0EE623A62E52008FF1F2009FF1F3C
:105A8000EC65FF1FF565FF1F0000000008AC040077
:105A900018190200829B8539D0A6FF1F6808FF1FD6
:105AA0000065FF1FF0B5C14B83B01968322200209A
:105AB000FFF71EFB32210220FFF790FC022867D07F
:105AC000BB4B322219680020FFF712FB3221012064
:105AD000FFF784FC012800F0938032210320FFF7B8
