:10000000F8FF0220990100000D720100C571010086
:10001000C5710100C5710100C5710100C571010004
:10002000C5710100C5710100C57101000D720100AB
:100030000D720100C5710100B5960100B99601006D
:100040000D7201000D7201000D7201000D720100B0
:100050000D7201000D7201000D7201000D720100A0
:100060000D7201000D7201000D7201000D72010090
:100070000D7201000D7201000D7201000D72010080
:100080000D7201000D7201000D7201000D72010070
:100090000D7201000D7201000D7201000D72010060
:1000A000696A0100756A01000D7201000D7201009C
:1000B0000D7201000D7201000D7201000D72010040
:1000C0000D7201000D7201000D7201000D72010030
:1000D0000D7201000D7201000D7201002925000052
:1000E0000D7201000D7201000D720100F1CF0000D0
:1000F0000D7201000D7201000D7201000D72010000
:1001000005990100199901002D99010041990100FB
:100110000D720100FD8501000D7201000D720100DC
:100120000D7201000D7201000D7201000D720100CF
:100130000D7201000D7201000D7201000D720100BF
:100140000D7201000D720100718301000D7201003A
:100150000D7201000D7201000D7201000D7201009F
:100160000D7201000D720100816A01000D72010023
:100170000D7201000D7201000D7201000D7201007F
:100180000D7201000D7201000D7201000D7201006F
:100190000D7201000D720100584B4CF2205210B547
:1001A0001A804DF628121A8000BF00BF17F032F8EF
:1001B000534B4FF030621A60524A9A60524ADA60EA
:1001C000524B4FF470021A60514A136813F4807353
:1001D00004D150490B604FF4A85313604E4B1A786A
:1001E000110703D51A7842F008021A704B4B4C499C
:1001F0002A221A704B4A4C4B8B4204D252F8040FFD
:1002000043F8040BF8E7494B494900228B4202D2DC
:1002100043F8042BFAE74749474A002352F82300E2
:1002200041F823000133662BF8D1444B444A802126
:1002300003F8011B9342FBD1424B3E4A1A60424BEA
:100240008A221A70A3F5805324225A70A0221A70B1
:100250009A799207FCD59A79D406FCD43B4A9379D3
:1002600003F00C03082B394BF9D103221A714622F3
:100270005A719A799006FCD5344A9179334B4906E4
:10028000FBD5334A4FF08271116009215160202261
:100290001A709A7902F00C020C2AFAD12D4B2E4AD0
:1002A0001A602E4B2E4A1A6000225A60072243F829
:1002B000042C2C4AC3F80C2D62B617F081FD154BA7
:1002C0001B68DA0705D5284817F0DAFA274B284AC1
:1002D0001A60284B1B785B0609D5244C244B2268F6
:1002E0009A4204D1204817F0CBFA002323601CF077
:1002F0002BFE16F095FF19F0C5FFFEE70E20054016
:1003000030800440823F04000100002B88ED00E0B3
:1003100010D0034014D0034002D0074000E0074053
:100320007817FF1F08D30400F806FF1F7817FF1F78
:10033000641500200002FF1F0000000000E400E040
:1003400056E400E008ED00E00050064000400640A2
:100350004480044004800440C010050014E000E024
:10036000BFD4010000002020C8AF32611CE0034070
:10037000A5C3945A00F00740FFFFFFFFFFFFFFFFF8
:10038000FFFFFFFFFFFFFFFFFFFFFFFFFFFFFFFF7D
:10039000FFFFFFFFFFFFFFFFFFFFFFFFFFFFFFFF6D
:1003A000FFFFFFFFFFFFFFFFFFFFFFFFFFFFFFFF5D
:1003B000FFFFFFFFFFFFFFFFFFFFFFFFFFFFFFFF4D
:1003C000FFFFFFFFFFFFFFFFFFFFFFFFFFFFFFFF3D
:1003D000FFFFFFFFFFFFFFFFFFFFFFFFFFFFFFFF2D
:1003E000FFFFFFFFFFFFFFFFFFFFFFFFFFFFFFFF1D
:1003F000FFFFFFFFFFFFFFFFFFFFFFFFFFFFFFFF0D
:10040000FFFFFFFFFFFFFFFFFFFFFFFFDEF9FFFF23
:1004100010B5054C237833B9044B13B10448AFF33E
:1004200000800123237010BD7817FF1F000000001B
:1004300004D30400084B10B51BB108490848AFF3BA
:1004400000800848036803B910BD074B002BFBD0A0
:10045000BDE81040184700BF000000007C17FF1FD8
:1004600004D304007817FF1F00000000002070472D
:10047000704700BF0349044B4FF4804001220860DD
:100480001A60704708F00F403C68FF1F014B0122C3
:100490001A6070479C17FF1F034A04491368012024
:1004A0000344136008607047CC64FF1F1868FF1F87
:1004B00017F0E0B9F8B50E46074616F043F80546C2
:1004C00016F030F8044616F01DF86401C0B204F4CA
:1004D000FF54ADB2A5F2BC75044344EA45243C8008
:1004E00015F0E0FF054615F0EDFF044615F0FAFFA4
:1004F000ED02640105F4FF2504F4FF542C43C0F31E
:10050000460004433480F8BD9FED3D7A38B53D4C3C
:10051000F0EE476A002234F812309BB207EE903AB0
:10052000F8EEE77A013277EEA67A3C2A37EE277AA0
:10053000F1D1DFED356A354DC7EE267A29212846FF
:100540000422C5ED007A16F0C5FD0A2017F0EAFB7B
:1005500095ED006ADFED2A6A002134F8112034F8A5
:10056000113092B207EE902A9BB2B8EEE77A07EE0E
:10057000903AF8EEE77A36EE477A76EE677A01310E
:100580003C29E7EE276AE8D1DFED217A214B224CA6
:1005900086EEA77A00221A6017EE100A1CF0E6F821
:1005A00041EC100B1AF028F951EC100B1CF02AFC4E
:1005B000D5ED007A194B07EE100AF0EE006AB0EEA6
:1005C000086AF0EE675AE7EE265A1548E7EE067A13
:1005D0000422242180ED007AC3ED007AC4ED005A94
:1005E00016F078FD0A2017F09DFB0121282016F057
:1005F00049FD0A2017F096FB0A4B01221A7038BDFC
:1006000000000000F0EEFF1F00007042D807FF1F3F
:1006100000006C42C4ADFF1FA824FF1F4421FF1F30
:100620003008FF1F3868FF1F214B10B4DA6E1368C3
:10063000506819780478507A137A044201EA030169
:100640001BD0937A03F0030309B143F0040343F092
:1006500008039910013B91720D2B0BD8DFE803F0D2
:1006600021071B070A152121150A071B0721D3683B
:10067000013BD3605DF8044B7047937A03F00303AA
:100680000029E6D043F00403E3E7D3685DF8044BA8
:10069000023BD3607047D3685DF8044B0233D360EC
:1006A0007047D3685DF8044B0133D360704700BFD7
:1006B00048120020214B10B41A6F13685068197843
:1006C0000478507A137A044201EA03011BD0937A2A
:1006D00003F0030309B143F0040343F00803991046
:1006E000013B91720D2B0BD8DFE803F021071B07AC
:1006F0000A152121150A071B0721D368013BD36086
:100700005DF8044B7047937A03F003030029E6D0A9
:1007100043F00403E3E7D3685DF8044B023BD36086
:100720007047D3685DF8044B0233D3607047D368D9
:100730005DF8044B0133D360704700BF48120020BE
:10074000214B10B45A6F1368506819780478507AA6
:10075000137A044201EA03011BD0937A03F00303E6
:1007600009B143F0040343F008039910013B91726F
:100770000D2B0BD8DFE803F021071B070A152121F9
:10078000150A071B0721D368013BD3605DF8044BB2
:100790007047937A03F003030029E6D043F0040383
:1007A000E3E7D3685DF8044B023BD3607047D3683E
:1007B0005DF8044B0233D3607047D3685DF8044B97
:1007C0000133D360704700BF48120020214B10B4A2
:1007D0009A6F1368506819780478507A137A044233
:1007E00001EA03011BD0937A03F0030309B143F03C
:1007F000040343F008039910013B91720D2B0BD8B1
:10080000DFE803F021071B070A152121150A071B42
:100810000721D368013BD3605DF8044B7047937A9E
:1008200003F003030029E6D043F00403E3E7D368B1
:100830005DF8044B023BD3607047D3685DF8044B0E
:100840000233D3607047D3685DF8044B0133D36043
:10085000704700BF48120020214B10B4DA6F1368B4
:10086000506819780478507A137A044201EA030137
:100870001BD0937A03F0030309B143F0040343F060
:1008800008039910013B91720D2B0BD8DFE803F0A0
:1008900021071B070A152121150A071B0721D36809
:1008A000013BD3605DF8044B7047937A03F0030378
:1008B0000029E6D043F00403E3E7D3685DF8044B76
:1008C000023BD3607047D3685DF8044B0233D360BA
:1008D0007047D3685DF8044B0133D360704700BFA5
:1008E00048120020214B10B4D3F8802013685068C0
:1008F00019780478507A137A044201EA03011BD074
:10090000937A03F0030309B143F0040343F00803AF
:100910009910013B91720D2B0BD8DFE803F02107F2
:100920001B070A152121150A071B0721D368013B64
:10093000D3605DF8044B7047937A03F003030029FA
:10094000E6D043F00403E3E7D3685DF8044B023BD1
:10095000D3607047D3685DF8044B0233D3607047AF
:10096000D3685DF8044B0133D36070474812002010
:10097000214B10B4D3F88420136850681978047898
:10098000507A137A044201EA03011BD0937A03F0F0
:10099000030309B143F0040343F008039910013B3A
:1009A00091720D2B0BD8DFE803F021071B070A1506
:1009B0002121150A071B0721D368013BD3605DF88D
:1009C000044B7047937A03F003030029E6D043F009
:1009D0000403E3E7D3685DF8044B023BD360704740
:1009E000D3685DF8044B0233D3607047D3685DF879
:1009F000044B0133D360704748120020214B10B4E0
:100A0000D3F888201368506819780478507A137ADC
:100A1000044201EA03011BD0937A03F0030309B1F6
:100A200043F0040343F008039910013B91720D2B2E
:100A30000BD8DFE803F021071B070A152121150A4F
:100A4000071B0721D368013BD3605DF8044B704757
:100A5000937A03F003030029E6D043F00403E3E7AD
:100A6000D3685DF8044B023BD3607047D3685DF8F0
:100A7000044B0233D3607047D3685DF8044B0133F5
:100A8000D360704748120020214B10B4D3F88C205B
:100A90001368506819780478507A137A044201EA8E
:100AA00003011BD0937A03F0030309B143F004035D
:100AB00043F008039910013B91720D2B0BD8DFE82E
:100AC00003F021071B070A152121150A071B07211F
:100AD000D368013BD3605DF8044B7047937A03F011
:100AE00003030029E6D043F00403E3E7D3685DF88D
:100AF000044B023BD3607047D3685DF8044B02336C
:100B0000D3607047D3685DF8044B0133D3607047FE
:100B100048120020214B10B4D3F89020136850687D
:100B200019780478507A137A044201EA03011BD041
:100B3000937A03F0030309B143F0040343F008037D
:100B40009910013B91720D2B0BD8DFE803F02107C0
:100B50001B070A152121150A071B0721D368013B32
:100B6000D3605DF8044B7047937A03F003030029C8
:100B7000E6D043F00403E3E7D3685DF8044B023B9F
:100B8000D3607047D3685DF8044B0233D36070477D
:100B9000D3685DF8044B0133D360704748120020DE
:100BA000214B10B4D3F89420136850681978047856
:100BB000507A137A044201EA03011BD0937A03F0BE
:100BC000030309B143F0040343F008039910013B08
:100BD00091720D2B0BD8DFE803F021071B070A15D4
:100BE0002121150A071B0721D368013BD3605DF85B
:100BF000044B7047937A03F003030029E6D043F0D7
:100C00000403E3E7D3685DF8044B023BD36070470D
:100C1000D3685DF8044B0233D3607047D3685DF846
:100C2000044B0133D360704748120020214B10B4AD
:100C3000D3F898201368506819780478507A137A9A
:100C4000044201EA03011BD0937A03F0030309B1C4
:100C500043F0040343F008039910013B91720D2BFC
:100C60000BD8DFE803F021071B070A152121150A1D
:100C7000071B0721D368013BD3605DF8044B704725
:100C8000937A03F003030029E6D043F00403E3E77B
:100C9000D3685DF8044B023BD3607047D3685DF8BE
:100CA000044B0233D3607047D3685DF8044B0133C3
:100CB000D360704748120020214B10B4D3F89C2019
:100CC0001368506819780478507A137A044201EA5C
:100CD00003011BD0937A03F0030309B143F004032B
:100CE00043F008039910013B91720D2B0BD8DFE8FC
:100CF00003F021071B070A152121150A071B0721ED
:100D0000D368013BD3605DF8044B7047937A03F0DE
:100D100003030029E6D043F00403E3E7D3685DF85A
:100D2000044B023BD3607047D3685DF8044B023339
:100D3000D3607047D3685DF8044B0133D3607047CC
:100D400048120020214B10B4D3F8A020136850683B
:100D500019780478507A137A044201EA03011BD00F
:100D6000937A03F0030309B143F0040343F008034B
:100D70009910013B91720D2B0BD8DFE803F021078E
:100D80001B070A152121150A071B0721D368013B00
:100D9000D3605DF8044B7047937A03F00303002996
:100DA000E6D043F00403E3E7D3685DF8044B023B6D
:100DB000D3607047D3685DF8044B0233D36070474B
:100DC000D3685DF8044B0133D360704748120020AC
:100DD000214B10B4D3F8A420136850681978047814
:100DE000507A137A044201EA03011BD0937A03F08C
:100DF000030309B143F0040343F008039910013BD6
:100E000091720D2B0BD8DFE803F021071B070A15A1
:100E10002121150A071B0721D368013BD3605DF828
:100E2000044B7047937A03F003030029E6D043F0A4
:100E30000403E3E7D3685DF8044B023BD3607047DB
:100E4000D3685DF8044B0233D3607047D3685DF814
:100E5000044B0133D360704748120020214B10B47B
:100E6000D3F8A8201368506819780478507A137A58
:100E7000044201EA03011BD0937A03F0030309B192
:100E800043F0040343F008039910013B91720D2BCA
:100E90000BD8DFE803F021071B070A152121150AEB
:100EA000071B0721D368013BD3605DF8044B7047F3
:100EB000937A03F003030029E6D043F00403E3E749
:100EC000D3685DF8044B023BD3607047D3685DF88C
:100ED000044B0233D3607047D3685DF8044B013391
:100EE000D360704748120020214B10B4D3F8AC20D7
:100EF0001368506819780478507A137A044201EA2A
:100F000003011BD0937A03F0030309B143F00403F8
:100F100043F008039910013B91720D2B0BD8DFE8C9
:100F200003F021071B070A152121150A071B0721BA
:100F3000D368013BD3605DF8044B7047937A03F0AC
:100F400003030029E6D043F00403E3E7D3685DF828
:100F5000044B023BD3607047D3685DF8044B023307
:100F6000D3607047D3685DF8044B0133D36070479A
:100F700048120020214B10B4D3F8B02013685068F9
:100F800019780478507A137A044201EA03011BD0DD
:100F9000937A03F0030309B143F0040343F0080319
:100FA0009910013B91720D2B0BD8DFE803F021075C
:100FB0001B070A152121150A071B0721D368013BCE
:100FC000D3605DF8044B7047937A03F00303002964
:100FD000E6D043F00403E3E7D3685DF8044B023B3B
:100FE000D3607047D3685DF8044B0233D360704719
:100FF000D3685DF8044B0133D3607047481200207A
:10100000214B10B4D3F8B4201368506819780478D1
:10101000507A137A044201EA03011BD0937A03F059
:10102000030309B143F0040343F008039910013BA3
:1010300091720D2B0BD8DFE803F021071B070A156F
:101040002121150A071B0721D368013BD3605DF8F6
:10105000044B7047937A03F003030029E6D043F072
:101060000403E3E7D3685DF8044B023BD3607047A9
:10107000D3685DF8044B0233D3607047D3685DF8E2
:10108000044B0133D360704748120020214B10B449
:10109000D3F8B8201368506819780478507A137A16
:1010A000044201EA03011BD0937A03F0030309B160
:1010B00043F0040343F008039910013B91720D2B98
:1010C0000BD8DFE803F021071B070A152121150AB9
:1010D000071B0721D368013BD3605DF8044B7047C1
:1010E000937A03F003030029E6D043F00403E3E717
:1010F000D3685DF8044B023BD3607047D3685DF85A
:10110000044B0233D3607047D3685DF8044B01335E
:10111000D360704748120020214B10B4D3F8BC2094
:101120001368506819780478507A137A044201EAF7
:1011300003011BD0937A03F0030309B143F00403C6
:1011400043F008039910013B91720D2B0BD8DFE897
:1011500003F021071B070A152121150A071B072188
:10116000D368013BD3605DF8044B7047937A03F07A
:1011700003030029E6D043F00403E3E7D3685DF8F6
:10118000044B023BD3607047D3685DF8044B0233D5
:10119000D3607047D3685DF8044B0133D360704768
:1011A00048120020214B10B4D3F8C02013685068B7
:1011B00019780478507A137A044201EA03011BD0AB
:1011C000937A03F0030309B143F0040343F00803E7
:1011D0009910013B91720D2B0BD8DFE803F021072A
:1011E0001B070A152121150A071B0721D368013B9C
:1011F000D3605DF8044B7047937A03F00303002932
:10120000E6D043F00403E3E7D3685DF8044B023B08
:10121000D3607047D3685DF8044B0233D3607047E6
:10122000D3685DF8044B0133D36070474812002047
:10123000214B10B4D3F8C42013685068197804788F
:10124000507A137A044201EA03011BD0937A03F027
:10125000030309B143F0040343F008039910013B71
:1012600091720D2B0BD8DFE803F021071B070A153D
:101270002121150A071B0721D368013BD3605DF8C4
:10128000044B7047937A03F003030029E6D043F040
:101290000403E3E7D3685DF8044B023BD360704777
:1012A000D3685DF8044B0233D3607047D3685DF8B0
:1012B000044B0133D360704748120020214B10B417
:1012C000D3F8C8201368506819780478507A137AD4
:1012D000044201EA03011BD0937A03F0030309B12E
:1012E00043F0040343F008039910013B91720D2B66
:1012F0000BD8DFE803F021071B070A152121150A87
:10130000071B0721D368013BD3605DF8044B70478E
:10131000937A03F003030029E6D043F00403E3E7E4
:10132000D3685DF8044B023BD3607047D3685DF827
:10133000044B0233D3607047D3685DF8044B01332C
:10134000D360704748120020214B10B4D3F8CC2052
:101350001368506819780478507A137A044201EAC5
:1013600003011BD0937A03F0030309B143F0040394
:1013700043F008039910013B91720D2B0BD8DFE865
:1013800003F021071B070A152121150A071B072156
:10139000D368013BD3605DF8044B7047937A03F048
:1013A00003030029E6D043F00403E3E7D3685DF8C4
:1013B000044B023BD3607047D3685DF8044B0233A3
:1013C000D3607047D3685DF8044B0133D360704736
:1013D00048120020214B10B4D3F8D0201368506875
:1013E00019780478507A137A044201EA03011BD079
:1013F000937A03F0030309B143F0040343F00803B5
:101400009910013B91720D2B0BD8DFE803F02107F7
:101410001B070A152121150A071B0721D368013B69
:10142000D3605DF8044B7047937A03F003030029FF
:10143000E6D043F00403E3E7D3685DF8044B023BD6
:10144000D3607047D3685DF8044B0233D3607047B4
:10145000D3685DF8044B0133D36070474812002015
:10146000214B10B4D3F8D42013685068197804784D
:10147000507A137A044201EA03011BD0937A03F0F5
:10148000030309B143F0040343F008039910013B3F
:1014900091720D2B0BD8DFE803F021071B070A150B
:1014A0002121150A071B0721D368013BD3605DF892
:1014B000044B7047937A03F003030029E6D043F00E
:1014C0000403E3E7D3685DF8044B023BD360704745
:1014D000D3685DF8044B0233D3607047D3685DF87E
:1014E000044B0133D360704748120020214B10B4E5
:1014F000D3F8D8201368506819780478507A137A92
:10150000044201EA03011BD0937A03F0030309B1FB
:1015100043F0040343F008039910013B91720D2B33
:101520000BD8DFE803F021071B070A152121150A54
:10153000071B0721D368013BD3605DF8044B70475C
:10154000937A03F003030029E6D043F00403E3E7B2
:10155000D3685DF8044B023BD3607047D3685DF8F5
:10156000044B0233D3607047D3685DF8044B0133FA
:10157000D360704748120020214B10B4D3F8DC2010
:101580001368506819780478507A137A044201EA93
:1015900003011BD0937A03F0030309B143F0040362
:1015A00043F008039910013B91720D2B0BD8DFE833
:1015B00003F021071B070A152121150A071B072124
:1015C000D368013BD3605DF8044B7047937A03F016
:1015D00003030029E6D043F00403E3E7D3685DF892
:1015E000044B023BD3607047D3685DF8044B023371
:1015F000D3607047D3685DF8044B0133D360704704
:1016000048120020214B10B4D3F8E0201368506832
:1016100019780478507A137A044201EA03011BD046
:10162000937A03F0030309B143F0040343F0080382
:101630009910013B91720D2B0BD8DFE803F02107C5
:101640001B070A152121150A071B0721D368013B37
:10165000D3605DF8044B7047937A03F003030029CD
:10166000E6D043F00403E3E7D3685DF8044B023BA4
:10167000D3607047D3685DF8044B0233D360704782
:10168000D3685DF8044B0133D360704748120020E3
:10169000214B10B4D3F8E42013685068197804780B
:1016A000507A137A044201EA03011BD0937A03F0C3
:1016B000030309B143F0040343F008039910013B0D
:1016C00091720D2B0BD8DFE803F021071B070A15D9
:1016D0002121150A071B0721D368013BD3605DF860
:1016E000044B7047937A03F003030029E6D043F0DC
:1016F0000403E3E7D3685DF8044B023BD360704713
:10170000D3685DF8044B0233D3607047D3685DF84B
:10171000044B0133D360704748120020214B10B4B2
:10172000D3F8E8201368506819780478507A137A4F
:10173000044201EA03011BD0937A03F0030309B1C9
:1017400043F0040343F008039910013B91720D2B01
:101750000BD8DFE803F021071B070A152121150A22
:10176000071B0721D368013BD3605DF8044B70472A
:10177000937A03F003030029E6D043F00403E3E780
:10178000D3685DF8044B023BD3607047D3685DF8C3
:10179000044B0233D3607047D3685DF8044B0133C8
:1017A000D360704748120020214B10B41A681368A8
:1017B000506819780478507A137A044201EA0301D8
:1017C0001BD0937A03F0030309B143F0040343F001
:1017D00008039910013B91720D2B0BD8DFE803F041
:1017E00021071B070A152121150A071B0721D368AA
:1017F000013BD3605DF8044B7047937A03F0030319
:101800000029E6D043F00403E3E7D3685DF8044B16
:10181000023BD3607047D3685DF8044B0233D3605A
:101820007047D3685DF8044B0133D360704700BF45
:1018300048120020214B10B45A6813685068197878
:101840000478507A137A044201EA03011BD0937A98
:1018500003F0030309B143F0040343F008039910B4
:10186000013B91720D2B0BD8DFE803F021071B071A
:101870000A152121150A071B0721D368013BD360F4
:101880005DF8044B7047937A03F003030029E6D018
:1018900043F00403E3E7D3685DF8044B023BD360F5
:1018A0007047D3685DF8044B0233D3607047D36848
:1018B0005DF8044B0133D360704700BF481200202D
:1018C000214B10B49A681368506819780478507ADC
:1018D000137A044201EA03011BD0937A03F0030355
:1018E00009B143F0040343F008039910013B9172DE
:1018F0000D2B0BD8DFE803F021071B070A15212168
:10190000150A071B0721D368013BD3605DF8044B20
:101910007047937A03F003030029E6D043F00403F1
:10192000E3E7D3685DF8044B023BD3607047D368AC
:101930005DF8044B0233D3607047D3685DF8044B05
:101940000133D360704700BF48120020214B10B410
:10195000DA6A1368506819780478507A137A044266
:1019600001EA03011BD0937A03F0030309B143F0AA
:10197000040343F008039910013B91720D2B0BD81F
:10198000DFE803F021071B070A152121150A071BB1
:101990000721D368013BD3605DF8044B7047937A0D
:1019A00003F003030029E6D043F00403E3E7D36820
:1019B0005DF8044B023BD3607047D3685DF8044B7D
:1019C0000233D3607047D3685DF8044B0133D360B2
:1019D000704700BF48120020214B10B41A6B1368E7
:1019E000506819780478507A137A044201EA0301A6
:1019F0001BD0937A03F0030309B143F0040343F0CF
:101A000008039910013B91720D2B0BD8DFE803F00E
:101A100021071B070A152121150A071B0721D36877
:101A2000013BD3605DF8044B7047937A03F00303E6
:101A30000029E6D043F00403E3E7D3685DF8044BE4
:101A4000023BD3607047D3685DF8044B0233D36028
:101A50007047D3685DF8044B0133D360704700BF13
:101A600048120020214B10B45A6B13685068197843
:101A70000478507A137A044201EA03011BD0937A66
:101A800003F0030309B143F0040343F00803991082
:101A9000013B91720D2B0BD8DFE803F021071B07E8
:101AA0000A152121150A071B0721D368013BD360C2
:101AB0005DF8044B7047937A03F003030029E6D0E6
:101AC00043F00403E3E7D3685DF8044B023BD360C3
:101AD0007047D3685DF8044B0233D3607047D36816
:101AE0005DF8044B0133D360704700BF48120020FB
:101AF000214B10B49A6B1368506819780478507AA7
:101B0000137A044201EA03011BD0937A03F0030322
:101B100009B143F0040343F008039910013B9172AB
:101B20000D2B0BD8DFE803F021071B070A15212135
:101B3000150A071B0721D368013BD3605DF8044BEE
:101B40007047937A03F003030029E6D043F00403BF
:101B5000E3E7D3685DF8044B023BD3607047D3687A
:101B60005DF8044B0233D3607047D3685DF8044BD3
:101B70000133D360704700BF48120020214B10B4DE
:101B8000DA6B1368506819780478507A137A044233
:101B900001EA03011BD0937A03F0030309B143F078
:101BA000040343F008039910013B91720D2B0BD8ED
:101BB000DFE803F021071B070A152121150A071B7F
:101BC0000721D368013BD3605DF8044B7047937ADB
:101BD00003F003030029E6D043F00403E3E7D368EE
:101BE0005DF8044B023BD3607047D3685DF8044B4B
:101BF0000233D3607047D3685DF8044B0133D36080
:101C0000704700BF48120020214B10B41A6C1368B3
:101C1000506819780478507A137A044201EA030173
:101C20001BD0937A03F0030309B143F0040343F09C
:101C300008039910013B91720D2B0BD8DFE803F0DC
:101C400021071B070A152121150A071B0721D36845
:101C5000013BD3605DF8044B7047937A03F00303B4
:101C60000029E6D043F00403E3E7D3685DF8044BB2
:101C7000023BD3607047D3685DF8044B0233D360F6
:101C80007047D3685DF8044B0133D360704700BFE1
:101C900048120020214B10B45A6C13685068197810
:101CA0000478507A137A044201EA03011BD0937A34
:101CB00003F0030309B143F0040343F00803991050
:101CC000013B91720D2B0BD8DFE803F021071B07B6
:101CD0000A152121150A071B0721D368013BD36090
:101CE0005DF8044B7047937A03F003030029E6D0B4
:101CF00043F00403E3E7D3685DF8044B023BD36091
:101D00007047D3685DF8044B0233D3607047D368E3
:101D10005DF8044B0133D360704700BF48120020C8
:101D200070B5044608460D461BF0EAFF23680246DC
:101D3000294620465B68BDE87040184738B5044620
:101D400008460D461BF0DCFF2368024629465B6807
:101D5000204698470546204617F038FE284438BDEF
:101D600038B5054617F098FE0446284617F02EFEB3
:101D7000204438BD38B5C9B2054617F095FE044673
:101D8000284617F023FE204438BD00BF10B4036876
:101D900041681A780C78417A037A0C4202EA03020D
:101DA0001BD0837A03F003030AB143F0040343F02A
:101DB00008039A10013B82720D2B0BD8DFE803F069
:101DC00021071B070A152121150A071B0721C368D4
:101DD000013BC3605DF8044B7047837A03F0030353
:101DE000002AE6D043F00403E3E7C3685DF8044B40
:101DF000023BC3607047C3685DF8044B0233C360A5
:101E00007047C3685DF8044B0133C360704700BF7F
:101E100008B5034BD3F8EC00FFF7B8FF08BD00BFCF
:101E20004812002008B5024B986EFFF7AFFF08BDBF
:101E30004812002008B5024B586EFFF7A7FF08BDF7
:101E40004812002008B5024B186EFFF79FFF08BD2F
:101E50004812002008B5024BD86DFFF797FF08BD68
:101E60004812002008B5024B986DFFF78FFF08BDA0
:101E70004812002008B5024B586DFFF787FF08BDD8
:101E80004812002008B5024B186DFFF77FFF08BD10
:101E90004812002008B5024BD86CFFF777FF08BD49
:101EA0004812002008B5024B986CFFF76FFF08BD81
:101EB0004812002008B5024B986AFFF767FF08BD7B
:101EC0004812002008B5024B586AFFF75FFF08BDB3
:101ED0004812002008B5024B186AFFF757FF08BDEB
:101EE0004812002008B5024BD869FFF74FFF08BD24
:101EF0004812002008B5024B9869FFF747FF08BD5C
:101F00004812002008B5024B5869FFF73FFF08BD93
:101F10004812002008B5024B1869FFF737FF08BDCB
:101F20004812002008B5024BD868FFF72FFF08BD04
:101F30004812002008B50B463B2800F2C682DFE8B5
:101F400010F0BB02B202A902A00297028E02850223
:101F50007C0273026A02610258024F0246023D028D
:101F600034022B022202190210020702AE01A5015F
:101F70009C0193018A01810178016F0166015D0175
:101F800054014A01400136012C01220118010E01C1
:101F90000401FA00F000E600DC00D200C800BE0038
:101FA000B400AA00A00096008C00820078006E00A9
:101FB00064005A00500046003C00BD4ABD49C2F8CA
:101FC000EC303B20042215F095FB012008BDB84AF7
:101FD000B949C2F8E8303A20042215F08BFB012001
:101FE00008BDB34AB549C2F8E4303920042215F0DF
:101FF00081FB012008BDAE4AB149C2F8E03038206B
:10200000042215F077FB012008BDA94AAD49C2F8AA
:10201000DC303720042215F06DFB012008BDA44AF6
:10202000A949C2F8D8303620042215F063FB0120FC
:1020300008BD9F4AA549C2F8D4303520042215F0C6
:1020400059FB012008BD9A4AA149C2F8D03034207A
:10205000042215F04FFB012008BD954A9D49C2F8A6
:10206000CC303320042215F045FB012008BD904AF6
:102070009949C2F8C8303220042215F03BFB0120F8
:1020800008BD8B4A9549C2F8C4303120042215F0AE
:1020900031FB012008BD864A9149C2F8C03030208A
:1020A000042215F027FB012008BD814A8D49C2F8A2
:1020B000BC302F20042215F01DFB012008BD7C4AF6
:1020C0008949C2F8B8302E20042215F013FB0120F4
:1020D00008BD774A8549C2F8B4302D20042215F096
:1020E00009FB012008BD724A8149C2F8B0302C209A
:1020F000042215F0FFFA012008BD6D4A7D49C2F89F
:10210000AC302B20042215F0F5FA012008BD684AF6
:102110007949C2F8A8302A20042215F0EBFA0120F0
:1021200008BD634A7549C2F8A4302920042215F07D
:10213000E1FA012008BD5E4A7149C2F8A0302820AA
:10214000042215F0D7FA012008BD594A6D49C2F89A
:102150009C302720042215F0CDFA012008BD544AF6
:102160006949C2F898302620042215F0C3FA0120EC
:1021700008BD4F4A6549C2F894302520042215F065
:10218000B9FA012008BD4A4A6149C2F890302420BA
:10219000042215F0AFFA012008BD454A5D49C2F896
:1021A0008C302320042215F0A5FA012008BD404AF6
:1021B0005949C2F888302220042215F09BFA0120E8
:1021C00008BD3B4A5549C2F884302120042215F04D
:1021D00091FA012008BD364A5149C2F880302020CA
:1021E000042215F087FA012008BD314A4D49D36712
:1021F0001F20042215F07EFA012008BD2C4A4A490E
:1022000093671E20042215F075FA012008BD284AA4
:10221000464953671D20042215F06CFA012008BDC1
:10222000234A434913671C20042215F063FA012056
:1022300008BD1F4A3F49D3661B20042215F05AFAF5
:10224000012008BD1A4A3C4993661A20042215F061
:1022500051FA012008BD164A384953661920042254
:1022600015F048FA012008BD114A354913661820B7
:10227000042215F03FFA012008BD0D4A3149D3650B
:102280001720042215F036FA012008BD084A2E490D
:1022900093651620042215F02DFA012008BD044A8A
:1022A0002A4953651520042215F024FA012008BD9F
:1022B00048120020111E00001D170000911600009A
:1022C0000516000079150000ED14000061140000EF
:1022D000D513000049130000BD12000031120000A8
:1022E000A5110000191100008D1000000110000060
:1022F000750F0000E90E00005D0E0000D10D00001A
:10230000450D0000B90C00002D0C0000A10B0000D1
:10231000150B0000890A0000FD090000710900008A
:10232000E508000059080000CD0700004107000043
:10233000B506000029060000251E0000351E00001D
:10234000451E0000551E0000651E0000751E0000A1
:102350005F4A604913651420042215F0CBF901206F
:1023600008BD5B4A5C49D3641320042215F0C2F90E
:10237000012008BD564A594993641220042215F0E1
:10238000B9F9012008BD524A55495364112004226D
:1023900015F0B0F9012008BD4D4A524913641020D0
:1023A000042215F0A7F9012008BD494A4E49D3631C
:1023B0000F20042215F09EF9012008BD444A4B4924
:1023C00093630E20042215F095F9012008BD404AC0
:1023D000474953630D20042215F08CF9012008BDF4
:1023E0003B4A444913630C20042215F083F9012071
:1023F00008BD374A4049D3620B20042215F07AF910
:10240000012008BD324A3D4993620A20042215F09A
:1024100071F9012008BD2E4A39495362092004226E
:1024200015F068F9012008BD294A364913620820D1
:10243000042215F05FF9012008BD254A3249D36115
:102440000720042215F056F9012008BD204A2F4923
:1024500093610620042215F04DF9012008BD1C4AA5
:102460002B4953610520042215F044F9012008BDD1
:10247000174A284913610422104615F03BF9012040
:1024800008BD134A2449D3600320042215F032F911
:10249000012008BD0E4A214993600220042215F054
:1024A00029F9012008BD0A4A1D4953600120042270
:1024B00015F020F9012008BD054A1A4913600020D3
:1024C000042215F017F9012008BD002008BD00BF47
:1024D00048120020851E0000951E0000A51E000069
:1024E000951C0000091C00007D1B0000F11A000073
:1024F000651A0000D91900004D190000B51E000032
:10250000C51E0000D51E0000E51E0000F51E0000DF
:10251000051F0000151F0000251F0000C118000046
:1025200035180000A9170000024B1B68DB6F1B6BFE
:102530001B6970470869FF1F2DE9F0411D4B1D689D
:10254000854282B016468CB219D005B2C4F590739C
:102550000022294600921BB20A2217480EF0C0F949
:10256000164B15481B880093C4F59572A31B1BB22C
:1025700012B229460EF0B4F902B0BDE8F081C4F5FC
:1025800095772DB23FB24FF478483B462946CDF8B7
:1025900000800A2208480EF0A3F9A31B3A461BB29A
:1025A000CDF80080294604480EF09AF902B0BDE843
:1025B000F08100BFF807FF1F14ABFF1F3408FF1F97
:1025C0002DE9F043364F374E3868374D83B01AF057
:1025D000ABF841EC100B18F087F80022334B51ECAC
:1025E000100B1AF017F91AF0EDFBA8463060002422
:1025F00031E058F824001AF097F841EC100B18F06D
:1026000073F80022294B51EC100B1AF003F91AF061
:10261000D9FB00EBC000264A3168DFF8A0E040019A
:10262000B0FBF1F1B1F5907F8ABF4FF4907111606A
:10263000116055F824203B6802EBC202520120468B
:10264000B2FBF3F31A46CEF80030FFF775FF013402
:10265000B4F5D27F20D055F82430012BC9D80023FF
:102660000FFA84F9009349464FF490730A221148F7
:102670000EF036F9104B1B68A342E8D14FF47843B3
:10268000009349464FF490730A220A4801340EF031
:1026900027F9B4F5D27FDED103B0BDE8F08300BFE7
:1026A0000C69FF1F94AEFF1F3C18FF1F000059402C
:1026B0008424FF1F14ABFF1FF807FF1FD0EEFF1F7E
:1026C00030B5104B1D68854283B00B460DD00E4AC5
:1026D000128800920446C1F595720C4821B212B2DC
:1026E0001BB20EF0FDF803B030BDC1F595724FF48A
:1026F0007840009029B212B21BB204480EF0F0F8F4
:1027000003B030BDF807FF1F5808FF1F14ABFF1FB1
:10271000F8B50B4F0B4E0C4D002457F824203368AE
:1027200002EBC20252012046B2FBF3F30134194618
:102730002B60FFF7C5FFB4F5D27FEED1F8BD00BF27
:102740003C18FF1F0C69FF1F8424FF1F00B50748BA
:1027500083B0B0F92020B0F91E300092002201921F
:1027600011460EF061FB03B05DF804FB14ABFF1FD4
:10277000DFF878C000232DE9F0411A4FCCF8003083
:102780001A4647F823200133B3F5007FF9D1164EDE
:102790004FF0000E01F1FF38002921DDB0F5805F18
:1027A0001EDA034608EB0005002202E0B3F5805F65
:1027B00006D056F82340AB42224403F10103F5D181
:1027C0000844B0F5805F47F82E2004DA0EF1010EC0
:1027D000BEF5007FE0D10023CCF80030BDE8F081E9
:1027E0000022EDE73C18FF1FCC24FF1F8424FF1FAD
:1027F00000234048194640F823100133B3F5805FA9
:102800004FF00002F7D13C4B3C483D49F0B43D4FFE
:102810001A603D4B02700A603A603C4E3C4D3D4CA4
:102820003D483E493E4F1A603E4B32602A6022606E
:1028300002600A603A603C4E3C4D3D4C3D483E498A
:102840003E4F1A603E4B32602A60226002600A608E
:102850003A603C4E3C4D3D4C3D483E493E4F1A602F
:102860003E4B32602A60226002600A603C4E3D4D61
:102870003D4C3E483E493A603E4F1A603C230B6057
:1028800032602A603C4E3D4D226002603C4C3B6011
:102890003C483D4F3D4933602B60236003603B6003
:1028A0003B4E3C4D3C4C3D483D4F0B603D493360F9
:1028B0002B60236003603C4E3C4D3D4C3D483E4BFD
:1028C0003A70B4270F603D493D4F32702A703D4E3B
:1028D0003D4D227002703D4C1A703D483D4B0A70D0
:1028E00000213A7032702A70227002701960F0BCB8
:1028F000704700BFCC24FF1FD8EEFF1F0468FF1FE6
:1029000010ABFF1FB0EEFF1FC0EEFF1F2868FF1FB8
:10291000B4EEFF1FB8EEFF1FBCEEFF1FC4EEFF1F9B
:10292000C8EEFF1FA021FF1FCCEEFF1F9421FF1F49
:102930009821FF1F9C21FF1FA421FF1FA017FF1F2D
:102940002021FF1F1021FF1F1421FF1F1821FF1F2F
:102950004821FF1F2421FF1F2821FF1F4021FF1FA7
:102960003021FF1F3421FF1F3821FF1F3C21FF1F93
:10297000B008FF1FAC08FF1FA808FF1FA408FF1F17
:10298000A008FF1F0009FF1FF808FF1FFC08FF1F1A
:10299000F408FF1FF008FF1FEC08FF1FE808FF1FE7
:1029A0001969FF1F0C09FF1F2C21FF1F2018FF1F93
:1029B0000C21FF1F3C20FF1F1C21FF1F2468FF1F4D
:1029C0002C68FF1F3418FF1FC1ADFF1F9417FF1F96
:1029D000E4AAFF1F1468FF1F394A3A483A49DFF852
:1029E000ACC10023F0B5394E394D1360394C3A4A29
:1029F00033602B6003600B60384F394E394D3A48D5
:102A00003A49236013603A4C3A4A3B6033602B608A
:102A100003600B60384F394E394D3A483A492360CC
:102A200013603A4C3A4A3B6033602B6003600B60A2
:102A3000384F394E394D3A483A49236013603A4C81
:102A40003B603C2233600A60384F394E2B60036094
:102A5000384D39483949DFF838E12260384C3A605E
:102A60003260384F384ECCF80030CEF800302A6053
:102A700002600B70354D364836492260364C3A605C
:102A800032602A6002600A60344F354E354D364858
:102A9000364A37492370374C3B7033702B700370C4
:102AA0001370354F354E364D3648374A0B7023700C
:102AB0000021B4243B7033702B7004601160F0BDB2
:102AC000C0EEFF1FBCEEFF1FC4EEFF1FB4EEFF1FE2
:102AD000B8EEFF1FC8EEFF1FA021FF1FCCEEFF1FA7
:102AE0009421FF1F9821FF1F9C21FF1FA421FF1F7E
:102AF000A017FF1F2021FF1F1021FF1F1421FF1F00
:102B00001821FF1F4821FF1F2421FF1F2821FF1F1D
:102B10004021FF1F3021FF1F3421FF1F3821FF1FDD
:102B20003C21FF1FB008FF1FAC08FF1FA808FF1FB4
:102B3000A408FF1FA008FF1F0009FF1F1969FF1F3E
:102B4000FC08FF1FF808FF1FF408FF1FF008FF1F15
:102B5000EC08FF1FE808FF1F2C21FF1F2018FF1F94
:102B60000C21FF1F3C20FF1F1C21FF1F2468FF1F9B
:102B70002C68FF1F3418FF1FC1ADFF1F9417FF1FE4
:102B8000E4AAFF1F0C09FF1F1468FF1FB0EEFF1F10
:102B90002868FF1F544A554BD2ED007AD3ED006AE6
:102BA000534B27EEA76A66EEA63AD3ED004A76EEBF
:102BB000632A64EEA40A77EEE65A22EEE47A23EE64
:102BC000E74AA0EEA57A0022A6EE864A37EE047AFE
:102BD000B5EE407AF1EE10FA79D04649464A474BB5
:102BE000D2ED001A93ED001A91ED002A9FED440AF0
:102BF00025EE825A71EEC15AF1EE644A66EEA16A80
:102C000067EE817AA4EEA55A36EEE73A33EE055A1E
:102C100085EE073AB0EEC35AB4EE405AF1EE10FA20
:102C200048DCB4EE433AF1EE10FA47D6354B83ED6B
:102C3000003A26EE016A60EEA55AA3EEE16AE2EEE2
:102C4000C25ADFED2F3A75EE865A85EE875AF0EEBE
:102C5000C55AF4EE635AF1EE10FA03DD15EE103AA0
:102C6000002B2FDAB4EE455AF1EE10FA2AD6264B95
:102C700083ED005A77EEE67ADFED215A67EEA07A0F
:102C8000E4EE867AE4EE027AC7EE876AF0EEE67A40
:102C9000F4EE657AF1EE10FA03DD16EE903A002BB1
:102CA0001EDAF4EE666AF1EE10FA19D6174BC3ED90
:102CB000006A704713EE103A002BB2DB114B002272
:102CC0001A60B6E7104B4FF07E521A60D2E70D48FB
:102CD0000D490E4B02604FF07E5008601A6070473D
:102CE0000A4B00221A6070473009FF1FC008FF1FFF
:102CF0002C09FF1FC408FF1F8C08FF1F9008FF1F2F
:102D0000FFFF7F7F2068FF1F2C08FF1F1818FF1F81
:102D100030B583B001AD0424204614F099F9013494
:102D2000082C05F8010BF7D1124A134B92ED007AEB
:102D30009DED016AD3ED006A104A114B92ED005AE5
:102D4000D3ED005A66EE077A26EE267AF7EE006A91
:102D5000E6EE077A77EE857A77EEE57AF0EEE77AB7
:102D6000F4EEE67AF1EE10FA94BF01204FF0FF3056
:102D700003B030BD2C08FF1F2068FF1F1818FF1F6D
:102D80008C08FF1F38B51B4C237C012B2CD972B645
:102D9000184DE36862B61849184A086813609842EB
:102DA00021D0002B164816DB0068B3EB800F05DD41
:102DB0000023136072B6E36062B61368114C0B60B7
:102DC000002B1A46B8BFDA1C921022603220BDE8F0
:102DD000384014F0A7BF03689B00136072B6EB6025
:102DE00062B61368E0E738BD72B62046FEF7CEFF44
:102DF000CEE700BFF417FF1FDC07FF1F9817FF1F68
:102E00001C18FF1FE8EEFF1F2DE9F04785B28CB2BA
:102E100084B02E4E04F1210305F114024FF4784ED4
:102E200007B212B218B2A5F11403CDF80CE001926A
:102E300002900AB20090394630461BB2A5F1020951
:102E40000FF01CFD4FF6FF780FFA89F904F1090223
:102E50000E23494630468DE8080112B205230DF0D5
:102E6000E3FF04F1FF3A0523494604F11A02A5F1F4
:102E70001509223424B2304600930FFA8AFA0FFA69
:102E800089F9CDF8048012B215350DF0CDFF2DB2C1
:102E900052464B46394630468DE8100112F0A4F8F0
:102EA000524639462B4630460094CDF8048012F045
:102EB0009BF800944B4622462946CDF804803046C4
:102EC00012F092F804B0BDE8F08700BF14ABFF1F0A
:102ED0002DE9F0438DB2264E05F1020885B04CF283
:102EE00018690FFA88F8052384B242468DE8080273
:102EF0000F46042301B230460DF096FFA31D05F1E5
:102F000008001BB23FB200B2EA1CA11C009701935B
:102F10000290CDF80C90304612B209B204F10807C5
:102F20000FF0ACFC3FB24FF0000E6A1C07231234C6
:102F300006358DE808403946304624B22DB212B22B
:102F40000D230DF071FF23464246394630468DE889
:102F5000200212F049F8CDF8008023462A4639466F
:102F6000CDF80490304612F03FF805B0BDE8F0838C
:102F700014ABFF1F2DE9F04F8DB2354E05F1020A5B
:102F800085B04CF218670FFA8AFA052384B2884696
:102F9000524601B28DE88800304604230DF044FF0C
:102FA000A31D05F1080205F1030E0FFA88F01BB20C
:102FB00012B2A11C00900193029230460FFA8EF2D9
:102FC000039709B204F1080B0FF058FC0FFA8BFBC2
:102FD0004FF0000E6A1C072304F10D0805F10409E7
:102FE0008DE808400FFA88F80FFA89F959463046FB
:102FF00012B20D2306350DF017FF2DB25246594679
:10300000434630460197CDF80090123411F0ECFFA2
:1030100024B2594643462A463046CDF800900197DF
:1030200011F0E2FF5246234641463046CDF800906B
:10303000019711F0D9FFCDF8009023462A4641466A
:103040000197304611F0D0FF05B0BDE8F08F00BF0A
:1030500014ABFF1F2DE9F04F8DB2364E05F102097A
:1030600085B00FFA89F94CF21868052384B28DE80F
:1030700008014A460F46042301B230460DF0D4FE43
:10308000A31D05F108001BB23FB200B2EA1CA11C4F
:103090000097CDF80C800193029012B2304609B22D
:1030A0000FF0ECFB04F1080B002707230FFA8BFB52
:1030B0008DE888006A1C04F10D0705F104083FB291
:1030C0000FFA88F840F2FF7A5946304612B20D23C3
:1030D00006350DF0A9FE2DB24A4659463B4630460C
:1030E000CDF80080CDF804A0123411F07DFF24B299
:1030F00059463B462A463046CDF80080CDF804A01C
:1031000011F072FF4A46234639463046CDF800801A
:10311000CDF804A011F068FFCDF8008023462A46C0
:103120003946CDF804A0304611F05EFF05B0BDE889
:10313000F08F00BF14ABFF1F2DE9F04F504B1B78F1
:1031400083B0002B48D1002A00F08F80002A40DD98
:103150008FB285B207F10A0B96B20FFA80FA0CB261
:103160000FFA8BFB07F1030905F105080FFA88F840
:1031700022460FFA89F95346514642480196CDF846
:1031800000B0073711F030FF3FB2224643465146A8
:103190003C480196CDF800906C1F11F025FF24B239
:1031A0005A465146434637480097019611F01CFF96
:1031B00023463A4641463348CDF80090019611F037
:1031C00013FF009723464A46414601962D4811F0C9
:1031D0000BFF03B0BDE8F08F002AB7D18EB206F125
:1031E0000A0A0CB20FFA8AFA0FFA80F940F2FF7855
:1031F00085B26F1D06F1030B3FB20FFA8BFB22461F
:103200004B464946CDF800A0CDF804801D4807364E
:1032100011F0EAFE36B222463B464946CDF804801C
:10322000CDF800B01748053D11F0DEFE2DB2524634
:1032300049463B468DE84001124811F0D5FE2B4629
:1032400032463946CDF800B0CDF804800D4811F073
:10325000CBFE00962B465A463946CDF804800948E5
:1032600011F0C2FE03B0BDE8F08F8EB206F10A0A7B
:103270000CB20FFA8AFA0FFA80F947F6EF38B7E77F
:103280002C18FF1F14ABFF1F2DE9F04F3A4B85B2EE
:103290001B7805F10A0785B00A4604B23FB20FFA5F
:1032A00081FA002B64D14FF4404692B23B4621464E
:1032B0000292CDF800A052460196304811F094FEDB
:1032C000029B019603F10A080FFA88F83B46424632
:1032D0002146CDF80080294811F086FE029901961A
:1032E00001F105090FFA89F9EB1C05F1010B043511
:1032F0001BB2524621460FFA8BFB2DB2CDF800903F
:103300001E48039311F070FE2B4659465246CDF8E5
:1033100000900196194811F067FE0399CDF80080DE
:1033200023464A460196154811F05EFE5B464A4622
:103330002946CDF800800196104811F055FE029CF8
:103340000196A01C00B252463B46394600900B48FD
:1033500011F04AFE04F108031BB28DE84800424612
:103360003B463946054811F03FFE05B0BDE8F08FF9
:1033700040F2FF7699E700BF3868FF1F14ABFF1FCC
:103380002DE9F0478DB282B0374E05F1040905F101
:10339000110197B20FFA89F903B209B284B24A4611
:1033A000009130461946019711F01EFE631C05F18D
:1033B00010001BB200B219464A46009001973046F1
:1033C00011F012FE05F10E0804F108030FFA88F857
:1033D0001BB219464A46CDF800803046019711F0DD
:1033E00003FE04F109031BB2CDF800804A461946DA
:1033F0003046019711F0F8FD04F1020904F1040AC6
:1034000005F10D020FFA89F90FFA8AFA12B249464C
:10341000534600923046019711F0E6FD5346494667
:10342000CDF8008042463046019711F0DDFD04F1F1
:10343000050805F10C0207340FFA88F824B212B21D
:103440002346414600923046019711F0CDFD05F12B
:103450000B0212B2234641468DE88400304611F03B
:10346000C3FD02B0BDE8F08714ABFF1F10B513F029
:1034700049F8092827DC324C303030236070237043
:1034800013F050F8092831DC30303023E070A3709D
:1034900013F008F809283BDC3030302360712371C9
:1034A00013F010F8092845DD264BC21783FB0013E3
:1034B000C2EBA30303EB8302A0EB420030303033B6
:1034C000E071A37110BD1F4B1D4C83FB0032C3176D
:1034D000C3EBA20303EB8302A0EB42003030303396
:1034E0006070237013F01EF80928CDDD154BC2174C
:1034F00083FB0013C2EBA30303EB8302A0EB4200A8
:1035000030303033E070A37012F0CCFF0928C3DDF7
:103510000C4BC21783FB0013C2EBA30303EB830224
:10352000A0EB4200303030336071237112F0CAFFDB
:103530000928B9DC30303023E071A37110BD00BF21
:10354000E807FF1F676666662DE9F0432F4E0023EC
:1035500089B00746336008E033686846013333605A
:1035600009F000FE684609F0F1FD6846012239467F
:1035700009F0F4FF684609F003FE0028ECD1384654
:103580000AF046F8684609F0E1FD3568B5F1FE6FCE
:1035900039D94FF0FF3016F07FFE102380E8280065
:1035A00000F108096C1E4DB14D462846013C002132
:1035B00016F0F8FC631C05F11005F6D13368DFF84E
:1035C0005080002BC8F800901ADD002401223946F3
:1035D000684609F0C3FFD8F80030684603EB0415CD
:1035E00009F0B6FD0146284616F090FD684609F040
:1035F000B9FD684609F0AAFD33680134A342E5DC51
:1036000009B0BDE8F08328010830C4E79CAEFF1F75
:1036100068EFFF1F08B5C8224FF4DC71112016F0C7
:10362000DDFBDC2014F07EFBC8224FF4DC7111209E
:1036300016F0D4FBDC2014F075FB1120C8224FF4E7
:10364000DC7116F0CBFBDC20BDE8084014F06ABB4F
:1036500070B594B00CA801234F4A504909F0EEFE12
:103660000CA809F08DFD20B90CA809F06FFD14B06D
:1036700070BD68464A494B4E16F094FC0CA809F000
:10368000D1FC90B10CA809F0EBFCC3B2392B194660
:10369000684606D80A2B13D016F07AFD029B202B21
:1036A000ECD9FFF7B7FFFFF7A3F80CA809F05AFD14
:1036B000684616F037FC0CA809F048FD14B070BD40
:1036C0002C21684616F0A4FD05466C1C03464FF0FD
:1036D0000002694604A8334CE3D016F0A9FD6A1C29
:1036E000029B694608A816F0A3FD04A816F0C4FDC5
:1036F000054608A816F0C0FD294946F82500684689
:1037000016F004FD08A816F00DFC04A816F00AFC3B
:1037100040F6FF739D42B1D1234B20681860002210
:103720001346226054F823100133B3F5805F0A4436
:10373000F8D140BB1D4B18601D4B1E4A186811681C
:103740001D4CFFF715F81D4800232360264605464B
:1037500050F823102268914284BF55F8232032602C
:103760000133B3F5007FF3D12368012B01D9FEF7B4
:1037700027FF236863B94FF47A7014F0D3FA0CA8CA
:1037800009F0F0FC91E7094BB2FBF0F21A60D3E7C5
:10379000FEF7BEFFEFE700BFE807FF1F8C0F00201A
:1037A000B4C40400CC24FF1FD8EEFF1F2418FF1F51
:1037B0007C24FF1F9408FF1F0C69FF1F3C18FF1F8C
:1037C00030B595B00CA80123324A334909F036FED2
:1037D0000CA809F0D5FC20B90CA809F0B7FC15B06D
:1037E00030BD68462D492E4D16F0DCFB0CA809F0C3
:1037F00019FC80B10CA809F033FCC3B2392B19466F
:10380000684606D80A2B11D016F0C2FC029B202B6A
:10381000ECD9FFF7FFFE0CA809F0A4FC684616F0EF
:1038200081FB0CA809F092FC15B030BD2C21684634
:1038300016F0EEFC0446B4F1FF3F03464FF00002E1
:10384000694604A8E5D016F0F3FC621C029B6946A9
:1038500008A816F0EDFC04A816F00EFD044608A812
:1038600016F00AFD0D4945F82400684616F04EFC96
:1038700008A816F057FB04A816F054FB40F6FF7397
:103880009C42B3D14FF47A7014F04CFA0CA809F0B2
:1038900069FCC0E7C83804008C0F0020B4C40400E1
:1038A000F469FF1F2DE9F0412DED028B98B008A8B7
:1038B00009F03EFCAE49AF4809F034FE002840F064
:1038C000BD81AD49AB4809F02DFE002840F01E81B6
:1038D000AA49A84809F026FE002840F09380A8498C
:1038E000A44809F01FFE50B908A809F03BFC08A83D
:1038F00009F02CFC18B0BDEC028BBDE8F08110ADD6
:1039000001239F4A9B49284609F098FD9DF84410E1
:10391000129A9DF84C308DF824100A928DF82C30B4
:1039200013A90DF12D020DF13A0311F8010F02F860
:10393000010B9A42F9D1179B0F93284609F006FC18
:1039400008A809F01DFC0028CED068468D49DFED9F
:103950008E8ADFF838826C4616F024FB002608E0D9
:1039600016F016FC029B202B00F20F82322E00F084
:10397000E48108A809F056FB002800F0E18108A8BE
:1039800009F06EFBC3B2392B1946204600F2FD81C7
:103990000A2BE5D12E21204616F03AFC0746B7F156
:1039A000FF3F0346214604A84FF0000200F0ED81DE
:1039B00016F03EFC7A1C029B2146284616F038FC85
:1039C00004A816F059FC08EE100A284616F054FC1C
:1039D00007EE900AB8EEE77AB8EEC88AC7EE287A02
:1039E00008EB860367492046013677EE887AC3EDF7
:1039F000007A16F08BFB284616F094FA04A816F00D
:103A000091FAB3E710AD01235C4A5A49284609F000
:103A100015FD9DF84410129A9DF84C308DF8241035
:103A20000A928DF82C3013A90DF12D020DF13A03F5
:103A300011F8010F02F8010B9A42F9D1179B0F936D
:103A4000284609F083FB08A809F09AFB00283FF4F8
:103A500046AF68464B49DFED4C8ADFF834816C464F
:103A600016F0A0FA002608E016F092FB029B202B2D
:103A700000F29181322E00F06A8108A809F0D2FA92
:103A8000002800F0678108A809F0EAFAC3B2392BD0
:103A90001946204600F27F810A2BE5D12E212046CF
:103AA00016F0B6FB0746B7F1FF3F0346214604A8D0
:103AB0004FF0000200F06F8116F0BAFB7A1C029BF7
:103AC0002146284616F0B4FB04A816F0D5FB08EEF4
:103AD000100A284616F0D0FB07EE900AB8EEE77AF7
:103AE000B8EEC88AC7EE287A08EB86032549204637
:103AF000013677EE887AC3ED007A16F007FB284688
:103B000016F010FA04A816F00DFAB3E710AD012371
:103B1000194A1849284609F091FC9DF84410129A58
:103B20009DF84C308DF824100A928DF82C3013A992
:103B30000DF12D020DF13A0311F8010F02F8010BFE
:103B40009A42F9D1179B0F93284609F0FFFA08A86B
:103B500009F016FB00283FF4BBAE68460949DFEDCB
:103B60000A8ADFF830806C4616F01CFA00261CE04A
:103B70000808FF1F8C0F00204808FF1F6808FF1F60
:103B80003808FF1FB4C40400286B6E4E4068FF1F46
:103B90001C69FF1F4020FF1F16F0FAFA029B202B22
:103BA00000F2FC80322E00F0DC8008A809F03AFA1E
:103BB000002800F0D98008A809F052FAC3B2392BC6
:103BC0001946204600F2EA800A2BE5D12E21204634
:103BD00016F01EFB0746B7F1FF3F0346214604A837
:103BE0004FF0000200F0DA8016F022FB7A1C029BF4
:103BF0002146284616F01CFB04A816F03DFB08EEF3
:103C0000100A284616F038FB07EE900AB8EEE77A5D
:103C1000B8EEC88AC7EE287A08EB860361492046C9
:103C2000013677EE887AC3ED007A16F06FFA2846EF
:103C300016F078F904A816F075F9B3E710AD012372
:103C4000594A5A49284609F0F9FB9DF84410129A3E
:103C50009DF84C308DF824100A928DF82C3013A961
:103C60000DF12D020DF13A0311F8010F02F8010BCD
:103C70009A42F9D1179B0F93284609F067FA08A8D2
:103C800009F07EFA00283FF41CAE68464549DFED96
:103C9000488ADFF820816C4616F084F9002606E099
:103CA00016F076FA029B202B72D8322E63D008A829
:103CB00009F0B8F9002861D008A809F0D1F9C3B219
:103CC000392B1946204663D80A2BE9D12E212046EC
:103CD00016F09EFA0746B7F1FF3F0346214604A8B7
:103CE0004FF0000254D016F0A3FA7A1C029B214632
:103CF000284616F09DFA04A816F0BEFA08EE100A3F
:103D0000284616F0B9FA07EE900AB8EEE77AB8EE50
:103D1000C88AC7EE287A08EB860322492046013676
:103D200077EE887AC3ED007A16F0F0F9284616F09F
:103D3000F9F804A816F0F6F8B7E708A809F012FA9F
:103D400008A809F00FFA204616F0ECF8CCE508A810
:103D500009F008FA08A809F005FA204616F0E2F87A
:103D6000BDE508A809F0FEF908A809F0FBF920460E
:103D700016F0D8F8ACE508A809F0F4F908A809F09D
:103D8000F1F9204616F0CEF89BE5FFF743FCD7E7A4
:103D9000FFF740FCF2E7FFF73DFCDBE7FFF73AFCFB
:103DA000E2E700BFB4C404000808FF1F8C0F002026
:103DB000286B6E4ECCADFF1FDB48DC4ADC4BDD4987
:103DC000D0ED004AD2ED006A93ED006ADA489FED2B
:103DD000DB4A91ED007A2DE9F043D94ED94DDA4C0A
:103DE000012740F6E77107EE907AB8EEE75A1923FB
:103DF00035EE045A03E001338B4200F08C8107EE6C
:103E0000903A03FB03F2F8EEE77A05EE902A67EEAC
:103E1000877AF8EEE55AE5EEA67A77EE867A74EEC2
:103E2000E77AF0EEE77AB4EEE75AF1EE10FAE2DB69
:103E300001370B2F3BD17A230121C44ADFF828E355
:103E4000D2ED004A9FEDBD4ACEF800304FF0010898
:103E500040F6E77C07EE908AB8EEE75A192235EE75
:103E6000045A03E00132624500F0588107EE902ABF
:103E700002FB02F7F8EEE77A05EE907A67EE877AB2
:103E8000F8EEE55AE5EEA67A77EE867A74EEE77AF2
:103E9000F0EEE77AB4EEE75AF1EE10FAE2DB08F161
:103EA0000108B8F10B0F06D0571CD3D006E05A1CFE
:103EB00099D00021C1E740F26E220121A44FDFF822
:103EC000ACC2D7ED004A9FED9D4ACCF800204FF0E0
:103ED00000094FF0010840F6E77C07EE908AB8EE43
:103EE000E75A192235EE045A03E00132624500F028
:103EF000188107EE902A02FB02F7F8EEE77A05EE4A
:103F0000907A67EE877AF8EEE55AE5EEA67A77EED4
:103F1000867A74EEE77AF0EEE77AB4EEE75AF1EEDD
:103F200010FAE2DB08F10108B8F10A0F04DD4FF0E6
:103F30000109494640F23453571CCED0854F3A60B0
:103F4000B9F1000F40F017819FED7C4ADFED824A06
:103F50004FF0010E40F6E77707EE90EAB8EEE75A29
:103F6000192335EE045A03E00133BB4200F000810F
:103F700007EE903A03FB03F2F8EEE77A05EE902A9B
:103F800067EE877AF8EEE55AE5EEA67A77EE867A5E
:103F900074EEE77AF0EEE77AB4EEE75AF1EE10FA53
:103FA000E2DB0EF1010EBEF10B0F02D05A1CD3D092
:103FB00002E04FF43E7301219FED604ADFED674A56
:103FC0003360012740F6E77607EE907AB8EEE75ABD
:103FD000192335EE045A03E00133B34200F0958013
:103FE00007EE903A03FB03F2F8EEE77A05EE902A2B
:103FF00067EE877AF8EEE55AE5EEA67A77EE867AEE
:1040000074EEE77AF0EEE77AB4EEE75AF1EE10FAE2
:10401000E2DB01370B2F02D05A1CD5D001E09023F0
:1040200001219FED464ADFED4E4A2B60012640F606
:10403000E77507EE906AB8EEE75A192335EE045A91
:1040400002E00133AB4263D007EE903A03FB03F288
:10405000F8EEE77A05EE902A67EE877AF8EEE55AF1
:10406000E5EEA67A77EE867A74EEE77AF0EEE77AF6
:10407000B4EEE75AF1EE10FAE3DB01360B2E02D074
:104080005F1CD6D002E04FF47F7301219FED2B4AD5
:10409000DFED344A2360012540F6E77407EE905ABD
:1040A000B8EEE75A192335EE045A02E00133A34271
:1040B00028D007EE903A03FB03F2F8EEE77A05EE1C
:1040C000902A67EE877AF8EEE55AE5EEA67A77EE63
:1040D000867A74EEE77AF0EEE77AB4EEE75AF1EE1C
:1040E00010FAE3DB01350B2D05D05A1CD6D0036046
:1040F00021B9BDE8F0834FF4FE730360BDE8F043DF
:10410000FFF788BA4FF0FF33ECE74FF0FF3380E75B
:104110004FF0FF33B1E74FF0FF3389E64FF0FF3246
:10412000BDE64FF0FF32FDE6FC07FF1F2068FF1FD2
:104130001818FF1F2C08FF1F8808FF1F0000000031
:104140008008FF1FD408FF1F8408FF1F0008FF1FFF
:104150000408FF1F1068FF1F00003E4400001043CA
:1041600000007F440000FE430868FF1F0C68FF1F2B
:104170004FF0FF3315E7CEF80030E5E608B56422CE
:104180004FF45C71112015F029FE652013F0CAFD73
:10419000642240F21741112015F020FE652013F033
:1041A000C1FD1120642240F2275115F017FE652051
:1041B000BDE8084013F0B6BD08B5C82240F227514B
:1041C000112015F00BFEC92013F0ACFD1120DC22EC
:1041D00040F2174115F002FEDD20BDE8084013F063
:1041E000A1BD00BF70B594B0FFF740F9394B3A4814
:1041F00018603A4A3A490CA8132309F01FF90CA891
:1042000008F0BEFF20B90CA808F0A0FF14B070BDE4
:104210003449354E08A815F0C5FE344A3449354BAB
:1042200012681B68096804A801FB02310A2215F014
:10423000FFFE04A908A815F0BBFF01462E4815F0A3
:1042400055FF04A815F06EFE08A815F06BFE2A496C
:104250000CA815F095FB0CA815F0B8FB01240A2258
:104260002146684615F0D0FE694604A815F0AEFE5A
:10427000224904A815F0A4FF0A2256F82410054686
:1042800008A815F0E9FE08A9284615F091FF014697
:10429000194815F02BFF08A815F044FE04A815F0E6
:1042A00041FE684615F03EFE13490CA815F068FB68
:1042B00001340CA815F08AFBB4F5805FCFD1FFF76D
:1042C0007BFF0CA808F04EFF0CA808F03FFF14B0CD
:1042D00070BD00BFF80F0020B5040000E807FF1F05
:1042E0008C0F0020D8380400CC24FF1F10ABFF1F18
:1042F0001C09FF1FD8EEFF1FB024FF1FDC3804008D
:10430000F8B51248124F00253D602C4629462B4631
:10431000064650F823208A4203D956F82340012547
:1043200021460133B3F5805FF3D165B9094B99425A
:1043300008D9094C01232370FFF754FFFEF758FA00
:1043400000232370F8BD3C60F0E700BFCC24FF1FC2
:104350008024FF1F809698000468FF1F70B52B49CA
:104360002B4894B009F0DEF8002849D1294B2A489F
:104370001860264A26490CA8132309F05FF80CA8F8
:1043800008F0FEFE002836D0244E00240A222146E2
:10439000684615F039FE694604A815F017FE204955
:1043A00004A815F00DFF0A2256F82410054608A8A7
:1043B00015F052FE08A9284615F0FAFE01461948E4
:1043C00015F094FE08A815F0ADFD04A815F0AAFD9F
:1043D000684615F0A7FD13490CA815F0D1FA013471
:1043E0000CA815F0F3FAB4F5805FCFD1FFF7E4FE27
:1043F0000CA808F0B7FE0CA808F0A8FE14B070BD19
:104400000249034809F09CF8B0E700BFC83804002F
:104410008C0F0020F80F0020B5040000CC24FF1FF3
:10442000DC380400B024FF1F38B5352444F6B0252D
:104430000121112013F05CFC2B46013BFDD1002132
:10444000112013F055FC2B46013BFDD1013CEFD16F
:10445000412443F638350121112013F049FC2B4645
:10446000013BFDD10021112013F042FC2B46013B02
:10447000FDD1013CEFD1352444F6B02501211120B6
:1044800013F036FC2B46013BFDD10021112013F027
:104490002FFC2B46013BFDD1013CEFD138BD00BFC5
:1044A0002DE9F0472DED028B642082B0D34D13F03F
:1044B00039FC00242E46204612F0CAFD0134042C9B
:1044C00006F8010BF7D1CE4E3746204612F0C0FD5C
:1044D0000134082C07F8010BF7D1CA4FB846204623
:1044E00012F0B6FD01340C2C08F8010BF7D1D5ED14
:1044F000007AC24BF4EE677AD6ED007AF1EE10FA4C
:1045000064BFC14A1A60F4EE677A6CBF4FF00108CD
:104510004FF00008F1EE10FAB94B80F18082D7ED30
:10452000007AB84BF4EE677AF1EE10FA80F17C82F3
:10453000DFF8D8A22424D146204612F089FD0134A8
:10454000282C09F8010BF7D19AED008AAF4BB4EE95
:10455000488AF1EE10FA80F15B82DFEDAD7AB4EEBD
:10456000E78AF1EE10FA40F31182F2EE047AB0EE2F
:10457000678ACAED007ADFF89CA22924D14620463A
:1045800012F066FD01342D2C09F8010BF7D1DAED9C
:10459000007AA04BF4EE677AF1EE10FA80F14982CE
:1045A0009FED9D7AF4EEC77AF1EE10FA40F3E581C3
:1045B0009FED9A7AF0EE477A8AED007AB0EE007AB3
:1045C000F0EE086AB0EE676AA8EE076A944B954A67
:1045D000E8EE267A282082ED006AC3ED007A12F018
:1045E00037FD914B002840F09B811870192012F084
:1045F0002FFD08288D4C00F39C812060002800F0DE
:10460000A5811F2012F024FD642300FB0330884A9B
:1046100044F620639842106000F2CD81DFF814A2C6
:104620001A24D146204612F013FD01341E2C09F83D
:10463000010BF7D1DAED007A7E4BF4EE677AF1EEFA
:1046400010FA80F1FD81DFF8F0A12024D146204648
:1046500012F0FEFC0134242C09F8010BF7D1DAED3D
:10466000007A754BF4EE677AF1EE10FA80F1CB81A7
:10467000182012F0EDFC022800F291816F4B1870A7
:104680006F4B002840F041814FF084421A606D4921
:104690006D4B6E486E4A08601A60D5ED007AF5EEF3
:1046A000C07AF1EE10FA40F200819FED6A7AF4EEE2
:1046B000C77AF1EE10FA00F3F880D6ED007AF5EE45
:1046C000C07AF1EE10FA40F2E1809FED627AF4EEEA
:1046D000C77AF1EE10FA00F3D980D7ED007AF5EE43
:1046E000C07AF1EE10FA7AD99FED5A7AF4EEC77AD1
:1046F000F1EE10FA73DC2D2012F0AAFC05462E20F4
:1047000012F0A6FC544E00EB05252F20356012F068
:104710009FFC0446302012F09BFC504B00EB042021
:104720008542186040F3D0800A2140F6F6723220AC
:1047300031601A6012F08CFC012840F2D780002111
:10474000322012F09FFC464B00221A70454C46491D
:10475000464B474D25604FF07C50642208601A603C
:10476000332012F075FC0446342012F071FC00EB8B
:104770000420A0F10A0246F29E139A4200F226811A
:104780003C4B186007EE900A1620B8EEE70A13F0CB
:104790001DFA7F21162013F085F8374B7F22352034
:1047A0001A6012F055FC012840F2DA800021352011
:1047B00012F068FC314C3249324B002545F21F00A3
:1047C00047F2B332257008601A60B8F1000F01D0CB
:1047D000FEF720FF02B0BDEC028BBDE8F08702A817
:1047E000294B40F8043D042208213B6012F072FC82
:1047F0000A2013F097FA4FF001087CE72C09FF1FFD
:104800003009FF1FC008FF1F0000D0423008FF1F03
:104810000000C842D807FF1F00009643000016435F
:104820004421FF1FA824FF1F3868FF1F9408FF1FA3
:104830001C09FF1FBC08FF1F9808FF1FECEEFF1F9D
:10484000C408FF1F8C08FF1F9008FF1F008025442D
:104850000080B64400F07F45E408FF1F2808FF1FD2
:10486000AC24FF1F1C08FF1F2008FF1F9C08FF1F10
:104870000000A0401009FF1FD008FF1F1869FF1F8C
:104880005808FF1F3408FF1F0080064502A8764B1A
:1048900040F8043D04221146336012F01BFC0A204C
:1048A00013F040FA4FF0010817E702A86F4B40F8E9
:1048B000043D042200212B6012F00CFC0A2013F0AE
:1048C00031FA4FF00108F8E6092DDCBF0A22326008
:1048D000B0F5805FA8BF40F6F6724FF03200A8BF77
:1048E0001A6012F0B5FB01283FF629AF604B187033
:1048F00000283FF42BAF5F4A5F486049604B10606F
:104900006048086019221A602AE7012872D05E4ABE
:104910001A605E495E4B5F485F4A08601A60BCE6F9
:10492000012219201A7012F093FB08285B4C7FF7C4
:1049300064AE082319461920236012F0A3FB0A2055
:1049400013F0F0F9206800287FF45BAE01231946CC
:104950001920236012F096FB0A2013F0E3F950E6C9
:10496000002872D14E4A4F494F4B107045F21F003C
:1049700047F2B33208601A6027E79FED4C7AF4EEF5
:10498000C77AF1EE10FA3FF513AE17E6DFED477A7E
:10499000B4EEE78AF1EE10FA3FF5E7ADEBE5002360
:1049A000434C19461820237012F06CFB0A2013F0B8
:1049B000B9F9207864E64FF4616324211F20136065
:1049C00012F060FB0A2013F0ADF927E6394C4FF4E2
:1049D0007A7303213320236012F054FB0A2013F072
:1049E000A1F92178342012F04DFB0A2013F09AF936
:1049F0002068C7E6304A1A602449254B2F48304AC0
:104A000008601A6049E62F4A1A604FF001082FE645
:104A1000B2EE048A83ED008A4FF00108ABE5124A3A
:104A20001A604FF001087AE5274A1A604FF0010832
:104A30007EE5DFED267A4FF00108C3ED007ABDE593
:104A4000234A1A604FF00108FDE501287FF4BDAE4E
:104A5000134A1449144B10704BF6BF5044F6AB2266
:104A600008601A60B1E600BF00007A440000D0423E
:104A7000AC24FF1F2008FF1FCDCCCC3E1C08FF1F1D
:104A80009C08FF1F0000E04000003A438C08FF1F15
:104A90009008FF1F004018440000DC449408FF1FEA
:104AA0001869FF1F5808FF1F3408FF1FCDCCCC3DED
:104AB000ECEEFF1F1009FF1F0000F4420000AC43A2
:104AC0000000B04400C0A844008006450000164322
:104AD00000802244174A184B92ED007AD3ED007AF9
:104AE00016491748B8EE477AF8EE677A0022C7EE03
:104AF000276AF1EE666A51F8223007EE903A50F8D4
:104B0000223007EE103AF8EE677AB8EE477AE6EE12
:104B1000877AF5EEC07AF1EE10FA56BFFCEEE77A2E
:104B2000002317EE903A41F822300132B2F5805F4F
:104B3000E1D17047D8EEFF1F1C09FF1FCC24FF1FD7
:104B4000F469FF1F40F63C739842F0B540DC6328DF
:104B50005FDC3249324A002351F8230042F8230037
:104B60000133C92BF8D12F4E00214C1C52F82100E3
:104B700052F824C02A4D8B1C01F1030E0F1D52F870
:104B80002EE052F8233052F8277000EB800000EB43
:104B90008C00384400EB4E0003EB43030344A6FBB8
:104BA0000303DB08C52C42F821302146DDD1D5F8BE
:104BB0001033C5F81433D5F81033C5F81833D5F8C9
:104BC0001033C5F81C33D5F81033C5F82033F0BDC9
:104BD000184640F63D7440F6D8661049104A002346
:104BE0009D190E4F51F8255042F823500133642B84
:104BF0000B4DF5D157F82030C5F89031652351F8A9
:104C0000240042F823000133C92B04F10104F6D13A
:104C1000A9E7A0F16406441CDFE700BFCC24FF1F16
:104C2000E064FF1F89888888F8B5074617F08CFD77
:104C300041EC100B15F0E0FD632F33DC07F10A01A6
:104C4000A7F10A03364850F8234050F821200025E8
:104C500022448B424FEA520E29460CDC07F10B042A
:104C6000064650F823208A4284BF56F823101D467A
:104C70000133A342F5D1AF424FD107EE90EAB8EE2F
:104C8000E77A07EE901AF8EE677ADFED266A87EE8C
:104C9000276AB4EEE66AF1EE10FA3ED5224B012007
:104CA0001F60F8BD51EC100B18F064F83228A8BF53
:104CB00032204400C4F16403194804F1640150F83F
:104CC000235050F821208B422A444FEA520724DC1B
:104CD000002565342946064650F823208A4284BFC1
:104CE00056F823101D460133A342F5D1642D14D18B
:104CF00007EE907AB8EEE77A07EE901AF8EE677A48
:104D0000DFED086A87EE276AB4EEE66AF1EE10FA84
:104D100003D5054B01201D60F8BD4FF0FF30F8BDF5
:104D2000E064FF1F6666663FE008FF1F2DE9F04F55
:104D30002DED028B85B017F007FD41EC100B15F03F
:104D40005BFD51EC100B18F015F8794B794D1E688E
:104D50003128A8BF31200023642E039019BF06F12B
:104D6000FF3A741C65244FF0630A1A4655F8231065
:104D70000133C82B0A44F9D1B2F5FA7FC0F0D080D4
:104D8000039B4FEA430BCBEB0A0A564540F3CE8018
:104D9000039B03FB0BF308EE103AB8EEC88A00271A
:104DA000C6EB0A0303FB03F307EE903AF8EEE77A4B
:104DB00087EE887AF1EE477A17EE900A17F0D6FC64
:104DC00041EC100B15F00CFC55F82A0007EE900A88
:104DD000F8EE677A53EC102B17EE900ACDE900231A
:104DE00017F0C4FCDDE9002317F014FD80463846B7
:104DF000894617F0BBFC02460B464046494617F071
:104E000057FB17F0FFFF0AF1010A56450746C7D1C5
:104E100004EB0B0A54457CDA039B03FB0BFB07EE08
:104E200090BAB8EEE78A4FF0000BA31B03FB03F325
:104E300007EE903AF8EEE77A87EE887AF1EE477A55
:104E400017EE900A17F092FC41EC100B15F0C8FB1E
:104E500055F8240007EE900AF8EE677A53EC102B11
:104E600017EE900ACDE9002317F080FCDDE900235E
:104E700017F0D0FC80465846894617F077FC02466A
:104E80000B464046494617F013FB17F0BBFF0134B1
:104E9000A2458346C9D107EE907AF5EE407AF1EE4D
:104EA00010FA36D007EE900AF5EE407AF1EE10FADD
:104EB0002FD007EE100A07EE907A77EEC77AF0EE61
:104EC000E77A17EE900A17F051FC044638460D4673
:104ED00017F04CFC02460B462046294617F0C4FD4D
:104EE0000022154B17F008FF98B1584617F03EFC0A
:104EF00002460B462046294617F0B6FD00220E4B0F
:104F000017F0FAFE28B1012005B0BDEC028BBDE818
:104F1000F08F4FF0FF3005B0BDEC028BBDE8F08F95
:104F2000064B00224FF0FF301A60EDE700276FE7D5
:104F3000E008FF1FE064FF1F0000D03F1468FF1F60
:104F40002DE9F0472E4F2F4D00233B60824617F08E
:104F5000FBFB8046894649EC108B55F82A6015F01A
:104F60004BFC404653EC102B494617F09FFA17F0C4
:104F700001FF49EC108B044615F03EFC404653EC13
:104F8000102B494617F094FA17F0F4FE84424FEACA
:104F9000560130DC421CD646284655F82430B34230
:104FA00003D950F82460A646710801349442F4D124
:104FB000AAF164030AF1630293421EDC0AF1640A57
:104FC000002055F8232001338A4228BF01309A453A
:104FD000F7D107EE900A9FED0C7AF8EEE77A67EECC
:104FE000877A07EE10EAB8EEC77AC7EE876AC7ED90
:104FF000006ABDE8F087D646DAE7DFED047AF0E72D
:105000001468FF1FCC24FF1F0000C84200000000EE
:10501000002A2DE9F043C0EB010898FBF2F850DDBF
:10502000DFF8B0E09FED297A294F4FF0000C08F12E
:10503000FF39B8F1000F46DD814244DB034609EB3E
:105040000006002401E0994206DB57F823509E42F7
:105050002C4403F10103F6D107EE904AF8EE677A8B
:1050600077EE877A40440EEB8C038142C3ED007AE1
:1050700003DB0CF1010C6245DBD10023B7EE007AB3
:105080000EEB8301D1ED007AF4EEC77AF1EE10FA5F
:1050900003F10103C8BF91ED007A9A42F0D107EE07
:1050A000902AB8EEE76A00230EEB8301D1ED007A77
:1050B00066EE277A0133C7EE876A9A42C1ED006A2D
:1050C000F2DCBDE8F083DFED017ACBE70000000001
:1050D000CC24FF1FF4A9FF1F70B590B004466846AA
:1050E00008F026F8601E032833D8DFE800F0B789FF
:1050F0005A027849784808F015FA18B17549764887
:1051000008F01EFA754B32221968002008ADFFF72F
:105110007FFF13236F4A7049284608F08FF99DF8E6
:1051200024100A9A9DF82C308DF8041002928DF804
:105130000C300BA90DF10D020DF11A0311F8010F3E
:1051400002F8010B9A42F9D10F9B0793284607F00A
:10515000FDFF684608F014F8D8B1614E002408AD90
:1051600006EB840393ED000A0921284614F088FF1A
:1051700029465C4814F0C2FF284614F0D3FE594972
:10518000684614F0FDFB0134684614F01FFC322C15
:10519000E6D1684607F0E6FF684607F0D7FF10B093
:1051A00070BD51494C4808F0BDF9002840F08D8091
:1051B0004E4B32221968002008ADFFF729FF132358
:1051C000494A4549284608F039F99DF824100A9AB9
:1051D0009DF82C308DF8041002928DF80C300BA93C
:1051E0000DF10D020DF11A0311F8010F02F8010B78
:1051F0009A42F9D10F9B0793284607F0A7FFA8E72B
:105200003B49354808F08EF9002859D1394B3222F4
:105210001968002008ADFFF7FBFE1323344A2E491E
:10522000284608F00BF99DF824100A9A9DF82C30B6
:105230008DF8041002928DF80C300BA90DF10D02BF
:105240000DF11A0311F8010F02F8010B9A42F9D17E
:105250000F9B0793284607F079FF7AE726491E48F7
:1052600008F060F938BB214B32221968002008ADE4
:10527000FFF7CEFE1323204A1749284608F0DEF830
:105280009DF824100A9A9DF82C308DF80410029293
:105290008DF80C300BA90DF10D020DF11A0311F868
:1052A000010F02F8010B9A42F9D10F9B0793284690
:1052B00007F04CFF4DE71049074808F041F9D2E7E5
:1052C0000B49054808F03CF9A0E70749024808F0F7
:1052D00037F96DE73808FF1F8C0F00208408FF1F87
:1052E000F4A9FF1FB024FF1F6808FF1F8008FF1FDD
:1052F0000808FF1FD408FF1F4808FF1F2DE9F043CF
:1053000001382DED068B052800F2B482DFE810F09D
:105310003100C800770134016B020600002940F318
:10532000DB82DFEDCC6ACC4CCC4AB0EE667A00234F
:1053300001E0F4EC016A02EB8300D0ED007A013366
:1053400077EEE67A9942A7EEA77AF2D1C44BD3ED75
:10535000007AF4EEC77AF1EE10FAC0F28B82BDEC5F
:10536000068BC049C04A012306200B701370BDE8AC
:10537000F083002940F3D2829FEDB64ADFF83C83E8
:10538000DFF83CC3DFF83CE3B84FB94EB94DDFED71
:10539000BA9A9FEDBA9AB14ADFF82C93F0EE448A9C
:1053A000B0EE448AB0EE440AF0EE442AF0EE440A2D
:1053B000B0EE441AF0EE441AB0EE442AB0EE443A8D
:1053C000F0EE443A00240BE0B8EC010ABCEC018A90
:1053D000FEEC018AB7EC014AB6EC019AF5EC019AB1
:1053E000A00013184844D3ED004A93ED005AD3EDC2
:1053F000005A93ED006AD3ED006A93ED007AD3ED85
:10540000007A90ED00AA74EEC04A35EE485A75EE67
:10541000E85A36EE446A76EEC96A37EE697A77EE74
:10542000CA7A0134A142E4EEA43AA5EE053AA5EE0B
:10543000A52AE6EE061AA6EEA61AE7EE070AE7EE9A
:10544000A72AC1D18E4BD3ED007AF4EEE37AF1EEC8
:1054500010FA1EDAF4EEC37AF1EE10FA19DAF4EE6D
:10546000C27AF1EE10FA14DAF4EEE17AF1EE10FA03
:105470000FDAF4EEC17AF1EE10FA0ADAF4EEE07A1D
:10548000F1EE10FA05DAF4EEE27AF1EE10FAC0F27B
:10549000F181BDEC068B734B01201870BDE8F083E1
:1054A000002940F32E82DFED6B4ADFF820C2DFF8DF
:1054B00020E2744F744E754D684ADFF81882B0EEE2
:1054C000648AB0EE640AF0EE640AB0EE641AF0EE9C
:1054D000643AB0EE642AF0EE641AF0EE642AB0EE9C
:1054E000643AB0EE644A002409E0BCEC011AFEEC18
:1054F000010AB7EC010AB6EC018AF5EC014AA000FA
:105500001318404493ED005AD3ED005A93ED006A0E
:10551000D3ED006A93ED007AD3ED007AD0ED008AE6
:1055200035EE415A75EEE05A36EE406A76EEC86ABC
:1055300037EE647A77EEE87A0134A142A5EE054AA7
:10554000A5EEA53AE6EE062AE6EEA61AA7EE072A8B
:10555000E7EEA73AC9D14E4BD3ED007AF4EEC47A08
:10556000F1EE10FAC0F29681BDEC068B3D4B0122A4
:1055700002201A70BDE8F0830029DFED366A40F39F
:10558000BD81444DDFED445A344A444EB0EE666A64
:10559000002001E0F5EC015A8300D418334494ED67
:1055A000007AD4ED007A93ED005A37EE657A77EE03
:1055B000C57AA7EE076A0130E7EEA76AB4EEE66A9D
:1055C000F1EE10FAD4BFF0EE467AF0EE667A814240
:1055D000E0D1334BC3ED007A324BD3ED007AF4EED9
:1055E000C67AF1EE10FAC0F24E81BDEC068B1D4971
:1055F0002D4A012304200B701370BDE8F0830029AD
:1056000040F36D819FED130ADFF8CC80DFF8CCC04A
:10561000DFF8CCE0254F264E264DDFED279A0F4AC6
:10562000DFF8C090F0EE405AB0EE409AF0EE408ABB
:10563000B0EE408AB0EE403AF0EE401AB0EE401ABA
:10564000F0EE400AB0EE402AF0EE402AF0EE403A8A
:10565000002455E000000000F8190200F4A9FF1F23
:105660002809FF1F1069FF1F3418FF1F24AB040017
:10567000104A0400F04604008FE3A93CAD42B63C5A
:10568000E407FF1F984404002846040080480400F3
:105690005C08FF1F5CAA0400992B213F4068FF1F94
:1056A0000809FF1F1409FF1F1C21FF1FECAB04009A
:1056B00068180200D04304005AA8A13BD816020083
:1056C000B8470400084304004020FF1F30190200BF
:1056D00094A90400CCADFF1F6045040048490400B4
:1056E000A01702001C69FF1FB8EC018AFCEC018ABC
:1056F000BEEC019AF7EC015AB6EC010AF5EC019AFE
:10570000A000131893ED004AD3ED004A93ED005A20
:10571000D3ED007A93ED006AD3ED006A93ED007A41
:1057200034EE484A74EEE84AE4EE043A4844013460
:10573000E4EEA42A35EE495AF4EEE23AA5EE052A43
:1057400077EEE55AF1EE10FAD4BFF0EE637AF0EEA0
:10575000627AE5EEA50AF4EE427A36EE406AF1EEA0
:1057600010FAC8BFF0EE427AA6EE061AF4EE670A07
:1057700076EEE96AF1EE10FA90ED006A48BFF0EEBD
:10578000607AE6EEA61AB4EE671A37EE467AF1EEC4
:1057900010FA48BFF0EE417AA7EE073AF4EE671A26
:1057A000F1EE10FA48BFF0EE617AB4EE673AF1EE2E
:1057B00010FA48BFF0EE437AA14295D15F4BC3ED9A
:1057C000007A5F4BD3ED007AF4EEE37AF1EE10FA53
:1057D00032DBBDEC068B5B495B4A012303200B7077
:1057E0001370BDE8F083002973DD584CDFED586A73
:1057F0009FED587A584A002301E0F4EC016A02EB6D
:105800008300D0ED007A013377EEE67A9942A7EE75
:10581000A77AF2D1514BD3ED007AF4EEC77AF1EECC
:1058200010FA27DBBDEC068B46494D4A01230520C3
:105830000B701370BDE8F083F4EEE27AF1EE10FA2B
:10584000C7DAF4EEC27AF1EE10FAC2DAF4EEE07AD8
:10585000F1EE10FABDDAF4EEC17AF1EE10FAB8DA30
:10586000F4EEE17AF1EE10FAB3DAF4EEC37AF1EE87
:1058700010FAAEDABDEC068B324B00224FF0FF304F
:105880001A70BDE8F083F4EEE67AF1EE10FABFF696
:10589000ACAEEFE7F4EEC37AF1EE10FABFF664AE09
:1058A000F4EEE27AF1EE10FABFF65EAEF4EEE17AD3
:1058B000F1EE10FABFF658AEF4EEC27AF1EE10FA3D
:1058C000BFF652AEF4EEE37AF1EE10FABFF64CAE4C
:1058D000D0E79FED207A9DE79FED1E7A36E59FED9C
:1058E0001D3AF0EE431AB0EE431AF0EE430AB0EE62
:1058F000432AF0EE432AF0EE433A62E7B0EE666ADE
:105900006AE6DFED143AB0EE632AF0EE631AF0EEC9
:10591000632AB0EE633AB0EE634A1CE6DFED0D2A6F
:10592000F0EE620AB0EE621AF0EE621AB0EE622A8F
:10593000B0EE623AF0EE623A84E500BF1808FF1F4D
:105940002009FF1F1069FF1F1969FF1FCCA8040061
:10595000829B853900000000F4A9FF1F6008FF1F2B
:105960002468FF1FF0B5C14B83B0196832220020B4
:10597000FFF74EFB32210220FFF7C0FC022867D060
:10598000BB4B322219680020FFF742FB3221012075
:10599000FFF7B4FC012800F0938032210320FFF7C9
:1059A000ADFC032800F0B080B24B32221968002011
:1059B000FFF72EFB32210420FFF7A0FC042801D0C2
:1059C00003B0F0BD2D25AC4B019300952B460F2263
:1059D0004FF4B971A948AA4FAA4E0BF07DFF0024DD
:1059E0000A222B468DE814004FF4B9713C22A348DB
:1059F000A54D0BF019FA234647224FF4BA719F4880
:105A00000EF03EFE4FF6FF719C480EF0A5FE9F493A
:105A10009A48FCF785F923463D2240F277119748D2
:105A20000EF02EFE4FF6FF7194480EF095FE984949
:105A30009248FCF775F99749974B9848984A0C702B
:105A400001213C7034702B600360117003B0F0BD15
:105A50002D25894B01930F222B464FF4B9718748AE
:105A600000950BF039FF00240A222B468DE8140024
:105A70004FF4B9713C2281480BF0D6F923463D2200
:105A800040F277117D480EF0FBFD4FF6FF717B4829
:105A90000EF062FE83497948FCF742F9234647221B
:105AA00040F27F1175480EF0EBFD4FF6FF71734821
:105AB0000EF052FE7C497148FCF732F903B0F0BD9C
:105AC0002D256D4B01930F222B464FF4B9716B4876
:105AD00000950BF001FF002414222B468DE81400E2
