:10000000F8FF022099010000890402004104020067
:1000100041040200410402004104020041040200C4
:10002000410402004104020041040200890402006C
:10003000890402004104020031290200352902002E
:100040008904020089040200890402008904020074
:100050008904020089040200890402008904020064
:100060008904020089040200890402008904020054
:100070008904020089040200890402008904020044
:100080008904020089040200890402008904020034
:100090008904020089040200890402008904020024
:1000A000E5FC0100F1FC0100890402008904020062
:1000B0008904020089040200890402008904020004
:1000C00089040200890402008904020089040200F4
:1000D000890402008904020089040200E12F000063
:1000E0008904020089040200890402006D62010093
:1000F00089040200890402008904020089040200C4
:10010000812B0200952B0200A92B0200BD2B0200BF
:10011000890402007918020089040200890402009F
:100120008904020089040200890402008904020093
:100130008904020089040200890402008904020083
:100140008904020089040200ED15020089040200FE
:100150008904020089040200890402008904020063
:100160008904020089040200FDFC010089040200E8
:100170008904020089040200890402008904020043
:100180008904020089040200890402008904020033
:100190008904020089040200584B4CF2205210B529
:1001A0001A804DF628121A8000BF00BF20F070F9A7
:1001B000534B4FF030621A60524A9A60524ADA60EA
:1001C000524B4FF470021A60514A136813F4807353
:1001D00004D150490B604FF4A85313604E4B1A786A
:1001E000110703D51A7842F008021A704B4B4C499C
:1001F0002A221A704B4A4C4B8B4204D252F8040FFD
:1002000043F8040BF8E7494B494900228B4202D2DC
:1002100043F8042BFAE74749474A002352F82300E2
:1002200041F823000133662BF8D1444B444A802126
:1002300003F8011B9342FBD1424B3E4A1A60424BEA
:100240008A221A70A3F5805324225A70A0221A70B1
:100250009A799207FCD59A79D406FCD43B4A9379D3
:1002600003F00C03082B394BF9D103221A714622F3
:100270005A719A799006FCD5344A9179334B4906E4
:10028000FBD5334A4FF08271116009215160202261
:100290001A709A7902F00C020C2AFAD12D4B2E4AD0
:1002A0001A602E4B2E4A1A6000225A60072243F829
:1002B000042C2C4AC3F80C2D62B620F0BFFE154B5F
:1002C0001B68DA0705D5284820F018FC274B284A78
:1002D0001A60284B1B785B0609D5244C244B2268F6
:1002E0009A4204D1204820F009FC0023236026F024
:1002F00023FF20F0D3F823F005F9FEE70E20054098
:1003000030800440823F04000100002B88ED00E0B3
:1003100010D0034014D0034002D0074000E0074053
:100320006018FF1F38920300F806FF1F6018FF1FB8
:10033000C8C400200002FF1F0000000000E400E02D
:1003400056E400E008ED00E00050064000400640A2
:100350004480044004800440C010050014E000E024
:10036000BFD40100000020209BD662621CE0034045
:10037000A5C3945A00F00740FFFFFFFFFFFFFFFFF8
:10038000FFFFFFFFFFFFFFFFFFFFFFFFFFFFFFFF7D
:10039000FFFFFFFFFFFFFFFFFFFFFFFFFFFFFFFF6D
:1003A000FFFFFFFFFFFFFFFFFFFFFFFFFFFFFFFF5D
:1003B000FFFFFFFFFFFFFFFFFFFFFFFFFFFFFFFF4D
:1003C000FFFFFFFFFFFFFFFFFFFFFFFFFFFFFFFF3D
:1003D000FFFFFFFFFFFFFFFFFFFFFFFFFFFFFFFF2D
:1003E000FFFFFFFFFFFFFFFFFFFFFFFFFFFFFFFF1D
:1003F000FFFFFFFFFFFFFFFFFFFFFFFFFFFFFFFF0D
:10040000FFFFFFFFFFFFFFFFFFFFFFFFDEF9FFFF23
:1004100010B5054C237833B9044B13B10448AFF33E
:1004200000800123237010BD6018FF1F0000000032
:1004300034920300084B10B51BB108490848AFF3CC
:1004400000800848036803B910BD074B002BFBD0A0
:10045000BDE81040184700BF000000006418FF1FEF
:10046000349203006018FF1F000000000020704756
:10047000704700BF0349044B4FF4804001220860DD
:100480001A60704708F00F40A419FF1F014B0122AA
:100490001A6070479C19FF1F034A04491368012022
:1004A0000344136008607047E0600020900B002058
:1004B00020F01EBBF8B50E4607461FF081F9054631
:1004C0001FF06EF904461FF05BF96401C0B204F43A
:1004D000FF54ADB2A5F2BC75044344EA45243C8008
:1004E0001FF01EF905461FF02BF904461FF038F9DE
:1004F000ED02640105F4FF2504F4FF542C43C0F31E
:10050000460004433480F8BD2DE9F043002283B057
:100510001FFA80F911461546DFF85880124F134E26
:1005200000E01D4658F825303C681148CDF804908D
:1005300003EBC3035B01B3FBF4F4C4F59473C2F59E
:10054000947201331BB2013212B209B200932BB282
:1005500034601DF087FE6B1CB3F5D27F29463268EC
:10056000DFD103B0BDE8F083E04C00200864002038
:10057000E84C002060BCFF1F2DE9F043002283B04F
:100580001FFA80F911461546DFF85880124F134EB6
:1005900000E01D4658F825303C681148CDF804901D
:1005A00003EBC3035B01B3FBF4F4C4F59473C2F52E
:1005B000947201331BB2013212B209B200932BB212
:1005C00034601DF04FFE6B1CB3F5D27F29463268B4
:1005D000DFD103B0BDE8F083984B00200864002011
:1005E000E84C0020E8B600202DE9F04F394BDFF849
:1005F000F4A01B68DFF8F09083B08046184626F020
:100600008BF941EC100B23F0AFF90022324B51EC87
:10061000100B26F0F7F926F0CDFC00241FFA88F81D
:10062000CAF80000CB462746254613E030601BB2CF
:10063000C4F5947201328DE8080139B22BB2274813
:1006400012B21DF00FFE6B1CB3F5D27F34682F463B
:100650003CD01D4659F82530012B22D95BF82500E6
:100660001F4E26F059F941EC100B23F07DF90022C2
:10067000194B51EC100B26F0C5F926F09BFC4FF4FA
:100680008F72DAF8003002FB00F0B0FBF3F0C0F537
:100690009473904203F10103C8D9114E0B233260C9
:1006A000C6E7C4F5947240F22913013239B20093BF
:1006B00012B22BB2CDF8048008481DF0D3FD6B1C9C
:1006C000B3F5D27F4FF000042F46C2D103B0BDE88E
:1006D000F08F00BF984B002000002440E84C002021
:1006E00008640020E05AFF1FE8B600209FED3D7A25
:1006F00038B53D4CF0EE476A002234F812309BB218
:1007000007EE903AF8EEE77A013277EEA67A3C2AC5
:1007100037EE277AF1D1DFED356A354DC7EE267A0F
:10072000292128460422C5ED007A1FF011FE0A2077
:1007300020F036FC95ED006ADFED2A6A002134F8DE
:10074000112034F8113092B207EE902A9BB2B8EE25
:10075000E77A07EE903AF8EEE77A36EE477A76EEE9
:10076000677A01313C29E7EE276AE8D1DFED217A8B
:10077000214B224C86EEA77A00221A6017EE100A4F
:1007800026F0ECF841EC100B23F012FB51EC100BAF
:1007900026F030FCD5ED007A194B07EE100AF0EE8A
:1007A000006AB0EE086AF0EE675AE7EE265A15487E
:1007B000E7EE067A0422242180ED007AC3ED007A68
:1007C000C4ED005A1FF0C4FD0A2020F0E9FB01210E
:1007D00028201FF095FD0A2020F0E2FB0A4B0122A1
:1007E0001A7038BD000000008CC7FF1F0000704267
:1007F000C808FF1F00006C42A019FF1F100800204E
:10080000B05AFF1F8008FF1F64500020214B10B416
:100810001A681368506819780478507A137A044279
:1008200001EA03011BD0937A03F0030309B143F0FB
:10083000040343F008039910013B91720D2B0BD870
:10084000DFE803F021071B070A152121150A071B02
:100850000721D368013BD3605DF8044B7047937A5E
:1008600003F003030029E6D043F00403E3E7D36871
:100870005DF8044B023BD3607047D3685DF8044BCE
:100880000233D3607047D3685DF8044B0133D36003
:10089000704700BFACC10020214B10B45A681368E8
:1008A000506819780478507A137A044201EA0301F7
:1008B0001BD0937A03F0030309B143F0040343F020
:1008C00008039910013B91720D2B0BD8DFE803F060
:1008D00021071B070A152121150A071B0721D368C9
:1008E000013BD3605DF8044B7047937A03F0030338
:1008F0000029E6D043F00403E3E7D3685DF8044B36
:10090000023BD3607047D3685DF8044B0233D36079
:100910007047D3685DF8044B0133D360704700BF64
:10092000ACC10020214B10B49A6813685068197844
:100930000478507A137A044201EA03011BD0937AB7
:1009400003F0030309B143F0040343F008039910D3
:10095000013B91720D2B0BD8DFE803F021071B0739
:100960000A152121150A071B0721D368013BD36013
:100970005DF8044B7047937A03F003030029E6D037
:1009800043F00403E3E7D3685DF8044B023BD36014
:100990007047D3685DF8044B0233D3607047D36867
:1009A0005DF8044B0133D360704700BFACC1002039
:1009B000214B10B4DA681368506819780478507ABB
:1009C000137A044201EA03011BD0937A03F0030374
:1009D00009B143F0040343F008039910013B9172FD
:1009E0000D2B0BD8DFE803F021071B070A15212187
:1009F000150A071B0721D368013BD3605DF8044B40
:100A00007047937A03F003030029E6D043F0040310
:100A1000E3E7D3685DF8044B023BD3607047D368CB
:100A20005DF8044B0233D3607047D3685DF8044B24
:100A30000133D360704700BFACC10020214B10B41C
:100A40001A691368506819780478507A137A044246
:100A500001EA03011BD0937A03F0030309B143F0C9
:100A6000040343F008039910013B91720D2B0BD83E
:100A7000DFE803F021071B070A152121150A071BD0
:100A80000721D368013BD3605DF8044B7047937A2C
:100A900003F003030029E6D043F00403E3E7D3683F
:100AA0005DF8044B023BD3607047D3685DF8044B9C
:100AB0000233D3607047D3685DF8044B0133D360D1
:100AC000704700BFACC10020214B10B45A691368B5
:100AD000506819780478507A137A044201EA0301C5
:100AE0001BD0937A03F0030309B143F0040343F0EE
:100AF00008039910013B91720D2B0BD8DFE803F02E
:100B000021071B070A152121150A071B0721D36896
:100B1000013BD3605DF8044B7047937A03F0030305
:100B20000029E6D043F00403E3E7D3685DF8044B03
:100B3000023BD3607047D3685DF8044B0233D36047
:100B40007047D3685DF8044B0133D360704700BF32
:100B5000ACC10020214B10B49A6913685068197811
:100B60000478507A137A044201EA03011BD0937A85
:100B700003F0030309B143F0040343F008039910A1
:100B8000013B91720D2B0BD8DFE803F021071B0707
:100B90000A152121150A071B0721D368013BD360E1
:100BA0005DF8044B7047937A03F003030029E6D005
:100BB00043F00403E3E7D3685DF8044B023BD360E2
:100BC0007047D3685DF8044B0233D3607047D36835
:100BD0005DF8044B0133D360704700BFACC1002007
:100BE000214B10B4DA691368506819780478507A88
:100BF000137A044201EA03011BD0937A03F0030342
:100C000009B143F0040343F008039910013B9172CA
:100C10000D2B0BD8DFE803F021071B070A15212154
:100C2000150A071B0721D368013BD3605DF8044B0D
:100C30007047937A03F003030029E6D043F00403DE
:100C4000E3E7D3685DF8044B023BD3607047D36899
:100C50005DF8044B0233D3607047D3685DF8044BF2
:100C60000133D360704700BFACC10020214B10B4EA
:100C70001A6A1368506819780478507A137A044213
:100C800001EA03011BD0937A03F0030309B143F097
:100C9000040343F008039910013B91720D2B0BD80C
:100CA000DFE803F021071B070A152121150A071B9E
:100CB0000721D368013BD3605DF8044B7047937AFA
:100CC00003F003030029E6D043F00403E3E7D3680D
:100CD0005DF8044B023BD3607047D3685DF8044B6A
:100CE0000233D3607047D3685DF8044B0133D3609F
:100CF000704700BFACC10020214B10B45A6A136882
:100D0000506819780478507A137A044201EA030192
:100D10001BD0937A03F0030309B143F0040343F0BB
:100D200008039910013B91720D2B0BD8DFE803F0FB
:100D300021071B070A152121150A071B0721D36864
:100D4000013BD3605DF8044B7047937A03F00303D3
:100D50000029E6D043F00403E3E7D3685DF8044BD1
:100D6000023BD3607047D3685DF8044B0233D36015
:100D70007047D3685DF8044B0133D360704700BF00
:100D8000ACC10020214B10B49A6A136850681978DE
:100D90000478507A137A044201EA03011BD0937A53
:100DA00003F0030309B143F0040343F0080399106F
:100DB000013B91720D2B0BD8DFE803F021071B07D5
:100DC0000A152121150A071B0721D368013BD360AF
:100DD0005DF8044B7047937A03F003030029E6D0D3
:100DE00043F00403E3E7D3685DF8044B023BD360B0
:100DF0007047D3685DF8044B0233D3607047D36803
:100E00005DF8044B0133D360704700BFACC10020D4
:100E1000214B10B4DA6A1368506819780478507A54
:100E2000137A044201EA03011BD0937A03F003030F
:100E300009B143F0040343F008039910013B917298
:100E40000D2B0BD8DFE803F021071B070A15212122
:100E5000150A071B0721D368013BD3605DF8044BDB
:100E60007047937A03F003030029E6D043F00403AC
:100E7000E3E7D3685DF8044B023BD3607047D36867
:100E80005DF8044B0233D3607047D3685DF8044BC0
:100E90000133D360704700BFACC10020214B10B4B8
:100EA0001A6B1368506819780478507A137A0442E0
:100EB00001EA03011BD0937A03F0030309B143F065
:100EC000040343F008039910013B91720D2B0BD8DA
:100ED000DFE803F021071B070A152121150A071B6C
:100EE0000721D368013BD3605DF8044B7047937AC8
:100EF00003F003030029E6D043F00403E3E7D368DB
:100F00005DF8044B023BD3607047D3685DF8044B37
:100F10000233D3607047D3685DF8044B0133D3606C
:100F2000704700BFACC10020214B10B45A6B13684E
:100F3000506819780478507A137A044201EA030160
:100F40001BD0937A03F0030309B143F0040343F089
:100F500008039910013B91720D2B0BD8DFE803F0C9
:100F600021071B070A152121150A071B0721D36832
:100F7000013BD3605DF8044B7047937A03F00303A1
:100F80000029E6D043F00403E3E7D3685DF8044B9F
:100F9000023BD3607047D3685DF8044B0233D360E3
:100FA0007047D3685DF8044B0133D360704700BFCE
:100FB000ACC10020214B10B49A6B136850681978AB
:100FC0000478507A137A044201EA03011BD0937A21
:100FD00003F0030309B143F0040343F0080399103D
:100FE000013B91720D2B0BD8DFE803F021071B07A3
:100FF0000A152121150A071B0721D368013BD3607D
:101000005DF8044B7047937A03F003030029E6D0A0
:1010100043F00403E3E7D3685DF8044B023BD3607D
:101020007047D3685DF8044B0233D3607047D368D0
:101030005DF8044B0133D360704700BFACC10020A2
:10104000214B10B4DA6B1368506819780478507A21
:10105000137A044201EA03011BD0937A03F00303DD
:1010600009B143F0040343F008039910013B917266
:101070000D2B0BD8DFE803F021071B070A152121F0
:10108000150A071B0721D368013BD3605DF8044BA9
:101090007047937A03F003030029E6D043F004037A
:1010A000E3E7D3685DF8044B023BD3607047D36835
:1010B0005DF8044B0233D3607047D3685DF8044B8E
:1010C0000133D360704700BFACC10020214B10B486
:1010D0001A6C1368506819780478507A137A0442AD
:1010E00001EA03011BD0937A03F0030309B143F033
:1010F000040343F008039910013B91720D2B0BD8A8
:10110000DFE803F021071B070A152121150A071B39
:101110000721D368013BD3605DF8044B7047937A95
:1011200003F003030029E6D043F00403E3E7D368A8
:101130005DF8044B023BD3607047D3685DF8044B05
:101140000233D3607047D3685DF8044B0133D3603A
:10115000704700BFACC10020214B10B45A6C13681B
:10116000506819780478507A137A044201EA03012E
:101170001BD0937A03F0030309B143F0040343F057
:1011800008039910013B91720D2B0BD8DFE803F097
:1011900021071B070A152121150A071B0721D36800
:1011A000013BD3605DF8044B7047937A03F003036F
:1011B0000029E6D043F00403E3E7D3685DF8044B6D
:1011C000023BD3607047D3685DF8044B0233D360B1
:1011D0007047D3685DF8044B0133D360704700BF9C
:1011E000ACC10020214B10B49A6C13685068197878
:1011F0000478507A137A044201EA03011BD0937AEF
:1012000003F0030309B143F0040343F0080399100A
:10121000013B91720D2B0BD8DFE803F021071B0770
:101220000A152121150A071B0721D368013BD3604A
:101230005DF8044B7047937A03F003030029E6D06E
:1012400043F00403E3E7D3685DF8044B023BD3604B
:101250007047D3685DF8044B0233D3607047D3689E
:101260005DF8044B0133D360704700BFACC1002070
:10127000214B10B4DA6C1368506819780478507AEE
:10128000137A044201EA03011BD0937A03F00303AB
:1012900009B143F0040343F008039910013B917234
:1012A0000D2B0BD8DFE803F021071B070A152121BE
:1012B000150A071B0721D368013BD3605DF8044B77
:1012C0007047937A03F003030029E6D043F0040348
:1012D000E3E7D3685DF8044B023BD3607047D36803
:1012E0005DF8044B0233D3607047D3685DF8044B5C
:1012F0000133D360704700BFACC10020214B10B454
:101300001A6D1368506819780478507A137A044279
:1013100001EA03011BD0937A03F0030309B143F000
:10132000040343F008039910013B91720D2B0BD875
:10133000DFE803F021071B070A152121150A071B07
:101340000721D368013BD3605DF8044B7047937A63
:1013500003F003030029E6D043F00403E3E7D36876
:101360005DF8044B023BD3607047D3685DF8044BD3
:101370000233D3607047D3685DF8044B0133D36008
:10138000704700BFACC10020214B10B45A6D1368E8
:10139000506819780478507A137A044201EA0301FC
:1013A0001BD0937A03F0030309B143F0040343F025
:1013B00008039910013B91720D2B0BD8DFE803F065
:1013C00021071B070A152121150A071B0721D368CE
:1013D000013BD3605DF8044B7047937A03F003033D
:1013E0000029E6D043F00403E3E7D3685DF8044B3B
:1013F000023BD3607047D3685DF8044B0233D3607F
:101400007047D3685DF8044B0133D360704700BF69
:10141000ACC10020214B10B49A6D13685068197844
:101420000478507A137A044201EA03011BD0937ABC
:1014300003F0030309B143F0040343F008039910D8
:10144000013B91720D2B0BD8DFE803F021071B073E
:101450000A152121150A071B0721D368013BD36018
:101460005DF8044B7047937A03F003030029E6D03C
:1014700043F00403E3E7D3685DF8044B023BD36019
:101480007047D3685DF8044B0233D3607047D3686C
:101490005DF8044B0133D360704700BFACC100203E
:1014A000214B10B4DA6D1368506819780478507ABB
:1014B000137A044201EA03011BD0937A03F0030379
:1014C00009B143F0040343F008039910013B917202
:1014D0000D2B0BD8DFE803F021071B070A1521218C
:1014E000150A071B0721D368013BD3605DF8044B45
:1014F0007047937A03F003030029E6D043F0040316
:10150000E3E7D3685DF8044B023BD3607047D368D0
:101510005DF8044B0233D3607047D3685DF8044B29
:101520000133D360704700BFACC10020214B10B421
:101530001A6E1368506819780478507A137A044246
:1015400001EA03011BD0937A03F0030309B143F0CE
:10155000040343F008039910013B91720D2B0BD843
:10156000DFE803F021071B070A152121150A071BD5
:101570000721D368013BD3605DF8044B7047937A31
:1015800003F003030029E6D043F00403E3E7D36844
:101590005DF8044B023BD3607047D3685DF8044BA1
:1015A0000233D3607047D3685DF8044B0133D360D6
:1015B000704700BFACC10020214B10B45A6E1368B5
:1015C000506819780478507A137A044201EA0301CA
:1015D0001BD0937A03F0030309B143F0040343F0F3
:1015E00008039910013B91720D2B0BD8DFE803F033
:1015F00021071B070A152121150A071B0721D3689C
:10160000013BD3605DF8044B7047937A03F003030A
:101610000029E6D043F00403E3E7D3685DF8044B08
:10162000023BD3607047D3685DF8044B0233D3604C
:101630007047D3685DF8044B0133D360704700BF37
:10164000ACC10020214B10B49A6E13685068197811
:101650000478507A137A044201EA03011BD0937A8A
:1016600003F0030309B143F0040343F008039910A6
:10167000013B91720D2B0BD8DFE803F021071B070C
:101680000A152121150A071B0721D368013BD360E6
:101690005DF8044B7047937A03F003030029E6D00A
:1016A00043F00403E3E7D3685DF8044B023BD360E7
:1016B0007047D3685DF8044B0233D3607047D3683A
:1016C0005DF8044B0133D360704700BFACC100200C
:1016D000214B10B4DA6E1368506819780478507A88
:1016E000137A044201EA03011BD0937A03F0030347
:1016F00009B143F0040343F008039910013B9172D0
:101700000D2B0BD8DFE803F021071B070A15212159
:10171000150A071B0721D368013BD3605DF8044B12
:101720007047937A03F003030029E6D043F00403E3
:10173000E3E7D3685DF8044B023BD3607047D3689E
:101740005DF8044B0233D3607047D3685DF8044BF7
:101750000133D360704700BFACC10020214B10B4EF
:101760001A6F1368506819780478507A137A044213
:1017700001EA03011BD0937A03F0030309B143F09C
:10178000040343F008039910013B91720D2B0BD811
:10179000DFE803F021071B070A152121150A071BA3
:1017A0000721D368013BD3605DF8044B7047937AFF
:1017B00003F003030029E6D043F00403E3E7D36812
:1017C0005DF8044B023BD3607047D3685DF8044B6F
:1017D0000233D3607047D3685DF8044B0133D360A4
:1017E000704700BFACC10020214B10B45A6F136882
:1017F000506819780478507A137A044201EA030198
:101800001BD0937A03F0030309B143F0040343F0C0
:1018100008039910013B91720D2B0BD8DFE803F000
:1018200021071B070A152121150A071B0721D36869
:10183000013BD3605DF8044B7047937A03F00303D8
:101840000029E6D043F00403E3E7D3685DF8044BD6
:10185000023BD3607047D3685DF8044B0233D3601A
:101860007047D3685DF8044B0133D360704700BF05
:10187000ACC10020214B10B49A6F136850681978DE
:101880000478507A137A044201EA03011BD0937A58
:1018900003F0030309B143F0040343F00803991074
:1018A000013B91720D2B0BD8DFE803F021071B07DA
:1018B0000A152121150A071B0721D368013BD360B4
:1018C0005DF8044B7047937A03F003030029E6D0D8
:1018D00043F00403E3E7D3685DF8044B023BD360B5
:1018E0007047D3685DF8044B0233D3607047D36808
:1018F0005DF8044B0133D360704700BFACC10020DA
:10190000214B10B4DA6F1368506819780478507A54
:10191000137A044201EA03011BD0937A03F0030314
:1019200009B143F0040343F008039910013B91729D
:101930000D2B0BD8DFE803F021071B070A15212127
:10194000150A071B0721D368013BD3605DF8044BE0
:101950007047937A03F003030029E6D043F00403B1
:10196000E3E7D3685DF8044B023BD3607047D3686C
:101970005DF8044B0233D3607047D3685DF8044BC5
:101980000133D360704700BFACC10020214B10B4BD
:10199000D3F880201368506819780478507A137A45
:1019A000044201EA03011BD0937A03F0030309B157
:1019B00043F0040343F008039910013B91720D2B8F
:1019C0000BD8DFE803F021071B070A152121150AB0
:1019D000071B0721D368013BD3605DF8044B7047B8
:1019E000937A03F003030029E6D043F00403E3E70E
:1019F000D3685DF8044B023BD3607047D3685DF851
:101A0000044B0233D3607047D3685DF8044B013355
:101A1000D3607047ACC10020214B10B4D3F88420B0
:101A20001368506819780478507A137A044201EAEE
:101A300003011BD0937A03F0030309B143F00403BD
:101A400043F008039910013B91720D2B0BD8DFE88E
:101A500003F021071B070A152121150A071B07217F
:101A6000D368013BD3605DF8044B7047937A03F071
:101A700003030029E6D043F00403E3E7D3685DF8ED
:101A8000044B023BD3607047D3685DF8044B0233CC
:101A9000D3607047D3685DF8044B0133D36070475F
:101AA000ACC10020214B10B4D3F8882013685068D3
:101AB00019780478507A137A044201EA03011BD0A2
:101AC000937A03F0030309B143F0040343F00803DE
:101AD0009910013B91720D2B0BD8DFE803F0210721
:101AE0001B070A152121150A071B0721D368013B93
:101AF000D3605DF8044B7047937A03F00303002929
:101B0000E6D043F00403E3E7D3685DF8044B023BFF
:101B1000D3607047D3685DF8044B0233D3607047DD
:101B2000D3685DF8044B0133D3607047ACC100202B
:101B3000214B10B4D3F88C201368506819780478BE
:101B4000507A137A044201EA03011BD0937A03F01E
:101B5000030309B143F0040343F008039910013B68
:101B600091720D2B0BD8DFE803F021071B070A1534
:101B70002121150A071B0721D368013BD3605DF8BB
:101B8000044B7047937A03F003030029E6D043F037
:101B90000403E3E7D3685DF8044B023BD36070476E
:101BA000D3685DF8044B0233D3607047D3685DF8A7
:101BB000044B0133D3607047ACC10020214B10B4FB
:101BC000D3F890201368506819780478507A137A03
:101BD000044201EA03011BD0937A03F0030309B125
:101BE00043F0040343F008039910013B91720D2B5D
:101BF0000BD8DFE803F021071B070A152121150A7E
:101C0000071B0721D368013BD3605DF8044B704785
:101C1000937A03F003030029E6D043F00403E3E7DB
:101C2000D3685DF8044B023BD3607047D3685DF81E
:101C3000044B0233D3607047D3685DF8044B013323
:101C4000D3607047ACC10020214B10B4D3F894206E
:101C50001368506819780478507A137A044201EABC
:101C600003011BD0937A03F0030309B143F004038B
:101C700043F008039910013B91720D2B0BD8DFE85C
:101C800003F021071B070A152121150A071B07214D
:101C9000D368013BD3605DF8044B7047937A03F03F
:101CA00003030029E6D043F00403E3E7D3685DF8BB
:101CB000044B023BD3607047D3685DF8044B02339A
:101CC000D3607047D3685DF8044B0133D36070472D
:101CD000ACC10020214B10B4D3F898201368506891
:101CE00019780478507A137A044201EA03011BD070
:101CF000937A03F0030309B143F0040343F00803AC
:101D00009910013B91720D2B0BD8DFE803F02107EE
:101D10001B070A152121150A071B0721D368013B60
:101D2000D3605DF8044B7047937A03F003030029F6
:101D3000E6D043F00403E3E7D3685DF8044B023BCD
:101D4000D3607047D3685DF8044B0233D3607047AB
:101D5000D3685DF8044B0133D3607047ACC10020F9
:101D6000214B10B4D3F89C2013685068197804787C
:101D7000507A137A044201EA03011BD0937A03F0EC
:101D8000030309B143F0040343F008039910013B36
:101D900091720D2B0BD8DFE803F021071B070A1502
:101DA0002121150A071B0721D368013BD3605DF889
:101DB000044B7047937A03F003030029E6D043F005
:101DC0000403E3E7D3685DF8044B023BD36070473C
:101DD000D3685DF8044B0233D3607047D3685DF875
:101DE000044B0133D3607047ACC10020214B10B4C9
:101DF000D3F8A0201368506819780478507A137AC1
:101E0000044201EA03011BD0937A03F0030309B1F2
:101E100043F0040343F008039910013B91720D2B2A
:101E20000BD8DFE803F021071B070A152121150A4B
:101E3000071B0721D368013BD3605DF8044B704753
:101E4000937A03F003030029E6D043F00403E3E7A9
:101E5000D3685DF8044B023BD3607047D3685DF8EC
:101E6000044B0233D3607047D3685DF8044B0133F1
:101E7000D3607047ACC10020214B10B4D3F8A4202C
:101E80001368506819780478507A137A044201EA8A
:101E900003011BD0937A03F0030309B143F0040359
:101EA00043F008039910013B91720D2B0BD8DFE82A
:101EB00003F021071B070A152121150A071B07211B
:101EC000D368013BD3605DF8044B7047937A03F00D
:101ED00003030029E6D043F00403E3E7D3685DF889
:101EE000044B023BD3607047D3685DF8044B023368
:101EF000D3607047D3685DF8044B0133D3607047FB
:101F0000ACC10020214B10B4D3F8A820136850684E
:101F100019780478507A137A044201EA03011BD03D
:101F2000937A03F0030309B143F0040343F0080379
:101F30009910013B91720D2B0BD8DFE803F02107BC
:101F40001B070A152121150A071B0721D368013B2E
:101F5000D3605DF8044B7047937A03F003030029C4
:101F6000E6D043F00403E3E7D3685DF8044B023B9B
:101F7000D3607047D3685DF8044B0233D360704779
:101F8000D3685DF8044B0133D3607047ACC10020C7
:101F9000214B10B4D3F8AC2013685068197804783A
:101FA000507A137A044201EA03011BD0937A03F0BA
:101FB000030309B143F0040343F008039910013B04
:101FC00091720D2B0BD8DFE803F021071B070A15D0
:101FD0002121150A071B0721D368013BD3605DF857
:101FE000044B7047937A03F003030029E6D043F0D3
:101FF0000403E3E7D3685DF8044B023BD36070470A
:10200000D3685DF8044B0233D3607047D3685DF842
:10201000044B0133D3607047ACC10020214B10B496
:10202000D3F8B0201368506819780478507A137A7E
:10203000044201EA03011BD0937A03F0030309B1C0
:1020400043F0040343F008039910013B91720D2BF8
:102050000BD8DFE803F021071B070A152121150A19
:10206000071B0721D368013BD3605DF8044B704721
:10207000937A03F003030029E6D043F00403E3E777
:10208000D3685DF8044B023BD3607047D3685DF8BA
:10209000044B0233D3607047D3685DF8044B0133BF
:1020A000D3607047ACC10020214B10B4D3F8B420EA
:1020B0001368506819780478507A137A044201EA58
:1020C00003011BD0937A03F0030309B143F0040327
:1020D00043F008039910013B91720D2B0BD8DFE8F8
:1020E00003F021071B070A152121150A071B0721E9
:1020F000D368013BD3605DF8044B7047937A03F0DB
:1021000003030029E6D043F00403E3E7D3685DF856
:10211000044B023BD3607047D3685DF8044B023335
:10212000D3607047D3685DF8044B0133D3607047C8
:10213000ACC10020214B10B4D3F8B820136850680C
:1021400019780478507A137A044201EA03011BD00B
:10215000937A03F0030309B143F0040343F0080347
:102160009910013B91720D2B0BD8DFE803F021078A
:102170001B070A152121150A071B0721D368013BFC
:10218000D3605DF8044B7047937A03F00303002992
:10219000E6D043F00403E3E7D3685DF8044B023B69
:1021A000D3607047D3685DF8044B0233D360704747
:1021B000D3685DF8044B0133D3607047ACC1002095
:1021C000214B10B4D3F8BC201368506819780478F8
:1021D000507A137A044201EA03011BD0937A03F088
:1021E000030309B143F0040343F008039910013BD2
:1021F00091720D2B0BD8DFE803F021071B070A159E
:102200002121150A071B0721D368013BD3605DF824
:10221000044B7047937A03F003030029E6D043F0A0
:102220000403E3E7D3685DF8044B023BD3607047D7
:10223000D3685DF8044B0233D3607047D3685DF810
:10224000044B0133D3607047ACC10020214B10B464
:10225000D3F8C0201368506819780478507A137A3C
:10226000044201EA03011BD0937A03F0030309B18E
:1022700043F0040343F008039910013B91720D2BC6
:102280000BD8DFE803F021071B070A152121150AE7
:10229000071B0721D368013BD3605DF8044B7047EF
:1022A000937A03F003030029E6D043F00403E3E745
:1022B000D3685DF8044B023BD3607047D3685DF888
:1022C000044B0233D3607047D3685DF8044B01338D
:1022D000D3607047ACC10020214B10B4D3F8C420A8
:1022E0001368506819780478507A137A044201EA26
:1022F00003011BD0937A03F0030309B143F00403F5
:1023000043F008039910013B91720D2B0BD8DFE8C5
:1023100003F021071B070A152121150A071B0721B6
:10232000D368013BD3605DF8044B7047937A03F0A8
:1023300003030029E6D043F00403E3E7D3685DF824
:10234000044B023BD3607047D3685DF8044B023303
:10235000D3607047D3685DF8044B0133D360704796
:10236000ACC10020214B10B4D3F8C82013685068CA
:1023700019780478507A137A044201EA03011BD0D9
:10238000937A03F0030309B143F0040343F0080315
:102390009910013B91720D2B0BD8DFE803F0210758
:1023A0001B070A152121150A071B0721D368013BCA
:1023B000D3605DF8044B7047937A03F00303002960
:1023C000E6D043F00403E3E7D3685DF8044B023B37
:1023D000D3607047D3685DF8044B0233D360704715
:1023E000D3685DF8044B0133D3607047ACC1002063
:1023F000214B10B4D3F8CC201368506819780478B6
:10240000507A137A044201EA03011BD0937A03F055
:10241000030309B143F0040343F008039910013B9F
:1024200091720D2B0BD8DFE803F021071B070A156B
:102430002121150A071B0721D368013BD3605DF8F2
:10244000044B7047937A03F003030029E6D043F06E
:102450000403E3E7D3685DF8044B023BD3607047A5
:10246000D3685DF8044B0233D3607047D3685DF8DE
:10247000044B0133D3607047ACC10020214B10B432
:10248000D3F8D0201368506819780478507A137AFA
:10249000044201EA03011BD0937A03F0030309B15C
:1024A00043F0040343F008039910013B91720D2B94
:1024B0000BD8DFE803F021071B070A152121150AB5
:1024C000071B0721D368013BD3605DF8044B7047BD
:1024D000937A03F003030029E6D043F00403E3E713
:1024E000D3685DF8044B023BD3607047D3685DF856
:1024F000044B0233D3607047D3685DF8044B01335B
:10250000D3607047ACC10020214B10B4D3F8D42065
:102510001368506819780478507A137A044201EAF3
:1025200003011BD0937A03F0030309B143F00403C2
:1025300043F008039910013B91720D2B0BD8DFE893
:1025400003F021071B070A152121150A071B072184
:10255000D368013BD3605DF8044B7047937A03F076
:1025600003030029E6D043F00403E3E7D3685DF8F2
:10257000044B023BD3607047D3685DF8044B0233D1
:10258000D3607047D3685DF8044B0133D360704764
:10259000ACC10020214B10B4D3F8D8201368506888
:1025A00019780478507A137A044201EA03011BD0A7
:1025B000937A03F0030309B143F0040343F00803E3
:1025C0009910013B91720D2B0BD8DFE803F0210726
:1025D0001B070A152121150A071B0721D368013B98
:1025E000D3605DF8044B7047937A03F0030300292E
:1025F000E6D043F00403E3E7D3685DF8044B023B05
:10260000D3607047D3685DF8044B0233D3607047E2
:10261000D3685DF8044B0133D3607047ACC1002030
:10262000214B10B4D3F8DC20136850681978047873
:10263000507A137A044201EA03011BD0937A03F023
:10264000030309B143F0040343F008039910013B6D
:1026500091720D2B0BD8DFE803F021071B070A1539
:102660002121150A071B0721D368013BD3605DF8C0
:10267000044B7047937A03F003030029E6D043F03C
:102680000403E3E7D3685DF8044B023BD360704773
:10269000D3685DF8044B0233D3607047D3685DF8AC
:1026A000044B0133D3607047ACC10020214B10B400
:1026B000D3F8E0201368506819780478507A137AB8
:1026C000044201EA03011BD0937A03F0030309B12A
:1026D00043F0040343F008039910013B91720D2B62
:1026E0000BD8DFE803F021071B070A152121150A83
:1026F000071B0721D368013BD3605DF8044B70478B
:10270000937A03F003030029E6D043F00403E3E7E0
:10271000D3685DF8044B023BD3607047D3685DF823
:10272000044B0233D3607047D3685DF8044B013328
:10273000D3607047ACC10020214B10B4D3F8E42023
:102740001368506819780478507A137A044201EAC1
:1027500003011BD0937A03F0030309B143F0040390
:1027600043F008039910013B91720D2B0BD8DFE861
:1027700003F021071B070A152121150A071B072152
:10278000D368013BD3605DF8044B7047937A03F044
:1027900003030029E6D043F00403E3E7D3685DF8C0
:1027A000044B023BD3607047D3685DF8044B02339F
:1027B000D3607047D3685DF8044B0133D360704732
:1027C000ACC10020214B10B4D3F8E8201368506846
:1027D00019780478507A137A044201EA03011BD075
:1027E000937A03F0030309B143F0040343F00803B1
:1027F0009910013B91720D2B0BD8DFE803F02107F4
:102800001B070A152121150A071B0721D368013B65
:10281000D3605DF8044B7047937A03F003030029FB
:10282000E6D043F00403E3E7D3685DF8044B023BD2
:10283000D3607047D3685DF8044B0233D3607047B0
:10284000D3685DF8044B0133D3607047ACC10020FE
:10285000214B10B4D3F8EC20136850681978047831
:10286000507A137A044201EA03011BD0937A03F0F1
:10287000030309B143F0040343F008039910013B3B
:1028800091720D2B0BD8DFE803F021071B070A1507
:102890002121150A071B0721D368013BD3605DF88E
:1028A000044B7047937A03F003030029E6D043F00A
:1028B0000403E3E7D3685DF8044B023BD360704741
:1028C000D3685DF8044B0233D3607047D3685DF87A
:1028D000044B0133D3607047ACC1002070B504468F
:1028E00008460D4625F00CFB236802462946204683
:1028F0005B68BDE87040184738B5044608460D4689
:1029000025F0FEFA2368024629465B682046984770
:102910000546204620F098F9284438BD38B50546CC
:1029200020F0F8F90446284620F08EF9204438BDFE
:1029300038B5C9B2054620F0F7F90446284620F01C
:1029400083F9204438BD00BF70B5056804462846A9
:102950000E461DF0BBFC864203D0314628461DF0D2
:10296000CFFC204670BD00BF10B4036841681A78E0
:102970000C78417A037A0C4202EA03021BD0837A74
:1029800003F003030AB143F0040343F008039A1071
:10299000013B82720D2B0BD8DFE803F021071B07E8
:1029A0000A152121150A071B0721C368013BC360D3
:1029B0005DF8044B7047837A03F00303002AE6D0E6
:1029C00043F00403E3E7C3685DF8044B023BC360D4
:1029D0007047C3685DF8044B0233C3607047C36837
:1029E0005DF8044B0133C360704700BF08B50B4668
:1029F0003B2800F2C682DFE810F0BB02B202A90257
:102A0000A00297028E0285027C0273026A026102B2
:102A100058024F0246023D0234022B0222021902E2
:102A200010020702AE01A5019C0193018A018101F8
:102A300078016F0166015D0154014A0140013601D0
:102A40002C01220118010E010401FA00F000E60039
:102A5000DC00D200C800BE00B400AA00A0009600AE
:102A60008C00820078006E0064005A00500046001E
:102A70003C00BD4ABD49C2F8EC303B2004221DF0A9
:102A800077FF012008BDB84AB949C2F8E8303A20BA
:102A900004221DF06DFF012008BDB34AB549C2F8FC
:102AA000E430392004221DF063FF012008BDAE4A46
:102AB000B149C2F8E030382004221DF059FF01204E
:102AC00008BDA94AAD49C2F8DC30372004221DF008
:102AD0004FFF012008BDA44AA949C2F8D8303620CA
:102AE00004221DF045FF012008BD9F4AA549C2F8F8
:102AF000D430352004221DF03BFF012008BD9A4A46
:102B0000A149C2F8D030342004221DF031FF012049
:102B100008BD954A9D49C2F8CC30332004221DF0EF
:102B200027FF012008BD904A9949C2F8C8303220D9
:102B300004221DF01DFF012008BD8B4A9549C2F8F3
:102B4000C430312004221DF013FF012008BD864A45
:102B50009149C2F8C030302004221DF009FF012045
:102B600008BD814A8D49C2F8BC302F2004221DF0D7
:102B7000FFFE012008BD7C4A8949C2F8B8302E20EA
:102B800004221DF0F5FE012008BD774A8549C2F8F0
:102B9000B4302D2004221DF0EBFE012008BD724A46
:102BA0008149C2F8B0302C2004221DF0E1FE012042
:102BB00008BD6D4A7D49C2F8AC302B2004221DF0BF
:102BC000D7FE012008BD684A7949C2F8A8302A20FA
:102BD00004221DF0CDFE012008BD634A7549C2F8EC
:102BE000A430292004221DF0C3FE012008BD5E4A46
:102BF0007149C2F8A030282004221DF0B9FE01203E
:102C000008BD594A6D49C2F89C30272004221DF0A6
:102C1000AFFE012008BD544A6949C2F89830262009
:102C200004221DF0A5FE012008BD4F4A6549C2F8E7
:102C30009430252004221DF09BFE012008BD4A4A45
:102C40006149C2F89030242004221DF091FE012039
:102C500008BD454A5D49C2F88C30232004221DF08E
:102C600087FE012008BD404A5949C2F88830222019
:102C700004221DF07DFE012008BD3B4A5549C2F8E3
:102C80008430212004221DF073FE012008BD364A45
:102C90005149C2F88030202004221DF069FE012035
:102CA00008BD314A4D49D3671F2004221DF060FE44
:102CB000012008BD2C4A4A4993671E2004221DF0BA
:102CC00057FE012008BD284A464953671D200422AB
:102CD0001DF04EFE012008BD234A434913671C2006
:102CE00004221DF045FE012008BD1F4A3F49D3665E
:102CF0001B2004221DF03CFE012008BD1A4A3C495D
:102D000093661A2004221DF033FE012008BD164AE6
:102D100038495366192004221DF02AFE012008BDFF
:102D2000114A35491366182004221DF021FE0120A6
:102D300008BD0D4A3149D365172004221DF018FE45
:102D4000012008BD084A2E499365162004221DF073
:102D50000FFE012008BD044A2A49536515200422AC
:102D60001DF006FE012008BDACC100205128000066
:102D7000C527000039270000AD26000021260000ED
:102D800095250000092500007D240000F1230000A6
:102D900065230000D92200004D220000C12100005F
:102DA00035210000A92000001D200000911F000017
:102DB000051F0000791E0000ED1D0000611D0000D0
:102DC000D51C0000491C0000BD1B0000311B000089
:102DD000A51A0000191A00008D1900000119000041
:102DE00075180000E91700005D170000D1160000FB
:102DF00045160000B91500002D150000A1140000B3
:102E000015140000891300005F4A604913651420FF
:102E100004221DF0ADFD012008BD5B4A5C49D3646E
:102E2000132004221DF0A4FD012008BD564A594973
:102E30009364122004221DF09BFD012008BD524A1C
:102E400055495364112004221DF092FD012008BD54
:102E50004D4A52491364102004221DF089FD0120BF
:102E600008BD494A4E49D3630F2004221DF080FD5E
:102E7000012008BD444A4B4993630E2004221DF0F3
:102E800077FD012008BD404A474953630D200422C5
:102E90001DF06EFD012008BD3B4A444913630C2020
:102EA00004221DF065FD012008BD374A4049D36268
:102EB0000B2004221DF05CFD012008BD324A3D4973
:102EC00093620A2004221DF053FD012008BD2E4A02
:102ED00039495362092004221DF04AFD012008BD32
:102EE000294A36491362082004221DF041FD0120C1
:102EF00008BD254A3249D361072004221DF038FD60
:102F0000012008BD204A2F499361062004221DF0AC
:102F10002FFD012008BD1C4A2B49536105200422C6
:102F20001DF026FD012008BD174A2849136104221F
:102F300010461DF01DFD012008BD134A2449D36031
:102F4000032004221DF014FD012008BD0E4A214972
:102F50009360022004221DF00BFD012008BD0A4AE7
:102F60001D495360012004221DF002FD012008BD0F
:102F7000054A1A491360002004221DF0F9FC0120C3
:102F800008BD002008BD00BFACC10020FD1200003C
:102F900071120000E511000059110000CD10000071
:102FA00041100000B50F0000290F00009D0E000029
:102FB000110E0000850D0000F90C00006D0C0000E2
:102FC000E10B0000550B0000C90A00003D0A00009B
:102FD000B109000025090000990800000D08000053
:102FE000024B1B68DB6F1B6B1B6970478C19FF1F43
:102FF0002DE9F0411D4B1D68854282B016468CB20A
:1030000019D005B2C4F590730022294600921BB274
:103010000A22174816F0A2FD164B15481B8800938C
:10302000C4F59572A31B1BB212B2294616F096FD89
:1030300002B0BDE8F081C4F595772DB23FB24FF4F0
:1030400078483B462946CDF800800A22084816F009
:1030500085FDA31B3A461BB2CDF8008029460448E3
:1030600016F07CFD02B0BDE8F08100BFB409FF1F7F
:10307000E84C00204809FF1F2DE9F043DFF82481C8
:103080003E4ED8F800003E4D83B023F045FC41ECA5
:10309000100B20F069FC00223A4B51EC100B23F08E
:1030A000B1FC23F087FF2F463060002412E0364B3E
:1030B000364A53F824303648126803EBC3035B01E9
:1030C000B3FBF2F202602046FFF792FF0134B4F541
:1030D000D27F50D055F82430012B2FD957F8240037
:1030E00023F01AFC41EC100B20F03EFC254B002293
:1030F00051EC100B23F086FC23F05CFF00EBC000CA
:1031000033684001B0FBF3F0224BB0F5907F8ABFEB
:103110004FF49071186019601F4B1B7898BF0146DF
:10312000002BC4D155F824301948D8F8002003EBFF
:10313000C3035B01B3FBF2F20260C4E700230FFAA2
:1031400084F9009349464FF490730A22134816F00D
:1031500005FD134B1B68A342B8D14FF4784300938D
:1031600049464FF490730A220C48013416F0F6FCDD
:10317000B4F5D27FAED103B0BDE8F083E05AFF1FB3
:10318000E8B600200000594060BCFF1FE04C002062
:1031900084C7FF1F086400200408FF1FE84C0020BC
:1031A000B409FF1F984B002030B5104B1D688542B5
:1031B00083B00B460DD00E4A128800920446C1F52A
:1031C00095720C4821B212B21BB216F0C7FC03B0C4
:1031D00030BDC1F595724FF47840009029B212B21B
:1031E0001BB2044816F0BAFC03B030BDB409FF1F8F
:1031F0003809FF1FE84C00202DE9F843184D194C01
:10320000DFF87080184F194E4FF0000910E056F8A3
:103210002930116803EBC3035B014846B3FBF1F1AE
:1032200009F101092160FFF7BFFFB9F5D27F14D082
:103230002B780F4A002BEAD158F82930396803EB74
:10324000C3035B014846B3FBF1F109F101092160B9
:10325000FFF7AAFFB9F5D27FEAD1BDE8F88300BF36
:103260000408FF1F08640020984B002060BCFF1F6B
:10327000E04C0020E8B6002000B5074883B0B0F964
:103280002020B0F91E30009200220192114616F063
:1032900009FF03B05DF804FBE84C0020F0B5002303
:1032A000174F1A4647F823200133B3F5007FF9D1B1
:1032B000144E4FF0000E01F1FF3C00291DDDB0F56A
:1032C000805F1ADA03460CEB0005002202E0B3F53A
:1032D000805F06D056F82340AB42224403F101033D
:1032E000F5D10844B0F5805F47F82E2004DA0EF1DE
:1032F000010EBEF5007FE0D1F0BD0022F1E700BF76
:10330000E8B600200C640020F0B50023174F1A46E1
:1033100047F823200133B3F5007FF9D1144E4FF065
:10332000000E01F1FF3C00291DDDB0F5805F1ADAC7
:1033300003460CEB0005002202E0B3F5805F06D0E7
:1033400056F82340AB42224403F10103F5D108446F
:10335000B0F5805F47F82E2004DA0EF1010EBEF5BD
:10336000007FE0D1F0BD0022F1E700BF60BCFF1F8D
:10337000FC7BFF1F00236048194640F823100133EF
:10338000B3F5805F4FF00002F7D1F0B55B495C4EBA
:103390005C4B5D4C5D4D5E480A7032701A605D4F4B
:1033A0005D495E4E5E4B22602A6002605D4C5E4D60
:1033B0005E483A600A6032601A605D4F5D495E4E59
:1033C0005E4B22602A6002605D4C5E4D5E483A6052
:1033D0000A6032601A605D4F5D495E4E5E4B22604E
:1033E0002A6002605D4C5E4D5E483A600A60326061
:1033F0001A605D4F5D495E4E5E4B22602A605E4CF6
:103400005E4D02605E483A600A605E4F5E4932601F
:103410001A605E4E5E4B22602A6002605D4C5E4D1B
:103420005E483A600A6032601A605D4F5D495E4EE8
:103430005E4B2A60226002605D4C5E4D5E483A60E1
:103440000A6032605D4F5E495E4E1A603C232B601D
:10345000236003605C4C5D4D5D483B600B603360F6
:103460005C4F5D495D4E2B60236003605C4C5D4D9D
:103470005D483B600B6033605C4F5D495D4E2B6087
:10348000236003605C4C5D4D5D483B600B603360C6
:103490005C495D4F5D4E2A70B42323605C4D027021
:1034A0005C4C5D485D4B0A705D493A7032702A7021
:1034B000227002701A705B4F5B4E5C4D5C4C5D4835
:1034C0005D4B0A705D493A7032702A70227002704A
:1034D0001A70DFF884E15A4F5A4E5B4D5B4C5C48E2
:1034E0005C4B0A7000218EF800203A7032702A700E
:1034F000227002701960F0BD0C640020AC5AFF1FEE
:10350000D04C0020DC59FF1F400B002020A40020DD
:10351000F45AFF1FF85AFF1FFC5AFF1F005BFF1FE2
:10352000045BFF1F085BFF1FC85AFF1F105BFF1FD4
:10353000145BFF1FA04B0020A44B0020D84C0020A0
:10354000A84B0020AC4B0020B04B0020B44B002017
:10355000B84B0020BC4B0020C04B0020B84C0020D2
:10356000C44C0020BC4C0020C04C0020C84C0020A3
:10357000E8BE0020ECBE00207C18FF1FEC5AFF1FA5
:103580008018FF1F8418FF1F8818FF1FD059FF1FC6
:103590008C4C0020904C0020944C0020984C002033
:1035A0009C4C0020A04C0020A44C0020D44C0020B7
:1035B000AC09FF1FA809FF1F7C08FF1F6008FF1F41
:1035C0005C08FF1F5808FF1F5408FF1F5008FF1F0B
:1035D0005409FF1F4C08FF1F4808FF1FE808FF1F82
:1035E000D408FF1FF408FF1FD008FF1FCC08FF1FDF
:1035F000EC08FF1FDC08FF1FF009FF1FF55BFF1F32
:103600009C4B002009600020205BFF1F0A60002007
:10361000E54C0020E64C00201419FF1FE55AFF1F5F
:10362000ECB30020CC59FF1FE4B60020BC5AFF1FAA
:10363000E44C002025A400205DBCFF1FF5B3002052
:103640005CBCFF1FDC5AFF1FCC5AFF1FF45BFF1F3F
:10365000DC4C0020944F0020440B00205A495B4A68
:103660005B48DFF8A8C20023F0B50B60594F5A4EF3
:103670005A4D5B4C5B4913605B4A3B6033602B6087
:10368000236003600B60594F594E5A4D5A4C5B48AA
:103690005B4913605B4A3B6033602B6023600360CF
:1036A0000B60594F594E5A4D5A4C5B485B49136059
:1036B0005B4A3B6033602B60236003600B60594FB3
:1036C000594E5A4D5A4C5B485B49DFF844E213604F
:1036D0005A4A3B6033605A4F5A4E2B6023605A4D12
:1036E0005A4C03600B605A485A49CCF80030CEF867
:1036F00000301360584A3B6033602B6023600360E6
:103700000B60564F564E574D574C5848584913600A
:10371000584A3B6033602B70237003700B70564F18
:10372000564E574D574C5848584913703C223A60F2
:1037300032602A60226002600A60554F554E564D35
:10374000564C574857493A6032602A6022600260FE
:103750000A60554F554E564D564C574857493A609A
:1037600032602A60226002600A60554E554D564C08
:103770005648574ADFF89CE15649574F4FF0B40C72
:10378000CEF800C033702B70237003701370534E4B
:10379000534D544C5448554A0B7055493B70337047
:1037A0002B70237003701370524F534E534D544C73
:1037B0005448554A0B7000213B7033702B702370B6
:1037C00003701160F0BD00BFFC5AFF1F005BFF1FBC
:1037D000145BFF1F045BFF1F085BFF1FC85AFF1F1E
:1037E000105BFF1FA04B0020A44B0020D84C0020F2
:1037F000A84B0020AC4B0020B04B0020B44B002065
:10380000B84B0020BC4B0020C04B0020B84C00201F
:10381000C44C0020BC4C0020C04C0020C84C0020F0
:10382000E8BE0020ECBE00207C18FF1FEC5AFF1FF2
:103830008018FF1F8418FF1F8818FF1FD059FF1F13
:103840008C4C0020904C0020944C0020984C002080
:103850009C4C0020A04C0020A44C0020D85AFF1FF4
:10386000D44C0020F55BFF1F9C4B0020440B002034
:1038700009600020205BFF1FAC09FF1FA809FF1F84
:103880007C08FF1F6008FF1F5C08FF1F5808FF1F10
:103890005408FF1F5008FF1F5409FF1F4C08FF1F4B
:1038A0004808FF1FE808FF1FD408FF1FF408FF1F88
:1038B000D008FF1FCC08FF1FEC08FF1FDC08FF1F0C
:1038C0000A600020E54C0020E64C00201419FF1F80
:1038D000E55AFF1FECB30020CC59FF1FE4B60020CF
:1038E000BC5AFF1FE44C002025A400205DBCFF1F34
:1038F000F5B300205CBCFF1FDC5AFF1FCC5AFF1F32
:10390000F45BFF1FDC4C0020944F0020F45AFF1F93
:10391000F85AFF1FF009FF1F544A554BD2ED007AA9
:10392000D3ED006A534B27EEA76A66EEA63AD3EDB5
:10393000004A76EE632A64EEA40A77EEE65A22EE97
:10394000E47A23EEE74AA0EEA57A0022A6EE864AA4
:1039500037EE047AB5EE407AF1EE10FA79D04649A6
:10396000464A474BD2ED001A93ED001A91ED002A1A
:103970009FED440A25EE825A71EEC15AF1EE644A77
:1039800066EEA16A67EE817AA4EEA55A36EEE73AB2
:1039900033EE055A85EE073AB0EEC35AB4EE405AFC
:1039A000F1EE10FA48DCB4EE433AF1EE10FA47D6E5
:1039B000354B83ED003A26EE016A60EEA55AA3EE80
:1039C000E16AE2EEC25ADFED2F3A75EE865A85EED5
:1039D000875AF0EEC55AF4EE635AF1EE10FA03DDA1
:1039E00015EE103A002B2FDAB4EE455AF1EE10FA2C
:1039F0002AD6264B83ED005A77EEE67ADFED215A80
:103A000067EEA07AE4EE867AE4EE027AC7EE876A81
:103A1000F0EEE67AF4EE657AF1EE10FA03DD16EEDA
:103A2000903A002B1EDAF4EE666AF1EE10FA19D61F
:103A3000174BC3ED006A704713EE103A002BB2DB50
:103A4000114B00221A60B6E7104B4FF07E521A60FD
:103A5000D2E70D480D490E4B02604FF07E500860D2
:103A60001A6070470A4B00221A607047A009FF1FB6
:103A7000A409FF1F9C09FF1FB809FF1F1808FF1F9B
:103A80001C08FF1FFFFF7F7FA84C0020E009FF1FDD
:103A90000464002030B583B001AD042420461CF03E
:103AA00015FC0134082C05F8010BF7D1124A134B11
:103AB00092ED007A9DED016AD3ED006A104A114B38
:103AC00092ED005AD3ED005A66EE077A26EE267A7A
:103AD000F7EE006AE6EE077A77EE857A77EEE57A1A
:103AE000F0EEE77AF4EEE67AF1EE10FA94BF0120F8
:103AF0004FF0FF3003B030BDE009FF1FA84C00209D
:103B0000046400201808FF1F70B5012882B00E461B
:103B1000154600F0C6800228044671D008B102B0F4
:103B200070BD4FF48C738DE818001C224FF4AF73F6
:103B30000A21834816F0B6FA0A2211462346804825
:103B400019F0DCFE0A22102311468DE818007C488B
:103B50004FF4AF7316F0A6FA0A22114623467848AE
:103B600019F0CCFE77497648FEF7B8FE294674482E
:103B700019F030FF314672481FF040F84FF6FF71E0
:103B80006F4819F027FF23462A220A216C4819F0B2
:103B9000B5FE6D496A48FEF7A1FE3C2223460A2184
:103BA000674819F0ABFE69496548FEF797FE29465C
:103BB000634819F00FFF664B186822F0CFFE41EC06
:103BC000100B02215E481FF0AFF84FF6FF715C4802
:103BD00019F000FF23465C220A21594819F08EFE95
:103BE0005C495748FEF77AFE23466E220A21544864
:103BF00019F084FE58495248FEF770FE02B070BDBD
:103C000000244FF48C738DE818001C224FF4AF731E
:103C10000A214B4816F046FA0A2211462346484824
:103C200019F06CFE0A22102311468DE81800444852
:103C30004FF4AF7316F036FA0A2211462346404875
:103C400019F05CFE3F493E48FEF748FE29463C48D5
:103C500019F0C0FE31463A481EF0D0FF4FF6FF7112
:103C6000374819F0B7FE23462A220A21344819F0B2
:103C700045FE2946324819F0ADFE38493048FEF776
:103C80002DFE4FF6FF712E4819F0A4FE0A2123469F
:103C90003C222B4819F032FE31492948FEF71EFE1E
:103CA00098E700244FF48C738DE818001C224FF421
:103CB000AF730A21224816F0F5F90A22114623466D
:103CC0001F4819F01BFE0A22102311468DE8180028
:103CD0001B484FF4AF7316F0E5F90A22114623464C
:103CE000174819F00BFE17491548FEF7F7FD29464E
:103CF000134819F06FFE314611481EF07FFF4FF652
:103D0000FF710F4819F066FE23462A220A210C484B
:103D100019F0F4FD29460A4819F05CFE11490848DB
:103D2000FEF7DCFD4FF6FF71054819F053FE0A213E
:103D300023463C22024819F0E1FD0B49ADE700BFE4
:103D4000E84C0020B4560300C4560300DC560300C0
:103D50002809FF1FEC5603000857030040570300D3
:103D60005C5703001C5703003457030038B51B4C45
:103D7000237C012B2CD972B6184DE36862B6184922
:103D8000184A08681360984221D0002B164816DBA9
:103D90000068B3EB800F05DD0023136072B6E360AB
:103DA00062B61368114C0B60002B1A46B8BFDA1CC0
:103DB000921022603220BDE838401DF0F1B803684F
:103DC0009B00136072B6EB6062B61368E0E738BD23
:103DD00072B62046FEF7C8FDCEE700BF480B0020B4
:103DE000C408FF1FE8B30020D05AFF1FC8B6002048
:103DF0002DE9F04785B28CB284B02E4E04F1210338
:103E000005F114024FF4784E07B212B218B2A5F1C0
:103E10001403CDF80CE0019202900AB200903946EA
:103E200030461BB2A5F1020917F066FE4FF6FF7887
:103E30000FFA89F904F109020E23494630468DE84C
:103E4000080112B2052316F02DF904F1FF3A0523FB
:103E5000494604F11A02A5F11509223424B230466C
:103E600000930FFA8AFA0FFA89F9CDF8048012B29A
:103E7000153516F017F92DB252464B4639463046E5
:103E80008DE810011AF0EEF9524639462B463046BD
:103E90000094CDF804801AF0E5F900944B462246D0
:103EA0002946CDF8048030461AF0DCF904B0BDE8AC
:103EB000F08700BFE84C00202DE9F0438DB2264E7C
:103EC00005F1020885B04CF218690FFA88F805234D
:103ED00084B242468DE808020F46042301B2304600
:103EE00016F0E0F8A31D05F108001BB23FB200B2C6
:103EF000EA1CA11C009701930290CDF80C9030466B
:103F000012B209B204F1080717F0F6FD3FB24FF004
:103F1000000E6A1C0723123406358DE80840394626
:103F2000304624B22DB212B20D2316F0BBF8234650
:103F30004246394630468DE820021AF093F9CDF812
:103F4000008023462A463946CDF8049030461AF0C0
:103F500089F905B0BDE8F083E84C00202DE9F04F69
:103F60008DB2354E05F1020A85B04CF218670FFA92
:103F70008AFA052384B28846524601B28DE8880049
:103F80003046042316F08EF8A31D05F1080205F152
:103F9000030E0FFA88F01BB212B2A11C009001931D
:103FA000029230460FFA8EF2039709B204F1080B21
:103FB00017F0A2FD0FFA8BFB4FF0000E6A1C0723CF
:103FC00004F10D0805F104098DE808400FFA88F89E
:103FD0000FFA89F95946304612B20D23063516F00C
:103FE00061F82DB252465946434630460197CDF806
:103FF000009012341AF036F924B2594643462A4644
:104000003046CDF8009001971AF02CF9524623461D
:1040100041463046CDF8009001971AF023F9CDF8CB
:10402000009023462A464146019730461AF01AF975
:1040300005B0BDE8F08F00BFE84C00202DE9F04F3F
:104040008DB2364E05F1020985B00FFA89F94CF2AE
:104050001868052384B28DE808014A460F460423F8
:1040600001B2304616F01EF8A31D05F108001BB280
:104070003FB200B2EA1CA11C0097CDF80C8001935E
:10408000029012B2304609B217F036FD04F1080B67
:10409000002707230FFA8BFB8DE888006A1C04F1C8
:1040A0000D0705F104083FB20FFA88F840F2FF7AD5
:1040B0005946304612B20D23063515F0F3FF2DB2E6
:1040C0004A4659463B463046CDF80080CDF804A01C
:1040D00012341AF0C7F824B259463B462A463046F5
:1040E000CDF80080CDF804A01AF0BCF84A4623466B
:1040F00039463046CDF80080CDF804A01AF0B2F869
:10410000CDF8008023462A463946CDF804A0304633
:104110001AF0A8F805B0BDE8F08F00BFE84C002009
:104120002DE9F04F504B1B7883B0002B48D1002A6B
:1041300000F08F80002A40DD8FB285B207F10A0BB4
:1041400096B20FFA80FA0CB20FFA8BFB07F1030953
:1041500005F105080FFA88F822460FFA89F9534647
:10416000514642480196CDF800B007371AF07AF868
:104170003FB22246434651463C480196CDF8009056
:104180006C1F1AF06FF824B25A465146434637481E
:10419000009701961AF066F823463A46414633489E
:1041A000CDF8009001961AF05DF8009723464A4634
:1041B000414601962D481AF055F803B0BDE8F08F3E
:1041C000002AB7D18EB206F10A0A0CB20FFA8AFAA7
:1041D0000FFA80F940F2FF7885B26F1D06F1030BEC
:1041E0003FB20FFA8BFB22464B464946CDF800A062
:1041F000CDF804801D4807361AF034F836B222464E
:104200003B464946CDF80480CDF800B01748053D3F
:104210001AF028F82DB2524649463B468DE8400137
:1042200012481AF01FF82B4632463946CDF800B036
:10423000CDF804800D481AF015F800962B465A4622
:104240003946CDF8048009481AF00CF803B0BDE8EF
:10425000F08F8EB206F10A0A0CB20FFA8AFA0FFA40
:1042600080F947F6EF38B7E73D0B0020E84C002017
:104270002DE9F04F3A4B85B21B7805F10A0785B05E
:104280000A4604B23FB20FFA81FA002B64D14FF410
:10429000404692B23B4621460292CDF800A05246DB
:1042A0000196304819F0DEFF029B019603F10A08DF
:1042B0000FFA88F83B4642462146CDF8008029484F
:1042C00019F0D0FF0299019601F105090FFA89F959
:1042D000EB1C05F1010B04351BB2524621460FFAC7
:1042E0008BFB2DB2CDF800901E48039319F0BAFF56
:1042F0002B4659465246CDF800900196194819F0C0
:10430000B1FF0399CDF8008023464A46019615482F
:1043100019F0A8FF5B464A462946CDF80080019671
:10432000104819F09FFF029C0196A01C00B2524653
:104330003B46394600900B4819F094FF04F10803FE
:104340001BB28DE8480042463B463946054819F005
:1043500089FF05B0BDE8F08F40F2FF7699E700BF16
:1043600064500020E84C00202DE9F04F85B28CB25B
:1043700083B0DFF860806E1DA71C0A3424B240F2BF
:10438000FF7936B23FB205F1080382468B463A46C2
:104390003146404600941BB2CDF8049019F062FFFC
:1043A00005F10A03A91D0FFA8BF240468DE81002B1
:1043B0001BB209B219F056FF00943A463146CDF8C7
:1043C00004900FFA8AF3404619F04CFF03B0BDE8A1
:1043D000F08F00BFE84C00202DE9F0478DB282B08D
:1043E000374E05F1040905F1110197B20FFA89F969
:1043F00003B209B284B24A46009130461946019789
:1044000019F030FF631C05F110001BB200B2194611
:104410004A4600900197304619F024FF05F10E0836
:1044200004F108030FFA88F81BB219464A46CDF882
:1044300000803046019719F015FF04F109031BB203
:10444000CDF800804A4619463046019719F00AFF18
:1044500004F1020904F1040A05F10D020FFA89F9C9
:104460000FFA8AFA12B24946534600923046019733
:1044700019F0F8FE53464946CDF8008042463046D2
:10448000019719F0EFFE04F1050805F10C0207345D
:104490000FFA88F824B212B2234641460092304601
:1044A000019719F0DFFE05F10B0212B223464146D7
:1044B0008DE88400304619F0D5FE02B0BDE8F087E3
:1044C000E84C002010B51BF05BF9092827DC324CC2
:1044D00030303023607023701BF062F9092831DC22
:1044E00030303023E070A3701BF01AF909283BDC50
:1044F00030303023607123711BF022F9092845DD2B
:10450000264BC21783FB0013C2EBA30303EB83020A
:10451000A0EB420030303033E071A37110BD1F4B6F
:104520001D4C83FB0032C317C3EBA20303EB8302D2
:10453000A0EB420030303033607023701BF030F954
:104540000928CDDD154BC21783FB0013C2EBA30373
:1045500003EB8302A0EB420030303033E070A370F5
:104560001BF0DEF80928C3DD0C4BC21783FB0013D8
:10457000C2EBA30303EB8302A0EB420030303033E5
:10458000607123711BF0DCF80928B9DC303030236E
:10459000E071A37110BD00BF8808FF1F67666666E3
:1045A0002DE9F0432F4E002389B00746336008E021
:1045B000336868460133336011F012FF684611F02A
:1045C00003FF68460122394612F006F9684611F0E9
:1045D00015FF0028ECD1384612F058F9684611F062
:1045E000F3FE3568B5F1FE6F39D94FF0FF301EF09C
:1045F00093FF102380E8280000F108096C1E4DB1DC
:104600004D462846013C00211EF00CFE631C05F1BE
:104610001005F6D13368DFF85080002BC8F8009001
:104620001ADD002401223946684612F0D5F8D8F880
:104630000030684603EB041511F0C8FE0146284619
:104640001EF0A4FE684611F0CBFE684611F0BCFED9
:1046500033680134A342E5DC09B0BDE8F0832801EA
:104660000830C4E7C859FF1F8C18FF1F08B5C822BF
:104670004FF4DC7111201EF0F1FCDC201CF090FCEA
:10468000C8224FF4DC7111201EF0E8FCDC201CF085
:1046900087FC1120C8224FF4DC711EF0DFFCDC2007
:1046A000BDE808401CF07CBC70B594B00CA8012398
:1046B0003E4A3F4912F000F80CA811F09FFE20B9C5
:1046C0000CA811F081FE14B070BD684639493A4E0D
:1046D0001EF0A8FD0CA811F0E3FD90B10CA811F09C
:1046E000FDFDC3B2392B1946684606D80A2B13D0F4
:1046F0001EF08EFE029B202BECD9FFF7B7FFFEF7D2
:1047000039FE0CA811F06CFE68461EF04BFD0CA89B
:1047100011F05AFE14B070BD2C2168461EF0B8FE90
:1047200005466C1C03464FF00002694604A8224C63
:10473000E3D01EF0BDFE6A1C029B694608A81EF06D
:10474000B7FE04A81EF0D8FE054608A81EF0D4FE49
:10475000184946F8250068461EF018FE08A81EF005
:1047600021FD04A81EF01EFD40F6FF739D42B1D14D
:10477000124B2068186000221346226054F8231060
:104780000133B3F5805F0A44F8D148B90C4B186087
:104790004FF47A701CF004FC0CA811F021FEB0E775
:1047A000074BB2FBF0F21A60F2E700BF8808FF1F68
:1047B000F0BE0020CC8303000C640020DC59FF1FF6
:1047C000B04C002030B595B00CA80123354A3649CD
:1047D00011F072FF0CA811F011FE20B90CA811F015
:1047E000F3FD15B030BD68463049314D1EF01AFD5D
:1047F0000CA811F055FD80B10CA811F06FFDC3B2EB
:10480000392B1946684606D80A2B16D01EF000FE32
:10481000029B202BECD9FFF729FF0CA811F0E0FD3B
:10482000244B2A681A60684600232B601EF0BAFCED
:104830000CA811F0C9FD15B030BD2C2168461EF042
:1048400027FE0446B4F1FF3F03464FF000026946DD
:1048500004A8E0D01EF02CFE621C029B694608A84A
:104860001EF026FE04A81EF047FE044608A81EF00F
:1048700043FE0E4945F8240068461EF087FD08A84F
:104880001EF090FC04A81EF08DFC40F6FF739C42C5
:10489000AED14FF47A701CF083FB0CA811F0A0FD90
:1048A000BBE700BF6C570300F0BE0020CC830300C1
:1048B000C819FF1F0008FF1F2DE9F0412DED028BE5
:1048C00098B008A811F072FDAE49AF4811F068FF2A
:1048D000002840F0BD81AD49AB4811F061FF0028D0
:1048E00040F01E81AA49A84811F05AFF002840F064
:1048F0009380A849A44811F053FF50B908A811F0BB
:104900006FFD08A811F060FD18B0BDEC028BBDE88A
:10491000F08110AD01239F4A9B49284611F0CCFE3F
:104920009DF84410129A9DF84C308DF824100A928C
:104930008DF82C3013A90DF12D020DF13A0311F869
:10494000010F02F8010B9A42F9D1179B0F932846E9
:1049500011F03AFD08A811F051FD0028CED06846AC
:104960008D49DFED8E8ADFF838826C461EF05AFCE6
:10497000002608E01EF04CFD029B202B00F20F8267
:10498000322E00F0E48108A811F08AFC002800F023
:10499000E18108A811F0A2FCC3B2392B19462046C8
:1049A00000F2FD810A2BE5D12E2120461EF070FD7C
:1049B0000746B7F1FF3F0346214604A84FF0000227
:1049C00000F0ED811EF074FD7A1C029B2146284602
:1049D0001EF06EFD04A81EF08FFD08EE100A28469A
:1049E0001EF08AFD07EE900AB8EEE77AB8EEC88AA4
:1049F000C7EE287A08EB860367492046013677EE32
:104A0000887AC3ED007A1EF0C1FC28461EF0CAFB6E
:104A100004A81EF0C7FBB3E710AD01235C4A5A4956
:104A2000284611F049FE9DF84410129A9DF84C302A
:104A30008DF824100A928DF82C3013A90DF12D0257
:104A40000DF13A0311F8010F02F8010B9A42F9D166
:104A5000179B0F93284611F0B7FC08A811F0CEFC65
:104A600000283FF446AF68464B49DFED4C8ADFF83B
:104A700034816C461EF0D6FB002608E01EF0C8FC10
:104A8000029B202B00F29181322E00F06A8108A84F
:104A900011F006FC002800F0678108A811F01EFC48
:104AA000C3B2392B1946204600F27F810A2BE5D18B
:104AB0002E2120461EF0ECFC0746B7F1FF3F0346CF
:104AC000214604A84FF0000200F06F811EF0F0FCB8
:104AD0007A1C029B214628461EF0EAFC04A81EF020
:104AE0000BFD08EE100A28461EF006FD07EE900AA0
:104AF000B8EEE77AB8EEC88AC7EE287A08EB8603E4
:104B000025492046013677EE887AC3ED007A1EF0FB
:104B10003DFC28461EF046FB04A81EF043FBB3E70D
:104B200010AD0123194A1849284611F0C5FD9DF81A
:104B30004410129A9DF84C308DF824100A928DF88A
:104B40002C3013A90DF12D020DF13A0311F8010FCC
:104B500002F8010B9A42F9D1179B0F93284611F0E6
:104B600033FC08A811F04AFC00283FF4BBAE6846AD
:104B70000949DFED0A8ADFF830806C461EF052FBEF
:104B800000261CE0D009FF1FF0BE00201809FF1FFF
:104B9000FC08FF1F8C09FF1FCC830300286B6E4E9F
:104BA000C44B002014600020E059FF1F1EF030FCB1
:104BB000029B202B00F2FC80322E00F0DC8008A843
:104BC00011F06EFB002800F0D98008A811F086FBD8
:104BD000C3B2392B1946204600F2EA800A2BE5D1F0
:104BE0002E2120461EF054FC0746B7F1FF3F034636
:104BF000214604A84FF0000200F0DA801EF058FCB5
:104C00007A1C029B214628461EF052FC04A81EF086
:104C100073FC08EE100A28461EF06EFC07EE900AA0
:104C2000B8EEE77AB8EEC88AC7EE287A08EB8603B2
:104C300061492046013677EE887AC3ED007A1EF08E
:104C4000A5FB28461EF0AEFA04A81EF0ABFAB3E7A7
:104C500010AD0123594A5A49284611F02DFD9DF8FF
:104C60004410129A9DF84C308DF824100A928DF859
:104C70002C3013A90DF12D020DF13A0311F8010F9B
:104C800002F8010B9A42F9D1179B0F93284611F0B5
:104C90009BFB08A811F0B2FB00283FF41CAE68464D
:104CA0004549DFED488ADFF820816C461EF0BAFAEC
:104CB000002606E01EF0ACFB029B202B72D8322EA1
:104CC00063D008A811F0ECFA002861D008A811F010
:104CD00005FBC3B2392B1946204663D80A2BE9D10C
:104CE0002E2120461EF0D4FB0746B7F1FF3F0346B6
:104CF000214604A84FF0000254D01EF0D9FB7A1CC4
:104D0000029B214628461EF0D3FB04A81EF0F4FBAC
:104D100008EE100A28461EF0EFFB07EE900AB8EEE8
:104D2000E77AB8EEC88AC7EE287A08EB86032249EC
:104D30002046013677EE887AC3ED007A1EF026FB16
:104D400028461EF02FFA04A81EF02CFAB7E708A890
:104D500011F046FB08A811F043FB20461EF022FA92
:104D6000CCE508A811F03CFB08A811F039FB20465F
:104D70001EF018FABDE508A811F032FB08A811F0E2
:104D80002FFB20461EF00EFAACE508A811F028FB18
:104D900008A811F025FB20461EF004FA9BE5FFF75A
:104DA00065FCD7E7FFF762FCF2E7FFF75FFCDBE7A4
:104DB000FFF75CFCE2E700BFCC830300D009FF1FD4
:104DC000F0BE0020286B6E4E984F0020D049D14A8B
:104DD000D14BD248D1ED007A92ED007AD3ED006A42
:104DE000CF499FEDD04AD0ED004A30B440F6E7708D
:104DF000012406EE104AB8EEC65A192335EE045ABD
:104E000003E00133834200F05D8306EE103A03FBBA
:104E100003F2B8EEC66A05EE902A26EE076AF8EEAF
:104E2000E55AA5EEA66A36EE276A34EEC66AB0EEFB
:104E3000C66AB4EEC65AF1EE10FAE2DB01340B2C6E
:104E400036D17A230122B848B84CD0ED004A9FED04
:104E5000B54A2360012540F6E77406EE105AB8EE15
:104E6000C65A192335EE045A03E00133A34200F079
:104E70002F8306EE103A03FB03F0B8EEC66A05EE88
:104E8000900A26EE076AF8EEE55AA5EEA66A36EE17
:104E9000276A34EEC66AB0EEC66AB4EEC65AF1EEC0
:104EA00010FAE2DB01350B2D06D0581CD5D006E0F8
:104EB0005D1C9ED00022C6E740F26E2301229C4872
:104EC0009C4CD0ED004A9FED974A2360012540F6A7
:104ED000E77406EE105AB8EEC65A192335EE045A96
:104EE00003E00133A34200F0F08206EE103A03FB28
:104EF00003F0B8EEC66A05EE900A26EE076AF8EEF1
:104F0000E55AA5EEA66A36EE276A34EEC66AB0EE1A
:104F1000C66AB4EEC65AF1EE10FAE2DB01350B2D8B
:104F200002D0581CD5D002E040F23453012282480E
:104F3000824CD0ED004A9FED7B4A2360012540F66C
:104F4000E77406EE105AB8EEC65A192335EE045A25
:104F500003E00133A34200F0BE8206EE103A03FBE9
:104F600003F0B8EEC66A05EE900A26EE076AF8EE80
:104F7000E55AA5EEA66A36EE276A34EEC66AB0EEAA
:104F8000C66AB4EEC65AF1EE10FAE2DB01350B2D1B
:104F900002D0581CD5D002E040F2492301226848D3
:104FA000684CD0ED004A9FED5F4A2360012540F632
:104FB000E77406EE105AB8EEC65A192335EE045AB5
:104FC00003E00133A34200F08C8206EE103A03FBAB
:104FD00003F0B8EEC66A05EE900A26EE076AF8EE10
:104FE000E55AA5EEA66A36EE276A34EEC66AB0EE3A
:104FF000C66AB4EEC65AF1EE10FAE2DB01350B2DAB
:1050000002D0581CD5D002E04FF4397301224E482B
:105010004E4CD0ED004A9FED434A2360012540F6F7
:10502000E77406EE105AB8EEC65A192335EE045A44
:1050300003E00133A34200F0518206EE103A03FB75
:1050400003F0B8EEC66A05EE900A26EE076AF8EE9F
:10505000E55AA5EEA66A36EE276A34EEC66AB0EEC9
:10506000C66AB4EEC65AF1EE10FAE2DB01350B2D3A
:1050700002D0581CD5D001E07A2301223448354CA7
:10508000D0ED004A9FED274A2360012540F6E774E2
:1050900006EE105AB8EEC65A192335EE045A03E04C
:1050A0000133A34200F0208206EE103A03FB03F026
:1050B000B8EEC66A05EE900A26EE076AF8EEE55AE3
:1050C000A5EEA66A36EE276A34EEC66AB0EEC66A68
:1050D000B4EEC65AF1EE10FAE2DB01350B2D02D028
:1050E000581CD5D002E04FF4F97301221A489FED05
:1050F0000D4ADFED1A4A0360012540F6E77406EE1B
:10510000105AB8EEC65A192335EE045A2CE000BFE7
:1051100004640020E009FF1FA84C0020E007FF1FE7
:10512000BC08FF1F00000000E407FF1F40A4002090
:10513000E807FF1FC05AFF1FEC07FF1FC45AFF1FDD
:10514000F007FF1F44A40020F407FF1F380B0020C6
:10515000F807FF1FC409FF1FC809FF1F00003E44D6
:105160000133A34200F0C68106EE103A03FB03F0C0
:10517000B8EEC66A05EE900A26EE076AF8EEE55A22
:10518000A5EEA66A36EE276A34EEC66AB0EEC66AA7
:10519000B4EEC65AF1EE10FAE2DB01350B2D02D067
:1051A000581CACD002E04FF43E730122D6489FED6C
:1051B000D74ADFEDD74A0360012440F6E77006EED8
:1051C000104AB8EEC65A192335EE045A03E00133EB
:1051D000834200F08C8106EE103A03FB03F505EEE6
:1051E000905AB8EEC66AF8EEE55A26EE076AA5EEC2
:1051F000A66A36EE276A34EEC66AB0EEC66AB4EE28
:10520000C65AF1EE10FAE2DB01340B2C02D05D1C21
:10521000D5D001E090230122BE489FEDBC4ADFEDCE
:10522000BE4A0360012540F6E77406EE105AB8EE58
:10523000C65A192335EE045A03E00133A34200F0A5
:105240005C8106EE103A03FB03F0B8EEC66A05EE89
:10525000900A26EE076AF8EEE55AA5EEA66A36EE43
:10526000276A34EEC66AB0EEC66AB4EEC65AF1EEEC
:1052700010FAE2DB01350B2D02D0581CD5D002E02C
:105280004FF47F730122A5489FEDA04ADFEDA44AA9
:105290000360012540F6E77406EE105AB8EEC65AD0
:1052A000192335EE045A03E00133A34200F04A818A
:1052B00006EE103A03FB03F0B8EEC66A05EE900A5C
:1052C00026EE076AF8EEE55AA5EEA66A36EE276ADC
:1052D00034EEC66AB0EEC66AB4EEC65AF1EE10FA03
:1052E000E2DB01350B2D02D0581CD5D002E04FF483
:1052F000FE7301228B489FED854ADFED8B4A0360E8
:10530000012540F6E77406EE105AB8EEC65A192386
:1053100035EE045A03E00133A34200F0F18006EEBB
:10532000103A03FB03F0B8EEC66A05EE900A26EECB
:10533000076AF8EEE55AA5EEA66A36EE276A34EE5D
:10534000C66AB0EEC66AB4EEC65AF1EE10FAE2DBF7
:1053500001350B2D02D0581CD5D002E04FF4C363A9
:10536000012272489FED694ADFED714A0360012511
:1053700040F6E77406EE105AB8EEC65A192335EE19
:10538000045A03E00133A34200F0968006EE103A7F
:1053900003FB03F0B8EEC66A05EE900A26EE076A34
:1053A000F8EEE55AA5EEA66A36EE276A34EEC66A2E
:1053B000B0EEC66AB4EEC65AF1EE10FAE2DB013581
:1053C0000B2D02D0581CD5D002E04FF443730122BC
:1053D00058489FED4E4ADFED584A0360012540F6DC
:1053E000E77406EE105AB8EEC65A192335EE045A81
:1053F00002E00133A34262D006EE103A03FB03F051
:10540000B8EEC66A05EE900A26EE076AF8EEE55A8F
:10541000A5EEA66A36EE276A34EEC66AB0EEC66A14
:10542000B4EEC65AF1EE10FAE3DB01350B2D02D0D3
:10543000581CD6D002E040F2B45301223F489FED01
:10544000334ADFED3F4A0360012540F6E77406EE7C
:10545000105AB8EEC65A192335EE045A02E0013349
:10546000A34226D006EE103A03FB03F0B8EEC66A5C
:1054700005EE900A26EE076AF8EEE55AA5EEA66A52
:1054800036EE276A34EEC66AB0EEC66AB4EEC65A85
:10549000F1EE10FAE3DB01350B2D05D0581CD6D008
:1054A0000B601AB930BC7047E6230B6030BCFFF7C5
:1054B000DDB84FF0FF33EEE74FF0FF337FE74FF0FB
:1054C000FF33B2E74FF0FF33B8E44FF0FF3325E589
:1054D0004FF0FF33E6E44FF0FF3357E54FF0FF3373
:1054E000C4E54FF0FF3389E54FF0FF33F5E54FF0AA
:1054F000FF3389E64FF0FF334FE64FF0FF33B9E655
:105500004FF0FF3324E700BFA008FF1F000000009A
:1055100000001043A408FF1F00007F44A808FF1FDD
:105520000000FE43AC08FF1F0000C344B008FF1F8B
:1055300000004344B408FF1F0080B644B808FF1FB2
:10554000000066434FF0FF33CBE600BF08B564228E
:105550004FF45C7111201DF081FD65201BF020FDD2
:10556000642240F2174111201DF078FD65201BF0E8
:1055700017FD1120642240F227511DF06FFD6520B8
:10558000BDE808401BF00CBD08B5C82240F2275109
:1055900011201DF063FDC9201BF002FD1120DC224B
:1055A00040F217411DF05AFDDD20BDE808401BF018
:1055B000F7BC00BF70B594B0FEF784FF394B3A4892
:1055C00018603A4A3A490CA8132311F075F80CA850
:1055D00010F014FF20B90CA810F0F6FE14B070BD46
:1055E0003449354E08A81DF01DFE344A3449354B68
:1055F00012681B68096804A801FB02310A221DF029
:1056000057FE04A908A81DF013FF01462E481DF0FF
:10561000ADFE04A81DF0C6FD08A81DF0C3FD2A4973
:105620000CA81DF0EBFA0CA81DF00EFB01240A22B9
:10563000214668461DF028FE694604A81DF006FEB6
:10564000224904A81DF0FCFE0A2256F82410054643
:1056500008A81DF041FE08A928461DF0E9FE0146F4
:1056600019481DF083FE08A81DF09CFD04A81DF03C
:1056700099FD68461DF096FD13490CA81DF0BEFA71
:1056800001340CA81DF0E0FAB4F5805FCFD1FFF72C
:105690007BFF0CA810F0A4FE0CA810F095FE14B02F
:1056A00070BD00BF5CBF0020B50400008808FF1F6C
:1056B000F0BE00207C5703000C640020400B00204B
:1056C0003409FF1FDC59FF1F10A40020805703007E
:1056D000F8B51248124F00253D602C4629462B464E
:1056E000064650F823208A4203D956F82340012564
:1056F00021460133B3F5805FF3D165B9094B994277
:1057000008D9094C01232370FFF754FFFDF732FE3F
:1057100000232370F8BD3C60F0E700BF0C6400205C
:105720009019FF1F80969800AC5AFF1F70B544492E
:10573000444894B011F034F800287CD1424B434CDB
:105740001B68434D23600CA8424E3D4A3D492E60E4
:10575000132310F0B1FF0CA810F050FE20B90CA8D4
:1057600010F032FE14B070BD0A22002168461DF010
:105770008BFD694604A81DF069FD3749374E04A822
:105780001DF05EFE0A222168054608A81DF090FD66
:1057900008A928461DF04CFE014631481DF0E6FDE3
:1057A00008A81DF0FFFC04A81DF0FCFC68461DF0D5
:1057B000F9FC2B490CA81DF021FA0CA81DF044FAA5
:1057C00001240A22214668461DF05EFD694604A8B0
:1057D0001DF03CFD204904A81DF032FE0A2256F8B7
:1057E0002410054608A81DF077FD08A928461DF0DD
:1057F0001FFE01461A481DF0B9FD08A81DF0D2FC95
:1058000004A81DF0CFFC68461DF0CCFC14490CA880
:105810001DF0F4F901340CA81DF016FAB4F5805F00
:10582000CFD1FFF7B1FE0CA810F0DAFD0CA810F0F4
:10583000CBFD14B070BD0249024810F0BFFF7DE7F8
:105840006C570300F0BE0020DC59FF1F0008FF1F4B
:105850005CBF0020B5040000805703000C640020EA
:1058600010A4002038B5352444F6B02501211120BC
:105870001BF07CFB2B46013BFDD1002111201BF0CE
:1058800075FB2B46013BFDD1013CEFD1412443F692
:105890003835012111201BF069FB2B46013BFDD15E
:1058A000002111201BF062FB2B46013BFDD1013C86
:1058B000EFD1352444F6B025012111201BF056FB11
:1058C0002B46013BFDD1002111201BF04FFB2B4645
:1058D000013BFDD1013CEFD138BD00BF38B5642498
:1058E00043F63835012111201BF040FB2B46013BCC
:1058F000FDD1002111201BF039FB2B46013BFDD1CE
:10590000013CEFD1782444F6B025012111201BF091
:105910002DFB2B46013BFDD1002111201BF026FB66
:105920002B46013BFDD1013CEFD138BDF0B56B4BAF
:105930001B78002B2AD16A4F6A4A6B4E3A606B483B
:105940006B4F37606B4C6C4F6C4B02606C496D4D0C
:105950006D4E6E486E4A23603B604FF07C54322798
:105960000C602F60336003606A4C6B496B4F6C4D69
:105970006C4E6D4813606D4A23600B6005244FF038
:105980007E513B602E6004601160F0BD012B29D177
:105990005B4D674F5749594B2F60534A5048564FFC
:1059A000584C504E0B604FF0824106601160564DCE
:1059B0004E48574A3B6019272760544E5549564C6C
:1059C0002B6003601360554F554D5748574A33605D
:1059D0000B60584E584923600A243B602E600460D7
:1059E0001160F0BD022B2AD13D4C544B3E48444D32
:1059F000404A23604E4F4349514C2F6004604A4E49
:105A00003D4F424D394C424813600F220A603E49D7
:105A100032602B60236003603B60DFF83CE1404E66
:105A20003C4D3D4C3D48414B344A464FC1F800E0A7
:105A3000414937602A60226002601960F0BD032B83
:105A400021D1274C284B2E4D2E48264A3E4F3F4E03
:105A5000226032242E60046024491F60264D254FA9
:105A6000294E2A48DFF8A8E0244B0A603B602B60EF
:105A700033600360274C2849284F294D294E2A4876
:105A8000CEF8003077E7042B27D11D4B144E154A72
:105A900015482F4D1549174F32601A4C1D602D4E79
:105AA000164B06600A60144D1848194A3B602327BC
:105AB0002760154E1749184C2B6003601360174F71
:105AC000174D1948194A33600B60164E1A49236066
:105AD00007243B602E6004601160F0BD0860002068
